{
  "contracts/Settlement.sol": {
    "Settlement": {
      "abi": [
        {
          "anonymous": false,
          "inputs": [
            {
              "indexed": true,
              "internalType": "address",
              "name": "trader",
              "type": "address"
            },
            {
              "indexed": false,
              "internalType": "uint256",
              "name": "gasPaid",
              "type": "uint256"
            },
            {
              "indexed": false,
              "internalType": "string",
              "name": "reason",
              "type": "string"
            }
          ],
          "name": "SwapFailed",
          "type": "event"
        },
        {
          "anonymous": false,
          "inputs": [
            {
              "indexed": true,
              "internalType": "address",
              "name": "trader",
              "type": "address"
            },
            {
              "indexed": true,
              "internalType": "address",
              "name": "executor",
              "type": "address"
            },
            {
              "indexed": false,
              "internalType": "uint256",
              "name": "inputAmount",
              "type": "uint256"
            },
            {
              "indexed": false,
              "internalType": "uint256",
              "name": "outputAmount",
              "type": "uint256"
            },
            {
              "indexed": false,
              "internalType": "uint256",
              "name": "fee",
              "type": "uint256"
            },
            {
              "indexed": false,
              "internalType": "uint256",
              "name": "gasPaid",
              "type": "uint256"
            }
          ],
          "name": "SwapSuccess",
          "type": "event"
        },
        {
          "anonymous": false,
          "inputs": [
            {
              "indexed": true,
              "internalType": "address",
              "name": "trader",
              "type": "address"
            },
            {
              "indexed": false,
              "internalType": "uint256",
              "name": "penalty",
              "type": "uint256"
            },
            {
              "indexed": false,
              "internalType": "uint256",
              "name": "gasPaid",
              "type": "uint256"
            },
            {
              "indexed": false,
              "internalType": "string",
              "name": "reason",
              "type": "string"
            }
          ],
          "name": "TraderPenalized",
          "type": "event"
        },
        {
          "inputs": [],
          "name": "ACTION_ROLE",
          "outputs": [
            {
              "internalType": "bytes32",
              "name": "",
              "type": "bytes32"
            }
          ],
          "stateMutability": "view",
          "type": "function"
        },
        {
          "inputs": [],
          "name": "ADMIN_ROLE",
          "outputs": [
            {
              "internalType": "bytes32",
              "name": "",
              "type": "bytes32"
            }
          ],
          "stateMutability": "view",
          "type": "function"
        },
        {
          "inputs": [],
          "name": "PAUSER_ROLE",
          "outputs": [
            {
              "internalType": "bytes32",
              "name": "",
              "type": "bytes32"
            }
          ],
          "stateMutability": "view",
          "type": "function"
        },
        {
          "inputs": [],
          "name": "RELAY_ROLE",
          "outputs": [
            {
              "internalType": "bytes32",
              "name": "",
              "type": "bytes32"
            }
          ],
          "stateMutability": "view",
          "type": "function"
        },
        {
          "inputs": [
            {
              "internalType": "bytes32",
              "name": "role",
              "type": "bytes32"
            },
            {
              "internalType": "address",
              "name": "actor",
              "type": "address"
            }
          ],
          "name": "addRole",
          "outputs": [],
          "stateMutability": "nonpayable",
          "type": "function"
        },
        {
          "inputs": [
            {
              "internalType": "address",
              "name": "owner",
              "type": "address"
            }
          ],
          "name": "availableForUse",
          "outputs": [
            {
              "internalType": "uint256",
              "name": "",
              "type": "uint256"
            }
          ],
          "stateMutability": "view",
          "type": "function"
        },
        {
          "inputs": [
            {
              "internalType": "address",
              "name": "owner",
              "type": "address"
            }
          ],
          "name": "availableGasForWithdraw",
          "outputs": [
            {
              "internalType": "uint256",
              "name": "",
              "type": "uint256"
            }
          ],
          "stateMutability": "view",
          "type": "function"
        },
        {
          "inputs": [],
          "name": "depositGas",
          "outputs": [],
          "stateMutability": "payable",
          "type": "function"
        },
        {
          "inputs": [
            {
              "components": [
                {
                  "internalType": "uint128",
                  "name": "fee",
                  "type": "uint128"
                },
                {
                  "internalType": "uint128",
                  "name": "dexFee",
                  "type": "uint128"
                },
                {
                  "internalType": "address",
                  "name": "trader",
                  "type": "address"
                },
                {
                  "components": [
                    {
                      "internalType": "contract IERC20",
                      "name": "token",
                      "type": "address"
                    },
                    {
                      "internalType": "uint112",
                      "name": "amount",
                      "type": "uint112"
                    }
                  ],
                  "internalType": "struct Types.TokenAmount",
                  "name": "input",
                  "type": "tuple"
                },
                {
                  "components": [
                    {
                      "internalType": "contract IERC20",
                      "name": "token",
                      "type": "address"
                    },
                    {
                      "internalType": "uint112",
                      "name": "amount",
                      "type": "uint112"
                    }
                  ],
                  "internalType": "struct Types.TokenAmount",
                  "name": "output",
                  "type": "tuple"
                }
              ],
              "internalType": "struct Types.Order",
              "name": "order",
              "type": "tuple"
            },
            {
              "internalType": "contract IDexRouter",
              "name": "router",
              "type": "address"
            },
            {
              "internalType": "bytes",
              "name": "data",
              "type": "bytes"
            }
          ],
          "name": "fill",
          "outputs": [],
          "stateMutability": "nonpayable",
          "type": "function"
        },
        {
          "inputs": [],
          "name": "getConfig",
          "outputs": [
            {
              "components": [
                {
                  "internalType": "address",
                  "name": "devTeam",
                  "type": "address"
                },
                {
                  "internalType": "uint128",
                  "name": "minFee",
                  "type": "uint128"
                },
                {
                  "internalType": "uint128",
                  "name": "penaltyFee",
                  "type": "uint128"
                },
                {
                  "internalType": "uint8",
                  "name": "lockoutBlocks",
                  "type": "uint8"
                }
              ],
              "internalType": "struct Types.Config",
              "name": "",
              "type": "tuple"
            }
          ],
          "stateMutability": "view",
          "type": "function"
        },
        {
          "inputs": [],
          "name": "getDevTeam",
          "outputs": [
            {
              "internalType": "address",
              "name": "",
              "type": "address"
            }
          ],
          "stateMutability": "view",
          "type": "function"
        },
        {
          "inputs": [],
          "name": "getLockoutBlocks",
          "outputs": [
            {
              "internalType": "uint8",
              "name": "",
              "type": "uint8"
            }
          ],
          "stateMutability": "view",
          "type": "function"
        },
        {
          "inputs": [],
          "name": "getMinFee",
          "outputs": [
            {
              "internalType": "uint128",
              "name": "",
              "type": "uint128"
            }
          ],
          "stateMutability": "view",
          "type": "function"
        },
        {
          "inputs": [],
          "name": "getPenaltyFee",
          "outputs": [
            {
              "internalType": "uint128",
              "name": "",
              "type": "uint128"
            }
          ],
          "stateMutability": "view",
          "type": "function"
        },
        {
          "inputs": [
            {
              "internalType": "address",
              "name": "holder",
              "type": "address"
            },
            {
              "internalType": "uint256",
              "name": "due",
              "type": "uint256"
            }
          ],
          "name": "hasEnoughGas",
          "outputs": [
            {
              "internalType": "bool",
              "name": "",
              "type": "bool"
            }
          ],
          "stateMutability": "view",
          "type": "function"
        },
        {
          "inputs": [
            {
              "internalType": "bytes32",
              "name": "role",
              "type": "bytes32"
            },
            {
              "internalType": "address",
              "name": "actor",
              "type": "address"
            }
          ],
          "name": "hasRole",
          "outputs": [
            {
              "internalType": "bool",
              "name": "",
              "type": "bool"
            }
          ],
          "stateMutability": "view",
          "type": "function"
        },
        {
          "inputs": [
            {
              "components": [
                {
                  "internalType": "address",
                  "name": "devTeam",
                  "type": "address"
                },
                {
                  "internalType": "uint128",
                  "name": "minFee",
                  "type": "uint128"
                },
                {
                  "internalType": "uint128",
                  "name": "penaltyFee",
                  "type": "uint128"
                },
                {
                  "internalType": "uint8",
                  "name": "lockoutBlocks",
                  "type": "uint8"
                }
              ],
              "internalType": "struct Types.Config",
              "name": "config",
              "type": "tuple"
            }
          ],
          "name": "initialize",
          "outputs": [],
          "stateMutability": "nonpayable",
          "type": "function"
        },
        {
          "inputs": [
            {
              "internalType": "uint112",
              "name": "amount",
              "type": "uint112"
            }
          ],
          "name": "requestWithdrawGas",
          "outputs": [],
          "stateMutability": "nonpayable",
          "type": "function"
        },
        {
          "inputs": [
            {
              "internalType": "bytes32",
              "name": "role",
              "type": "bytes32"
            },
            {
              "internalType": "address",
              "name": "actor",
              "type": "address"
            }
          ],
          "name": "revokeRole",
          "outputs": [],
          "stateMutability": "nonpayable",
          "type": "function"
        },
        {
          "inputs": [
            {
              "components": [
                {
                  "internalType": "address",
                  "name": "devTeam",
                  "type": "address"
                },
                {
                  "internalType": "uint128",
                  "name": "minFee",
                  "type": "uint128"
                },
                {
                  "internalType": "uint128",
                  "name": "penaltyFee",
                  "type": "uint128"
                },
                {
                  "internalType": "uint8",
                  "name": "lockoutBlocks",
                  "type": "uint8"
                }
              ],
              "internalType": "struct Types.Config",
              "name": "config",
              "type": "tuple"
            }
          ],
          "name": "setConfig",
          "outputs": [],
          "stateMutability": "nonpayable",
          "type": "function"
        },
        {
          "inputs": [
            {
              "internalType": "address",
              "name": "team",
              "type": "address"
            }
          ],
          "name": "setDevTeam",
          "outputs": [],
          "stateMutability": "nonpayable",
          "type": "function"
        },
        {
          "inputs": [
            {
              "internalType": "uint8",
              "name": "blocks",
              "type": "uint8"
            }
          ],
          "name": "setLockoutBlocks",
          "outputs": [],
          "stateMutability": "nonpayable",
          "type": "function"
        },
        {
          "inputs": [
            {
              "internalType": "uint128",
              "name": "fee",
              "type": "uint128"
            }
          ],
          "name": "setMinFee",
          "outputs": [],
          "stateMutability": "nonpayable",
          "type": "function"
        },
        {
          "inputs": [
            {
              "internalType": "uint128",
              "name": "fee",
              "type": "uint128"
            }
          ],
          "name": "setPenaltyFee",
          "outputs": [],
          "stateMutability": "nonpayable",
          "type": "function"
        },
        {
          "inputs": [
            {
              "internalType": "address",
              "name": "owner",
              "type": "address"
            }
          ],
          "name": "thawingFunds",
          "outputs": [
            {
              "internalType": "uint256",
              "name": "",
              "type": "uint256"
            }
          ],
          "stateMutability": "view",
          "type": "function"
        },
        {
          "inputs": [
            {
              "internalType": "uint112",
              "name": "amount",
              "type": "uint112"
            }
          ],
          "name": "withdrawGas",
          "outputs": [],
          "stateMutability": "nonpayable",
          "type": "function"
        }
      ],
      "devdoc": {
        "kind": "dev",
        "methods": {},
        "version": 1
      },
      "evm": {
        "bytecode": {
          "linkReferences": {
            "contracts/libs/LibAccess.sol": {
              "LibAccess": [
                {
                  "length": 20,
                  "start": 2391
                }
              ]
            },
            "contracts/libs/LibConfig.sol": {
              "LibConfig": [
                {
                  "length": 20,
                  "start": 1641
                },
                {
                  "length": 20,
                  "start": 2635
                },
                {
                  "length": 20,
                  "start": 3790
                }
              ]
            },
            "contracts/libs/LibGas.sol": {
              "LibGas": [
                {
                  "length": 20,
                  "start": 1307
                }
              ]
            }
          },
          "object": "608060405234801561001057600080fd5b50612c86806100206000396000f3fe6080604052600436106101815760003560e01c806375e9aac8116100d1578063b1cf4b0c1161008a578063e63ab1e911610064578063e63ab1e91461042f578063e959b38a14610444578063f102669b14610464578063fc8926d31461048457610181565b8063b1cf4b0c146103cb578063c3f909d4146103ed578063d547741f1461040f57610181565b806375e9aac814610321578063775506101461034e578063849ef8ce146103635780638d3403fd1461038357806391d14854146103a3578063ae9bb692146103c357610181565b8063334c3c651161013e5780634e1c6829116101185780634e1c6829146102a85780635cf34bcf146102c85780636a9447b5146102ea57806375b238fc1461030c57610181565b8063334c3c65146102485780633f51e1821461026857806340ee75bb1461028857610181565b806304421823146101865780630f306725146101b157806312d20441146101d15780631eab21b9146101f157806327054df61461021157806330f205d014610226575b600080fd5b34801561019257600080fd5b5061019b6104a4565b6040516101a8919061241b565b60405180910390f35b3480156101bd57600080fd5b5061019b6101cc366004611fc4565b6104c8565b3480156101dd57600080fd5b5061019b6101ec366004611fc4565b6104e2565b3480156101fd57600080fd5b5061019b61020c366004611fc4565b610574565b34801561021d57600080fd5b5061019b610588565b34801561023257600080fd5b50610246610241366004612285565b6105ac565b005b34801561025457600080fd5b506102466102633660046120f8565b6105fc565b34801561027457600080fd5b506102466102833660046120f8565b6106a5565b34801561029457600080fd5b506102466102a3366004611fc4565b61072b565b3480156102b457600080fd5b506102466102c33660046122ac565b610755565b3480156102d457600080fd5b506102dd61077f565b6040516101a89190612a95565b3480156102f657600080fd5b506102ff61079c565b6040516101a891906123a5565b34801561031857600080fd5b5061019b6107b5565b34801561032d57600080fd5b5061034161033c366004611fe0565b6107c7565b6040516101a89190612410565b34801561035a57600080fd5b506102dd6107df565b34801561036f57600080fd5b5061024661037e3660046121bc565b610802565b34801561038f57600080fd5b5061024661039e3660046122e0565b6108fd565b3480156103af57600080fd5b506103416103be3660046120c9565b61091e565b6102466109b9565b3480156103d757600080fd5b506103e06109f6565b6040516101a89190612add565b3480156103f957600080fd5b50610402610a0c565b6040516101a891906129c1565b34801561041b57600080fd5b5061024661042a3660046120c9565b610aa7565b34801561043b57600080fd5b5061019b610af5565b34801561045057600080fd5b5061024661045f3660046120c9565b610b19565b34801561047057600080fd5b5061024661047f3660046122ac565b610b59565b34801561049057600080fd5b5061024661049f366004612285565b610b8f565b7f077a1d526a4ce8a773632ab13b4fbbf1fcc954c3dab26cd27ea0e2a6750da5d781565b60006104dc826104d6610c78565b90610c9c565b92915050565b60006104ec610c78565b604051634666141360e11b815273__$a72b9955336c87e02ef569d9208435f43d$__91638ccc282691610524919086906004016129e3565b60206040518083038186803b15801561053c57600080fd5b505af4158015610550573d6000803e3d6000fd5b505050506040513d601f19601f820116820180604052508101906104dc91906122c8565b60006104dc82610582610c78565b90610cf1565b7fd95061bdf0c43d77b6cbe1c15072292976244ec8d5012de75baa36e42da4625e81565b6000816001600160701b0316116105de5760405162461bcd60e51b81526004016105d5906128fe565b60405180910390fd5b6105f96105e9610d5c565b826105f2610c78565b9190610d60565b50565b610616600080516020612c318339815191526103be610d5c565b6106325760405162461bcd60e51b81526004016105d59061297f565b61063a610e4f565b6040516321cab0c760e01b815273__$015d7794271f690550e5fe4793e4b79169$__916321cab0c791610672919085906004016129cf565b60006040518083038186803b15801561068a57600080fd5b505af415801561069e573d6000803e3d6000fd5b5050505050565b60006106af610e73565b8054909150610100900460ff16806106c95750805460ff16155b6106e55760405162461bcd60e51b81526004016105d5906128d1565b8054610100900460ff1615801561070d57815460ff1961ff0019909116610100171660011782555b61071683610e97565b801561072657815461ff00191682555b505050565b80610734610e4f565b80546001600160a01b0319166001600160a01b039290921691909117905550565b8061075e610e4f565b60010180546001600160801b03928316600160801b02921691909117905550565b6000610789610e4f565b600101546001600160801b031690505b90565b60006107a6610e4f565b546001600160a01b0316905090565b600080516020612c3183398151915281565b6000816107d684610582610c78565b10159392505050565b60006107e9610e4f565b60010154600160801b90046001600160801b0316919050565b61082e7f077a1d526a4ce8a773632ab13b4fbbf1fcc954c3dab26cd27ea0e2a6750da5d76103be610d5c565b61084a5760405162461bcd60e51b81526004016105d5906127eb565b610852610f0f565b5460ff16156108735760405162461bcd60e51b81526004016105d59061246e565b600161087d610f0f565b805460ff191691151591909117905560005a9050610899611ed4565b6108a286610f33565b90506108ae86866110e3565b600060606108be88888888611169565b915091506108cd888484611262565b6108da888383868861147c565b5050505060006108e8610f0f565b805460ff191691151591909117905550505050565b80610906610e4f565b600201805460ff191660ff9290921691909117905550565b6000610928610f0f565b604051630f40931b60e41b815273__$712f9bd20561de4f0bfbc1442284f16fb4$__9163f40931b0916109629190879087906004016129a2565b60206040518083038186803b15801561097a57600080fd5b505af415801561098e573d6000803e3d6000fd5b505050506040513d601f19601f820116820180604052508101906109b2919061200b565b9392505050565b600034116109d95760405162461bcd60e51b81526004016105d590612716565b6109f46109e4610d5c565b346109ed610c78565b91906116e2565b565b6000610a00610e4f565b6002015460ff16905090565b610a14611efc565b610a1c610e4f565b604051636d73f0db60e01b815273__$015d7794271f690550e5fe4793e4b79169$__91636d73f0db91610a52919060040161241b565b60806040518083038186803b158015610a6a57600080fd5b505af4158015610a7e573d6000803e3d6000fd5b505050506040513d601f19601f82011682018060405250810190610aa29190612160565b905090565b610ac1600080516020612c318339815191526103be610d5c565b610add5760405162461bcd60e51b81526004016105d59061297f565b610af18282610aea610f0f565b9190611769565b5050565b7f65d7a28e3265b37a6474929f336521b332c1681b933f6cb9f3376673440d862a81565b610b33600080516020612c318339815191526103be610d5c565b610b4f5760405162461bcd60e51b81526004016105d59061297f565b610af18282611798565b80610b62610e4f565b60010180546fffffffffffffffffffffffffffffffff19166001600160801b039290921691909117905550565b610b97610f0f565b5460ff1615610bb85760405162461bcd60e51b81526004016105d59061246e565b6001610bc2610f0f565b805460ff19169115159190911790556001600160701b038116610bf75760405162461bcd60e51b81526004016105d5906128fe565b610c12610c02610d5c565b82610c0b610c78565b91906117ac565b610c1a610d5c565b6001600160a01b03166108fc826001600160701b03169081150290604051600060405180830381858888f19350505050158015610c5b573d6000803e3d6000fd5b506000610c66610f0f565b805460ff191691151591909117905550565b7f8c89fc81d9ea4103ca01a6b8674fdaec22ec47acad49dcba52ad9c3d556ea07590565b6001600160a01b0381166000908152602083905260408120600181015415801590610cca5750438160010154115b15610ce75754600160701b90046001600160701b031690506104dc565b5060009392505050565b6001600160a01b0381166000908152602083905260408120600181015415801590610d1f5750438160010154105b15610d4b578054610d43906001600160701b0380821691600160701b900416611853565b9150506104dc565b546001600160701b03169392505050565b3390565b6001600160a01b03821660009081526020849052604090208054610d91906001600160701b03908116908416611878565b81546001600160701b0319166001600160701b0391821617808355610dc291600160701b9091048116908416611853565b81546001600160701b0391909116600160701b02600160701b600160e01b0319909116178155610e01610df3610e4f565b60020154439060ff16611853565b60018201556040516001600160a01b038416907f2003b3784184319a80d89c8f4f47ed588347aba97e0f40ae058f928c8bb5f74d90610e41908590612a81565b60405180910390a250505050565b7ff5b4be0a744c821d14f78bf26d55a308f420d78cebbfac103f2618fba32917b990565b7fd59dd79cfd4373c6c6547848d91fc2ea67c8aec9053f7028828216c5af1d474190565b610e9f610e4f565b6040516321cab0c760e01b815273__$015d7794271f690550e5fe4793e4b79169$__916321cab0c791610ed7919085906004016129cf565b60006040518083038186803b158015610eef57600080fd5b505af4158015610f03573d6000803e3d6000fd5b505050506105f96118a0565b7f3a83b1278d351a40f18bb9e8e77896e8c1dc812ffaed5ea63e0e837a6dae57e990565b610f3b611ed4565b610f45823a611969565b610f615760405162461bcd60e51b81526004016105d59061289a565b610f6a82611a40565b610f865760405162461bcd60e51b81526004016105d5906127a2565b610f8f82611add565b610fab5760405162461bcd60e51b81526004016105d590612757565b60405180608001604052808360600151600001516001600160a01b03166370a0823185604001516040518263ffffffff1660e01b8152600401610fee91906123a5565b60206040518083038186803b15801561100657600080fd5b505afa15801561101a573d6000803e3d6000fd5b505050506040513d601f19601f8201168201806040525081019061103e91906122c8565b81526020018360800151600001516001600160a01b03166370a0823185604001516040518263ffffffff1660e01b815260040161107b91906123a5565b60206040518083038186803b15801561109357600080fd5b505afa1580156110a7573d6000803e3d6000fd5b505050506040513d601f19601f820116820180604052508101906110cb91906122c8565b81526020016000815260200160008152509050919050565b6040820151606083015160208101519051611114926001600160a01b039091169184906001600160701b0316611b2c565b60208201516001600160801b031615610af15760208201516040516001600160a01b038316916001600160801b031680156108fc02916000818181858888f19350505050158015610726573d6000803e3d6000fd5b60006060846001600160a01b0316639893013561118a620138805a90611878565b8887876040518563ffffffff1660e01b81526004016111ab939291906129fa565b600060405180830381600088803b1580156111c557600080fd5b5087f1935050505080156111fb57506040513d6000823e601f3d908101601f191682016040526111f89190810190612027565b60015b61125257611207612b44565b80611212575061121d565b60009250905061124d565b50506040805180820190915260138152722ab735b737bbb7103330b4b6103932b0b9b7b760691b60208201526000905b611259565b5050600191505b94509492505050565b60608301515160408085015190516370a0823160e01b81526001600160a01b03909216916370a0823191611298916004016123a5565b60206040518083038186803b1580156112b057600080fd5b505afa1580156112c4573d6000803e3d6000fd5b505050506040513d601f19601f820116820180604052508101906112e891906122c8565b60408301528061131b5781516040830151146113165760405162461bcd60e51b81526004016105d590612650565b610726565b60808301515160408085015190516370a0823160e01b81526001600160a01b03909216916370a0823191611351916004016123a5565b60206040518083038186803b15801561136957600080fd5b505afa15801561137d573d6000803e3d6000fd5b505050506040513d601f19601f820116820180604052508101906113a191906122c8565b606083018190526020830151106113ca5760405162461bcd60e51b81526004016105d590612437565b8260800151602001516001600160701b03166113f78360200151846060015161187890919063ffffffff16565b10156114155760405162461bcd60e51b81526004016105d59061280e565b81516040830151106114395760405162461bcd60e51b81526004016105d59061255e565b606083015160200151604083015183516001600160701b039092169161145e91611878565b11156107265760405162461bcd60e51b81526004016105d59061269e565b8361154757600061149a61ea606114945a8590611878565b90611853565b905060006114a8823a611b8a565b90506114b8876040015182611bc4565b86604001516001600160a01b03167f25e268b6e417ca50f83f2b95db36dfd7e9d897f9b0b714668524e848e863534782876040516114f7929190612aa9565b60405180910390a2611507610d5c565b6001600160a01b03166108fc829081150290604051600060405180830381858888f1935050505015801561153f573d6000803e3d6000fd5b50505061069e565b600061155a61ea606114945a8590611878565b90506000611568823a611b8a565b90506115a887604001516115a389602001516001600160801b03166114948b600001516001600160801b03168661185390919063ffffffff16565b611bc4565b6115b0610d5c565b6001600160a01b03166108fc829081150290604051600060405180830381858888f193505050501580156115e8573d6000803e3d6000fd5b506115f1610e4f565b5487516040516001600160a01b03909216916001600160801b0390911680156108fc02916000818181858888f19350505050158015611634573d6000803e3d6000fd5b5061163d610d5c565b6001600160a01b031687604001516001600160a01b03167f5ac72b858888990bb2049431a88689d4792e4f81276a67205492ba0e430812ae6116908760400151886000015161187890919063ffffffff16565b602088015160608901516116a391611878565b60208c01518c516116c0916001600160801b039182169116611853565b866040516116d19493929190612ac2565b60405180910390a350505050505050565b6001600160a01b03821660009081526020849052604090208054611713906001600160701b03908116908416611853565b81546001600160701b0319166001600160701b03919091161781556040516001600160a01b038416907fc0fa3ea2fda298bdf9ac3cd23fd02c7a0562596814d731619ee046a7a93c09be90610e41908590612a81565b60009182526001909201602090815260408083206001600160a01b03909416835292905220805460ff19169055565b610af182826117a5610f0f565b9190611bd8565b6001600160a01b038216600090815260208490526040902060018101546117e55760405162461bcd60e51b81526004016105d5906124b9565b438160010154106118085760405162461bcd60e51b81526004016105d59061258e565b805461182890600160701b90046001600160701b03908116908416611878565b81546001600160701b0391909116600160701b02600160701b600160e01b0319909116179055505050565b6000828201838110156109b25760405162461bcd60e51b81526004016105d5906124f0565b60008282111561189a5760405162461bcd60e51b81526004016105d5906125d3565b50900390565b60006118aa610e73565b8054909150610100900460ff16806118c45750805460ff16155b6118e05760405162461bcd60e51b81526004016105d5906128d1565b8054610100900460ff1615801561190857815460ff1961ff0019909116610100171660011782555b6000611912610d5c565b905061192c600080516020612c3183398151915282611798565b6119567f65d7a28e3265b37a6474929f336521b332c1681b933f6cb9f3376673440d862a82611798565b508015610af15750805461ff0019169055565b6000806119796206ddd084611b8a565b905060006119b7611988610e4f565b60010154602087015187516001600160801b03600160801b909304831692611494928116918391889116611853565b6040808701519051630ebd355960e31b815291925060009130916375e9aac8916119e6919086906004016123f7565b60206040518083038186803b1580156119fe57600080fd5b505afa158015611a12573d6000803e3d6000fd5b505050506040513d601f19601f82011682018060405250810190611a36919061200b565b9695505050505050565b6000808260600151602001516001600160701b03168360600151600001516001600160a01b03166370a0823185604001516040518263ffffffff1660e01b8152600401611a8d91906123a5565b60206040518083038186803b158015611aa557600080fd5b505afa158015611ab9573d6000803e3d6000fd5b505050506040513d601f19601f820116820180604052508101906107d691906122c8565b6000808260600151602001516001600160701b03168360600151600001516001600160a01b031663dd62ed3e8560400151306040518363ffffffff1660e01b8152600401611a8d9291906123b9565b611b84846323b872dd60e01b858585604051602401611b4d939291906123d3565b60408051601f198184030181529190526020810180516001600160e01b03166001600160e01b031990931692909217909152611c0b565b50505050565b600082611b99575060006104dc565b82820282848281611ba657fe5b04146109b25760405162461bcd60e51b81526004016105d5906126d5565b610af18282611bd1610c78565b9190611c9a565b60009182526001928301602090815260408084206001600160a01b0390931684529190529020805460ff19169091179055565b6060611c60826040518060400160405280602081526020017f5361666545524332303a206c6f772d6c6576656c2063616c6c206661696c6564815250856001600160a01b0316611dbd9092919063ffffffff16565b8051909150156107265780806020019051810190611c7e919061200b565b6107265760405162461bcd60e51b81526004016105d590612935565b6001600160a01b03821660009081526020849052604090206001600160701b038216611cc65750610726565b6000611cd28585610cf1565b9050826001600160701b0316816001600160701b031611611d055760405162461bcd60e51b81526004016105d590612527565b81546001600160701b03808516911610611d52578154611d32906001600160701b03908116908516611878565b82546001600160701b0319166001600160701b039190911617825561069e565b8154611d8690611d6e906001600160701b038681169116611878565b8354600160701b90046001600160701b031690611878565b82546001600160701b03196001600160701b0392909216600160701b02600160701b600160e01b0319909116171682555050505050565b6060611dcc8484600085611dd4565b949350505050565b606082471015611df65760405162461bcd60e51b81526004016105d59061260a565b611dff85611e95565b611e1b5760405162461bcd60e51b81526004016105d590612863565b60006060866001600160a01b03168587604051611e389190612389565b60006040518083038185875af1925050503d8060008114611e75576040519150601f19603f3d011682016040523d82523d6000602084013e611e7a565b606091505b5091509150611e8a828286611e9b565b979650505050505050565b3b151590565b60608315611eaa5750816109b2565b825115611eba5782518084602001fd5b8160405162461bcd60e51b81526004016105d59190612424565b6040518060800160405280600081526020016000815260200160008152602001600081525090565b60408051608081018252600080825260208201819052918101829052606081019190915290565b80356104dc81612be9565b60008083601f840112611f3f578182fd5b50813567ffffffffffffffff811115611f56578182fd5b602083019150836020828501011115611f6e57600080fd5b9250929050565b600060408284031215611f86578081fd5b611f906040612aeb565b90508135611f9d81612be9565b815260208201356001600160701b0381168114611fb957600080fd5b602082015292915050565b600060208284031215611fd5578081fd5b81356109b281612be9565b60008060408385031215611ff2578081fd5b8235611ffd81612be9565b946020939093013593505050565b60006020828403121561201c578081fd5b81516109b281612bfe565b60008060408385031215612039578182fd5b825161204481612bfe565b602084015190925067ffffffffffffffff80821115612061578283fd5b818501915085601f830112612074578283fd5b815181811115612082578384fd5b612095601f8201601f1916602001612aeb565b91508082528660208285010111156120ab578384fd5b6120bc816020840160208601612b12565b5080925050509250929050565b600080604083850312156120db578182fd5b8235915060208301356120ed81612be9565b809150509250929050565b600060808284031215612109578081fd5b6121136080612aeb565b823561211e81612be9565b8152602083013561212e81612c0c565b6020820152604083013561214181612c0c565b6040820152606083013561215481612c21565b60608201529392505050565b600060808284031215612171578081fd5b61217b6080612aeb565b825161218681612be9565b8152602083015161219681612c0c565b602082015260408301516121a981612c0c565b6040820152606083015161215481612c21565b6000806000808486036101208112156121d3578283fd5b60e08112156121e0578283fd5b506121eb60a0612aeb565b85356121f681612c0c565b8152602086013561220681612c0c565b6020820152604086013561221981612be9565b604082015261222b8760608801611f75565b606082015261223d8760a08801611f75565b608082015293506122518660e08701611f23565b925061010085013567ffffffffffffffff81111561226d578283fd5b61227987828801611f2e565b95989497509550505050565b600060208284031215612296578081fd5b81356001600160701b03811681146109b2578182fd5b6000602082840312156122bd578081fd5b81356109b281612c0c565b6000602082840312156122d9578081fd5b5051919050565b6000602082840312156122f1578081fd5b81356109b281612c21565b60008151808452612314816020860160208601612b12565b601f01601f19169290920160200192915050565b80516001600160a01b031682526020808201516001600160801b03908116918401919091526040808301519091169083015260609081015160ff16910152565b80516001600160a01b031682526020908101516001600160701b0316910152565b6000825161239b818460208701612b12565b9190910192915050565b6001600160a01b0391909116815260200190565b6001600160a01b0392831681529116602082015260400190565b6001600160a01b039384168152919092166020820152604081019190915260600190565b6001600160a01b03929092168252602082015260400190565b901515815260200190565b90815260200190565b6000602082526109b260208301846122fc565b6020808252601c908201527f496e73756666696369656e74206f75747075742070726f647563656400000000604082015260600190565b6020808252602b908201527f417474656d7074696e6720746f2072652d656e7465722066756e6374696f6e2060408201526a7265637572736976656c7960a81b606082015260800190565b6020808252601d908201527f4d75737420666972737420726571756573742061207769746864726177000000604082015260600190565b6020808252601b908201527f536166654d6174683a206164646974696f6e206f766572666c6f770000000000604082015260600190565b6020808252601e908201527f496e73756666696369656e742067617320746f2070617920616d6f756e740000604082015260600190565b602080825260169082015275496e70757420746f6b656e73206e6f7420757365642160501b604082015260600190565b60208082526025908201527f43616e6e6f7420776974686472617720696e73696465206c6f636b6f75742070604082015264195c9a5bd960da1b606082015260800190565b6020808252601e908201527f536166654d6174683a207375627472616374696f6e206f766572666c6f770000604082015260600190565b60208082526026908201527f416464726573733a20696e73756666696369656e742062616c616e636520666f6040820152651c8818d85b1b60d21b606082015260800190565b6020808252602e908201527f6661696c656420747261646520616374696f6e20646964206e6f74207265667560408201526d6e6420696e7075742066756e647360901b606082015260800190565b6020808252601a908201527f5573656420746f6f206d616e7920696e70757420746f6b656e73000000000000604082015260600190565b60208082526021908201527f536166654d6174683a206d756c7469706c69636174696f6e206f766572666c6f6040820152607760f81b606082015260800190565b60208082526021908201527f4e6f2066756e64732070726f766964656420666f7220676173206465706f73696040820152601d60fa1b606082015260800190565b6020808252602b908201527f496e73756666696369656e74207370656e6420616c6c6f77616e6365206f6e2060408201526a34b7383aba103a37b5b2b760a91b606082015260800190565b60208082526029908201527f496e73756666696369656e7420696e70757420746f6b656e2062616c616e636560408201526820746f20747261646560b81b606082015260800190565b6020808252600990820152684e6f742072656c617960b81b604082015260600190565b60208082526035908201527f547261646520616374696f6e20646964206e6f74207472616e73666572206f756040820152743a383aba103a37b5b2b739903a37903a3930b232b960591b606082015260800190565b6020808252601d908201527f416464726573733a2063616c6c20746f206e6f6e2d636f6e7472616374000000604082015260600190565b6020808252601b908201527f496e73756666696369656e74206761732074616e6b2066756e64730000000000604082015260600190565b602080825260139082015272105b1c9958591e481a5b9a5d1a585b1a5e9959606a1b604082015260600190565b60208082526018908201527f43616e6e6f74207769746864726177203020616d6f756e740000000000000000604082015260600190565b6020808252602a908201527f5361666545524332303a204552433230206f7065726174696f6e20646964206e6040820152691bdd081cdd58d8d9595960b21b606082015260800190565b6020808252600990820152682737ba1030b236b4b760b91b604082015260600190565b92835260208301919091526001600160a01b0316604082015260600190565b608081016104dc8284612328565b82815260a081016109b26020830184612328565b9182526001600160a01b0316602082015260400190565b60006101006001600160801b038087511684528060208801511660208501525060018060a01b0360408701511660408401526060860151612a3e6060850182612368565b506080860151612a5160a0850182612368565b508060e0840152838184015250610120838582850137828401810191909152601f909201601f1916010192915050565b6001600160701b0391909116815260200190565b6001600160801b0391909116815260200190565b600083825260406020830152611dcc60408301846122fc565b93845260208401929092526040830152606082015260800190565b60ff91909116815260200190565b60405181810167ffffffffffffffff81118282101715612b0a57600080fd5b604052919050565b60005b83811015612b2d578181015183820152602001612b15565b83811115611b845750506000910152565b60e01c90565b600060443d1015612b5457610799565b600481823e6308c379a0612b688251612b3e565b14612b7257610799565b6040513d600319016004823e80513d67ffffffffffffffff8160248401118184111715612ba25750505050610799565b82840192508251915080821115612bbc5750505050610799565b503d83016020828401011115612bd457505050610799565b601f01601f1916810160200160405291505090565b6001600160a01b03811681146105f957600080fd5b80151581146105f957600080fd5b6001600160801b03811681146105f957600080fd5b60ff811681146105f957600080fdfea49807205ce4d355092ef5a8a18f56e8913cf4a201fbe287825b095693c21775a26469706673582212205769323e4d15f29ffe1314c193c1d4e5ecf89ddf85dcdfac337e64a19083dbaa64736f6c63430007000033",
          "opcodes": "PUSH1 0x80 PUSH1 0x40 MSTORE CALLVALUE DUP1 ISZERO PUSH2 0x10 JUMPI PUSH1 0x0 DUP1 REVERT JUMPDEST POP PUSH2 0x2C86 DUP1 PUSH2 0x20 PUSH1 0x0 CODECOPY PUSH1 0x0 RETURN INVALID PUSH1 0x80 PUSH1 0x40 MSTORE PUSH1 0x4 CALLDATASIZE LT PUSH2 0x181 JUMPI PUSH1 0x0 CALLDATALOAD PUSH1 0xE0 SHR DUP1 PUSH4 0x75E9AAC8 GT PUSH2 0xD1 JUMPI DUP1 PUSH4 0xB1CF4B0C GT PUSH2 0x8A JUMPI DUP1 PUSH4 0xE63AB1E9 GT PUSH2 0x64 JUMPI DUP1 PUSH4 0xE63AB1E9 EQ PUSH2 0x42F JUMPI DUP1 PUSH4 0xE959B38A EQ PUSH2 0x444 JUMPI DUP1 PUSH4 0xF102669B EQ PUSH2 0x464 JUMPI DUP1 PUSH4 0xFC8926D3 EQ PUSH2 0x484 JUMPI PUSH2 0x181 JUMP JUMPDEST DUP1 PUSH4 0xB1CF4B0C EQ PUSH2 0x3CB JUMPI DUP1 PUSH4 0xC3F909D4 EQ PUSH2 0x3ED JUMPI DUP1 PUSH4 0xD547741F EQ PUSH2 0x40F JUMPI PUSH2 0x181 JUMP JUMPDEST DUP1 PUSH4 0x75E9AAC8 EQ PUSH2 0x321 JUMPI DUP1 PUSH4 0x77550610 EQ PUSH2 0x34E JUMPI DUP1 PUSH4 0x849EF8CE EQ PUSH2 0x363 JUMPI DUP1 PUSH4 0x8D3403FD EQ PUSH2 0x383 JUMPI DUP1 PUSH4 0x91D14854 EQ PUSH2 0x3A3 JUMPI DUP1 PUSH4 0xAE9BB692 EQ PUSH2 0x3C3 JUMPI PUSH2 0x181 JUMP JUMPDEST DUP1 PUSH4 0x334C3C65 GT PUSH2 0x13E JUMPI DUP1 PUSH4 0x4E1C6829 GT PUSH2 0x118 JUMPI DUP1 PUSH4 0x4E1C6829 EQ PUSH2 0x2A8 JUMPI DUP1 PUSH4 0x5CF34BCF EQ PUSH2 0x2C8 JUMPI DUP1 PUSH4 0x6A9447B5 EQ PUSH2 0x2EA JUMPI DUP1 PUSH4 0x75B238FC EQ PUSH2 0x30C JUMPI PUSH2 0x181 JUMP JUMPDEST DUP1 PUSH4 0x334C3C65 EQ PUSH2 0x248 JUMPI DUP1 PUSH4 0x3F51E182 EQ PUSH2 0x268 JUMPI DUP1 PUSH4 0x40EE75BB EQ PUSH2 0x288 JUMPI PUSH2 0x181 JUMP JUMPDEST DUP1 PUSH4 0x4421823 EQ PUSH2 0x186 JUMPI DUP1 PUSH4 0xF306725 EQ PUSH2 0x1B1 JUMPI DUP1 PUSH4 0x12D20441 EQ PUSH2 0x1D1 JUMPI DUP1 PUSH4 0x1EAB21B9 EQ PUSH2 0x1F1 JUMPI DUP1 PUSH4 0x27054DF6 EQ PUSH2 0x211 JUMPI DUP1 PUSH4 0x30F205D0 EQ PUSH2 0x226 JUMPI JUMPDEST PUSH1 0x0 DUP1 REVERT JUMPDEST CALLVALUE DUP1 ISZERO PUSH2 0x192 JUMPI PUSH1 0x0 DUP1 REVERT JUMPDEST POP PUSH2 0x19B PUSH2 0x4A4 JUMP JUMPDEST PUSH1 0x40 MLOAD PUSH2 0x1A8 SWAP2 SWAP1 PUSH2 0x241B JUMP JUMPDEST PUSH1 0x40 MLOAD DUP1 SWAP2 SUB SWAP1 RETURN JUMPDEST CALLVALUE DUP1 ISZERO PUSH2 0x1BD JUMPI PUSH1 0x0 DUP1 REVERT JUMPDEST POP PUSH2 0x19B PUSH2 0x1CC CALLDATASIZE PUSH1 0x4 PUSH2 0x1FC4 JUMP JUMPDEST PUSH2 0x4C8 JUMP JUMPDEST CALLVALUE DUP1 ISZERO PUSH2 0x1DD JUMPI PUSH1 0x0 DUP1 REVERT JUMPDEST POP PUSH2 0x19B PUSH2 0x1EC CALLDATASIZE PUSH1 0x4 PUSH2 0x1FC4 JUMP JUMPDEST PUSH2 0x4E2 JUMP JUMPDEST CALLVALUE DUP1 ISZERO PUSH2 0x1FD JUMPI PUSH1 0x0 DUP1 REVERT JUMPDEST POP PUSH2 0x19B PUSH2 0x20C CALLDATASIZE PUSH1 0x4 PUSH2 0x1FC4 JUMP JUMPDEST PUSH2 0x574 JUMP JUMPDEST CALLVALUE DUP1 ISZERO PUSH2 0x21D JUMPI PUSH1 0x0 DUP1 REVERT JUMPDEST POP PUSH2 0x19B PUSH2 0x588 JUMP JUMPDEST CALLVALUE DUP1 ISZERO PUSH2 0x232 JUMPI PUSH1 0x0 DUP1 REVERT JUMPDEST POP PUSH2 0x246 PUSH2 0x241 CALLDATASIZE PUSH1 0x4 PUSH2 0x2285 JUMP JUMPDEST PUSH2 0x5AC JUMP JUMPDEST STOP JUMPDEST CALLVALUE DUP1 ISZERO PUSH2 0x254 JUMPI PUSH1 0x0 DUP1 REVERT JUMPDEST POP PUSH2 0x246 PUSH2 0x263 CALLDATASIZE PUSH1 0x4 PUSH2 0x20F8 JUMP JUMPDEST PUSH2 0x5FC JUMP JUMPDEST CALLVALUE DUP1 ISZERO PUSH2 0x274 JUMPI PUSH1 0x0 DUP1 REVERT JUMPDEST POP PUSH2 0x246 PUSH2 0x283 CALLDATASIZE PUSH1 0x4 PUSH2 0x20F8 JUMP JUMPDEST PUSH2 0x6A5 JUMP JUMPDEST CALLVALUE DUP1 ISZERO PUSH2 0x294 JUMPI PUSH1 0x0 DUP1 REVERT JUMPDEST POP PUSH2 0x246 PUSH2 0x2A3 CALLDATASIZE PUSH1 0x4 PUSH2 0x1FC4 JUMP JUMPDEST PUSH2 0x72B JUMP JUMPDEST CALLVALUE DUP1 ISZERO PUSH2 0x2B4 JUMPI PUSH1 0x0 DUP1 REVERT JUMPDEST POP PUSH2 0x246 PUSH2 0x2C3 CALLDATASIZE PUSH1 0x4 PUSH2 0x22AC JUMP JUMPDEST PUSH2 0x755 JUMP JUMPDEST CALLVALUE DUP1 ISZERO PUSH2 0x2D4 JUMPI PUSH1 0x0 DUP1 REVERT JUMPDEST POP PUSH2 0x2DD PUSH2 0x77F JUMP JUMPDEST PUSH1 0x40 MLOAD PUSH2 0x1A8 SWAP2 SWAP1 PUSH2 0x2A95 JUMP JUMPDEST CALLVALUE DUP1 ISZERO PUSH2 0x2F6 JUMPI PUSH1 0x0 DUP1 REVERT JUMPDEST POP PUSH2 0x2FF PUSH2 0x79C JUMP JUMPDEST PUSH1 0x40 MLOAD PUSH2 0x1A8 SWAP2 SWAP1 PUSH2 0x23A5 JUMP JUMPDEST CALLVALUE DUP1 ISZERO PUSH2 0x318 JUMPI PUSH1 0x0 DUP1 REVERT JUMPDEST POP PUSH2 0x19B PUSH2 0x7B5 JUMP JUMPDEST CALLVALUE DUP1 ISZERO PUSH2 0x32D JUMPI PUSH1 0x0 DUP1 REVERT JUMPDEST POP PUSH2 0x341 PUSH2 0x33C CALLDATASIZE PUSH1 0x4 PUSH2 0x1FE0 JUMP JUMPDEST PUSH2 0x7C7 JUMP JUMPDEST PUSH1 0x40 MLOAD PUSH2 0x1A8 SWAP2 SWAP1 PUSH2 0x2410 JUMP JUMPDEST CALLVALUE DUP1 ISZERO PUSH2 0x35A JUMPI PUSH1 0x0 DUP1 REVERT JUMPDEST POP PUSH2 0x2DD PUSH2 0x7DF JUMP JUMPDEST CALLVALUE DUP1 ISZERO PUSH2 0x36F JUMPI PUSH1 0x0 DUP1 REVERT JUMPDEST POP PUSH2 0x246 PUSH2 0x37E CALLDATASIZE PUSH1 0x4 PUSH2 0x21BC JUMP JUMPDEST PUSH2 0x802 JUMP JUMPDEST CALLVALUE DUP1 ISZERO PUSH2 0x38F JUMPI PUSH1 0x0 DUP1 REVERT JUMPDEST POP PUSH2 0x246 PUSH2 0x39E CALLDATASIZE PUSH1 0x4 PUSH2 0x22E0 JUMP JUMPDEST PUSH2 0x8FD JUMP JUMPDEST CALLVALUE DUP1 ISZERO PUSH2 0x3AF JUMPI PUSH1 0x0 DUP1 REVERT JUMPDEST POP PUSH2 0x341 PUSH2 0x3BE CALLDATASIZE PUSH1 0x4 PUSH2 0x20C9 JUMP JUMPDEST PUSH2 0x91E JUMP JUMPDEST PUSH2 0x246 PUSH2 0x9B9 JUMP JUMPDEST CALLVALUE DUP1 ISZERO PUSH2 0x3D7 JUMPI PUSH1 0x0 DUP1 REVERT JUMPDEST POP PUSH2 0x3E0 PUSH2 0x9F6 JUMP JUMPDEST PUSH1 0x40 MLOAD PUSH2 0x1A8 SWAP2 SWAP1 PUSH2 0x2ADD JUMP JUMPDEST CALLVALUE DUP1 ISZERO PUSH2 0x3F9 JUMPI PUSH1 0x0 DUP1 REVERT JUMPDEST POP PUSH2 0x402 PUSH2 0xA0C JUMP JUMPDEST PUSH1 0x40 MLOAD PUSH2 0x1A8 SWAP2 SWAP1 PUSH2 0x29C1 JUMP JUMPDEST CALLVALUE DUP1 ISZERO PUSH2 0x41B JUMPI PUSH1 0x0 DUP1 REVERT JUMPDEST POP PUSH2 0x246 PUSH2 0x42A CALLDATASIZE PUSH1 0x4 PUSH2 0x20C9 JUMP JUMPDEST PUSH2 0xAA7 JUMP JUMPDEST CALLVALUE DUP1 ISZERO PUSH2 0x43B JUMPI PUSH1 0x0 DUP1 REVERT JUMPDEST POP PUSH2 0x19B PUSH2 0xAF5 JUMP JUMPDEST CALLVALUE DUP1 ISZERO PUSH2 0x450 JUMPI PUSH1 0x0 DUP1 REVERT JUMPDEST POP PUSH2 0x246 PUSH2 0x45F CALLDATASIZE PUSH1 0x4 PUSH2 0x20C9 JUMP JUMPDEST PUSH2 0xB19 JUMP JUMPDEST CALLVALUE DUP1 ISZERO PUSH2 0x470 JUMPI PUSH1 0x0 DUP1 REVERT JUMPDEST POP PUSH2 0x246 PUSH2 0x47F CALLDATASIZE PUSH1 0x4 PUSH2 0x22AC JUMP JUMPDEST PUSH2 0xB59 JUMP JUMPDEST CALLVALUE DUP1 ISZERO PUSH2 0x490 JUMPI PUSH1 0x0 DUP1 REVERT JUMPDEST POP PUSH2 0x246 PUSH2 0x49F CALLDATASIZE PUSH1 0x4 PUSH2 0x2285 JUMP JUMPDEST PUSH2 0xB8F JUMP JUMPDEST PUSH32 0x77A1D526A4CE8A773632AB13B4FBBF1FCC954C3DAB26CD27EA0E2A6750DA5D7 DUP2 JUMP JUMPDEST PUSH1 0x0 PUSH2 0x4DC DUP3 PUSH2 0x4D6 PUSH2 0xC78 JUMP JUMPDEST SWAP1 PUSH2 0xC9C JUMP JUMPDEST SWAP3 SWAP2 POP POP JUMP JUMPDEST PUSH1 0x0 PUSH2 0x4EC PUSH2 0xC78 JUMP JUMPDEST PUSH1 0x40 MLOAD PUSH4 0x46661413 PUSH1 0xE1 SHL DUP2 MSTORE PUSH20 0x0 SWAP2 PUSH4 0x8CCC2826 SWAP2 PUSH2 0x524 SWAP2 SWAP1 DUP7 SWAP1 PUSH1 0x4 ADD PUSH2 0x29E3 JUMP JUMPDEST PUSH1 0x20 PUSH1 0x40 MLOAD DUP1 DUP4 SUB DUP2 DUP7 DUP1 EXTCODESIZE ISZERO DUP1 ISZERO PUSH2 0x53C JUMPI PUSH1 0x0 DUP1 REVERT JUMPDEST POP GAS DELEGATECALL ISZERO DUP1 ISZERO PUSH2 0x550 JUMPI RETURNDATASIZE PUSH1 0x0 DUP1 RETURNDATACOPY RETURNDATASIZE PUSH1 0x0 REVERT JUMPDEST POP POP POP POP PUSH1 0x40 MLOAD RETURNDATASIZE PUSH1 0x1F NOT PUSH1 0x1F DUP3 ADD AND DUP3 ADD DUP1 PUSH1 0x40 MSTORE POP DUP2 ADD SWAP1 PUSH2 0x4DC SWAP2 SWAP1 PUSH2 0x22C8 JUMP JUMPDEST PUSH1 0x0 PUSH2 0x4DC DUP3 PUSH2 0x582 PUSH2 0xC78 JUMP JUMPDEST SWAP1 PUSH2 0xCF1 JUMP JUMPDEST PUSH32 0xD95061BDF0C43D77B6CBE1C15072292976244EC8D5012DE75BAA36E42DA4625E DUP2 JUMP JUMPDEST PUSH1 0x0 DUP2 PUSH1 0x1 PUSH1 0x1 PUSH1 0x70 SHL SUB AND GT PUSH2 0x5DE JUMPI PUSH1 0x40 MLOAD PUSH3 0x461BCD PUSH1 0xE5 SHL DUP2 MSTORE PUSH1 0x4 ADD PUSH2 0x5D5 SWAP1 PUSH2 0x28FE JUMP JUMPDEST PUSH1 0x40 MLOAD DUP1 SWAP2 SUB SWAP1 REVERT JUMPDEST PUSH2 0x5F9 PUSH2 0x5E9 PUSH2 0xD5C JUMP JUMPDEST DUP3 PUSH2 0x5F2 PUSH2 0xC78 JUMP JUMPDEST SWAP2 SWAP1 PUSH2 0xD60 JUMP JUMPDEST POP JUMP JUMPDEST PUSH2 0x616 PUSH1 0x0 DUP1 MLOAD PUSH1 0x20 PUSH2 0x2C31 DUP4 CODECOPY DUP2 MLOAD SWAP2 MSTORE PUSH2 0x3BE PUSH2 0xD5C JUMP JUMPDEST PUSH2 0x632 JUMPI PUSH1 0x40 MLOAD PUSH3 0x461BCD PUSH1 0xE5 SHL DUP2 MSTORE PUSH1 0x4 ADD PUSH2 0x5D5 SWAP1 PUSH2 0x297F JUMP JUMPDEST PUSH2 0x63A PUSH2 0xE4F JUMP JUMPDEST PUSH1 0x40 MLOAD PUSH4 0x21CAB0C7 PUSH1 0xE0 SHL DUP2 MSTORE PUSH20 0x0 SWAP2 PUSH4 0x21CAB0C7 SWAP2 PUSH2 0x672 SWAP2 SWAP1 DUP6 SWAP1 PUSH1 0x4 ADD PUSH2 0x29CF JUMP JUMPDEST PUSH1 0x0 PUSH1 0x40 MLOAD DUP1 DUP4 SUB DUP2 DUP7 DUP1 EXTCODESIZE ISZERO DUP1 ISZERO PUSH2 0x68A JUMPI PUSH1 0x0 DUP1 REVERT JUMPDEST POP GAS DELEGATECALL ISZERO DUP1 ISZERO PUSH2 0x69E JUMPI RETURNDATASIZE PUSH1 0x0 DUP1 RETURNDATACOPY RETURNDATASIZE PUSH1 0x0 REVERT JUMPDEST POP POP POP POP POP JUMP JUMPDEST PUSH1 0x0 PUSH2 0x6AF PUSH2 0xE73 JUMP JUMPDEST DUP1 SLOAD SWAP1 SWAP2 POP PUSH2 0x100 SWAP1 DIV PUSH1 0xFF AND DUP1 PUSH2 0x6C9 JUMPI POP DUP1 SLOAD PUSH1 0xFF AND ISZERO JUMPDEST PUSH2 0x6E5 JUMPI PUSH1 0x40 MLOAD PUSH3 0x461BCD PUSH1 0xE5 SHL DUP2 MSTORE PUSH1 0x4 ADD PUSH2 0x5D5 SWAP1 PUSH2 0x28D1 JUMP JUMPDEST DUP1 SLOAD PUSH2 0x100 SWAP1 DIV PUSH1 0xFF AND ISZERO DUP1 ISZERO PUSH2 0x70D JUMPI DUP2 SLOAD PUSH1 0xFF NOT PUSH2 0xFF00 NOT SWAP1 SWAP2 AND PUSH2 0x100 OR AND PUSH1 0x1 OR DUP3 SSTORE JUMPDEST PUSH2 0x716 DUP4 PUSH2 0xE97 JUMP JUMPDEST DUP1 ISZERO PUSH2 0x726 JUMPI DUP2 SLOAD PUSH2 0xFF00 NOT AND DUP3 SSTORE JUMPDEST POP POP POP JUMP JUMPDEST DUP1 PUSH2 0x734 PUSH2 0xE4F JUMP JUMPDEST DUP1 SLOAD PUSH1 0x1 PUSH1 0x1 PUSH1 0xA0 SHL SUB NOT AND PUSH1 0x1 PUSH1 0x1 PUSH1 0xA0 SHL SUB SWAP3 SWAP1 SWAP3 AND SWAP2 SWAP1 SWAP2 OR SWAP1 SSTORE POP JUMP JUMPDEST DUP1 PUSH2 0x75E PUSH2 0xE4F JUMP JUMPDEST PUSH1 0x1 ADD DUP1 SLOAD PUSH1 0x1 PUSH1 0x1 PUSH1 0x80 SHL SUB SWAP3 DUP4 AND PUSH1 0x1 PUSH1 0x80 SHL MUL SWAP3 AND SWAP2 SWAP1 SWAP2 OR SWAP1 SSTORE POP JUMP JUMPDEST PUSH1 0x0 PUSH2 0x789 PUSH2 0xE4F JUMP JUMPDEST PUSH1 0x1 ADD SLOAD PUSH1 0x1 PUSH1 0x1 PUSH1 0x80 SHL SUB AND SWAP1 POP JUMPDEST SWAP1 JUMP JUMPDEST PUSH1 0x0 PUSH2 0x7A6 PUSH2 0xE4F JUMP JUMPDEST SLOAD PUSH1 0x1 PUSH1 0x1 PUSH1 0xA0 SHL SUB AND SWAP1 POP SWAP1 JUMP JUMPDEST PUSH1 0x0 DUP1 MLOAD PUSH1 0x20 PUSH2 0x2C31 DUP4 CODECOPY DUP2 MLOAD SWAP2 MSTORE DUP2 JUMP JUMPDEST PUSH1 0x0 DUP2 PUSH2 0x7D6 DUP5 PUSH2 0x582 PUSH2 0xC78 JUMP JUMPDEST LT ISZERO SWAP4 SWAP3 POP POP POP JUMP JUMPDEST PUSH1 0x0 PUSH2 0x7E9 PUSH2 0xE4F JUMP JUMPDEST PUSH1 0x1 ADD SLOAD PUSH1 0x1 PUSH1 0x80 SHL SWAP1 DIV PUSH1 0x1 PUSH1 0x1 PUSH1 0x80 SHL SUB AND SWAP2 SWAP1 POP JUMP JUMPDEST PUSH2 0x82E PUSH32 0x77A1D526A4CE8A773632AB13B4FBBF1FCC954C3DAB26CD27EA0E2A6750DA5D7 PUSH2 0x3BE PUSH2 0xD5C JUMP JUMPDEST PUSH2 0x84A JUMPI PUSH1 0x40 MLOAD PUSH3 0x461BCD PUSH1 0xE5 SHL DUP2 MSTORE PUSH1 0x4 ADD PUSH2 0x5D5 SWAP1 PUSH2 0x27EB JUMP JUMPDEST PUSH2 0x852 PUSH2 0xF0F JUMP JUMPDEST SLOAD PUSH1 0xFF AND ISZERO PUSH2 0x873 JUMPI PUSH1 0x40 MLOAD PUSH3 0x461BCD PUSH1 0xE5 SHL DUP2 MSTORE PUSH1 0x4 ADD PUSH2 0x5D5 SWAP1 PUSH2 0x246E JUMP JUMPDEST PUSH1 0x1 PUSH2 0x87D PUSH2 0xF0F JUMP JUMPDEST DUP1 SLOAD PUSH1 0xFF NOT AND SWAP2 ISZERO ISZERO SWAP2 SWAP1 SWAP2 OR SWAP1 SSTORE PUSH1 0x0 GAS SWAP1 POP PUSH2 0x899 PUSH2 0x1ED4 JUMP JUMPDEST PUSH2 0x8A2 DUP7 PUSH2 0xF33 JUMP JUMPDEST SWAP1 POP PUSH2 0x8AE DUP7 DUP7 PUSH2 0x10E3 JUMP JUMPDEST PUSH1 0x0 PUSH1 0x60 PUSH2 0x8BE DUP9 DUP9 DUP9 DUP9 PUSH2 0x1169 JUMP JUMPDEST SWAP2 POP SWAP2 POP PUSH2 0x8CD DUP9 DUP5 DUP5 PUSH2 0x1262 JUMP JUMPDEST PUSH2 0x8DA DUP9 DUP4 DUP4 DUP7 DUP9 PUSH2 0x147C JUMP JUMPDEST POP POP POP POP PUSH1 0x0 PUSH2 0x8E8 PUSH2 0xF0F JUMP JUMPDEST DUP1 SLOAD PUSH1 0xFF NOT AND SWAP2 ISZERO ISZERO SWAP2 SWAP1 SWAP2 OR SWAP1 SSTORE POP POP POP POP JUMP JUMPDEST DUP1 PUSH2 0x906 PUSH2 0xE4F JUMP JUMPDEST PUSH1 0x2 ADD DUP1 SLOAD PUSH1 0xFF NOT AND PUSH1 0xFF SWAP3 SWAP1 SWAP3 AND SWAP2 SWAP1 SWAP2 OR SWAP1 SSTORE POP JUMP JUMPDEST PUSH1 0x0 PUSH2 0x928 PUSH2 0xF0F JUMP JUMPDEST PUSH1 0x40 MLOAD PUSH4 0xF40931B PUSH1 0xE4 SHL DUP2 MSTORE PUSH20 0x0 SWAP2 PUSH4 0xF40931B0 SWAP2 PUSH2 0x962 SWAP2 SWAP1 DUP8 SWAP1 DUP8 SWAP1 PUSH1 0x4 ADD PUSH2 0x29A2 JUMP JUMPDEST PUSH1 0x20 PUSH1 0x40 MLOAD DUP1 DUP4 SUB DUP2 DUP7 DUP1 EXTCODESIZE ISZERO DUP1 ISZERO PUSH2 0x97A JUMPI PUSH1 0x0 DUP1 REVERT JUMPDEST POP GAS DELEGATECALL ISZERO DUP1 ISZERO PUSH2 0x98E JUMPI RETURNDATASIZE PUSH1 0x0 DUP1 RETURNDATACOPY RETURNDATASIZE PUSH1 0x0 REVERT JUMPDEST POP POP POP POP PUSH1 0x40 MLOAD RETURNDATASIZE PUSH1 0x1F NOT PUSH1 0x1F DUP3 ADD AND DUP3 ADD DUP1 PUSH1 0x40 MSTORE POP DUP2 ADD SWAP1 PUSH2 0x9B2 SWAP2 SWAP1 PUSH2 0x200B JUMP JUMPDEST SWAP4 SWAP3 POP POP POP JUMP JUMPDEST PUSH1 0x0 CALLVALUE GT PUSH2 0x9D9 JUMPI PUSH1 0x40 MLOAD PUSH3 0x461BCD PUSH1 0xE5 SHL DUP2 MSTORE PUSH1 0x4 ADD PUSH2 0x5D5 SWAP1 PUSH2 0x2716 JUMP JUMPDEST PUSH2 0x9F4 PUSH2 0x9E4 PUSH2 0xD5C JUMP JUMPDEST CALLVALUE PUSH2 0x9ED PUSH2 0xC78 JUMP JUMPDEST SWAP2 SWAP1 PUSH2 0x16E2 JUMP JUMPDEST JUMP JUMPDEST PUSH1 0x0 PUSH2 0xA00 PUSH2 0xE4F JUMP JUMPDEST PUSH1 0x2 ADD SLOAD PUSH1 0xFF AND SWAP1 POP SWAP1 JUMP JUMPDEST PUSH2 0xA14 PUSH2 0x1EFC JUMP JUMPDEST PUSH2 0xA1C PUSH2 0xE4F JUMP JUMPDEST PUSH1 0x40 MLOAD PUSH4 0x6D73F0DB PUSH1 0xE0 SHL DUP2 MSTORE PUSH20 0x0 SWAP2 PUSH4 0x6D73F0DB SWAP2 PUSH2 0xA52 SWAP2 SWAP1 PUSH1 0x4 ADD PUSH2 0x241B JUMP JUMPDEST PUSH1 0x80 PUSH1 0x40 MLOAD DUP1 DUP4 SUB DUP2 DUP7 DUP1 EXTCODESIZE ISZERO DUP1 ISZERO PUSH2 0xA6A JUMPI PUSH1 0x0 DUP1 REVERT JUMPDEST POP GAS DELEGATECALL ISZERO DUP1 ISZERO PUSH2 0xA7E JUMPI RETURNDATASIZE PUSH1 0x0 DUP1 RETURNDATACOPY RETURNDATASIZE PUSH1 0x0 REVERT JUMPDEST POP POP POP POP PUSH1 0x40 MLOAD RETURNDATASIZE PUSH1 0x1F NOT PUSH1 0x1F DUP3 ADD AND DUP3 ADD DUP1 PUSH1 0x40 MSTORE POP DUP2 ADD SWAP1 PUSH2 0xAA2 SWAP2 SWAP1 PUSH2 0x2160 JUMP JUMPDEST SWAP1 POP SWAP1 JUMP JUMPDEST PUSH2 0xAC1 PUSH1 0x0 DUP1 MLOAD PUSH1 0x20 PUSH2 0x2C31 DUP4 CODECOPY DUP2 MLOAD SWAP2 MSTORE PUSH2 0x3BE PUSH2 0xD5C JUMP JUMPDEST PUSH2 0xADD JUMPI PUSH1 0x40 MLOAD PUSH3 0x461BCD PUSH1 0xE5 SHL DUP2 MSTORE PUSH1 0x4 ADD PUSH2 0x5D5 SWAP1 PUSH2 0x297F JUMP JUMPDEST PUSH2 0xAF1 DUP3 DUP3 PUSH2 0xAEA PUSH2 0xF0F JUMP JUMPDEST SWAP2 SWAP1 PUSH2 0x1769 JUMP JUMPDEST POP POP JUMP JUMPDEST PUSH32 0x65D7A28E3265B37A6474929F336521B332C1681B933F6CB9F3376673440D862A DUP2 JUMP JUMPDEST PUSH2 0xB33 PUSH1 0x0 DUP1 MLOAD PUSH1 0x20 PUSH2 0x2C31 DUP4 CODECOPY DUP2 MLOAD SWAP2 MSTORE PUSH2 0x3BE PUSH2 0xD5C JUMP JUMPDEST PUSH2 0xB4F JUMPI PUSH1 0x40 MLOAD PUSH3 0x461BCD PUSH1 0xE5 SHL DUP2 MSTORE PUSH1 0x4 ADD PUSH2 0x5D5 SWAP1 PUSH2 0x297F JUMP JUMPDEST PUSH2 0xAF1 DUP3 DUP3 PUSH2 0x1798 JUMP JUMPDEST DUP1 PUSH2 0xB62 PUSH2 0xE4F JUMP JUMPDEST PUSH1 0x1 ADD DUP1 SLOAD PUSH16 0xFFFFFFFFFFFFFFFFFFFFFFFFFFFFFFFF NOT AND PUSH1 0x1 PUSH1 0x1 PUSH1 0x80 SHL SUB SWAP3 SWAP1 SWAP3 AND SWAP2 SWAP1 SWAP2 OR SWAP1 SSTORE POP JUMP JUMPDEST PUSH2 0xB97 PUSH2 0xF0F JUMP JUMPDEST SLOAD PUSH1 0xFF AND ISZERO PUSH2 0xBB8 JUMPI PUSH1 0x40 MLOAD PUSH3 0x461BCD PUSH1 0xE5 SHL DUP2 MSTORE PUSH1 0x4 ADD PUSH2 0x5D5 SWAP1 PUSH2 0x246E JUMP JUMPDEST PUSH1 0x1 PUSH2 0xBC2 PUSH2 0xF0F JUMP JUMPDEST DUP1 SLOAD PUSH1 0xFF NOT AND SWAP2 ISZERO ISZERO SWAP2 SWAP1 SWAP2 OR SWAP1 SSTORE PUSH1 0x1 PUSH1 0x1 PUSH1 0x70 SHL SUB DUP2 AND PUSH2 0xBF7 JUMPI PUSH1 0x40 MLOAD PUSH3 0x461BCD PUSH1 0xE5 SHL DUP2 MSTORE PUSH1 0x4 ADD PUSH2 0x5D5 SWAP1 PUSH2 0x28FE JUMP JUMPDEST PUSH2 0xC12 PUSH2 0xC02 PUSH2 0xD5C JUMP JUMPDEST DUP3 PUSH2 0xC0B PUSH2 0xC78 JUMP JUMPDEST SWAP2 SWAP1 PUSH2 0x17AC JUMP JUMPDEST PUSH2 0xC1A PUSH2 0xD5C JUMP JUMPDEST PUSH1 0x1 PUSH1 0x1 PUSH1 0xA0 SHL SUB AND PUSH2 0x8FC DUP3 PUSH1 0x1 PUSH1 0x1 PUSH1 0x70 SHL SUB AND SWAP1 DUP2 ISZERO MUL SWAP1 PUSH1 0x40 MLOAD PUSH1 0x0 PUSH1 0x40 MLOAD DUP1 DUP4 SUB DUP2 DUP6 DUP9 DUP9 CALL SWAP4 POP POP POP POP ISZERO DUP1 ISZERO PUSH2 0xC5B JUMPI RETURNDATASIZE PUSH1 0x0 DUP1 RETURNDATACOPY RETURNDATASIZE PUSH1 0x0 REVERT JUMPDEST POP PUSH1 0x0 PUSH2 0xC66 PUSH2 0xF0F JUMP JUMPDEST DUP1 SLOAD PUSH1 0xFF NOT AND SWAP2 ISZERO ISZERO SWAP2 SWAP1 SWAP2 OR SWAP1 SSTORE POP JUMP JUMPDEST PUSH32 0x8C89FC81D9EA4103CA01A6B8674FDAEC22EC47ACAD49DCBA52AD9C3D556EA075 SWAP1 JUMP JUMPDEST PUSH1 0x1 PUSH1 0x1 PUSH1 0xA0 SHL SUB DUP2 AND PUSH1 0x0 SWAP1 DUP2 MSTORE PUSH1 0x20 DUP4 SWAP1 MSTORE PUSH1 0x40 DUP2 KECCAK256 PUSH1 0x1 DUP2 ADD SLOAD ISZERO DUP1 ISZERO SWAP1 PUSH2 0xCCA JUMPI POP NUMBER DUP2 PUSH1 0x1 ADD SLOAD GT JUMPDEST ISZERO PUSH2 0xCE7 JUMPI SLOAD PUSH1 0x1 PUSH1 0x70 SHL SWAP1 DIV PUSH1 0x1 PUSH1 0x1 PUSH1 0x70 SHL SUB AND SWAP1 POP PUSH2 0x4DC JUMP JUMPDEST POP PUSH1 0x0 SWAP4 SWAP3 POP POP POP JUMP JUMPDEST PUSH1 0x1 PUSH1 0x1 PUSH1 0xA0 SHL SUB DUP2 AND PUSH1 0x0 SWAP1 DUP2 MSTORE PUSH1 0x20 DUP4 SWAP1 MSTORE PUSH1 0x40 DUP2 KECCAK256 PUSH1 0x1 DUP2 ADD SLOAD ISZERO DUP1 ISZERO SWAP1 PUSH2 0xD1F JUMPI POP NUMBER DUP2 PUSH1 0x1 ADD SLOAD LT JUMPDEST ISZERO PUSH2 0xD4B JUMPI DUP1 SLOAD PUSH2 0xD43 SWAP1 PUSH1 0x1 PUSH1 0x1 PUSH1 0x70 SHL SUB DUP1 DUP3 AND SWAP2 PUSH1 0x1 PUSH1 0x70 SHL SWAP1 DIV AND PUSH2 0x1853 JUMP JUMPDEST SWAP2 POP POP PUSH2 0x4DC JUMP JUMPDEST SLOAD PUSH1 0x1 PUSH1 0x1 PUSH1 0x70 SHL SUB AND SWAP4 SWAP3 POP POP POP JUMP JUMPDEST CALLER SWAP1 JUMP JUMPDEST PUSH1 0x1 PUSH1 0x1 PUSH1 0xA0 SHL SUB DUP3 AND PUSH1 0x0 SWAP1 DUP2 MSTORE PUSH1 0x20 DUP5 SWAP1 MSTORE PUSH1 0x40 SWAP1 KECCAK256 DUP1 SLOAD PUSH2 0xD91 SWAP1 PUSH1 0x1 PUSH1 0x1 PUSH1 0x70 SHL SUB SWAP1 DUP2 AND SWAP1 DUP5 AND PUSH2 0x1878 JUMP JUMPDEST DUP2 SLOAD PUSH1 0x1 PUSH1 0x1 PUSH1 0x70 SHL SUB NOT AND PUSH1 0x1 PUSH1 0x1 PUSH1 0x70 SHL SUB SWAP2 DUP3 AND OR DUP1 DUP4 SSTORE PUSH2 0xDC2 SWAP2 PUSH1 0x1 PUSH1 0x70 SHL SWAP1 SWAP2 DIV DUP2 AND SWAP1 DUP5 AND PUSH2 0x1853 JUMP JUMPDEST DUP2 SLOAD PUSH1 0x1 PUSH1 0x1 PUSH1 0x70 SHL SUB SWAP2 SWAP1 SWAP2 AND PUSH1 0x1 PUSH1 0x70 SHL MUL PUSH1 0x1 PUSH1 0x70 SHL PUSH1 0x1 PUSH1 0xE0 SHL SUB NOT SWAP1 SWAP2 AND OR DUP2 SSTORE PUSH2 0xE01 PUSH2 0xDF3 PUSH2 0xE4F JUMP JUMPDEST PUSH1 0x2 ADD SLOAD NUMBER SWAP1 PUSH1 0xFF AND PUSH2 0x1853 JUMP JUMPDEST PUSH1 0x1 DUP3 ADD SSTORE PUSH1 0x40 MLOAD PUSH1 0x1 PUSH1 0x1 PUSH1 0xA0 SHL SUB DUP5 AND SWAP1 PUSH32 0x2003B3784184319A80D89C8F4F47ED588347ABA97E0F40AE058F928C8BB5F74D SWAP1 PUSH2 0xE41 SWAP1 DUP6 SWAP1 PUSH2 0x2A81 JUMP JUMPDEST PUSH1 0x40 MLOAD DUP1 SWAP2 SUB SWAP1 LOG2 POP POP POP POP JUMP JUMPDEST PUSH32 0xF5B4BE0A744C821D14F78BF26D55A308F420D78CEBBFAC103F2618FBA32917B9 SWAP1 JUMP JUMPDEST PUSH32 0xD59DD79CFD4373C6C6547848D91FC2EA67C8AEC9053F7028828216C5AF1D4741 SWAP1 JUMP JUMPDEST PUSH2 0xE9F PUSH2 0xE4F JUMP JUMPDEST PUSH1 0x40 MLOAD PUSH4 0x21CAB0C7 PUSH1 0xE0 SHL DUP2 MSTORE PUSH20 0x0 SWAP2 PUSH4 0x21CAB0C7 SWAP2 PUSH2 0xED7 SWAP2 SWAP1 DUP6 SWAP1 PUSH1 0x4 ADD PUSH2 0x29CF JUMP JUMPDEST PUSH1 0x0 PUSH1 0x40 MLOAD DUP1 DUP4 SUB DUP2 DUP7 DUP1 EXTCODESIZE ISZERO DUP1 ISZERO PUSH2 0xEEF JUMPI PUSH1 0x0 DUP1 REVERT JUMPDEST POP GAS DELEGATECALL ISZERO DUP1 ISZERO PUSH2 0xF03 JUMPI RETURNDATASIZE PUSH1 0x0 DUP1 RETURNDATACOPY RETURNDATASIZE PUSH1 0x0 REVERT JUMPDEST POP POP POP POP PUSH2 0x5F9 PUSH2 0x18A0 JUMP JUMPDEST PUSH32 0x3A83B1278D351A40F18BB9E8E77896E8C1DC812FFAED5EA63E0E837A6DAE57E9 SWAP1 JUMP JUMPDEST PUSH2 0xF3B PUSH2 0x1ED4 JUMP JUMPDEST PUSH2 0xF45 DUP3 GASPRICE PUSH2 0x1969 JUMP JUMPDEST PUSH2 0xF61 JUMPI PUSH1 0x40 MLOAD PUSH3 0x461BCD PUSH1 0xE5 SHL DUP2 MSTORE PUSH1 0x4 ADD PUSH2 0x5D5 SWAP1 PUSH2 0x289A JUMP JUMPDEST PUSH2 0xF6A DUP3 PUSH2 0x1A40 JUMP JUMPDEST PUSH2 0xF86 JUMPI PUSH1 0x40 MLOAD PUSH3 0x461BCD PUSH1 0xE5 SHL DUP2 MSTORE PUSH1 0x4 ADD PUSH2 0x5D5 SWAP1 PUSH2 0x27A2 JUMP JUMPDEST PUSH2 0xF8F DUP3 PUSH2 0x1ADD JUMP JUMPDEST PUSH2 0xFAB JUMPI PUSH1 0x40 MLOAD PUSH3 0x461BCD PUSH1 0xE5 SHL DUP2 MSTORE PUSH1 0x4 ADD PUSH2 0x5D5 SWAP1 PUSH2 0x2757 JUMP JUMPDEST PUSH1 0x40 MLOAD DUP1 PUSH1 0x80 ADD PUSH1 0x40 MSTORE DUP1 DUP4 PUSH1 0x60 ADD MLOAD PUSH1 0x0 ADD MLOAD PUSH1 0x1 PUSH1 0x1 PUSH1 0xA0 SHL SUB AND PUSH4 0x70A08231 DUP6 PUSH1 0x40 ADD MLOAD PUSH1 0x40 MLOAD DUP3 PUSH4 0xFFFFFFFF AND PUSH1 0xE0 SHL DUP2 MSTORE PUSH1 0x4 ADD PUSH2 0xFEE SWAP2 SWAP1 PUSH2 0x23A5 JUMP JUMPDEST PUSH1 0x20 PUSH1 0x40 MLOAD DUP1 DUP4 SUB DUP2 DUP7 DUP1 EXTCODESIZE ISZERO DUP1 ISZERO PUSH2 0x1006 JUMPI PUSH1 0x0 DUP1 REVERT JUMPDEST POP GAS STATICCALL ISZERO DUP1 ISZERO PUSH2 0x101A JUMPI RETURNDATASIZE PUSH1 0x0 DUP1 RETURNDATACOPY RETURNDATASIZE PUSH1 0x0 REVERT JUMPDEST POP POP POP POP PUSH1 0x40 MLOAD RETURNDATASIZE PUSH1 0x1F NOT PUSH1 0x1F DUP3 ADD AND DUP3 ADD DUP1 PUSH1 0x40 MSTORE POP DUP2 ADD SWAP1 PUSH2 0x103E SWAP2 SWAP1 PUSH2 0x22C8 JUMP JUMPDEST DUP2 MSTORE PUSH1 0x20 ADD DUP4 PUSH1 0x80 ADD MLOAD PUSH1 0x0 ADD MLOAD PUSH1 0x1 PUSH1 0x1 PUSH1 0xA0 SHL SUB AND PUSH4 0x70A08231 DUP6 PUSH1 0x40 ADD MLOAD PUSH1 0x40 MLOAD DUP3 PUSH4 0xFFFFFFFF AND PUSH1 0xE0 SHL DUP2 MSTORE PUSH1 0x4 ADD PUSH2 0x107B SWAP2 SWAP1 PUSH2 0x23A5 JUMP JUMPDEST PUSH1 0x20 PUSH1 0x40 MLOAD DUP1 DUP4 SUB DUP2 DUP7 DUP1 EXTCODESIZE ISZERO DUP1 ISZERO PUSH2 0x1093 JUMPI PUSH1 0x0 DUP1 REVERT JUMPDEST POP GAS STATICCALL ISZERO DUP1 ISZERO PUSH2 0x10A7 JUMPI RETURNDATASIZE PUSH1 0x0 DUP1 RETURNDATACOPY RETURNDATASIZE PUSH1 0x0 REVERT JUMPDEST POP POP POP POP PUSH1 0x40 MLOAD RETURNDATASIZE PUSH1 0x1F NOT PUSH1 0x1F DUP3 ADD AND DUP3 ADD DUP1 PUSH1 0x40 MSTORE POP DUP2 ADD SWAP1 PUSH2 0x10CB SWAP2 SWAP1 PUSH2 0x22C8 JUMP JUMPDEST DUP2 MSTORE PUSH1 0x20 ADD PUSH1 0x0 DUP2 MSTORE PUSH1 0x20 ADD PUSH1 0x0 DUP2 MSTORE POP SWAP1 POP SWAP2 SWAP1 POP JUMP JUMPDEST PUSH1 0x40 DUP3 ADD MLOAD PUSH1 0x60 DUP4 ADD MLOAD PUSH1 0x20 DUP2 ADD MLOAD SWAP1 MLOAD PUSH2 0x1114 SWAP3 PUSH1 0x1 PUSH1 0x1 PUSH1 0xA0 SHL SUB SWAP1 SWAP2 AND SWAP2 DUP5 SWAP1 PUSH1 0x1 PUSH1 0x1 PUSH1 0x70 SHL SUB AND PUSH2 0x1B2C JUMP JUMPDEST PUSH1 0x20 DUP3 ADD MLOAD PUSH1 0x1 PUSH1 0x1 PUSH1 0x80 SHL SUB AND ISZERO PUSH2 0xAF1 JUMPI PUSH1 0x20 DUP3 ADD MLOAD PUSH1 0x40 MLOAD PUSH1 0x1 PUSH1 0x1 PUSH1 0xA0 SHL SUB DUP4 AND SWAP2 PUSH1 0x1 PUSH1 0x1 PUSH1 0x80 SHL SUB AND DUP1 ISZERO PUSH2 0x8FC MUL SWAP2 PUSH1 0x0 DUP2 DUP2 DUP2 DUP6 DUP9 DUP9 CALL SWAP4 POP POP POP POP ISZERO DUP1 ISZERO PUSH2 0x726 JUMPI RETURNDATASIZE PUSH1 0x0 DUP1 RETURNDATACOPY RETURNDATASIZE PUSH1 0x0 REVERT JUMPDEST PUSH1 0x0 PUSH1 0x60 DUP5 PUSH1 0x1 PUSH1 0x1 PUSH1 0xA0 SHL SUB AND PUSH4 0x98930135 PUSH2 0x118A PUSH3 0x13880 GAS SWAP1 PUSH2 0x1878 JUMP JUMPDEST DUP9 DUP8 DUP8 PUSH1 0x40 MLOAD DUP6 PUSH4 0xFFFFFFFF AND PUSH1 0xE0 SHL DUP2 MSTORE PUSH1 0x4 ADD PUSH2 0x11AB SWAP4 SWAP3 SWAP2 SWAP1 PUSH2 0x29FA JUMP JUMPDEST PUSH1 0x0 PUSH1 0x40 MLOAD DUP1 DUP4 SUB DUP2 PUSH1 0x0 DUP9 DUP1 EXTCODESIZE ISZERO DUP1 ISZERO PUSH2 0x11C5 JUMPI PUSH1 0x0 DUP1 REVERT JUMPDEST POP DUP8 CALL SWAP4 POP POP POP POP DUP1 ISZERO PUSH2 0x11FB JUMPI POP PUSH1 0x40 MLOAD RETURNDATASIZE PUSH1 0x0 DUP3 RETURNDATACOPY PUSH1 0x1F RETURNDATASIZE SWAP1 DUP2 ADD PUSH1 0x1F NOT AND DUP3 ADD PUSH1 0x40 MSTORE PUSH2 0x11F8 SWAP2 SWAP1 DUP2 ADD SWAP1 PUSH2 0x2027 JUMP JUMPDEST PUSH1 0x1 JUMPDEST PUSH2 0x1252 JUMPI PUSH2 0x1207 PUSH2 0x2B44 JUMP JUMPDEST DUP1 PUSH2 0x1212 JUMPI POP PUSH2 0x121D JUMP JUMPDEST PUSH1 0x0 SWAP3 POP SWAP1 POP PUSH2 0x124D JUMP JUMPDEST POP POP PUSH1 0x40 DUP1 MLOAD DUP1 DUP3 ADD SWAP1 SWAP2 MSTORE PUSH1 0x13 DUP2 MSTORE PUSH19 0x2AB735B737BBB7103330B4B6103932B0B9B7B7 PUSH1 0x69 SHL PUSH1 0x20 DUP3 ADD MSTORE PUSH1 0x0 SWAP1 JUMPDEST PUSH2 0x1259 JUMP JUMPDEST POP POP PUSH1 0x1 SWAP2 POP JUMPDEST SWAP5 POP SWAP5 SWAP3 POP POP POP JUMP JUMPDEST PUSH1 0x60 DUP4 ADD MLOAD MLOAD PUSH1 0x40 DUP1 DUP6 ADD MLOAD SWAP1 MLOAD PUSH4 0x70A08231 PUSH1 0xE0 SHL DUP2 MSTORE PUSH1 0x1 PUSH1 0x1 PUSH1 0xA0 SHL SUB SWAP1 SWAP3 AND SWAP2 PUSH4 0x70A08231 SWAP2 PUSH2 0x1298 SWAP2 PUSH1 0x4 ADD PUSH2 0x23A5 JUMP JUMPDEST PUSH1 0x20 PUSH1 0x40 MLOAD DUP1 DUP4 SUB DUP2 DUP7 DUP1 EXTCODESIZE ISZERO DUP1 ISZERO PUSH2 0x12B0 JUMPI PUSH1 0x0 DUP1 REVERT JUMPDEST POP GAS STATICCALL ISZERO DUP1 ISZERO PUSH2 0x12C4 JUMPI RETURNDATASIZE PUSH1 0x0 DUP1 RETURNDATACOPY RETURNDATASIZE PUSH1 0x0 REVERT JUMPDEST POP POP POP POP PUSH1 0x40 MLOAD RETURNDATASIZE PUSH1 0x1F NOT PUSH1 0x1F DUP3 ADD AND DUP3 ADD DUP1 PUSH1 0x40 MSTORE POP DUP2 ADD SWAP1 PUSH2 0x12E8 SWAP2 SWAP1 PUSH2 0x22C8 JUMP JUMPDEST PUSH1 0x40 DUP4 ADD MSTORE DUP1 PUSH2 0x131B JUMPI DUP2 MLOAD PUSH1 0x40 DUP4 ADD MLOAD EQ PUSH2 0x1316 JUMPI PUSH1 0x40 MLOAD PUSH3 0x461BCD PUSH1 0xE5 SHL DUP2 MSTORE PUSH1 0x4 ADD PUSH2 0x5D5 SWAP1 PUSH2 0x2650 JUMP JUMPDEST PUSH2 0x726 JUMP JUMPDEST PUSH1 0x80 DUP4 ADD MLOAD MLOAD PUSH1 0x40 DUP1 DUP6 ADD MLOAD SWAP1 MLOAD PUSH4 0x70A08231 PUSH1 0xE0 SHL DUP2 MSTORE PUSH1 0x1 PUSH1 0x1 PUSH1 0xA0 SHL SUB SWAP1 SWAP3 AND SWAP2 PUSH4 0x70A08231 SWAP2 PUSH2 0x1351 SWAP2 PUSH1 0x4 ADD PUSH2 0x23A5 JUMP JUMPDEST PUSH1 0x20 PUSH1 0x40 MLOAD DUP1 DUP4 SUB DUP2 DUP7 DUP1 EXTCODESIZE ISZERO DUP1 ISZERO PUSH2 0x1369 JUMPI PUSH1 0x0 DUP1 REVERT JUMPDEST POP GAS STATICCALL ISZERO DUP1 ISZERO PUSH2 0x137D JUMPI RETURNDATASIZE PUSH1 0x0 DUP1 RETURNDATACOPY RETURNDATASIZE PUSH1 0x0 REVERT JUMPDEST POP POP POP POP PUSH1 0x40 MLOAD RETURNDATASIZE PUSH1 0x1F NOT PUSH1 0x1F DUP3 ADD AND DUP3 ADD DUP1 PUSH1 0x40 MSTORE POP DUP2 ADD SWAP1 PUSH2 0x13A1 SWAP2 SWAP1 PUSH2 0x22C8 JUMP JUMPDEST PUSH1 0x60 DUP4 ADD DUP2 SWAP1 MSTORE PUSH1 0x20 DUP4 ADD MLOAD LT PUSH2 0x13CA JUMPI PUSH1 0x40 MLOAD PUSH3 0x461BCD PUSH1 0xE5 SHL DUP2 MSTORE PUSH1 0x4 ADD PUSH2 0x5D5 SWAP1 PUSH2 0x2437 JUMP JUMPDEST DUP3 PUSH1 0x80 ADD MLOAD PUSH1 0x20 ADD MLOAD PUSH1 0x1 PUSH1 0x1 PUSH1 0x70 SHL SUB AND PUSH2 0x13F7 DUP4 PUSH1 0x20 ADD MLOAD DUP5 PUSH1 0x60 ADD MLOAD PUSH2 0x1878 SWAP1 SWAP2 SWAP1 PUSH4 0xFFFFFFFF AND JUMP JUMPDEST LT ISZERO PUSH2 0x1415 JUMPI PUSH1 0x40 MLOAD PUSH3 0x461BCD PUSH1 0xE5 SHL DUP2 MSTORE PUSH1 0x4 ADD PUSH2 0x5D5 SWAP1 PUSH2 0x280E JUMP JUMPDEST DUP2 MLOAD PUSH1 0x40 DUP4 ADD MLOAD LT PUSH2 0x1439 JUMPI PUSH1 0x40 MLOAD PUSH3 0x461BCD PUSH1 0xE5 SHL DUP2 MSTORE PUSH1 0x4 ADD PUSH2 0x5D5 SWAP1 PUSH2 0x255E JUMP JUMPDEST PUSH1 0x60 DUP4 ADD MLOAD PUSH1 0x20 ADD MLOAD PUSH1 0x40 DUP4 ADD MLOAD DUP4 MLOAD PUSH1 0x1 PUSH1 0x1 PUSH1 0x70 SHL SUB SWAP1 SWAP3 AND SWAP2 PUSH2 0x145E SWAP2 PUSH2 0x1878 JUMP JUMPDEST GT ISZERO PUSH2 0x726 JUMPI PUSH1 0x40 MLOAD PUSH3 0x461BCD PUSH1 0xE5 SHL DUP2 MSTORE PUSH1 0x4 ADD PUSH2 0x5D5 SWAP1 PUSH2 0x269E JUMP JUMPDEST DUP4 PUSH2 0x1547 JUMPI PUSH1 0x0 PUSH2 0x149A PUSH2 0xEA60 PUSH2 0x1494 GAS DUP6 SWAP1 PUSH2 0x1878 JUMP JUMPDEST SWAP1 PUSH2 0x1853 JUMP JUMPDEST SWAP1 POP PUSH1 0x0 PUSH2 0x14A8 DUP3 GASPRICE PUSH2 0x1B8A JUMP JUMPDEST SWAP1 POP PUSH2 0x14B8 DUP8 PUSH1 0x40 ADD MLOAD DUP3 PUSH2 0x1BC4 JUMP JUMPDEST DUP7 PUSH1 0x40 ADD MLOAD PUSH1 0x1 PUSH1 0x1 PUSH1 0xA0 SHL SUB AND PUSH32 0x25E268B6E417CA50F83F2B95DB36DFD7E9D897F9B0B714668524E848E8635347 DUP3 DUP8 PUSH1 0x40 MLOAD PUSH2 0x14F7 SWAP3 SWAP2 SWAP1 PUSH2 0x2AA9 JUMP JUMPDEST PUSH1 0x40 MLOAD DUP1 SWAP2 SUB SWAP1 LOG2 PUSH2 0x1507 PUSH2 0xD5C JUMP JUMPDEST PUSH1 0x1 PUSH1 0x1 PUSH1 0xA0 SHL SUB AND PUSH2 0x8FC DUP3 SWAP1 DUP2 ISZERO MUL SWAP1 PUSH1 0x40 MLOAD PUSH1 0x0 PUSH1 0x40 MLOAD DUP1 DUP4 SUB DUP2 DUP6 DUP9 DUP9 CALL SWAP4 POP POP POP POP ISZERO DUP1 ISZERO PUSH2 0x153F JUMPI RETURNDATASIZE PUSH1 0x0 DUP1 RETURNDATACOPY RETURNDATASIZE PUSH1 0x0 REVERT JUMPDEST POP POP POP PUSH2 0x69E JUMP JUMPDEST PUSH1 0x0 PUSH2 0x155A PUSH2 0xEA60 PUSH2 0x1494 GAS DUP6 SWAP1 PUSH2 0x1878 JUMP JUMPDEST SWAP1 POP PUSH1 0x0 PUSH2 0x1568 DUP3 GASPRICE PUSH2 0x1B8A JUMP JUMPDEST SWAP1 POP PUSH2 0x15A8 DUP8 PUSH1 0x40 ADD MLOAD PUSH2 0x15A3 DUP10 PUSH1 0x20 ADD MLOAD PUSH1 0x1 PUSH1 0x1 PUSH1 0x80 SHL SUB AND PUSH2 0x1494 DUP12 PUSH1 0x0 ADD MLOAD PUSH1 0x1 PUSH1 0x1 PUSH1 0x80 SHL SUB AND DUP7 PUSH2 0x1853 SWAP1 SWAP2 SWAP1 PUSH4 0xFFFFFFFF AND JUMP JUMPDEST PUSH2 0x1BC4 JUMP JUMPDEST PUSH2 0x15B0 PUSH2 0xD5C JUMP JUMPDEST PUSH1 0x1 PUSH1 0x1 PUSH1 0xA0 SHL SUB AND PUSH2 0x8FC DUP3 SWAP1 DUP2 ISZERO MUL SWAP1 PUSH1 0x40 MLOAD PUSH1 0x0 PUSH1 0x40 MLOAD DUP1 DUP4 SUB DUP2 DUP6 DUP9 DUP9 CALL SWAP4 POP POP POP POP ISZERO DUP1 ISZERO PUSH2 0x15E8 JUMPI RETURNDATASIZE PUSH1 0x0 DUP1 RETURNDATACOPY RETURNDATASIZE PUSH1 0x0 REVERT JUMPDEST POP PUSH2 0x15F1 PUSH2 0xE4F JUMP JUMPDEST SLOAD DUP8 MLOAD PUSH1 0x40 MLOAD PUSH1 0x1 PUSH1 0x1 PUSH1 0xA0 SHL SUB SWAP1 SWAP3 AND SWAP2 PUSH1 0x1 PUSH1 0x1 PUSH1 0x80 SHL SUB SWAP1 SWAP2 AND DUP1 ISZERO PUSH2 0x8FC MUL SWAP2 PUSH1 0x0 DUP2 DUP2 DUP2 DUP6 DUP9 DUP9 CALL SWAP4 POP POP POP POP ISZERO DUP1 ISZERO PUSH2 0x1634 JUMPI RETURNDATASIZE PUSH1 0x0 DUP1 RETURNDATACOPY RETURNDATASIZE PUSH1 0x0 REVERT JUMPDEST POP PUSH2 0x163D PUSH2 0xD5C JUMP JUMPDEST PUSH1 0x1 PUSH1 0x1 PUSH1 0xA0 SHL SUB AND DUP8 PUSH1 0x40 ADD MLOAD PUSH1 0x1 PUSH1 0x1 PUSH1 0xA0 SHL SUB AND PUSH32 0x5AC72B858888990BB2049431A88689D4792E4F81276A67205492BA0E430812AE PUSH2 0x1690 DUP8 PUSH1 0x40 ADD MLOAD DUP9 PUSH1 0x0 ADD MLOAD PUSH2 0x1878 SWAP1 SWAP2 SWAP1 PUSH4 0xFFFFFFFF AND JUMP JUMPDEST PUSH1 0x20 DUP9 ADD MLOAD PUSH1 0x60 DUP10 ADD MLOAD PUSH2 0x16A3 SWAP2 PUSH2 0x1878 JUMP JUMPDEST PUSH1 0x20 DUP13 ADD MLOAD DUP13 MLOAD PUSH2 0x16C0 SWAP2 PUSH1 0x1 PUSH1 0x1 PUSH1 0x80 SHL SUB SWAP2 DUP3 AND SWAP2 AND PUSH2 0x1853 JUMP JUMPDEST DUP7 PUSH1 0x40 MLOAD PUSH2 0x16D1 SWAP5 SWAP4 SWAP3 SWAP2 SWAP1 PUSH2 0x2AC2 JUMP JUMPDEST PUSH1 0x40 MLOAD DUP1 SWAP2 SUB SWAP1 LOG3 POP POP POP POP POP POP POP JUMP JUMPDEST PUSH1 0x1 PUSH1 0x1 PUSH1 0xA0 SHL SUB DUP3 AND PUSH1 0x0 SWAP1 DUP2 MSTORE PUSH1 0x20 DUP5 SWAP1 MSTORE PUSH1 0x40 SWAP1 KECCAK256 DUP1 SLOAD PUSH2 0x1713 SWAP1 PUSH1 0x1 PUSH1 0x1 PUSH1 0x70 SHL SUB SWAP1 DUP2 AND SWAP1 DUP5 AND PUSH2 0x1853 JUMP JUMPDEST DUP2 SLOAD PUSH1 0x1 PUSH1 0x1 PUSH1 0x70 SHL SUB NOT AND PUSH1 0x1 PUSH1 0x1 PUSH1 0x70 SHL SUB SWAP2 SWAP1 SWAP2 AND OR DUP2 SSTORE PUSH1 0x40 MLOAD PUSH1 0x1 PUSH1 0x1 PUSH1 0xA0 SHL SUB DUP5 AND SWAP1 PUSH32 0xC0FA3EA2FDA298BDF9AC3CD23FD02C7A0562596814D731619EE046A7A93C09BE SWAP1 PUSH2 0xE41 SWAP1 DUP6 SWAP1 PUSH2 0x2A81 JUMP JUMPDEST PUSH1 0x0 SWAP2 DUP3 MSTORE PUSH1 0x1 SWAP1 SWAP3 ADD PUSH1 0x20 SWAP1 DUP2 MSTORE PUSH1 0x40 DUP1 DUP4 KECCAK256 PUSH1 0x1 PUSH1 0x1 PUSH1 0xA0 SHL SUB SWAP1 SWAP5 AND DUP4 MSTORE SWAP3 SWAP1 MSTORE KECCAK256 DUP1 SLOAD PUSH1 0xFF NOT AND SWAP1 SSTORE JUMP JUMPDEST PUSH2 0xAF1 DUP3 DUP3 PUSH2 0x17A5 PUSH2 0xF0F JUMP JUMPDEST SWAP2 SWAP1 PUSH2 0x1BD8 JUMP JUMPDEST PUSH1 0x1 PUSH1 0x1 PUSH1 0xA0 SHL SUB DUP3 AND PUSH1 0x0 SWAP1 DUP2 MSTORE PUSH1 0x20 DUP5 SWAP1 MSTORE PUSH1 0x40 SWAP1 KECCAK256 PUSH1 0x1 DUP2 ADD SLOAD PUSH2 0x17E5 JUMPI PUSH1 0x40 MLOAD PUSH3 0x461BCD PUSH1 0xE5 SHL DUP2 MSTORE PUSH1 0x4 ADD PUSH2 0x5D5 SWAP1 PUSH2 0x24B9 JUMP JUMPDEST NUMBER DUP2 PUSH1 0x1 ADD SLOAD LT PUSH2 0x1808 JUMPI PUSH1 0x40 MLOAD PUSH3 0x461BCD PUSH1 0xE5 SHL DUP2 MSTORE PUSH1 0x4 ADD PUSH2 0x5D5 SWAP1 PUSH2 0x258E JUMP JUMPDEST DUP1 SLOAD PUSH2 0x1828 SWAP1 PUSH1 0x1 PUSH1 0x70 SHL SWAP1 DIV PUSH1 0x1 PUSH1 0x1 PUSH1 0x70 SHL SUB SWAP1 DUP2 AND SWAP1 DUP5 AND PUSH2 0x1878 JUMP JUMPDEST DUP2 SLOAD PUSH1 0x1 PUSH1 0x1 PUSH1 0x70 SHL SUB SWAP2 SWAP1 SWAP2 AND PUSH1 0x1 PUSH1 0x70 SHL MUL PUSH1 0x1 PUSH1 0x70 SHL PUSH1 0x1 PUSH1 0xE0 SHL SUB NOT SWAP1 SWAP2 AND OR SWAP1 SSTORE POP POP POP JUMP JUMPDEST PUSH1 0x0 DUP3 DUP3 ADD DUP4 DUP2 LT ISZERO PUSH2 0x9B2 JUMPI PUSH1 0x40 MLOAD PUSH3 0x461BCD PUSH1 0xE5 SHL DUP2 MSTORE PUSH1 0x4 ADD PUSH2 0x5D5 SWAP1 PUSH2 0x24F0 JUMP JUMPDEST PUSH1 0x0 DUP3 DUP3 GT ISZERO PUSH2 0x189A JUMPI PUSH1 0x40 MLOAD PUSH3 0x461BCD PUSH1 0xE5 SHL DUP2 MSTORE PUSH1 0x4 ADD PUSH2 0x5D5 SWAP1 PUSH2 0x25D3 JUMP JUMPDEST POP SWAP1 SUB SWAP1 JUMP JUMPDEST PUSH1 0x0 PUSH2 0x18AA PUSH2 0xE73 JUMP JUMPDEST DUP1 SLOAD SWAP1 SWAP2 POP PUSH2 0x100 SWAP1 DIV PUSH1 0xFF AND DUP1 PUSH2 0x18C4 JUMPI POP DUP1 SLOAD PUSH1 0xFF AND ISZERO JUMPDEST PUSH2 0x18E0 JUMPI PUSH1 0x40 MLOAD PUSH3 0x461BCD PUSH1 0xE5 SHL DUP2 MSTORE PUSH1 0x4 ADD PUSH2 0x5D5 SWAP1 PUSH2 0x28D1 JUMP JUMPDEST DUP1 SLOAD PUSH2 0x100 SWAP1 DIV PUSH1 0xFF AND ISZERO DUP1 ISZERO PUSH2 0x1908 JUMPI DUP2 SLOAD PUSH1 0xFF NOT PUSH2 0xFF00 NOT SWAP1 SWAP2 AND PUSH2 0x100 OR AND PUSH1 0x1 OR DUP3 SSTORE JUMPDEST PUSH1 0x0 PUSH2 0x1912 PUSH2 0xD5C JUMP JUMPDEST SWAP1 POP PUSH2 0x192C PUSH1 0x0 DUP1 MLOAD PUSH1 0x20 PUSH2 0x2C31 DUP4 CODECOPY DUP2 MLOAD SWAP2 MSTORE DUP3 PUSH2 0x1798 JUMP JUMPDEST PUSH2 0x1956 PUSH32 0x65D7A28E3265B37A6474929F336521B332C1681B933F6CB9F3376673440D862A DUP3 PUSH2 0x1798 JUMP JUMPDEST POP DUP1 ISZERO PUSH2 0xAF1 JUMPI POP DUP1 SLOAD PUSH2 0xFF00 NOT AND SWAP1 SSTORE JUMP JUMPDEST PUSH1 0x0 DUP1 PUSH2 0x1979 PUSH3 0x6DDD0 DUP5 PUSH2 0x1B8A JUMP JUMPDEST SWAP1 POP PUSH1 0x0 PUSH2 0x19B7 PUSH2 0x1988 PUSH2 0xE4F JUMP JUMPDEST PUSH1 0x1 ADD SLOAD PUSH1 0x20 DUP8 ADD MLOAD DUP8 MLOAD PUSH1 0x1 PUSH1 0x1 PUSH1 0x80 SHL SUB PUSH1 0x1 PUSH1 0x80 SHL SWAP1 SWAP4 DIV DUP4 AND SWAP3 PUSH2 0x1494 SWAP3 DUP2 AND SWAP2 DUP4 SWAP2 DUP9 SWAP2 AND PUSH2 0x1853 JUMP JUMPDEST PUSH1 0x40 DUP1 DUP8 ADD MLOAD SWAP1 MLOAD PUSH4 0xEBD3559 PUSH1 0xE3 SHL DUP2 MSTORE SWAP2 SWAP3 POP PUSH1 0x0 SWAP2 ADDRESS SWAP2 PUSH4 0x75E9AAC8 SWAP2 PUSH2 0x19E6 SWAP2 SWAP1 DUP7 SWAP1 PUSH1 0x4 ADD PUSH2 0x23F7 JUMP JUMPDEST PUSH1 0x20 PUSH1 0x40 MLOAD DUP1 DUP4 SUB DUP2 DUP7 DUP1 EXTCODESIZE ISZERO DUP1 ISZERO PUSH2 0x19FE JUMPI PUSH1 0x0 DUP1 REVERT JUMPDEST POP GAS STATICCALL ISZERO DUP1 ISZERO PUSH2 0x1A12 JUMPI RETURNDATASIZE PUSH1 0x0 DUP1 RETURNDATACOPY RETURNDATASIZE PUSH1 0x0 REVERT JUMPDEST POP POP POP POP PUSH1 0x40 MLOAD RETURNDATASIZE PUSH1 0x1F NOT PUSH1 0x1F DUP3 ADD AND DUP3 ADD DUP1 PUSH1 0x40 MSTORE POP DUP2 ADD SWAP1 PUSH2 0x1A36 SWAP2 SWAP1 PUSH2 0x200B JUMP JUMPDEST SWAP7 SWAP6 POP POP POP POP POP POP JUMP JUMPDEST PUSH1 0x0 DUP1 DUP3 PUSH1 0x60 ADD MLOAD PUSH1 0x20 ADD MLOAD PUSH1 0x1 PUSH1 0x1 PUSH1 0x70 SHL SUB AND DUP4 PUSH1 0x60 ADD MLOAD PUSH1 0x0 ADD MLOAD PUSH1 0x1 PUSH1 0x1 PUSH1 0xA0 SHL SUB AND PUSH4 0x70A08231 DUP6 PUSH1 0x40 ADD MLOAD PUSH1 0x40 MLOAD DUP3 PUSH4 0xFFFFFFFF AND PUSH1 0xE0 SHL DUP2 MSTORE PUSH1 0x4 ADD PUSH2 0x1A8D SWAP2 SWAP1 PUSH2 0x23A5 JUMP JUMPDEST PUSH1 0x20 PUSH1 0x40 MLOAD DUP1 DUP4 SUB DUP2 DUP7 DUP1 EXTCODESIZE ISZERO DUP1 ISZERO PUSH2 0x1AA5 JUMPI PUSH1 0x0 DUP1 REVERT JUMPDEST POP GAS STATICCALL ISZERO DUP1 ISZERO PUSH2 0x1AB9 JUMPI RETURNDATASIZE PUSH1 0x0 DUP1 RETURNDATACOPY RETURNDATASIZE PUSH1 0x0 REVERT JUMPDEST POP POP POP POP PUSH1 0x40 MLOAD RETURNDATASIZE PUSH1 0x1F NOT PUSH1 0x1F DUP3 ADD AND DUP3 ADD DUP1 PUSH1 0x40 MSTORE POP DUP2 ADD SWAP1 PUSH2 0x7D6 SWAP2 SWAP1 PUSH2 0x22C8 JUMP JUMPDEST PUSH1 0x0 DUP1 DUP3 PUSH1 0x60 ADD MLOAD PUSH1 0x20 ADD MLOAD PUSH1 0x1 PUSH1 0x1 PUSH1 0x70 SHL SUB AND DUP4 PUSH1 0x60 ADD MLOAD PUSH1 0x0 ADD MLOAD PUSH1 0x1 PUSH1 0x1 PUSH1 0xA0 SHL SUB AND PUSH4 0xDD62ED3E DUP6 PUSH1 0x40 ADD MLOAD ADDRESS PUSH1 0x40 MLOAD DUP4 PUSH4 0xFFFFFFFF AND PUSH1 0xE0 SHL DUP2 MSTORE PUSH1 0x4 ADD PUSH2 0x1A8D SWAP3 SWAP2 SWAP1 PUSH2 0x23B9 JUMP JUMPDEST PUSH2 0x1B84 DUP5 PUSH4 0x23B872DD PUSH1 0xE0 SHL DUP6 DUP6 DUP6 PUSH1 0x40 MLOAD PUSH1 0x24 ADD PUSH2 0x1B4D SWAP4 SWAP3 SWAP2 SWAP1 PUSH2 0x23D3 JUMP JUMPDEST PUSH1 0x40 DUP1 MLOAD PUSH1 0x1F NOT DUP2 DUP5 SUB ADD DUP2 MSTORE SWAP2 SWAP1 MSTORE PUSH1 0x20 DUP2 ADD DUP1 MLOAD PUSH1 0x1 PUSH1 0x1 PUSH1 0xE0 SHL SUB AND PUSH1 0x1 PUSH1 0x1 PUSH1 0xE0 SHL SUB NOT SWAP1 SWAP4 AND SWAP3 SWAP1 SWAP3 OR SWAP1 SWAP2 MSTORE PUSH2 0x1C0B JUMP JUMPDEST POP POP POP POP JUMP JUMPDEST PUSH1 0x0 DUP3 PUSH2 0x1B99 JUMPI POP PUSH1 0x0 PUSH2 0x4DC JUMP JUMPDEST DUP3 DUP3 MUL DUP3 DUP5 DUP3 DUP2 PUSH2 0x1BA6 JUMPI INVALID JUMPDEST DIV EQ PUSH2 0x9B2 JUMPI PUSH1 0x40 MLOAD PUSH3 0x461BCD PUSH1 0xE5 SHL DUP2 MSTORE PUSH1 0x4 ADD PUSH2 0x5D5 SWAP1 PUSH2 0x26D5 JUMP JUMPDEST PUSH2 0xAF1 DUP3 DUP3 PUSH2 0x1BD1 PUSH2 0xC78 JUMP JUMPDEST SWAP2 SWAP1 PUSH2 0x1C9A JUMP JUMPDEST PUSH1 0x0 SWAP2 DUP3 MSTORE PUSH1 0x1 SWAP3 DUP4 ADD PUSH1 0x20 SWAP1 DUP2 MSTORE PUSH1 0x40 DUP1 DUP5 KECCAK256 PUSH1 0x1 PUSH1 0x1 PUSH1 0xA0 SHL SUB SWAP1 SWAP4 AND DUP5 MSTORE SWAP2 SWAP1 MSTORE SWAP1 KECCAK256 DUP1 SLOAD PUSH1 0xFF NOT AND SWAP1 SWAP2 OR SWAP1 SSTORE JUMP JUMPDEST PUSH1 0x60 PUSH2 0x1C60 DUP3 PUSH1 0x40 MLOAD DUP1 PUSH1 0x40 ADD PUSH1 0x40 MSTORE DUP1 PUSH1 0x20 DUP2 MSTORE PUSH1 0x20 ADD PUSH32 0x5361666545524332303A206C6F772D6C6576656C2063616C6C206661696C6564 DUP2 MSTORE POP DUP6 PUSH1 0x1 PUSH1 0x1 PUSH1 0xA0 SHL SUB AND PUSH2 0x1DBD SWAP1 SWAP3 SWAP2 SWAP1 PUSH4 0xFFFFFFFF AND JUMP JUMPDEST DUP1 MLOAD SWAP1 SWAP2 POP ISZERO PUSH2 0x726 JUMPI DUP1 DUP1 PUSH1 0x20 ADD SWAP1 MLOAD DUP2 ADD SWAP1 PUSH2 0x1C7E SWAP2 SWAP1 PUSH2 0x200B JUMP JUMPDEST PUSH2 0x726 JUMPI PUSH1 0x40 MLOAD PUSH3 0x461BCD PUSH1 0xE5 SHL DUP2 MSTORE PUSH1 0x4 ADD PUSH2 0x5D5 SWAP1 PUSH2 0x2935 JUMP JUMPDEST PUSH1 0x1 PUSH1 0x1 PUSH1 0xA0 SHL SUB DUP3 AND PUSH1 0x0 SWAP1 DUP2 MSTORE PUSH1 0x20 DUP5 SWAP1 MSTORE PUSH1 0x40 SWAP1 KECCAK256 PUSH1 0x1 PUSH1 0x1 PUSH1 0x70 SHL SUB DUP3 AND PUSH2 0x1CC6 JUMPI POP PUSH2 0x726 JUMP JUMPDEST PUSH1 0x0 PUSH2 0x1CD2 DUP6 DUP6 PUSH2 0xCF1 JUMP JUMPDEST SWAP1 POP DUP3 PUSH1 0x1 PUSH1 0x1 PUSH1 0x70 SHL SUB AND DUP2 PUSH1 0x1 PUSH1 0x1 PUSH1 0x70 SHL SUB AND GT PUSH2 0x1D05 JUMPI PUSH1 0x40 MLOAD PUSH3 0x461BCD PUSH1 0xE5 SHL DUP2 MSTORE PUSH1 0x4 ADD PUSH2 0x5D5 SWAP1 PUSH2 0x2527 JUMP JUMPDEST DUP2 SLOAD PUSH1 0x1 PUSH1 0x1 PUSH1 0x70 SHL SUB DUP1 DUP6 AND SWAP2 AND LT PUSH2 0x1D52 JUMPI DUP2 SLOAD PUSH2 0x1D32 SWAP1 PUSH1 0x1 PUSH1 0x1 PUSH1 0x70 SHL SUB SWAP1 DUP2 AND SWAP1 DUP6 AND PUSH2 0x1878 JUMP JUMPDEST DUP3 SLOAD PUSH1 0x1 PUSH1 0x1 PUSH1 0x70 SHL SUB NOT AND PUSH1 0x1 PUSH1 0x1 PUSH1 0x70 SHL SUB SWAP2 SWAP1 SWAP2 AND OR DUP3 SSTORE PUSH2 0x69E JUMP JUMPDEST DUP2 SLOAD PUSH2 0x1D86 SWAP1 PUSH2 0x1D6E SWAP1 PUSH1 0x1 PUSH1 0x1 PUSH1 0x70 SHL SUB DUP7 DUP2 AND SWAP2 AND PUSH2 0x1878 JUMP JUMPDEST DUP4 SLOAD PUSH1 0x1 PUSH1 0x70 SHL SWAP1 DIV PUSH1 0x1 PUSH1 0x1 PUSH1 0x70 SHL SUB AND SWAP1 PUSH2 0x1878 JUMP JUMPDEST DUP3 SLOAD PUSH1 0x1 PUSH1 0x1 PUSH1 0x70 SHL SUB NOT PUSH1 0x1 PUSH1 0x1 PUSH1 0x70 SHL SUB SWAP3 SWAP1 SWAP3 AND PUSH1 0x1 PUSH1 0x70 SHL MUL PUSH1 0x1 PUSH1 0x70 SHL PUSH1 0x1 PUSH1 0xE0 SHL SUB NOT SWAP1 SWAP2 AND OR AND DUP3 SSTORE POP POP POP POP POP JUMP JUMPDEST PUSH1 0x60 PUSH2 0x1DCC DUP5 DUP5 PUSH1 0x0 DUP6 PUSH2 0x1DD4 JUMP JUMPDEST SWAP5 SWAP4 POP POP POP POP JUMP JUMPDEST PUSH1 0x60 DUP3 SELFBALANCE LT ISZERO PUSH2 0x1DF6 JUMPI PUSH1 0x40 MLOAD PUSH3 0x461BCD PUSH1 0xE5 SHL DUP2 MSTORE PUSH1 0x4 ADD PUSH2 0x5D5 SWAP1 PUSH2 0x260A JUMP JUMPDEST PUSH2 0x1DFF DUP6 PUSH2 0x1E95 JUMP JUMPDEST PUSH2 0x1E1B JUMPI PUSH1 0x40 MLOAD PUSH3 0x461BCD PUSH1 0xE5 SHL DUP2 MSTORE PUSH1 0x4 ADD PUSH2 0x5D5 SWAP1 PUSH2 0x2863 JUMP JUMPDEST PUSH1 0x0 PUSH1 0x60 DUP7 PUSH1 0x1 PUSH1 0x1 PUSH1 0xA0 SHL SUB AND DUP6 DUP8 PUSH1 0x40 MLOAD PUSH2 0x1E38 SWAP2 SWAP1 PUSH2 0x2389 JUMP JUMPDEST PUSH1 0x0 PUSH1 0x40 MLOAD DUP1 DUP4 SUB DUP2 DUP6 DUP8 GAS CALL SWAP3 POP POP POP RETURNDATASIZE DUP1 PUSH1 0x0 DUP2 EQ PUSH2 0x1E75 JUMPI PUSH1 0x40 MLOAD SWAP2 POP PUSH1 0x1F NOT PUSH1 0x3F RETURNDATASIZE ADD AND DUP3 ADD PUSH1 0x40 MSTORE RETURNDATASIZE DUP3 MSTORE RETURNDATASIZE PUSH1 0x0 PUSH1 0x20 DUP5 ADD RETURNDATACOPY PUSH2 0x1E7A JUMP JUMPDEST PUSH1 0x60 SWAP2 POP JUMPDEST POP SWAP2 POP SWAP2 POP PUSH2 0x1E8A DUP3 DUP3 DUP7 PUSH2 0x1E9B JUMP JUMPDEST SWAP8 SWAP7 POP POP POP POP POP POP POP JUMP JUMPDEST EXTCODESIZE ISZERO ISZERO SWAP1 JUMP JUMPDEST PUSH1 0x60 DUP4 ISZERO PUSH2 0x1EAA JUMPI POP DUP2 PUSH2 0x9B2 JUMP JUMPDEST DUP3 MLOAD ISZERO PUSH2 0x1EBA JUMPI DUP3 MLOAD DUP1 DUP5 PUSH1 0x20 ADD REVERT JUMPDEST DUP2 PUSH1 0x40 MLOAD PUSH3 0x461BCD PUSH1 0xE5 SHL DUP2 MSTORE PUSH1 0x4 ADD PUSH2 0x5D5 SWAP2 SWAP1 PUSH2 0x2424 JUMP JUMPDEST PUSH1 0x40 MLOAD DUP1 PUSH1 0x80 ADD PUSH1 0x40 MSTORE DUP1 PUSH1 0x0 DUP2 MSTORE PUSH1 0x20 ADD PUSH1 0x0 DUP2 MSTORE PUSH1 0x20 ADD PUSH1 0x0 DUP2 MSTORE PUSH1 0x20 ADD PUSH1 0x0 DUP2 MSTORE POP SWAP1 JUMP JUMPDEST PUSH1 0x40 DUP1 MLOAD PUSH1 0x80 DUP2 ADD DUP3 MSTORE PUSH1 0x0 DUP1 DUP3 MSTORE PUSH1 0x20 DUP3 ADD DUP2 SWAP1 MSTORE SWAP2 DUP2 ADD DUP3 SWAP1 MSTORE PUSH1 0x60 DUP2 ADD SWAP2 SWAP1 SWAP2 MSTORE SWAP1 JUMP JUMPDEST DUP1 CALLDATALOAD PUSH2 0x4DC DUP2 PUSH2 0x2BE9 JUMP JUMPDEST PUSH1 0x0 DUP1 DUP4 PUSH1 0x1F DUP5 ADD SLT PUSH2 0x1F3F JUMPI DUP2 DUP3 REVERT JUMPDEST POP DUP2 CALLDATALOAD PUSH8 0xFFFFFFFFFFFFFFFF DUP2 GT ISZERO PUSH2 0x1F56 JUMPI DUP2 DUP3 REVERT JUMPDEST PUSH1 0x20 DUP4 ADD SWAP2 POP DUP4 PUSH1 0x20 DUP3 DUP6 ADD ADD GT ISZERO PUSH2 0x1F6E JUMPI PUSH1 0x0 DUP1 REVERT JUMPDEST SWAP3 POP SWAP3 SWAP1 POP JUMP JUMPDEST PUSH1 0x0 PUSH1 0x40 DUP3 DUP5 SUB SLT ISZERO PUSH2 0x1F86 JUMPI DUP1 DUP2 REVERT JUMPDEST PUSH2 0x1F90 PUSH1 0x40 PUSH2 0x2AEB JUMP JUMPDEST SWAP1 POP DUP2 CALLDATALOAD PUSH2 0x1F9D DUP2 PUSH2 0x2BE9 JUMP JUMPDEST DUP2 MSTORE PUSH1 0x20 DUP3 ADD CALLDATALOAD PUSH1 0x1 PUSH1 0x1 PUSH1 0x70 SHL SUB DUP2 AND DUP2 EQ PUSH2 0x1FB9 JUMPI PUSH1 0x0 DUP1 REVERT JUMPDEST PUSH1 0x20 DUP3 ADD MSTORE SWAP3 SWAP2 POP POP JUMP JUMPDEST PUSH1 0x0 PUSH1 0x20 DUP3 DUP5 SUB SLT ISZERO PUSH2 0x1FD5 JUMPI DUP1 DUP2 REVERT JUMPDEST DUP2 CALLDATALOAD PUSH2 0x9B2 DUP2 PUSH2 0x2BE9 JUMP JUMPDEST PUSH1 0x0 DUP1 PUSH1 0x40 DUP4 DUP6 SUB SLT ISZERO PUSH2 0x1FF2 JUMPI DUP1 DUP2 REVERT JUMPDEST DUP3 CALLDATALOAD PUSH2 0x1FFD DUP2 PUSH2 0x2BE9 JUMP JUMPDEST SWAP5 PUSH1 0x20 SWAP4 SWAP1 SWAP4 ADD CALLDATALOAD SWAP4 POP POP POP JUMP JUMPDEST PUSH1 0x0 PUSH1 0x20 DUP3 DUP5 SUB SLT ISZERO PUSH2 0x201C JUMPI DUP1 DUP2 REVERT JUMPDEST DUP2 MLOAD PUSH2 0x9B2 DUP2 PUSH2 0x2BFE JUMP JUMPDEST PUSH1 0x0 DUP1 PUSH1 0x40 DUP4 DUP6 SUB SLT ISZERO PUSH2 0x2039 JUMPI DUP2 DUP3 REVERT JUMPDEST DUP3 MLOAD PUSH2 0x2044 DUP2 PUSH2 0x2BFE JUMP JUMPDEST PUSH1 0x20 DUP5 ADD MLOAD SWAP1 SWAP3 POP PUSH8 0xFFFFFFFFFFFFFFFF DUP1 DUP3 GT ISZERO PUSH2 0x2061 JUMPI DUP3 DUP4 REVERT JUMPDEST DUP2 DUP6 ADD SWAP2 POP DUP6 PUSH1 0x1F DUP4 ADD SLT PUSH2 0x2074 JUMPI DUP3 DUP4 REVERT JUMPDEST DUP2 MLOAD DUP2 DUP2 GT ISZERO PUSH2 0x2082 JUMPI DUP4 DUP5 REVERT JUMPDEST PUSH2 0x2095 PUSH1 0x1F DUP3 ADD PUSH1 0x1F NOT AND PUSH1 0x20 ADD PUSH2 0x2AEB JUMP JUMPDEST SWAP2 POP DUP1 DUP3 MSTORE DUP7 PUSH1 0x20 DUP3 DUP6 ADD ADD GT ISZERO PUSH2 0x20AB JUMPI DUP4 DUP5 REVERT JUMPDEST PUSH2 0x20BC DUP2 PUSH1 0x20 DUP5 ADD PUSH1 0x20 DUP7 ADD PUSH2 0x2B12 JUMP JUMPDEST POP DUP1 SWAP3 POP POP POP SWAP3 POP SWAP3 SWAP1 POP JUMP JUMPDEST PUSH1 0x0 DUP1 PUSH1 0x40 DUP4 DUP6 SUB SLT ISZERO PUSH2 0x20DB JUMPI DUP2 DUP3 REVERT JUMPDEST DUP3 CALLDATALOAD SWAP2 POP PUSH1 0x20 DUP4 ADD CALLDATALOAD PUSH2 0x20ED DUP2 PUSH2 0x2BE9 JUMP JUMPDEST DUP1 SWAP2 POP POP SWAP3 POP SWAP3 SWAP1 POP JUMP JUMPDEST PUSH1 0x0 PUSH1 0x80 DUP3 DUP5 SUB SLT ISZERO PUSH2 0x2109 JUMPI DUP1 DUP2 REVERT JUMPDEST PUSH2 0x2113 PUSH1 0x80 PUSH2 0x2AEB JUMP JUMPDEST DUP3 CALLDATALOAD PUSH2 0x211E DUP2 PUSH2 0x2BE9 JUMP JUMPDEST DUP2 MSTORE PUSH1 0x20 DUP4 ADD CALLDATALOAD PUSH2 0x212E DUP2 PUSH2 0x2C0C JUMP JUMPDEST PUSH1 0x20 DUP3 ADD MSTORE PUSH1 0x40 DUP4 ADD CALLDATALOAD PUSH2 0x2141 DUP2 PUSH2 0x2C0C JUMP JUMPDEST PUSH1 0x40 DUP3 ADD MSTORE PUSH1 0x60 DUP4 ADD CALLDATALOAD PUSH2 0x2154 DUP2 PUSH2 0x2C21 JUMP JUMPDEST PUSH1 0x60 DUP3 ADD MSTORE SWAP4 SWAP3 POP POP POP JUMP JUMPDEST PUSH1 0x0 PUSH1 0x80 DUP3 DUP5 SUB SLT ISZERO PUSH2 0x2171 JUMPI DUP1 DUP2 REVERT JUMPDEST PUSH2 0x217B PUSH1 0x80 PUSH2 0x2AEB JUMP JUMPDEST DUP3 MLOAD PUSH2 0x2186 DUP2 PUSH2 0x2BE9 JUMP JUMPDEST DUP2 MSTORE PUSH1 0x20 DUP4 ADD MLOAD PUSH2 0x2196 DUP2 PUSH2 0x2C0C JUMP JUMPDEST PUSH1 0x20 DUP3 ADD MSTORE PUSH1 0x40 DUP4 ADD MLOAD PUSH2 0x21A9 DUP2 PUSH2 0x2C0C JUMP JUMPDEST PUSH1 0x40 DUP3 ADD MSTORE PUSH1 0x60 DUP4 ADD MLOAD PUSH2 0x2154 DUP2 PUSH2 0x2C21 JUMP JUMPDEST PUSH1 0x0 DUP1 PUSH1 0x0 DUP1 DUP5 DUP7 SUB PUSH2 0x120 DUP2 SLT ISZERO PUSH2 0x21D3 JUMPI DUP3 DUP4 REVERT JUMPDEST PUSH1 0xE0 DUP2 SLT ISZERO PUSH2 0x21E0 JUMPI DUP3 DUP4 REVERT JUMPDEST POP PUSH2 0x21EB PUSH1 0xA0 PUSH2 0x2AEB JUMP JUMPDEST DUP6 CALLDATALOAD PUSH2 0x21F6 DUP2 PUSH2 0x2C0C JUMP JUMPDEST DUP2 MSTORE PUSH1 0x20 DUP7 ADD CALLDATALOAD PUSH2 0x2206 DUP2 PUSH2 0x2C0C JUMP JUMPDEST PUSH1 0x20 DUP3 ADD MSTORE PUSH1 0x40 DUP7 ADD CALLDATALOAD PUSH2 0x2219 DUP2 PUSH2 0x2BE9 JUMP JUMPDEST PUSH1 0x40 DUP3 ADD MSTORE PUSH2 0x222B DUP8 PUSH1 0x60 DUP9 ADD PUSH2 0x1F75 JUMP JUMPDEST PUSH1 0x60 DUP3 ADD MSTORE PUSH2 0x223D DUP8 PUSH1 0xA0 DUP9 ADD PUSH2 0x1F75 JUMP JUMPDEST PUSH1 0x80 DUP3 ADD MSTORE SWAP4 POP PUSH2 0x2251 DUP7 PUSH1 0xE0 DUP8 ADD PUSH2 0x1F23 JUMP JUMPDEST SWAP3 POP PUSH2 0x100 DUP6 ADD CALLDATALOAD PUSH8 0xFFFFFFFFFFFFFFFF DUP2 GT ISZERO PUSH2 0x226D JUMPI DUP3 DUP4 REVERT JUMPDEST PUSH2 0x2279 DUP8 DUP3 DUP9 ADD PUSH2 0x1F2E JUMP JUMPDEST SWAP6 SWAP9 SWAP5 SWAP8 POP SWAP6 POP POP POP POP JUMP JUMPDEST PUSH1 0x0 PUSH1 0x20 DUP3 DUP5 SUB SLT ISZERO PUSH2 0x2296 JUMPI DUP1 DUP2 REVERT JUMPDEST DUP2 CALLDATALOAD PUSH1 0x1 PUSH1 0x1 PUSH1 0x70 SHL SUB DUP2 AND DUP2 EQ PUSH2 0x9B2 JUMPI DUP2 DUP3 REVERT JUMPDEST PUSH1 0x0 PUSH1 0x20 DUP3 DUP5 SUB SLT ISZERO PUSH2 0x22BD JUMPI DUP1 DUP2 REVERT JUMPDEST DUP2 CALLDATALOAD PUSH2 0x9B2 DUP2 PUSH2 0x2C0C JUMP JUMPDEST PUSH1 0x0 PUSH1 0x20 DUP3 DUP5 SUB SLT ISZERO PUSH2 0x22D9 JUMPI DUP1 DUP2 REVERT JUMPDEST POP MLOAD SWAP2 SWAP1 POP JUMP JUMPDEST PUSH1 0x0 PUSH1 0x20 DUP3 DUP5 SUB SLT ISZERO PUSH2 0x22F1 JUMPI DUP1 DUP2 REVERT JUMPDEST DUP2 CALLDATALOAD PUSH2 0x9B2 DUP2 PUSH2 0x2C21 JUMP JUMPDEST PUSH1 0x0 DUP2 MLOAD DUP1 DUP5 MSTORE PUSH2 0x2314 DUP2 PUSH1 0x20 DUP7 ADD PUSH1 0x20 DUP7 ADD PUSH2 0x2B12 JUMP JUMPDEST PUSH1 0x1F ADD PUSH1 0x1F NOT AND SWAP3 SWAP1 SWAP3 ADD PUSH1 0x20 ADD SWAP3 SWAP2 POP POP JUMP JUMPDEST DUP1 MLOAD PUSH1 0x1 PUSH1 0x1 PUSH1 0xA0 SHL SUB AND DUP3 MSTORE PUSH1 0x20 DUP1 DUP3 ADD MLOAD PUSH1 0x1 PUSH1 0x1 PUSH1 0x80 SHL SUB SWAP1 DUP2 AND SWAP2 DUP5 ADD SWAP2 SWAP1 SWAP2 MSTORE PUSH1 0x40 DUP1 DUP4 ADD MLOAD SWAP1 SWAP2 AND SWAP1 DUP4 ADD MSTORE PUSH1 0x60 SWAP1 DUP2 ADD MLOAD PUSH1 0xFF AND SWAP2 ADD MSTORE JUMP JUMPDEST DUP1 MLOAD PUSH1 0x1 PUSH1 0x1 PUSH1 0xA0 SHL SUB AND DUP3 MSTORE PUSH1 0x20 SWAP1 DUP2 ADD MLOAD PUSH1 0x1 PUSH1 0x1 PUSH1 0x70 SHL SUB AND SWAP2 ADD MSTORE JUMP JUMPDEST PUSH1 0x0 DUP3 MLOAD PUSH2 0x239B DUP2 DUP5 PUSH1 0x20 DUP8 ADD PUSH2 0x2B12 JUMP JUMPDEST SWAP2 SWAP1 SWAP2 ADD SWAP3 SWAP2 POP POP JUMP JUMPDEST PUSH1 0x1 PUSH1 0x1 PUSH1 0xA0 SHL SUB SWAP2 SWAP1 SWAP2 AND DUP2 MSTORE PUSH1 0x20 ADD SWAP1 JUMP JUMPDEST PUSH1 0x1 PUSH1 0x1 PUSH1 0xA0 SHL SUB SWAP3 DUP4 AND DUP2 MSTORE SWAP2 AND PUSH1 0x20 DUP3 ADD MSTORE PUSH1 0x40 ADD SWAP1 JUMP JUMPDEST PUSH1 0x1 PUSH1 0x1 PUSH1 0xA0 SHL SUB SWAP4 DUP5 AND DUP2 MSTORE SWAP2 SWAP1 SWAP3 AND PUSH1 0x20 DUP3 ADD MSTORE PUSH1 0x40 DUP2 ADD SWAP2 SWAP1 SWAP2 MSTORE PUSH1 0x60 ADD SWAP1 JUMP JUMPDEST PUSH1 0x1 PUSH1 0x1 PUSH1 0xA0 SHL SUB SWAP3 SWAP1 SWAP3 AND DUP3 MSTORE PUSH1 0x20 DUP3 ADD MSTORE PUSH1 0x40 ADD SWAP1 JUMP JUMPDEST SWAP1 ISZERO ISZERO DUP2 MSTORE PUSH1 0x20 ADD SWAP1 JUMP JUMPDEST SWAP1 DUP2 MSTORE PUSH1 0x20 ADD SWAP1 JUMP JUMPDEST PUSH1 0x0 PUSH1 0x20 DUP3 MSTORE PUSH2 0x9B2 PUSH1 0x20 DUP4 ADD DUP5 PUSH2 0x22FC JUMP JUMPDEST PUSH1 0x20 DUP1 DUP3 MSTORE PUSH1 0x1C SWAP1 DUP3 ADD MSTORE PUSH32 0x496E73756666696369656E74206F75747075742070726F647563656400000000 PUSH1 0x40 DUP3 ADD MSTORE PUSH1 0x60 ADD SWAP1 JUMP JUMPDEST PUSH1 0x20 DUP1 DUP3 MSTORE PUSH1 0x2B SWAP1 DUP3 ADD MSTORE PUSH32 0x417474656D7074696E6720746F2072652D656E7465722066756E6374696F6E20 PUSH1 0x40 DUP3 ADD MSTORE PUSH11 0x7265637572736976656C79 PUSH1 0xA8 SHL PUSH1 0x60 DUP3 ADD MSTORE PUSH1 0x80 ADD SWAP1 JUMP JUMPDEST PUSH1 0x20 DUP1 DUP3 MSTORE PUSH1 0x1D SWAP1 DUP3 ADD MSTORE PUSH32 0x4D75737420666972737420726571756573742061207769746864726177000000 PUSH1 0x40 DUP3 ADD MSTORE PUSH1 0x60 ADD SWAP1 JUMP JUMPDEST PUSH1 0x20 DUP1 DUP3 MSTORE PUSH1 0x1B SWAP1 DUP3 ADD MSTORE PUSH32 0x536166654D6174683A206164646974696F6E206F766572666C6F770000000000 PUSH1 0x40 DUP3 ADD MSTORE PUSH1 0x60 ADD SWAP1 JUMP JUMPDEST PUSH1 0x20 DUP1 DUP3 MSTORE PUSH1 0x1E SWAP1 DUP3 ADD MSTORE PUSH32 0x496E73756666696369656E742067617320746F2070617920616D6F756E740000 PUSH1 0x40 DUP3 ADD MSTORE PUSH1 0x60 ADD SWAP1 JUMP JUMPDEST PUSH1 0x20 DUP1 DUP3 MSTORE PUSH1 0x16 SWAP1 DUP3 ADD MSTORE PUSH22 0x496E70757420746F6B656E73206E6F74207573656421 PUSH1 0x50 SHL PUSH1 0x40 DUP3 ADD MSTORE PUSH1 0x60 ADD SWAP1 JUMP JUMPDEST PUSH1 0x20 DUP1 DUP3 MSTORE PUSH1 0x25 SWAP1 DUP3 ADD MSTORE PUSH32 0x43616E6E6F7420776974686472617720696E73696465206C6F636B6F75742070 PUSH1 0x40 DUP3 ADD MSTORE PUSH5 0x195C9A5BD9 PUSH1 0xDA SHL PUSH1 0x60 DUP3 ADD MSTORE PUSH1 0x80 ADD SWAP1 JUMP JUMPDEST PUSH1 0x20 DUP1 DUP3 MSTORE PUSH1 0x1E SWAP1 DUP3 ADD MSTORE PUSH32 0x536166654D6174683A207375627472616374696F6E206F766572666C6F770000 PUSH1 0x40 DUP3 ADD MSTORE PUSH1 0x60 ADD SWAP1 JUMP JUMPDEST PUSH1 0x20 DUP1 DUP3 MSTORE PUSH1 0x26 SWAP1 DUP3 ADD MSTORE PUSH32 0x416464726573733A20696E73756666696369656E742062616C616E636520666F PUSH1 0x40 DUP3 ADD MSTORE PUSH6 0x1C8818D85B1B PUSH1 0xD2 SHL PUSH1 0x60 DUP3 ADD MSTORE PUSH1 0x80 ADD SWAP1 JUMP JUMPDEST PUSH1 0x20 DUP1 DUP3 MSTORE PUSH1 0x2E SWAP1 DUP3 ADD MSTORE PUSH32 0x6661696C656420747261646520616374696F6E20646964206E6F742072656675 PUSH1 0x40 DUP3 ADD MSTORE PUSH14 0x6E6420696E7075742066756E6473 PUSH1 0x90 SHL PUSH1 0x60 DUP3 ADD MSTORE PUSH1 0x80 ADD SWAP1 JUMP JUMPDEST PUSH1 0x20 DUP1 DUP3 MSTORE PUSH1 0x1A SWAP1 DUP3 ADD MSTORE PUSH32 0x5573656420746F6F206D616E7920696E70757420746F6B656E73000000000000 PUSH1 0x40 DUP3 ADD MSTORE PUSH1 0x60 ADD SWAP1 JUMP JUMPDEST PUSH1 0x20 DUP1 DUP3 MSTORE PUSH1 0x21 SWAP1 DUP3 ADD MSTORE PUSH32 0x536166654D6174683A206D756C7469706C69636174696F6E206F766572666C6F PUSH1 0x40 DUP3 ADD MSTORE PUSH1 0x77 PUSH1 0xF8 SHL PUSH1 0x60 DUP3 ADD MSTORE PUSH1 0x80 ADD SWAP1 JUMP JUMPDEST PUSH1 0x20 DUP1 DUP3 MSTORE PUSH1 0x21 SWAP1 DUP3 ADD MSTORE PUSH32 0x4E6F2066756E64732070726F766964656420666F7220676173206465706F7369 PUSH1 0x40 DUP3 ADD MSTORE PUSH1 0x1D PUSH1 0xFA SHL PUSH1 0x60 DUP3 ADD MSTORE PUSH1 0x80 ADD SWAP1 JUMP JUMPDEST PUSH1 0x20 DUP1 DUP3 MSTORE PUSH1 0x2B SWAP1 DUP3 ADD MSTORE PUSH32 0x496E73756666696369656E74207370656E6420616C6C6F77616E6365206F6E20 PUSH1 0x40 DUP3 ADD MSTORE PUSH11 0x34B7383ABA103A37B5B2B7 PUSH1 0xA9 SHL PUSH1 0x60 DUP3 ADD MSTORE PUSH1 0x80 ADD SWAP1 JUMP JUMPDEST PUSH1 0x20 DUP1 DUP3 MSTORE PUSH1 0x29 SWAP1 DUP3 ADD MSTORE PUSH32 0x496E73756666696369656E7420696E70757420746F6B656E2062616C616E6365 PUSH1 0x40 DUP3 ADD MSTORE PUSH9 0x20746F207472616465 PUSH1 0xB8 SHL PUSH1 0x60 DUP3 ADD MSTORE PUSH1 0x80 ADD SWAP1 JUMP JUMPDEST PUSH1 0x20 DUP1 DUP3 MSTORE PUSH1 0x9 SWAP1 DUP3 ADD MSTORE PUSH9 0x4E6F742072656C6179 PUSH1 0xB8 SHL PUSH1 0x40 DUP3 ADD MSTORE PUSH1 0x60 ADD SWAP1 JUMP JUMPDEST PUSH1 0x20 DUP1 DUP3 MSTORE PUSH1 0x35 SWAP1 DUP3 ADD MSTORE PUSH32 0x547261646520616374696F6E20646964206E6F74207472616E73666572206F75 PUSH1 0x40 DUP3 ADD MSTORE PUSH21 0x3A383ABA103A37B5B2B739903A37903A3930B232B9 PUSH1 0x59 SHL PUSH1 0x60 DUP3 ADD MSTORE PUSH1 0x80 ADD SWAP1 JUMP JUMPDEST PUSH1 0x20 DUP1 DUP3 MSTORE PUSH1 0x1D SWAP1 DUP3 ADD MSTORE PUSH32 0x416464726573733A2063616C6C20746F206E6F6E2D636F6E7472616374000000 PUSH1 0x40 DUP3 ADD MSTORE PUSH1 0x60 ADD SWAP1 JUMP JUMPDEST PUSH1 0x20 DUP1 DUP3 MSTORE PUSH1 0x1B SWAP1 DUP3 ADD MSTORE PUSH32 0x496E73756666696369656E74206761732074616E6B2066756E64730000000000 PUSH1 0x40 DUP3 ADD MSTORE PUSH1 0x60 ADD SWAP1 JUMP JUMPDEST PUSH1 0x20 DUP1 DUP3 MSTORE PUSH1 0x13 SWAP1 DUP3 ADD MSTORE PUSH19 0x105B1C9958591E481A5B9A5D1A585B1A5E9959 PUSH1 0x6A SHL PUSH1 0x40 DUP3 ADD MSTORE PUSH1 0x60 ADD SWAP1 JUMP JUMPDEST PUSH1 0x20 DUP1 DUP3 MSTORE PUSH1 0x18 SWAP1 DUP3 ADD MSTORE PUSH32 0x43616E6E6F74207769746864726177203020616D6F756E740000000000000000 PUSH1 0x40 DUP3 ADD MSTORE PUSH1 0x60 ADD SWAP1 JUMP JUMPDEST PUSH1 0x20 DUP1 DUP3 MSTORE PUSH1 0x2A SWAP1 DUP3 ADD MSTORE PUSH32 0x5361666545524332303A204552433230206F7065726174696F6E20646964206E PUSH1 0x40 DUP3 ADD MSTORE PUSH10 0x1BDD081CDD58D8D95959 PUSH1 0xB2 SHL PUSH1 0x60 DUP3 ADD MSTORE PUSH1 0x80 ADD SWAP1 JUMP JUMPDEST PUSH1 0x20 DUP1 DUP3 MSTORE PUSH1 0x9 SWAP1 DUP3 ADD MSTORE PUSH9 0x2737BA1030B236B4B7 PUSH1 0xB9 SHL PUSH1 0x40 DUP3 ADD MSTORE PUSH1 0x60 ADD SWAP1 JUMP JUMPDEST SWAP3 DUP4 MSTORE PUSH1 0x20 DUP4 ADD SWAP2 SWAP1 SWAP2 MSTORE PUSH1 0x1 PUSH1 0x1 PUSH1 0xA0 SHL SUB AND PUSH1 0x40 DUP3 ADD MSTORE PUSH1 0x60 ADD SWAP1 JUMP JUMPDEST PUSH1 0x80 DUP2 ADD PUSH2 0x4DC DUP3 DUP5 PUSH2 0x2328 JUMP JUMPDEST DUP3 DUP2 MSTORE PUSH1 0xA0 DUP2 ADD PUSH2 0x9B2 PUSH1 0x20 DUP4 ADD DUP5 PUSH2 0x2328 JUMP JUMPDEST SWAP2 DUP3 MSTORE PUSH1 0x1 PUSH1 0x1 PUSH1 0xA0 SHL SUB AND PUSH1 0x20 DUP3 ADD MSTORE PUSH1 0x40 ADD SWAP1 JUMP JUMPDEST PUSH1 0x0 PUSH2 0x100 PUSH1 0x1 PUSH1 0x1 PUSH1 0x80 SHL SUB DUP1 DUP8 MLOAD AND DUP5 MSTORE DUP1 PUSH1 0x20 DUP9 ADD MLOAD AND PUSH1 0x20 DUP6 ADD MSTORE POP PUSH1 0x1 DUP1 PUSH1 0xA0 SHL SUB PUSH1 0x40 DUP8 ADD MLOAD AND PUSH1 0x40 DUP5 ADD MSTORE PUSH1 0x60 DUP7 ADD MLOAD PUSH2 0x2A3E PUSH1 0x60 DUP6 ADD DUP3 PUSH2 0x2368 JUMP JUMPDEST POP PUSH1 0x80 DUP7 ADD MLOAD PUSH2 0x2A51 PUSH1 0xA0 DUP6 ADD DUP3 PUSH2 0x2368 JUMP JUMPDEST POP DUP1 PUSH1 0xE0 DUP5 ADD MSTORE DUP4 DUP2 DUP5 ADD MSTORE POP PUSH2 0x120 DUP4 DUP6 DUP3 DUP6 ADD CALLDATACOPY DUP3 DUP5 ADD DUP2 ADD SWAP2 SWAP1 SWAP2 MSTORE PUSH1 0x1F SWAP1 SWAP3 ADD PUSH1 0x1F NOT AND ADD ADD SWAP3 SWAP2 POP POP JUMP JUMPDEST PUSH1 0x1 PUSH1 0x1 PUSH1 0x70 SHL SUB SWAP2 SWAP1 SWAP2 AND DUP2 MSTORE PUSH1 0x20 ADD SWAP1 JUMP JUMPDEST PUSH1 0x1 PUSH1 0x1 PUSH1 0x80 SHL SUB SWAP2 SWAP1 SWAP2 AND DUP2 MSTORE PUSH1 0x20 ADD SWAP1 JUMP JUMPDEST PUSH1 0x0 DUP4 DUP3 MSTORE PUSH1 0x40 PUSH1 0x20 DUP4 ADD MSTORE PUSH2 0x1DCC PUSH1 0x40 DUP4 ADD DUP5 PUSH2 0x22FC JUMP JUMPDEST SWAP4 DUP5 MSTORE PUSH1 0x20 DUP5 ADD SWAP3 SWAP1 SWAP3 MSTORE PUSH1 0x40 DUP4 ADD MSTORE PUSH1 0x60 DUP3 ADD MSTORE PUSH1 0x80 ADD SWAP1 JUMP JUMPDEST PUSH1 0xFF SWAP2 SWAP1 SWAP2 AND DUP2 MSTORE PUSH1 0x20 ADD SWAP1 JUMP JUMPDEST PUSH1 0x40 MLOAD DUP2 DUP2 ADD PUSH8 0xFFFFFFFFFFFFFFFF DUP2 GT DUP3 DUP3 LT OR ISZERO PUSH2 0x2B0A JUMPI PUSH1 0x0 DUP1 REVERT JUMPDEST PUSH1 0x40 MSTORE SWAP2 SWAP1 POP JUMP JUMPDEST PUSH1 0x0 JUMPDEST DUP4 DUP2 LT ISZERO PUSH2 0x2B2D JUMPI DUP2 DUP2 ADD MLOAD DUP4 DUP3 ADD MSTORE PUSH1 0x20 ADD PUSH2 0x2B15 JUMP JUMPDEST DUP4 DUP2 GT ISZERO PUSH2 0x1B84 JUMPI POP POP PUSH1 0x0 SWAP2 ADD MSTORE JUMP JUMPDEST PUSH1 0xE0 SHR SWAP1 JUMP JUMPDEST PUSH1 0x0 PUSH1 0x44 RETURNDATASIZE LT ISZERO PUSH2 0x2B54 JUMPI PUSH2 0x799 JUMP JUMPDEST PUSH1 0x4 DUP2 DUP3 RETURNDATACOPY PUSH4 0x8C379A0 PUSH2 0x2B68 DUP3 MLOAD PUSH2 0x2B3E JUMP JUMPDEST EQ PUSH2 0x2B72 JUMPI PUSH2 0x799 JUMP JUMPDEST PUSH1 0x40 MLOAD RETURNDATASIZE PUSH1 0x3 NOT ADD PUSH1 0x4 DUP3 RETURNDATACOPY DUP1 MLOAD RETURNDATASIZE PUSH8 0xFFFFFFFFFFFFFFFF DUP2 PUSH1 0x24 DUP5 ADD GT DUP2 DUP5 GT OR ISZERO PUSH2 0x2BA2 JUMPI POP POP POP POP PUSH2 0x799 JUMP JUMPDEST DUP3 DUP5 ADD SWAP3 POP DUP3 MLOAD SWAP2 POP DUP1 DUP3 GT ISZERO PUSH2 0x2BBC JUMPI POP POP POP POP PUSH2 0x799 JUMP JUMPDEST POP RETURNDATASIZE DUP4 ADD PUSH1 0x20 DUP3 DUP5 ADD ADD GT ISZERO PUSH2 0x2BD4 JUMPI POP POP POP PUSH2 0x799 JUMP JUMPDEST PUSH1 0x1F ADD PUSH1 0x1F NOT AND DUP2 ADD PUSH1 0x20 ADD PUSH1 0x40 MSTORE SWAP2 POP POP SWAP1 JUMP JUMPDEST PUSH1 0x1 PUSH1 0x1 PUSH1 0xA0 SHL SUB DUP2 AND DUP2 EQ PUSH2 0x5F9 JUMPI PUSH1 0x0 DUP1 REVERT JUMPDEST DUP1 ISZERO ISZERO DUP2 EQ PUSH2 0x5F9 JUMPI PUSH1 0x0 DUP1 REVERT JUMPDEST PUSH1 0x1 PUSH1 0x1 PUSH1 0x80 SHL SUB DUP2 AND DUP2 EQ PUSH2 0x5F9 JUMPI PUSH1 0x0 DUP1 REVERT JUMPDEST PUSH1 0xFF DUP2 AND DUP2 EQ PUSH2 0x5F9 JUMPI PUSH1 0x0 DUP1 REVERT INVALID LOG4 SWAP9 SMOD KECCAK256 0x5C 0xE4 0xD3 SSTORE MULMOD 0x2E CREATE2 0xA8 LOG1 DUP16 JUMP 0xE8 SWAP2 EXTCODECOPY DELEGATECALL LOG2 ADD 0xFB 0xE2 DUP8 DUP3 JUMPDEST MULMOD JUMP SWAP4 0xC2 OR PUSH22 0xA26469706673582212205769323E4D15F29FFE1314C1 SWAP4 0xC1 0xD4 0xE5 0xEC 0xF8 SWAP14 0xDF DUP6 0xDC 0xDF 0xAC CALLER PUSH31 0x64A19083DBAA64736F6C634300070000330000000000000000000000000000 "
        },
        "gasEstimates": {
          "creation": {
            "codeDepositCost": "2279600",
            "executionCost": "2441",
            "totalCost": "2282041"
          },
          "external": {
            "ACTION_ROLE()": "340",
            "ADMIN_ROLE()": "infinite",
            "PAUSER_ROLE()": "272",
            "RELAY_ROLE()": "252",
            "addRole(bytes32,address)": "infinite",
            "availableForUse(address)": "infinite",
            "availableGasForWithdraw(address)": "infinite",
            "depositGas()": "23753",
            "fill((uint128,uint128,address,(address,uint112),(address,uint112)),address,bytes)": "infinite",
            "getConfig()": "infinite",
            "getDevTeam()": "1194",
            "getLockoutBlocks()": "1132",
            "getMinFee()": "1179",
            "getPenaltyFee()": "1173",
            "hasEnoughGas(address,uint256)": "3224",
            "hasRole(bytes32,address)": "infinite",
            "initialize((address,uint128,uint128,uint8))": "infinite",
            "requestWithdrawGas(uint112)": "infinite",
            "revokeRole(bytes32,address)": "infinite",
            "setConfig((address,uint128,uint128,uint8))": "infinite",
            "setDevTeam(address)": "21287",
            "setLockoutBlocks(uint8)": "21256",
            "setMinFee(uint128)": "21279",
            "setPenaltyFee(uint128)": "21244",
            "thawingFunds(address)": "infinite",
            "withdrawGas(uint112)": "infinite"
          },
          "internal": {
            "_canSpend(struct Types.Order memory)": "infinite",
            "_hasFunds(struct Types.Order memory,uint256)": "infinite",
            "_hasTokens(struct Types.Order memory)": "infinite",
            "_postActions(struct Types.Order memory,bool,string memory,struct Settlement.BalTracking memory,uint256)": "infinite",
            "_postCheck(struct Types.Order memory,struct Settlement.BalTracking memory,bool)": "infinite",
            "_preActions(struct Types.Order memory,contract IDexRouter)": "infinite",
            "_preCheck(struct Types.Order memory)": "infinite",
            "performFill(struct Types.Order memory,contract IDexRouter,bytes calldata)": "infinite"
          }
        },
        "methodIdentifiers": {
          "ACTION_ROLE()": "27054df6",
          "ADMIN_ROLE()": "75b238fc",
          "PAUSER_ROLE()": "e63ab1e9",
          "RELAY_ROLE()": "04421823",
          "addRole(bytes32,address)": "e959b38a",
          "availableForUse(address)": "1eab21b9",
          "availableGasForWithdraw(address)": "12d20441",
          "depositGas()": "ae9bb692",
          "fill((uint128,uint128,address,(address,uint112),(address,uint112)),address,bytes)": "849ef8ce",
          "getConfig()": "c3f909d4",
          "getDevTeam()": "6a9447b5",
          "getLockoutBlocks()": "b1cf4b0c",
          "getMinFee()": "5cf34bcf",
          "getPenaltyFee()": "77550610",
          "hasEnoughGas(address,uint256)": "75e9aac8",
          "hasRole(bytes32,address)": "91d14854",
          "initialize((address,uint128,uint128,uint8))": "3f51e182",
          "requestWithdrawGas(uint112)": "30f205d0",
          "revokeRole(bytes32,address)": "d547741f",
          "setConfig((address,uint128,uint128,uint8))": "334c3c65",
          "setDevTeam(address)": "40ee75bb",
          "setLockoutBlocks(uint8)": "8d3403fd",
          "setMinFee(uint128)": "f102669b",
          "setPenaltyFee(uint128)": "4e1c6829",
          "thawingFunds(address)": "0f306725",
          "withdrawGas(uint112)": "fc8926d3"
        }
      },
      "storageLayout": {
        "storage": [],
        "types": null
      },
      "userdoc": {
        "kind": "user",
        "methods": {
          "availableForUse(address)": {
            "notice": "Determine the amount of eth available to use to pay for fees. This includes  any thawing funds that have not yet reached the thaw expiration block."
          },
          "availableGasForWithdraw(address)": {
            "notice": "Determine how much of the gas tank balance is available for withdraw after having  waited a sufficient thaw period."
          },
          "depositGas()": {
            "notice": "Deposit funds into the gas tank"
          },
          "fill((uint128,uint128,address,(address,uint112),(address,uint112)),address,bytes)": {
            "notice": "Fill an order using the given router and forwarded call data."
          },
          "getConfig()": {
            "notice": "Get the current configuration struct"
          },
          "getDevTeam()": {
            "notice": "Get the dev team wallet/multi-sig address"
          },
          "getLockoutBlocks()": {
            "notice": "Get the number of blocks to wait before trader can withdraw gas tank funds  marked for withdraw."
          },
          "getMinFee()": {
            "notice": "Get the minimum fee required for all orders"
          },
          "getPenaltyFee()": {
            "notice": "Get the penalty fee to asses when trader removes tokens or funds after Dexible submits orders on-chain."
          },
          "requestWithdrawGas(uint112)": {
            "notice": "Request that funds be thawed and prepared for withdraw after thaw period expires."
          },
          "setConfig((address,uint128,uint128,uint8))": {
            "notice": "Set the current configuration as a bulk setting"
          },
          "setDevTeam(address)": {
            "notice": "Set the dev team wallet/multi-sig address"
          },
          "setLockoutBlocks(uint8)": {
            "notice": "Set the number of blocks to wait before thawed withdraws are allowed"
          },
          "setMinFee(uint128)": {
            "notice": "Set the minimum fee for an order execution"
          },
          "setPenaltyFee(uint128)": {
            "notice": "Set the penalty assessed when a user removes tokens or gas tank funds"
          },
          "thawingFunds(address)": {
            "notice": "Determine the amount of funds actively awaiting the thaw period."
          },
          "withdrawGas(uint112)": {
            "notice": "Withdraw fully thawed funds."
          }
        },
        "version": 1
      }
    }
  }
}