{
  "address": "0x38f87b748B2aa4D844d2DbEC8DE68C1E0cD7c405",
  "abi": [
    {
      "inputs": [
        {
          "components": [
            {
              "internalType": "contract IERC20Metadata",
              "name": "feeToken",
              "type": "address"
            },
            {
              "internalType": "uint256",
              "name": "gasEstimate",
              "type": "uint256"
            },
            {
              "internalType": "uint256",
              "name": "gasPrice",
              "type": "uint256"
            },
            {
              "internalType": "uint256",
              "name": "feeAmountUSD",
              "type": "uint256"
            },
            {
              "internalType": "uint256",
              "name": "feeTokenETHPrice",
              "type": "uint256"
            },
            {
              "internalType": "uint256",
              "name": "ethUSDPrice",
              "type": "uint256"
            }
          ],
          "internalType": "struct FeeCalculator.FeeData",
          "name": "data",
          "type": "tuple"
        }
      ],
      "name": "computeFees",
      "outputs": [
        {
          "internalType": "uint256",
          "name": "dexibleFee",
          "type": "uint256"
        },
        {
          "internalType": "uint256",
          "name": "gasFee",
          "type": "uint256"
        },
        {
          "internalType": "uint256",
          "name": "totalFees",
          "type": "uint256"
        }
      ],
      "stateMutability": "view",
      "type": "function"
    }
  ],
  "transactionHash": "0xfd90fcb7fbc266e26fe34e4069a48d38635cb0f18d6b4d8cf3eebb38234aa5a2",
  "args": [],
  "solcInputHash": "de27f886468c32da916e9b1366f1a245",
  "bytecode": "0x608060405234801561001057600080fd5b50610579806100206000396000f3fe608060405234801561001057600080fd5b506004361061002b5760003560e01c806399ae390d14610030575b600080fd5b61004361003e366004610379565b61005b565b6040516100529392919061052d565b60405180910390f35b600080600080846020015185604001510290506100a260405180604001604052806012815260200171115cdd1a5b585d19590819d85cc818dbdcdd60721b8152508261026c565b600085600001516001600160a01b031663313ce5676040518163ffffffff1660e01b815260040160206040518083038186803b1580156100e157600080fd5b505afa1580156100f5573d6000803e3d6000fd5b505050506040513d601f19601f820116820180604052508101906101199190610402565b60ff169050610142866080015161013c83600a0a856102b590919063ffffffff16565b90610301565b93506101836040518060400160405280601881526020017f47617320706f7274696f6e20696e2066656520746f6b656e00000000000000008152508561026c565b60006101a087608001518860a001516102b590919063ffffffff16565b90506101da60405180604001604052806016815260200175119959481d1bdad95b881c1c9a58d9481a5b881554d160521b8152508261026c565b6101fb8161013c84602401600a0a8a606001516102b590919063ffffffff16565b955061022a6040518060400160405280600b81526020016a44657869626c652066656560a81b8152508761026c565b6102348686610333565b93506102626040518060400160405280600a815260200169546f74616c206665657360b01b8152508561026c565b5050509193909250565b6102b18282604051602401610282929190610423565b60408051601f198184030181529190526020810180516001600160e01b03166309710a9d60e41b179052610358565b5050565b6000826102c4575060006102fb565b828202828482816102d157fe5b04146102f85760405162461bcd60e51b81526004016102ef906104ec565b60405180910390fd5b90505b92915050565b60008082116103225760405162461bcd60e51b81526004016102ef906104b5565b81838161032b57fe5b049392505050565b6000828201838110156102f85760405162461bcd60e51b81526004016102ef9061047e565b80516a636f6e736f6c652e6c6f67602083016000808483855afa5050505050565b600060c0828403121561038a578081fd5b60405160c0810181811067ffffffffffffffff821117156103a9578283fd5b60405282356001600160a01b03811681146103c2578283fd5b808252506020830135602082015260408301356040820152606083013560608201526080830135608082015260a083013560a08201528091505092915050565b600060208284031215610413578081fd5b815160ff811681146102f8578182fd5b6000604082528351806040840152815b818110156104505760208187018101516060868401015201610433565b818111156104615782606083860101525b50602083019390935250601f91909101601f191601606001919050565b6020808252601b908201527f536166654d6174683a206164646974696f6e206f766572666c6f770000000000604082015260600190565b6020808252601a908201527f536166654d6174683a206469766973696f6e206279207a65726f000000000000604082015260600190565b60208082526021908201527f536166654d6174683a206d756c7469706c69636174696f6e206f766572666c6f6040820152607760f81b606082015260800190565b928352602083019190915260408201526060019056fea264697066735822122049511fe3e918886aa498910566d6741e4fb5b353a8442c36ca7d0d5f77dc64b064736f6c63430007000033",
  "devdoc": {
    "kind": "dev",
    "methods": {},
    "version": 1
  },
  "userdoc": {
    "kind": "user",
    "methods": {},
    "version": 1
  },
  "storageLayout": {
    "storage": [],
    "types": null
  }
}