{
  "address": "0x8101Fc8CC739300f8a404aeDac6958839a53C62b",
  "abi": [
    {
      "inputs": [],
      "name": "ACTION_ROLE",
      "outputs": [
        {
          "internalType": "bytes32",
          "name": "",
          "type": "bytes32"
        }
      ],
      "stateMutability": "view",
      "type": "function"
    },
    {
      "inputs": [],
      "name": "ADMIN_ROLE",
      "outputs": [
        {
          "internalType": "bytes32",
          "name": "",
          "type": "bytes32"
        }
      ],
      "stateMutability": "view",
      "type": "function"
    },
    {
      "inputs": [],
      "name": "PAUSER_ROLE",
      "outputs": [
        {
          "internalType": "bytes32",
          "name": "",
          "type": "bytes32"
        }
      ],
      "stateMutability": "view",
      "type": "function"
    },
    {
      "inputs": [],
      "name": "RELAY_ROLE",
      "outputs": [
        {
          "internalType": "bytes32",
          "name": "",
          "type": "bytes32"
        }
      ],
      "stateMutability": "view",
      "type": "function"
    },
    {
      "inputs": [
        {
          "internalType": "bytes32",
          "name": "role",
          "type": "bytes32"
        },
        {
          "internalType": "address",
          "name": "actor",
          "type": "address"
        }
      ],
      "name": "addRole",
      "outputs": [],
      "stateMutability": "nonpayable",
      "type": "function"
    },
    {
      "inputs": [
        {
          "components": [
            {
              "internalType": "address",
              "name": "trader",
              "type": "address"
            },
            {
              "internalType": "contract IERC20",
              "name": "feeToken",
              "type": "address"
            },
            {
              "internalType": "uint256",
              "name": "feeTokenETHPrice",
              "type": "uint256"
            },
            {
              "internalType": "uint256",
              "name": "ethUSDPrice",
              "type": "uint256"
            },
            {
              "internalType": "uint256",
              "name": "gasEstimate",
              "type": "uint256"
            },
            {
              "components": [
                {
                  "internalType": "contract IERC20",
                  "name": "token",
                  "type": "address"
                },
                {
                  "internalType": "uint112",
                  "name": "amount",
                  "type": "uint112"
                }
              ],
              "internalType": "struct Types.TokenAmount",
              "name": "input",
              "type": "tuple"
            },
            {
              "components": [
                {
                  "internalType": "contract IERC20",
                  "name": "token",
                  "type": "address"
                },
                {
                  "internalType": "uint112",
                  "name": "amount",
                  "type": "uint112"
                }
              ],
              "internalType": "struct Types.TokenAmount",
              "name": "output",
              "type": "tuple"
            }
          ],
          "internalType": "struct Types.Order",
          "name": "order",
          "type": "tuple"
        },
        {
          "internalType": "bytes",
          "name": "orderCallData",
          "type": "bytes"
        }
      ],
      "name": "fill",
      "outputs": [
        {
          "internalType": "bool",
          "name": "success",
          "type": "bool"
        },
        {
          "internalType": "string",
          "name": "failReason",
          "type": "string"
        }
      ],
      "stateMutability": "nonpayable",
      "type": "function"
    },
    {
      "inputs": [
        {
          "internalType": "bytes32",
          "name": "role",
          "type": "bytes32"
        },
        {
          "internalType": "address",
          "name": "actor",
          "type": "address"
        }
      ],
      "name": "hasRole",
      "outputs": [
        {
          "internalType": "bool",
          "name": "",
          "type": "bool"
        }
      ],
      "stateMutability": "view",
      "type": "function"
    },
    {
      "inputs": [],
      "name": "initialize",
      "outputs": [],
      "stateMutability": "nonpayable",
      "type": "function"
    },
    {
      "inputs": [
        {
          "internalType": "bytes32",
          "name": "role",
          "type": "bytes32"
        },
        {
          "internalType": "address",
          "name": "actor",
          "type": "address"
        }
      ],
      "name": "revokeRole",
      "outputs": [],
      "stateMutability": "nonpayable",
      "type": "function"
    },
    {
      "inputs": [
        {
          "internalType": "address",
          "name": "oldRelay",
          "type": "address"
        },
        {
          "internalType": "address",
          "name": "newRelay",
          "type": "address"
        }
      ],
      "name": "swapRelay",
      "outputs": [],
      "stateMutability": "nonpayable",
      "type": "function"
    },
    {
      "stateMutability": "payable",
      "type": "receive"
    }
  ],
  "transactionHash": "0x3a00376c0cc863881f7a33064534f7d35fcbd02e3496cb7c9cad30cfb42cadcb",
  "args": [],
  "solcInputHash": "62cb41be5d77ba81a0b63a9d917a0272",
  "bytecode": "0x608060405234801561001057600080fd5b506115cc806100206000396000f3fe6080604052600436106100955760003560e01c806391d148541161005957806391d148541461013b578063c13da01814610168578063d547741f14610188578063e63ab1e9146101a8578063e959b38a146101bd5761009c565b806304421823146100a157806327054df6146100cc57806334c57920146100e157806375b238fc1461010f5780638129fc1c146101245761009c565b3661009c57005b600080fd5b3480156100ad57600080fd5b506100b66101dd565b6040516100c391906112cb565b60405180910390f35b3480156100d857600080fd5b506100b6610201565b3480156100ed57600080fd5b506101016100fc366004611148565b610225565b6040516100c39291906112b0565b34801561011b57600080fd5b506100b66108ef565b34801561013057600080fd5b50610139610901565b005b34801561014757600080fd5b5061015b610156366004611108565b610985565b6040516100c391906112a5565b34801561017457600080fd5b506101396101833660046110b0565b610a20565b34801561019457600080fd5b506101396101a3366004611108565b610aaa565b3480156101b457600080fd5b506100b6610af4565b3480156101c957600080fd5b506101396101d8366004611108565b610b18565b7f077a1d526a4ce8a773632ab13b4fbbf1fcc954c3dab26cd27ea0e2a6750da5d781565b7fd95061bdf0c43d77b6cbe1c15072292976244ec8d5012de75baa36e42da4625e81565b6000606081808261023886880188610ffd565b92509250925061025f60405180606001604052806027815260200161155060279139610b58565b6102956040518060400160405280601481526020017311dbda5b99c81d1bc81cddd85c081d185c99d95d60621b81525084610b9e565b6102d46040518060400160405280601781526020017f417070726f76696e6720616c6c6f77616e636520666f7200000000000000000081525083610b9e565b60408051808201909152601581527414ddd85c1c1a5b99c81a5b9c1d5d08185b5bdd5b9d605a1b60208201526103229061031460e08b0160c08c016111cf565b6001600160701b0316610be3565b60006103356101008a0160e08b0161112c565b6001600160a01b03166370a08231306040518263ffffffff1660e01b81526004016103609190611256565b60206040518083038186803b15801561037857600080fd5b505afa15801561038c573d6000803e3d6000fd5b505050506040513d601f19601f820116820180604052508101906103b091906111f6565b90506103f16040518060400160405280601a81526020017f42616c616e6365206f66206f757470757420746f6b656e20623400000000000081525082610be3565b61040160c08a0160a08b0161112c565b6001600160a01b031663095ea7b38460006040518363ffffffff1660e01b815260040161042f92919061126a565b602060405180830381600087803b15801561044957600080fd5b505af115801561045d573d6000803e3d6000fd5b505050506040513d601f19601f8201168201806040525081019061048191906110e8565b61048a57600080fd5b61049a60c08a0160a08b0161112c565b6001600160a01b031663095ea7b3846104b960e08d0160c08e016111cf565b6040518363ffffffff1660e01b81526004016104d6929190611283565b602060405180830381600087803b1580156104f057600080fd5b505af1158015610504573d6000803e3d6000fd5b505050506040513d601f19601f8201168201806040525081019061052891906110e8565b61053157600080fd5b6105686040518060400160405280601581526020017414ddd85c1c1a5b99c81dda5d1a0819d85cdb19599d605a1b8152505a610be3565b6000846001600160a01b03165a84604051610583919061123a565b60006040518083038160008787f1925050503d80600081146105c1576040519150601f19603f3d011682016040523d82523d6000602084013e6105c6565b606091505b505090506105fa6040518060400160405280600e81526020016d047617320616674657220737761760941b8152505a610be3565b806106a05761062e6040518060400160405280600e81526020016d04661696c656420746f20737761760941b815250610b58565b610667604051806040016040528060188152602001772d2d2d2d20454e44205a525820524f55544552202d2d2d2d60401b815250610b58565b60006040518060400160405280601081526020016f14d5d05417d0d0531317d1905253115160821b8152509650965050505050506108e7565b60006106b36101008c0160e08d0161112c565b6001600160a01b03166370a08231306040518263ffffffff1660e01b81526004016106de9190611256565b60206040518083038186803b1580156106f657600080fd5b505afa15801561070a573d6000803e3d6000fd5b505050506040513d601f19601f8201168201806040525081019061072e91906111f6565b905061075f6040518060400160405280600d81526020016c2130b630b731b29030b33a32b960991b81525082610be3565b600061076b8285610c28565b905061079f6040518060400160405280601081526020016f10985b185b98d9481c9958d95a5d995960821b81525082610be3565b6107dd6040518060400160405280600c81526020016b135a5b881c995c5d5a5c995960a21b8152508d60e001602001602081019061031491906111cf565b6107ef6101208d016101008e016111cf565b6001600160701b03168110156108205760405162461bcd60e51b8152600401610817906113b0565b60405180910390fd5b61085261082b610c50565b828e60e0016000016020810190610842919061112c565b6001600160a01b03169190610c54565b610890604051806040016040528060158152602001745472616e7366657272656420726573756c7420746f60581b81525061088b610c50565b610b9e565b6108c9604051806040016040528060188152602001772d2d2d2d20454e44205a525820524f55544552202d2d2d2d60401b815250610b58565b60016040518060200160405280600081525098509850505050505050505b935093915050565b60008051602061157783398151915281565b600061090b610caf565b8054909150610100900460ff16806109255750805460ff16155b6109415760405162461bcd60e51b81526004016108179061141e565b8054610100900460ff1615801561096957815460ff1961ff0019909116610100171660011782555b610971610cd3565b801561098157815461ff00191682555b5050565b600061098f610d9c565b604051630f40931b60e41b8152734D5806D66d4e056d37CCD20133AF8e06A6f5f4e59163f40931b0916109c99190879087906004016114b8565b60206040518083038186803b1580156109e157600080fd5b505af41580156109f5573d6000803e3d6000fd5b505050506040513d601f19601f82011682018060405250810190610a1991906110e8565b9392505050565b610a3a600080516020611577833981519152610156610c50565b610a565760405162461bcd60e51b815260040161081790611495565b610a807f077a1d526a4ce8a773632ab13b4fbbf1fcc954c3dab26cd27ea0e2a6750da5d783610aaa565b6109817f077a1d526a4ce8a773632ab13b4fbbf1fcc954c3dab26cd27ea0e2a6750da5d782610b18565b610ac4600080516020611577833981519152610156610c50565b610ae05760405162461bcd60e51b815260040161081790611495565b6109818282610aed610d9c565b9190610dc0565b7f65d7a28e3265b37a6474929f336521b332c1681b933f6cb9f3376673440d862a81565b610b32600080516020611577833981519152610156610c50565b610b4e5760405162461bcd60e51b815260040161081790611495565b6109818282610def565b610b9b81604051602401610b6c91906112d4565b60408051601f198184030181529190526020810180516001600160e01b031663104c13eb60e21b179052610e03565b50565b6109818282604051602401610bb49291906112e7565b60408051601f198184030181529190526020810180516001600160e01b031663319af33360e01b179052610e03565b6109818282604051602401610bf9929190611311565b60408051601f198184030181529190526020810180516001600160e01b03166309710a9d60e41b179052610e03565b600082821115610c4a5760405162461bcd60e51b815260040161081790611333565b50900390565b3390565b610caa8363a9059cbb60e01b8484604051602401610c7392919061126a565b60408051601f198184030181529190526020810180516001600160e01b03166001600160e01b031990931692909217909152610e24565b505050565b7fd59dd79cfd4373c6c6547848d91fc2ea67c8aec9053f7028828216c5af1d474190565b6000610cdd610caf565b8054909150610100900460ff1680610cf75750805460ff16155b610d135760405162461bcd60e51b81526004016108179061141e565b8054610100900460ff16158015610d3b57815460ff1961ff0019909116610100171660011782555b6000610d45610c50565b9050610d5f60008051602061157783398151915282610def565b610d897f65d7a28e3265b37a6474929f336521b332c1681b933f6cb9f3376673440d862a82610def565b5080156109815750805461ff0019169055565b7f3a83b1278d351a40f18bb9e8e77896e8c1dc812ffaed5ea63e0e837a6dae57e990565b60009182526001909201602090815260408083206001600160a01b03909416835292905220805460ff19169055565b6109818282610dfc610d9c565b9190610eb3565b80516a636f6e736f6c652e6c6f67602083016000808483855afa5050505050565b6060610e79826040518060400160405280602081526020017f5361666545524332303a206c6f772d6c6576656c2063616c6c206661696c6564815250856001600160a01b0316610ee69092919063ffffffff16565b805190915015610caa5780806020019051810190610e9791906110e8565b610caa5760405162461bcd60e51b81526004016108179061144b565b60009182526001928301602090815260408084206001600160a01b0390931684529190529020805460ff19169091179055565b6060610ef58484600085610efd565b949350505050565b606082471015610f1f5760405162461bcd60e51b81526004016108179061136a565b610f2885610fbe565b610f445760405162461bcd60e51b8152600401610817906113e7565b60006060866001600160a01b03168587604051610f61919061123a565b60006040518083038185875af1925050503d8060008114610f9e576040519150601f19603f3d011682016040523d82523d6000602084013e610fa3565b606091505b5091509150610fb3828286610fc4565b979650505050505050565b3b151590565b60608315610fd3575081610a19565b825115610fe35782518084602001fd5b8160405162461bcd60e51b815260040161081791906112d4565b600080600060608486031215611011578283fd5b833561101c8161153a565b9250602084013561102c8161153a565b9150604084013567ffffffffffffffff80821115611048578283fd5b818601915086601f83011261105b578283fd5b813581811115611069578384fd5b61107c601f8201601f19166020016114d7565b9150808252876020828501011115611092578384fd5b6110a38160208401602086016114fe565b5080925050509250925092565b600080604083850312156110c2578182fd5b82356110cd8161153a565b915060208301356110dd8161153a565b809150509250929050565b6000602082840312156110f9578081fd5b81518015158114610a19578182fd5b6000806040838503121561111a578182fd5b8235915060208301356110dd8161153a565b60006020828403121561113d578081fd5b8135610a198161153a565b600080600083850361014081121561115e578384fd5b6101208082121561116d578485fd5b859450840135905067ffffffffffffffff8082111561118a578384fd5b818601915086601f83011261119d578384fd5b8135818111156111ab578485fd5b8760208285010111156111bc578485fd5b6020830194508093505050509250925092565b6000602082840312156111e0578081fd5b81356001600160701b0381168114610a19578182fd5b600060208284031215611207578081fd5b5051919050565b6000815180845261122681602086016020860161150a565b601f01601f19169290920160200192915050565b6000825161124c81846020870161150a565b9190910192915050565b6001600160a01b0391909116815260200190565b6001600160a01b03929092168252602082015260400190565b6001600160a01b039290921682526001600160701b0316602082015260400190565b901515815260200190565b6000831515825260406020830152610ef5604083018461120e565b90815260200190565b600060208252610a19602083018461120e565b6000604082526112fa604083018561120e565b905060018060a01b03831660208301529392505050565b600060408252611324604083018561120e565b90508260208301529392505050565b6020808252601e908201527f536166654d6174683a207375627472616374696f6e206f766572666c6f770000604082015260600190565b60208082526026908201527f416464726573733a20696e73756666696369656e742062616c616e636520666f6040820152651c8818d85b1b60d21b606082015260800190565b6020808252601a908201527f496e73756666696369656e74206f757470757420616d6f756e74000000000000604082015260600190565b6020808252601d908201527f416464726573733a2063616c6c20746f206e6f6e2d636f6e7472616374000000604082015260600190565b602080825260139082015272105b1c9958591e481a5b9a5d1a585b1a5e9959606a1b604082015260600190565b6020808252602a908201527f5361666545524332303a204552433230206f7065726174696f6e20646964206e6040820152691bdd081cdd58d8d9595960b21b606082015260800190565b6020808252600990820152682737ba1030b236b4b760b91b604082015260600190565b92835260208301919091526001600160a01b0316604082015260600190565b60405181810167ffffffffffffffff811182821017156114f657600080fd5b604052919050565b82818337506000910152565b60005b8381101561152557818101518382015260200161150d565b83811115611534576000848401525b50505050565b6001600160a01b0381168114610b9b57600080fdfe2d2d2d2d2d2d2d2d2d2d2d2d2d205a525820524f55544552202d2d2d2d2d2d2d2d2d2d2d2d2d2da49807205ce4d355092ef5a8a18f56e8913cf4a201fbe287825b095693c21775a2646970667358221220736de7d48ddcffcfad0a40dcd6514177d44626c97271f8cab82d25366e10581c64736f6c63430007000033",
  "deployedBytecode": "0x6080604052600436106100955760003560e01c806391d148541161005957806391d148541461013b578063c13da01814610168578063d547741f14610188578063e63ab1e9146101a8578063e959b38a146101bd5761009c565b806304421823146100a157806327054df6146100cc57806334c57920146100e157806375b238fc1461010f5780638129fc1c146101245761009c565b3661009c57005b600080fd5b3480156100ad57600080fd5b506100b66101dd565b6040516100c391906112cb565b60405180910390f35b3480156100d857600080fd5b506100b6610201565b3480156100ed57600080fd5b506101016100fc366004611148565b610225565b6040516100c39291906112b0565b34801561011b57600080fd5b506100b66108ef565b34801561013057600080fd5b50610139610901565b005b34801561014757600080fd5b5061015b610156366004611108565b610985565b6040516100c391906112a5565b34801561017457600080fd5b506101396101833660046110b0565b610a20565b34801561019457600080fd5b506101396101a3366004611108565b610aaa565b3480156101b457600080fd5b506100b6610af4565b3480156101c957600080fd5b506101396101d8366004611108565b610b18565b7f077a1d526a4ce8a773632ab13b4fbbf1fcc954c3dab26cd27ea0e2a6750da5d781565b7fd95061bdf0c43d77b6cbe1c15072292976244ec8d5012de75baa36e42da4625e81565b6000606081808261023886880188610ffd565b92509250925061025f60405180606001604052806027815260200161155060279139610b58565b6102956040518060400160405280601481526020017311dbda5b99c81d1bc81cddd85c081d185c99d95d60621b81525084610b9e565b6102d46040518060400160405280601781526020017f417070726f76696e6720616c6c6f77616e636520666f7200000000000000000081525083610b9e565b60408051808201909152601581527414ddd85c1c1a5b99c81a5b9c1d5d08185b5bdd5b9d605a1b60208201526103229061031460e08b0160c08c016111cf565b6001600160701b0316610be3565b60006103356101008a0160e08b0161112c565b6001600160a01b03166370a08231306040518263ffffffff1660e01b81526004016103609190611256565b60206040518083038186803b15801561037857600080fd5b505afa15801561038c573d6000803e3d6000fd5b505050506040513d601f19601f820116820180604052508101906103b091906111f6565b90506103f16040518060400160405280601a81526020017f42616c616e6365206f66206f757470757420746f6b656e20623400000000000081525082610be3565b61040160c08a0160a08b0161112c565b6001600160a01b031663095ea7b38460006040518363ffffffff1660e01b815260040161042f92919061126a565b602060405180830381600087803b15801561044957600080fd5b505af115801561045d573d6000803e3d6000fd5b505050506040513d601f19601f8201168201806040525081019061048191906110e8565b61048a57600080fd5b61049a60c08a0160a08b0161112c565b6001600160a01b031663095ea7b3846104b960e08d0160c08e016111cf565b6040518363ffffffff1660e01b81526004016104d6929190611283565b602060405180830381600087803b1580156104f057600080fd5b505af1158015610504573d6000803e3d6000fd5b505050506040513d601f19601f8201168201806040525081019061052891906110e8565b61053157600080fd5b6105686040518060400160405280601581526020017414ddd85c1c1a5b99c81dda5d1a0819d85cdb19599d605a1b8152505a610be3565b6000846001600160a01b03165a84604051610583919061123a565b60006040518083038160008787f1925050503d80600081146105c1576040519150601f19603f3d011682016040523d82523d6000602084013e6105c6565b606091505b505090506105fa6040518060400160405280600e81526020016d047617320616674657220737761760941b8152505a610be3565b806106a05761062e6040518060400160405280600e81526020016d04661696c656420746f20737761760941b815250610b58565b610667604051806040016040528060188152602001772d2d2d2d20454e44205a525820524f55544552202d2d2d2d60401b815250610b58565b60006040518060400160405280601081526020016f14d5d05417d0d0531317d1905253115160821b8152509650965050505050506108e7565b60006106b36101008c0160e08d0161112c565b6001600160a01b03166370a08231306040518263ffffffff1660e01b81526004016106de9190611256565b60206040518083038186803b1580156106f657600080fd5b505afa15801561070a573d6000803e3d6000fd5b505050506040513d601f19601f8201168201806040525081019061072e91906111f6565b905061075f6040518060400160405280600d81526020016c2130b630b731b29030b33a32b960991b81525082610be3565b600061076b8285610c28565b905061079f6040518060400160405280601081526020016f10985b185b98d9481c9958d95a5d995960821b81525082610be3565b6107dd6040518060400160405280600c81526020016b135a5b881c995c5d5a5c995960a21b8152508d60e001602001602081019061031491906111cf565b6107ef6101208d016101008e016111cf565b6001600160701b03168110156108205760405162461bcd60e51b8152600401610817906113b0565b60405180910390fd5b61085261082b610c50565b828e60e0016000016020810190610842919061112c565b6001600160a01b03169190610c54565b610890604051806040016040528060158152602001745472616e7366657272656420726573756c7420746f60581b81525061088b610c50565b610b9e565b6108c9604051806040016040528060188152602001772d2d2d2d20454e44205a525820524f55544552202d2d2d2d60401b815250610b58565b60016040518060200160405280600081525098509850505050505050505b935093915050565b60008051602061157783398151915281565b600061090b610caf565b8054909150610100900460ff16806109255750805460ff16155b6109415760405162461bcd60e51b81526004016108179061141e565b8054610100900460ff1615801561096957815460ff1961ff0019909116610100171660011782555b610971610cd3565b801561098157815461ff00191682555b5050565b600061098f610d9c565b604051630f40931b60e41b815273__$712f9bd20561de4f0bfbc1442284f16fb4$__9163f40931b0916109c99190879087906004016114b8565b60206040518083038186803b1580156109e157600080fd5b505af41580156109f5573d6000803e3d6000fd5b505050506040513d601f19601f82011682018060405250810190610a1991906110e8565b9392505050565b610a3a600080516020611577833981519152610156610c50565b610a565760405162461bcd60e51b815260040161081790611495565b610a807f077a1d526a4ce8a773632ab13b4fbbf1fcc954c3dab26cd27ea0e2a6750da5d783610aaa565b6109817f077a1d526a4ce8a773632ab13b4fbbf1fcc954c3dab26cd27ea0e2a6750da5d782610b18565b610ac4600080516020611577833981519152610156610c50565b610ae05760405162461bcd60e51b815260040161081790611495565b6109818282610aed610d9c565b9190610dc0565b7f65d7a28e3265b37a6474929f336521b332c1681b933f6cb9f3376673440d862a81565b610b32600080516020611577833981519152610156610c50565b610b4e5760405162461bcd60e51b815260040161081790611495565b6109818282610def565b610b9b81604051602401610b6c91906112d4565b60408051601f198184030181529190526020810180516001600160e01b031663104c13eb60e21b179052610e03565b50565b6109818282604051602401610bb49291906112e7565b60408051601f198184030181529190526020810180516001600160e01b031663319af33360e01b179052610e03565b6109818282604051602401610bf9929190611311565b60408051601f198184030181529190526020810180516001600160e01b03166309710a9d60e41b179052610e03565b600082821115610c4a5760405162461bcd60e51b815260040161081790611333565b50900390565b3390565b610caa8363a9059cbb60e01b8484604051602401610c7392919061126a565b60408051601f198184030181529190526020810180516001600160e01b03166001600160e01b031990931692909217909152610e24565b505050565b7fd59dd79cfd4373c6c6547848d91fc2ea67c8aec9053f7028828216c5af1d474190565b6000610cdd610caf565b8054909150610100900460ff1680610cf75750805460ff16155b610d135760405162461bcd60e51b81526004016108179061141e565b8054610100900460ff16158015610d3b57815460ff1961ff0019909116610100171660011782555b6000610d45610c50565b9050610d5f60008051602061157783398151915282610def565b610d897f65d7a28e3265b37a6474929f336521b332c1681b933f6cb9f3376673440d862a82610def565b5080156109815750805461ff0019169055565b7f3a83b1278d351a40f18bb9e8e77896e8c1dc812ffaed5ea63e0e837a6dae57e990565b60009182526001909201602090815260408083206001600160a01b03909416835292905220805460ff19169055565b6109818282610dfc610d9c565b9190610eb3565b80516a636f6e736f6c652e6c6f67602083016000808483855afa5050505050565b6060610e79826040518060400160405280602081526020017f5361666545524332303a206c6f772d6c6576656c2063616c6c206661696c6564815250856001600160a01b0316610ee69092919063ffffffff16565b805190915015610caa5780806020019051810190610e9791906110e8565b610caa5760405162461bcd60e51b81526004016108179061144b565b60009182526001928301602090815260408084206001600160a01b0390931684529190529020805460ff19169091179055565b6060610ef58484600085610efd565b949350505050565b606082471015610f1f5760405162461bcd60e51b81526004016108179061136a565b610f2885610fbe565b610f445760405162461bcd60e51b8152600401610817906113e7565b60006060866001600160a01b03168587604051610f61919061123a565b60006040518083038185875af1925050503d8060008114610f9e576040519150601f19603f3d011682016040523d82523d6000602084013e610fa3565b606091505b5091509150610fb3828286610fc4565b979650505050505050565b3b151590565b60608315610fd3575081610a19565b825115610fe35782518084602001fd5b8160405162461bcd60e51b815260040161081791906112d4565b600080600060608486031215611011578283fd5b833561101c8161153a565b9250602084013561102c8161153a565b9150604084013567ffffffffffffffff80821115611048578283fd5b818601915086601f83011261105b578283fd5b813581811115611069578384fd5b61107c601f8201601f19166020016114d7565b9150808252876020828501011115611092578384fd5b6110a38160208401602086016114fe565b5080925050509250925092565b600080604083850312156110c2578182fd5b82356110cd8161153a565b915060208301356110dd8161153a565b809150509250929050565b6000602082840312156110f9578081fd5b81518015158114610a19578182fd5b6000806040838503121561111a578182fd5b8235915060208301356110dd8161153a565b60006020828403121561113d578081fd5b8135610a198161153a565b600080600083850361014081121561115e578384fd5b6101208082121561116d578485fd5b859450840135905067ffffffffffffffff8082111561118a578384fd5b818601915086601f83011261119d578384fd5b8135818111156111ab578485fd5b8760208285010111156111bc578485fd5b6020830194508093505050509250925092565b6000602082840312156111e0578081fd5b81356001600160701b0381168114610a19578182fd5b600060208284031215611207578081fd5b5051919050565b6000815180845261122681602086016020860161150a565b601f01601f19169290920160200192915050565b6000825161124c81846020870161150a565b9190910192915050565b6001600160a01b0391909116815260200190565b6001600160a01b03929092168252602082015260400190565b6001600160a01b039290921682526001600160701b0316602082015260400190565b901515815260200190565b6000831515825260406020830152610ef5604083018461120e565b90815260200190565b600060208252610a19602083018461120e565b6000604082526112fa604083018561120e565b905060018060a01b03831660208301529392505050565b600060408252611324604083018561120e565b90508260208301529392505050565b6020808252601e908201527f536166654d6174683a207375627472616374696f6e206f766572666c6f770000604082015260600190565b60208082526026908201527f416464726573733a20696e73756666696369656e742062616c616e636520666f6040820152651c8818d85b1b60d21b606082015260800190565b6020808252601a908201527f496e73756666696369656e74206f757470757420616d6f756e74000000000000604082015260600190565b6020808252601d908201527f416464726573733a2063616c6c20746f206e6f6e2d636f6e7472616374000000604082015260600190565b602080825260139082015272105b1c9958591e481a5b9a5d1a585b1a5e9959606a1b604082015260600190565b6020808252602a908201527f5361666545524332303a204552433230206f7065726174696f6e20646964206e6040820152691bdd081cdd58d8d9595960b21b606082015260800190565b6020808252600990820152682737ba1030b236b4b760b91b604082015260600190565b92835260208301919091526001600160a01b0316604082015260600190565b60405181810167ffffffffffffffff811182821017156114f657600080fd5b604052919050565b82818337506000910152565b60005b8381101561152557818101518382015260200161150d565b83811115611534576000848401525b50505050565b6001600160a01b0381168114610b9b57600080fdfe2d2d2d2d2d2d2d2d2d2d2d2d2d205a525820524f55544552202d2d2d2d2d2d2d2d2d2d2d2d2d2da49807205ce4d355092ef5a8a18f56e8913cf4a201fbe287825b095693c21775a2646970667358221220736de7d48ddcffcfad0a40dcd6514177d44626c97271f8cab82d25366e10581c64736f6c63430007000033",
  "libraries": {
    "ProxyAdmin": "0x71eEC1AECD2255b85eadD7130fA05a4941362E3c",
    "SettlementAdmin": "0x71eEC1AECD2255b85eadD7130fA05a4941362E3c",
    "LibAccess": "0x4D5806D66d4e056d37CCD20133AF8e06A6f5f4e5",
    "LibConfig": "0x683927Eb874937a7B0b7c76fB7Ef4aD226D08785",
    "Settlement": "0x3c2918430dbFc84960F554377d9D1248ab1977F0",
    "TransparentUpgradeableProxy": "0x46181DB60480F137Bbd6633B624cc0A7aF2Cfc76"
  },
  "devdoc": {
    "kind": "dev",
    "methods": {},
    "version": 1
  },
  "userdoc": {
    "kind": "user",
    "methods": {},
    "version": 1
  },
  "storageLayout": {
    "storage": [],
    "types": null
  }
}