{
  "_format": "hh-sol-artifact-1",
  "contractName": "ZrxRouter",
  "sourceName": "contracts/routers/zrx/ZrxRouter.sol",
  "abi": [
    {
      "inputs": [],
      "name": "ACTION_ROLE",
      "outputs": [
        {
          "internalType": "bytes32",
          "name": "",
          "type": "bytes32"
        }
      ],
      "stateMutability": "view",
      "type": "function"
    },
    {
      "inputs": [],
      "name": "ADMIN_ROLE",
      "outputs": [
        {
          "internalType": "bytes32",
          "name": "",
          "type": "bytes32"
        }
      ],
      "stateMutability": "view",
      "type": "function"
    },
    {
      "inputs": [],
      "name": "PAUSER_ROLE",
      "outputs": [
        {
          "internalType": "bytes32",
          "name": "",
          "type": "bytes32"
        }
      ],
      "stateMutability": "view",
      "type": "function"
    },
    {
      "inputs": [],
      "name": "RELAY_ROLE",
      "outputs": [
        {
          "internalType": "bytes32",
          "name": "",
          "type": "bytes32"
        }
      ],
      "stateMutability": "view",
      "type": "function"
    },
    {
      "inputs": [
        {
          "internalType": "bytes32",
          "name": "role",
          "type": "bytes32"
        },
        {
          "internalType": "address",
          "name": "actor",
          "type": "address"
        }
      ],
      "name": "addRole",
      "outputs": [],
      "stateMutability": "nonpayable",
      "type": "function"
    },
    {
      "inputs": [
        {
          "components": [
            {
              "internalType": "address",
              "name": "trader",
              "type": "address"
            },
            {
              "internalType": "contract IERC20",
              "name": "feeToken",
              "type": "address"
            },
            {
              "internalType": "uint256",
              "name": "feeTokenETHPrice",
              "type": "uint256"
            },
            {
              "internalType": "uint256",
              "name": "gasEstimate",
              "type": "uint256"
            },
            {
              "components": [
                {
                  "internalType": "contract IERC20",
                  "name": "token",
                  "type": "address"
                },
                {
                  "internalType": "uint112",
                  "name": "amount",
                  "type": "uint112"
                }
              ],
              "internalType": "struct Types.TokenAmount",
              "name": "input",
              "type": "tuple"
            },
            {
              "components": [
                {
                  "internalType": "contract IERC20",
                  "name": "token",
                  "type": "address"
                },
                {
                  "internalType": "uint112",
                  "name": "amount",
                  "type": "uint112"
                }
              ],
              "internalType": "struct Types.TokenAmount",
              "name": "output",
              "type": "tuple"
            }
          ],
          "internalType": "struct Types.Order",
          "name": "order",
          "type": "tuple"
        },
        {
          "internalType": "bytes",
          "name": "orderCallData",
          "type": "bytes"
        }
      ],
      "name": "fill",
      "outputs": [
        {
          "internalType": "bool",
          "name": "success",
          "type": "bool"
        },
        {
          "internalType": "string",
          "name": "failReason",
          "type": "string"
        }
      ],
      "stateMutability": "nonpayable",
      "type": "function"
    },
    {
      "inputs": [
        {
          "internalType": "bytes32",
          "name": "role",
          "type": "bytes32"
        },
        {
          "internalType": "address",
          "name": "actor",
          "type": "address"
        }
      ],
      "name": "hasRole",
      "outputs": [
        {
          "internalType": "bool",
          "name": "",
          "type": "bool"
        }
      ],
      "stateMutability": "view",
      "type": "function"
    },
    {
      "inputs": [],
      "name": "initialize",
      "outputs": [],
      "stateMutability": "nonpayable",
      "type": "function"
    },
    {
      "inputs": [
        {
          "internalType": "bytes32",
          "name": "role",
          "type": "bytes32"
        },
        {
          "internalType": "address",
          "name": "actor",
          "type": "address"
        }
      ],
      "name": "revokeRole",
      "outputs": [],
      "stateMutability": "nonpayable",
      "type": "function"
    },
    {
      "inputs": [
        {
          "internalType": "address",
          "name": "oldRelay",
          "type": "address"
        },
        {
          "internalType": "address",
          "name": "newRelay",
          "type": "address"
        }
      ],
      "name": "swapRelay",
      "outputs": [],
      "stateMutability": "nonpayable",
      "type": "function"
    },
    {
      "stateMutability": "payable",
      "type": "receive"
    }
  ],
  "bytecode": "0x608060405234801561001057600080fd5b506115c9806100206000396000f3fe6080604052600436106100955760003560e01c8063be82f7f611610059578063be82f7f61461013a578063c13da01814610168578063d547741f14610188578063e63ab1e9146101a8578063e959b38a146101bd5761009c565b806304421823146100a157806327054df6146100cc57806375b238fc146100e15780638129fc1c146100f657806391d148541461010d5761009c565b3661009c57005b600080fd5b3480156100ad57600080fd5b506100b66101dd565b6040516100c391906112c8565b60405180910390f35b3480156100d857600080fd5b506100b6610201565b3480156100ed57600080fd5b506100b6610225565b34801561010257600080fd5b5061010b610237565b005b34801561011957600080fd5b5061012d610128366004611105565b6102c4565b6040516100c391906112a2565b34801561014657600080fd5b5061015a610155366004611145565b61035f565b6040516100c39291906112ad565b34801561017457600080fd5b5061010b6101833660046110ad565b610a1d565b34801561019457600080fd5b5061010b6101a3366004611105565b610aa7565b3480156101b457600080fd5b506100b6610af1565b3480156101c957600080fd5b5061010b6101d8366004611105565b610b15565b7f077a1d526a4ce8a773632ab13b4fbbf1fcc954c3dab26cd27ea0e2a6750da5d781565b7fd95061bdf0c43d77b6cbe1c15072292976244ec8d5012de75baa36e42da4625e81565b60008051602061157483398151915281565b6000610241610b55565b8054909150610100900460ff168061025b5750805460ff16155b6102805760405162461bcd60e51b81526004016102779061141b565b60405180910390fd5b8054610100900460ff161580156102a857815460ff1961ff0019909116610100171660011782555b6102b0610b79565b80156102c057815461ff00191682555b5050565b60006102ce610c42565b604051630f40931b60e41b815273__$712f9bd20561de4f0bfbc1442284f16fb4$__9163f40931b0916103089190879087906004016114b5565b60206040518083038186803b15801561032057600080fd5b505af4158015610334573d6000803e3d6000fd5b505050506040513d601f19601f8201168201806040525081019061035891906110e5565b9392505050565b6000606081808261037286880188610ffa565b92509250925061039960405180606001604052806027815260200161154d60279139610c66565b6103cf6040518060400160405280601481526020017311dbda5b99c81d1bc81cddd85c081d185c99d95d60621b81525084610cac565b61040e6040518060400160405280601781526020017f417070726f76696e6720616c6c6f77616e636520666f7200000000000000000081525083610cac565b60408051808201909152601581527414ddd85c1c1a5b99c81a5b9c1d5d08185b5bdd5b9d605a1b602082015261045c9061044e60c08b0160a08c016111cc565b6001600160701b0316610cf1565b600061046e60e08a0160c08b01611129565b6001600160a01b03166370a08231306040518263ffffffff1660e01b81526004016104999190611253565b60206040518083038186803b1580156104b157600080fd5b505afa1580156104c5573d6000803e3d6000fd5b505050506040513d601f19601f820116820180604052508101906104e991906111f3565b905061052a6040518060400160405280601a81526020017f42616c616e6365206f66206f757470757420746f6b656e20623400000000000081525082610cf1565b61053a60a08a0160808b01611129565b6001600160a01b031663095ea7b38460006040518363ffffffff1660e01b8152600401610568929190611267565b602060405180830381600087803b15801561058257600080fd5b505af1158015610596573d6000803e3d6000fd5b505050506040513d601f19601f820116820180604052508101906105ba91906110e5565b6105c357600080fd5b6105d360a08a0160808b01611129565b6001600160a01b031663095ea7b3846105f260c08d0160a08e016111cc565b6040518363ffffffff1660e01b815260040161060f929190611280565b602060405180830381600087803b15801561062957600080fd5b505af115801561063d573d6000803e3d6000fd5b505050506040513d601f19601f8201168201806040525081019061066191906110e5565b61066a57600080fd5b6106a16040518060400160405280601581526020017414ddd85c1c1a5b99c81dda5d1a0819d85cdb19599d605a1b8152505a610cf1565b6000846001600160a01b03165a846040516106bc9190611237565b60006040518083038160008787f1925050503d80600081146106fa576040519150601f19603f3d011682016040523d82523d6000602084013e6106ff565b606091505b505090506107336040518060400160405280600e81526020016d047617320616674657220737761760941b8152505a610cf1565b806107d9576107676040518060400160405280600e81526020016d04661696c656420746f20737761760941b815250610c66565b6107a0604051806040016040528060188152602001772d2d2d2d20454e44205a525820524f55544552202d2d2d2d60401b815250610c66565b60006040518060400160405280601081526020016f14d5d05417d0d0531317d1905253115160821b815250965096505050505050610a15565b60006107eb60e08c0160c08d01611129565b6001600160a01b03166370a08231306040518263ffffffff1660e01b81526004016108169190611253565b60206040518083038186803b15801561082e57600080fd5b505afa158015610842573d6000803e3d6000fd5b505050506040513d601f19601f8201168201806040525081019061086691906111f3565b90506108976040518060400160405280600d81526020016c2130b630b731b29030b33a32b960991b81525082610cf1565b60006108a38285610d36565b90506108d76040518060400160405280601081526020016f10985b185b98d9481c9958d95a5d995960821b81525082610cf1565b6109156040518060400160405280600c81526020016b135a5b881c995c5d5a5c995960a21b8152508d60c001602001602081019061044e91906111cc565b6109266101008d0160e08e016111cc565b6001600160701b031681101561094e5760405162461bcd60e51b8152600401610277906113ad565b610980610959610d5e565b828e60c00160000160208101906109709190611129565b6001600160a01b03169190610d62565b6109be604051806040016040528060158152602001745472616e7366657272656420726573756c7420746f60581b8152506109b9610d5e565b610cac565b6109f7604051806040016040528060188152602001772d2d2d2d20454e44205a525820524f55544552202d2d2d2d60401b815250610c66565b60016040518060200160405280600081525098509850505050505050505b935093915050565b610a37600080516020611574833981519152610128610d5e565b610a535760405162461bcd60e51b815260040161027790611492565b610a7d7f077a1d526a4ce8a773632ab13b4fbbf1fcc954c3dab26cd27ea0e2a6750da5d783610aa7565b6102c07f077a1d526a4ce8a773632ab13b4fbbf1fcc954c3dab26cd27ea0e2a6750da5d782610b15565b610ac1600080516020611574833981519152610128610d5e565b610add5760405162461bcd60e51b815260040161027790611492565b6102c08282610aea610c42565b9190610dbd565b7f65d7a28e3265b37a6474929f336521b332c1681b933f6cb9f3376673440d862a81565b610b2f600080516020611574833981519152610128610d5e565b610b4b5760405162461bcd60e51b815260040161027790611492565b6102c08282610dec565b7fd59dd79cfd4373c6c6547848d91fc2ea67c8aec9053f7028828216c5af1d474190565b6000610b83610b55565b8054909150610100900460ff1680610b9d5750805460ff16155b610bb95760405162461bcd60e51b81526004016102779061141b565b8054610100900460ff16158015610be157815460ff1961ff0019909116610100171660011782555b6000610beb610d5e565b9050610c0560008051602061157483398151915282610dec565b610c2f7f65d7a28e3265b37a6474929f336521b332c1681b933f6cb9f3376673440d862a82610dec565b5080156102c05750805461ff0019169055565b7f3a83b1278d351a40f18bb9e8e77896e8c1dc812ffaed5ea63e0e837a6dae57e990565b610ca981604051602401610c7a91906112d1565b60408051601f198184030181529190526020810180516001600160e01b031663104c13eb60e21b179052610e00565b50565b6102c08282604051602401610cc29291906112e4565b60408051601f198184030181529190526020810180516001600160e01b031663319af33360e01b179052610e00565b6102c08282604051602401610d0792919061130e565b60408051601f198184030181529190526020810180516001600160e01b03166309710a9d60e41b179052610e00565b600082821115610d585760405162461bcd60e51b815260040161027790611330565b50900390565b3390565b610db88363a9059cbb60e01b8484604051602401610d81929190611267565b60408051601f198184030181529190526020810180516001600160e01b03166001600160e01b031990931692909217909152610e21565b505050565b60009182526001909201602090815260408083206001600160a01b03909416835292905220805460ff19169055565b6102c08282610df9610c42565b9190610eb0565b80516a636f6e736f6c652e6c6f67602083016000808483855afa5050505050565b6060610e76826040518060400160405280602081526020017f5361666545524332303a206c6f772d6c6576656c2063616c6c206661696c6564815250856001600160a01b0316610ee39092919063ffffffff16565b805190915015610db85780806020019051810190610e9491906110e5565b610db85760405162461bcd60e51b815260040161027790611448565b60009182526001928301602090815260408084206001600160a01b0390931684529190529020805460ff19169091179055565b6060610ef28484600085610efa565b949350505050565b606082471015610f1c5760405162461bcd60e51b815260040161027790611367565b610f2585610fbb565b610f415760405162461bcd60e51b8152600401610277906113e4565b60006060866001600160a01b03168587604051610f5e9190611237565b60006040518083038185875af1925050503d8060008114610f9b576040519150601f19603f3d011682016040523d82523d6000602084013e610fa0565b606091505b5091509150610fb0828286610fc1565b979650505050505050565b3b151590565b60608315610fd0575081610358565b825115610fe05782518084602001fd5b8160405162461bcd60e51b815260040161027791906112d1565b60008060006060848603121561100e578283fd5b833561101981611537565b9250602084013561102981611537565b9150604084013567ffffffffffffffff80821115611045578283fd5b818601915086601f830112611058578283fd5b813581811115611066578384fd5b611079601f8201601f19166020016114d4565b915080825287602082850101111561108f578384fd5b6110a08160208401602086016114fb565b5080925050509250925092565b600080604083850312156110bf578182fd5b82356110ca81611537565b915060208301356110da81611537565b809150509250929050565b6000602082840312156110f6578081fd5b81518015158114610358578182fd5b60008060408385031215611117578182fd5b8235915060208301356110da81611537565b60006020828403121561113a578081fd5b813561035881611537565b600080600083850361012081121561115b578384fd5b6101008082121561116a578485fd5b859450840135905067ffffffffffffffff80821115611187578384fd5b818601915086601f83011261119a578384fd5b8135818111156111a8578485fd5b8760208285010111156111b9578485fd5b6020830194508093505050509250925092565b6000602082840312156111dd578081fd5b81356001600160701b0381168114610358578182fd5b600060208284031215611204578081fd5b5051919050565b60008151808452611223816020860160208601611507565b601f01601f19169290920160200192915050565b60008251611249818460208701611507565b9190910192915050565b6001600160a01b0391909116815260200190565b6001600160a01b03929092168252602082015260400190565b6001600160a01b039290921682526001600160701b0316602082015260400190565b901515815260200190565b6000831515825260406020830152610ef2604083018461120b565b90815260200190565b600060208252610358602083018461120b565b6000604082526112f7604083018561120b565b905060018060a01b03831660208301529392505050565b600060408252611321604083018561120b565b90508260208301529392505050565b6020808252601e908201527f536166654d6174683a207375627472616374696f6e206f766572666c6f770000604082015260600190565b60208082526026908201527f416464726573733a20696e73756666696369656e742062616c616e636520666f6040820152651c8818d85b1b60d21b606082015260800190565b6020808252601a908201527f496e73756666696369656e74206f757470757420616d6f756e74000000000000604082015260600190565b6020808252601d908201527f416464726573733a2063616c6c20746f206e6f6e2d636f6e7472616374000000604082015260600190565b602080825260139082015272105b1c9958591e481a5b9a5d1a585b1a5e9959606a1b604082015260600190565b6020808252602a908201527f5361666545524332303a204552433230206f7065726174696f6e20646964206e6040820152691bdd081cdd58d8d9595960b21b606082015260800190565b6020808252600990820152682737ba1030b236b4b760b91b604082015260600190565b92835260208301919091526001600160a01b0316604082015260600190565b60405181810167ffffffffffffffff811182821017156114f357600080fd5b604052919050565b82818337506000910152565b60005b8381101561152257818101518382015260200161150a565b83811115611531576000848401525b50505050565b6001600160a01b0381168114610ca957600080fdfe2d2d2d2d2d2d2d2d2d2d2d2d2d205a525820524f55544552202d2d2d2d2d2d2d2d2d2d2d2d2d2da49807205ce4d355092ef5a8a18f56e8913cf4a201fbe287825b095693c21775a264697066735822122016f41996e4812a46ebf064ba7355106fd14ee5cfedd7cede2bed22e9d1efd97f64736f6c63430007000033",
  "linkReferences": {
    "contracts/libs/LibAccess.sol": {
      "LibAccess": [
        {
          "length": 20,
          "start": 765
        }
      ]
    }
  },
  "deployedLinkReferences": {
    "contracts/libs/LibAccess.sol": {
      "LibAccess": [
        {
          "length": 20,
          "start": 733
        }
      ]
    }
  }
}