{
  "_format": "hh-sol-artifact-1",
  "contractName": "Settlement",
  "sourceName": "contracts/Settlement.sol",
  "abi": [
    {
      "anonymous": false,
      "inputs": [
        {
          "indexed": true,
          "internalType": "address",
          "name": "affiliate",
          "type": "address"
        },
        {
          "indexed": false,
          "internalType": "contract IERC20",
          "name": "token",
          "type": "address"
        },
        {
          "indexed": false,
          "internalType": "uint256",
          "name": "amount",
          "type": "uint256"
        }
      ],
      "name": "AffiliatePaid",
      "type": "event"
    },
    {
      "anonymous": false,
      "inputs": [
        {
          "indexed": true,
          "internalType": "address",
          "name": "relay",
          "type": "address"
        },
        {
          "indexed": false,
          "internalType": "uint256",
          "name": "amount",
          "type": "uint256"
        }
      ],
      "name": "InsufficientGasFunds",
      "type": "event"
    },
    {
      "anonymous": false,
      "inputs": [
        {
          "indexed": true,
          "internalType": "address",
          "name": "relay",
          "type": "address"
        },
        {
          "indexed": false,
          "internalType": "uint256",
          "name": "amount",
          "type": "uint256"
        }
      ],
      "name": "PaidGasFunds",
      "type": "event"
    },
    {
      "anonymous": false,
      "inputs": [
        {
          "indexed": true,
          "internalType": "address",
          "name": "sender",
          "type": "address"
        },
        {
          "indexed": false,
          "internalType": "uint256",
          "name": "amount",
          "type": "uint256"
        }
      ],
      "name": "ReceivedETH",
      "type": "event"
    },
    {
      "anonymous": false,
      "inputs": [
        {
          "indexed": true,
          "internalType": "address",
          "name": "trader",
          "type": "address"
        },
        {
          "indexed": false,
          "internalType": "string",
          "name": "reason",
          "type": "string"
        },
        {
          "indexed": false,
          "internalType": "contract IERC20",
          "name": "feeToken",
          "type": "address"
        },
        {
          "indexed": false,
          "internalType": "uint256",
          "name": "gasFeePaid",
          "type": "uint256"
        }
      ],
      "name": "SwapFailed",
      "type": "event"
    },
    {
      "anonymous": false,
      "inputs": [
        {
          "indexed": true,
          "internalType": "address",
          "name": "trader",
          "type": "address"
        },
        {
          "indexed": false,
          "internalType": "uint256",
          "name": "inputAmount",
          "type": "uint256"
        },
        {
          "indexed": false,
          "internalType": "uint256",
          "name": "outputAmount",
          "type": "uint256"
        },
        {
          "indexed": false,
          "internalType": "contract IERC20",
          "name": "feeToken",
          "type": "address"
        },
        {
          "indexed": false,
          "internalType": "uint256",
          "name": "gasFee",
          "type": "uint256"
        },
        {
          "indexed": false,
          "internalType": "uint256",
          "name": "dexibleFee",
          "type": "uint256"
        }
      ],
      "name": "SwapSuccess",
      "type": "event"
    },
    {
      "anonymous": false,
      "inputs": [
        {
          "indexed": true,
          "internalType": "address",
          "name": "trader",
          "type": "address"
        },
        {
          "indexed": true,
          "internalType": "address",
          "name": "affiliate",
          "type": "address"
        },
        {
          "indexed": false,
          "internalType": "uint256",
          "name": "inputAmount",
          "type": "uint256"
        },
        {
          "indexed": false,
          "internalType": "uint256",
          "name": "outputAmount",
          "type": "uint256"
        },
        {
          "indexed": false,
          "internalType": "contract IERC20",
          "name": "feeToken",
          "type": "address"
        },
        {
          "indexed": false,
          "internalType": "uint256",
          "name": "gasFee",
          "type": "uint256"
        },
        {
          "indexed": false,
          "internalType": "uint256",
          "name": "affiliateFee",
          "type": "uint256"
        },
        {
          "indexed": false,
          "internalType": "uint256",
          "name": "dexibleFee",
          "type": "uint256"
        }
      ],
      "name": "SwapV3Success",
      "type": "event"
    },
    {
      "anonymous": false,
      "inputs": [
        {
          "indexed": true,
          "internalType": "address",
          "name": "trader",
          "type": "address"
        },
        {
          "indexed": false,
          "internalType": "uint256",
          "name": "penalty",
          "type": "uint256"
        },
        {
          "indexed": false,
          "internalType": "uint256",
          "name": "gasPaid",
          "type": "uint256"
        },
        {
          "indexed": false,
          "internalType": "string",
          "name": "reason",
          "type": "string"
        }
      ],
      "name": "TraderPenalized",
      "type": "event"
    },
    {
      "anonymous": false,
      "inputs": [
        {
          "indexed": true,
          "internalType": "address",
          "name": "receiver",
          "type": "address"
        },
        {
          "indexed": false,
          "internalType": "uint256",
          "name": "amount",
          "type": "uint256"
        }
      ],
      "name": "WithdrewETH",
      "type": "event"
    },
    {
      "inputs": [],
      "name": "ACTION_ROLE",
      "outputs": [
        {
          "internalType": "bytes32",
          "name": "",
          "type": "bytes32"
        }
      ],
      "stateMutability": "view",
      "type": "function"
    },
    {
      "inputs": [],
      "name": "ADMIN_ROLE",
      "outputs": [
        {
          "internalType": "bytes32",
          "name": "",
          "type": "bytes32"
        }
      ],
      "stateMutability": "view",
      "type": "function"
    },
    {
      "inputs": [],
      "name": "PAUSER_ROLE",
      "outputs": [
        {
          "internalType": "bytes32",
          "name": "",
          "type": "bytes32"
        }
      ],
      "stateMutability": "view",
      "type": "function"
    },
    {
      "inputs": [],
      "name": "RELAY_ROLE",
      "outputs": [
        {
          "internalType": "bytes32",
          "name": "",
          "type": "bytes32"
        }
      ],
      "stateMutability": "view",
      "type": "function"
    },
    {
      "inputs": [
        {
          "components": [
            {
              "internalType": "address",
              "name": "trader",
              "type": "address"
            },
            {
              "internalType": "contract IERC20",
              "name": "feeToken",
              "type": "address"
            },
            {
              "internalType": "uint256",
              "name": "feeTokenETHPrice",
              "type": "uint256"
            },
            {
              "internalType": "uint256",
              "name": "ethUSDPrice",
              "type": "uint256"
            },
            {
              "internalType": "uint256",
              "name": "gasEstimate",
              "type": "uint256"
            },
            {
              "components": [
                {
                  "internalType": "contract IERC20",
                  "name": "token",
                  "type": "address"
                },
                {
                  "internalType": "uint112",
                  "name": "amount",
                  "type": "uint112"
                }
              ],
              "internalType": "struct Types.TokenAmount",
              "name": "input",
              "type": "tuple"
            },
            {
              "components": [
                {
                  "internalType": "contract IERC20",
                  "name": "token",
                  "type": "address"
                },
                {
                  "internalType": "uint112",
                  "name": "amount",
                  "type": "uint112"
                }
              ],
              "internalType": "struct Types.TokenAmount",
              "name": "output",
              "type": "tuple"
            }
          ],
          "internalType": "struct Types.Order",
          "name": "order",
          "type": "tuple"
        },
        {
          "internalType": "contract IDexRouter",
          "name": "router",
          "type": "address"
        },
        {
          "internalType": "bytes",
          "name": "data",
          "type": "bytes"
        }
      ],
      "name": "_trySwap",
      "outputs": [
        {
          "internalType": "bool",
          "name": "success",
          "type": "bool"
        },
        {
          "internalType": "string",
          "name": "failReason",
          "type": "string"
        }
      ],
      "stateMutability": "nonpayable",
      "type": "function"
    },
    {
      "inputs": [
        {
          "components": [
            {
              "internalType": "address",
              "name": "trader",
              "type": "address"
            },
            {
              "components": [
                {
                  "internalType": "contract IERC20",
                  "name": "token",
                  "type": "address"
                },
                {
                  "internalType": "uint112",
                  "name": "amount",
                  "type": "uint112"
                }
              ],
              "internalType": "struct Types.TokenAmount",
              "name": "input",
              "type": "tuple"
            },
            {
              "components": [
                {
                  "internalType": "contract IERC20",
                  "name": "token",
                  "type": "address"
                },
                {
                  "internalType": "uint112",
                  "name": "amount",
                  "type": "uint112"
                }
              ],
              "internalType": "struct Types.TokenAmount",
              "name": "output",
              "type": "tuple"
            },
            {
              "components": [
                {
                  "internalType": "contract IERC20",
                  "name": "feeToken",
                  "type": "address"
                },
                {
                  "internalType": "address",
                  "name": "affiliate",
                  "type": "address"
                },
                {
                  "internalType": "uint256",
                  "name": "affiliatePortion",
                  "type": "uint256"
                },
                {
                  "internalType": "uint256",
                  "name": "feeTokenETHPrice",
                  "type": "uint256"
                },
                {
                  "internalType": "uint256",
                  "name": "dexibleFee",
                  "type": "uint256"
                },
                {
                  "internalType": "uint256",
                  "name": "gasFee",
                  "type": "uint256"
                }
              ],
              "internalType": "struct Types.V3Fees",
              "name": "fees",
              "type": "tuple"
            }
          ],
          "internalType": "struct Types.V3Order",
          "name": "order",
          "type": "tuple"
        },
        {
          "internalType": "contract IDexRouter",
          "name": "router",
          "type": "address"
        },
        {
          "internalType": "bytes",
          "name": "data",
          "type": "bytes"
        }
      ],
      "name": "_tryV3Swap",
      "outputs": [
        {
          "internalType": "bool",
          "name": "success",
          "type": "bool"
        },
        {
          "internalType": "uint256",
          "name": "outAmount",
          "type": "uint256"
        },
        {
          "internalType": "string",
          "name": "failReason",
          "type": "string"
        }
      ],
      "stateMutability": "nonpayable",
      "type": "function"
    },
    {
      "inputs": [
        {
          "internalType": "bytes32",
          "name": "role",
          "type": "bytes32"
        },
        {
          "internalType": "address",
          "name": "actor",
          "type": "address"
        }
      ],
      "name": "addRole",
      "outputs": [],
      "stateMutability": "nonpayable",
      "type": "function"
    },
    {
      "inputs": [
        {
          "internalType": "contract WNative",
          "name": "native",
          "type": "address"
        },
        {
          "internalType": "uint256",
          "name": "amount",
          "type": "uint256"
        }
      ],
      "name": "depositWNative",
      "outputs": [],
      "stateMutability": "nonpayable",
      "type": "function"
    },
    {
      "inputs": [
        {
          "components": [
            {
              "internalType": "address",
              "name": "trader",
              "type": "address"
            },
            {
              "internalType": "contract IERC20",
              "name": "feeToken",
              "type": "address"
            },
            {
              "internalType": "uint256",
              "name": "feeTokenETHPrice",
              "type": "uint256"
            },
            {
              "internalType": "uint256",
              "name": "ethUSDPrice",
              "type": "uint256"
            },
            {
              "internalType": "uint256",
              "name": "gasEstimate",
              "type": "uint256"
            },
            {
              "components": [
                {
                  "internalType": "contract IERC20",
                  "name": "token",
                  "type": "address"
                },
                {
                  "internalType": "uint112",
                  "name": "amount",
                  "type": "uint112"
                }
              ],
              "internalType": "struct Types.TokenAmount",
              "name": "input",
              "type": "tuple"
            },
            {
              "components": [
                {
                  "internalType": "contract IERC20",
                  "name": "token",
                  "type": "address"
                },
                {
                  "internalType": "uint112",
                  "name": "amount",
                  "type": "uint112"
                }
              ],
              "internalType": "struct Types.TokenAmount",
              "name": "output",
              "type": "tuple"
            }
          ],
          "internalType": "struct Types.Order",
          "name": "order",
          "type": "tuple"
        },
        {
          "internalType": "contract IDexRouter",
          "name": "router",
          "type": "address"
        },
        {
          "internalType": "bytes",
          "name": "data",
          "type": "bytes"
        }
      ],
      "name": "fill",
      "outputs": [],
      "stateMutability": "nonpayable",
      "type": "function"
    },
    {
      "inputs": [],
      "name": "getConfig",
      "outputs": [
        {
          "components": [
            {
              "internalType": "address",
              "name": "devTeam",
              "type": "address"
            },
            {
              "internalType": "uint128",
              "name": "minFee",
              "type": "uint128"
            },
            {
              "internalType": "uint128",
              "name": "penaltyFee",
              "type": "uint128"
            },
            {
              "internalType": "uint8",
              "name": "lockoutBlocks",
              "type": "uint8"
            }
          ],
          "internalType": "struct Types.Config",
          "name": "",
          "type": "tuple"
        }
      ],
      "stateMutability": "view",
      "type": "function"
    },
    {
      "inputs": [],
      "name": "getDevTeam",
      "outputs": [
        {
          "internalType": "address",
          "name": "",
          "type": "address"
        }
      ],
      "stateMutability": "view",
      "type": "function"
    },
    {
      "inputs": [],
      "name": "getLockoutBlocks",
      "outputs": [
        {
          "internalType": "uint8",
          "name": "",
          "type": "uint8"
        }
      ],
      "stateMutability": "view",
      "type": "function"
    },
    {
      "inputs": [],
      "name": "getMinFee",
      "outputs": [
        {
          "internalType": "uint128",
          "name": "",
          "type": "uint128"
        }
      ],
      "stateMutability": "view",
      "type": "function"
    },
    {
      "inputs": [],
      "name": "getPenaltyFee",
      "outputs": [
        {
          "internalType": "uint128",
          "name": "",
          "type": "uint128"
        }
      ],
      "stateMutability": "view",
      "type": "function"
    },
    {
      "inputs": [
        {
          "internalType": "bytes32",
          "name": "role",
          "type": "bytes32"
        },
        {
          "internalType": "address",
          "name": "actor",
          "type": "address"
        }
      ],
      "name": "hasRole",
      "outputs": [
        {
          "internalType": "bool",
          "name": "",
          "type": "bool"
        }
      ],
      "stateMutability": "view",
      "type": "function"
    },
    {
      "inputs": [
        {
          "components": [
            {
              "internalType": "address",
              "name": "devTeam",
              "type": "address"
            },
            {
              "internalType": "uint128",
              "name": "minFee",
              "type": "uint128"
            },
            {
              "internalType": "uint128",
              "name": "penaltyFee",
              "type": "uint128"
            },
            {
              "internalType": "uint8",
              "name": "lockoutBlocks",
              "type": "uint8"
            }
          ],
          "internalType": "struct Types.Config",
          "name": "config",
          "type": "tuple"
        }
      ],
      "name": "initialize",
      "outputs": [],
      "stateMutability": "nonpayable",
      "type": "function"
    },
    {
      "inputs": [
        {
          "internalType": "bytes32",
          "name": "role",
          "type": "bytes32"
        },
        {
          "internalType": "address",
          "name": "actor",
          "type": "address"
        }
      ],
      "name": "revokeRole",
      "outputs": [],
      "stateMutability": "nonpayable",
      "type": "function"
    },
    {
      "inputs": [
        {
          "components": [
            {
              "internalType": "address",
              "name": "devTeam",
              "type": "address"
            },
            {
              "internalType": "uint128",
              "name": "minFee",
              "type": "uint128"
            },
            {
              "internalType": "uint128",
              "name": "penaltyFee",
              "type": "uint128"
            },
            {
              "internalType": "uint8",
              "name": "lockoutBlocks",
              "type": "uint8"
            }
          ],
          "internalType": "struct Types.Config",
          "name": "config",
          "type": "tuple"
        }
      ],
      "name": "setConfig",
      "outputs": [],
      "stateMutability": "nonpayable",
      "type": "function"
    },
    {
      "inputs": [
        {
          "internalType": "address",
          "name": "team",
          "type": "address"
        }
      ],
      "name": "setDevTeam",
      "outputs": [],
      "stateMutability": "nonpayable",
      "type": "function"
    },
    {
      "inputs": [
        {
          "internalType": "uint8",
          "name": "blocks",
          "type": "uint8"
        }
      ],
      "name": "setLockoutBlocks",
      "outputs": [],
      "stateMutability": "nonpayable",
      "type": "function"
    },
    {
      "inputs": [
        {
          "internalType": "uint128",
          "name": "fee",
          "type": "uint128"
        }
      ],
      "name": "setMinFee",
      "outputs": [],
      "stateMutability": "nonpayable",
      "type": "function"
    },
    {
      "inputs": [
        {
          "internalType": "uint128",
          "name": "fee",
          "type": "uint128"
        }
      ],
      "name": "setPenaltyFee",
      "outputs": [],
      "stateMutability": "nonpayable",
      "type": "function"
    },
    {
      "inputs": [
        {
          "internalType": "address",
          "name": "oldRelay",
          "type": "address"
        },
        {
          "internalType": "address",
          "name": "newRelay",
          "type": "address"
        }
      ],
      "name": "swapRelay",
      "outputs": [],
      "stateMutability": "nonpayable",
      "type": "function"
    },
    {
      "inputs": [
        {
          "components": [
            {
              "internalType": "address",
              "name": "trader",
              "type": "address"
            },
            {
              "components": [
                {
                  "internalType": "contract IERC20",
                  "name": "token",
                  "type": "address"
                },
                {
                  "internalType": "uint112",
                  "name": "amount",
                  "type": "uint112"
                }
              ],
              "internalType": "struct Types.TokenAmount",
              "name": "input",
              "type": "tuple"
            },
            {
              "components": [
                {
                  "internalType": "contract IERC20",
                  "name": "token",
                  "type": "address"
                },
                {
                  "internalType": "uint112",
                  "name": "amount",
                  "type": "uint112"
                }
              ],
              "internalType": "struct Types.TokenAmount",
              "name": "output",
              "type": "tuple"
            },
            {
              "components": [
                {
                  "internalType": "contract IERC20",
                  "name": "feeToken",
                  "type": "address"
                },
                {
                  "internalType": "address",
                  "name": "affiliate",
                  "type": "address"
                },
                {
                  "internalType": "uint256",
                  "name": "affiliatePortion",
                  "type": "uint256"
                },
                {
                  "internalType": "uint256",
                  "name": "feeTokenETHPrice",
                  "type": "uint256"
                },
                {
                  "internalType": "uint256",
                  "name": "dexibleFee",
                  "type": "uint256"
                },
                {
                  "internalType": "uint256",
                  "name": "gasFee",
                  "type": "uint256"
                }
              ],
              "internalType": "struct Types.V3Fees",
              "name": "fees",
              "type": "tuple"
            }
          ],
          "internalType": "struct Types.V3Order",
          "name": "order",
          "type": "tuple"
        },
        {
          "internalType": "contract IDexRouter",
          "name": "router",
          "type": "address"
        },
        {
          "internalType": "bytes",
          "name": "data",
          "type": "bytes"
        }
      ],
      "name": "v3Fill",
      "outputs": [],
      "stateMutability": "nonpayable",
      "type": "function"
    },
    {
      "inputs": [
        {
          "internalType": "uint256",
          "name": "amount",
          "type": "uint256"
        }
      ],
      "name": "withdraw",
      "outputs": [],
      "stateMutability": "nonpayable",
      "type": "function"
    },
    {
      "stateMutability": "payable",
      "type": "receive"
    }
  ],
  "bytecode": "0x608060405234801561001057600080fd5b50614c70806100206000396000f3fe60806040526004361061016a5760003560e01c806375b238fc116100d1578063b1cf4b0c1161008a578063d547741f11610064578063d547741f14610475578063e63ab1e914610495578063e959b38a146104aa578063f102669b146104ca576101b2565b8063b1cf4b0c14610411578063c13da01814610433578063c3f909d414610453576101b2565b806375b238fc1461033d578063775506101461035257806383a7fcfb146103675780638d3403fd14610396578063904cd9f5146103b657806391d14854146103e4576101b2565b806340ee75bb1161012357806340ee75bb146102795780634e1c6829146102995780635716d1ce146102b95780635cf34bcf146102d95780636a9447b5146102fb57806373dc63ea1461031d576101b2565b806304421823146101b757806327054df6146101e25780632e1a7d4d146101f7578063334c3c65146102195780633d191fa8146102395780633f51e18214610259576101b2565b366101b257336001600160a01b03167f4103257eaac983ca79a70d28f90dfc4fa16b619bb0c17ee7cab0d4034c279624346040516101a8919061416f565b60405180910390a2005b600080fd5b3480156101c357600080fd5b506101cc6104ea565b6040516101d9919061416f565b60405180910390f35b3480156101ee57600080fd5b506101cc6104fc565b34801561020357600080fd5b50610217610212366004613f1a565b610520565b005b34801561022557600080fd5b50610217610234366004613d14565b61060b565b34801561024557600080fd5b50610217610254366004613e5f565b6106b4565b34801561026557600080fd5b50610217610274366004613d14565b6107b3565b34801561028557600080fd5b50610217610294366004613b13565b610839565b3480156102a557600080fd5b506102176102b4366004613efe565b610899565b3480156102c557600080fd5b506102176102d4366004613ce9565b6108f9565b3480156102e557600080fd5b506102ee610a8f565b6040516101d991906148d7565b34801561030757600080fd5b50610310610aac565b6040516101d99190614092565b34801561032957600080fd5b50610217610338366004613e90565b610ac5565b34801561034957600080fd5b506101cc610b80565b34801561035e57600080fd5b506102ee610b92565b34801561037357600080fd5b50610387610382366004613e90565b610bb5565b6040516101d993929190614145565b3480156103a257600080fd5b506102176103b1366004613f4a565b610eca565b3480156103c257600080fd5b506103d66103d1366004613dd8565b610f21565b6040516101d992919061412a565b3480156103f057600080fd5b506104046103ff366004613cc5565b6111d3565b6040516101d9919061411f565b34801561041d57600080fd5b50610426611270565b6040516101d991906148eb565b34801561043f57600080fd5b5061021761044e366004613bca565b611286565b34801561045f57600080fd5b506104686112f0565b6040516101d9919061470f565b34801561048157600080fd5b50610217610490366004613cc5565b61138b565b3480156104a157600080fd5b506101cc6113d5565b3480156104b657600080fd5b506102176104c5366004613cc5565b6113f9565b3480156104d657600080fd5b506102176104e5366004613efe565b611439565b600080516020614af383398151915281565b7fd95061bdf0c43d77b6cbe1c15072292976244ec8d5012de75baa36e42da4625e81565b61053a600080516020614b9b8339815191526103ff6114a5565b61055f5760405162461bcd60e51b8152600401610556906146cd565b60405180910390fd5b4781111561057f5760405162461bcd60e51b8152600401610556906143ae565b6105876114a5565b6001600160a01b03166108fc829081150290604051600060405180830381858888f193505050501580156105bf573d6000803e3d6000fd5b506105c86114a5565b6001600160a01b03167faa21a47bc8f0df1a253be34a945b1d0a8f458e4da029c0ab59c1fee1e488c06682604051610600919061416f565b60405180910390a250565b610625600080516020614b9b8339815191526103ff6114a5565b6106415760405162461bcd60e51b8152600401610556906146cd565b6106496114a9565b6040516321cab0c760e01b815273__$015d7794271f690550e5fe4793e4b79169$__916321cab0c7916106819190859060040161471d565b60006040518083038186803b15801561069957600080fd5b505af41580156106ad573d6000803e3d6000fd5b5050505050565b6106ce600080516020614af38339815191526103ff6114a5565b6106ea5760405162461bcd60e51b8152600401610556906145a7565b6106f26114cd565b5460ff16156107135760405162461bcd60e51b81526004016105569061422a565b600161071d6114cd565b805460ff1916911515919091179055600061073b619c405a906114f1565b90506107456138d9565b61074e86611516565b9050610758613901565b610761876116aa565b90506000606061077383898989611862565b915091506107828985846119ac565b61078f8983838789611cc7565b5050505050600061079e6114cd565b805460ff191691151591909117905550505050565b60006107bd612268565b8054909150610100900460ff16806107d75750805460ff16155b6107f35760405162461bcd60e51b815260040161055690614656565b8054610100900460ff1615801561081b57815460ff1961ff0019909116610100171660011782555b6108248361228c565b801561083457815461ff00191682555b505050565b610853600080516020614b9b8339815191526103ff6114a5565b61086f5760405162461bcd60e51b8152600401610556906146cd565b806108786114a9565b80546001600160a01b0319166001600160a01b039290921691909117905550565b6108b3600080516020614b9b8339815191526103ff6114a5565b6108cf5760405162461bcd60e51b8152600401610556906146cd565b806108d86114a9565b60010180546001600160801b03928316600160801b02921691909117905550565b6000826001600160a01b031663dd62ed3e6109126114a5565b306040518363ffffffff1660e01b81526004016109309291906140a6565b60206040518083038186803b15801561094857600080fd5b505afa15801561095c573d6000803e3d6000fd5b505050506040513d601f19601f820116820180604052508101906109809190613f32565b9050818110156109a25760405162461bcd60e51b815260040161055690614570565b826001600160a01b03166323b872dd6109b96114a5565b30856040518463ffffffff1660e01b81526004016109d9939291906140c0565b602060405180830381600087803b1580156109f357600080fd5b505af1158015610a07573d6000803e3d6000fd5b505050506040513d601f19601f82011682018060405250810190610a2b9190613c02565b50604051632e1a7d4d60e01b81526001600160a01b03841690632e1a7d4d90610a5890859060040161416f565b600060405180830381600087803b158015610a7257600080fd5b505af1158015610a86573d6000803e3d6000fd5b50505050505050565b6000610a996114a9565b600101546001600160801b031690505b90565b6000610ab66114a9565b546001600160a01b0316905090565b610adf600080516020614af38339815191526103ff6114a5565b610afb5760405162461bcd60e51b8152600401610556906145a7565b610b036114cd565b5460ff1615610b245760405162461bcd60e51b81526004016105569061422a565b6001610b2e6114cd565b805460ff19169115159190911790556000610b4c619c405a906114f1565b90506000806060610b5f88888888612307565b925092509250610b7288848387866124c7565b50505050600061079e6114cd565b600080516020614b9b83398151915281565b6000610b9c6114a9565b60010154600160801b90046001600160801b0316919050565b6000806060333014610bd95760405162461bcd60e51b815260040161055690614527565b610be387876126f7565b610c18604051806040016040528060148152602001734465636f64696e6720746172676574206172677360601b8152506127d1565b6000806060610c2987890189613b2f565b925092509250610c6e6040518060400160405280601a81526020017f417070726f76696e67207370656e6420666f722074617267657400000000000081525083612814565b610c7e60408b0160208c01613b13565b6001600160a01b031663095ea7b38360006040518363ffffffff1660e01b8152600401610cac9291906140e4565b602060405180830381600087803b158015610cc657600080fd5b505af1158015610cda573d6000803e3d6000fd5b505050506040513d601f19601f82011682018060405250810190610cfe9190613c02565b610d0757600080fd5b610d1760408b0160208c01613b13565b6001600160a01b031663095ea7b383610d3660608e0160408f01613ee3565b6040518363ffffffff1660e01b8152600401610d539291906140fd565b602060405180830381600087803b158015610d6d57600080fd5b505af1158015610d81573d6000803e3d6000fd5b505050506040513d601f19601f82011682018060405250810190610da59190613c02565b610dae57600080fd5b610de26040518060400160405280601281526020017110d85b1b1a5b99c81cddd85c15185c99d95d60721b81525084612814565b610e0c6040518060400160405280600881526020016711d85cc81b19599d60c21b8152505a612859565b60006060846001600160a01b03165a84604051610e299190614076565b60006040518083038160008787f1925050503d8060008114610e67576040519150601f19603f3d011682016040523d82523d6000602084013e610e6c565b606091505b509150915081610e8e5760405162461bcd60e51b81526004016105569061442a565b600181806020019051810190610ea49190613f32565b6040518060200160405280600081525097509750975050505050505b9450945094915050565b610ee4600080516020614b9b8339815191526103ff6114a5565b610f005760405162461bcd60e51b8152600401610556906146cd565b80610f096114a9565b600201805460ff191660ff9290921691909117905550565b60006060333014610f445760405162461bcd60e51b815260040161055690614527565b610f5c610f5636889003880188613e43565b8661289e565b6000806060610f6d86880188613b2f565b925092509250610fb26040518060400160405280601a81526020017f417070726f76696e67207370656e6420666f722074617267657400000000000081525083612814565b610fc260c08a0160a08b01613b13565b6001600160a01b031663095ea7b38360006040518363ffffffff1660e01b8152600401610ff09291906140e4565b602060405180830381600087803b15801561100a57600080fd5b505af115801561101e573d6000803e3d6000fd5b505050506040513d601f19601f820116820180604052508101906110429190613c02565b61104b57600080fd5b61105b60c08a0160a08b01613b13565b6001600160a01b031663095ea7b38361107a60e08d0160c08e01613ee3565b6040518363ffffffff1660e01b81526004016110979291906140fd565b602060405180830381600087803b1580156110b157600080fd5b505af11580156110c5573d6000803e3d6000fd5b505050506040513d601f19601f820116820180604052508101906110e99190613c02565b6110f257600080fd5b6111266040518060400160405280601281526020017110d85b1b1a5b99c81cddd85c15185c99d95d60721b81525084612814565b60006060846001600160a01b03165a846040516111439190614076565b60006040518083038160008787f1925050503d8060008114611181576040519150601f19603f3d011682016040523d82523d6000602084013e611186565b606091505b50915091506111948161291c565b816111b15760405162461bcd60e51b81526004016105569061442a565b5060408051602081019091526000815290955093505050505b94509492505050565b60006111dd6114cd565b604051630f40931b60e41b815273__$712f9bd20561de4f0bfbc1442284f16fb4$__9163f40931b0916112179190879087906004016146f0565b60206040518083038186803b15801561122f57600080fd5b505af4158015611243573d6000803e3d6000fd5b505050506040513d601f19601f820116820180604052508101906112679190613c02565b90505b92915050565b600061127a6114a9565b6002015460ff16905090565b6112a0600080516020614b9b8339815191526103ff6114a5565b6112bc5760405162461bcd60e51b8152600401610556906146cd565b6112d4600080516020614af38339815191528361138b565b6112ec600080516020614af3833981519152826113f9565b5050565b6112f861395b565b6113006114a9565b604051636d73f0db60e01b815273__$015d7794271f690550e5fe4793e4b79169$__91636d73f0db91611336919060040161416f565b60806040518083038186803b15801561134e57600080fd5b505af4158015611362573d6000803e3d6000fd5b505050506040513d601f19601f820116820180604052508101906113869190613d7c565b905090565b6113a5600080516020614b9b8339815191526103ff6114a5565b6113c15760405162461bcd60e51b8152600401610556906146cd565b6112ec82826113ce6114cd565b919061295f565b7f65d7a28e3265b37a6474929f336521b332c1681b933f6cb9f3376673440d862a81565b611413600080516020614b9b8339815191526103ff6114a5565b61142f5760405162461bcd60e51b8152600401610556906146cd565b6112ec828261298e565b611453600080516020614b9b8339815191526103ff6114a5565b61146f5760405162461bcd60e51b8152600401610556906146cd565b806114786114a9565b60010180546fffffffffffffffffffffffffffffffff19166001600160801b039290921691909117905550565b3390565b7ff5b4be0a744c821d14f78bf26d55a308f420d78cebbfac103f2618fba32917b990565b7f3a83b1278d351a40f18bb9e8e77896e8c1dc812ffaed5ea63e0e837a6dae57e990565b6000828201838110156112675760405162461bcd60e51b815260040161055690614275565b61151e6138d9565b60a08201515182516040516370a0823160e01b81526000926001600160a01b0316916370a08231916115539190600401614092565b60206040518083038186803b15801561156b57600080fd5b505afa15801561157f573d6000803e3d6000fd5b505050506040513d601f19601f820116820180604052508101906115a39190613f32565b90508260a00151602001516001600160701b03168110156115d65760405162461bcd60e51b8152600401610556906144de565b6115df836129a2565b6115fb5760405162461bcd60e51b815260040161055690614493565b60405180608001604052808281526020018460c00151600001516001600160a01b03166370a08231306040518263ffffffff1660e01b81526004016116409190614092565b60206040518083038186803b15801561165857600080fd5b505afa15801561166c573d6000803e3d6000fd5b505050506040513d601f19601f820116820180604052508101906116909190613f32565b81526020016000815260200160008152509150505b919050565b6116b2613901565b8160a00151600001516001600160a01b031682602001516001600160a01b0316141561185e576117166040518060400160405280601c81526020017f54616b696e67206665652066726f6d206f757470757420746f6b656e000000008152506127d1565b60008080611728858660800151612a47565b909250905061175261173a83836114f1565b60a0870151602001516001600160701b031690612d0d565b92506117976040518060400160405280601081526020016f13db19081a5b9c1d5d08185b5bdd5b9d60821b8152508660a00151602001516001600160701b0316612859565b6117c96040518060400160405280601081526020016f13995dc81a5b9c1d5d08185b5bdd5b9d60821b81525084612859565b50506040518060e0016040528084600001516001600160a01b0316815260200184602001516001600160a01b0316815260200184604001518152602001846060015181526020018460800151815260200160405180604001604052808660a00151600001516001600160a01b03168152602001846001600160701b031681525081526020018460c001518152509150506116a5565b5090565b600060603063904cd9f5611879619c405a90612d0d565b888888886040518663ffffffff1660e01b815260040161189c9493929190614731565b600060405180830381600088803b1580156118b657600080fd5b5087f1935050505080156118ec57506040513d6000823e601f3d908101601f191682016040526118e99190810190613c1e565b60015b611971576118f8614976565b80611903575061193c565b600092508091506119366040518060400160405280600a8152602001692330b4b62932b0b9b7b760b11b81525082612d35565b5061196c565b50506040805180820190915260138152722ab735b737bbb7103330b4b6103932b0b9b7b760691b60208201526000905b6111ca565b816119a2576119a26040518060400160405280600a8152602001692330b4b62932b0b9b7b760b11b81525082612d35565b90925090506111ca565b60a08301515183516040516370a0823160e01b81526001600160a01b03909216916370a08231916119df91600401614092565b60206040518083038186803b1580156119f757600080fd5b505afa158015611a0b573d6000803e3d6000fd5b505050506040513d601f19601f82011682018060405250810190611a2f9190613f32565b826040018181525050611a8160405180604001604052806016815260200175115e1c1958dd1959081bdd5d1c1d5d08185b5bdd5b9d60521b8152508460c00151602001516001600160701b0316612859565b80611ae457611abb6040518060400160405280600f81526020016e24b7383aba103130b61030b33a32b960891b8152508360400151612859565b8151604083015114611adf5760405162461bcd60e51b815260040161055690614360565b610834565b60c0830151516040516370a0823160e01b81526001600160a01b03909116906370a0823190611b17903090600401614092565b60206040518083038186803b158015611b2f57600080fd5b505afa158015611b43573d6000803e3d6000fd5b505050506040513d601f19601f82011682018060405250810190611b679190613f32565b60608301526040805180820190915260208082527f4f757470757420746f6b656e2062616c616e6365206265666f7265207377617081830152830151611bad9190612859565b611bf06040518060400160405280601981526020017f4f75747075742062616c616e63652061667465722073776170000000000000008152508360600151612859565b611c3960405180604001604052806016815260200175115e1c1958dd1959081bdd5d1c1d5d08185b5bdd5b9d60521b8152508460c00151602001516001600160701b0316612859565b8260c00151602001516001600160701b0316611c6683602001518460600151612d0d90919063ffffffff16565b1015611c845760405162461bcd60e51b8152600401610556906145ca565b60a083015160200151604083015183516001600160701b0390921691611ca991612d0d565b11156108345760405162461bcd60e51b8152600401610556906143f3565b6000611ce061ea60611cda5a8590612d0d565b906114f1565b9050611d126040518060400160405280600e81526020016d151bdd185b0819d85cc81d5cd95960921b81525082612859565b6000611d1e823a612d7a565b9050611d49604051806040016040528060078152602001664761732066656560c81b81525082612859565b600080611d568985612a47565b9150915082471015611dd057611d83604051806060016040528060358152602001614b40603591396127d1565b611d8b6114a5565b6001600160a01b03167f4c0d6a438f19dfe41befe161c0bfdfca9f674028133bbaf37749b2d12f8f0dda84604051611dc3919061416f565b60405180910390a2611e98565b611e0e6040518060400160405280601c81526020017f5472616e73666572696e67206761732066656520746f2072656c6179000000008152506127d1565b611e166114a5565b6001600160a01b03166108fc849081150290604051600060405180830381858888f19350505050158015611e4e573d6000803e3d6000fd5b50611e576114a5565b6001600160a01b03167f91d09af90b128f3fb2907042440a531bca49791232cd8f59e1c629d96247d05784604051611e8f919061416f565b60405180910390a25b60008861201057829050611ed26040518060400160405280600e81526020016d4661696c6564206761732066656560901b81525082612859565b8960a00151600001516001600160a01b03168a602001516001600160a01b03161415611f8157611f19604051806060016040528060408152602001614a63604091396127d1565b8951611f4190611f276114a9565b5460208d01516001600160a01b0390811692911684612db4565b89600001516001600160a01b0316600080516020614ad3833981519152898c6020015184604051611f74939291906141b5565b60405180910390a2611fdf565b611fa2604051806080016040528060498152602001614bbb604991396127d1565b89600001516001600160a01b0316600080516020614ad3833981519152898c602001516000604051611fd6939291906141b5565b60405180910390a25b61200b6040518060400160405280600b81526020016a14ddd85c0819985a5b195960aa1b8152506127d1565b61225c565b61201a83836114f1565b9050600061203988602001518960600151612d0d90919063ffffffff16565b90506120706040518060400160405280601381526020017211dc9bdcdcc81bdd5d1c1d5d08185b5bdd5b9d606a1b81525082612859565b60008b60a00151600001516001600160a01b03168c602001516001600160a01b031614156120ea578190506120bd6040518060600160405280602d8152602001614b13602d913984612859565b8b516120e5906120cb6114a9565b5460208f01516001600160a01b0390811692911686612db4565b612175565b612123604051806040016040528060178152602001765265647563696e67206f7574707574206279206665657360481b81525084612859565b61212d8284612d0d565b9050612151604051806060016040528060268152602001614b756026913984612859565b61217561215c6114a9565b5460208e01516001600160a01b03908116911685612e12565b6121b46040518060400160405280601e81526020017f53656e64696e6720746f74616c206f757470757420746f20747261646572000081525082612859565b8b5160c08d0151516121d2916001600160a01b039091169083612e12565b8b600001516001600160a01b03167f3491be8ca1b3f4f9e7e74b9955a4600c2613ce85d639eaa123d5b733f59e93be8d60a0015160200151838f602001518989604051612223959493929190614864565b60405180910390a26122596040518060400160405280600d81526020016c046696e6973686564207377617609c1b8152506127d1565b50505b50505050505050505050565b7fd59dd79cfd4373c6c6547848d91fc2ea67c8aec9053f7028828216c5af1d474190565b6122946114a9565b6040516321cab0c760e01b815273__$015d7794271f690550e5fe4793e4b79169$__916321cab0c7916122cc9190859060040161471d565b60006040518083038186803b1580156122e457600080fd5b505af41580156122f8573d6000803e3d6000fd5b50505050612304612e31565b50565b6000806060306383a7fcfb61231f619c405a90612d0d565b898989896040518663ffffffff1660e01b815260040161234294939291906147b0565b600060405180830381600088803b15801561235c57600080fd5b5087f19350505050801561239257506040513d6000823e601f3d908101601f1916820160405261238f9190810190613c6d565b60015b61248a5761239e614976565b806123a95750612414565b6123d76040518060400160405280600c81526020016b22b93937b9103a343937bbb760a11b81525082612d35565b600093508091506000925061240e6040518060400160405280600a8152602001692330b4b62932b0b9b7b760b11b81525082612d35565b50612485565b6124526040518060400160405280601881526020017f556e6b6e6f776e2070726f626c656d206f6363757272656400000000000000008152506127d1565b50506040805180820190915260138152722ab735b737bbb7103330b4b6103932b0b9b7b760691b60208201526000915081905b610ec0565b826124bb576124bb6040518060400160405280600a8152602001692330b4b62932b0b9b7b760b11b81525082612d35565b91945092509050610ec0565b6124f26040518060400160405280600981526020016853746172742067617360b81b81525083612859565b61251c6040518060400160405280600881526020016711d85cc81b19599d60c21b8152505a612859565b600061252f61ea60611cda5a8690612d0d565b90506125616040518060400160405280600e81526020016d151bdd185b0819d85cc81d5cd95960921b81525082612859565b600061256d823a612d7a565b9050612598604051806040016040528060078152602001664761732066656560c81b81525082612859565b8047101561260e576125c1604051806060016040528060358152602001614b40603591396127d1565b6125c96114a5565b6001600160a01b03167f4c0d6a438f19dfe41befe161c0bfdfca9f674028133bbaf37749b2d12f8f0dda82604051612601919061416f565b60405180910390a26126d6565b61264c6040518060400160405280601c81526020017f5472616e73666572696e67206761732066656520746f2072656c6179000000008152506127d1565b6126546114a5565b6001600160a01b03166108fc829081150290604051600060405180830381858888f1935050505015801561268c573d6000803e3d6000fd5b506126956114a5565b6001600160a01b03167f91d09af90b128f3fb2907042440a531bca49791232cd8f59e1c629d96247d057826040516126cd919061416f565b60405180910390a25b856126ed576126e6878387612efa565b50506106ad565b610a8687846130b4565b604080518082018252601e81527f5472616e73666572696e6720696e70757420666f722074726164696e673a0000602082015261274c9161273e9060608601908601613ee3565b6001600160701b0316612859565b61279761275c6020840184613b13565b3061276d6060860160408701613ee3565b6001600160701b03166127866040870160208801613b13565b6001600160a01b0316929190612db4565b60408051808201909152600f81526e115e1c1958dd1959081bdd5d1c1d5d608a1b60208201526112ec9061273e60a0850160808601613ee3565b612304816040516024016127e59190614178565b60408051601f198184030181529190526020810180516001600160e01b031663104c13eb60e21b179052613556565b6112ec828260405160240161282a92919061418b565b60408051601f198184030181529190526020810180516001600160e01b031663319af33360e01b179052613556565b6112ec828260405160240161286f929190614208565b60408051601f198184030181529190526020810180516001600160e01b0316632d839cb360e21b179052613556565b6128ee6040518060400160405280601e81526020017f5472616e73666572696e6720696e70757420666f722074726164696e673a00008152508360a00151602001516001600160701b0316612859565b815160a0830151602081015190516112ec926001600160a01b039091169130906001600160701b0316612db4565b612304816040516024016129309190614178565b60408051601f198184030181529190526020810180516001600160e01b03166305f3bfab60e11b179052613556565b60009182526001909201602090815260408083206001600160a01b03909416835292905220805460ff19169055565b6112ec828261299b6114cd565b9190613577565b60a0810151602081015190518251604051636eb1769f60e11b815260009384936001600160701b03909116926001600160a01b039091169163dd62ed3e916129ee9130906004016140a6565b60206040518083038186803b158015612a0657600080fd5b505afa158015612a1a573d6000803e3d6000fd5b505050506040513d601f19601f82011682018060405250810190612a3e9190613f32565b10159392505050565b600080612a84604051806040016040528060198152602001782d2d2d2d20436f6d707574696e672046656573202d2d2d2d2d60381b8152506127d1565b604080518082019091526012815271115cdd1a5b585d19590819d85cc818dbdcdd60721b60208201523a840290612abb9082612859565b600085602001516001600160a01b031663313ce5676040518163ffffffff1660e01b815260040160206040518083038186803b158015612afa57600080fd5b505afa158015612b0e573d6000803e3d6000fd5b505050506040513d601f19601f82011682018060405250810190612b329190613f66565b60ff169050612b5b8660400151612b5583600a0a85612d7a90919063ffffffff16565b906135aa565b9350612b976040518060400160405280601881526020017723b0b9903837b93a34b7b71034b7103332b2903a37b5b2b760411b81525085612859565b612bd3604051806040016040528060168152602001754f72646572206e61746976652055534420707269636560501b8152508760600151612859565b612c166040518060400160405280601c81526020017f4f726465722066656520746f6b656e206e6174697665207072696365000000008152508760400151612859565b6000612c3387604001518860600151612d7a90919063ffffffff16565b9050612c6d60405180604001604052806016815260200175119959481d1bdad95b881c1c9a58d9481a5b881554d160521b81525082612859565b612c9681612b5584602401600a0a612c836114a9565b600101546001600160801b031690612d7a565b9350612cc56040518060400160405280600b81526020016a44657869626c652066656560a81b81525085612859565b612d036040518060400160405280601a81526020017f2d2d2d2d20456e6420636f6d707574652066656573202d2d2d2d0000000000008152506127d1565b5050509250929050565b600082821115612d2f5760405162461bcd60e51b8152600401610556906142ac565b50900390565b6112ec8282604051602401612d4b9291906141e3565b60408051601f198184030181529190526020810180516001600160e01b0316634b5c427760e01b179052613556565b600082612d895750600061126a565b82820282848281612d9657fe5b04146112675760405162461bcd60e51b815260040161055690614452565b612e0c846323b872dd60e01b858585604051602401612dd5939291906140c0565b60408051601f198184030181529190526020810180516001600160e01b03166001600160e01b0319909316929092179091526135dc565b50505050565b6108348363a9059cbb60e01b8484604051602401612dd59291906140e4565b6000612e3b612268565b8054909150610100900460ff1680612e555750805460ff16155b612e715760405162461bcd60e51b815260040161055690614656565b8054610100900460ff16158015612e9957815460ff1961ff0019909116610100171660011782555b6000612ea36114a5565b9050612ebd600080516020614b9b8339815191528261298e565b612ee77f65d7a28e3265b37a6474929f336521b332c1681b933f6cb9f3376673440d862a8261298e565b5080156112ec5750805461ff0019169055565b6000612f06848461366b565b9050612f386040518060400160405280600e81526020016d4661696c6564206761732066656560901b81525082612859565b612f486040850160208601613b13565b6001600160a01b0316612f6160c0860160a08701613b13565b6001600160a01b0316141561301757612f91604051806060016040528060408152602001614a63604091396127d1565b612fc4612fa16020860186613b13565b612fa96114a9565b546001600160a01b03168361278660c0890160a08a01613b13565b612fd16020850185613b13565b6001600160a01b0316600080516020614ad383398151915283612ffa60c0880160a08901613b13565b8460405161300a939291906141b5565b60405180910390a2613088565b613038604051806080016040528060498152602001614bbb604991396127d1565b6130456020850185613b13565b6001600160a01b0316600080516020614ad38339815191528361306e60c0880160a08901613b13565b600060405161307f939291906141b5565b60405180910390a25b612e0c6040518060400160405280600b81526020016a14ddd85c0819985a5b195960aa1b8152506127d1565b60408051808201909152601381527211dc9bdcdcc81bdd5d1c1d5d08185b5bdd5b9d606a1b602082015281906130ea9082612859565b600080613109610140860135611cda61012088013560e08901356114f1565b905061311b6040860160208701613b13565b6001600160a01b031661313460c0870160a08801613b13565b6001600160a01b0316141561329e57829150613168604051806060016040528060378152602001614c046037913982612859565b60e085013515613253576131b86040518060400160405280602081526020017f5472616e7366657272696e6720616d6f756e7420746f20616666696c696174658152508660a00160400135612859565b6131ed6131c86020870187613b13565b6131d860e0880160c08901613b13565b60e088013561278660c08a0160a08b01613b13565b6131fd60e0860160c08701613b13565b6001600160a01b03167f1fd11cde99de9e2e6d2bc710c225ae2e03d1e8eece69b0c552c7ae2bb3499a7061323760c0880160a08901613b13565b60405161324a919060e08a0135906140e4565b60405180910390a25b6132996132636020870187613b13565b61326b6114a9565b546001600160a01b03166132896101208901356101408a01356114f1565b61278660c08a0160a08b01613b13565b61342c565b6132d7604051806040016040528060178152602001765265647563696e67206f7574707574206279206665657360481b81525082612859565b6132e18382612d0d565b915060e0850135156133d1576133336040518060400160405280602081526020017f5472616e7366657272696e6720616d6f756e7420746f20616666696c696174658152508660a00160400135612859565b61336b61334660e0870160c08801613b13565b60e087013561335b60c0890160a08a01613b13565b6001600160a01b03169190612e12565b61337b60e0860160c08701613b13565b6001600160a01b03167f1fd11cde99de9e2e6d2bc710c225ae2e03d1e8eece69b0c552c7ae2bb3499a706133b560c0880160a08901613b13565b6040516133c8919060e08a0135906140e4565b60405180910390a25b6133f3604051806060016040528060308152602001614aa36030913982612859565b61342c6133fe6114a9565b546001600160a01b031661341c6101208801356101408901356114f1565b61335b60c0890160a08a01613b13565b61346b6040518060400160405280601e81526020017f53656e64696e6720746f74616c206f757470757420746f20747261646572000081525083612859565b61348c61347b6020870187613b13565b8361335b6080890160608a01613b13565b61349c60e0860160c08701613b13565b6001600160a01b03166134b26020870187613b13565b6001600160a01b03167f729e31e77c59767ea792c7ae2063c6e4275684ac458cfddba999d2f7a78a1fa06134ec6060890160408a01613ee3565b856134fd60c08b0160a08c01613b13565b604051613520939291906101408d01359060e08e0135906101208f01359061489b565b60405180910390a36106ad6040518060400160405280600d81526020016c046696e6973686564207377617609c1b8152506127d1565b80516a636f6e736f6c652e6c6f67602083016000808483855afa5050505050565b60009182526001928301602090815260408084206001600160a01b0390931684529190529020805460ff19169091179055565b60008082116135cb5760405162461bcd60e51b815260040161055690614329565b8183816135d457fe5b049392505050565b6060613631826040518060400160405280602081526020017f5361666545524332303a206c6f772d6c6576656c2063616c6c206661696c6564815250856001600160a01b03166137c09092919063ffffffff16565b805190915015610834578080602001905181019061364f9190613c02565b6108345760405162461bcd60e51b815260040161055690614683565b60006136a7604051806040016040528060198152602001782d2d2d2d20436f6d707574696e672046656573202d2d2d2d2d60381b8152506127d1565b604080518082019091526012815271115cdd1a5b585d19590819d85cc818dbdcdd60721b60208201523a8302906136de9082612859565b60006136f060c0860160a08701613b13565b6001600160a01b031663313ce5676040518163ffffffff1660e01b815260040160206040518083038186803b15801561372857600080fd5b505afa15801561373c573d6000803e3d6000fd5b505050506040513d601f19601f820116820180604052508101906137609190613f66565b60ff16905061377c610100860135612b5584600a85900a612d7a565b92506137b86040518060400160405280601881526020017723b0b9903837b93a34b7b71034b7103332b2903a37b5b2b760411b81525084612859565b505092915050565b60606137cf84846000856137d9565b90505b9392505050565b6060824710156137fb5760405162461bcd60e51b8152600401610556906142e3565b6138048561389a565b6138205760405162461bcd60e51b81526004016105569061461f565b60006060866001600160a01b0316858760405161383d9190614076565b60006040518083038185875af1925050503d806000811461387a576040519150601f19603f3d011682016040523d82523d6000602084013e61387f565b606091505b509150915061388f8282866138a0565b979650505050505050565b3b151590565b606083156138af5750816137d2565b8251156138bf5782518084602001fd5b8160405162461bcd60e51b81526004016105569190614178565b6040518060800160405280600081526020016000815260200160008152602001600081525090565b6040518060e0016040528060006001600160a01b0316815260200160006001600160a01b03168152602001600081526020016000815260200160008152602001613949613982565b8152602001613956613982565b905290565b60408051608081018252600080825260208201819052918101829052606081019190915290565b604080518082019091526000808252602082015290565b60008083601f8401126139aa578182fd5b50813567ffffffffffffffff8111156139c1578182fd5b6020830191508360208285010111156139d957600080fd5b9250929050565b600082601f8301126139f0578081fd5b8151613a036139fe82614920565b6148f9565b9150808252836020828501011115613a1a57600080fd5b613a2b816020840160208601614944565b5092915050565b60006101208284031215613a44578081fd5b613a4e60e06148f9565b90508135613a5b81614a1b565b81526020820135613a6b81614a1b565b80602083015250604082013560408201526060820135606082015260808201356080820152613a9d8360a08401613aba565b60a0820152613aaf8360e08401613aba565b60c082015292915050565b600060408284031215613acb578081fd5b613ad560406148f9565b90508135613ae281614a1b565b8152613af18360208401613afc565b602082015292915050565b80356001600160701b038116811461126a57600080fd5b600060208284031215613b24578081fd5b813561126781614a1b565b600080600060608486031215613b43578182fd5b8335613b4e81614a1b565b92506020840135613b5e81614a1b565b9150604084013567ffffffffffffffff811115613b79578182fd5b8401601f81018613613b89578182fd5b8035613b976139fe82614920565b818152876020838501011115613bab578384fd5b8160208401602083013783602083830101528093505050509250925092565b60008060408385031215613bdc578182fd5b8235613be781614a1b565b91506020830135613bf781614a1b565b809150509250929050565b600060208284031215613c13578081fd5b815161126781614a30565b60008060408385031215613c30578182fd5b8251613c3b81614a30565b602084015190925067ffffffffffffffff811115613c57578182fd5b613c63858286016139e0565b9150509250929050565b600080600060608486031215613c81578081fd5b8351613c8c81614a30565b60208501516040860151919450925067ffffffffffffffff811115613caf578182fd5b613cbb868287016139e0565b9150509250925092565b60008060408385031215613cd7578182fd5b823591506020830135613bf781614a1b565b60008060408385031215613cfb578182fd5b8235613d0681614a1b565b946020939093013593505050565b600060808284031215613d25578081fd5b613d2f60806148f9565b8235613d3a81614a1b565b81526020830135613d4a81614a3e565b60208201526040830135613d5d81614a3e565b60408201526060830135613d7081614a53565b60608201529392505050565b600060808284031215613d8d578081fd5b613d9760806148f9565b8251613da281614a1b565b81526020830151613db281614a3e565b60208201526040830151613dc581614a3e565b60408201526060830151613d7081614a53565b600080600080848603610160811215613def578283fd5b61012080821215613dfe578384fd5b8695508501359050613e0f81614a1b565b925061014085013567ffffffffffffffff811115613e2b578283fd5b613e3787828801613999565b95989497509550505050565b60006101208284031215613e55578081fd5b6112678383613a32565b6000806000806101608587031215613e75578182fd5b613e7f8686613a32565b9350610120850135613e0f81614a1b565b6000806000808486036101a0811215613ea7578283fd5b61016080821215613eb6578384fd5b8695508501359050613ec781614a1b565b925061018085013567ffffffffffffffff811115613e2b578283fd5b600060208284031215613ef4578081fd5b6112678383613afc565b600060208284031215613f0f578081fd5b813561126781614a3e565b600060208284031215613f2b578081fd5b5035919050565b600060208284031215613f43578081fd5b5051919050565b600060208284031215613f5b578081fd5b813561126781614a53565b600060208284031215613f77578081fd5b815161126781614a53565b60008284528282602086013780602084860101526020601f19601f85011685010190509392505050565b60008151808452613fc4816020860160208601614944565b601f01601f19169290920160200192915050565b80516001600160a01b031682526020808201516001600160801b03908116918401919091526040808301519091169083015260609081015160ff16910152565b803561402381614a1b565b6001600160a01b0316825260208101356001600160701b03811680821461404957600080fd5b80602085015250505050565b80516001600160a01b031682526020908101516001600160701b0316910152565b60008251614088818460208701614944565b9190910192915050565b6001600160a01b0391909116815260200190565b6001600160a01b0392831681529116602082015260400190565b6001600160a01b039384168152919092166020820152604081019190915260600190565b6001600160a01b03929092168252602082015260400190565b6001600160a01b039290921682526001600160701b0316602082015260400190565b901515815260200190565b60008315158252604060208301526137cf6040830184613fac565b60008415158252836020830152606060408301526141666060830184613fac565b95945050505050565b90815260200190565b6000602082526112676020830184613fac565b60006040825261419e6040830185613fac565b905060018060a01b03831660208301529392505050565b6000606082526141c86060830186613fac565b6001600160a01b039490941660208301525060400152919050565b6000604082526141f66040830185613fac565b82810360208401526141668185613fac565b60006040825261421b6040830185613fac565b90508260208301529392505050565b6020808252602b908201527f417474656d7074696e6720746f2072652d656e7465722066756e6374696f6e2060408201526a7265637572736976656c7960a81b606082015260800190565b6020808252601b908201527f536166654d6174683a206164646974696f6e206f766572666c6f770000000000604082015260600190565b6020808252601e908201527f536166654d6174683a207375627472616374696f6e206f766572666c6f770000604082015260600190565b60208082526026908201527f416464726573733a20696e73756666696369656e742062616c616e636520666f6040820152651c8818d85b1b60d21b606082015260800190565b6020808252601a908201527f536166654d6174683a206469766973696f6e206279207a65726f000000000000604082015260600190565b6020808252602e908201527f6661696c656420747261646520616374696f6e20646964206e6f74207265667560408201526d6e6420696e7075742066756e647360901b606082015260800190565b60208082526025908201527f496e73756666696369656e742062616c616e636520746f206d616b65207472616040820152643739b332b960d91b606082015260800190565b6020808252601a908201527f5573656420746f6f206d616e7920696e70757420746f6b656e73000000000000604082015260600190565b6020808252600e908201526d04661696c656420746f20737761760941b604082015260600190565b60208082526021908201527f536166654d6174683a206d756c7469706c69636174696f6e206f766572666c6f6040820152607760f81b606082015260800190565b6020808252602b908201527f496e73756666696369656e74207370656e6420616c6c6f77616e6365206f6e2060408201526a34b7383aba103a37b5b2b760a91b606082015260800190565b60208082526029908201527f496e73756666696369656e7420696e70757420746f6b656e2062616c616e636560408201526820746f20747261646560b81b606082015260800190565b60208082526029908201527f43616e206f6e6c792062652063616c6c656420627920736574746c656d656e746040820152680818dbdb9d1c9858dd60ba1b606082015260800190565b6020808252601c908201527f496e73756666696369656e74207370656e6420616c6c6f77616e636500000000604082015260600190565b6020808252600990820152684e6f742072656c617960b81b604082015260600190565b60208082526035908201527f547261646520616374696f6e20646964206e6f74207472616e73666572206f756040820152743a383aba103a37b5b2b739903a37903a3930b232b960591b606082015260800190565b6020808252601d908201527f416464726573733a2063616c6c20746f206e6f6e2d636f6e7472616374000000604082015260600190565b602080825260139082015272105b1c9958591e481a5b9a5d1a585b1a5e9959606a1b604082015260600190565b6020808252602a908201527f5361666545524332303a204552433230206f7065726174696f6e20646964206e6040820152691bdd081cdd58d8d9595960b21b606082015260800190565b6020808252600990820152682737ba1030b236b4b760b91b604082015260600190565b92835260208301919091526001600160a01b0316604082015260600190565b6080810161126a8284613fd8565b82815260a081016137d26020830184613fd8565b600061016060018060a01b0380885116845280602089015116602085015260408801516040850152606088015160608501526080880151608085015260a088015161477f60a0860182614055565b5060c088015161479260e0860182614055565b508616610120840152610140830181905261388f8184018587613f82565b60006101a086356147c081614a1b565b6001600160a01b0381811685526147dd6020808701908b01614018565b6147ed6060860160608b01614018565b60a089013591506147fd82614a1b565b90811660a085015260c08801359061481482614a1b565b90811660c085015260e088810135908501526101008089013590850152610120808901359085015261014080890135908501528616610160840152610180830181905261388f8184018587613f82565b6001600160701b0395909516855260208501939093526001600160a01b039190911660408401526060830152608082015260a00190565b6001600160701b0396909616865260208601949094526001600160a01b039290921660408501526060840152608083015260a082015260c00190565b6001600160801b0391909116815260200190565b60ff91909116815260200190565b60405181810167ffffffffffffffff8111828210171561491857600080fd5b604052919050565b600067ffffffffffffffff821115614936578081fd5b50601f01601f191660200190565b60005b8381101561495f578181015183820152602001614947565b83811115612e0c5750506000910152565b60e01c90565b600060443d101561498657610aa9565b600481823e6308c379a061499a8251614970565b146149a457610aa9565b6040513d600319016004823e80513d67ffffffffffffffff81602484011181841117156149d45750505050610aa9565b828401925082519150808211156149ee5750505050610aa9565b503d83016020828401011115614a0657505050610aa9565b601f01601f1916810160200160405291505090565b6001600160a01b038116811461230457600080fd5b801515811461230457600080fd5b6001600160801b038116811461230457600080fd5b60ff8116811461230457600080fdfe5472616e7366657272696e67207061727469616c20696e70757420746f6b656e20746f206465767465616d20666f72206661696c75726520676173206665657353656e64696e6720666565732066726f6d206f757470757420746f6b656e20746f207465616d2f616666696c696174659f52afa9b861b0c4b200f58dace31f1f5776b94207a3047c075d6a087e25de5e077a1d526a4ce8a773632ab13b4fbbf1fcc954c3dab26cd27ea0e2a6750da5d75472616e7366657272696e6720666565732066726f6d20696e70757420746f6b656e20746f206465765465616d43616e6e6f74207265696d62757273652072656c61792073696e636520646f206e6f74206861766520656e6f7567682066756e647353656e64696e6720666565732066726f6d206f757470757420746f6b656e20746f207465616da49807205ce4d355092ef5a8a18f56e8913cf4a201fbe287825b095693c2177546656520746f6b656e206973206f75747075743b207468657265666f72652063616e6e6f74207265696d6275727365207465616d20666f72206661696c7572652067617320666565735472616e7366657272696e6720666565732066726f6d20696e70757420746f6b656e20746f206465765465616d2f616666696c69617465a26469706673582212200f8c59120185fbd6d2ae5352e3ab9b2d0e1ee0c7443f05f18c4eecc503d0352e64736f6c63430007000033",
  "linkReferences": {
    "contracts/libs/LibAccess.sol": {
      "LibAccess": [
        {
          "length": 20,
          "start": 4620
        }
      ]
    },
    "contracts/libs/LibConfig.sol": {
      "LibConfig": [
        {
          "length": 20,
          "start": 1656
        },
        {
          "length": 20,
          "start": 4911
        },
        {
          "length": 20,
          "start": 8899
        }
      ]
    }
  },
  "deployedLinkReferences": {
    "contracts/libs/LibAccess.sol": {
      "LibAccess": [
        {
          "length": 20,
          "start": 4588
        }
      ]
    },
    "contracts/libs/LibConfig.sol": {
      "LibConfig": [
        {
          "length": 20,
          "start": 1624
        },
        {
          "length": 20,
          "start": 4879
        },
        {
          "length": 20,
          "start": 8867
        }
      ]
    }
  }
}