{
  "_format": "hh-sol-artifact-1",
  "contractName": "Settlement",
  "sourceName": "contracts/Settlement.sol",
  "abi": [
    {
      "anonymous": false,
      "inputs": [
        {
          "indexed": true,
          "internalType": "address",
          "name": "relay",
          "type": "address"
        },
        {
          "indexed": false,
          "internalType": "uint256",
          "name": "amount",
          "type": "uint256"
        }
      ],
      "name": "InsufficientGasFunds",
      "type": "event"
    },
    {
      "anonymous": false,
      "inputs": [
        {
          "indexed": true,
          "internalType": "address",
          "name": "relay",
          "type": "address"
        },
        {
          "indexed": false,
          "internalType": "uint256",
          "name": "amount",
          "type": "uint256"
        }
      ],
      "name": "PaidGasFunds",
      "type": "event"
    },
    {
      "anonymous": false,
      "inputs": [
        {
          "indexed": true,
          "internalType": "address",
          "name": "sender",
          "type": "address"
        },
        {
          "indexed": false,
          "internalType": "uint256",
          "name": "amount",
          "type": "uint256"
        }
      ],
      "name": "ReceivedETH",
      "type": "event"
    },
    {
      "anonymous": false,
      "inputs": [
        {
          "indexed": true,
          "internalType": "address",
          "name": "trader",
          "type": "address"
        },
        {
          "indexed": false,
          "internalType": "string",
          "name": "reason",
          "type": "string"
        },
        {
          "indexed": false,
          "internalType": "contract IERC20",
          "name": "feeToken",
          "type": "address"
        },
        {
          "indexed": false,
          "internalType": "uint256",
          "name": "gasFeePaid",
          "type": "uint256"
        }
      ],
      "name": "SwapFailed",
      "type": "event"
    },
    {
      "anonymous": false,
      "inputs": [
        {
          "indexed": true,
          "internalType": "address",
          "name": "trader",
          "type": "address"
        },
        {
          "indexed": false,
          "internalType": "uint256",
          "name": "inputAmount",
          "type": "uint256"
        },
        {
          "indexed": false,
          "internalType": "uint256",
          "name": "outputAmount",
          "type": "uint256"
        },
        {
          "indexed": false,
          "internalType": "contract IERC20",
          "name": "feeToken",
          "type": "address"
        },
        {
          "indexed": false,
          "internalType": "uint256",
          "name": "gasFee",
          "type": "uint256"
        },
        {
          "indexed": false,
          "internalType": "uint256",
          "name": "dexibleFee",
          "type": "uint256"
        }
      ],
      "name": "SwapSuccess",
      "type": "event"
    },
    {
      "anonymous": false,
      "inputs": [
        {
          "indexed": true,
          "internalType": "address",
          "name": "trader",
          "type": "address"
        },
        {
          "indexed": false,
          "internalType": "uint256",
          "name": "penalty",
          "type": "uint256"
        },
        {
          "indexed": false,
          "internalType": "uint256",
          "name": "gasPaid",
          "type": "uint256"
        },
        {
          "indexed": false,
          "internalType": "string",
          "name": "reason",
          "type": "string"
        }
      ],
      "name": "TraderPenalized",
      "type": "event"
    },
    {
      "anonymous": false,
      "inputs": [
        {
          "indexed": true,
          "internalType": "address",
          "name": "receiver",
          "type": "address"
        },
        {
          "indexed": false,
          "internalType": "uint256",
          "name": "amount",
          "type": "uint256"
        }
      ],
      "name": "WithdrewETH",
      "type": "event"
    },
    {
      "inputs": [],
      "name": "ACTION_ROLE",
      "outputs": [
        {
          "internalType": "bytes32",
          "name": "",
          "type": "bytes32"
        }
      ],
      "stateMutability": "view",
      "type": "function"
    },
    {
      "inputs": [],
      "name": "ADMIN_ROLE",
      "outputs": [
        {
          "internalType": "bytes32",
          "name": "",
          "type": "bytes32"
        }
      ],
      "stateMutability": "view",
      "type": "function"
    },
    {
      "inputs": [],
      "name": "PAUSER_ROLE",
      "outputs": [
        {
          "internalType": "bytes32",
          "name": "",
          "type": "bytes32"
        }
      ],
      "stateMutability": "view",
      "type": "function"
    },
    {
      "inputs": [],
      "name": "RELAY_ROLE",
      "outputs": [
        {
          "internalType": "bytes32",
          "name": "",
          "type": "bytes32"
        }
      ],
      "stateMutability": "view",
      "type": "function"
    },
    {
      "inputs": [
        {
          "components": [
            {
              "internalType": "address",
              "name": "trader",
              "type": "address"
            },
            {
              "internalType": "contract IERC20",
              "name": "feeToken",
              "type": "address"
            },
            {
              "internalType": "uint256",
              "name": "feeTokenETHPrice",
              "type": "uint256"
            },
            {
              "internalType": "uint256",
              "name": "ethUSDPrice",
              "type": "uint256"
            },
            {
              "internalType": "uint256",
              "name": "gasEstimate",
              "type": "uint256"
            },
            {
              "components": [
                {
                  "internalType": "contract IERC20",
                  "name": "token",
                  "type": "address"
                },
                {
                  "internalType": "uint112",
                  "name": "amount",
                  "type": "uint112"
                }
              ],
              "internalType": "struct Types.TokenAmount",
              "name": "input",
              "type": "tuple"
            },
            {
              "components": [
                {
                  "internalType": "contract IERC20",
                  "name": "token",
                  "type": "address"
                },
                {
                  "internalType": "uint112",
                  "name": "amount",
                  "type": "uint112"
                }
              ],
              "internalType": "struct Types.TokenAmount",
              "name": "output",
              "type": "tuple"
            }
          ],
          "internalType": "struct Types.Order",
          "name": "order",
          "type": "tuple"
        },
        {
          "internalType": "contract IDexRouter",
          "name": "router",
          "type": "address"
        },
        {
          "internalType": "bytes",
          "name": "data",
          "type": "bytes"
        }
      ],
      "name": "_trySwap",
      "outputs": [
        {
          "internalType": "bool",
          "name": "success",
          "type": "bool"
        },
        {
          "internalType": "string",
          "name": "failReason",
          "type": "string"
        }
      ],
      "stateMutability": "nonpayable",
      "type": "function"
    },
    {
      "inputs": [
        {
          "internalType": "bytes32",
          "name": "role",
          "type": "bytes32"
        },
        {
          "internalType": "address",
          "name": "actor",
          "type": "address"
        }
      ],
      "name": "addRole",
      "outputs": [],
      "stateMutability": "nonpayable",
      "type": "function"
    },
    {
      "inputs": [
        {
          "internalType": "contract WNative",
          "name": "native",
          "type": "address"
        },
        {
          "internalType": "uint256",
          "name": "amount",
          "type": "uint256"
        }
      ],
      "name": "depositWNative",
      "outputs": [],
      "stateMutability": "nonpayable",
      "type": "function"
    },
    {
      "inputs": [
        {
          "components": [
            {
              "internalType": "address",
              "name": "trader",
              "type": "address"
            },
            {
              "internalType": "contract IERC20",
              "name": "feeToken",
              "type": "address"
            },
            {
              "internalType": "uint256",
              "name": "feeTokenETHPrice",
              "type": "uint256"
            },
            {
              "internalType": "uint256",
              "name": "ethUSDPrice",
              "type": "uint256"
            },
            {
              "internalType": "uint256",
              "name": "gasEstimate",
              "type": "uint256"
            },
            {
              "components": [
                {
                  "internalType": "contract IERC20",
                  "name": "token",
                  "type": "address"
                },
                {
                  "internalType": "uint112",
                  "name": "amount",
                  "type": "uint112"
                }
              ],
              "internalType": "struct Types.TokenAmount",
              "name": "input",
              "type": "tuple"
            },
            {
              "components": [
                {
                  "internalType": "contract IERC20",
                  "name": "token",
                  "type": "address"
                },
                {
                  "internalType": "uint112",
                  "name": "amount",
                  "type": "uint112"
                }
              ],
              "internalType": "struct Types.TokenAmount",
              "name": "output",
              "type": "tuple"
            }
          ],
          "internalType": "struct Types.Order",
          "name": "order",
          "type": "tuple"
        },
        {
          "internalType": "contract IDexRouter",
          "name": "router",
          "type": "address"
        },
        {
          "internalType": "bytes",
          "name": "data",
          "type": "bytes"
        }
      ],
      "name": "fill",
      "outputs": [],
      "stateMutability": "nonpayable",
      "type": "function"
    },
    {
      "inputs": [],
      "name": "getConfig",
      "outputs": [
        {
          "components": [
            {
              "internalType": "address",
              "name": "devTeam",
              "type": "address"
            },
            {
              "internalType": "uint128",
              "name": "minFee",
              "type": "uint128"
            },
            {
              "internalType": "uint128",
              "name": "penaltyFee",
              "type": "uint128"
            },
            {
              "internalType": "uint8",
              "name": "lockoutBlocks",
              "type": "uint8"
            }
          ],
          "internalType": "struct Types.Config",
          "name": "",
          "type": "tuple"
        }
      ],
      "stateMutability": "view",
      "type": "function"
    },
    {
      "inputs": [],
      "name": "getDevTeam",
      "outputs": [
        {
          "internalType": "address",
          "name": "",
          "type": "address"
        }
      ],
      "stateMutability": "view",
      "type": "function"
    },
    {
      "inputs": [],
      "name": "getLockoutBlocks",
      "outputs": [
        {
          "internalType": "uint8",
          "name": "",
          "type": "uint8"
        }
      ],
      "stateMutability": "view",
      "type": "function"
    },
    {
      "inputs": [],
      "name": "getMinFee",
      "outputs": [
        {
          "internalType": "uint128",
          "name": "",
          "type": "uint128"
        }
      ],
      "stateMutability": "view",
      "type": "function"
    },
    {
      "inputs": [],
      "name": "getPenaltyFee",
      "outputs": [
        {
          "internalType": "uint128",
          "name": "",
          "type": "uint128"
        }
      ],
      "stateMutability": "view",
      "type": "function"
    },
    {
      "inputs": [
        {
          "internalType": "bytes32",
          "name": "role",
          "type": "bytes32"
        },
        {
          "internalType": "address",
          "name": "actor",
          "type": "address"
        }
      ],
      "name": "hasRole",
      "outputs": [
        {
          "internalType": "bool",
          "name": "",
          "type": "bool"
        }
      ],
      "stateMutability": "view",
      "type": "function"
    },
    {
      "inputs": [
        {
          "components": [
            {
              "internalType": "address",
              "name": "devTeam",
              "type": "address"
            },
            {
              "internalType": "uint128",
              "name": "minFee",
              "type": "uint128"
            },
            {
              "internalType": "uint128",
              "name": "penaltyFee",
              "type": "uint128"
            },
            {
              "internalType": "uint8",
              "name": "lockoutBlocks",
              "type": "uint8"
            }
          ],
          "internalType": "struct Types.Config",
          "name": "config",
          "type": "tuple"
        }
      ],
      "name": "initialize",
      "outputs": [],
      "stateMutability": "nonpayable",
      "type": "function"
    },
    {
      "inputs": [
        {
          "internalType": "bytes32",
          "name": "role",
          "type": "bytes32"
        },
        {
          "internalType": "address",
          "name": "actor",
          "type": "address"
        }
      ],
      "name": "revokeRole",
      "outputs": [],
      "stateMutability": "nonpayable",
      "type": "function"
    },
    {
      "inputs": [
        {
          "components": [
            {
              "internalType": "address",
              "name": "devTeam",
              "type": "address"
            },
            {
              "internalType": "uint128",
              "name": "minFee",
              "type": "uint128"
            },
            {
              "internalType": "uint128",
              "name": "penaltyFee",
              "type": "uint128"
            },
            {
              "internalType": "uint8",
              "name": "lockoutBlocks",
              "type": "uint8"
            }
          ],
          "internalType": "struct Types.Config",
          "name": "config",
          "type": "tuple"
        }
      ],
      "name": "setConfig",
      "outputs": [],
      "stateMutability": "nonpayable",
      "type": "function"
    },
    {
      "inputs": [
        {
          "internalType": "address",
          "name": "team",
          "type": "address"
        }
      ],
      "name": "setDevTeam",
      "outputs": [],
      "stateMutability": "nonpayable",
      "type": "function"
    },
    {
      "inputs": [
        {
          "internalType": "uint8",
          "name": "blocks",
          "type": "uint8"
        }
      ],
      "name": "setLockoutBlocks",
      "outputs": [],
      "stateMutability": "nonpayable",
      "type": "function"
    },
    {
      "inputs": [
        {
          "internalType": "uint128",
          "name": "fee",
          "type": "uint128"
        }
      ],
      "name": "setMinFee",
      "outputs": [],
      "stateMutability": "nonpayable",
      "type": "function"
    },
    {
      "inputs": [
        {
          "internalType": "uint128",
          "name": "fee",
          "type": "uint128"
        }
      ],
      "name": "setPenaltyFee",
      "outputs": [],
      "stateMutability": "nonpayable",
      "type": "function"
    },
    {
      "inputs": [
        {
          "internalType": "address",
          "name": "oldRelay",
          "type": "address"
        },
        {
          "internalType": "address",
          "name": "newRelay",
          "type": "address"
        }
      ],
      "name": "swapRelay",
      "outputs": [],
      "stateMutability": "nonpayable",
      "type": "function"
    },
    {
      "inputs": [
        {
          "internalType": "uint256",
          "name": "amount",
          "type": "uint256"
        }
      ],
      "name": "withdraw",
      "outputs": [],
      "stateMutability": "nonpayable",
      "type": "function"
    },
    {
      "stateMutability": "payable",
      "type": "receive"
    }
  ],
  "bytecode": "0x608060405234801561001057600080fd5b5061397f806100206000396000f3fe6080604052600436106101445760003560e01c806375b238fc116100b6578063c13da0181161006f578063c13da018146103be578063c3f909d4146103de578063d547741f14610400578063e63ab1e914610420578063e959b38a14610435578063f102669b146104555761018c565b806375b238fc146102f7578063775506101461030c5780638d3403fd14610321578063904cd9f51461034157806391d148541461036f578063b1cf4b0c1461039c5761018c565b80633f51e182116101085780633f51e1821461023357806340ee75bb146102535780634e1c6829146102735780635716d1ce146102935780635cf34bcf146102b35780636a9447b5146102d55761018c565b8063044218231461019157806327054df6146101bc5780632e1a7d4d146101d1578063334c3c65146101f35780633d191fa8146102135761018c565b3661018c57336001600160a01b03167f4103257eaac983ca79a70d28f90dfc4fa16b619bb0c17ee7cab0d4034c279624346040516101829190612fec565b60405180910390a2005b600080fd5b34801561019d57600080fd5b506101a6610475565b6040516101b39190612fec565b60405180910390f35b3480156101c857600080fd5b506101a6610487565b3480156101dd57600080fd5b506101f16101ec366004612dfe565b6104ab565b005b3480156101ff57600080fd5b506101f161020e366004612c3f565b610596565b34801561021f57600080fd5b506101f161022e366004612d8a565b61063f565b34801561023f57600080fd5b506101f161024e366004612c3f565b61073e565b34801561025f57600080fd5b506101f161026e366004612a57565b6107c4565b34801561027f57600080fd5b506101f161028e366004612de2565b610824565b34801561029f57600080fd5b506101f16102ae366004612c14565b610884565b3480156102bf57600080fd5b506102c8610a1a565b6040516101b3919061366d565b3480156102e157600080fd5b506102ea610a37565b6040516101b39190612f39565b34801561030357600080fd5b506101a6610a50565b34801561031857600080fd5b506102c8610a62565b34801561032d57600080fd5b506101f161033c366004612e2e565b610a85565b34801561034d57600080fd5b5061036161035c366004612d03565b610adc565b6040516101b3929190612fd1565b34801561037b57600080fd5b5061038f61038a366004612bf0565b610d8e565b6040516101b39190612fc6565b3480156103a857600080fd5b506103b1610e2b565b6040516101b39190613681565b3480156103ca57600080fd5b506101f16103d9366004612b13565b610e41565b3480156103ea57600080fd5b506103f3610eab565b6040516101b39190613595565b34801561040c57600080fd5b506101f161041b366004612bf0565b610f46565b34801561042c57600080fd5b506101a6610f90565b34801561044157600080fd5b506101f1610450366004612bf0565b610fb4565b34801561046157600080fd5b506101f1610470366004612de2565b610ff4565b60008051602061383983398151915281565b7fd95061bdf0c43d77b6cbe1c15072292976244ec8d5012de75baa36e42da4625e81565b6104c56000805160206138e183398151915261038a611060565b6104ea5760405162461bcd60e51b81526004016104e190613553565b60405180910390fd5b4781111561050a5760405162461bcd60e51b81526004016104e190613234565b610512611060565b6001600160a01b03166108fc829081150290604051600060405180830381858888f1935050505015801561054a573d6000803e3d6000fd5b50610553611060565b6001600160a01b03167faa21a47bc8f0df1a253be34a945b1d0a8f458e4da029c0ab59c1fee1e488c0668260405161058b9190612fec565b60405180910390a250565b6105b06000805160206138e183398151915261038a611060565b6105cc5760405162461bcd60e51b81526004016104e190613553565b6105d4611064565b6040516321cab0c760e01b815273__$015d7794271f690550e5fe4793e4b79169$__916321cab0c79161060c919085906004016135a3565b60006040518083038186803b15801561062457600080fd5b505af4158015610638573d6000803e3d6000fd5b5050505050565b61065960008051602061383983398151915261038a611060565b6106755760405162461bcd60e51b81526004016104e19061342d565b61067d611088565b5460ff161561069e5760405162461bcd60e51b81526004016104e1906130b0565b60016106a8611088565b805460ff191691151591909117905560006106c6619c405a906110ac565b90506106d0612879565b6106d9866110d1565b90506106e36128a1565b6106ec87611265565b9050600060606106fe8389898961141d565b9150915061070d898584611567565b61071a89838387896118af565b50505050506000610729611088565b805460ff191691151591909117905550505050565b6000610748611e7a565b8054909150610100900460ff16806107625750805460ff16155b61077e5760405162461bcd60e51b81526004016104e1906134dc565b8054610100900460ff161580156107a657815460ff1961ff0019909116610100171660011782555b6107af83611e9e565b80156107bf57815461ff00191682555b505050565b6107de6000805160206138e183398151915261038a611060565b6107fa5760405162461bcd60e51b81526004016104e190613553565b80610803611064565b80546001600160a01b0319166001600160a01b039290921691909117905550565b61083e6000805160206138e183398151915261038a611060565b61085a5760405162461bcd60e51b81526004016104e190613553565b80610863611064565b60010180546001600160801b03928316600160801b02921691909117905550565b6000826001600160a01b031663dd62ed3e61089d611060565b306040518363ffffffff1660e01b81526004016108bb929190612f4d565b60206040518083038186803b1580156108d357600080fd5b505afa1580156108e7573d6000803e3d6000fd5b505050506040513d601f19601f8201168201806040525081019061090b9190612e16565b90508181101561092d5760405162461bcd60e51b81526004016104e1906133f6565b826001600160a01b03166323b872dd610944611060565b30856040518463ffffffff1660e01b815260040161096493929190612f67565b602060405180830381600087803b15801561097e57600080fd5b505af1158015610992573d6000803e3d6000fd5b505050506040513d601f19601f820116820180604052508101906109b69190612b4b565b50604051632e1a7d4d60e01b81526001600160a01b03841690632e1a7d4d906109e3908590600401612fec565b600060405180830381600087803b1580156109fd57600080fd5b505af1158015610a11573d6000803e3d6000fd5b50505050505050565b6000610a24611064565b600101546001600160801b031690505b90565b6000610a41611064565b546001600160a01b0316905090565b6000805160206138e183398151915281565b6000610a6c611064565b60010154600160801b90046001600160801b0316919050565b610a9f6000805160206138e183398151915261038a611060565b610abb5760405162461bcd60e51b81526004016104e190613553565b80610ac4611064565b600201805460ff191660ff9290921691909117905550565b60006060333014610aff5760405162461bcd60e51b81526004016104e1906133ad565b610b17610b1136889003880188612d6e565b86611f19565b6000806060610b2886880188612a73565b925092509250610b6d6040518060400160405280601a81526020017f417070726f76696e67207370656e6420666f722074617267657400000000000081525083611f97565b610b7d60c08a0160a08b01612a57565b6001600160a01b031663095ea7b38360006040518363ffffffff1660e01b8152600401610bab929190612f8b565b602060405180830381600087803b158015610bc557600080fd5b505af1158015610bd9573d6000803e3d6000fd5b505050506040513d601f19601f82011682018060405250810190610bfd9190612b4b565b610c0657600080fd5b610c1660c08a0160a08b01612a57565b6001600160a01b031663095ea7b383610c3560e08d0160c08e01612dbb565b6040518363ffffffff1660e01b8152600401610c52929190612fa4565b602060405180830381600087803b158015610c6c57600080fd5b505af1158015610c80573d6000803e3d6000fd5b505050506040513d601f19601f82011682018060405250810190610ca49190612b4b565b610cad57600080fd5b610ce16040518060400160405280601281526020017110d85b1b1a5b99c81cddd85c15185c99d95d60721b81525084611f97565b60006060846001600160a01b03165a84604051610cfe9190612f1d565b60006040518083038160008787f1925050503d8060008114610d3c576040519150601f19603f3d011682016040523d82523d6000602084013e610d41565b606091505b5091509150610d4f81611fdc565b81610d6c5760405162461bcd60e51b81526004016104e1906132b0565b5060408051602081019091526000815290955093505050505b94509492505050565b6000610d98611088565b604051630f40931b60e41b815273__$712f9bd20561de4f0bfbc1442284f16fb4$__9163f40931b091610dd2919087908790600401613576565b60206040518083038186803b158015610dea57600080fd5b505af4158015610dfe573d6000803e3d6000fd5b505050506040513d601f19601f82011682018060405250810190610e229190612b4b565b90505b92915050565b6000610e35611064565b6002015460ff16905090565b610e5b6000805160206138e183398151915261038a611060565b610e775760405162461bcd60e51b81526004016104e190613553565b610e8f60008051602061383983398151915283610f46565b610ea760008051602061383983398151915282610fb4565b5050565b610eb36128fb565b610ebb611064565b604051636d73f0db60e01b815273__$015d7794271f690550e5fe4793e4b79169$__91636d73f0db91610ef19190600401612fec565b60806040518083038186803b158015610f0957600080fd5b505af4158015610f1d573d6000803e3d6000fd5b505050506040513d601f19601f82011682018060405250810190610f419190612ca7565b905090565b610f606000805160206138e183398151915261038a611060565b610f7c5760405162461bcd60e51b81526004016104e190613553565b610ea78282610f89611088565b919061201f565b7f65d7a28e3265b37a6474929f336521b332c1681b933f6cb9f3376673440d862a81565b610fce6000805160206138e183398151915261038a611060565b610fea5760405162461bcd60e51b81526004016104e190613553565b610ea7828261204e565b61100e6000805160206138e183398151915261038a611060565b61102a5760405162461bcd60e51b81526004016104e190613553565b80611033611064565b60010180546fffffffffffffffffffffffffffffffff19166001600160801b039290921691909117905550565b3390565b7ff5b4be0a744c821d14f78bf26d55a308f420d78cebbfac103f2618fba32917b990565b7f3a83b1278d351a40f18bb9e8e77896e8c1dc812ffaed5ea63e0e837a6dae57e990565b600082820183811015610e225760405162461bcd60e51b81526004016104e1906130fb565b6110d9612879565b60a08201515182516040516370a0823160e01b81526000926001600160a01b0316916370a082319161110e9190600401612f39565b60206040518083038186803b15801561112657600080fd5b505afa15801561113a573d6000803e3d6000fd5b505050506040513d601f19601f8201168201806040525081019061115e9190612e16565b90508260a00151602001516001600160701b03168110156111915760405162461bcd60e51b81526004016104e190613364565b61119a83612062565b6111b65760405162461bcd60e51b81526004016104e190613319565b60405180608001604052808281526020018460c00151600001516001600160a01b03166370a08231306040518263ffffffff1660e01b81526004016111fb9190612f39565b60206040518083038186803b15801561121357600080fd5b505afa158015611227573d6000803e3d6000fd5b505050506040513d601f19601f8201168201806040525081019061124b9190612e16565b81526020016000815260200160008152509150505b919050565b61126d6128a1565b8160a00151600001516001600160a01b031682602001516001600160a01b03161415611419576112d16040518060400160405280601c81526020017f54616b696e67206665652066726f6d206f757470757420746f6b656e00000000815250612107565b600080806112e385866080015161214a565b909250905061130d6112f583836110ac565b60a0870151602001516001600160701b031690612419565b92506113526040518060400160405280601081526020016f13db19081a5b9c1d5d08185b5bdd5b9d60821b8152508660a00151602001516001600160701b0316612441565b6113846040518060400160405280601081526020016f13995dc81a5b9c1d5d08185b5bdd5b9d60821b81525084612441565b50506040518060e0016040528084600001516001600160a01b0316815260200184602001516001600160a01b0316815260200184604001518152602001846060015181526020018460800151815260200160405180604001604052808660a00151600001516001600160a01b03168152602001846001600160701b031681525081526020018460c00151815250915050611260565b5090565b600060603063904cd9f5611434619c405a90612419565b888888886040518663ffffffff1660e01b815260040161145794939291906135b7565b600060405180830381600088803b15801561147157600080fd5b5087f1935050505080156114a757506040513d6000823e601f3d908101601f191682016040526114a49190810190612b67565b60015b61152c576114b361370c565b806114be57506114f7565b600092508091506114f16040518060400160405280600a8152602001692330b4b62932b0b9b7b760b11b81525082612486565b50611527565b50506040805180820190915260138152722ab735b737bbb7103330b4b6103932b0b9b7b760691b60208201526000905b610d85565b8161155d5761155d6040518060400160405280600a8152602001692330b4b62932b0b9b7b760b11b81525082612486565b9092509050610d85565b60a08301515183516040516370a0823160e01b81526001600160a01b03909216916370a082319161159a91600401612f39565b60206040518083038186803b1580156115b257600080fd5b505afa1580156115c6573d6000803e3d6000fd5b505050506040513d601f19601f820116820180604052508101906115ea9190612e16565b6040808401919091528051808201909152600c81526b125b9c1d5d0818985b08188d60a21b602082015282516116209190612441565b61166960405180604001604052806016815260200175115e1c1958dd1959081bdd5d1c1d5d08185b5bdd5b9d60521b8152508460c00151602001516001600160701b0316612441565b806116cc576116a36040518060400160405280600f81526020016e24b7383aba103130b61030b33a32b960891b8152508360400151612441565b81516040830151146116c75760405162461bcd60e51b81526004016104e1906131e6565b6107bf565b60c0830151516040516370a0823160e01b81526001600160a01b03909116906370a08231906116ff903090600401612f39565b60206040518083038186803b15801561171757600080fd5b505afa15801561172b573d6000803e3d6000fd5b505050506040513d601f19601f8201168201806040525081019061174f9190612e16565b60608301526040805180820190915260208082527f4f757470757420746f6b656e2062616c616e6365206265666f72652073776170818301528301516117959190612441565b6117d86040518060400160405280601981526020017f4f75747075742062616c616e63652061667465722073776170000000000000008152508360600151612441565b61182160405180604001604052806016815260200175115e1c1958dd1959081bdd5d1c1d5d08185b5bdd5b9d60521b8152508460c00151602001516001600160701b0316612441565b8260c00151602001516001600160701b031661184e8360200151846060015161241990919063ffffffff16565b101561186c5760405162461bcd60e51b81526004016104e190613450565b60a083015160200151604083015183516001600160701b039092169161189191612419565b11156107bf5760405162461bcd60e51b81526004016104e190613279565b60006118c861ea606118c25a8590612419565b906110ac565b90506118fa6040518060400160405280600e81526020016d151bdd185b0819d85cc81d5cd95960921b81525082612441565b6000611906823a6124cb565b9050611931604051806040016040528060078152602001664761732066656560c81b81525082612441565b60008061193e898561214a565b91509150824710156119b85761196b60405180606001604052806035815260200161388660359139612107565b611973611060565b6001600160a01b03167f4c0d6a438f19dfe41befe161c0bfdfca9f674028133bbaf37749b2d12f8f0dda846040516119ab9190612fec565b60405180910390a2611a80565b6119f66040518060400160405280601c81526020017f5472616e73666572696e67206761732066656520746f2072656c617900000000815250612107565b6119fe611060565b6001600160a01b03166108fc849081150290604051600060405180830381858888f19350505050158015611a36573d6000803e3d6000fd5b50611a3f611060565b6001600160a01b03167f91d09af90b128f3fb2907042440a531bca49791232cd8f59e1c629d96247d05784604051611a779190612fec565b60405180910390a25b600088611c1c57829050611aba6040518060400160405280600e81526020016d4661696c6564206761732066656560901b81525082612441565b8960a00151600001516001600160a01b03168a602001516001600160a01b03161415611b7b57611b016040518060600160405280604081526020016137f960409139612107565b8951611b2990611b0f611064565b5460208d01516001600160a01b0390811692911684612505565b89600001516001600160a01b03167f9f52afa9b861b0c4b200f58dace31f1f5776b94207a3047c075d6a087e25de5e898c6020015184604051611b6e93929190613032565b60405180910390a2611beb565b611b9c60405180608001604052806049815260200161390160499139612107565b89600001516001600160a01b03167f9f52afa9b861b0c4b200f58dace31f1f5776b94207a3047c075d6a087e25de5e898c602001516000604051611be293929190613032565b60405180910390a25b611c176040518060400160405280600b81526020016a14ddd85c0819985a5b195960aa1b815250612107565b611e6e565b611c2683836110ac565b90506000611c458860200151896060015161241990919063ffffffff16565b9050611c7c6040518060400160405280601381526020017211dc9bdcdcc81bdd5d1c1d5d08185b5bdd5b9d606a1b81525082612441565b60008b60a00151600001516001600160a01b03168c602001516001600160a01b03161415611cf657819050611cc96040518060600160405280602d8152602001613859602d913984612441565b8b51611cf190611cd7611064565b5460208f01516001600160a01b0390811692911686612505565b611d87565b611d356040518060400160405280601781526020017f5265647563696e67206f7574707574206279206665657300000000000000000081525084612441565b611d3f8284612419565b9050611d636040518060600160405280602681526020016138bb6026913984612441565b611d87611d6e611064565b5460208e01516001600160a01b03908116911685612563565b611dc66040518060400160405280601e81526020017f53656e64696e6720746f74616c206f757470757420746f20747261646572000081525082612441565b8b5160c08d015151611de4916001600160a01b039091169083612563565b8b600001516001600160a01b03167f3491be8ca1b3f4f9e7e74b9955a4600c2613ce85d639eaa123d5b733f59e93be8d60a0015160200151838f602001518989604051611e35959493929190613636565b60405180910390a2611e6b6040518060400160405280600d81526020016c046696e6973686564207377617609c1b815250612107565b50505b50505050505050505050565b7fd59dd79cfd4373c6c6547848d91fc2ea67c8aec9053f7028828216c5af1d474190565b611ea6611064565b6040516321cab0c760e01b815273__$015d7794271f690550e5fe4793e4b79169$__916321cab0c791611ede919085906004016135a3565b60006040518083038186803b158015611ef657600080fd5b505af4158015611f0a573d6000803e3d6000fd5b50505050611f16612582565b50565b611f696040518060400160405280601e81526020017f5472616e73666572696e6720696e70757420666f722074726164696e673a00008152508360a00151602001516001600160701b0316612441565b815160a083015160208101519051610ea7926001600160a01b039091169130906001600160701b0316612505565b610ea78282604051602401611fad929190613008565b60408051601f198184030181529190526020810180516001600160e01b031663319af33360e01b17905261264b565b611f1681604051602401611ff09190612ff5565b60408051601f198184030181529190526020810180516001600160e01b03166305f3bfab60e11b17905261264b565b60009182526001909201602090815260408083206001600160a01b03909416835292905220805460ff19169055565b610ea7828261205b611088565b919061266c565b60a0810151602081015190518251604051636eb1769f60e11b815260009384936001600160701b03909116926001600160a01b039091169163dd62ed3e916120ae913090600401612f4d565b60206040518083038186803b1580156120c657600080fd5b505afa1580156120da573d6000803e3d6000fd5b505050506040513d601f19601f820116820180604052508101906120fe9190612e16565b10159392505050565b611f168160405160240161211b9190612ff5565b60408051601f198184030181529190526020810180516001600160e01b031663104c13eb60e21b17905261264b565b60008061218b6040518060400160405280601981526020017f2d2d2d2d20436f6d707574696e672046656573202d2d2d2d2d00000000000000815250612107565b604080518082019091526012815271115cdd1a5b585d19590819d85cc818dbdcdd60721b60208201523a8402906121c29082612441565b600085602001516001600160a01b031663313ce5676040518163ffffffff1660e01b815260040160206040518083038186803b15801561220157600080fd5b505afa158015612215573d6000803e3d6000fd5b505050506040513d601f19601f820116820180604052508101906122399190612e4a565b60ff169050612262866040015161225c83600a0a856124cb90919063ffffffff16565b9061269f565b93506122a36040518060400160405280601881526020017f47617320706f7274696f6e20696e2066656520746f6b656e000000000000000081525085612441565b6122df604051806040016040528060168152602001754f72646572206e61746976652055534420707269636560501b8152508760600151612441565b6123226040518060400160405280601c81526020017f4f726465722066656520746f6b656e206e6174697665207072696365000000008152508760400151612441565b600061233f876040015188606001516124cb90919063ffffffff16565b905061237960405180604001604052806016815260200175119959481d1bdad95b881c1c9a58d9481a5b881554d160521b81525082612441565b6123a28161225c84602401600a0a61238f611064565b600101546001600160801b0316906124cb565b93506123d16040518060400160405280600b81526020016a44657869626c652066656560a81b81525085612441565b61240f6040518060400160405280601a81526020017f2d2d2d2d20456e6420636f6d707574652066656573202d2d2d2d000000000000815250612107565b5050509250929050565b60008282111561243b5760405162461bcd60e51b81526004016104e190613132565b50900390565b610ea7828260405160240161245792919061308e565b60408051601f198184030181529190526020810180516001600160e01b03166309710a9d60e41b17905261264b565b610ea7828260405160240161249c929190613060565b60408051601f198184030181529190526020810180516001600160e01b0316634b5c427760e01b17905261264b565b6000826124da57506000610e25565b828202828482816124e757fe5b0414610e225760405162461bcd60e51b81526004016104e1906132d8565b61255d846323b872dd60e01b85858560405160240161252693929190612f67565b60408051601f198184030181529190526020810180516001600160e01b03166001600160e01b0319909316929092179091526126d1565b50505050565b6107bf8363a9059cbb60e01b8484604051602401612526929190612f8b565b600061258c611e7a565b8054909150610100900460ff16806125a65750805460ff16155b6125c25760405162461bcd60e51b81526004016104e1906134dc565b8054610100900460ff161580156125ea57815460ff1961ff0019909116610100171660011782555b60006125f4611060565b905061260e6000805160206138e18339815191528261204e565b6126387f65d7a28e3265b37a6474929f336521b332c1681b933f6cb9f3376673440d862a8261204e565b508015610ea75750805461ff0019169055565b80516a636f6e736f6c652e6c6f67602083016000808483855afa5050505050565b60009182526001928301602090815260408084206001600160a01b0390931684529190529020805460ff19169091179055565b60008082116126c05760405162461bcd60e51b81526004016104e1906131af565b8183816126c957fe5b049392505050565b6060612726826040518060400160405280602081526020017f5361666545524332303a206c6f772d6c6576656c2063616c6c206661696c6564815250856001600160a01b03166127609092919063ffffffff16565b8051909150156107bf57808060200190518101906127449190612b4b565b6107bf5760405162461bcd60e51b81526004016104e190613509565b606061276f8484600085612779565b90505b9392505050565b60608247101561279b5760405162461bcd60e51b81526004016104e190613169565b6127a48561283a565b6127c05760405162461bcd60e51b81526004016104e1906134a5565b60006060866001600160a01b031685876040516127dd9190612f1d565b60006040518083038185875af1925050503d806000811461281a576040519150601f19603f3d011682016040523d82523d6000602084013e61281f565b606091505b509150915061282f828286612840565b979650505050505050565b3b151590565b6060831561284f575081612772565b82511561285f5782518084602001fd5b8160405162461bcd60e51b81526004016104e19190612ff5565b6040518060800160405280600081526020016000815260200160008152602001600081525090565b6040518060e0016040528060006001600160a01b0316815260200160006001600160a01b031681526020016000815260200160008152602001600081526020016128e9612922565b81526020016128f6612922565b905290565b60408051608081018252600080825260208201819052918101829052606081019190915290565b604080518082019091526000808252602082015290565b60008083601f84011261294a578182fd5b50813567ffffffffffffffff811115612961578182fd5b60208301915083602082850101111561297957600080fd5b9250929050565b60006101208284031215612992578081fd5b61299c60e061368f565b905081356129a9816137b1565b815260208201356129b9816137b1565b806020830152506040820135604082015260608201356060820152608082013560808201526129eb8360a08401612a08565b60a08201526129fd8360e08401612a08565b60c082015292915050565b600060408284031215612a19578081fd5b612a23604061368f565b90508135612a30816137b1565b815260208201356001600160701b0381168114612a4c57600080fd5b602082015292915050565b600060208284031215612a68578081fd5b8135610e22816137b1565b600080600060608486031215612a87578182fd5b8335612a92816137b1565b92506020840135612aa2816137b1565b9150604084013567ffffffffffffffff811115612abd578182fd5b8401601f81018613612acd578182fd5b8035612ae0612adb826136b6565b61368f565b818152876020838501011115612af4578384fd5b8160208401602083013783602083830101528093505050509250925092565b60008060408385031215612b25578182fd5b8235612b30816137b1565b91506020830135612b40816137b1565b809150509250929050565b600060208284031215612b5c578081fd5b8151610e22816137c6565b60008060408385031215612b79578182fd5b8251612b84816137c6565b602084015190925067ffffffffffffffff811115612ba0578182fd5b8301601f81018513612bb0578182fd5b8051612bbe612adb826136b6565b818152866020838501011115612bd2578384fd5b612be38260208301602086016136da565b8093505050509250929050565b60008060408385031215612c02578182fd5b823591506020830135612b40816137b1565b60008060408385031215612c26578182fd5b8235612c31816137b1565b946020939093013593505050565b600060808284031215612c50578081fd5b612c5a608061368f565b8235612c65816137b1565b81526020830135612c75816137d4565b60208201526040830135612c88816137d4565b60408201526060830135612c9b816137e9565b60608201529392505050565b600060808284031215612cb8578081fd5b612cc2608061368f565b8251612ccd816137b1565b81526020830151612cdd816137d4565b60208201526040830151612cf0816137d4565b60408201526060830151612c9b816137e9565b600080600080848603610160811215612d1a578283fd5b61012080821215612d29578384fd5b8695508501359050612d3a816137b1565b925061014085013567ffffffffffffffff811115612d56578283fd5b612d6287828801612939565b95989497509550505050565b60006101208284031215612d80578081fd5b610e228383612980565b6000806000806101608587031215612da0578182fd5b612daa8686612980565b9350610120850135612d3a816137b1565b600060208284031215612dcc578081fd5b81356001600160701b0381168114610e22578182fd5b600060208284031215612df3578081fd5b8135610e22816137d4565b600060208284031215612e0f578081fd5b5035919050565b600060208284031215612e27578081fd5b5051919050565b600060208284031215612e3f578081fd5b8135610e22816137e9565b600060208284031215612e5b578081fd5b8151610e22816137e9565b60008284528282602086013780602084860101526020601f19601f85011685010190509392505050565b60008151808452612ea88160208601602086016136da565b601f01601f19169290920160200192915050565b80516001600160a01b031682526020808201516001600160801b03908116918401919091526040808301519091169083015260609081015160ff16910152565b80516001600160a01b031682526020908101516001600160701b0316910152565b60008251612f2f8184602087016136da565b9190910192915050565b6001600160a01b0391909116815260200190565b6001600160a01b0392831681529116602082015260400190565b6001600160a01b039384168152919092166020820152604081019190915260600190565b6001600160a01b03929092168252602082015260400190565b6001600160a01b039290921682526001600160701b0316602082015260400190565b901515815260200190565b600083151582526040602083015261276f6040830184612e90565b90815260200190565b600060208252610e226020830184612e90565b60006040825261301b6040830185612e90565b905060018060a01b03831660208301529392505050565b6000606082526130456060830186612e90565b6001600160a01b039490941660208301525060400152919050565b6000604082526130736040830185612e90565b82810360208401526130858185612e90565b95945050505050565b6000604082526130a16040830185612e90565b90508260208301529392505050565b6020808252602b908201527f417474656d7074696e6720746f2072652d656e7465722066756e6374696f6e2060408201526a7265637572736976656c7960a81b606082015260800190565b6020808252601b908201527f536166654d6174683a206164646974696f6e206f766572666c6f770000000000604082015260600190565b6020808252601e908201527f536166654d6174683a207375627472616374696f6e206f766572666c6f770000604082015260600190565b60208082526026908201527f416464726573733a20696e73756666696369656e742062616c616e636520666f6040820152651c8818d85b1b60d21b606082015260800190565b6020808252601a908201527f536166654d6174683a206469766973696f6e206279207a65726f000000000000604082015260600190565b6020808252602e908201527f6661696c656420747261646520616374696f6e20646964206e6f74207265667560408201526d6e6420696e7075742066756e647360901b606082015260800190565b60208082526025908201527f496e73756666696369656e742062616c616e636520746f206d616b65207472616040820152643739b332b960d91b606082015260800190565b6020808252601a908201527f5573656420746f6f206d616e7920696e70757420746f6b656e73000000000000604082015260600190565b6020808252600e908201526d04661696c656420746f20737761760941b604082015260600190565b60208082526021908201527f536166654d6174683a206d756c7469706c69636174696f6e206f766572666c6f6040820152607760f81b606082015260800190565b6020808252602b908201527f496e73756666696369656e74207370656e6420616c6c6f77616e6365206f6e2060408201526a34b7383aba103a37b5b2b760a91b606082015260800190565b60208082526029908201527f496e73756666696369656e7420696e70757420746f6b656e2062616c616e636560408201526820746f20747261646560b81b606082015260800190565b60208082526029908201527f43616e206f6e6c792062652063616c6c656420627920736574746c656d656e746040820152680818dbdb9d1c9858dd60ba1b606082015260800190565b6020808252601c908201527f496e73756666696369656e74207370656e6420616c6c6f77616e636500000000604082015260600190565b6020808252600990820152684e6f742072656c617960b81b604082015260600190565b60208082526035908201527f547261646520616374696f6e20646964206e6f74207472616e73666572206f756040820152743a383aba103a37b5b2b739903a37903a3930b232b960591b606082015260800190565b6020808252601d908201527f416464726573733a2063616c6c20746f206e6f6e2d636f6e7472616374000000604082015260600190565b602080825260139082015272105b1c9958591e481a5b9a5d1a585b1a5e9959606a1b604082015260600190565b6020808252602a908201527f5361666545524332303a204552433230206f7065726174696f6e20646964206e6040820152691bdd081cdd58d8d9595960b21b606082015260800190565b6020808252600990820152682737ba1030b236b4b760b91b604082015260600190565b92835260208301919091526001600160a01b0316604082015260600190565b60808101610e258284612ebc565b82815260a081016127726020830184612ebc565b600061016060018060a01b0380885116845280602089015116602085015260408801516040850152606088015160608501526080880151608085015260a088015161360560a0860182612efc565b5060c088015161361860e0860182612efc565b508616610120840152610140830181905261282f8184018587612e66565b6001600160701b0395909516855260208501939093526001600160a01b039190911660408401526060830152608082015260a00190565b6001600160801b0391909116815260200190565b60ff91909116815260200190565b60405181810167ffffffffffffffff811182821017156136ae57600080fd5b604052919050565b600067ffffffffffffffff8211156136cc578081fd5b50601f01601f191660200190565b60005b838110156136f55781810151838201526020016136dd565b8381111561255d5750506000910152565b60e01c90565b600060443d101561371c57610a34565b600481823e6308c379a06137308251613706565b1461373a57610a34565b6040513d600319016004823e80513d67ffffffffffffffff816024840111818411171561376a5750505050610a34565b828401925082519150808211156137845750505050610a34565b503d8301602082840101111561379c57505050610a34565b601f01601f1916810160200160405291505090565b6001600160a01b0381168114611f1657600080fd5b8015158114611f1657600080fd5b6001600160801b0381168114611f1657600080fd5b60ff81168114611f1657600080fdfe5472616e7366657272696e67207061727469616c20696e70757420746f6b656e20746f206465767465616d20666f72206661696c757265206761732066656573077a1d526a4ce8a773632ab13b4fbbf1fcc954c3dab26cd27ea0e2a6750da5d75472616e7366657272696e6720666565732066726f6d20696e70757420746f6b656e20746f206465765465616d43616e6e6f74207265696d62757273652072656c61792073696e636520646f206e6f74206861766520656e6f7567682066756e647353656e64696e6720666565732066726f6d206f757470757420746f6b656e20746f207465616da49807205ce4d355092ef5a8a18f56e8913cf4a201fbe287825b095693c2177546656520746f6b656e206973206f75747075743b207468657265666f72652063616e6e6f74207265696d6275727365207465616d20666f72206661696c757265206761732066656573a2646970667358221220acc4ad101284e77f923f815788c1a9e2181e74749399db0272c923f2202d963764736f6c63430007000033",
  "linkReferences": {
    "contracts/libs/LibAccess.sol": {
      "LibAccess": [
        {
          "length": 20,
          "start": 3527
        }
      ]
    },
    "contracts/libs/LibConfig.sol": {
      "LibConfig": [
        {
          "length": 20,
          "start": 1539
        },
        {
          "length": 20,
          "start": 3818
        },
        {
          "length": 20,
          "start": 7893
        }
      ]
    }
  },
  "deployedLinkReferences": {
    "contracts/libs/LibAccess.sol": {
      "LibAccess": [
        {
          "length": 20,
          "start": 3495
        }
      ]
    },
    "contracts/libs/LibConfig.sol": {
      "LibConfig": [
        {
          "length": 20,
          "start": 1507
        },
        {
          "length": 20,
          "start": 3786
        },
        {
          "length": 20,
          "start": 7861
        }
      ]
    }
  }
}