{
  "_format": "hh-sol-artifact-1",
  "contractName": "Settlement",
  "sourceName": "contracts/Settlement.sol",
  "abi": [
    {
      "anonymous": false,
      "inputs": [
        {
          "indexed": true,
          "internalType": "address",
          "name": "trader",
          "type": "address"
        },
        {
          "indexed": false,
          "internalType": "uint256",
          "name": "gasPaid",
          "type": "uint256"
        },
        {
          "indexed": false,
          "internalType": "string",
          "name": "reason",
          "type": "string"
        }
      ],
      "name": "SwapFailed",
      "type": "event"
    },
    {
      "anonymous": false,
      "inputs": [
        {
          "indexed": true,
          "internalType": "address",
          "name": "trader",
          "type": "address"
        },
        {
          "indexed": true,
          "internalType": "address",
          "name": "executor",
          "type": "address"
        },
        {
          "indexed": false,
          "internalType": "uint256",
          "name": "inputAmount",
          "type": "uint256"
        },
        {
          "indexed": false,
          "internalType": "uint256",
          "name": "outputAmount",
          "type": "uint256"
        },
        {
          "indexed": false,
          "internalType": "uint256",
          "name": "fee",
          "type": "uint256"
        },
        {
          "indexed": false,
          "internalType": "uint256",
          "name": "gasPaid",
          "type": "uint256"
        }
      ],
      "name": "SwapSuccess",
      "type": "event"
    },
    {
      "anonymous": false,
      "inputs": [
        {
          "indexed": true,
          "internalType": "address",
          "name": "trader",
          "type": "address"
        },
        {
          "indexed": false,
          "internalType": "uint256",
          "name": "penalty",
          "type": "uint256"
        },
        {
          "indexed": false,
          "internalType": "uint256",
          "name": "gasPaid",
          "type": "uint256"
        },
        {
          "indexed": false,
          "internalType": "string",
          "name": "reason",
          "type": "string"
        }
      ],
      "name": "TraderPenalized",
      "type": "event"
    },
    {
      "inputs": [],
      "name": "ACTION_ROLE",
      "outputs": [
        {
          "internalType": "bytes32",
          "name": "",
          "type": "bytes32"
        }
      ],
      "stateMutability": "view",
      "type": "function"
    },
    {
      "inputs": [],
      "name": "ADMIN_ROLE",
      "outputs": [
        {
          "internalType": "bytes32",
          "name": "",
          "type": "bytes32"
        }
      ],
      "stateMutability": "view",
      "type": "function"
    },
    {
      "inputs": [],
      "name": "PAUSER_ROLE",
      "outputs": [
        {
          "internalType": "bytes32",
          "name": "",
          "type": "bytes32"
        }
      ],
      "stateMutability": "view",
      "type": "function"
    },
    {
      "inputs": [],
      "name": "RELAY_ROLE",
      "outputs": [
        {
          "internalType": "bytes32",
          "name": "",
          "type": "bytes32"
        }
      ],
      "stateMutability": "view",
      "type": "function"
    },
    {
      "inputs": [
        {
          "components": [
            {
              "internalType": "uint128",
              "name": "fee",
              "type": "uint128"
            },
            {
              "internalType": "uint128",
              "name": "dexFee",
              "type": "uint128"
            },
            {
              "internalType": "address",
              "name": "trader",
              "type": "address"
            },
            {
              "internalType": "enum Types.OrderType",
              "name": "orderType",
              "type": "uint8"
            },
            {
              "components": [
                {
                  "internalType": "contract IERC20",
                  "name": "token",
                  "type": "address"
                },
                {
                  "internalType": "uint112",
                  "name": "amount",
                  "type": "uint112"
                }
              ],
              "internalType": "struct Types.TokenAmount",
              "name": "input",
              "type": "tuple"
            },
            {
              "components": [
                {
                  "internalType": "contract IERC20",
                  "name": "token",
                  "type": "address"
                },
                {
                  "internalType": "uint112",
                  "name": "amount",
                  "type": "uint112"
                }
              ],
              "internalType": "struct Types.TokenAmount",
              "name": "output",
              "type": "tuple"
            }
          ],
          "internalType": "struct Types.Order",
          "name": "order",
          "type": "tuple"
        },
        {
          "internalType": "contract IDexRouter",
          "name": "router",
          "type": "address"
        },
        {
          "internalType": "bytes",
          "name": "data",
          "type": "bytes"
        }
      ],
      "name": "_trySwap",
      "outputs": [
        {
          "internalType": "bool",
          "name": "success",
          "type": "bool"
        },
        {
          "internalType": "string",
          "name": "failReason",
          "type": "string"
        }
      ],
      "stateMutability": "nonpayable",
      "type": "function"
    },
    {
      "inputs": [
        {
          "internalType": "bytes32",
          "name": "role",
          "type": "bytes32"
        },
        {
          "internalType": "address",
          "name": "actor",
          "type": "address"
        }
      ],
      "name": "addRole",
      "outputs": [],
      "stateMutability": "nonpayable",
      "type": "function"
    },
    {
      "inputs": [
        {
          "internalType": "address",
          "name": "owner",
          "type": "address"
        }
      ],
      "name": "availableForUse",
      "outputs": [
        {
          "internalType": "uint256",
          "name": "",
          "type": "uint256"
        }
      ],
      "stateMutability": "view",
      "type": "function"
    },
    {
      "inputs": [
        {
          "internalType": "address",
          "name": "owner",
          "type": "address"
        }
      ],
      "name": "availableGasForWithdraw",
      "outputs": [
        {
          "internalType": "uint256",
          "name": "",
          "type": "uint256"
        }
      ],
      "stateMutability": "view",
      "type": "function"
    },
    {
      "inputs": [],
      "name": "depositGas",
      "outputs": [],
      "stateMutability": "payable",
      "type": "function"
    },
    {
      "inputs": [
        {
          "components": [
            {
              "internalType": "uint128",
              "name": "fee",
              "type": "uint128"
            },
            {
              "internalType": "uint128",
              "name": "dexFee",
              "type": "uint128"
            },
            {
              "internalType": "address",
              "name": "trader",
              "type": "address"
            },
            {
              "internalType": "enum Types.OrderType",
              "name": "orderType",
              "type": "uint8"
            },
            {
              "components": [
                {
                  "internalType": "contract IERC20",
                  "name": "token",
                  "type": "address"
                },
                {
                  "internalType": "uint112",
                  "name": "amount",
                  "type": "uint112"
                }
              ],
              "internalType": "struct Types.TokenAmount",
              "name": "input",
              "type": "tuple"
            },
            {
              "components": [
                {
                  "internalType": "contract IERC20",
                  "name": "token",
                  "type": "address"
                },
                {
                  "internalType": "uint112",
                  "name": "amount",
                  "type": "uint112"
                }
              ],
              "internalType": "struct Types.TokenAmount",
              "name": "output",
              "type": "tuple"
            }
          ],
          "internalType": "struct Types.Order",
          "name": "order",
          "type": "tuple"
        },
        {
          "internalType": "contract IDexRouter",
          "name": "router",
          "type": "address"
        },
        {
          "internalType": "bytes",
          "name": "data",
          "type": "bytes"
        }
      ],
      "name": "fill",
      "outputs": [],
      "stateMutability": "nonpayable",
      "type": "function"
    },
    {
      "inputs": [],
      "name": "getConfig",
      "outputs": [
        {
          "components": [
            {
              "internalType": "address",
              "name": "devTeam",
              "type": "address"
            },
            {
              "internalType": "uint128",
              "name": "minFee",
              "type": "uint128"
            },
            {
              "internalType": "uint128",
              "name": "penaltyFee",
              "type": "uint128"
            },
            {
              "internalType": "uint8",
              "name": "lockoutBlocks",
              "type": "uint8"
            }
          ],
          "internalType": "struct Types.Config",
          "name": "",
          "type": "tuple"
        }
      ],
      "stateMutability": "view",
      "type": "function"
    },
    {
      "inputs": [],
      "name": "getDevTeam",
      "outputs": [
        {
          "internalType": "address",
          "name": "",
          "type": "address"
        }
      ],
      "stateMutability": "view",
      "type": "function"
    },
    {
      "inputs": [],
      "name": "getLockoutBlocks",
      "outputs": [
        {
          "internalType": "uint8",
          "name": "",
          "type": "uint8"
        }
      ],
      "stateMutability": "view",
      "type": "function"
    },
    {
      "inputs": [],
      "name": "getMinFee",
      "outputs": [
        {
          "internalType": "uint128",
          "name": "",
          "type": "uint128"
        }
      ],
      "stateMutability": "view",
      "type": "function"
    },
    {
      "inputs": [],
      "name": "getPenaltyFee",
      "outputs": [
        {
          "internalType": "uint128",
          "name": "",
          "type": "uint128"
        }
      ],
      "stateMutability": "view",
      "type": "function"
    },
    {
      "inputs": [
        {
          "internalType": "address",
          "name": "holder",
          "type": "address"
        },
        {
          "internalType": "uint256",
          "name": "due",
          "type": "uint256"
        }
      ],
      "name": "hasEnoughGas",
      "outputs": [
        {
          "internalType": "bool",
          "name": "",
          "type": "bool"
        }
      ],
      "stateMutability": "view",
      "type": "function"
    },
    {
      "inputs": [
        {
          "internalType": "bytes32",
          "name": "role",
          "type": "bytes32"
        },
        {
          "internalType": "address",
          "name": "actor",
          "type": "address"
        }
      ],
      "name": "hasRole",
      "outputs": [
        {
          "internalType": "bool",
          "name": "",
          "type": "bool"
        }
      ],
      "stateMutability": "view",
      "type": "function"
    },
    {
      "inputs": [
        {
          "components": [
            {
              "internalType": "address",
              "name": "devTeam",
              "type": "address"
            },
            {
              "internalType": "uint128",
              "name": "minFee",
              "type": "uint128"
            },
            {
              "internalType": "uint128",
              "name": "penaltyFee",
              "type": "uint128"
            },
            {
              "internalType": "uint8",
              "name": "lockoutBlocks",
              "type": "uint8"
            }
          ],
          "internalType": "struct Types.Config",
          "name": "config",
          "type": "tuple"
        }
      ],
      "name": "initialize",
      "outputs": [],
      "stateMutability": "nonpayable",
      "type": "function"
    },
    {
      "inputs": [
        {
          "internalType": "uint112",
          "name": "amount",
          "type": "uint112"
        }
      ],
      "name": "requestWithdrawGas",
      "outputs": [],
      "stateMutability": "nonpayable",
      "type": "function"
    },
    {
      "inputs": [
        {
          "internalType": "bytes32",
          "name": "role",
          "type": "bytes32"
        },
        {
          "internalType": "address",
          "name": "actor",
          "type": "address"
        }
      ],
      "name": "revokeRole",
      "outputs": [],
      "stateMutability": "nonpayable",
      "type": "function"
    },
    {
      "inputs": [
        {
          "components": [
            {
              "internalType": "address",
              "name": "devTeam",
              "type": "address"
            },
            {
              "internalType": "uint128",
              "name": "minFee",
              "type": "uint128"
            },
            {
              "internalType": "uint128",
              "name": "penaltyFee",
              "type": "uint128"
            },
            {
              "internalType": "uint8",
              "name": "lockoutBlocks",
              "type": "uint8"
            }
          ],
          "internalType": "struct Types.Config",
          "name": "config",
          "type": "tuple"
        }
      ],
      "name": "setConfig",
      "outputs": [],
      "stateMutability": "nonpayable",
      "type": "function"
    },
    {
      "inputs": [
        {
          "internalType": "address",
          "name": "team",
          "type": "address"
        }
      ],
      "name": "setDevTeam",
      "outputs": [],
      "stateMutability": "nonpayable",
      "type": "function"
    },
    {
      "inputs": [
        {
          "internalType": "uint8",
          "name": "blocks",
          "type": "uint8"
        }
      ],
      "name": "setLockoutBlocks",
      "outputs": [],
      "stateMutability": "nonpayable",
      "type": "function"
    },
    {
      "inputs": [
        {
          "internalType": "uint128",
          "name": "fee",
          "type": "uint128"
        }
      ],
      "name": "setMinFee",
      "outputs": [],
      "stateMutability": "nonpayable",
      "type": "function"
    },
    {
      "inputs": [
        {
          "internalType": "uint128",
          "name": "fee",
          "type": "uint128"
        }
      ],
      "name": "setPenaltyFee",
      "outputs": [],
      "stateMutability": "nonpayable",
      "type": "function"
    },
    {
      "inputs": [
        {
          "internalType": "address",
          "name": "owner",
          "type": "address"
        }
      ],
      "name": "thawingFunds",
      "outputs": [
        {
          "internalType": "uint256",
          "name": "",
          "type": "uint256"
        }
      ],
      "stateMutability": "view",
      "type": "function"
    },
    {
      "inputs": [
        {
          "internalType": "uint112",
          "name": "amount",
          "type": "uint112"
        }
      ],
      "name": "withdrawGas",
      "outputs": [],
      "stateMutability": "nonpayable",
      "type": "function"
    }
  ],
  "bytecode": "0x608060405234801561001057600080fd5b5061312a806100206000396000f3fe60806040526004361061019c5760003560e01c806375e9aac8116100ec578063c3f909d41161008a578063e959b38a11610064578063e959b38a1461045f578063f102669b1461047f578063fbe91eba1461049f578063fc8926d3146104cd5761019c565b8063c3f909d414610408578063d547741f1461042a578063e63ab1e91461044a5761019c565b80638d3403fd116100c65780638d3403fd1461039e57806391d14854146103be578063ae9bb692146103de578063b1cf4b0c146103e65761019c565b806375e9aac81461033c57806377550610146103695780638224923a1461037e5761019c565b8063334c3c65116101595780634e1c6829116101335780634e1c6829146102c35780635cf34bcf146102e35780636a9447b51461030557806375b238fc146103275761019c565b8063334c3c65146102635780633f51e1821461028357806340ee75bb146102a35761019c565b806304421823146101a15780630f306725146101cc57806312d20441146101ec5780631eab21b91461020c57806327054df61461022c57806330f205d014610241575b600080fd5b3480156101ad57600080fd5b506101b66104ed565b6040516101c391906127d9565b60405180910390f35b3480156101d857600080fd5b506101b66101e736600461230f565b610511565b3480156101f857600080fd5b506101b661020736600461230f565b61052b565b34801561021857600080fd5b506101b661022736600461230f565b6105bd565b34801561023857600080fd5b506101b66105d1565b34801561024d57600080fd5b5061026161025c3660046125bf565b6105f5565b005b34801561026f57600080fd5b5061026161027e366004612443565b610645565b34801561028f57600080fd5b5061026161029e366004612443565b6106ee565b3480156102af57600080fd5b506102616102be36600461230f565b610774565b3480156102cf57600080fd5b506102616102de3660046125da565b61079e565b3480156102ef57600080fd5b506102f86107c8565b6040516101c39190612f2c565b34801561031157600080fd5b5061031a6107e5565b6040516101c39190612748565b34801561033357600080fd5b506101b66107fe565b34801561034857600080fd5b5061035c61035736600461232b565b610810565b6040516101c391906127b3565b34801561037557600080fd5b506102f8610828565b34801561038a57600080fd5b5061026161039936600461258e565b61084b565b3480156103aa57600080fd5b506102616103b936600461260e565b61093c565b3480156103ca57600080fd5b5061035c6103d9366004612414565b61095d565b6102616109f8565b3480156103f257600080fd5b506103fb610a35565b6040516101c39190612f74565b34801561041457600080fd5b5061041d610a4b565b6040516101c39190612db3565b34801561043657600080fd5b50610261610445366004612414565b610ae6565b34801561045657600080fd5b506101b6610b34565b34801561046b57600080fd5b5061026161047a366004612414565b610b58565b34801561048b57600080fd5b5061026161049a3660046125da565b610b98565b3480156104ab57600080fd5b506104bf6104ba366004612507565b610bce565b6040516101c39291906127be565b3480156104d957600080fd5b506102616104e83660046125bf565b610cc5565b7f077a1d526a4ce8a773632ab13b4fbbf1fcc954c3dab26cd27ea0e2a6750da5d781565b60006105258261051f610dae565b90610dd2565b92915050565b6000610535610dae565b604051634666141360e11b815273__$a72b9955336c87e02ef569d9208435f43d$__91638ccc28269161056d91908690600401612dd5565b60206040518083038186803b15801561058557600080fd5b505af4158015610599573d6000803e3d6000fd5b505050506040513d601f19601f8201168201806040525081019061052591906125f6565b6000610525826105cb610dae565b90610e27565b7fd95061bdf0c43d77b6cbe1c15072292976244ec8d5012de75baa36e42da4625e81565b6000816001600160701b0316116106275760405162461bcd60e51b815260040161061e90612cf0565b60405180910390fd5b610642610632610e92565b8261063b610dae565b9190610e96565b50565b61065f6000805160206130d58339815191526103d9610e92565b61067b5760405162461bcd60e51b815260040161061e90612d71565b610683610f85565b6040516321cab0c760e01b815273__$015d7794271f690550e5fe4793e4b79169$__916321cab0c7916106bb91908590600401612dc1565b60006040518083038186803b1580156106d357600080fd5b505af41580156106e7573d6000803e3d6000fd5b5050505050565b60006106f8610fa9565b8054909150610100900460ff16806107125750805460ff16155b61072e5760405162461bcd60e51b815260040161061e90612cc3565b8054610100900460ff1615801561075657815460ff1961ff0019909116610100171660011782555b61075f83610fcd565b801561076f57815461ff00191682555b505050565b8061077d610f85565b80546001600160a01b0319166001600160a01b039290921691909117905550565b806107a7610f85565b60010180546001600160801b03928316600160801b02921691909117905550565b60006107d2610f85565b600101546001600160801b031690505b90565b60006107ef610f85565b546001600160a01b0316905090565b6000805160206130d583398151915281565b60008161081f846105cb610dae565b10159392505050565b6000610832610f85565b60010154600160801b90046001600160801b0316919050565b6108777f077a1d526a4ce8a773632ab13b4fbbf1fcc954c3dab26cd27ea0e2a6750da5d76103d9610e92565b6108935760405162461bcd60e51b815260040161061e90612bdd565b61089b611045565b5460ff16156108bc5760405162461bcd60e51b815260040161061e90612817565b60016108c6611045565b805460ff191691151591909117905560005a90506108e2612192565b6108eb86611069565b9050600060606108fd88888888611219565b9150915061090c888484611305565b61091988838386886115db565b505050506000610927611045565b805460ff191691151591909117905550505050565b80610945610f85565b600201805460ff191660ff9290921691909117905550565b6000610967611045565b604051630f40931b60e41b815273__$712f9bd20561de4f0bfbc1442284f16fb4$__9163f40931b0916109a1919087908790600401612d94565b60206040518083038186803b1580156109b957600080fd5b505af41580156109cd573d6000803e3d6000fd5b505050506040513d601f19601f820116820180604052508101906109f19190612356565b9392505050565b60003411610a185760405162461bcd60e51b815260040161061e90612abf565b610a33610a23610e92565b34610a2c610dae565b9190611871565b565b6000610a3f610f85565b6002015460ff16905090565b610a536121ba565b610a5b610f85565b604051636d73f0db60e01b815273__$015d7794271f690550e5fe4793e4b79169$__91636d73f0db91610a9191906004016127d9565b60806040518083038186803b158015610aa957600080fd5b505af4158015610abd573d6000803e3d6000fd5b505050506040513d601f19601f82011682018060405250810190610ae191906124ab565b905090565b610b006000805160206130d58339815191526103d9610e92565b610b1c5760405162461bcd60e51b815260040161061e90612d71565b610b308282610b29611045565b91906118f8565b5050565b7f65d7a28e3265b37a6474929f336521b332c1681b933f6cb9f3376673440d862a81565b610b726000805160206130d58339815191526103d9610e92565b610b8e5760405162461bcd60e51b815260040161061e90612d71565b610b308282611927565b80610ba1610f85565b60010180546fffffffffffffffffffffffffffffffff19166001600160801b039290921691909117905550565b60006060333014610bf15760405162461bcd60e51b815260040161061e90612b94565b610c09610c0336889003880188612572565b8661193b565b60006060866001600160a01b031663a76ff28e8988886040518463ffffffff1660e01b8152600401610c3d93929190612dec565b600060405180830381600087803b158015610c5757600080fd5b505af1158015610c6b573d6000803e3d6000fd5b505050506040513d6000823e601f3d908101601f19168201604052610c939190810190612372565b9150915081610cb6578060405162461bcd60e51b815260040161061e91906127e2565b90925090505b94509492505050565b610ccd611045565b5460ff1615610cee5760405162461bcd60e51b815260040161061e90612817565b6001610cf8611045565b805460ff19169115159190911790556001600160701b038116610d2d5760405162461bcd60e51b815260040161061e90612cf0565b610d48610d38610e92565b82610d41610dae565b91906119c1565b610d50610e92565b6001600160a01b03166108fc826001600160701b03169081150290604051600060405180830381858888f19350505050158015610d91573d6000803e3d6000fd5b506000610d9c611045565b805460ff191691151591909117905550565b7f8c89fc81d9ea4103ca01a6b8674fdaec22ec47acad49dcba52ad9c3d556ea07590565b6001600160a01b0381166000908152602083905260408120600181015415801590610e005750438160010154115b15610e1d5754600160701b90046001600160701b03169050610525565b5060009392505050565b6001600160a01b0381166000908152602083905260408120600181015415801590610e555750438160010154115b15610e81578054610e79906001600160701b0380821691600160701b900416611a68565b915050610525565b546001600160701b03169392505050565b3390565b6001600160a01b03821660009081526020849052604090208054610ec7906001600160701b03908116908416611a8d565b81546001600160701b0319166001600160701b0391821617808355610ef891600160701b9091048116908416611a68565b81546001600160701b0391909116600160701b02600160701b600160e01b0319909116178155610f37610f29610f85565b60020154439060ff16611a68565b60018201556040516001600160a01b038416907f2003b3784184319a80d89c8f4f47ed588347aba97e0f40ae058f928c8bb5f74d90610f77908590612f18565b60405180910390a250505050565b7ff5b4be0a744c821d14f78bf26d55a308f420d78cebbfac103f2618fba32917b990565b7fd59dd79cfd4373c6c6547848d91fc2ea67c8aec9053f7028828216c5af1d474190565b610fd5610f85565b6040516321cab0c760e01b815273__$015d7794271f690550e5fe4793e4b79169$__916321cab0c79161100d91908590600401612dc1565b60006040518083038186803b15801561102557600080fd5b505af4158015611039573d6000803e3d6000fd5b50505050610642611ab5565b7f3a83b1278d351a40f18bb9e8e77896e8c1dc812ffaed5ea63e0e837a6dae57e990565b611071612192565b61107b823a611b7e565b6110975760405162461bcd60e51b815260040161061e90612c8c565b6110a082611c55565b6110bc5760405162461bcd60e51b815260040161061e90612b4b565b6110c582611cf2565b6110e15760405162461bcd60e51b815260040161061e90612b00565b60405180608001604052808360800151600001516001600160a01b03166370a0823185604001516040518263ffffffff1660e01b81526004016111249190612748565b60206040518083038186803b15801561113c57600080fd5b505afa158015611150573d6000803e3d6000fd5b505050506040513d601f19601f8201168201806040525081019061117491906125f6565b81526020018360a00151600001516001600160a01b03166370a0823185604001516040518263ffffffff1660e01b81526004016111b19190612748565b60206040518083038186803b1580156111c957600080fd5b505afa1580156111dd573d6000803e3d6000fd5b505050506040513d601f19601f8201168201806040525081019061120191906125f6565b81526020016000815260200160008152509050919050565b600060603063fbe91eba611231620138805a90611a8d565b888888886040518663ffffffff1660e01b81526004016112549493929190612e8a565b600060405180830381600088803b15801561126e57600080fd5b5087f1935050505080156112a457506040513d6000823e601f3d908101601f191682016040526112a19190810190612372565b60015b6112fb576112b0612fdb565b806112bb57506112c6565b6000925090506112f6565b50506040805180820190915260138152722ab735b737bbb7103330b4b6103932b0b9b7b760691b60208201526000905b610cbc565b9092509050610cbc565b60808301515160408085015190516370a0823160e01b81526001600160a01b03909216916370a082319161133b91600401612748565b60206040518083038186803b15801561135357600080fd5b505afa158015611367573d6000803e3d6000fd5b505050506040513d601f19601f8201168201806040525081019061138b91906125f6565b604083015280611425576113c76040518060400160405280600c81526020016b125b9c1d5d0818985b08188d60a21b8152508360000151611d41565b6113fc6040518060400160405280600f81526020016e24b7383aba103130b61030b33a32b960891b8152508360400151611d41565b81516040830151146114205760405162461bcd60e51b815260040161061e906129f9565b61076f565b60a08301515160408085015190516370a0823160e01b81526001600160a01b03909216916370a082319161145b91600401612748565b60206040518083038186803b15801561147357600080fd5b505afa158015611487573d6000803e3d6000fd5b505050506040513d601f19601f820116820180604052508101906114ab91906125f6565b60608301526040805180820190915260208082527f54726164657220746f6b656e2062616c616e6365206265666f72652073776170818301528301516114f19190611d41565b611529604051806040016040528060128152602001714e6577207472616465722062616c616e636560701b8152508360600151611d41565b8260a00151602001516001600160701b031661155683602001518460600151611a8d90919063ffffffff16565b10156115745760405162461bcd60e51b815260040161061e90612c00565b81516040830151106115985760405162461bcd60e51b815260040161061e90612907565b608083015160200151604083015183516001600160701b03909216916115bd91611a8d565b111561076f5760405162461bcd60e51b815260040161061e90612a47565b836116a65760006115f961ea606115f35a8590611a8d565b90611a68565b90506000611607823a611d86565b9050611617876040015182611dc0565b86604001516001600160a01b03167f25e268b6e417ca50f83f2b95db36dfd7e9d897f9b0b714668524e848e86353478287604051611656929190612f40565b60405180910390a2611666610e92565b6001600160a01b03166108fc829081150290604051600060405180830381858888f1935050505015801561169e573d6000803e3d6000fd5b5050506106e7565b60006116b961ea606115f35a8590611a8d565b905060006116c7823a611d86565b9050611707876040015161170289602001516001600160801b03166115f38b600001516001600160801b031686611a6890919063ffffffff16565b611dc0565b61170f610e92565b6001600160a01b03166108fc829081150290604051600060405180830381858888f19350505050158015611747573d6000803e3d6000fd5b50611750610f85565b5487516040516001600160a01b03909216916001600160801b0390911680156108fc02916000818181858888f19350505050158015611793573d6000803e3d6000fd5b506117c46040518060400160405280600f81526020016e05375636365737366756c207377617608c1b815250611dd4565b6117cc610e92565b6001600160a01b031687604001516001600160a01b03167f5ac72b858888990bb2049431a88689d4792e4f81276a67205492ba0e430812ae61181f87604001518860000151611a8d90919063ffffffff16565b6020880151606089015161183291611a8d565b60208c01518c5161184f916001600160801b039182169116611a68565b866040516118609493929190612f59565b60405180910390a350505050505050565b6001600160a01b038216600090815260208490526040902080546118a2906001600160701b03908116908416611a68565b81546001600160701b0319166001600160701b03919091161781556040516001600160a01b038416907fc0fa3ea2fda298bdf9ac3cd23fd02c7a0562596814d731619ee046a7a93c09be90610f77908590612f18565b60009182526001909201602090815260408083206001600160a01b03909416835292905220805460ff19169055565b610b308282611934611045565b9190611e17565b604082015160808301516020810151905161196c926001600160a01b039091169184906001600160701b0316611e4a565b60208201516001600160801b031615610b305760208201516040516001600160a01b038316916001600160801b031680156108fc02916000818181858888f1935050505015801561076f573d6000803e3d6000fd5b6001600160a01b038216600090815260208490526040902060018101546119fa5760405162461bcd60e51b815260040161061e90612862565b43816001015410611a1d5760405162461bcd60e51b815260040161061e90612937565b8054611a3d90600160701b90046001600160701b03908116908416611a8d565b81546001600160701b0391909116600160701b02600160701b600160e01b0319909116179055505050565b6000828201838110156109f15760405162461bcd60e51b815260040161061e90612899565b600082821115611aaf5760405162461bcd60e51b815260040161061e9061297c565b50900390565b6000611abf610fa9565b8054909150610100900460ff1680611ad95750805460ff16155b611af55760405162461bcd60e51b815260040161061e90612cc3565b8054610100900460ff16158015611b1d57815460ff1961ff0019909116610100171660011782555b6000611b27610e92565b9050611b416000805160206130d583398151915282611927565b611b6b7f65d7a28e3265b37a6474929f336521b332c1681b933f6cb9f3376673440d862a82611927565b508015610b305750805461ff0019169055565b600080611b8e6206ddd084611d86565b90506000611bcc611b9d610f85565b60010154602087015187516001600160801b03600160801b9093048316926115f3928116918391889116611a68565b6040808701519051630ebd355960e31b815291925060009130916375e9aac891611bfb9190869060040161279a565b60206040518083038186803b158015611c1357600080fd5b505afa158015611c27573d6000803e3d6000fd5b505050506040513d601f19601f82011682018060405250810190611c4b9190612356565b9695505050505050565b6000808260800151602001516001600160701b03168360800151600001516001600160a01b03166370a0823185604001516040518263ffffffff1660e01b8152600401611ca29190612748565b60206040518083038186803b158015611cba57600080fd5b505afa158015611cce573d6000803e3d6000fd5b505050506040513d601f19601f8201168201806040525081019061081f91906125f6565b6000808260800151602001516001600160701b03168360800151600001516001600160a01b031663dd62ed3e8560400151306040518363ffffffff1660e01b8152600401611ca292919061275c565b610b308282604051602401611d579291906127f5565b60408051601f198184030181529190526020810180516001600160e01b03166309710a9d60e41b179052611ea8565b600082611d9557506000610525565b82820282848281611da257fe5b04146109f15760405162461bcd60e51b815260040161061e90612a7e565b610b308282611dcd610dae565b9190611ec9565b61064281604051602401611de891906127e2565b60408051601f198184030181529190526020810180516001600160e01b031663104c13eb60e21b179052611ea8565b60009182526001928301602090815260408084206001600160a01b0390931684529190529020805460ff19169091179055565b611ea2846323b872dd60e01b858585604051602401611e6b93929190612776565b60408051601f198184030181529190526020810180516001600160e01b03166001600160e01b031990931692909217909152611fec565b50505050565b80516a636f6e736f6c652e6c6f67602083016000808483855afa5050505050565b6001600160a01b03821660009081526020849052604090206001600160701b038216611ef5575061076f565b6000611f018585610e27565b9050826001600160701b0316816001600160701b031611611f345760405162461bcd60e51b815260040161061e906128d0565b81546001600160701b03808516911610611f81578154611f61906001600160701b03908116908516611a8d565b82546001600160701b0319166001600160701b03919091161782556106e7565b8154611fb590611f9d906001600160701b038681169116611a8d565b8354600160701b90046001600160701b031690611a8d565b82546001600160701b03196001600160701b0392909216600160701b02600160701b600160e01b0319909116171682555050505050565b6060612041826040518060400160405280602081526020017f5361666545524332303a206c6f772d6c6576656c2063616c6c206661696c6564815250856001600160a01b031661207b9092919063ffffffff16565b80519091501561076f578080602001905181019061205f9190612356565b61076f5760405162461bcd60e51b815260040161061e90612d27565b606061208a8484600085612092565b949350505050565b6060824710156120b45760405162461bcd60e51b815260040161061e906129b3565b6120bd85612153565b6120d95760405162461bcd60e51b815260040161061e90612c55565b60006060866001600160a01b031685876040516120f6919061272c565b60006040518083038185875af1925050503d8060008114612133576040519150601f19603f3d011682016040523d82523d6000602084013e612138565b606091505b5091509150612148828286612159565b979650505050505050565b3b151590565b606083156121685750816109f1565b8251156121785782518084602001fd5b8160405162461bcd60e51b815260040161061e91906127e2565b6040518060800160405280600081526020016000815260200160008152602001600081525090565b60408051608081018252600080825260208201819052918101829052606081019190915290565b60008083601f8401126121f2578182fd5b50813567ffffffffffffffff811115612209578182fd5b60208301915083602082850101111561222157600080fd5b9250929050565b6000610100828403121561223a578081fd5b61224460c0612f82565b90508135612251816130b0565b81526020820135612261816130b0565b6020820152604082013561227481613080565b60408201526060820135612287816130a3565b606082015261229983608084016122b6565b60808201526122ab8360c084016122b6565b60a082015292915050565b6000604082840312156122c7578081fd5b6122d16040612f82565b905081356122de81613080565b81526122ed83602084016122f8565b602082015292915050565b80356001600160701b038116811461052557600080fd5b600060208284031215612320578081fd5b81356109f181613080565b6000806040838503121561233d578081fd5b823561234881613080565b946020939093013593505050565b600060208284031215612367578081fd5b81516109f181613095565b60008060408385031215612384578182fd5b825161238f81613095565b602084015190925067ffffffffffffffff808211156123ac578283fd5b818501915085601f8301126123bf578283fd5b8151818111156123cd578384fd5b6123e0601f8201601f1916602001612f82565b91508082528660208285010111156123f6578384fd5b612407816020840160208601612fa9565b5080925050509250929050565b60008060408385031215612426578182fd5b82359150602083013561243881613080565b809150509250929050565b600060808284031215612454578081fd5b61245e6080612f82565b823561246981613080565b81526020830135612479816130b0565b6020820152604083013561248c816130b0565b6040820152606083013561249f816130c5565b60608201529392505050565b6000608082840312156124bc578081fd5b6124c66080612f82565b82516124d181613080565b815260208301516124e1816130b0565b602082015260408301516124f4816130b0565b6040820152606083015161249f816130c5565b60008060008084860361014081121561251e578283fd5b6101008082121561252d578384fd5b869550850135905061253e81613080565b925061012085013567ffffffffffffffff81111561255a578283fd5b612566878288016121e1565b95989497509550505050565b60006101008284031215612584578081fd5b6109f18383612228565b60008060008061014085870312156125a4578182fd5b6125ae8686612228565b935061010085013561253e81613080565b6000602082840312156125d0578081fd5b6109f183836122f8565b6000602082840312156125eb578081fd5b81356109f1816130b0565b600060208284031215612607578081fd5b5051919050565b60006020828403121561261f578081fd5b81356109f1816130c5565b60008284528282602086013780602084860101526020601f19601f85011685010190509392505050565b6002811061265e57fe5b9052565b6000815180845261267a816020860160208601612fa9565b601f01601f19169290920160200192915050565b80516001600160a01b031682526020808201516001600160801b03908116918401919091526040808301519091169083015260609081015160ff16910152565b80356126d981613080565b6001600160a01b0316825260208101356001600160701b0381168082146126ff57600080fd5b80602085015250505050565b80516001600160a01b031682526020908101516001600160701b0316910152565b6000825161273e818460208701612fa9565b9190910192915050565b6001600160a01b0391909116815260200190565b6001600160a01b0392831681529116602082015260400190565b6001600160a01b039384168152919092166020820152604081019190915260600190565b6001600160a01b03929092168252602082015260400190565b901515815260200190565b600083151582526040602083015261208a6040830184612662565b90815260200190565b6000602082526109f16020830184612662565b6000604082526128086040830185612662565b90508260208301529392505050565b6020808252602b908201527f417474656d7074696e6720746f2072652d656e7465722066756e6374696f6e2060408201526a7265637572736976656c7960a81b606082015260800190565b6020808252601d908201527f4d75737420666972737420726571756573742061207769746864726177000000604082015260600190565b6020808252601b908201527f536166654d6174683a206164646974696f6e206f766572666c6f770000000000604082015260600190565b6020808252601e908201527f496e73756666696369656e742067617320746f2070617920616d6f756e740000604082015260600190565b602080825260169082015275496e70757420746f6b656e73206e6f7420757365642160501b604082015260600190565b60208082526025908201527f43616e6e6f7420776974686472617720696e73696465206c6f636b6f75742070604082015264195c9a5bd960da1b606082015260800190565b6020808252601e908201527f536166654d6174683a207375627472616374696f6e206f766572666c6f770000604082015260600190565b60208082526026908201527f416464726573733a20696e73756666696369656e742062616c616e636520666f6040820152651c8818d85b1b60d21b606082015260800190565b6020808252602e908201527f6661696c656420747261646520616374696f6e20646964206e6f74207265667560408201526d6e6420696e7075742066756e647360901b606082015260800190565b6020808252601a908201527f5573656420746f6f206d616e7920696e70757420746f6b656e73000000000000604082015260600190565b60208082526021908201527f536166654d6174683a206d756c7469706c69636174696f6e206f766572666c6f6040820152607760f81b606082015260800190565b60208082526021908201527f4e6f2066756e64732070726f766964656420666f7220676173206465706f73696040820152601d60fa1b606082015260800190565b6020808252602b908201527f496e73756666696369656e74207370656e6420616c6c6f77616e6365206f6e2060408201526a34b7383aba103a37b5b2b760a91b606082015260800190565b60208082526029908201527f496e73756666696369656e7420696e70757420746f6b656e2062616c616e636560408201526820746f20747261646560b81b606082015260800190565b60208082526029908201527f43616e206f6e6c792062652063616c6c656420627920736574746c656d656e746040820152680818dbdb9d1c9858dd60ba1b606082015260800190565b6020808252600990820152684e6f742072656c617960b81b604082015260600190565b60208082526035908201527f547261646520616374696f6e20646964206e6f74207472616e73666572206f756040820152743a383aba103a37b5b2b739903a37903a3930b232b960591b606082015260800190565b6020808252601d908201527f416464726573733a2063616c6c20746f206e6f6e2d636f6e7472616374000000604082015260600190565b6020808252601b908201527f496e73756666696369656e74206761732074616e6b2066756e64730000000000604082015260600190565b602080825260139082015272105b1c9958591e481a5b9a5d1a585b1a5e9959606a1b604082015260600190565b60208082526018908201527f43616e6e6f74207769746864726177203020616d6f756e740000000000000000604082015260600190565b6020808252602a908201527f5361666545524332303a204552433230206f7065726174696f6e20646964206e6040820152691bdd081cdd58d8d9595960b21b606082015260800190565b6020808252600990820152682737ba1030b236b4b760b91b604082015260600190565b92835260208301919091526001600160a01b0316604082015260600190565b60808101610525828461268e565b82815260a081016109f1602083018461268e565b9182526001600160a01b0316602082015260400190565b60006101208535612dfc816130b0565b6001600160801b039081168452602087013590612e18826130b0565b1660208401526040860135612e2c81613080565b6001600160a01b031660408401526060860135612e48816130a3565b612e556060850182612654565b50612e6660808401608088016126ce565b612e7660c0840160c088016126ce565b80610100840152611c4b818401858761262a565b60006101406001600160801b0380885116845280602089015116602085015250604087015160018060a01b03808216604086015260608901519150612ed26060860183612654565b60808901519150612ee6608086018361270b565b60a08901519150612efa60c086018361270b565b8716610100850152506101208301819052612148818401858761262a565b6001600160701b0391909116815260200190565b6001600160801b0391909116815260200190565b60008382526040602083015261208a6040830184612662565b93845260208401929092526040830152606082015260800190565b60ff91909116815260200190565b60405181810167ffffffffffffffff81118282101715612fa157600080fd5b604052919050565b60005b83811015612fc4578181015183820152602001612fac565b83811115611ea25750506000910152565b60e01c90565b600060443d1015612feb576107e2565b600481823e6308c379a0612fff8251612fd5565b14613009576107e2565b6040513d600319016004823e80513d67ffffffffffffffff816024840111818411171561303957505050506107e2565b8284019250825191508082111561305357505050506107e2565b503d8301602082840101111561306b575050506107e2565b601f01601f1916810160200160405291505090565b6001600160a01b038116811461064257600080fd5b801515811461064257600080fd5b6002811061064257600080fd5b6001600160801b038116811461064257600080fd5b60ff8116811461064257600080fdfea49807205ce4d355092ef5a8a18f56e8913cf4a201fbe287825b095693c21775a264697066735822122000df7616f3389001b75583a1706d38dfc1f830c2a80272a3d9c72bbb0cb6c33864736f6c63430007000033",
  "linkReferences": {
    "contracts/libs/LibAccess.sol": {
      "LibAccess": [
        {
          "length": 20,
          "start": 2454
        }
      ]
    },
    "contracts/libs/LibConfig.sol": {
      "LibConfig": [
        {
          "length": 20,
          "start": 1714
        },
        {
          "length": 20,
          "start": 2698
        },
        {
          "length": 20,
          "start": 4100
        }
      ]
    },
    "contracts/libs/LibGas.sol": {
      "LibGas": [
        {
          "length": 20,
          "start": 1380
        }
      ]
    }
  },
  "deployedLinkReferences": {
    "contracts/libs/LibAccess.sol": {
      "LibAccess": [
        {
          "length": 20,
          "start": 2422
        }
      ]
    },
    "contracts/libs/LibConfig.sol": {
      "LibConfig": [
        {
          "length": 20,
          "start": 1682
        },
        {
          "length": 20,
          "start": 2666
        },
        {
          "length": 20,
          "start": 4068
        }
      ]
    },
    "contracts/libs/LibGas.sol": {
      "LibGas": [
        {
          "length": 20,
          "start": 1348
        }
      ]
    }
  }
}