{
  "_format": "hh-sol-artifact-1",
  "contractName": "Settlement",
  "sourceName": "contracts/Settlement.sol",
  "abi": [
    {
      "anonymous": false,
      "inputs": [
        {
          "indexed": true,
          "internalType": "address",
          "name": "trader",
          "type": "address"
        },
        {
          "indexed": false,
          "internalType": "uint256",
          "name": "gasPaid",
          "type": "uint256"
        },
        {
          "indexed": false,
          "internalType": "string",
          "name": "reason",
          "type": "string"
        }
      ],
      "name": "SwapFailed",
      "type": "event"
    },
    {
      "anonymous": false,
      "inputs": [
        {
          "indexed": true,
          "internalType": "address",
          "name": "trader",
          "type": "address"
        },
        {
          "indexed": true,
          "internalType": "address",
          "name": "executor",
          "type": "address"
        },
        {
          "indexed": false,
          "internalType": "uint256",
          "name": "inputAmount",
          "type": "uint256"
        },
        {
          "indexed": false,
          "internalType": "uint256",
          "name": "outputAmount",
          "type": "uint256"
        },
        {
          "indexed": false,
          "internalType": "uint256",
          "name": "fee",
          "type": "uint256"
        },
        {
          "indexed": false,
          "internalType": "uint256",
          "name": "gasPaid",
          "type": "uint256"
        }
      ],
      "name": "SwapSuccess",
      "type": "event"
    },
    {
      "anonymous": false,
      "inputs": [
        {
          "indexed": true,
          "internalType": "address",
          "name": "trader",
          "type": "address"
        },
        {
          "indexed": false,
          "internalType": "uint256",
          "name": "penalty",
          "type": "uint256"
        },
        {
          "indexed": false,
          "internalType": "uint256",
          "name": "gasPaid",
          "type": "uint256"
        },
        {
          "indexed": false,
          "internalType": "string",
          "name": "reason",
          "type": "string"
        }
      ],
      "name": "TraderPenalized",
      "type": "event"
    },
    {
      "inputs": [],
      "name": "ACTION_ROLE",
      "outputs": [
        {
          "internalType": "bytes32",
          "name": "",
          "type": "bytes32"
        }
      ],
      "stateMutability": "view",
      "type": "function"
    },
    {
      "inputs": [],
      "name": "ADMIN_ROLE",
      "outputs": [
        {
          "internalType": "bytes32",
          "name": "",
          "type": "bytes32"
        }
      ],
      "stateMutability": "view",
      "type": "function"
    },
    {
      "inputs": [],
      "name": "PAUSER_ROLE",
      "outputs": [
        {
          "internalType": "bytes32",
          "name": "",
          "type": "bytes32"
        }
      ],
      "stateMutability": "view",
      "type": "function"
    },
    {
      "inputs": [],
      "name": "RELAY_ROLE",
      "outputs": [
        {
          "internalType": "bytes32",
          "name": "",
          "type": "bytes32"
        }
      ],
      "stateMutability": "view",
      "type": "function"
    },
    {
      "inputs": [
        {
          "internalType": "bytes32",
          "name": "role",
          "type": "bytes32"
        },
        {
          "internalType": "address",
          "name": "actor",
          "type": "address"
        }
      ],
      "name": "addRole",
      "outputs": [],
      "stateMutability": "nonpayable",
      "type": "function"
    },
    {
      "inputs": [
        {
          "internalType": "address",
          "name": "owner",
          "type": "address"
        }
      ],
      "name": "availableForUse",
      "outputs": [
        {
          "internalType": "uint256",
          "name": "",
          "type": "uint256"
        }
      ],
      "stateMutability": "view",
      "type": "function"
    },
    {
      "inputs": [
        {
          "internalType": "address",
          "name": "owner",
          "type": "address"
        }
      ],
      "name": "availableGasForWithdraw",
      "outputs": [
        {
          "internalType": "uint256",
          "name": "",
          "type": "uint256"
        }
      ],
      "stateMutability": "view",
      "type": "function"
    },
    {
      "inputs": [],
      "name": "depositGas",
      "outputs": [],
      "stateMutability": "payable",
      "type": "function"
    },
    {
      "inputs": [
        {
          "components": [
            {
              "internalType": "uint128",
              "name": "fee",
              "type": "uint128"
            },
            {
              "internalType": "uint128",
              "name": "dexFee",
              "type": "uint128"
            },
            {
              "internalType": "address",
              "name": "trader",
              "type": "address"
            },
            {
              "components": [
                {
                  "internalType": "contract IERC20",
                  "name": "token",
                  "type": "address"
                },
                {
                  "internalType": "uint112",
                  "name": "amount",
                  "type": "uint112"
                }
              ],
              "internalType": "struct Types.TokenAmount",
              "name": "input",
              "type": "tuple"
            },
            {
              "components": [
                {
                  "internalType": "contract IERC20",
                  "name": "token",
                  "type": "address"
                },
                {
                  "internalType": "uint112",
                  "name": "amount",
                  "type": "uint112"
                }
              ],
              "internalType": "struct Types.TokenAmount",
              "name": "output",
              "type": "tuple"
            }
          ],
          "internalType": "struct Types.Order",
          "name": "order",
          "type": "tuple"
        },
        {
          "internalType": "contract IDexRouter",
          "name": "router",
          "type": "address"
        },
        {
          "internalType": "bytes",
          "name": "data",
          "type": "bytes"
        }
      ],
      "name": "fill",
      "outputs": [],
      "stateMutability": "nonpayable",
      "type": "function"
    },
    {
      "inputs": [],
      "name": "getConfig",
      "outputs": [
        {
          "components": [
            {
              "internalType": "address",
              "name": "devTeam",
              "type": "address"
            },
            {
              "internalType": "uint128",
              "name": "minFee",
              "type": "uint128"
            },
            {
              "internalType": "uint128",
              "name": "penaltyFee",
              "type": "uint128"
            },
            {
              "internalType": "uint8",
              "name": "lockoutBlocks",
              "type": "uint8"
            }
          ],
          "internalType": "struct Types.Config",
          "name": "",
          "type": "tuple"
        }
      ],
      "stateMutability": "view",
      "type": "function"
    },
    {
      "inputs": [],
      "name": "getDevTeam",
      "outputs": [
        {
          "internalType": "address",
          "name": "",
          "type": "address"
        }
      ],
      "stateMutability": "view",
      "type": "function"
    },
    {
      "inputs": [],
      "name": "getLockoutBlocks",
      "outputs": [
        {
          "internalType": "uint8",
          "name": "",
          "type": "uint8"
        }
      ],
      "stateMutability": "view",
      "type": "function"
    },
    {
      "inputs": [],
      "name": "getMinFee",
      "outputs": [
        {
          "internalType": "uint128",
          "name": "",
          "type": "uint128"
        }
      ],
      "stateMutability": "view",
      "type": "function"
    },
    {
      "inputs": [],
      "name": "getPenaltyFee",
      "outputs": [
        {
          "internalType": "uint128",
          "name": "",
          "type": "uint128"
        }
      ],
      "stateMutability": "view",
      "type": "function"
    },
    {
      "inputs": [
        {
          "internalType": "address",
          "name": "holder",
          "type": "address"
        },
        {
          "internalType": "uint256",
          "name": "due",
          "type": "uint256"
        }
      ],
      "name": "hasEnoughGas",
      "outputs": [
        {
          "internalType": "bool",
          "name": "",
          "type": "bool"
        }
      ],
      "stateMutability": "view",
      "type": "function"
    },
    {
      "inputs": [
        {
          "internalType": "bytes32",
          "name": "role",
          "type": "bytes32"
        },
        {
          "internalType": "address",
          "name": "actor",
          "type": "address"
        }
      ],
      "name": "hasRole",
      "outputs": [
        {
          "internalType": "bool",
          "name": "",
          "type": "bool"
        }
      ],
      "stateMutability": "view",
      "type": "function"
    },
    {
      "inputs": [
        {
          "components": [
            {
              "internalType": "address",
              "name": "devTeam",
              "type": "address"
            },
            {
              "internalType": "uint128",
              "name": "minFee",
              "type": "uint128"
            },
            {
              "internalType": "uint128",
              "name": "penaltyFee",
              "type": "uint128"
            },
            {
              "internalType": "uint8",
              "name": "lockoutBlocks",
              "type": "uint8"
            }
          ],
          "internalType": "struct Types.Config",
          "name": "config",
          "type": "tuple"
        }
      ],
      "name": "initialize",
      "outputs": [],
      "stateMutability": "nonpayable",
      "type": "function"
    },
    {
      "inputs": [
        {
          "internalType": "uint112",
          "name": "amount",
          "type": "uint112"
        }
      ],
      "name": "requestWithdrawGas",
      "outputs": [],
      "stateMutability": "nonpayable",
      "type": "function"
    },
    {
      "inputs": [
        {
          "internalType": "bytes32",
          "name": "role",
          "type": "bytes32"
        },
        {
          "internalType": "address",
          "name": "actor",
          "type": "address"
        }
      ],
      "name": "revokeRole",
      "outputs": [],
      "stateMutability": "nonpayable",
      "type": "function"
    },
    {
      "inputs": [
        {
          "components": [
            {
              "internalType": "address",
              "name": "devTeam",
              "type": "address"
            },
            {
              "internalType": "uint128",
              "name": "minFee",
              "type": "uint128"
            },
            {
              "internalType": "uint128",
              "name": "penaltyFee",
              "type": "uint128"
            },
            {
              "internalType": "uint8",
              "name": "lockoutBlocks",
              "type": "uint8"
            }
          ],
          "internalType": "struct Types.Config",
          "name": "config",
          "type": "tuple"
        }
      ],
      "name": "setConfig",
      "outputs": [],
      "stateMutability": "nonpayable",
      "type": "function"
    },
    {
      "inputs": [
        {
          "internalType": "address",
          "name": "team",
          "type": "address"
        }
      ],
      "name": "setDevTeam",
      "outputs": [],
      "stateMutability": "nonpayable",
      "type": "function"
    },
    {
      "inputs": [
        {
          "internalType": "uint8",
          "name": "blocks",
          "type": "uint8"
        }
      ],
      "name": "setLockoutBlocks",
      "outputs": [],
      "stateMutability": "nonpayable",
      "type": "function"
    },
    {
      "inputs": [
        {
          "internalType": "uint128",
          "name": "fee",
          "type": "uint128"
        }
      ],
      "name": "setMinFee",
      "outputs": [],
      "stateMutability": "nonpayable",
      "type": "function"
    },
    {
      "inputs": [
        {
          "internalType": "uint128",
          "name": "fee",
          "type": "uint128"
        }
      ],
      "name": "setPenaltyFee",
      "outputs": [],
      "stateMutability": "nonpayable",
      "type": "function"
    },
    {
      "inputs": [
        {
          "internalType": "address",
          "name": "owner",
          "type": "address"
        }
      ],
      "name": "thawingFunds",
      "outputs": [
        {
          "internalType": "uint256",
          "name": "",
          "type": "uint256"
        }
      ],
      "stateMutability": "view",
      "type": "function"
    },
    {
      "inputs": [
        {
          "internalType": "uint112",
          "name": "amount",
          "type": "uint112"
        }
      ],
      "name": "withdrawGas",
      "outputs": [],
      "stateMutability": "nonpayable",
      "type": "function"
    }
  ],
  "bytecode": "0x608060405234801561001057600080fd5b50612c86806100206000396000f3fe6080604052600436106101815760003560e01c806375e9aac8116100d1578063b1cf4b0c1161008a578063e63ab1e911610064578063e63ab1e91461042f578063e959b38a14610444578063f102669b14610464578063fc8926d31461048457610181565b8063b1cf4b0c146103cb578063c3f909d4146103ed578063d547741f1461040f57610181565b806375e9aac814610321578063775506101461034e578063849ef8ce146103635780638d3403fd1461038357806391d14854146103a3578063ae9bb692146103c357610181565b8063334c3c651161013e5780634e1c6829116101185780634e1c6829146102a85780635cf34bcf146102c85780636a9447b5146102ea57806375b238fc1461030c57610181565b8063334c3c65146102485780633f51e1821461026857806340ee75bb1461028857610181565b806304421823146101865780630f306725146101b157806312d20441146101d15780631eab21b9146101f157806327054df61461021157806330f205d014610226575b600080fd5b34801561019257600080fd5b5061019b6104a4565b6040516101a8919061241b565b60405180910390f35b3480156101bd57600080fd5b5061019b6101cc366004611fc4565b6104c8565b3480156101dd57600080fd5b5061019b6101ec366004611fc4565b6104e2565b3480156101fd57600080fd5b5061019b61020c366004611fc4565b610574565b34801561021d57600080fd5b5061019b610588565b34801561023257600080fd5b50610246610241366004612285565b6105ac565b005b34801561025457600080fd5b506102466102633660046120f8565b6105fc565b34801561027457600080fd5b506102466102833660046120f8565b6106a5565b34801561029457600080fd5b506102466102a3366004611fc4565b61072b565b3480156102b457600080fd5b506102466102c33660046122ac565b610755565b3480156102d457600080fd5b506102dd61077f565b6040516101a89190612a95565b3480156102f657600080fd5b506102ff61079c565b6040516101a891906123a5565b34801561031857600080fd5b5061019b6107b5565b34801561032d57600080fd5b5061034161033c366004611fe0565b6107c7565b6040516101a89190612410565b34801561035a57600080fd5b506102dd6107df565b34801561036f57600080fd5b5061024661037e3660046121bc565b610802565b34801561038f57600080fd5b5061024661039e3660046122e0565b6108fd565b3480156103af57600080fd5b506103416103be3660046120c9565b61091e565b6102466109b9565b3480156103d757600080fd5b506103e06109f6565b6040516101a89190612add565b3480156103f957600080fd5b50610402610a0c565b6040516101a891906129c1565b34801561041b57600080fd5b5061024661042a3660046120c9565b610aa7565b34801561043b57600080fd5b5061019b610af5565b34801561045057600080fd5b5061024661045f3660046120c9565b610b19565b34801561047057600080fd5b5061024661047f3660046122ac565b610b59565b34801561049057600080fd5b5061024661049f366004612285565b610b8f565b7f077a1d526a4ce8a773632ab13b4fbbf1fcc954c3dab26cd27ea0e2a6750da5d781565b60006104dc826104d6610c78565b90610c9c565b92915050565b60006104ec610c78565b604051634666141360e11b815273__$a72b9955336c87e02ef569d9208435f43d$__91638ccc282691610524919086906004016129e3565b60206040518083038186803b15801561053c57600080fd5b505af4158015610550573d6000803e3d6000fd5b505050506040513d601f19601f820116820180604052508101906104dc91906122c8565b60006104dc82610582610c78565b90610cf1565b7fd95061bdf0c43d77b6cbe1c15072292976244ec8d5012de75baa36e42da4625e81565b6000816001600160701b0316116105de5760405162461bcd60e51b81526004016105d5906128fe565b60405180910390fd5b6105f96105e9610d5c565b826105f2610c78565b9190610d60565b50565b610616600080516020612c318339815191526103be610d5c565b6106325760405162461bcd60e51b81526004016105d59061297f565b61063a610e4f565b6040516321cab0c760e01b815273__$015d7794271f690550e5fe4793e4b79169$__916321cab0c791610672919085906004016129cf565b60006040518083038186803b15801561068a57600080fd5b505af415801561069e573d6000803e3d6000fd5b5050505050565b60006106af610e73565b8054909150610100900460ff16806106c95750805460ff16155b6106e55760405162461bcd60e51b81526004016105d5906128d1565b8054610100900460ff1615801561070d57815460ff1961ff0019909116610100171660011782555b61071683610e97565b801561072657815461ff00191682555b505050565b80610734610e4f565b80546001600160a01b0319166001600160a01b039290921691909117905550565b8061075e610e4f565b60010180546001600160801b03928316600160801b02921691909117905550565b6000610789610e4f565b600101546001600160801b031690505b90565b60006107a6610e4f565b546001600160a01b0316905090565b600080516020612c3183398151915281565b6000816107d684610582610c78565b10159392505050565b60006107e9610e4f565b60010154600160801b90046001600160801b0316919050565b61082e7f077a1d526a4ce8a773632ab13b4fbbf1fcc954c3dab26cd27ea0e2a6750da5d76103be610d5c565b61084a5760405162461bcd60e51b81526004016105d5906127eb565b610852610f0f565b5460ff16156108735760405162461bcd60e51b81526004016105d59061246e565b600161087d610f0f565b805460ff191691151591909117905560005a9050610899611ed4565b6108a286610f33565b90506108ae86866110e3565b600060606108be88888888611169565b915091506108cd888484611262565b6108da888383868861147c565b5050505060006108e8610f0f565b805460ff191691151591909117905550505050565b80610906610e4f565b600201805460ff191660ff9290921691909117905550565b6000610928610f0f565b604051630f40931b60e41b815273__$712f9bd20561de4f0bfbc1442284f16fb4$__9163f40931b0916109629190879087906004016129a2565b60206040518083038186803b15801561097a57600080fd5b505af415801561098e573d6000803e3d6000fd5b505050506040513d601f19601f820116820180604052508101906109b2919061200b565b9392505050565b600034116109d95760405162461bcd60e51b81526004016105d590612716565b6109f46109e4610d5c565b346109ed610c78565b91906116e2565b565b6000610a00610e4f565b6002015460ff16905090565b610a14611efc565b610a1c610e4f565b604051636d73f0db60e01b815273__$015d7794271f690550e5fe4793e4b79169$__91636d73f0db91610a52919060040161241b565b60806040518083038186803b158015610a6a57600080fd5b505af4158015610a7e573d6000803e3d6000fd5b505050506040513d601f19601f82011682018060405250810190610aa29190612160565b905090565b610ac1600080516020612c318339815191526103be610d5c565b610add5760405162461bcd60e51b81526004016105d59061297f565b610af18282610aea610f0f565b9190611769565b5050565b7f65d7a28e3265b37a6474929f336521b332c1681b933f6cb9f3376673440d862a81565b610b33600080516020612c318339815191526103be610d5c565b610b4f5760405162461bcd60e51b81526004016105d59061297f565b610af18282611798565b80610b62610e4f565b60010180546fffffffffffffffffffffffffffffffff19166001600160801b039290921691909117905550565b610b97610f0f565b5460ff1615610bb85760405162461bcd60e51b81526004016105d59061246e565b6001610bc2610f0f565b805460ff19169115159190911790556001600160701b038116610bf75760405162461bcd60e51b81526004016105d5906128fe565b610c12610c02610d5c565b82610c0b610c78565b91906117ac565b610c1a610d5c565b6001600160a01b03166108fc826001600160701b03169081150290604051600060405180830381858888f19350505050158015610c5b573d6000803e3d6000fd5b506000610c66610f0f565b805460ff191691151591909117905550565b7f8c89fc81d9ea4103ca01a6b8674fdaec22ec47acad49dcba52ad9c3d556ea07590565b6001600160a01b0381166000908152602083905260408120600181015415801590610cca5750438160010154115b15610ce75754600160701b90046001600160701b031690506104dc565b5060009392505050565b6001600160a01b0381166000908152602083905260408120600181015415801590610d1f5750438160010154105b15610d4b578054610d43906001600160701b0380821691600160701b900416611853565b9150506104dc565b546001600160701b03169392505050565b3390565b6001600160a01b03821660009081526020849052604090208054610d91906001600160701b03908116908416611878565b81546001600160701b0319166001600160701b0391821617808355610dc291600160701b9091048116908416611853565b81546001600160701b0391909116600160701b02600160701b600160e01b0319909116178155610e01610df3610e4f565b60020154439060ff16611853565b60018201556040516001600160a01b038416907f2003b3784184319a80d89c8f4f47ed588347aba97e0f40ae058f928c8bb5f74d90610e41908590612a81565b60405180910390a250505050565b7ff5b4be0a744c821d14f78bf26d55a308f420d78cebbfac103f2618fba32917b990565b7fd59dd79cfd4373c6c6547848d91fc2ea67c8aec9053f7028828216c5af1d474190565b610e9f610e4f565b6040516321cab0c760e01b815273__$015d7794271f690550e5fe4793e4b79169$__916321cab0c791610ed7919085906004016129cf565b60006040518083038186803b158015610eef57600080fd5b505af4158015610f03573d6000803e3d6000fd5b505050506105f96118a0565b7f3a83b1278d351a40f18bb9e8e77896e8c1dc812ffaed5ea63e0e837a6dae57e990565b610f3b611ed4565b610f45823a611969565b610f615760405162461bcd60e51b81526004016105d59061289a565b610f6a82611a40565b610f865760405162461bcd60e51b81526004016105d5906127a2565b610f8f82611add565b610fab5760405162461bcd60e51b81526004016105d590612757565b60405180608001604052808360600151600001516001600160a01b03166370a0823185604001516040518263ffffffff1660e01b8152600401610fee91906123a5565b60206040518083038186803b15801561100657600080fd5b505afa15801561101a573d6000803e3d6000fd5b505050506040513d601f19601f8201168201806040525081019061103e91906122c8565b81526020018360800151600001516001600160a01b03166370a0823185604001516040518263ffffffff1660e01b815260040161107b91906123a5565b60206040518083038186803b15801561109357600080fd5b505afa1580156110a7573d6000803e3d6000fd5b505050506040513d601f19601f820116820180604052508101906110cb91906122c8565b81526020016000815260200160008152509050919050565b6040820151606083015160208101519051611114926001600160a01b039091169184906001600160701b0316611b2c565b60208201516001600160801b031615610af15760208201516040516001600160a01b038316916001600160801b031680156108fc02916000818181858888f19350505050158015610726573d6000803e3d6000fd5b60006060846001600160a01b0316639893013561118a620138805a90611878565b8887876040518563ffffffff1660e01b81526004016111ab939291906129fa565b600060405180830381600088803b1580156111c557600080fd5b5087f1935050505080156111fb57506040513d6000823e601f3d908101601f191682016040526111f89190810190612027565b60015b61125257611207612b44565b80611212575061121d565b60009250905061124d565b50506040805180820190915260138152722ab735b737bbb7103330b4b6103932b0b9b7b760691b60208201526000905b611259565b5050600191505b94509492505050565b60608301515160408085015190516370a0823160e01b81526001600160a01b03909216916370a0823191611298916004016123a5565b60206040518083038186803b1580156112b057600080fd5b505afa1580156112c4573d6000803e3d6000fd5b505050506040513d601f19601f820116820180604052508101906112e891906122c8565b60408301528061131b5781516040830151146113165760405162461bcd60e51b81526004016105d590612650565b610726565b60808301515160408085015190516370a0823160e01b81526001600160a01b03909216916370a0823191611351916004016123a5565b60206040518083038186803b15801561136957600080fd5b505afa15801561137d573d6000803e3d6000fd5b505050506040513d601f19601f820116820180604052508101906113a191906122c8565b606083018190526020830151106113ca5760405162461bcd60e51b81526004016105d590612437565b8260800151602001516001600160701b03166113f78360200151846060015161187890919063ffffffff16565b10156114155760405162461bcd60e51b81526004016105d59061280e565b81516040830151106114395760405162461bcd60e51b81526004016105d59061255e565b606083015160200151604083015183516001600160701b039092169161145e91611878565b11156107265760405162461bcd60e51b81526004016105d59061269e565b8361154757600061149a61ea606114945a8590611878565b90611853565b905060006114a8823a611b8a565b90506114b8876040015182611bc4565b86604001516001600160a01b03167f25e268b6e417ca50f83f2b95db36dfd7e9d897f9b0b714668524e848e863534782876040516114f7929190612aa9565b60405180910390a2611507610d5c565b6001600160a01b03166108fc829081150290604051600060405180830381858888f1935050505015801561153f573d6000803e3d6000fd5b50505061069e565b600061155a61ea606114945a8590611878565b90506000611568823a611b8a565b90506115a887604001516115a389602001516001600160801b03166114948b600001516001600160801b03168661185390919063ffffffff16565b611bc4565b6115b0610d5c565b6001600160a01b03166108fc829081150290604051600060405180830381858888f193505050501580156115e8573d6000803e3d6000fd5b506115f1610e4f565b5487516040516001600160a01b03909216916001600160801b0390911680156108fc02916000818181858888f19350505050158015611634573d6000803e3d6000fd5b5061163d610d5c565b6001600160a01b031687604001516001600160a01b03167f5ac72b858888990bb2049431a88689d4792e4f81276a67205492ba0e430812ae6116908760400151886000015161187890919063ffffffff16565b602088015160608901516116a391611878565b60208c01518c516116c0916001600160801b039182169116611853565b866040516116d19493929190612ac2565b60405180910390a350505050505050565b6001600160a01b03821660009081526020849052604090208054611713906001600160701b03908116908416611853565b81546001600160701b0319166001600160701b03919091161781556040516001600160a01b038416907fc0fa3ea2fda298bdf9ac3cd23fd02c7a0562596814d731619ee046a7a93c09be90610e41908590612a81565b60009182526001909201602090815260408083206001600160a01b03909416835292905220805460ff19169055565b610af182826117a5610f0f565b9190611bd8565b6001600160a01b038216600090815260208490526040902060018101546117e55760405162461bcd60e51b81526004016105d5906124b9565b438160010154106118085760405162461bcd60e51b81526004016105d59061258e565b805461182890600160701b90046001600160701b03908116908416611878565b81546001600160701b0391909116600160701b02600160701b600160e01b0319909116179055505050565b6000828201838110156109b25760405162461bcd60e51b81526004016105d5906124f0565b60008282111561189a5760405162461bcd60e51b81526004016105d5906125d3565b50900390565b60006118aa610e73565b8054909150610100900460ff16806118c45750805460ff16155b6118e05760405162461bcd60e51b81526004016105d5906128d1565b8054610100900460ff1615801561190857815460ff1961ff0019909116610100171660011782555b6000611912610d5c565b905061192c600080516020612c3183398151915282611798565b6119567f65d7a28e3265b37a6474929f336521b332c1681b933f6cb9f3376673440d862a82611798565b508015610af15750805461ff0019169055565b6000806119796206ddd084611b8a565b905060006119b7611988610e4f565b60010154602087015187516001600160801b03600160801b909304831692611494928116918391889116611853565b6040808701519051630ebd355960e31b815291925060009130916375e9aac8916119e6919086906004016123f7565b60206040518083038186803b1580156119fe57600080fd5b505afa158015611a12573d6000803e3d6000fd5b505050506040513d601f19601f82011682018060405250810190611a36919061200b565b9695505050505050565b6000808260600151602001516001600160701b03168360600151600001516001600160a01b03166370a0823185604001516040518263ffffffff1660e01b8152600401611a8d91906123a5565b60206040518083038186803b158015611aa557600080fd5b505afa158015611ab9573d6000803e3d6000fd5b505050506040513d601f19601f820116820180604052508101906107d691906122c8565b6000808260600151602001516001600160701b03168360600151600001516001600160a01b031663dd62ed3e8560400151306040518363ffffffff1660e01b8152600401611a8d9291906123b9565b611b84846323b872dd60e01b858585604051602401611b4d939291906123d3565b60408051601f198184030181529190526020810180516001600160e01b03166001600160e01b031990931692909217909152611c0b565b50505050565b600082611b99575060006104dc565b82820282848281611ba657fe5b04146109b25760405162461bcd60e51b81526004016105d5906126d5565b610af18282611bd1610c78565b9190611c9a565b60009182526001928301602090815260408084206001600160a01b0390931684529190529020805460ff19169091179055565b6060611c60826040518060400160405280602081526020017f5361666545524332303a206c6f772d6c6576656c2063616c6c206661696c6564815250856001600160a01b0316611dbd9092919063ffffffff16565b8051909150156107265780806020019051810190611c7e919061200b565b6107265760405162461bcd60e51b81526004016105d590612935565b6001600160a01b03821660009081526020849052604090206001600160701b038216611cc65750610726565b6000611cd28585610cf1565b9050826001600160701b0316816001600160701b031611611d055760405162461bcd60e51b81526004016105d590612527565b81546001600160701b03808516911610611d52578154611d32906001600160701b03908116908516611878565b82546001600160701b0319166001600160701b039190911617825561069e565b8154611d8690611d6e906001600160701b038681169116611878565b8354600160701b90046001600160701b031690611878565b82546001600160701b03196001600160701b0392909216600160701b02600160701b600160e01b0319909116171682555050505050565b6060611dcc8484600085611dd4565b949350505050565b606082471015611df65760405162461bcd60e51b81526004016105d59061260a565b611dff85611e95565b611e1b5760405162461bcd60e51b81526004016105d590612863565b60006060866001600160a01b03168587604051611e389190612389565b60006040518083038185875af1925050503d8060008114611e75576040519150601f19603f3d011682016040523d82523d6000602084013e611e7a565b606091505b5091509150611e8a828286611e9b565b979650505050505050565b3b151590565b60608315611eaa5750816109b2565b825115611eba5782518084602001fd5b8160405162461bcd60e51b81526004016105d59190612424565b6040518060800160405280600081526020016000815260200160008152602001600081525090565b60408051608081018252600080825260208201819052918101829052606081019190915290565b80356104dc81612be9565b60008083601f840112611f3f578182fd5b50813567ffffffffffffffff811115611f56578182fd5b602083019150836020828501011115611f6e57600080fd5b9250929050565b600060408284031215611f86578081fd5b611f906040612aeb565b90508135611f9d81612be9565b815260208201356001600160701b0381168114611fb957600080fd5b602082015292915050565b600060208284031215611fd5578081fd5b81356109b281612be9565b60008060408385031215611ff2578081fd5b8235611ffd81612be9565b946020939093013593505050565b60006020828403121561201c578081fd5b81516109b281612bfe565b60008060408385031215612039578182fd5b825161204481612bfe565b602084015190925067ffffffffffffffff80821115612061578283fd5b818501915085601f830112612074578283fd5b815181811115612082578384fd5b612095601f8201601f1916602001612aeb565b91508082528660208285010111156120ab578384fd5b6120bc816020840160208601612b12565b5080925050509250929050565b600080604083850312156120db578182fd5b8235915060208301356120ed81612be9565b809150509250929050565b600060808284031215612109578081fd5b6121136080612aeb565b823561211e81612be9565b8152602083013561212e81612c0c565b6020820152604083013561214181612c0c565b6040820152606083013561215481612c21565b60608201529392505050565b600060808284031215612171578081fd5b61217b6080612aeb565b825161218681612be9565b8152602083015161219681612c0c565b602082015260408301516121a981612c0c565b6040820152606083015161215481612c21565b6000806000808486036101208112156121d3578283fd5b60e08112156121e0578283fd5b506121eb60a0612aeb565b85356121f681612c0c565b8152602086013561220681612c0c565b6020820152604086013561221981612be9565b604082015261222b8760608801611f75565b606082015261223d8760a08801611f75565b608082015293506122518660e08701611f23565b925061010085013567ffffffffffffffff81111561226d578283fd5b61227987828801611f2e565b95989497509550505050565b600060208284031215612296578081fd5b81356001600160701b03811681146109b2578182fd5b6000602082840312156122bd578081fd5b81356109b281612c0c565b6000602082840312156122d9578081fd5b5051919050565b6000602082840312156122f1578081fd5b81356109b281612c21565b60008151808452612314816020860160208601612b12565b601f01601f19169290920160200192915050565b80516001600160a01b031682526020808201516001600160801b03908116918401919091526040808301519091169083015260609081015160ff16910152565b80516001600160a01b031682526020908101516001600160701b0316910152565b6000825161239b818460208701612b12565b9190910192915050565b6001600160a01b0391909116815260200190565b6001600160a01b0392831681529116602082015260400190565b6001600160a01b039384168152919092166020820152604081019190915260600190565b6001600160a01b03929092168252602082015260400190565b901515815260200190565b90815260200190565b6000602082526109b260208301846122fc565b6020808252601c908201527f496e73756666696369656e74206f75747075742070726f647563656400000000604082015260600190565b6020808252602b908201527f417474656d7074696e6720746f2072652d656e7465722066756e6374696f6e2060408201526a7265637572736976656c7960a81b606082015260800190565b6020808252601d908201527f4d75737420666972737420726571756573742061207769746864726177000000604082015260600190565b6020808252601b908201527f536166654d6174683a206164646974696f6e206f766572666c6f770000000000604082015260600190565b6020808252601e908201527f496e73756666696369656e742067617320746f2070617920616d6f756e740000604082015260600190565b602080825260169082015275496e70757420746f6b656e73206e6f7420757365642160501b604082015260600190565b60208082526025908201527f43616e6e6f7420776974686472617720696e73696465206c6f636b6f75742070604082015264195c9a5bd960da1b606082015260800190565b6020808252601e908201527f536166654d6174683a207375627472616374696f6e206f766572666c6f770000604082015260600190565b60208082526026908201527f416464726573733a20696e73756666696369656e742062616c616e636520666f6040820152651c8818d85b1b60d21b606082015260800190565b6020808252602e908201527f6661696c656420747261646520616374696f6e20646964206e6f74207265667560408201526d6e6420696e7075742066756e647360901b606082015260800190565b6020808252601a908201527f5573656420746f6f206d616e7920696e70757420746f6b656e73000000000000604082015260600190565b60208082526021908201527f536166654d6174683a206d756c7469706c69636174696f6e206f766572666c6f6040820152607760f81b606082015260800190565b60208082526021908201527f4e6f2066756e64732070726f766964656420666f7220676173206465706f73696040820152601d60fa1b606082015260800190565b6020808252602b908201527f496e73756666696369656e74207370656e6420616c6c6f77616e6365206f6e2060408201526a34b7383aba103a37b5b2b760a91b606082015260800190565b60208082526029908201527f496e73756666696369656e7420696e70757420746f6b656e2062616c616e636560408201526820746f20747261646560b81b606082015260800190565b6020808252600990820152684e6f742072656c617960b81b604082015260600190565b60208082526035908201527f547261646520616374696f6e20646964206e6f74207472616e73666572206f756040820152743a383aba103a37b5b2b739903a37903a3930b232b960591b606082015260800190565b6020808252601d908201527f416464726573733a2063616c6c20746f206e6f6e2d636f6e7472616374000000604082015260600190565b6020808252601b908201527f496e73756666696369656e74206761732074616e6b2066756e64730000000000604082015260600190565b602080825260139082015272105b1c9958591e481a5b9a5d1a585b1a5e9959606a1b604082015260600190565b60208082526018908201527f43616e6e6f74207769746864726177203020616d6f756e740000000000000000604082015260600190565b6020808252602a908201527f5361666545524332303a204552433230206f7065726174696f6e20646964206e6040820152691bdd081cdd58d8d9595960b21b606082015260800190565b6020808252600990820152682737ba1030b236b4b760b91b604082015260600190565b92835260208301919091526001600160a01b0316604082015260600190565b608081016104dc8284612328565b82815260a081016109b26020830184612328565b9182526001600160a01b0316602082015260400190565b60006101006001600160801b038087511684528060208801511660208501525060018060a01b0360408701511660408401526060860151612a3e6060850182612368565b506080860151612a5160a0850182612368565b508060e0840152838184015250610120838582850137828401810191909152601f909201601f1916010192915050565b6001600160701b0391909116815260200190565b6001600160801b0391909116815260200190565b600083825260406020830152611dcc60408301846122fc565b93845260208401929092526040830152606082015260800190565b60ff91909116815260200190565b60405181810167ffffffffffffffff81118282101715612b0a57600080fd5b604052919050565b60005b83811015612b2d578181015183820152602001612b15565b83811115611b845750506000910152565b60e01c90565b600060443d1015612b5457610799565b600481823e6308c379a0612b688251612b3e565b14612b7257610799565b6040513d600319016004823e80513d67ffffffffffffffff8160248401118184111715612ba25750505050610799565b82840192508251915080821115612bbc5750505050610799565b503d83016020828401011115612bd457505050610799565b601f01601f1916810160200160405291505090565b6001600160a01b03811681146105f957600080fd5b80151581146105f957600080fd5b6001600160801b03811681146105f957600080fd5b60ff811681146105f957600080fdfea49807205ce4d355092ef5a8a18f56e8913cf4a201fbe287825b095693c21775a26469706673582212205769323e4d15f29ffe1314c193c1d4e5ecf89ddf85dcdfac337e64a19083dbaa64736f6c63430007000033",
  "linkReferences": {
    "contracts/libs/LibAccess.sol": {
      "LibAccess": [
        {
          "length": 20,
          "start": 2391
        }
      ]
    },
    "contracts/libs/LibConfig.sol": {
      "LibConfig": [
        {
          "length": 20,
          "start": 1641
        },
        {
          "length": 20,
          "start": 2635
        },
        {
          "length": 20,
          "start": 3790
        }
      ]
    },
    "contracts/libs/LibGas.sol": {
      "LibGas": [
        {
          "length": 20,
          "start": 1307
        }
      ]
    }
  },
  "deployedLinkReferences": {
    "contracts/libs/LibAccess.sol": {
      "LibAccess": [
        {
          "length": 20,
          "start": 2359
        }
      ]
    },
    "contracts/libs/LibConfig.sol": {
      "LibConfig": [
        {
          "length": 20,
          "start": 1609
        },
        {
          "length": 20,
          "start": 2603
        },
        {
          "length": 20,
          "start": 3758
        }
      ]
    },
    "contracts/libs/LibGas.sol": {
      "LibGas": [
        {
          "length": 20,
          "start": 1275
        }
      ]
    }
  }
}