{
  "_format": "hh-sol-artifact-1",
  "contractName": "Settlement",
  "sourceName": "contracts/Settlement.sol",
  "abi": [
    {
      "anonymous": false,
      "inputs": [
        {
          "indexed": true,
          "internalType": "address",
          "name": "trader",
          "type": "address"
        },
        {
          "indexed": false,
          "internalType": "uint256",
          "name": "gasPaid",
          "type": "uint256"
        },
        {
          "indexed": false,
          "internalType": "string",
          "name": "reason",
          "type": "string"
        }
      ],
      "name": "SwapFailed",
      "type": "event"
    },
    {
      "anonymous": false,
      "inputs": [
        {
          "indexed": true,
          "internalType": "address",
          "name": "trader",
          "type": "address"
        },
        {
          "indexed": true,
          "internalType": "address",
          "name": "executor",
          "type": "address"
        },
        {
          "indexed": false,
          "internalType": "uint256",
          "name": "inputAmount",
          "type": "uint256"
        },
        {
          "indexed": false,
          "internalType": "uint256",
          "name": "outputAmount",
          "type": "uint256"
        },
        {
          "indexed": false,
          "internalType": "uint256",
          "name": "fee",
          "type": "uint256"
        },
        {
          "indexed": false,
          "internalType": "uint256",
          "name": "gasPaid",
          "type": "uint256"
        }
      ],
      "name": "SwapSuccess",
      "type": "event"
    },
    {
      "anonymous": false,
      "inputs": [
        {
          "indexed": true,
          "internalType": "address",
          "name": "trader",
          "type": "address"
        },
        {
          "indexed": false,
          "internalType": "uint256",
          "name": "penalty",
          "type": "uint256"
        },
        {
          "indexed": false,
          "internalType": "uint256",
          "name": "gasPaid",
          "type": "uint256"
        },
        {
          "indexed": false,
          "internalType": "string",
          "name": "reason",
          "type": "string"
        }
      ],
      "name": "TraderPenalized",
      "type": "event"
    },
    {
      "inputs": [],
      "name": "ACTION_ROLE",
      "outputs": [
        {
          "internalType": "bytes32",
          "name": "",
          "type": "bytes32"
        }
      ],
      "stateMutability": "view",
      "type": "function"
    },
    {
      "inputs": [],
      "name": "ADMIN_ROLE",
      "outputs": [
        {
          "internalType": "bytes32",
          "name": "",
          "type": "bytes32"
        }
      ],
      "stateMutability": "view",
      "type": "function"
    },
    {
      "inputs": [],
      "name": "PAUSER_ROLE",
      "outputs": [
        {
          "internalType": "bytes32",
          "name": "",
          "type": "bytes32"
        }
      ],
      "stateMutability": "view",
      "type": "function"
    },
    {
      "inputs": [],
      "name": "RELAY_ROLE",
      "outputs": [
        {
          "internalType": "bytes32",
          "name": "",
          "type": "bytes32"
        }
      ],
      "stateMutability": "view",
      "type": "function"
    },
    {
      "inputs": [
        {
          "components": [
            {
              "internalType": "uint128",
              "name": "fee",
              "type": "uint128"
            },
            {
              "internalType": "uint128",
              "name": "dexFee",
              "type": "uint128"
            },
            {
              "internalType": "address",
              "name": "trader",
              "type": "address"
            },
            {
              "internalType": "enum Types.OrderType",
              "name": "orderType",
              "type": "uint8"
            },
            {
              "components": [
                {
                  "internalType": "contract IERC20",
                  "name": "token",
                  "type": "address"
                },
                {
                  "internalType": "uint112",
                  "name": "amount",
                  "type": "uint112"
                }
              ],
              "internalType": "struct Types.TokenAmount",
              "name": "input",
              "type": "tuple"
            },
            {
              "components": [
                {
                  "internalType": "contract IERC20",
                  "name": "token",
                  "type": "address"
                },
                {
                  "internalType": "uint112",
                  "name": "amount",
                  "type": "uint112"
                }
              ],
              "internalType": "struct Types.TokenAmount",
              "name": "output",
              "type": "tuple"
            }
          ],
          "internalType": "struct Types.Order",
          "name": "order",
          "type": "tuple"
        },
        {
          "internalType": "contract IDexRouter",
          "name": "router",
          "type": "address"
        },
        {
          "internalType": "bytes",
          "name": "data",
          "type": "bytes"
        }
      ],
      "name": "_trySwap",
      "outputs": [
        {
          "internalType": "bool",
          "name": "success",
          "type": "bool"
        },
        {
          "internalType": "string",
          "name": "failReason",
          "type": "string"
        }
      ],
      "stateMutability": "nonpayable",
      "type": "function"
    },
    {
      "inputs": [
        {
          "internalType": "bytes32",
          "name": "role",
          "type": "bytes32"
        },
        {
          "internalType": "address",
          "name": "actor",
          "type": "address"
        }
      ],
      "name": "addRole",
      "outputs": [],
      "stateMutability": "nonpayable",
      "type": "function"
    },
    {
      "inputs": [
        {
          "internalType": "address",
          "name": "owner",
          "type": "address"
        }
      ],
      "name": "availableForUse",
      "outputs": [
        {
          "internalType": "uint256",
          "name": "",
          "type": "uint256"
        }
      ],
      "stateMutability": "view",
      "type": "function"
    },
    {
      "inputs": [
        {
          "internalType": "address",
          "name": "owner",
          "type": "address"
        }
      ],
      "name": "availableGasForWithdraw",
      "outputs": [
        {
          "internalType": "uint256",
          "name": "",
          "type": "uint256"
        }
      ],
      "stateMutability": "view",
      "type": "function"
    },
    {
      "inputs": [],
      "name": "depositGas",
      "outputs": [],
      "stateMutability": "payable",
      "type": "function"
    },
    {
      "inputs": [
        {
          "components": [
            {
              "internalType": "uint128",
              "name": "fee",
              "type": "uint128"
            },
            {
              "internalType": "uint128",
              "name": "dexFee",
              "type": "uint128"
            },
            {
              "internalType": "address",
              "name": "trader",
              "type": "address"
            },
            {
              "internalType": "enum Types.OrderType",
              "name": "orderType",
              "type": "uint8"
            },
            {
              "components": [
                {
                  "internalType": "contract IERC20",
                  "name": "token",
                  "type": "address"
                },
                {
                  "internalType": "uint112",
                  "name": "amount",
                  "type": "uint112"
                }
              ],
              "internalType": "struct Types.TokenAmount",
              "name": "input",
              "type": "tuple"
            },
            {
              "components": [
                {
                  "internalType": "contract IERC20",
                  "name": "token",
                  "type": "address"
                },
                {
                  "internalType": "uint112",
                  "name": "amount",
                  "type": "uint112"
                }
              ],
              "internalType": "struct Types.TokenAmount",
              "name": "output",
              "type": "tuple"
            }
          ],
          "internalType": "struct Types.Order",
          "name": "order",
          "type": "tuple"
        },
        {
          "internalType": "contract IDexRouter",
          "name": "router",
          "type": "address"
        },
        {
          "internalType": "bytes",
          "name": "data",
          "type": "bytes"
        }
      ],
      "name": "fill",
      "outputs": [],
      "stateMutability": "nonpayable",
      "type": "function"
    },
    {
      "inputs": [],
      "name": "getConfig",
      "outputs": [
        {
          "components": [
            {
              "internalType": "address",
              "name": "devTeam",
              "type": "address"
            },
            {
              "internalType": "uint128",
              "name": "minFee",
              "type": "uint128"
            },
            {
              "internalType": "uint128",
              "name": "penaltyFee",
              "type": "uint128"
            },
            {
              "internalType": "uint8",
              "name": "lockoutBlocks",
              "type": "uint8"
            }
          ],
          "internalType": "struct Types.Config",
          "name": "",
          "type": "tuple"
        }
      ],
      "stateMutability": "view",
      "type": "function"
    },
    {
      "inputs": [],
      "name": "getDevTeam",
      "outputs": [
        {
          "internalType": "address",
          "name": "",
          "type": "address"
        }
      ],
      "stateMutability": "view",
      "type": "function"
    },
    {
      "inputs": [],
      "name": "getLockoutBlocks",
      "outputs": [
        {
          "internalType": "uint8",
          "name": "",
          "type": "uint8"
        }
      ],
      "stateMutability": "view",
      "type": "function"
    },
    {
      "inputs": [],
      "name": "getMinFee",
      "outputs": [
        {
          "internalType": "uint128",
          "name": "",
          "type": "uint128"
        }
      ],
      "stateMutability": "view",
      "type": "function"
    },
    {
      "inputs": [],
      "name": "getPenaltyFee",
      "outputs": [
        {
          "internalType": "uint128",
          "name": "",
          "type": "uint128"
        }
      ],
      "stateMutability": "view",
      "type": "function"
    },
    {
      "inputs": [
        {
          "internalType": "address",
          "name": "holder",
          "type": "address"
        },
        {
          "internalType": "uint256",
          "name": "due",
          "type": "uint256"
        }
      ],
      "name": "hasEnoughGas",
      "outputs": [
        {
          "internalType": "bool",
          "name": "",
          "type": "bool"
        }
      ],
      "stateMutability": "view",
      "type": "function"
    },
    {
      "inputs": [
        {
          "internalType": "bytes32",
          "name": "role",
          "type": "bytes32"
        },
        {
          "internalType": "address",
          "name": "actor",
          "type": "address"
        }
      ],
      "name": "hasRole",
      "outputs": [
        {
          "internalType": "bool",
          "name": "",
          "type": "bool"
        }
      ],
      "stateMutability": "view",
      "type": "function"
    },
    {
      "inputs": [
        {
          "components": [
            {
              "internalType": "address",
              "name": "devTeam",
              "type": "address"
            },
            {
              "internalType": "uint128",
              "name": "minFee",
              "type": "uint128"
            },
            {
              "internalType": "uint128",
              "name": "penaltyFee",
              "type": "uint128"
            },
            {
              "internalType": "uint8",
              "name": "lockoutBlocks",
              "type": "uint8"
            }
          ],
          "internalType": "struct Types.Config",
          "name": "config",
          "type": "tuple"
        }
      ],
      "name": "initialize",
      "outputs": [],
      "stateMutability": "nonpayable",
      "type": "function"
    },
    {
      "inputs": [
        {
          "internalType": "uint112",
          "name": "amount",
          "type": "uint112"
        }
      ],
      "name": "requestWithdrawGas",
      "outputs": [],
      "stateMutability": "nonpayable",
      "type": "function"
    },
    {
      "inputs": [
        {
          "internalType": "bytes32",
          "name": "role",
          "type": "bytes32"
        },
        {
          "internalType": "address",
          "name": "actor",
          "type": "address"
        }
      ],
      "name": "revokeRole",
      "outputs": [],
      "stateMutability": "nonpayable",
      "type": "function"
    },
    {
      "inputs": [
        {
          "components": [
            {
              "internalType": "address",
              "name": "devTeam",
              "type": "address"
            },
            {
              "internalType": "uint128",
              "name": "minFee",
              "type": "uint128"
            },
            {
              "internalType": "uint128",
              "name": "penaltyFee",
              "type": "uint128"
            },
            {
              "internalType": "uint8",
              "name": "lockoutBlocks",
              "type": "uint8"
            }
          ],
          "internalType": "struct Types.Config",
          "name": "config",
          "type": "tuple"
        }
      ],
      "name": "setConfig",
      "outputs": [],
      "stateMutability": "nonpayable",
      "type": "function"
    },
    {
      "inputs": [
        {
          "internalType": "address",
          "name": "team",
          "type": "address"
        }
      ],
      "name": "setDevTeam",
      "outputs": [],
      "stateMutability": "nonpayable",
      "type": "function"
    },
    {
      "inputs": [
        {
          "internalType": "uint8",
          "name": "blocks",
          "type": "uint8"
        }
      ],
      "name": "setLockoutBlocks",
      "outputs": [],
      "stateMutability": "nonpayable",
      "type": "function"
    },
    {
      "inputs": [
        {
          "internalType": "uint128",
          "name": "fee",
          "type": "uint128"
        }
      ],
      "name": "setMinFee",
      "outputs": [],
      "stateMutability": "nonpayable",
      "type": "function"
    },
    {
      "inputs": [
        {
          "internalType": "uint128",
          "name": "fee",
          "type": "uint128"
        }
      ],
      "name": "setPenaltyFee",
      "outputs": [],
      "stateMutability": "nonpayable",
      "type": "function"
    },
    {
      "inputs": [
        {
          "internalType": "address",
          "name": "owner",
          "type": "address"
        }
      ],
      "name": "thawingFunds",
      "outputs": [
        {
          "internalType": "uint256",
          "name": "",
          "type": "uint256"
        }
      ],
      "stateMutability": "view",
      "type": "function"
    },
    {
      "inputs": [
        {
          "internalType": "uint112",
          "name": "amount",
          "type": "uint112"
        }
      ],
      "name": "withdrawGas",
      "outputs": [],
      "stateMutability": "nonpayable",
      "type": "function"
    }
  ],
  "bytecode": "0x608060405234801561001057600080fd5b50613166806100206000396000f3fe60806040526004361061019c5760003560e01c806375e9aac8116100ec578063c3f909d41161008a578063e959b38a11610064578063e959b38a1461045f578063f102669b1461047f578063fbe91eba1461049f578063fc8926d3146104cd5761019c565b8063c3f909d414610408578063d547741f1461042a578063e63ab1e91461044a5761019c565b80638d3403fd116100c65780638d3403fd1461039e57806391d14854146103be578063ae9bb692146103de578063b1cf4b0c146103e65761019c565b806375e9aac81461033c57806377550610146103695780638224923a1461037e5761019c565b8063334c3c65116101595780634e1c6829116101335780634e1c6829146102c35780635cf34bcf146102e35780636a9447b51461030557806375b238fc146103275761019c565b8063334c3c65146102635780633f51e1821461028357806340ee75bb146102a35761019c565b806304421823146101a15780630f306725146101cc57806312d20441146101ec5780631eab21b91461020c57806327054df61461022c57806330f205d014610241575b600080fd5b3480156101ad57600080fd5b506101b66104ed565b6040516101c39190612815565b60405180910390f35b3480156101d857600080fd5b506101b66101e736600461234b565b610511565b3480156101f857600080fd5b506101b661020736600461234b565b61052b565b34801561021857600080fd5b506101b661022736600461234b565b6105bd565b34801561023857600080fd5b506101b66105d1565b34801561024d57600080fd5b5061026161025c3660046125fb565b6105f5565b005b34801561026f57600080fd5b5061026161027e36600461247f565b610645565b34801561028f57600080fd5b5061026161029e36600461247f565b6106ee565b3480156102af57600080fd5b506102616102be36600461234b565b610774565b3480156102cf57600080fd5b506102616102de366004612616565b61079e565b3480156102ef57600080fd5b506102f86107c8565b6040516101c39190612f68565b34801561031157600080fd5b5061031a6107e5565b6040516101c39190612784565b34801561033357600080fd5b506101b66107fe565b34801561034857600080fd5b5061035c610357366004612367565b610810565b6040516101c391906127ef565b34801561037557600080fd5b506102f8610828565b34801561038a57600080fd5b506102616103993660046125ca565b61084b565b3480156103aa57600080fd5b506102616103b936600461264a565b61097a565b3480156103ca57600080fd5b5061035c6103d9366004612450565b61099b565b610261610a36565b3480156103f257600080fd5b506103fb610a73565b6040516101c39190612fb0565b34801561041457600080fd5b5061041d610a89565b6040516101c39190612def565b34801561043657600080fd5b50610261610445366004612450565b610b24565b34801561045657600080fd5b506101b6610b72565b34801561046b57600080fd5b5061026161047a366004612450565b610b96565b34801561048b57600080fd5b5061026161049a366004612616565b610bd6565b3480156104ab57600080fd5b506104bf6104ba366004612543565b610c0c565b6040516101c39291906127fa565b3480156104d957600080fd5b506102616104e83660046125fb565b610d03565b7f077a1d526a4ce8a773632ab13b4fbbf1fcc954c3dab26cd27ea0e2a6750da5d781565b60006105258261051f610dec565b90610e10565b92915050565b6000610535610dec565b604051634666141360e11b815273__$a72b9955336c87e02ef569d9208435f43d$__91638ccc28269161056d91908690600401612e11565b60206040518083038186803b15801561058557600080fd5b505af4158015610599573d6000803e3d6000fd5b505050506040513d601f19601f820116820180604052508101906105259190612632565b6000610525826105cb610dec565b90610e65565b7fd95061bdf0c43d77b6cbe1c15072292976244ec8d5012de75baa36e42da4625e81565b6000816001600160701b0316116106275760405162461bcd60e51b815260040161061e90612d2c565b60405180910390fd5b610642610632610ed0565b8261063b610dec565b9190610ed4565b50565b61065f6000805160206131118339815191526103d9610ed0565b61067b5760405162461bcd60e51b815260040161061e90612dad565b610683610fc3565b6040516321cab0c760e01b815273__$015d7794271f690550e5fe4793e4b79169$__916321cab0c7916106bb91908590600401612dfd565b60006040518083038186803b1580156106d357600080fd5b505af41580156106e7573d6000803e3d6000fd5b5050505050565b60006106f8610fe7565b8054909150610100900460ff16806107125750805460ff16155b61072e5760405162461bcd60e51b815260040161061e90612cff565b8054610100900460ff1615801561075657815460ff1961ff0019909116610100171660011782555b61075f8361100b565b801561076f57815461ff00191682555b505050565b8061077d610fc3565b80546001600160a01b0319166001600160a01b039290921691909117905550565b806107a7610fc3565b60010180546001600160801b03928316600160801b02921691909117905550565b60006107d2610fc3565b600101546001600160801b031690505b90565b60006107ef610fc3565b546001600160a01b0316905090565b60008051602061311183398151915281565b60008161081f846105cb610dec565b10159392505050565b6000610832610fc3565b60010154600160801b90046001600160801b0316919050565b6108777f077a1d526a4ce8a773632ab13b4fbbf1fcc954c3dab26cd27ea0e2a6750da5d76103d9610ed0565b6108935760405162461bcd60e51b815260040161061e90612c19565b61089b611083565b5460ff16156108bc5760405162461bcd60e51b815260040161061e90612853565b60016108c6611083565b805460ff191691151591909117905560408051808201909152601981527f534554544c454d454e543a20696e636f6d696e67206461746100000000000000602082015261091390826110a7565b60005a90506109206121ce565b610929866110ec565b90506000606061093b8888888861129c565b9150915061094a888484611388565b610957888383868861165c565b505050506000610965611083565b805460ff191691151591909117905550505050565b80610983610fc3565b600201805460ff191660ff9290921691909117905550565b60006109a5611083565b604051630f40931b60e41b815273__$712f9bd20561de4f0bfbc1442284f16fb4$__9163f40931b0916109df919087908790600401612dd0565b60206040518083038186803b1580156109f757600080fd5b505af4158015610a0b573d6000803e3d6000fd5b505050506040513d601f19601f82011682018060405250810190610a2f9190612392565b9392505050565b60003411610a565760405162461bcd60e51b815260040161061e90612afb565b610a71610a61610ed0565b34610a6a610dec565b91906118f2565b565b6000610a7d610fc3565b6002015460ff16905090565b610a916121f6565b610a99610fc3565b604051636d73f0db60e01b815273__$015d7794271f690550e5fe4793e4b79169$__91636d73f0db91610acf9190600401612815565b60806040518083038186803b158015610ae757600080fd5b505af4158015610afb573d6000803e3d6000fd5b505050506040513d601f19601f82011682018060405250810190610b1f91906124e7565b905090565b610b3e6000805160206131118339815191526103d9610ed0565b610b5a5760405162461bcd60e51b815260040161061e90612dad565b610b6e8282610b67611083565b9190611979565b5050565b7f65d7a28e3265b37a6474929f336521b332c1681b933f6cb9f3376673440d862a81565b610bb06000805160206131118339815191526103d9610ed0565b610bcc5760405162461bcd60e51b815260040161061e90612dad565b610b6e82826119a8565b80610bdf610fc3565b60010180546fffffffffffffffffffffffffffffffff19166001600160801b039290921691909117905550565b60006060333014610c2f5760405162461bcd60e51b815260040161061e90612bd0565b610c47610c41368890038801886125ae565b866119bc565b60006060866001600160a01b031663a76ff28e8988886040518463ffffffff1660e01b8152600401610c7b93929190612e28565b600060405180830381600087803b158015610c9557600080fd5b505af1158015610ca9573d6000803e3d6000fd5b505050506040513d6000823e601f3d908101601f19168201604052610cd191908101906123ae565b9150915081610cf4578060405162461bcd60e51b815260040161061e919061281e565b90925090505b94509492505050565b610d0b611083565b5460ff1615610d2c5760405162461bcd60e51b815260040161061e90612853565b6001610d36611083565b805460ff19169115159190911790556001600160701b038116610d6b5760405162461bcd60e51b815260040161061e90612d2c565b610d86610d76610ed0565b82610d7f610dec565b9190611a42565b610d8e610ed0565b6001600160a01b03166108fc826001600160701b03169081150290604051600060405180830381858888f19350505050158015610dcf573d6000803e3d6000fd5b506000610dda611083565b805460ff191691151591909117905550565b7f8c89fc81d9ea4103ca01a6b8674fdaec22ec47acad49dcba52ad9c3d556ea07590565b6001600160a01b0381166000908152602083905260408120600181015415801590610e3e5750438160010154115b15610e5b5754600160701b90046001600160701b03169050610525565b5060009392505050565b6001600160a01b0381166000908152602083905260408120600181015415801590610e935750438160010154115b15610ebf578054610eb7906001600160701b0380821691600160701b900416611ae9565b915050610525565b546001600160701b03169392505050565b3390565b6001600160a01b03821660009081526020849052604090208054610f05906001600160701b03908116908416611b0e565b81546001600160701b0319166001600160701b0391821617808355610f3691600160701b9091048116908416611ae9565b81546001600160701b0391909116600160701b02600160701b600160e01b0319909116178155610f75610f67610fc3565b60020154439060ff16611ae9565b60018201556040516001600160a01b038416907f2003b3784184319a80d89c8f4f47ed588347aba97e0f40ae058f928c8bb5f74d90610fb5908590612f54565b60405180910390a250505050565b7ff5b4be0a744c821d14f78bf26d55a308f420d78cebbfac103f2618fba32917b990565b7fd59dd79cfd4373c6c6547848d91fc2ea67c8aec9053f7028828216c5af1d474190565b611013610fc3565b6040516321cab0c760e01b815273__$015d7794271f690550e5fe4793e4b79169$__916321cab0c79161104b91908590600401612dfd565b60006040518083038186803b15801561106357600080fd5b505af4158015611077573d6000803e3d6000fd5b50505050610642611b36565b7f3a83b1278d351a40f18bb9e8e77896e8c1dc812ffaed5ea63e0e837a6dae57e990565b610b6e82826040516024016110bd929190612831565b60408051601f198184030181529190526020810180516001600160e01b03166309710a9d60e41b179052611bff565b6110f46121ce565b6110fe823a611c20565b61111a5760405162461bcd60e51b815260040161061e90612cc8565b61112382611cf7565b61113f5760405162461bcd60e51b815260040161061e90612b87565b61114882611d94565b6111645760405162461bcd60e51b815260040161061e90612b3c565b60405180608001604052808360800151600001516001600160a01b03166370a0823185604001516040518263ffffffff1660e01b81526004016111a79190612784565b60206040518083038186803b1580156111bf57600080fd5b505afa1580156111d3573d6000803e3d6000fd5b505050506040513d601f19601f820116820180604052508101906111f79190612632565b81526020018360a00151600001516001600160a01b03166370a0823185604001516040518263ffffffff1660e01b81526004016112349190612784565b60206040518083038186803b15801561124c57600080fd5b505afa158015611260573d6000803e3d6000fd5b505050506040513d601f19601f820116820180604052508101906112849190612632565b81526020016000815260200160008152509050919050565b600060603063fbe91eba6112b4620138805a90611b0e565b888888886040518663ffffffff1660e01b81526004016112d79493929190612ec6565b600060405180830381600088803b1580156112f157600080fd5b5087f19350505050801561132757506040513d6000823e601f3d908101601f1916820160405261132491908101906123ae565b60015b61137e57611333613017565b8061133e5750611349565b600092509050611379565b50506040805180820190915260138152722ab735b737bbb7103330b4b6103932b0b9b7b760691b60208201526000905b610cfa565b9092509050610cfa565b60808301515160408085015190516370a0823160e01b81526001600160a01b03909216916370a08231916113be91600401612784565b60206040518083038186803b1580156113d657600080fd5b505afa1580156113ea573d6000803e3d6000fd5b505050506040513d601f19601f8201168201806040525081019061140e9190612632565b6040830152806114a85761144a6040518060400160405280600c81526020016b125b9c1d5d0818985b08188d60a21b81525083600001516110a7565b61147f6040518060400160405280600f81526020016e24b7383aba103130b61030b33a32b960891b81525083604001516110a7565b81516040830151146114a35760405162461bcd60e51b815260040161061e90612a35565b61076f565b60a08301515160408085015190516370a0823160e01b81526001600160a01b03909216916370a08231916114de91600401612784565b60206040518083038186803b1580156114f657600080fd5b505afa15801561150a573d6000803e3d6000fd5b505050506040513d601f19601f8201168201806040525081019061152e9190612632565b826060018181525050611571604051806040016040528060148152602001734f757470757420746f6b656e2062616c616e636560601b81525083602001516110a7565b6115aa604051806040016040528060138152602001721058dd1d585b081d1c985919481bdd5d1c1d5d606a1b81525083606001516110a7565b8260a00151602001516001600160701b03166115d783602001518460600151611b0e90919063ffffffff16565b10156115f55760405162461bcd60e51b815260040161061e90612c3c565b81516040830151106116195760405162461bcd60e51b815260040161061e90612943565b608083015160200151604083015183516001600160701b039092169161163e91611b0e565b111561076f5760405162461bcd60e51b815260040161061e90612a83565b8361172757600061167a61ea606116745a8590611b0e565b90611ae9565b90506000611688823a611de3565b9050611698876040015182611e1d565b86604001516001600160a01b03167f25e268b6e417ca50f83f2b95db36dfd7e9d897f9b0b714668524e848e863534782876040516116d7929190612f7c565b60405180910390a26116e7610ed0565b6001600160a01b03166108fc829081150290604051600060405180830381858888f1935050505015801561171f573d6000803e3d6000fd5b5050506106e7565b600061173a61ea606116745a8590611b0e565b90506000611748823a611de3565b9050611788876040015161178389602001516001600160801b03166116748b600001516001600160801b031686611ae990919063ffffffff16565b611e1d565b611790610ed0565b6001600160a01b03166108fc829081150290604051600060405180830381858888f193505050501580156117c8573d6000803e3d6000fd5b506117d1610fc3565b5487516040516001600160a01b03909216916001600160801b0390911680156108fc02916000818181858888f19350505050158015611814573d6000803e3d6000fd5b506118456040518060400160405280600f81526020016e05375636365737366756c207377617608c1b815250611e31565b61184d610ed0565b6001600160a01b031687604001516001600160a01b03167f5ac72b858888990bb2049431a88689d4792e4f81276a67205492ba0e430812ae6118a087604001518860000151611b0e90919063ffffffff16565b602088015160608901516118b391611b0e565b60208c01518c516118d0916001600160801b039182169116611ae9565b866040516118e19493929190612f95565b60405180910390a350505050505050565b6001600160a01b03821660009081526020849052604090208054611923906001600160701b03908116908416611ae9565b81546001600160701b0319166001600160701b03919091161781556040516001600160a01b038416907fc0fa3ea2fda298bdf9ac3cd23fd02c7a0562596814d731619ee046a7a93c09be90610fb5908590612f54565b60009182526001909201602090815260408083206001600160a01b03909416835292905220805460ff19169055565b610b6e82826119b5611083565b9190611e74565b60408201516080830151602081015190516119ed926001600160a01b039091169184906001600160701b0316611ea7565b60208201516001600160801b031615610b6e5760208201516040516001600160a01b038316916001600160801b031680156108fc02916000818181858888f1935050505015801561076f573d6000803e3d6000fd5b6001600160a01b03821660009081526020849052604090206001810154611a7b5760405162461bcd60e51b815260040161061e9061289e565b43816001015410611a9e5760405162461bcd60e51b815260040161061e90612973565b8054611abe90600160701b90046001600160701b03908116908416611b0e565b81546001600160701b0391909116600160701b02600160701b600160e01b0319909116179055505050565b600082820183811015610a2f5760405162461bcd60e51b815260040161061e906128d5565b600082821115611b305760405162461bcd60e51b815260040161061e906129b8565b50900390565b6000611b40610fe7565b8054909150610100900460ff1680611b5a5750805460ff16155b611b765760405162461bcd60e51b815260040161061e90612cff565b8054610100900460ff16158015611b9e57815460ff1961ff0019909116610100171660011782555b6000611ba8610ed0565b9050611bc2600080516020613111833981519152826119a8565b611bec7f65d7a28e3265b37a6474929f336521b332c1681b933f6cb9f3376673440d862a826119a8565b508015610b6e5750805461ff0019169055565b80516a636f6e736f6c652e6c6f67602083016000808483855afa5050505050565b600080611c306206ddd084611de3565b90506000611c6e611c3f610fc3565b60010154602087015187516001600160801b03600160801b909304831692611674928116918391889116611ae9565b6040808701519051630ebd355960e31b815291925060009130916375e9aac891611c9d919086906004016127d6565b60206040518083038186803b158015611cb557600080fd5b505afa158015611cc9573d6000803e3d6000fd5b505050506040513d601f19601f82011682018060405250810190611ced9190612392565b9695505050505050565b6000808260800151602001516001600160701b03168360800151600001516001600160a01b03166370a0823185604001516040518263ffffffff1660e01b8152600401611d449190612784565b60206040518083038186803b158015611d5c57600080fd5b505afa158015611d70573d6000803e3d6000fd5b505050506040513d601f19601f8201168201806040525081019061081f9190612632565b6000808260800151602001516001600160701b03168360800151600001516001600160a01b031663dd62ed3e8560400151306040518363ffffffff1660e01b8152600401611d44929190612798565b600082611df257506000610525565b82820282848281611dff57fe5b0414610a2f5760405162461bcd60e51b815260040161061e90612aba565b610b6e8282611e2a610dec565b9190611f05565b61064281604051602401611e45919061281e565b60408051601f198184030181529190526020810180516001600160e01b031663104c13eb60e21b179052611bff565b60009182526001928301602090815260408084206001600160a01b0390931684529190529020805460ff19169091179055565b611eff846323b872dd60e01b858585604051602401611ec8939291906127b2565b60408051601f198184030181529190526020810180516001600160e01b03166001600160e01b031990931692909217909152612028565b50505050565b6001600160a01b03821660009081526020849052604090206001600160701b038216611f31575061076f565b6000611f3d8585610e65565b9050826001600160701b0316816001600160701b031611611f705760405162461bcd60e51b815260040161061e9061290c565b81546001600160701b03808516911610611fbd578154611f9d906001600160701b03908116908516611b0e565b82546001600160701b0319166001600160701b03919091161782556106e7565b8154611ff190611fd9906001600160701b038681169116611b0e565b8354600160701b90046001600160701b031690611b0e565b82546001600160701b03196001600160701b0392909216600160701b02600160701b600160e01b0319909116171682555050505050565b606061207d826040518060400160405280602081526020017f5361666545524332303a206c6f772d6c6576656c2063616c6c206661696c6564815250856001600160a01b03166120b79092919063ffffffff16565b80519091501561076f578080602001905181019061209b9190612392565b61076f5760405162461bcd60e51b815260040161061e90612d63565b60606120c684846000856120ce565b949350505050565b6060824710156120f05760405162461bcd60e51b815260040161061e906129ef565b6120f98561218f565b6121155760405162461bcd60e51b815260040161061e90612c91565b60006060866001600160a01b031685876040516121329190612768565b60006040518083038185875af1925050503d806000811461216f576040519150601f19603f3d011682016040523d82523d6000602084013e612174565b606091505b5091509150612184828286612195565b979650505050505050565b3b151590565b606083156121a4575081610a2f565b8251156121b45782518084602001fd5b8160405162461bcd60e51b815260040161061e919061281e565b6040518060800160405280600081526020016000815260200160008152602001600081525090565b60408051608081018252600080825260208201819052918101829052606081019190915290565b60008083601f84011261222e578182fd5b50813567ffffffffffffffff811115612245578182fd5b60208301915083602082850101111561225d57600080fd5b9250929050565b60006101008284031215612276578081fd5b61228060c0612fbe565b9050813561228d816130ec565b8152602082013561229d816130ec565b602082015260408201356122b0816130bc565b604082015260608201356122c3816130df565b60608201526122d583608084016122f2565b60808201526122e78360c084016122f2565b60a082015292915050565b600060408284031215612303578081fd5b61230d6040612fbe565b9050813561231a816130bc565b81526123298360208401612334565b602082015292915050565b80356001600160701b038116811461052557600080fd5b60006020828403121561235c578081fd5b8135610a2f816130bc565b60008060408385031215612379578081fd5b8235612384816130bc565b946020939093013593505050565b6000602082840312156123a3578081fd5b8151610a2f816130d1565b600080604083850312156123c0578182fd5b82516123cb816130d1565b602084015190925067ffffffffffffffff808211156123e8578283fd5b818501915085601f8301126123fb578283fd5b815181811115612409578384fd5b61241c601f8201601f1916602001612fbe565b9150808252866020828501011115612432578384fd5b612443816020840160208601612fe5565b5080925050509250929050565b60008060408385031215612462578182fd5b823591506020830135612474816130bc565b809150509250929050565b600060808284031215612490578081fd5b61249a6080612fbe565b82356124a5816130bc565b815260208301356124b5816130ec565b602082015260408301356124c8816130ec565b604082015260608301356124db81613101565b60608201529392505050565b6000608082840312156124f8578081fd5b6125026080612fbe565b825161250d816130bc565b8152602083015161251d816130ec565b60208201526040830151612530816130ec565b604082015260608301516124db81613101565b60008060008084860361014081121561255a578283fd5b61010080821215612569578384fd5b869550850135905061257a816130bc565b925061012085013567ffffffffffffffff811115612596578283fd5b6125a28782880161221d565b95989497509550505050565b600061010082840312156125c0578081fd5b610a2f8383612264565b60008060008061014085870312156125e0578182fd5b6125ea8686612264565b935061010085013561257a816130bc565b60006020828403121561260c578081fd5b610a2f8383612334565b600060208284031215612627578081fd5b8135610a2f816130ec565b600060208284031215612643578081fd5b5051919050565b60006020828403121561265b578081fd5b8135610a2f81613101565b60008284528282602086013780602084860101526020601f19601f85011685010190509392505050565b6002811061269a57fe5b9052565b600081518084526126b6816020860160208601612fe5565b601f01601f19169290920160200192915050565b80516001600160a01b031682526020808201516001600160801b03908116918401919091526040808301519091169083015260609081015160ff16910152565b8035612715816130bc565b6001600160a01b0316825260208101356001600160701b03811680821461273b57600080fd5b80602085015250505050565b80516001600160a01b031682526020908101516001600160701b0316910152565b6000825161277a818460208701612fe5565b9190910192915050565b6001600160a01b0391909116815260200190565b6001600160a01b0392831681529116602082015260400190565b6001600160a01b039384168152919092166020820152604081019190915260600190565b6001600160a01b03929092168252602082015260400190565b901515815260200190565b60008315158252604060208301526120c6604083018461269e565b90815260200190565b600060208252610a2f602083018461269e565b600060408252612844604083018561269e565b90508260208301529392505050565b6020808252602b908201527f417474656d7074696e6720746f2072652d656e7465722066756e6374696f6e2060408201526a7265637572736976656c7960a81b606082015260800190565b6020808252601d908201527f4d75737420666972737420726571756573742061207769746864726177000000604082015260600190565b6020808252601b908201527f536166654d6174683a206164646974696f6e206f766572666c6f770000000000604082015260600190565b6020808252601e908201527f496e73756666696369656e742067617320746f2070617920616d6f756e740000604082015260600190565b602080825260169082015275496e70757420746f6b656e73206e6f7420757365642160501b604082015260600190565b60208082526025908201527f43616e6e6f7420776974686472617720696e73696465206c6f636b6f75742070604082015264195c9a5bd960da1b606082015260800190565b6020808252601e908201527f536166654d6174683a207375627472616374696f6e206f766572666c6f770000604082015260600190565b60208082526026908201527f416464726573733a20696e73756666696369656e742062616c616e636520666f6040820152651c8818d85b1b60d21b606082015260800190565b6020808252602e908201527f6661696c656420747261646520616374696f6e20646964206e6f74207265667560408201526d6e6420696e7075742066756e647360901b606082015260800190565b6020808252601a908201527f5573656420746f6f206d616e7920696e70757420746f6b656e73000000000000604082015260600190565b60208082526021908201527f536166654d6174683a206d756c7469706c69636174696f6e206f766572666c6f6040820152607760f81b606082015260800190565b60208082526021908201527f4e6f2066756e64732070726f766964656420666f7220676173206465706f73696040820152601d60fa1b606082015260800190565b6020808252602b908201527f496e73756666696369656e74207370656e6420616c6c6f77616e6365206f6e2060408201526a34b7383aba103a37b5b2b760a91b606082015260800190565b60208082526029908201527f496e73756666696369656e7420696e70757420746f6b656e2062616c616e636560408201526820746f20747261646560b81b606082015260800190565b60208082526029908201527f43616e206f6e6c792062652063616c6c656420627920736574746c656d656e746040820152680818dbdb9d1c9858dd60ba1b606082015260800190565b6020808252600990820152684e6f742072656c617960b81b604082015260600190565b60208082526035908201527f547261646520616374696f6e20646964206e6f74207472616e73666572206f756040820152743a383aba103a37b5b2b739903a37903a3930b232b960591b606082015260800190565b6020808252601d908201527f416464726573733a2063616c6c20746f206e6f6e2d636f6e7472616374000000604082015260600190565b6020808252601b908201527f496e73756666696369656e74206761732074616e6b2066756e64730000000000604082015260600190565b602080825260139082015272105b1c9958591e481a5b9a5d1a585b1a5e9959606a1b604082015260600190565b60208082526018908201527f43616e6e6f74207769746864726177203020616d6f756e740000000000000000604082015260600190565b6020808252602a908201527f5361666545524332303a204552433230206f7065726174696f6e20646964206e6040820152691bdd081cdd58d8d9595960b21b606082015260800190565b6020808252600990820152682737ba1030b236b4b760b91b604082015260600190565b92835260208301919091526001600160a01b0316604082015260600190565b6080810161052582846126ca565b82815260a08101610a2f60208301846126ca565b9182526001600160a01b0316602082015260400190565b60006101208535612e38816130ec565b6001600160801b039081168452602087013590612e54826130ec565b1660208401526040860135612e68816130bc565b6001600160a01b031660408401526060860135612e84816130df565b612e916060850182612690565b50612ea2608084016080880161270a565b612eb260c0840160c0880161270a565b80610100840152611ced8184018587612666565b60006101406001600160801b0380885116845280602089015116602085015250604087015160018060a01b03808216604086015260608901519150612f0e6060860183612690565b60808901519150612f226080860183612747565b60a08901519150612f3660c0860183612747565b87166101008501525061012083018190526121848184018587612666565b6001600160701b0391909116815260200190565b6001600160801b0391909116815260200190565b6000838252604060208301526120c6604083018461269e565b93845260208401929092526040830152606082015260800190565b60ff91909116815260200190565b60405181810167ffffffffffffffff81118282101715612fdd57600080fd5b604052919050565b60005b83811015613000578181015183820152602001612fe8565b83811115611eff5750506000910152565b60e01c90565b600060443d1015613027576107e2565b600481823e6308c379a061303b8251613011565b14613045576107e2565b6040513d600319016004823e80513d67ffffffffffffffff816024840111818411171561307557505050506107e2565b8284019250825191508082111561308f57505050506107e2565b503d830160208284010111156130a7575050506107e2565b601f01601f1916810160200160405291505090565b6001600160a01b038116811461064257600080fd5b801515811461064257600080fd5b6002811061064257600080fd5b6001600160801b038116811461064257600080fd5b60ff8116811461064257600080fdfea49807205ce4d355092ef5a8a18f56e8913cf4a201fbe287825b095693c21775a264697066735822122050682f608967bfa36f80b6a7e8d84672e490e893300e2c79c7ef5c9a80ffd27064736f6c63430007000033",
  "linkReferences": {
    "contracts/libs/LibAccess.sol": {
      "LibAccess": [
        {
          "length": 20,
          "start": 2516
        }
      ]
    },
    "contracts/libs/LibConfig.sol": {
      "LibConfig": [
        {
          "length": 20,
          "start": 1714
        },
        {
          "length": 20,
          "start": 2760
        },
        {
          "length": 20,
          "start": 4162
        }
      ]
    },
    "contracts/libs/LibGas.sol": {
      "LibGas": [
        {
          "length": 20,
          "start": 1380
        }
      ]
    }
  },
  "deployedLinkReferences": {
    "contracts/libs/LibAccess.sol": {
      "LibAccess": [
        {
          "length": 20,
          "start": 2484
        }
      ]
    },
    "contracts/libs/LibConfig.sol": {
      "LibConfig": [
        {
          "length": 20,
          "start": 1682
        },
        {
          "length": 20,
          "start": 2728
        },
        {
          "length": 20,
          "start": 4130
        }
      ]
    },
    "contracts/libs/LibGas.sol": {
      "LibGas": [
        {
          "length": 20,
          "start": 1348
        }
      ]
    }
  }
}