{
  "_format": "hh-sol-artifact-1",
  "contractName": "Settlement",
  "sourceName": "contracts/Settlement.sol",
  "abi": [
    {
      "anonymous": false,
      "inputs": [
        {
          "indexed": true,
          "internalType": "address",
          "name": "affiliate",
          "type": "address"
        },
        {
          "indexed": false,
          "internalType": "contract IERC20",
          "name": "token",
          "type": "address"
        },
        {
          "indexed": false,
          "internalType": "uint256",
          "name": "amount",
          "type": "uint256"
        }
      ],
      "name": "AffiliatePaid",
      "type": "event"
    },
    {
      "anonymous": false,
      "inputs": [
        {
          "indexed": true,
          "internalType": "address",
          "name": "relay",
          "type": "address"
        },
        {
          "indexed": false,
          "internalType": "uint256",
          "name": "amount",
          "type": "uint256"
        }
      ],
      "name": "InsufficientGasFunds",
      "type": "event"
    },
    {
      "anonymous": false,
      "inputs": [
        {
          "indexed": true,
          "internalType": "address",
          "name": "relay",
          "type": "address"
        },
        {
          "indexed": false,
          "internalType": "uint256",
          "name": "amount",
          "type": "uint256"
        }
      ],
      "name": "PaidGasFunds",
      "type": "event"
    },
    {
      "anonymous": false,
      "inputs": [
        {
          "indexed": true,
          "internalType": "address",
          "name": "sender",
          "type": "address"
        },
        {
          "indexed": false,
          "internalType": "uint256",
          "name": "amount",
          "type": "uint256"
        }
      ],
      "name": "ReceivedETH",
      "type": "event"
    },
    {
      "anonymous": false,
      "inputs": [
        {
          "indexed": true,
          "internalType": "address",
          "name": "trader",
          "type": "address"
        },
        {
          "indexed": false,
          "internalType": "string",
          "name": "reason",
          "type": "string"
        },
        {
          "indexed": false,
          "internalType": "contract IERC20",
          "name": "feeToken",
          "type": "address"
        },
        {
          "indexed": false,
          "internalType": "uint256",
          "name": "gasFeePaid",
          "type": "uint256"
        }
      ],
      "name": "SwapFailed",
      "type": "event"
    },
    {
      "anonymous": false,
      "inputs": [
        {
          "indexed": true,
          "internalType": "address",
          "name": "trader",
          "type": "address"
        },
        {
          "indexed": false,
          "internalType": "uint256",
          "name": "inputAmount",
          "type": "uint256"
        },
        {
          "indexed": false,
          "internalType": "uint256",
          "name": "outputAmount",
          "type": "uint256"
        },
        {
          "indexed": false,
          "internalType": "contract IERC20",
          "name": "feeToken",
          "type": "address"
        },
        {
          "indexed": false,
          "internalType": "uint256",
          "name": "gasFee",
          "type": "uint256"
        },
        {
          "indexed": false,
          "internalType": "uint256",
          "name": "dexibleFee",
          "type": "uint256"
        }
      ],
      "name": "SwapSuccess",
      "type": "event"
    },
    {
      "anonymous": false,
      "inputs": [
        {
          "indexed": true,
          "internalType": "address",
          "name": "trader",
          "type": "address"
        },
        {
          "indexed": true,
          "internalType": "address",
          "name": "affiliate",
          "type": "address"
        },
        {
          "indexed": false,
          "internalType": "uint256",
          "name": "inputAmount",
          "type": "uint256"
        },
        {
          "indexed": false,
          "internalType": "uint256",
          "name": "outputAmount",
          "type": "uint256"
        },
        {
          "indexed": false,
          "internalType": "contract IERC20",
          "name": "feeToken",
          "type": "address"
        },
        {
          "indexed": false,
          "internalType": "uint256",
          "name": "gasFee",
          "type": "uint256"
        },
        {
          "indexed": false,
          "internalType": "uint256",
          "name": "affiliateFee",
          "type": "uint256"
        },
        {
          "indexed": false,
          "internalType": "uint256",
          "name": "dexibleFee",
          "type": "uint256"
        }
      ],
      "name": "SwapV3Success",
      "type": "event"
    },
    {
      "anonymous": false,
      "inputs": [
        {
          "indexed": true,
          "internalType": "address",
          "name": "trader",
          "type": "address"
        },
        {
          "indexed": false,
          "internalType": "uint256",
          "name": "penalty",
          "type": "uint256"
        },
        {
          "indexed": false,
          "internalType": "uint256",
          "name": "gasPaid",
          "type": "uint256"
        },
        {
          "indexed": false,
          "internalType": "string",
          "name": "reason",
          "type": "string"
        }
      ],
      "name": "TraderPenalized",
      "type": "event"
    },
    {
      "anonymous": false,
      "inputs": [
        {
          "indexed": true,
          "internalType": "address",
          "name": "receiver",
          "type": "address"
        },
        {
          "indexed": false,
          "internalType": "uint256",
          "name": "amount",
          "type": "uint256"
        }
      ],
      "name": "WithdrewETH",
      "type": "event"
    },
    {
      "inputs": [],
      "name": "ACTION_ROLE",
      "outputs": [
        {
          "internalType": "bytes32",
          "name": "",
          "type": "bytes32"
        }
      ],
      "stateMutability": "view",
      "type": "function"
    },
    {
      "inputs": [],
      "name": "ADMIN_ROLE",
      "outputs": [
        {
          "internalType": "bytes32",
          "name": "",
          "type": "bytes32"
        }
      ],
      "stateMutability": "view",
      "type": "function"
    },
    {
      "inputs": [],
      "name": "PAUSER_ROLE",
      "outputs": [
        {
          "internalType": "bytes32",
          "name": "",
          "type": "bytes32"
        }
      ],
      "stateMutability": "view",
      "type": "function"
    },
    {
      "inputs": [],
      "name": "RELAY_ROLE",
      "outputs": [
        {
          "internalType": "bytes32",
          "name": "",
          "type": "bytes32"
        }
      ],
      "stateMutability": "view",
      "type": "function"
    },
    {
      "inputs": [
        {
          "components": [
            {
              "internalType": "address",
              "name": "trader",
              "type": "address"
            },
            {
              "components": [
                {
                  "internalType": "contract IERC20",
                  "name": "token",
                  "type": "address"
                },
                {
                  "internalType": "uint112",
                  "name": "amount",
                  "type": "uint112"
                }
              ],
              "internalType": "struct Types.TokenAmount",
              "name": "input",
              "type": "tuple"
            },
            {
              "components": [
                {
                  "internalType": "contract IERC20",
                  "name": "token",
                  "type": "address"
                },
                {
                  "internalType": "uint112",
                  "name": "amount",
                  "type": "uint112"
                }
              ],
              "internalType": "struct Types.TokenAmount",
              "name": "output",
              "type": "tuple"
            },
            {
              "components": [
                {
                  "internalType": "contract IERC20",
                  "name": "feeToken",
                  "type": "address"
                },
                {
                  "internalType": "address",
                  "name": "affiliate",
                  "type": "address"
                },
                {
                  "internalType": "uint256",
                  "name": "affiliatePortion",
                  "type": "uint256"
                },
                {
                  "internalType": "uint256",
                  "name": "feeTokenETHPrice",
                  "type": "uint256"
                },
                {
                  "internalType": "uint256",
                  "name": "dexibleFee",
                  "type": "uint256"
                },
                {
                  "internalType": "uint256",
                  "name": "gasFee",
                  "type": "uint256"
                }
              ],
              "internalType": "struct Types.V3Fees",
              "name": "fees",
              "type": "tuple"
            }
          ],
          "internalType": "struct Types.V3Order",
          "name": "order",
          "type": "tuple"
        },
        {
          "internalType": "uint256",
          "name": "startBal",
          "type": "uint256"
        },
        {
          "internalType": "bytes",
          "name": "_data",
          "type": "bytes"
        }
      ],
      "name": "_tryV3Swap",
      "outputs": [
        {
          "internalType": "bool",
          "name": "",
          "type": "bool"
        },
        {
          "internalType": "uint256",
          "name": "",
          "type": "uint256"
        },
        {
          "internalType": "string",
          "name": "",
          "type": "string"
        }
      ],
      "stateMutability": "nonpayable",
      "type": "function"
    },
    {
      "inputs": [
        {
          "internalType": "bytes32",
          "name": "role",
          "type": "bytes32"
        },
        {
          "internalType": "address",
          "name": "actor",
          "type": "address"
        }
      ],
      "name": "addRole",
      "outputs": [],
      "stateMutability": "nonpayable",
      "type": "function"
    },
    {
      "inputs": [
        {
          "internalType": "contract WNative",
          "name": "native",
          "type": "address"
        },
        {
          "internalType": "uint256",
          "name": "amount",
          "type": "uint256"
        }
      ],
      "name": "depositWNative",
      "outputs": [],
      "stateMutability": "nonpayable",
      "type": "function"
    },
    {
      "inputs": [],
      "name": "getConfig",
      "outputs": [
        {
          "components": [
            {
              "internalType": "address",
              "name": "devTeam",
              "type": "address"
            },
            {
              "internalType": "uint128",
              "name": "minFee",
              "type": "uint128"
            },
            {
              "internalType": "uint128",
              "name": "penaltyFee",
              "type": "uint128"
            },
            {
              "internalType": "uint8",
              "name": "lockoutBlocks",
              "type": "uint8"
            }
          ],
          "internalType": "struct Types.Config",
          "name": "",
          "type": "tuple"
        }
      ],
      "stateMutability": "view",
      "type": "function"
    },
    {
      "inputs": [],
      "name": "getDevTeam",
      "outputs": [
        {
          "internalType": "address",
          "name": "",
          "type": "address"
        }
      ],
      "stateMutability": "view",
      "type": "function"
    },
    {
      "inputs": [],
      "name": "getLockoutBlocks",
      "outputs": [
        {
          "internalType": "uint8",
          "name": "",
          "type": "uint8"
        }
      ],
      "stateMutability": "view",
      "type": "function"
    },
    {
      "inputs": [],
      "name": "getMinFee",
      "outputs": [
        {
          "internalType": "uint128",
          "name": "",
          "type": "uint128"
        }
      ],
      "stateMutability": "view",
      "type": "function"
    },
    {
      "inputs": [],
      "name": "getPenaltyFee",
      "outputs": [
        {
          "internalType": "uint128",
          "name": "",
          "type": "uint128"
        }
      ],
      "stateMutability": "view",
      "type": "function"
    },
    {
      "inputs": [
        {
          "internalType": "bytes32",
          "name": "role",
          "type": "bytes32"
        },
        {
          "internalType": "address",
          "name": "actor",
          "type": "address"
        }
      ],
      "name": "hasRole",
      "outputs": [
        {
          "internalType": "bool",
          "name": "",
          "type": "bool"
        }
      ],
      "stateMutability": "view",
      "type": "function"
    },
    {
      "inputs": [
        {
          "components": [
            {
              "internalType": "address",
              "name": "devTeam",
              "type": "address"
            },
            {
              "internalType": "uint128",
              "name": "minFee",
              "type": "uint128"
            },
            {
              "internalType": "uint128",
              "name": "penaltyFee",
              "type": "uint128"
            },
            {
              "internalType": "uint8",
              "name": "lockoutBlocks",
              "type": "uint8"
            }
          ],
          "internalType": "struct Types.Config",
          "name": "config",
          "type": "tuple"
        }
      ],
      "name": "initialize",
      "outputs": [],
      "stateMutability": "nonpayable",
      "type": "function"
    },
    {
      "inputs": [
        {
          "internalType": "bytes32",
          "name": "role",
          "type": "bytes32"
        },
        {
          "internalType": "address",
          "name": "actor",
          "type": "address"
        }
      ],
      "name": "revokeRole",
      "outputs": [],
      "stateMutability": "nonpayable",
      "type": "function"
    },
    {
      "inputs": [
        {
          "components": [
            {
              "internalType": "address",
              "name": "devTeam",
              "type": "address"
            },
            {
              "internalType": "uint128",
              "name": "minFee",
              "type": "uint128"
            },
            {
              "internalType": "uint128",
              "name": "penaltyFee",
              "type": "uint128"
            },
            {
              "internalType": "uint8",
              "name": "lockoutBlocks",
              "type": "uint8"
            }
          ],
          "internalType": "struct Types.Config",
          "name": "config",
          "type": "tuple"
        }
      ],
      "name": "setConfig",
      "outputs": [],
      "stateMutability": "nonpayable",
      "type": "function"
    },
    {
      "inputs": [
        {
          "internalType": "address",
          "name": "team",
          "type": "address"
        }
      ],
      "name": "setDevTeam",
      "outputs": [],
      "stateMutability": "nonpayable",
      "type": "function"
    },
    {
      "inputs": [
        {
          "internalType": "uint8",
          "name": "blocks",
          "type": "uint8"
        }
      ],
      "name": "setLockoutBlocks",
      "outputs": [],
      "stateMutability": "nonpayable",
      "type": "function"
    },
    {
      "inputs": [
        {
          "internalType": "uint128",
          "name": "fee",
          "type": "uint128"
        }
      ],
      "name": "setMinFee",
      "outputs": [],
      "stateMutability": "nonpayable",
      "type": "function"
    },
    {
      "inputs": [
        {
          "internalType": "uint128",
          "name": "fee",
          "type": "uint128"
        }
      ],
      "name": "setPenaltyFee",
      "outputs": [],
      "stateMutability": "nonpayable",
      "type": "function"
    },
    {
      "inputs": [
        {
          "internalType": "address",
          "name": "oldRelay",
          "type": "address"
        },
        {
          "internalType": "address",
          "name": "newRelay",
          "type": "address"
        }
      ],
      "name": "swapRelay",
      "outputs": [],
      "stateMutability": "nonpayable",
      "type": "function"
    },
    {
      "inputs": [
        {
          "components": [
            {
              "internalType": "address",
              "name": "trader",
              "type": "address"
            },
            {
              "components": [
                {
                  "internalType": "contract IERC20",
                  "name": "token",
                  "type": "address"
                },
                {
                  "internalType": "uint112",
                  "name": "amount",
                  "type": "uint112"
                }
              ],
              "internalType": "struct Types.TokenAmount",
              "name": "input",
              "type": "tuple"
            },
            {
              "components": [
                {
                  "internalType": "contract IERC20",
                  "name": "token",
                  "type": "address"
                },
                {
                  "internalType": "uint112",
                  "name": "amount",
                  "type": "uint112"
                }
              ],
              "internalType": "struct Types.TokenAmount",
              "name": "output",
              "type": "tuple"
            },
            {
              "components": [
                {
                  "internalType": "contract IERC20",
                  "name": "feeToken",
                  "type": "address"
                },
                {
                  "internalType": "address",
                  "name": "affiliate",
                  "type": "address"
                },
                {
                  "internalType": "uint256",
                  "name": "affiliatePortion",
                  "type": "uint256"
                },
                {
                  "internalType": "uint256",
                  "name": "feeTokenETHPrice",
                  "type": "uint256"
                },
                {
                  "internalType": "uint256",
                  "name": "dexibleFee",
                  "type": "uint256"
                },
                {
                  "internalType": "uint256",
                  "name": "gasFee",
                  "type": "uint256"
                }
              ],
              "internalType": "struct Types.V3Fees",
              "name": "fees",
              "type": "tuple"
            }
          ],
          "internalType": "struct Types.V3Order",
          "name": "order",
          "type": "tuple"
        },
        {
          "internalType": "contract IDexRouter",
          "name": "router",
          "type": "address"
        },
        {
          "internalType": "bytes",
          "name": "data",
          "type": "bytes"
        }
      ],
      "name": "v3Fill",
      "outputs": [],
      "stateMutability": "nonpayable",
      "type": "function"
    },
    {
      "inputs": [
        {
          "internalType": "uint256",
          "name": "amount",
          "type": "uint256"
        }
      ],
      "name": "withdraw",
      "outputs": [],
      "stateMutability": "nonpayable",
      "type": "function"
    },
    {
      "stateMutability": "payable",
      "type": "receive"
    }
  ],
  "bytecode": "0x608060405234801561001057600080fd5b506134f4806100206000396000f3fe6080604052600436106101445760003560e01c806373dc63ea116100b6578063c13da0181161006f578063c13da018146103bf578063c3f909d4146103df578063d547741f14610401578063e63ab1e914610421578063e959b38a14610436578063f102669b146104565761018c565b806373dc63ea1461030657806375b238fc14610326578063775506101461033b5780638d3403fd1461035057806391d1485414610370578063b1cf4b0c1461039d5761018c565b806340ee75bb1161010857806340ee75bb146102335780634e1c68291461025357806355a9e2ba146102735780635716d1ce146102a25780635cf34bcf146102c25780636a9447b5146102e45761018c565b8063044218231461019157806327054df6146101bc5780632e1a7d4d146101d1578063334c3c65146101f35780633f51e182146102135761018c565b3661018c57336001600160a01b03167f4103257eaac983ca79a70d28f90dfc4fa16b619bb0c17ee7cab0d4034c279624346040516101829190612bf7565b60405180910390a2005b600080fd5b34801561019d57600080fd5b506101a6610476565b6040516101b39190612bf7565b60405180910390f35b3480156101c857600080fd5b506101a6610488565b3480156101dd57600080fd5b506101f16101ec3660046129f3565b6104ac565b005b3480156101ff57600080fd5b506101f161020e366004612843565b610597565b34801561021f57600080fd5b506101f161022e366004612843565b610640565b34801561023f57600080fd5b506101f161024e366004612652565b6106c6565b34801561025f57600080fd5b506101f161026e3660046129d7565b610726565b34801561027f57600080fd5b5061029361028e36600461296c565b610786565b6040516101b393929190612bcd565b3480156102ae57600080fd5b506101f16102bd366004612818565b610b69565b3480156102ce57600080fd5b506102d7610cff565b6040516101b3919061319a565b3480156102f057600080fd5b506102f9610d1c565b6040516101b39190612b57565b34801561031257600080fd5b506101f1610321366004612907565b610d35565b34801561033257600080fd5b506101a6610e8e565b34801561034757600080fd5b506102d7610ea0565b34801561035c57600080fd5b506101f161036b366004612a23565b610ec3565b34801561037c57600080fd5b5061039061038b3660046127f4565b610f1a565b6040516101b39190612bc2565b3480156103a957600080fd5b506103b2610fb7565b6040516101b391906131ae565b3480156103cb57600080fd5b506101f16103da36600461270e565b610fcd565b3480156103eb57600080fd5b506103f4611037565b6040516101b3919061307f565b34801561040d57600080fd5b506101f161041c3660046127f4565b6110d2565b34801561042d57600080fd5b506101a661111c565b34801561044257600080fd5b506101f16104513660046127f4565b611140565b34801561046257600080fd5b506101f16104713660046129d7565b611180565b6000805160206133ca83398151915281565b7fd95061bdf0c43d77b6cbe1c15072292976244ec8d5012de75baa36e42da4625e81565b6104c660008051602061341f83398151915261038b6111ec565b6104eb5760405162461bcd60e51b81526004016104e29061303d565b60405180910390fd5b4781111561050b5760405162461bcd60e51b81526004016104e290612de8565b6105136111ec565b6001600160a01b03166108fc829081150290604051600060405180830381858888f1935050505015801561054b573d6000803e3d6000fd5b506105546111ec565b6001600160a01b03167faa21a47bc8f0df1a253be34a945b1d0a8f458e4da029c0ab59c1fee1e488c0668260405161058c9190612bf7565b60405180910390a250565b6105b160008051602061341f83398151915261038b6111ec565b6105cd5760405162461bcd60e51b81526004016104e29061303d565b6105d56111f0565b6040516321cab0c760e01b815273__$015d7794271f690550e5fe4793e4b79169$__916321cab0c79161060d9190859060040161308d565b60006040518083038186803b15801561062557600080fd5b505af4158015610639573d6000803e3d6000fd5b5050505050565b600061064a611214565b8054909150610100900460ff16806106645750805460ff16155b6106805760405162461bcd60e51b81526004016104e290612f70565b8054610100900460ff161580156106a857815460ff1961ff0019909116610100171660011782555b6106b183611238565b80156106c157815461ff00191682555b505050565b6106e060008051602061341f83398151915261038b6111ec565b6106fc5760405162461bcd60e51b81526004016104e29061303d565b806107056111f0565b80546001600160a01b0319166001600160a01b039290921691909117905550565b61074060008051602061341f83398151915261038b6111ec565b61075c5760405162461bcd60e51b81526004016104e29061303d565b806107656111f0565b60010180546001600160801b03928316600160801b02921691909117905550565b60008060603330146107aa5760405162461bcd60e51b81526004016104e290612e96565b6107b3876112b3565b6107e8604051806040016040528060148152602001734465636f64696e6720746172676574206172677360601b81525061138d565b60008060606107f98789018961266e565b92509250925061083e6040518060400160405280601a81526020017f417070726f76696e67207370656e6420666f7220746172676574000000000000815250836113d0565b600061085060408c0160208d01612652565b6001600160a01b031663dd62ed3e30856040518363ffffffff1660e01b815260040161087d929190612b6b565b60206040518083038186803b15801561089557600080fd5b505afa1580156108a9573d6000803e3d6000fd5b505050506040513d601f19601f820116820180604052508101906108cd9190612a0b565b90506109006040518060400160405280600f81526020016e5370656e6420616c6c6f77616e636560881b81525082611415565b8015610975576109446040518060400160405280601981526020017f302d696e67206f7574207370656e6420616c6c6f77616e63650000000000000081525061138d565b6109708360008d60200160000160208101906109609190612652565b6001600160a01b0316919061145a565b610996565b6109966040518060600160405280602781526020016133a36027913961138d565b6109c9836109aa60608e0160408f016129b0565b6001600160701b03168d60200160000160208101906109609190612652565b6109fd6040518060400160405280601281526020017110d85b1b1a5b99c81cddd85c15185c99d95d60721b815250856113d0565b610a276040518060400160405280600881526020016711d85cc81b19599d60c21b8152505a611415565b6000846001600160a01b03165a84604051610a429190612b3b565b60006040518083038160008787f1925050503d8060008114610a80576040519150601f19603f3d011682016040523d82523d6000602084013e610a85565b606091505b5050905080610aa65760405162461bcd60e51b81526004016104e290612e2d565b6001610b438c8e6060016000016020810190610ac29190612652565b6001600160a01b03166370a08231306040518263ffffffff1660e01b8152600401610aed9190612b57565b60206040518083038186803b158015610b0557600080fd5b505afa158015610b19573d6000803e3d6000fd5b505050506040513d601f19601f82011682018060405250810190610b3d9190612a0b565b90611554565b6040518060200160405280600081525097509750975050505050505b9450945094915050565b6000826001600160a01b031663dd62ed3e610b826111ec565b306040518363ffffffff1660e01b8152600401610ba0929190612b6b565b60206040518083038186803b158015610bb857600080fd5b505afa158015610bcc573d6000803e3d6000fd5b505050506040513d601f19601f82011682018060405250810190610bf09190612a0b565b905081811015610c125760405162461bcd60e51b81526004016104e290612edf565b826001600160a01b03166323b872dd610c296111ec565b30856040518463ffffffff1660e01b8152600401610c4993929190612b85565b602060405180830381600087803b158015610c6357600080fd5b505af1158015610c77573d6000803e3d6000fd5b505050506040513d601f19601f82011682018060405250810190610c9b9190612746565b50604051632e1a7d4d60e01b81526001600160a01b03841690632e1a7d4d90610cc8908590600401612bf7565b600060405180830381600087803b158015610ce257600080fd5b505af1158015610cf6573d6000803e3d6000fd5b50505050505050565b6000610d096111f0565b600101546001600160801b031690505b90565b6000610d266111f0565b546001600160a01b0316905090565b610d4f6000805160206133ca83398151915261038b6111ec565b610d6b5760405162461bcd60e51b81526004016104e290612f16565b610d7361157c565b5460ff1615610d945760405162461bcd60e51b81526004016104e290612cb2565b6001610d9e61157c565b805460ff19169115159190911790556000610dbc619c405a906115a0565b90506000806060610e5888610dd660808201828501612652565b6001600160a01b03166370a08231306040518263ffffffff1660e01b8152600401610e019190612b57565b60206040518083038186803b158015610e1957600080fd5b505afa158015610e2d573d6000803e3d6000fd5b505050506040513d601f19601f82011682018060405250810190610e519190612a0b565b88886115c5565b925092509250610e6b8884838786611785565b505050506000610e7961157c565b805460ff191691151591909117905550505050565b60008051602061341f83398151915281565b6000610eaa6111f0565b60010154600160801b90046001600160801b0316919050565b610edd60008051602061341f83398151915261038b6111ec565b610ef95760405162461bcd60e51b81526004016104e29061303d565b80610f026111f0565b600201805460ff191660ff9290921691909117905550565b6000610f2461157c565b604051630f40931b60e41b815273__$712f9bd20561de4f0bfbc1442284f16fb4$__9163f40931b091610f5e919087908790600401613060565b60206040518083038186803b158015610f7657600080fd5b505af4158015610f8a573d6000803e3d6000fd5b505050506040513d601f19601f82011682018060405250810190610fae9190612746565b90505b92915050565b6000610fc16111f0565b6002015460ff16905090565b610fe760008051602061341f83398151915261038b6111ec565b6110035760405162461bcd60e51b81526004016104e29061303d565b61101b6000805160206133ca833981519152836110d2565b6110336000805160206133ca83398151915282611140565b5050565b61103f6125c1565b6110476111f0565b604051636d73f0db60e01b815273__$015d7794271f690550e5fe4793e4b79169$__91636d73f0db9161107d9190600401612bf7565b60806040518083038186803b15801561109557600080fd5b505af41580156110a9573d6000803e3d6000fd5b505050506040513d601f19601f820116820180604052508101906110cd91906128ab565b905090565b6110ec60008051602061341f83398151915261038b6111ec565b6111085760405162461bcd60e51b81526004016104e29061303d565b611033828261111561157c565b91906119d8565b7f65d7a28e3265b37a6474929f336521b332c1681b933f6cb9f3376673440d862a81565b61115a60008051602061341f83398151915261038b6111ec565b6111765760405162461bcd60e51b81526004016104e29061303d565b6110338282611a07565b61119a60008051602061341f83398151915261038b6111ec565b6111b65760405162461bcd60e51b81526004016104e29061303d565b806111bf6111f0565b60010180546fffffffffffffffffffffffffffffffff19166001600160801b039290921691909117905550565b3390565b7ff5b4be0a744c821d14f78bf26d55a308f420d78cebbfac103f2618fba32917b990565b7fd59dd79cfd4373c6c6547848d91fc2ea67c8aec9053f7028828216c5af1d474190565b6112406111f0565b6040516321cab0c760e01b815273__$015d7794271f690550e5fe4793e4b79169$__916321cab0c7916112789190859060040161308d565b60006040518083038186803b15801561129057600080fd5b505af41580156112a4573d6000803e3d6000fd5b505050506112b0611a1b565b50565b604080518082018252601e81527f5472616e73666572696e6720696e70757420666f722074726164696e673a00006020820152611308916112fa90606085019085016129b0565b6001600160701b0316611415565b6113536113186020830183612652565b3061132960608501604086016129b0565b6001600160701b03166113426040860160208701612652565b6001600160a01b0316929190611ae4565b60408051808201909152600f81526e115e1c1958dd1959081bdd5d1c1d5d608a1b60208201526112b0906112fa60a08401608085016129b0565b6112b0816040516024016113a19190612c00565b60408051601f198184030181529190526020810180516001600160e01b031663104c13eb60e21b179052611b0b565b61103382826040516024016113e6929190612c13565b60408051601f198184030181529190526020810180516001600160e01b031663319af33360e01b179052611b0b565b611033828260405160240161142b929190612c90565b60408051601f198184030181529190526020810180516001600160e01b0316632d839cb360e21b179052611b0b565b8015806114e25750604051636eb1769f60e11b81526001600160a01b0384169063dd62ed3e906114909030908690600401612b6b565b60206040518083038186803b1580156114a857600080fd5b505afa1580156114bc573d6000803e3d6000fd5b505050506040513d601f19601f820116820180604052508101906114e09190612a0b565b155b6114fe5760405162461bcd60e51b81526004016104e290612fe7565b6106c18363095ea7b360e01b848460405160240161151d929190612ba9565b60408051601f198184030181529190526020810180516001600160e01b03166001600160e01b031990931692909217909152611b2c565b6000828211156115765760405162461bcd60e51b81526004016104e290612d34565b50900390565b7f3a83b1278d351a40f18bb9e8e77896e8c1dc812ffaed5ea63e0e837a6dae57e990565b600082820183811015610fae5760405162461bcd60e51b81526004016104e290612cfd565b6000806060306355a9e2ba6115dd619c405a90611554565b898989896040518663ffffffff1660e01b815260040161160094939291906130a1565b600060405180830381600088803b15801561161a57600080fd5b5087f19350505050801561165057506040513d6000823e601f3d908101601f1916820160405261164d9190810190612762565b60015b6117485761165c613246565b8061166757506116d2565b6116956040518060400160405280600c81526020016b22b93937b9103a343937bbb760a11b81525082611bbb565b60009350809150600092506116cc6040518060400160405280600a8152602001692330b4b62932b0b9b7b760b11b81525082611bbb565b50611743565b6117106040518060400160405280601881526020017f556e6b6e6f776e2070726f626c656d206f63637572726564000000000000000081525061138d565b50506040805180820190915260138152722ab735b737bbb7103330b4b6103932b0b9b7b760691b60208201526000915081905b610b5f565b82611779576117796040518060400160405280600a8152602001692330b4b62932b0b9b7b760b11b81525082611bbb565b91945092509050610b5f565b6117b06040518060400160405280600981526020016853746172742067617360b81b81525083611415565b6117da6040518060400160405280600881526020016711d85cc81b19599d60c21b8152505a611415565b60006117f361ea606117ed5a8690611554565b906115a0565b90506118256040518060400160405280600e81526020016d151bdd185b0819d85cc81d5cd95960921b81525082611415565b6000611831823a611c00565b90504661a4b1811415611845576008820291505b61186e604051806040016040528060078152602001664761732066656560c81b81525083611415565b814710156118e4576118976040518060600160405280603581526020016133ea6035913961138d565b61189f6111ec565b6001600160a01b03167f4c0d6a438f19dfe41befe161c0bfdfca9f674028133bbaf37749b2d12f8f0dda836040516118d79190612bf7565b60405180910390a26119ac565b6119226040518060400160405280601c81526020017f5472616e73666572696e67206761732066656520746f2072656c61790000000081525061138d565b61192a6111ec565b6001600160a01b03166108fc839081150290604051600060405180830381858888f19350505050158015611962573d6000803e3d6000fd5b5061196b6111ec565b6001600160a01b03167f91d09af90b128f3fb2907042440a531bca49791232cd8f59e1c629d96247d057836040516119a39190612bf7565b60405180910390a25b866119c4576119bc888488611c3a565b505050610639565b6119ce8885611e18565b5050505050505050565b60009182526001909201602090815260408083206001600160a01b03909416835292905220805460ff19169055565b6110338282611a1461157c565b91906122c0565b6000611a25611214565b8054909150610100900460ff1680611a3f5750805460ff16155b611a5b5760405162461bcd60e51b81526004016104e290612f70565b8054610100900460ff16158015611a8357815460ff1961ff0019909116610100171660011782555b6000611a8d6111ec565b9050611aa760008051602061341f83398151915282611a07565b611ad17f65d7a28e3265b37a6474929f336521b332c1681b933f6cb9f3376673440d862a82611a07565b5080156110335750805461ff0019169055565b611b05846323b872dd60e01b85858560405160240161151d93929190612b85565b50505050565b80516a636f6e736f6c652e6c6f67602083016000808483855afa5050505050565b6060611b81826040518060400160405280602081526020017f5361666545524332303a206c6f772d6c6576656c2063616c6c206661696c6564815250856001600160a01b03166122f39092919063ffffffff16565b8051909150156106c15780806020019051810190611b9f9190612746565b6106c15760405162461bcd60e51b81526004016104e290612f9d565b6110338282604051602401611bd1929190612c6b565b60408051601f198184030181529190526020810180516001600160e01b0316634b5c427760e01b179052611b0b565b600082611c0f57506000610fb1565b82820282848281611c1c57fe5b0414610fae5760405162461bcd60e51b81526004016104e290612e55565b6000611c46848461230c565b9050611c786040518060400160405280600e81526020016d4661696c6564206761732066656560901b81525082611415565b611c886040850160208601612652565b6001600160a01b0316611ca160c0860160a08701612652565b6001600160a01b03161415611d6957611cd16040518060600160405280604081526020016133336040913961138d565b611d04611ce16020860186612652565b611ce96111f0565b546001600160a01b03168361134260c0890160a08a01612652565b611d116020850185612652565b6001600160a01b03167f9f52afa9b861b0c4b200f58dace31f1f5776b94207a3047c075d6a087e25de5e83611d4c60c0880160a08901612652565b84604051611d5c93929190612c3d565b60405180910390a2611dec565b611d8a60405180608001604052806049815260200161343f6049913961138d565b611d976020850185612652565b6001600160a01b03167f9f52afa9b861b0c4b200f58dace31f1f5776b94207a3047c075d6a087e25de5e83611dd260c0880160a08901612652565b6000604051611de393929190612c3d565b60405180910390a25b611b056040518060400160405280600b81526020016a14ddd85c0819985a5b195960aa1b81525061138d565b60408051808201909152601381527211dc9bdcdcc81bdd5d1c1d5d08185b5bdd5b9d606a1b60208201528190611e4e9082611415565b600080611e6d6101408601356117ed61012088013560e08901356115a0565b9050611e7f6040860160208701612652565b6001600160a01b0316611e9860c0870160a08801612652565b6001600160a01b0316141561200257829150611ecc6040518060600160405280603781526020016134886037913982611415565b60e085013515611fb757611f1c6040518060400160405280602081526020017f5472616e7366657272696e6720616d6f756e7420746f20616666696c696174658152508660a00160400135611415565b611f51611f2c6020870187612652565b611f3c60e0880160c08901612652565b60e088013561134260c08a0160a08b01612652565b611f6160e0860160c08701612652565b6001600160a01b03167f1fd11cde99de9e2e6d2bc710c225ae2e03d1e8eece69b0c552c7ae2bb3499a70611f9b60c0880160a08901612652565b604051611fae919060e08a013590612ba9565b60405180910390a25b611ffd611fc76020870187612652565b611fcf6111f0565b546001600160a01b0316611fed6101208901356101408a01356115a0565b61134260c08a0160a08b01612652565b612196565b6120416040518060400160405280601781526020017f5265647563696e67206f7574707574206279206665657300000000000000000081525082611415565b61204b8382611554565b915060e08501351561213b5761209d6040518060400160405280602081526020017f5472616e7366657272696e6720616d6f756e7420746f20616666696c696174658152508660a00160400135611415565b6120d56120b060e0870160c08801612652565b60e08701356120c560c0890160a08a01612652565b6001600160a01b03169190612470565b6120e560e0860160c08701612652565b6001600160a01b03167f1fd11cde99de9e2e6d2bc710c225ae2e03d1e8eece69b0c552c7ae2bb3499a7061211f60c0880160a08901612652565b604051612132919060e08a013590612ba9565b60405180910390a25b61215d6040518060600160405280603081526020016133736030913982611415565b6121966121686111f0565b546001600160a01b03166121866101208801356101408901356115a0565b6120c560c0890160a08a01612652565b6121d56040518060400160405280601e81526020017f53656e64696e6720746f74616c206f757470757420746f20747261646572000081525083611415565b6121f66121e56020870187612652565b836120c56080890160608a01612652565b61220660e0860160c08701612652565b6001600160a01b031661221c6020870187612652565b6001600160a01b03167f729e31e77c59767ea792c7ae2063c6e4275684ac458cfddba999d2f7a78a1fa06122566060890160408a016129b0565b8561226760c08b0160a08c01612652565b60405161228a939291906101408d01359060e08e0135906101208f01359061315e565b60405180910390a36106396040518060400160405280600d81526020016c046696e6973686564207377617609c1b81525061138d565b60009182526001928301602090815260408084206001600160a01b0390931684529190529020805460ff19169091179055565b6060612302848460008561248f565b90505b9392505050565b600061234c6040518060400160405280601981526020017f2d2d2d2d20436f6d707574696e672046656573202d2d2d2d2d0000000000000081525061138d565b604080518082019091526012815271115cdd1a5b585d19590819d85cc818dbdcdd60721b60208201523a8302906123839082611415565b600061239560c0860160a08701612652565b6001600160a01b031663313ce5676040518163ffffffff1660e01b815260040160206040518083038186803b1580156123cd57600080fd5b505afa1580156123e1573d6000803e3d6000fd5b505050506040513d601f19601f820116820180604052508101906124059190612a3f565b60ff16905061242761010086013561242184600a85900a611c00565b90612550565b92506124686040518060400160405280601881526020017f47617320706f7274696f6e20696e2066656520746f6b656e000000000000000081525084611415565b505092915050565b6106c18363a9059cbb60e01b848460405160240161151d929190612ba9565b6060824710156124b15760405162461bcd60e51b81526004016104e290612d6b565b6124ba85612582565b6124d65760405162461bcd60e51b81526004016104e290612f39565b60006060866001600160a01b031685876040516124f39190612b3b565b60006040518083038185875af1925050503d8060008114612530576040519150601f19603f3d011682016040523d82523d6000602084013e612535565b606091505b5091509150612545828286612588565b979650505050505050565b60008082116125715760405162461bcd60e51b81526004016104e290612db1565b81838161257a57fe5b049392505050565b3b151590565b60608315612597575081612305565b8251156125a75782518084602001fd5b8160405162461bcd60e51b81526004016104e29190612c00565b60408051608081018252600080825260208201819052918101829052606081019190915290565b60008083601f8401126125f9578182fd5b50813567ffffffffffffffff811115612610578182fd5b60208301915083602082850101111561262857600080fd5b9250929050565b8035610fb1816132eb565b6000610160828403121561264c578081fd5b50919050565b600060208284031215612663578081fd5b8135610fae816132eb565b600080600060608486031215612682578182fd5b833561268d816132eb565b9250602084013561269d816132eb565b9150604084013567ffffffffffffffff8111156126b8578182fd5b8401601f810186136126c8578182fd5b80356126db6126d6826131e3565b6131bc565b8181528760208385010111156126ef578384fd5b8160208401602083013783602083830101528093505050509250925092565b60008060408385031215612720578182fd5b823561272b816132eb565b9150602083013561273b816132eb565b809150509250929050565b600060208284031215612757578081fd5b8151610fae81613300565b600080600060608486031215612776578283fd5b835161278181613300565b60208501516040860151919450925067ffffffffffffffff8111156127a4578182fd5b8401601f810186136127b4578182fd5b80516127c26126d6826131e3565b8181528760208385010111156127d6578384fd5b6127e7826020830160208601613214565b8093505050509250925092565b60008060408385031215612806578182fd5b82359150602083013561273b816132eb565b6000806040838503121561282a578182fd5b8235612835816132eb565b946020939093013593505050565b600060808284031215612854578081fd5b61285e60806131bc565b8235612869816132eb565b815260208301356128798161330e565b6020820152604083013561288c8161330e565b6040820152606083013561289f81613323565b60608201529392505050565b6000608082840312156128bc578081fd5b6128c660806131bc565b82516128d1816132eb565b815260208301516128e18161330e565b602082015260408301516128f48161330e565b6040820152606083015161289f81613323565b6000806000806101a0858703121561291d578182fd5b612927868661263a565b9350610160850135612938816132eb565b925061018085013567ffffffffffffffff811115612954578283fd5b612960878288016125e8565b95989497509550505050565b6000806000806101a08587031215612982578182fd5b61298c868661263a565b9350610160850135925061018085013567ffffffffffffffff811115612954578283fd5b6000602082840312156129c1578081fd5b81356001600160701b0381168114610fae578182fd5b6000602082840312156129e8578081fd5b8135610fae8161330e565b600060208284031215612a04578081fd5b5035919050565b600060208284031215612a1c578081fd5b5051919050565b600060208284031215612a34578081fd5b8135610fae81613323565b600060208284031215612a50578081fd5b8151610fae81613323565b6001600160a01b03169052565b60008284528282602086013780602084860101526020601f19601f85011685010190509392505050565b60008151808452612aaa816020860160208601613214565b601f01601f19169290920160200192915050565b80516001600160a01b031682526020808201516001600160801b03908116918401919091526040808301519091169083015260609081015160ff16910152565b8035612b09816132eb565b6001600160a01b0316825260208101356001600160701b038116808214612b2f57600080fd5b80602085015250505050565b60008251612b4d818460208701613214565b9190910192915050565b6001600160a01b0391909116815260200190565b6001600160a01b0392831681529116602082015260400190565b6001600160a01b039384168152919092166020820152604081019190915260600190565b6001600160a01b03929092168252602082015260400190565b901515815260200190565b6000841515825283602083015260606040830152612bee6060830184612a92565b95945050505050565b90815260200190565b600060208252610fae6020830184612a92565b600060408252612c266040830185612a92565b905060018060a01b03831660208301529392505050565b600060608252612c506060830186612a92565b6001600160a01b039490941660208301525060400152919050565b600060408252612c7e6040830185612a92565b8281036020840152612bee8185612a92565b600060408252612ca36040830185612a92565b90508260208301529392505050565b6020808252602b908201527f417474656d7074696e6720746f2072652d656e7465722066756e6374696f6e2060408201526a7265637572736976656c7960a81b606082015260800190565b6020808252601b908201527f536166654d6174683a206164646974696f6e206f766572666c6f770000000000604082015260600190565b6020808252601e908201527f536166654d6174683a207375627472616374696f6e206f766572666c6f770000604082015260600190565b60208082526026908201527f416464726573733a20696e73756666696369656e742062616c616e636520666f6040820152651c8818d85b1b60d21b606082015260800190565b6020808252601a908201527f536166654d6174683a206469766973696f6e206279207a65726f000000000000604082015260600190565b60208082526025908201527f496e73756666696369656e742062616c616e636520746f206d616b65207472616040820152643739b332b960d91b606082015260800190565b6020808252600e908201526d04661696c656420746f20737761760941b604082015260600190565b60208082526021908201527f536166654d6174683a206d756c7469706c69636174696f6e206f766572666c6f6040820152607760f81b606082015260800190565b60208082526029908201527f43616e206f6e6c792062652063616c6c656420627920736574746c656d656e746040820152680818dbdb9d1c9858dd60ba1b606082015260800190565b6020808252601c908201527f496e73756666696369656e74207370656e6420616c6c6f77616e636500000000604082015260600190565b6020808252600990820152684e6f742072656c617960b81b604082015260600190565b6020808252601d908201527f416464726573733a2063616c6c20746f206e6f6e2d636f6e7472616374000000604082015260600190565b602080825260139082015272105b1c9958591e481a5b9a5d1a585b1a5e9959606a1b604082015260600190565b6020808252602a908201527f5361666545524332303a204552433230206f7065726174696f6e20646964206e6040820152691bdd081cdd58d8d9595960b21b606082015260800190565b60208082526036908201527f5361666545524332303a20617070726f76652066726f6d206e6f6e2d7a65726f60408201527520746f206e6f6e2d7a65726f20616c6c6f77616e636560501b606082015260800190565b6020808252600990820152682737ba1030b236b4b760b91b604082015260600190565b92835260208301919091526001600160a01b0316604082015260600190565b60808101610fb18284612abe565b82815260a081016123056020830184612abe565b60006101a086356130b1816132eb565b6001600160a01b031683526130cc6020808501908901612afe565b6130dc6060840160608901612afe565b60a0870160c088016130fa60a086016130f5838561262f565b612a5b565b6131048183613207565b91505061311460c0850182612a5b565b5060e087013560e084015261010080880135818501525061012080880135818501525061014080880135818501525085610160840152806101808401526125458184018587612a68565b6001600160701b0396909616865260208601949094526001600160a01b039290921660408501526060840152608083015260a082015260c00190565b6001600160801b0391909116815260200190565b60ff91909116815260200190565b60405181810167ffffffffffffffff811182821017156131db57600080fd5b604052919050565b600067ffffffffffffffff8211156131f9578081fd5b50601f01601f191660200190565b60008235610fae816132eb565b60005b8381101561322f578181015183820152602001613217565b83811115611b055750506000910152565b60e01c90565b600060443d101561325657610d19565b600481823e6308c379a061326a8251613240565b1461327457610d19565b6040513d600319016004823e80513d67ffffffffffffffff81602484011181841117156132a45750505050610d19565b828401925082519150808211156132be5750505050610d19565b503d830160208284010111156132d657505050610d19565b601f01601f1916810160200160405291505090565b6001600160a01b03811681146112b057600080fd5b80151581146112b057600080fd5b6001600160801b03811681146112b057600080fd5b60ff811681146112b057600080fdfe5472616e7366657272696e67207061727469616c20696e70757420746f6b656e20746f206465767465616d20666f72206661696c75726520676173206665657353656e64696e6720666565732066726f6d206f757470757420746f6b656e20746f207465616d2f616666696c69617465546f6b656e207370656e6420646f6573206e6f74206e65656420746f20626520302764206f7574077a1d526a4ce8a773632ab13b4fbbf1fcc954c3dab26cd27ea0e2a6750da5d743616e6e6f74207265696d62757273652072656c61792073696e636520646f206e6f74206861766520656e6f7567682066756e6473a49807205ce4d355092ef5a8a18f56e8913cf4a201fbe287825b095693c2177546656520746f6b656e206973206f75747075743b207468657265666f72652063616e6e6f74207265696d6275727365207465616d20666f72206661696c7572652067617320666565735472616e7366657272696e6720666565732066726f6d20696e70757420746f6b656e20746f206465765465616d2f616666696c69617465a2646970667358221220f6626f87017323f06b642e56ca1f77e867d541754eed2889887db1a9355684a064736f6c63430007000033",
  "linkReferences": {
    "contracts/libs/LibAccess.sol": {
      "LibAccess": [
        {
          "length": 20,
          "start": 3923
        }
      ]
    },
    "contracts/libs/LibConfig.sol": {
      "LibConfig": [
        {
          "length": 20,
          "start": 1540
        },
        {
          "length": 20,
          "start": 4214
        },
        {
          "length": 20,
          "start": 4719
        }
      ]
    }
  },
  "deployedLinkReferences": {
    "contracts/libs/LibAccess.sol": {
      "LibAccess": [
        {
          "length": 20,
          "start": 3891
        }
      ]
    },
    "contracts/libs/LibConfig.sol": {
      "LibConfig": [
        {
          "length": 20,
          "start": 1508
        },
        {
          "length": 20,
          "start": 4182
        },
        {
          "length": 20,
          "start": 4687
        }
      ]
    }
  }
}