{
  "address": "0xA4913914C0011f1e557fE41D4fBAB5399538fa97",
  "abi": [
    {
      "anonymous": false,
      "inputs": [
        {
          "indexed": true,
          "internalType": "address",
          "name": "relay",
          "type": "address"
        },
        {
          "indexed": false,
          "internalType": "uint256",
          "name": "amount",
          "type": "uint256"
        }
      ],
      "name": "InsufficientGasFunds",
      "type": "event"
    },
    {
      "anonymous": false,
      "inputs": [
        {
          "indexed": true,
          "internalType": "address",
          "name": "relay",
          "type": "address"
        },
        {
          "indexed": false,
          "internalType": "uint256",
          "name": "amount",
          "type": "uint256"
        }
      ],
      "name": "PaidGasFunds",
      "type": "event"
    },
    {
      "anonymous": false,
      "inputs": [
        {
          "indexed": true,
          "internalType": "address",
          "name": "sender",
          "type": "address"
        },
        {
          "indexed": false,
          "internalType": "uint256",
          "name": "amount",
          "type": "uint256"
        }
      ],
      "name": "ReceivedETH",
      "type": "event"
    },
    {
      "anonymous": false,
      "inputs": [
        {
          "indexed": true,
          "internalType": "address",
          "name": "trader",
          "type": "address"
        },
        {
          "indexed": false,
          "internalType": "string",
          "name": "reason",
          "type": "string"
        },
        {
          "indexed": false,
          "internalType": "contract IERC20",
          "name": "feeToken",
          "type": "address"
        },
        {
          "indexed": false,
          "internalType": "uint256",
          "name": "gasFeePaid",
          "type": "uint256"
        }
      ],
      "name": "SwapFailed",
      "type": "event"
    },
    {
      "anonymous": false,
      "inputs": [
        {
          "indexed": true,
          "internalType": "address",
          "name": "trader",
          "type": "address"
        },
        {
          "indexed": false,
          "internalType": "uint256",
          "name": "inputAmount",
          "type": "uint256"
        },
        {
          "indexed": false,
          "internalType": "uint256",
          "name": "outputAmount",
          "type": "uint256"
        },
        {
          "indexed": false,
          "internalType": "contract IERC20",
          "name": "feeToken",
          "type": "address"
        },
        {
          "indexed": false,
          "internalType": "uint256",
          "name": "gasFee",
          "type": "uint256"
        },
        {
          "indexed": false,
          "internalType": "uint256",
          "name": "bpsFee",
          "type": "uint256"
        }
      ],
      "name": "SwapSuccess",
      "type": "event"
    },
    {
      "anonymous": false,
      "inputs": [
        {
          "indexed": true,
          "internalType": "address",
          "name": "trader",
          "type": "address"
        },
        {
          "indexed": false,
          "internalType": "uint256",
          "name": "penalty",
          "type": "uint256"
        },
        {
          "indexed": false,
          "internalType": "uint256",
          "name": "gasPaid",
          "type": "uint256"
        },
        {
          "indexed": false,
          "internalType": "string",
          "name": "reason",
          "type": "string"
        }
      ],
      "name": "TraderPenalized",
      "type": "event"
    },
    {
      "anonymous": false,
      "inputs": [
        {
          "indexed": true,
          "internalType": "address",
          "name": "receiver",
          "type": "address"
        },
        {
          "indexed": false,
          "internalType": "uint256",
          "name": "amount",
          "type": "uint256"
        }
      ],
      "name": "WithdrewETH",
      "type": "event"
    },
    {
      "inputs": [],
      "name": "ACTION_ROLE",
      "outputs": [
        {
          "internalType": "bytes32",
          "name": "",
          "type": "bytes32"
        }
      ],
      "stateMutability": "view",
      "type": "function"
    },
    {
      "inputs": [],
      "name": "ADMIN_ROLE",
      "outputs": [
        {
          "internalType": "bytes32",
          "name": "",
          "type": "bytes32"
        }
      ],
      "stateMutability": "view",
      "type": "function"
    },
    {
      "inputs": [],
      "name": "PAUSER_ROLE",
      "outputs": [
        {
          "internalType": "bytes32",
          "name": "",
          "type": "bytes32"
        }
      ],
      "stateMutability": "view",
      "type": "function"
    },
    {
      "inputs": [],
      "name": "RELAY_ROLE",
      "outputs": [
        {
          "internalType": "bytes32",
          "name": "",
          "type": "bytes32"
        }
      ],
      "stateMutability": "view",
      "type": "function"
    },
    {
      "inputs": [
        {
          "components": [
            {
              "internalType": "address",
              "name": "trader",
              "type": "address"
            },
            {
              "internalType": "contract IERC20",
              "name": "feeToken",
              "type": "address"
            },
            {
              "internalType": "uint256",
              "name": "feeTokenETHPrice",
              "type": "uint256"
            },
            {
              "internalType": "uint256",
              "name": "gasEstimate",
              "type": "uint256"
            },
            {
              "components": [
                {
                  "internalType": "contract IERC20",
                  "name": "token",
                  "type": "address"
                },
                {
                  "internalType": "uint112",
                  "name": "amount",
                  "type": "uint112"
                }
              ],
              "internalType": "struct Types.TokenAmount",
              "name": "input",
              "type": "tuple"
            },
            {
              "components": [
                {
                  "internalType": "contract IERC20",
                  "name": "token",
                  "type": "address"
                },
                {
                  "internalType": "uint112",
                  "name": "amount",
                  "type": "uint112"
                }
              ],
              "internalType": "struct Types.TokenAmount",
              "name": "output",
              "type": "tuple"
            }
          ],
          "internalType": "struct Types.Order",
          "name": "order",
          "type": "tuple"
        },
        {
          "internalType": "contract IDexRouter",
          "name": "router",
          "type": "address"
        },
        {
          "internalType": "bytes",
          "name": "data",
          "type": "bytes"
        }
      ],
      "name": "_trySwap",
      "outputs": [
        {
          "internalType": "bool",
          "name": "success",
          "type": "bool"
        },
        {
          "internalType": "string",
          "name": "failReason",
          "type": "string"
        }
      ],
      "stateMutability": "nonpayable",
      "type": "function"
    },
    {
      "inputs": [
        {
          "internalType": "bytes32",
          "name": "role",
          "type": "bytes32"
        },
        {
          "internalType": "address",
          "name": "actor",
          "type": "address"
        }
      ],
      "name": "addRole",
      "outputs": [],
      "stateMutability": "nonpayable",
      "type": "function"
    },
    {
      "inputs": [
        {
          "components": [
            {
              "internalType": "address",
              "name": "trader",
              "type": "address"
            },
            {
              "internalType": "contract IERC20",
              "name": "feeToken",
              "type": "address"
            },
            {
              "internalType": "uint256",
              "name": "feeTokenETHPrice",
              "type": "uint256"
            },
            {
              "internalType": "uint256",
              "name": "gasEstimate",
              "type": "uint256"
            },
            {
              "components": [
                {
                  "internalType": "contract IERC20",
                  "name": "token",
                  "type": "address"
                },
                {
                  "internalType": "uint112",
                  "name": "amount",
                  "type": "uint112"
                }
              ],
              "internalType": "struct Types.TokenAmount",
              "name": "input",
              "type": "tuple"
            },
            {
              "components": [
                {
                  "internalType": "contract IERC20",
                  "name": "token",
                  "type": "address"
                },
                {
                  "internalType": "uint112",
                  "name": "amount",
                  "type": "uint112"
                }
              ],
              "internalType": "struct Types.TokenAmount",
              "name": "output",
              "type": "tuple"
            }
          ],
          "internalType": "struct Types.Order",
          "name": "order",
          "type": "tuple"
        },
        {
          "internalType": "contract IDexRouter",
          "name": "router",
          "type": "address"
        },
        {
          "internalType": "bytes",
          "name": "data",
          "type": "bytes"
        }
      ],
      "name": "fill",
      "outputs": [],
      "stateMutability": "nonpayable",
      "type": "function"
    },
    {
      "inputs": [],
      "name": "getConfig",
      "outputs": [
        {
          "components": [
            {
              "internalType": "address",
              "name": "devTeam",
              "type": "address"
            },
            {
              "internalType": "uint128",
              "name": "minFee",
              "type": "uint128"
            },
            {
              "internalType": "uint128",
              "name": "penaltyFee",
              "type": "uint128"
            },
            {
              "internalType": "uint8",
              "name": "lockoutBlocks",
              "type": "uint8"
            }
          ],
          "internalType": "struct Types.Config",
          "name": "",
          "type": "tuple"
        }
      ],
      "stateMutability": "view",
      "type": "function"
    },
    {
      "inputs": [],
      "name": "getDevTeam",
      "outputs": [
        {
          "internalType": "address",
          "name": "",
          "type": "address"
        }
      ],
      "stateMutability": "view",
      "type": "function"
    },
    {
      "inputs": [],
      "name": "getLockoutBlocks",
      "outputs": [
        {
          "internalType": "uint8",
          "name": "",
          "type": "uint8"
        }
      ],
      "stateMutability": "view",
      "type": "function"
    },
    {
      "inputs": [],
      "name": "getMinFee",
      "outputs": [
        {
          "internalType": "uint128",
          "name": "",
          "type": "uint128"
        }
      ],
      "stateMutability": "view",
      "type": "function"
    },
    {
      "inputs": [],
      "name": "getPenaltyFee",
      "outputs": [
        {
          "internalType": "uint128",
          "name": "",
          "type": "uint128"
        }
      ],
      "stateMutability": "view",
      "type": "function"
    },
    {
      "inputs": [
        {
          "internalType": "bytes32",
          "name": "role",
          "type": "bytes32"
        },
        {
          "internalType": "address",
          "name": "actor",
          "type": "address"
        }
      ],
      "name": "hasRole",
      "outputs": [
        {
          "internalType": "bool",
          "name": "",
          "type": "bool"
        }
      ],
      "stateMutability": "view",
      "type": "function"
    },
    {
      "inputs": [
        {
          "components": [
            {
              "internalType": "address",
              "name": "devTeam",
              "type": "address"
            },
            {
              "internalType": "uint128",
              "name": "minFee",
              "type": "uint128"
            },
            {
              "internalType": "uint128",
              "name": "penaltyFee",
              "type": "uint128"
            },
            {
              "internalType": "uint8",
              "name": "lockoutBlocks",
              "type": "uint8"
            }
          ],
          "internalType": "struct Types.Config",
          "name": "config",
          "type": "tuple"
        }
      ],
      "name": "initialize",
      "outputs": [],
      "stateMutability": "nonpayable",
      "type": "function"
    },
    {
      "inputs": [
        {
          "internalType": "bytes32",
          "name": "role",
          "type": "bytes32"
        },
        {
          "internalType": "address",
          "name": "actor",
          "type": "address"
        }
      ],
      "name": "revokeRole",
      "outputs": [],
      "stateMutability": "nonpayable",
      "type": "function"
    },
    {
      "inputs": [
        {
          "components": [
            {
              "internalType": "address",
              "name": "devTeam",
              "type": "address"
            },
            {
              "internalType": "uint128",
              "name": "minFee",
              "type": "uint128"
            },
            {
              "internalType": "uint128",
              "name": "penaltyFee",
              "type": "uint128"
            },
            {
              "internalType": "uint8",
              "name": "lockoutBlocks",
              "type": "uint8"
            }
          ],
          "internalType": "struct Types.Config",
          "name": "config",
          "type": "tuple"
        }
      ],
      "name": "setConfig",
      "outputs": [],
      "stateMutability": "nonpayable",
      "type": "function"
    },
    {
      "inputs": [
        {
          "internalType": "address",
          "name": "team",
          "type": "address"
        }
      ],
      "name": "setDevTeam",
      "outputs": [],
      "stateMutability": "nonpayable",
      "type": "function"
    },
    {
      "inputs": [
        {
          "internalType": "uint8",
          "name": "blocks",
          "type": "uint8"
        }
      ],
      "name": "setLockoutBlocks",
      "outputs": [],
      "stateMutability": "nonpayable",
      "type": "function"
    },
    {
      "inputs": [
        {
          "internalType": "uint128",
          "name": "fee",
          "type": "uint128"
        }
      ],
      "name": "setMinFee",
      "outputs": [],
      "stateMutability": "nonpayable",
      "type": "function"
    },
    {
      "inputs": [
        {
          "internalType": "uint128",
          "name": "fee",
          "type": "uint128"
        }
      ],
      "name": "setPenaltyFee",
      "outputs": [],
      "stateMutability": "nonpayable",
      "type": "function"
    },
    {
      "inputs": [
        {
          "internalType": "uint256",
          "name": "amount",
          "type": "uint256"
        }
      ],
      "name": "withdraw",
      "outputs": [],
      "stateMutability": "nonpayable",
      "type": "function"
    },
    {
      "stateMutability": "payable",
      "type": "receive"
    }
  ],
  "transactionHash": "0x4e31bff0d5959ad24bd6e3a3f371679a97fd021e19e981ca43572d28499a13b4",
  "args": [],
  "solcInputHash": "8ec3373101f3889772ed8b12c5c21e07",
  "bytecode": "0x608060405234801561001057600080fd5b506132e4806100206000396000f3fe60806040526004361061012e5760003560e01c80636a9447b5116100ab578063b1cf4b0c1161006f578063b1cf4b0c14610366578063c3f909d414610388578063d547741f146103aa578063e63ab1e9146103ca578063e959b38a146103df578063f102669b146103ff57610176565b80636a9447b5146102cd57806375b238fc146102ef57806377550610146103045780638d3403fd1461031957806391d148541461033957610176565b80633c6141a9116100f25780633c6141a91461021d5780633f51e1821461024b57806340ee75bb1461026b5780634e1c68291461028b5780635cf34bcf146102ab57610176565b8063044218231461017b57806327054df6146101a65780632e1a7d4d146101bb57806333205a22146101dd578063334c3c65146101fd57610176565b3661017657336001600160a01b03167f4103257eaac983ca79a70d28f90dfc4fa16b619bb0c17ee7cab0d4034c2796243460405161016c919061298f565b60405180910390a2005b600080fd5b34801561018757600080fd5b5061019061041f565b60405161019d919061298f565b60405180910390f35b3480156101b257600080fd5b50610190610443565b3480156101c757600080fd5b506101db6101d636600461278b565b610467565b005b3480156101e957600080fd5b506101db6101f836600461273e565b610552565b34801561020957600080fd5b506101db6102183660046125f3565b610657565b34801561022957600080fd5b5061023d6102383660046126b7565b610700565b60405161019d929190612974565b34801561025757600080fd5b506101db6102663660046125f3565b6107f7565b34801561027757600080fd5b506101db6102863660046124ea565b61087d565b34801561029757600080fd5b506101db6102a636600461276f565b6108dd565b3480156102b757600080fd5b506102c061093d565b60405161019d9190613001565b3480156102d957600080fd5b506102e261095a565b60405161019d91906128fe565b3480156102fb57600080fd5b50610190610973565b34801561031057600080fd5b506102c0610985565b34801561032557600080fd5b506101db6103343660046127bb565b6109a8565b34801561034557600080fd5b506103596103543660046125c4565b6109ff565b60405161019d9190612969565b34801561037257600080fd5b5061037b610a9c565b60405161019d9190613015565b34801561039457600080fd5b5061039d610ab2565b60405161019d9190612eaf565b3480156103b657600080fd5b506101db6103c53660046125c4565b610b4d565b3480156103d657600080fd5b50610190610b9b565b3480156103eb57600080fd5b506101db6103fa3660046125c4565b610bbf565b34801561040b57600080fd5b506101db61041a36600461276f565b610bff565b7f077a1d526a4ce8a773632ab13b4fbbf1fcc954c3dab26cd27ea0e2a6750da5d781565b7fd95061bdf0c43d77b6cbe1c15072292976244ec8d5012de75baa36e42da4625e81565b610481600080516020613246833981519152610354610c6b565b6104a65760405162461bcd60e51b815260040161049d90612e6d565b60405180910390fd5b478111156104c65760405162461bcd60e51b815260040161049d90612bad565b6104ce610c6b565b6001600160a01b03166108fc829081150290604051600060405180830381858888f19350505050158015610506573d6000803e3d6000fd5b5061050f610c6b565b6001600160a01b03167faa21a47bc8f0df1a253be34a945b1d0a8f458e4da029c0ab59c1fee1e488c06682604051610547919061298f565b60405180910390a250565b61057e7f077a1d526a4ce8a773632ab13b4fbbf1fcc954c3dab26cd27ea0e2a6750da5d7610354610c6b565b61059a5760405162461bcd60e51b815260040161049d90612d47565b6105a2610c6f565b5460ff16156105c35760405162461bcd60e51b815260040161049d90612a29565b60016105cd610c6f565b805460ff191691151591909117905560005a90506105e9612329565b6105f286610c93565b90506105fc612351565b61060587610e16565b90506000606061061783898989610fc4565b9150915061062689858461110e565b61063389838387896113c5565b50505050506000610642610c6f565b805460ff191691151591909117905550505050565b610671600080516020613246833981519152610354610c6b565b61068d5760405162461bcd60e51b815260040161049d90612e6d565b610695611990565b6040516321cab0c760e01b815273f3a0C44D23B8C2B54d2a757271E907782AEF9Da9916321cab0c7916106cd91908590600401612ebd565b60006040518083038186803b1580156106e557600080fd5b505af41580156106f9573d6000803e3d6000fd5b5050505050565b600060603330146107235760405162461bcd60e51b815260040161049d90612cfe565b61073b61073536889003880188612722565b866119b4565b60006060866001600160a01b031663be82f7f68988886040518463ffffffff1660e01b815260040161076f93929190612ed1565b600060405180830381600087803b15801561078957600080fd5b505af115801561079d573d6000803e3d6000fd5b505050506040513d6000823e601f3d908101601f191682016040526107c59190810190612522565b91509150816107e8578060405162461bcd60e51b815260040161049d9190612998565b90925090505b94509492505050565b6000610801611a2b565b8054909150610100900460ff168061081b5750805460ff16155b6108375760405162461bcd60e51b815260040161049d90612df6565b8054610100900460ff1615801561085f57815460ff1961ff0019909116610100171660011782555b61086883611a4f565b801561087857815461ff00191682555b505050565b610897600080516020613246833981519152610354610c6b565b6108b35760405162461bcd60e51b815260040161049d90612e6d565b806108bc611990565b80546001600160a01b0319166001600160a01b039290921691909117905550565b6108f7600080516020613246833981519152610354610c6b565b6109135760405162461bcd60e51b815260040161049d90612e6d565b8061091c611990565b60010180546001600160801b03928316600160801b02921691909117905550565b6000610947611990565b600101546001600160801b031690505b90565b6000610964611990565b546001600160a01b0316905090565b60008051602061324683398151915281565b600061098f611990565b60010154600160801b90046001600160801b0316919050565b6109c2600080516020613246833981519152610354610c6b565b6109de5760405162461bcd60e51b815260040161049d90612e6d565b806109e7611990565b600201805460ff191660ff9290921691909117905550565b6000610a09610c6f565b604051630f40931b60e41b81527374fB0a2BDd8A7dCEc3543F2F3B2CafC429222df79163f40931b091610a43919087908790600401612e90565b60206040518083038186803b158015610a5b57600080fd5b505af4158015610a6f573d6000803e3d6000fd5b505050506040513d601f19601f82011682018060405250810190610a939190612506565b90505b92915050565b6000610aa6611990565b6002015460ff16905090565b610aba6123a4565b610ac2611990565b604051636d73f0db60e01b815273f3a0C44D23B8C2B54d2a757271E907782AEF9Da991636d73f0db91610af8919060040161298f565b60806040518083038186803b158015610b1057600080fd5b505af4158015610b24573d6000803e3d6000fd5b505050506040513d601f19601f82011682018060405250810190610b48919061265b565b905090565b610b67600080516020613246833981519152610354610c6b565b610b835760405162461bcd60e51b815260040161049d90612e6d565b610b978282610b90610c6f565b9190611aca565b5050565b7f65d7a28e3265b37a6474929f336521b332c1681b933f6cb9f3376673440d862a81565b610bd9600080516020613246833981519152610354610c6b565b610bf55760405162461bcd60e51b815260040161049d90612e6d565b610b978282611af9565b610c19600080516020613246833981519152610354610c6b565b610c355760405162461bcd60e51b815260040161049d90612e6d565b80610c3e611990565b60010180546fffffffffffffffffffffffffffffffff19166001600160801b039290921691909117905550565b3390565b7f3a83b1278d351a40f18bb9e8e77896e8c1dc812ffaed5ea63e0e837a6dae57e990565b610c9b612329565b610ca482611b0d565b610cc05760405162461bcd60e51b815260040161049d90612cb5565b610cc982611bb0565b610ce55760405162461bcd60e51b815260040161049d90612c6a565b604080516080808201928390528401515184516370a0823160e01b909352909182916001600160a01b0316906370a0823190610d2490608485016128fe565b60206040518083038186803b158015610d3c57600080fd5b505afa158015610d50573d6000803e3d6000fd5b505050506040513d601f19601f82011682018060405250810190610d7491906127a3565b81526020018360a00151600001516001600160a01b03166370a08231306040518263ffffffff1660e01b8152600401610dad91906128fe565b60206040518083038186803b158015610dc557600080fd5b505afa158015610dd9573d6000803e3d6000fd5b505050506040513d601f19601f82011682018060405250810190610dfd91906127a3565b815260200160008152602001600081525090505b919050565b610e1e612351565b8160800151600001516001600160a01b031682602001516001600160a01b03161415610fc057610e826040518060400160405280601c81526020017f54616b696e67206665652066726f6d206f757470757420746f6b656e00000000815250611bfc565b60008080610e94858660600151611c3f565b9092509050610ebe610ea68383611ea4565b6080870151602001516001600160701b031690611ec9565b9250610f036040518060400160405280601081526020016f13db19081a5b9c1d5d08185b5bdd5b9d60821b8152508660800151602001516001600160701b0316611ef1565b610f356040518060400160405280601081526020016f13995dc81a5b9c1d5d08185b5bdd5b9d60821b81525084611ef1565b50506040518060c0016040528084600001516001600160a01b0316815260200184602001516001600160a01b03168152602001846040015181526020018460600151815260200160405180604001604052808660800151600001516001600160a01b03168152602001846001600160701b031681525081526020018460a00151815250915050610e11565b5090565b6000606030633c6141a9610fdb619c405a90611ec9565b888888886040518663ffffffff1660e01b8152600401610ffe9493929190612f55565b600060405180830381600088803b15801561101857600080fd5b5087f19350505050801561104e57506040513d6000823e601f3d908101601f1916820160405261104b9190810190612522565b60015b6110d35761105a61307c565b80611065575061109e565b600092508091506110986040518060400160405280600a8152602001692330b4b62932b0b9b7b760b11b81525082611f36565b506110ce565b50506040805180820190915260138152722ab735b737bbb7103330b4b6103932b0b9b7b760691b60208201526000905b6107ee565b81611104576111046040518060400160405280600a8152602001692330b4b62932b0b9b7b760b11b81525082611f36565b90925090506107ee565b60808301515183516040516370a0823160e01b81526001600160a01b03909216916370a0823191611141916004016128fe565b60206040518083038186803b15801561115957600080fd5b505afa15801561116d573d6000803e3d6000fd5b505050506040513d601f19601f8201168201806040525081019061119191906127a3565b60408301528061122b576111cd6040518060400160405280600c81526020016b125b9c1d5d0818985b08188d60a21b8152508360000151611ef1565b6112026040518060400160405280600f81526020016e24b7383aba103130b61030b33a32b960891b8152508360400151611ef1565b81516040830151146112265760405162461bcd60e51b815260040161049d90612b5f565b610878565b60a0830151516040516370a0823160e01b81526001600160a01b03909116906370a082319061125e9030906004016128fe565b60206040518083038186803b15801561127657600080fd5b505afa15801561128a573d6000803e3d6000fd5b505050506040513d601f19601f820116820180604052508101906112ae91906127a3565b60608301526040805180820190915260208082527f4f757470757420746f6b656e2062616c616e6365206265666f72652073776170818301528301516112f49190611ef1565b6113376040518060400160405280601981526020017f4f75747075742062616c616e63652061667465722073776170000000000000008152508360600151611ef1565b8260a00151602001516001600160701b031661136483602001518460600151611ec990919063ffffffff16565b10156113825760405162461bcd60e51b815260040161049d90612d6a565b608083015160200151604083015183516001600160701b03909216916113a791611ec9565b11156108785760405162461bcd60e51b815260040161049d90612bf2565b60006113de61c3506113d85a8590611ec9565b90611ea4565b90506114106040518060400160405280600e81526020016d151bdd185b0819d85cc81d5cd95960921b81525082611ef1565b600061141c823a611f7b565b9050611447604051806040016040528060078152602001664761732066656560c81b81525082611ef1565b6000806114548985611c3f565b91509150824710156114ce576114816040518060600160405280603581526020016131eb60359139611bfc565b611489610c6b565b6001600160a01b03167f4c0d6a438f19dfe41befe161c0bfdfca9f674028133bbaf37749b2d12f8f0dda846040516114c1919061298f565b60405180910390a2611596565b61150c6040518060400160405280601c81526020017f5472616e73666572696e67206761732066656520746f2072656c617900000000815250611bfc565b611514610c6b565b6001600160a01b03166108fc849081150290604051600060405180830381858888f1935050505015801561154c573d6000803e3d6000fd5b50611555610c6b565b6001600160a01b03167f91d09af90b128f3fb2907042440a531bca49791232cd8f59e1c629d96247d0578460405161158d919061298f565b60405180910390a25b600088611732578290506115d06040518060400160405280600e81526020016d4661696c6564206761732066656560901b81525082611ef1565b8960800151600001516001600160a01b03168a602001516001600160a01b031614156116915761161760405180606001604052806040815260200161317e60409139611bfc565b895161163f90611625611990565b5460208d01516001600160a01b0390811692911684611fb5565b89600001516001600160a01b03167f9f52afa9b861b0c4b200f58dace31f1f5776b94207a3047c075d6a087e25de5e898c6020015184604051611684939291906129ab565b60405180910390a2611701565b6116b260405180608001604052806049815260200161326660499139611bfc565b89600001516001600160a01b03167f9f52afa9b861b0c4b200f58dace31f1f5776b94207a3047c075d6a087e25de5e898c6020015160006040516116f8939291906129ab565b60405180910390a25b61172d6040518060400160405280600b81526020016a14ddd85c0819985a5b195960aa1b815250611bfc565b611984565b61173c8383611ea4565b9050600061175b88602001518960600151611ec990919063ffffffff16565b90506117926040518060400160405280601381526020017211dc9bdcdcc81bdd5d1c1d5d08185b5bdd5b9d606a1b81525082611ef1565b60008b60800151600001516001600160a01b03168c602001516001600160a01b0316141561180c578190506117df6040518060600160405280602d81526020016131be602d913984611ef1565b8b51611807906117ed611990565b5460208f01516001600160a01b0390811692911686611fb5565b61189d565b61184b6040518060400160405280601781526020017f5265647563696e67206f7574707574206279206665657300000000000000000081525084611ef1565b6118558284611ec9565b90506118796040518060600160405280602681526020016132206026913984611ef1565b61189d611884611990565b5460208e01516001600160a01b03908116911685612013565b6118dc6040518060400160405280601e81526020017f53656e64696e6720746f74616c206f757470757420746f20747261646572000081525082611ef1565b8b5160a08d0151516118fa916001600160a01b039091169083612013565b8b600001516001600160a01b03167f3491be8ca1b3f4f9e7e74b9955a4600c2613ce85d639eaa123d5b733f59e93be8d6080015160200151838f60200151898960405161194b959493929190612fca565b60405180910390a26119816040518060400160405280600d81526020016c046696e6973686564207377617609c1b815250611bfc565b50505b50505050505050505050565b7ff5b4be0a744c821d14f78bf26d55a308f420d78cebbfac103f2618fba32917b990565b6119fd604051806040016040528060168152602001752a3930b739b332b934b733903a37903937baba32b91d60511b8152508360800151602001516001600160701b0316611ef1565b8151608083015160208101519051610b97926001600160a01b039091169184906001600160701b0316611fb5565b7fd59dd79cfd4373c6c6547848d91fc2ea67c8aec9053f7028828216c5af1d474190565b611a57611990565b6040516321cab0c760e01b815273f3a0C44D23B8C2B54d2a757271E907782AEF9Da9916321cab0c791611a8f91908590600401612ebd565b60006040518083038186803b158015611aa757600080fd5b505af4158015611abb573d6000803e3d6000fd5b50505050611ac7612032565b50565b60009182526001909201602090815260408083206001600160a01b03909416835292905220805460ff19169055565b610b978282611b06610c6f565b91906120fb565b60808101516020810151905182516040516370a0823160e01b815260009384936001600160701b03909116926001600160a01b03909116916370a0823191611b57916004016128fe565b60206040518083038186803b158015611b6f57600080fd5b505afa158015611b83573d6000803e3d6000fd5b505050506040513d601f19601f82011682018060405250810190611ba791906127a3565b10159392505050565b6080810151602081015190518251604051636eb1769f60e11b815260009384936001600160701b03909116926001600160a01b039091169163dd62ed3e91611b57913090600401612912565b611ac781604051602401611c109190612998565b60408051601f198184030181529190526020810180516001600160e01b031663104c13eb60e21b17905261212e565b600080611c806040518060400160405280601981526020017f2d2d2d2d20436f6d707574696e672046656573202d2d2d2d2d00000000000000815250611bfc565b604080518082019091526012815271115cdd1a5b585d19590819d85cc818dbdcdd60721b60208201523a840290611cb79082611ef1565b600085602001516001600160a01b031663313ce5676040518163ffffffff1660e01b815260040160206040518083038186803b158015611cf657600080fd5b505afa158015611d0a573d6000803e3d6000fd5b505050506040513d601f19601f82011682018060405250810190611d2e91906127d7565b60ff169050611d578660400151611d5183600a0a85611f7b90919063ffffffff16565b9061214f565b9350611d986040518060400160405280601881526020017f47617320706f7274696f6e20696e2066656520746f6b656e000000000000000081525085611ef1565b8560800151600001516001600160a01b031686602001516001600160a01b03161415611dfb57611df4612710611d51611dcf611990565b6001015460808a0151602001516001600160701b0316906001600160801b0316611f7b565b9250611e34565b611e31612710611d51611e0c611990565b6001015460a08a0151602001516001600160701b0316906001600160801b0316611f7b565b92505b611e5d604051806040016040528060078152602001664250532066656560c81b81525084611ef1565b611e9b6040518060400160405280601a81526020017f2d2d2d2d20456e6420636f6d707574652066656573202d2d2d2d000000000000815250611bfc565b50509250929050565b600082820183811015610a935760405162461bcd60e51b815260040161049d90612a74565b600082821115611eeb5760405162461bcd60e51b815260040161049d90612aab565b50900390565b610b978282604051602401611f07929190612a07565b60408051601f198184030181529190526020810180516001600160e01b03166309710a9d60e41b17905261212e565b610b978282604051602401611f4c9291906129d9565b60408051601f198184030181529190526020810180516001600160e01b0316634b5c427760e01b17905261212e565b600082611f8a57506000610a96565b82820282848281611f9757fe5b0414610a935760405162461bcd60e51b815260040161049d90612c29565b61200d846323b872dd60e01b858585604051602401611fd69392919061292c565b60408051601f198184030181529190526020810180516001600160e01b03166001600160e01b031990931692909217909152612181565b50505050565b6108788363a9059cbb60e01b8484604051602401611fd6929190612950565b600061203c611a2b565b8054909150610100900460ff16806120565750805460ff16155b6120725760405162461bcd60e51b815260040161049d90612df6565b8054610100900460ff1615801561209a57815460ff1961ff0019909116610100171660011782555b60006120a4610c6b565b90506120be60008051602061324683398151915282611af9565b6120e87f65d7a28e3265b37a6474929f336521b332c1681b933f6cb9f3376673440d862a82611af9565b508015610b975750805461ff0019169055565b60009182526001928301602090815260408084206001600160a01b0390931684529190529020805460ff19169091179055565b80516a636f6e736f6c652e6c6f67602083016000808483855afa5050505050565b60008082116121705760405162461bcd60e51b815260040161049d90612b28565b81838161217957fe5b049392505050565b60606121d6826040518060400160405280602081526020017f5361666545524332303a206c6f772d6c6576656c2063616c6c206661696c6564815250856001600160a01b03166122109092919063ffffffff16565b80519091501561087857808060200190518101906121f49190612506565b6108785760405162461bcd60e51b815260040161049d90612e23565b606061221f8484600085612229565b90505b9392505050565b60608247101561224b5760405162461bcd60e51b815260040161049d90612ae2565b612254856122ea565b6122705760405162461bcd60e51b815260040161049d90612dbf565b60006060866001600160a01b0316858760405161228d91906128e2565b60006040518083038185875af1925050503d80600081146122ca576040519150601f19603f3d011682016040523d82523d6000602084013e6122cf565b606091505b50915091506122df8282866122f0565b979650505050505050565b3b151590565b606083156122ff575081612222565b82511561230f5782518084602001fd5b8160405162461bcd60e51b815260040161049d9190612998565b6040518060800160405280600081526020016000815260200160008152602001600081525090565b6040518060c0016040528060006001600160a01b0316815260200160006001600160a01b0316815260200160008152602001600081526020016123926123cb565b815260200161239f6123cb565b905290565b60408051608081018252600080825260208201819052918101829052606081019190915290565b604080518082019091526000808252602082015290565b60008083601f8401126123f3578182fd5b50813567ffffffffffffffff81111561240a578182fd5b60208301915083602082850101111561242257600080fd5b9250929050565b6000610100828403121561243b578081fd5b61244560c0613023565b9050813561245281613121565b8152602082013561246281613121565b80602083015250604082013560408201526060820135606082015261248a83608084016124a7565b608082015261249c8360c084016124a7565b60a082015292915050565b6000604082840312156124b8578081fd5b6124c26040613023565b905081356124cf81613121565b815260208201356124df81613144565b602082015292915050565b6000602082840312156124fb578081fd5b8135610a9381613121565b600060208284031215612517578081fd5b8151610a9381613136565b60008060408385031215612534578081fd5b825161253f81613136565b602084015190925067ffffffffffffffff8082111561255c578283fd5b818501915085601f83011261256f578283fd5b81518181111561257d578384fd5b612590601f8201601f1916602001613023565b91508082528660208285010111156125a6578384fd5b6125b781602084016020860161304a565b5080925050509250929050565b600080604083850312156125d6578182fd5b8235915060208301356125e881613121565b809150509250929050565b600060808284031215612604578081fd5b61260e6080613023565b823561261981613121565b8152602083013561262981613159565b6020820152604083013561263c81613159565b6040820152606083013561264f8161316e565b60608201529392505050565b60006080828403121561266c578081fd5b6126766080613023565b825161268181613121565b8152602083015161269181613159565b602082015260408301516126a481613159565b6040820152606083015161264f8161316e565b6000806000808486036101408112156126ce578283fd5b610100808212156126dd578384fd5b86955085013590506126ee81613121565b925061012085013567ffffffffffffffff81111561270a578283fd5b612716878288016123e2565b95989497509550505050565b60006101008284031215612734578081fd5b610a938383612429565b6000806000806101408587031215612754578182fd5b61275e8686612429565b93506101008501356126ee81613121565b600060208284031215612780578081fd5b8135610a9381613159565b60006020828403121561279c578081fd5b5035919050565b6000602082840312156127b4578081fd5b5051919050565b6000602082840312156127cc578081fd5b8135610a938161316e565b6000602082840312156127e8578081fd5b8151610a938161316e565b60008284528282602086013780602084860101526020601f19601f85011685010190509392505050565b6000815180845261283581602086016020860161304a565b601f01601f19169290920160200192915050565b80516001600160a01b031682526020808201516001600160801b03908116918401919091526040808301519091169083015260609081015160ff16910152565b803561289481613121565b6001600160a01b0316825260208101356128ad81613144565b6001600160701b0381166020840152505050565b80516001600160a01b031682526020908101516001600160701b0316910152565b600082516128f481846020870161304a565b9190910192915050565b6001600160a01b0391909116815260200190565b6001600160a01b0392831681529116602082015260400190565b6001600160a01b039384168152919092166020820152604081019190915260600190565b6001600160a01b03929092168252602082015260400190565b901515815260200190565b600083151582526040602083015261221f604083018461281d565b90815260200190565b600060208252610a93602083018461281d565b6000606082526129be606083018661281d565b6001600160a01b039490941660208301525060400152919050565b6000604082526129ec604083018561281d565b82810360208401526129fe818561281d565b95945050505050565b600060408252612a1a604083018561281d565b90508260208301529392505050565b6020808252602b908201527f417474656d7074696e6720746f2072652d656e7465722066756e6374696f6e2060408201526a7265637572736976656c7960a81b606082015260800190565b6020808252601b908201527f536166654d6174683a206164646974696f6e206f766572666c6f770000000000604082015260600190565b6020808252601e908201527f536166654d6174683a207375627472616374696f6e206f766572666c6f770000604082015260600190565b60208082526026908201527f416464726573733a20696e73756666696369656e742062616c616e636520666f6040820152651c8818d85b1b60d21b606082015260800190565b6020808252601a908201527f536166654d6174683a206469766973696f6e206279207a65726f000000000000604082015260600190565b6020808252602e908201527f6661696c656420747261646520616374696f6e20646964206e6f74207265667560408201526d6e6420696e7075742066756e647360901b606082015260800190565b60208082526025908201527f496e73756666696369656e742062616c616e636520746f206d616b65207472616040820152643739b332b960d91b606082015260800190565b6020808252601a908201527f5573656420746f6f206d616e7920696e70757420746f6b656e73000000000000604082015260600190565b60208082526021908201527f536166654d6174683a206d756c7469706c69636174696f6e206f766572666c6f6040820152607760f81b606082015260800190565b6020808252602b908201527f496e73756666696369656e74207370656e6420616c6c6f77616e6365206f6e2060408201526a34b7383aba103a37b5b2b760a91b606082015260800190565b60208082526029908201527f496e73756666696369656e7420696e70757420746f6b656e2062616c616e636560408201526820746f20747261646560b81b606082015260800190565b60208082526029908201527f43616e206f6e6c792062652063616c6c656420627920736574746c656d656e746040820152680818dbdb9d1c9858dd60ba1b606082015260800190565b6020808252600990820152684e6f742072656c617960b81b604082015260600190565b60208082526035908201527f547261646520616374696f6e20646964206e6f74207472616e73666572206f756040820152743a383aba103a37b5b2b739903a37903a3930b232b960591b606082015260800190565b6020808252601d908201527f416464726573733a2063616c6c20746f206e6f6e2d636f6e7472616374000000604082015260600190565b602080825260139082015272105b1c9958591e481a5b9a5d1a585b1a5e9959606a1b604082015260600190565b6020808252602a908201527f5361666545524332303a204552433230206f7065726174696f6e20646964206e6040820152691bdd081cdd58d8d9595960b21b606082015260800190565b6020808252600990820152682737ba1030b236b4b760b91b604082015260600190565b92835260208301919091526001600160a01b0316604082015260600190565b60808101610a968284612849565b82815260a081016122226020830184612849565b60006101208535612ee181613121565b6001600160a01b039081168452602087013590612efd82613121565b1660208401526040868101359084015260608087013590840152612f276080808501908801612889565b612f3760c0840160c08801612889565b80610100840152612f4b81840185876127f3565b9695505050505050565b600061014060018060a01b0380885116845280602089015116602085015260408801516040850152606088015160608501526080880151612f9960808601826128c1565b5060a0880151612fac60c08601826128c1565b50861661010084015261012083018190526122df81840185876127f3565b6001600160701b0395909516855260208501939093526001600160a01b039190911660408401526060830152608082015260a00190565b6001600160801b0391909116815260200190565b60ff91909116815260200190565b60405181810167ffffffffffffffff8111828210171561304257600080fd5b604052919050565b60005b8381101561306557818101518382015260200161304d565b8381111561200d5750506000910152565b60e01c90565b600060443d101561308c57610957565b600481823e6308c379a06130a08251613076565b146130aa57610957565b6040513d600319016004823e80513d67ffffffffffffffff81602484011181841117156130da5750505050610957565b828401925082519150808211156130f45750505050610957565b503d8301602082840101111561310c57505050610957565b601f01601f1916810160200160405291505090565b6001600160a01b0381168114611ac757600080fd5b8015158114611ac757600080fd5b6001600160701b0381168114611ac757600080fd5b6001600160801b0381168114611ac757600080fd5b60ff81168114611ac757600080fdfe5472616e7366657272696e67207061727469616c20696e70757420746f6b656e20746f206465767465616d20666f72206661696c7572652067617320666565735472616e7366657272696e6720666565732066726f6d20696e70757420746f6b656e20746f206465765465616d43616e6e6f74207265696d62757273652072656c61792073696e636520646f206e6f74206861766520656e6f7567682066756e647353656e64696e6720666565732066726f6d206f757470757420746f6b656e20746f207465616da49807205ce4d355092ef5a8a18f56e8913cf4a201fbe287825b095693c2177546656520746f6b656e206973206f75747075743b207468657265666f72652063616e6e6f74207265696d6275727365207465616d20666f72206661696c757265206761732066656573a2646970667358221220227c9bd4b5b42a0ddb6847cde96b1754894f8a7900971a74f1dfee1798465c2964736f6c63430007000033",
  "deployedBytecode": "0x60806040526004361061012e5760003560e01c80636a9447b5116100ab578063b1cf4b0c1161006f578063b1cf4b0c14610366578063c3f909d414610388578063d547741f146103aa578063e63ab1e9146103ca578063e959b38a146103df578063f102669b146103ff57610176565b80636a9447b5146102cd57806375b238fc146102ef57806377550610146103045780638d3403fd1461031957806391d148541461033957610176565b80633c6141a9116100f25780633c6141a91461021d5780633f51e1821461024b57806340ee75bb1461026b5780634e1c68291461028b5780635cf34bcf146102ab57610176565b8063044218231461017b57806327054df6146101a65780632e1a7d4d146101bb57806333205a22146101dd578063334c3c65146101fd57610176565b3661017657336001600160a01b03167f4103257eaac983ca79a70d28f90dfc4fa16b619bb0c17ee7cab0d4034c2796243460405161016c919061298f565b60405180910390a2005b600080fd5b34801561018757600080fd5b5061019061041f565b60405161019d919061298f565b60405180910390f35b3480156101b257600080fd5b50610190610443565b3480156101c757600080fd5b506101db6101d636600461278b565b610467565b005b3480156101e957600080fd5b506101db6101f836600461273e565b610552565b34801561020957600080fd5b506101db6102183660046125f3565b610657565b34801561022957600080fd5b5061023d6102383660046126b7565b610700565b60405161019d929190612974565b34801561025757600080fd5b506101db6102663660046125f3565b6107f7565b34801561027757600080fd5b506101db6102863660046124ea565b61087d565b34801561029757600080fd5b506101db6102a636600461276f565b6108dd565b3480156102b757600080fd5b506102c061093d565b60405161019d9190613001565b3480156102d957600080fd5b506102e261095a565b60405161019d91906128fe565b3480156102fb57600080fd5b50610190610973565b34801561031057600080fd5b506102c0610985565b34801561032557600080fd5b506101db6103343660046127bb565b6109a8565b34801561034557600080fd5b506103596103543660046125c4565b6109ff565b60405161019d9190612969565b34801561037257600080fd5b5061037b610a9c565b60405161019d9190613015565b34801561039457600080fd5b5061039d610ab2565b60405161019d9190612eaf565b3480156103b657600080fd5b506101db6103c53660046125c4565b610b4d565b3480156103d657600080fd5b50610190610b9b565b3480156103eb57600080fd5b506101db6103fa3660046125c4565b610bbf565b34801561040b57600080fd5b506101db61041a36600461276f565b610bff565b7f077a1d526a4ce8a773632ab13b4fbbf1fcc954c3dab26cd27ea0e2a6750da5d781565b7fd95061bdf0c43d77b6cbe1c15072292976244ec8d5012de75baa36e42da4625e81565b610481600080516020613246833981519152610354610c6b565b6104a65760405162461bcd60e51b815260040161049d90612e6d565b60405180910390fd5b478111156104c65760405162461bcd60e51b815260040161049d90612bad565b6104ce610c6b565b6001600160a01b03166108fc829081150290604051600060405180830381858888f19350505050158015610506573d6000803e3d6000fd5b5061050f610c6b565b6001600160a01b03167faa21a47bc8f0df1a253be34a945b1d0a8f458e4da029c0ab59c1fee1e488c06682604051610547919061298f565b60405180910390a250565b61057e7f077a1d526a4ce8a773632ab13b4fbbf1fcc954c3dab26cd27ea0e2a6750da5d7610354610c6b565b61059a5760405162461bcd60e51b815260040161049d90612d47565b6105a2610c6f565b5460ff16156105c35760405162461bcd60e51b815260040161049d90612a29565b60016105cd610c6f565b805460ff191691151591909117905560005a90506105e9612329565b6105f286610c93565b90506105fc612351565b61060587610e16565b90506000606061061783898989610fc4565b9150915061062689858461110e565b61063389838387896113c5565b50505050506000610642610c6f565b805460ff191691151591909117905550505050565b610671600080516020613246833981519152610354610c6b565b61068d5760405162461bcd60e51b815260040161049d90612e6d565b610695611990565b6040516321cab0c760e01b815273__$015d7794271f690550e5fe4793e4b79169$__916321cab0c7916106cd91908590600401612ebd565b60006040518083038186803b1580156106e557600080fd5b505af41580156106f9573d6000803e3d6000fd5b5050505050565b600060603330146107235760405162461bcd60e51b815260040161049d90612cfe565b61073b61073536889003880188612722565b866119b4565b60006060866001600160a01b031663be82f7f68988886040518463ffffffff1660e01b815260040161076f93929190612ed1565b600060405180830381600087803b15801561078957600080fd5b505af115801561079d573d6000803e3d6000fd5b505050506040513d6000823e601f3d908101601f191682016040526107c59190810190612522565b91509150816107e8578060405162461bcd60e51b815260040161049d9190612998565b90925090505b94509492505050565b6000610801611a2b565b8054909150610100900460ff168061081b5750805460ff16155b6108375760405162461bcd60e51b815260040161049d90612df6565b8054610100900460ff1615801561085f57815460ff1961ff0019909116610100171660011782555b61086883611a4f565b801561087857815461ff00191682555b505050565b610897600080516020613246833981519152610354610c6b565b6108b35760405162461bcd60e51b815260040161049d90612e6d565b806108bc611990565b80546001600160a01b0319166001600160a01b039290921691909117905550565b6108f7600080516020613246833981519152610354610c6b565b6109135760405162461bcd60e51b815260040161049d90612e6d565b8061091c611990565b60010180546001600160801b03928316600160801b02921691909117905550565b6000610947611990565b600101546001600160801b031690505b90565b6000610964611990565b546001600160a01b0316905090565b60008051602061324683398151915281565b600061098f611990565b60010154600160801b90046001600160801b0316919050565b6109c2600080516020613246833981519152610354610c6b565b6109de5760405162461bcd60e51b815260040161049d90612e6d565b806109e7611990565b600201805460ff191660ff9290921691909117905550565b6000610a09610c6f565b604051630f40931b60e41b815273__$712f9bd20561de4f0bfbc1442284f16fb4$__9163f40931b091610a43919087908790600401612e90565b60206040518083038186803b158015610a5b57600080fd5b505af4158015610a6f573d6000803e3d6000fd5b505050506040513d601f19601f82011682018060405250810190610a939190612506565b90505b92915050565b6000610aa6611990565b6002015460ff16905090565b610aba6123a4565b610ac2611990565b604051636d73f0db60e01b815273__$015d7794271f690550e5fe4793e4b79169$__91636d73f0db91610af8919060040161298f565b60806040518083038186803b158015610b1057600080fd5b505af4158015610b24573d6000803e3d6000fd5b505050506040513d601f19601f82011682018060405250810190610b48919061265b565b905090565b610b67600080516020613246833981519152610354610c6b565b610b835760405162461bcd60e51b815260040161049d90612e6d565b610b978282610b90610c6f565b9190611aca565b5050565b7f65d7a28e3265b37a6474929f336521b332c1681b933f6cb9f3376673440d862a81565b610bd9600080516020613246833981519152610354610c6b565b610bf55760405162461bcd60e51b815260040161049d90612e6d565b610b978282611af9565b610c19600080516020613246833981519152610354610c6b565b610c355760405162461bcd60e51b815260040161049d90612e6d565b80610c3e611990565b60010180546fffffffffffffffffffffffffffffffff19166001600160801b039290921691909117905550565b3390565b7f3a83b1278d351a40f18bb9e8e77896e8c1dc812ffaed5ea63e0e837a6dae57e990565b610c9b612329565b610ca482611b0d565b610cc05760405162461bcd60e51b815260040161049d90612cb5565b610cc982611bb0565b610ce55760405162461bcd60e51b815260040161049d90612c6a565b604080516080808201928390528401515184516370a0823160e01b909352909182916001600160a01b0316906370a0823190610d2490608485016128fe565b60206040518083038186803b158015610d3c57600080fd5b505afa158015610d50573d6000803e3d6000fd5b505050506040513d601f19601f82011682018060405250810190610d7491906127a3565b81526020018360a00151600001516001600160a01b03166370a08231306040518263ffffffff1660e01b8152600401610dad91906128fe565b60206040518083038186803b158015610dc557600080fd5b505afa158015610dd9573d6000803e3d6000fd5b505050506040513d601f19601f82011682018060405250810190610dfd91906127a3565b815260200160008152602001600081525090505b919050565b610e1e612351565b8160800151600001516001600160a01b031682602001516001600160a01b03161415610fc057610e826040518060400160405280601c81526020017f54616b696e67206665652066726f6d206f757470757420746f6b656e00000000815250611bfc565b60008080610e94858660600151611c3f565b9092509050610ebe610ea68383611ea4565b6080870151602001516001600160701b031690611ec9565b9250610f036040518060400160405280601081526020016f13db19081a5b9c1d5d08185b5bdd5b9d60821b8152508660800151602001516001600160701b0316611ef1565b610f356040518060400160405280601081526020016f13995dc81a5b9c1d5d08185b5bdd5b9d60821b81525084611ef1565b50506040518060c0016040528084600001516001600160a01b0316815260200184602001516001600160a01b03168152602001846040015181526020018460600151815260200160405180604001604052808660800151600001516001600160a01b03168152602001846001600160701b031681525081526020018460a00151815250915050610e11565b5090565b6000606030633c6141a9610fdb619c405a90611ec9565b888888886040518663ffffffff1660e01b8152600401610ffe9493929190612f55565b600060405180830381600088803b15801561101857600080fd5b5087f19350505050801561104e57506040513d6000823e601f3d908101601f1916820160405261104b9190810190612522565b60015b6110d35761105a61307c565b80611065575061109e565b600092508091506110986040518060400160405280600a8152602001692330b4b62932b0b9b7b760b11b81525082611f36565b506110ce565b50506040805180820190915260138152722ab735b737bbb7103330b4b6103932b0b9b7b760691b60208201526000905b6107ee565b81611104576111046040518060400160405280600a8152602001692330b4b62932b0b9b7b760b11b81525082611f36565b90925090506107ee565b60808301515183516040516370a0823160e01b81526001600160a01b03909216916370a0823191611141916004016128fe565b60206040518083038186803b15801561115957600080fd5b505afa15801561116d573d6000803e3d6000fd5b505050506040513d601f19601f8201168201806040525081019061119191906127a3565b60408301528061122b576111cd6040518060400160405280600c81526020016b125b9c1d5d0818985b08188d60a21b8152508360000151611ef1565b6112026040518060400160405280600f81526020016e24b7383aba103130b61030b33a32b960891b8152508360400151611ef1565b81516040830151146112265760405162461bcd60e51b815260040161049d90612b5f565b610878565b60a0830151516040516370a0823160e01b81526001600160a01b03909116906370a082319061125e9030906004016128fe565b60206040518083038186803b15801561127657600080fd5b505afa15801561128a573d6000803e3d6000fd5b505050506040513d601f19601f820116820180604052508101906112ae91906127a3565b60608301526040805180820190915260208082527f4f757470757420746f6b656e2062616c616e6365206265666f72652073776170818301528301516112f49190611ef1565b6113376040518060400160405280601981526020017f4f75747075742062616c616e63652061667465722073776170000000000000008152508360600151611ef1565b8260a00151602001516001600160701b031661136483602001518460600151611ec990919063ffffffff16565b10156113825760405162461bcd60e51b815260040161049d90612d6a565b608083015160200151604083015183516001600160701b03909216916113a791611ec9565b11156108785760405162461bcd60e51b815260040161049d90612bf2565b60006113de61c3506113d85a8590611ec9565b90611ea4565b90506114106040518060400160405280600e81526020016d151bdd185b0819d85cc81d5cd95960921b81525082611ef1565b600061141c823a611f7b565b9050611447604051806040016040528060078152602001664761732066656560c81b81525082611ef1565b6000806114548985611c3f565b91509150824710156114ce576114816040518060600160405280603581526020016131eb60359139611bfc565b611489610c6b565b6001600160a01b03167f4c0d6a438f19dfe41befe161c0bfdfca9f674028133bbaf37749b2d12f8f0dda846040516114c1919061298f565b60405180910390a2611596565b61150c6040518060400160405280601c81526020017f5472616e73666572696e67206761732066656520746f2072656c617900000000815250611bfc565b611514610c6b565b6001600160a01b03166108fc849081150290604051600060405180830381858888f1935050505015801561154c573d6000803e3d6000fd5b50611555610c6b565b6001600160a01b03167f91d09af90b128f3fb2907042440a531bca49791232cd8f59e1c629d96247d0578460405161158d919061298f565b60405180910390a25b600088611732578290506115d06040518060400160405280600e81526020016d4661696c6564206761732066656560901b81525082611ef1565b8960800151600001516001600160a01b03168a602001516001600160a01b031614156116915761161760405180606001604052806040815260200161317e60409139611bfc565b895161163f90611625611990565b5460208d01516001600160a01b0390811692911684611fb5565b89600001516001600160a01b03167f9f52afa9b861b0c4b200f58dace31f1f5776b94207a3047c075d6a087e25de5e898c6020015184604051611684939291906129ab565b60405180910390a2611701565b6116b260405180608001604052806049815260200161326660499139611bfc565b89600001516001600160a01b03167f9f52afa9b861b0c4b200f58dace31f1f5776b94207a3047c075d6a087e25de5e898c6020015160006040516116f8939291906129ab565b60405180910390a25b61172d6040518060400160405280600b81526020016a14ddd85c0819985a5b195960aa1b815250611bfc565b611984565b61173c8383611ea4565b9050600061175b88602001518960600151611ec990919063ffffffff16565b90506117926040518060400160405280601381526020017211dc9bdcdcc81bdd5d1c1d5d08185b5bdd5b9d606a1b81525082611ef1565b60008b60800151600001516001600160a01b03168c602001516001600160a01b0316141561180c578190506117df6040518060600160405280602d81526020016131be602d913984611ef1565b8b51611807906117ed611990565b5460208f01516001600160a01b0390811692911686611fb5565b61189d565b61184b6040518060400160405280601781526020017f5265647563696e67206f7574707574206279206665657300000000000000000081525084611ef1565b6118558284611ec9565b90506118796040518060600160405280602681526020016132206026913984611ef1565b61189d611884611990565b5460208e01516001600160a01b03908116911685612013565b6118dc6040518060400160405280601e81526020017f53656e64696e6720746f74616c206f757470757420746f20747261646572000081525082611ef1565b8b5160a08d0151516118fa916001600160a01b039091169083612013565b8b600001516001600160a01b03167f3491be8ca1b3f4f9e7e74b9955a4600c2613ce85d639eaa123d5b733f59e93be8d6080015160200151838f60200151898960405161194b959493929190612fca565b60405180910390a26119816040518060400160405280600d81526020016c046696e6973686564207377617609c1b815250611bfc565b50505b50505050505050505050565b7ff5b4be0a744c821d14f78bf26d55a308f420d78cebbfac103f2618fba32917b990565b6119fd604051806040016040528060168152602001752a3930b739b332b934b733903a37903937baba32b91d60511b8152508360800151602001516001600160701b0316611ef1565b8151608083015160208101519051610b97926001600160a01b039091169184906001600160701b0316611fb5565b7fd59dd79cfd4373c6c6547848d91fc2ea67c8aec9053f7028828216c5af1d474190565b611a57611990565b6040516321cab0c760e01b815273__$015d7794271f690550e5fe4793e4b79169$__916321cab0c791611a8f91908590600401612ebd565b60006040518083038186803b158015611aa757600080fd5b505af4158015611abb573d6000803e3d6000fd5b50505050611ac7612032565b50565b60009182526001909201602090815260408083206001600160a01b03909416835292905220805460ff19169055565b610b978282611b06610c6f565b91906120fb565b60808101516020810151905182516040516370a0823160e01b815260009384936001600160701b03909116926001600160a01b03909116916370a0823191611b57916004016128fe565b60206040518083038186803b158015611b6f57600080fd5b505afa158015611b83573d6000803e3d6000fd5b505050506040513d601f19601f82011682018060405250810190611ba791906127a3565b10159392505050565b6080810151602081015190518251604051636eb1769f60e11b815260009384936001600160701b03909116926001600160a01b039091169163dd62ed3e91611b57913090600401612912565b611ac781604051602401611c109190612998565b60408051601f198184030181529190526020810180516001600160e01b031663104c13eb60e21b17905261212e565b600080611c806040518060400160405280601981526020017f2d2d2d2d20436f6d707574696e672046656573202d2d2d2d2d00000000000000815250611bfc565b604080518082019091526012815271115cdd1a5b585d19590819d85cc818dbdcdd60721b60208201523a840290611cb79082611ef1565b600085602001516001600160a01b031663313ce5676040518163ffffffff1660e01b815260040160206040518083038186803b158015611cf657600080fd5b505afa158015611d0a573d6000803e3d6000fd5b505050506040513d601f19601f82011682018060405250810190611d2e91906127d7565b60ff169050611d578660400151611d5183600a0a85611f7b90919063ffffffff16565b9061214f565b9350611d986040518060400160405280601881526020017f47617320706f7274696f6e20696e2066656520746f6b656e000000000000000081525085611ef1565b8560800151600001516001600160a01b031686602001516001600160a01b03161415611dfb57611df4612710611d51611dcf611990565b6001015460808a0151602001516001600160701b0316906001600160801b0316611f7b565b9250611e34565b611e31612710611d51611e0c611990565b6001015460a08a0151602001516001600160701b0316906001600160801b0316611f7b565b92505b611e5d604051806040016040528060078152602001664250532066656560c81b81525084611ef1565b611e9b6040518060400160405280601a81526020017f2d2d2d2d20456e6420636f6d707574652066656573202d2d2d2d000000000000815250611bfc565b50509250929050565b600082820183811015610a935760405162461bcd60e51b815260040161049d90612a74565b600082821115611eeb5760405162461bcd60e51b815260040161049d90612aab565b50900390565b610b978282604051602401611f07929190612a07565b60408051601f198184030181529190526020810180516001600160e01b03166309710a9d60e41b17905261212e565b610b978282604051602401611f4c9291906129d9565b60408051601f198184030181529190526020810180516001600160e01b0316634b5c427760e01b17905261212e565b600082611f8a57506000610a96565b82820282848281611f9757fe5b0414610a935760405162461bcd60e51b815260040161049d90612c29565b61200d846323b872dd60e01b858585604051602401611fd69392919061292c565b60408051601f198184030181529190526020810180516001600160e01b03166001600160e01b031990931692909217909152612181565b50505050565b6108788363a9059cbb60e01b8484604051602401611fd6929190612950565b600061203c611a2b565b8054909150610100900460ff16806120565750805460ff16155b6120725760405162461bcd60e51b815260040161049d90612df6565b8054610100900460ff1615801561209a57815460ff1961ff0019909116610100171660011782555b60006120a4610c6b565b90506120be60008051602061324683398151915282611af9565b6120e87f65d7a28e3265b37a6474929f336521b332c1681b933f6cb9f3376673440d862a82611af9565b508015610b975750805461ff0019169055565b60009182526001928301602090815260408084206001600160a01b0390931684529190529020805460ff19169091179055565b80516a636f6e736f6c652e6c6f67602083016000808483855afa5050505050565b60008082116121705760405162461bcd60e51b815260040161049d90612b28565b81838161217957fe5b049392505050565b60606121d6826040518060400160405280602081526020017f5361666545524332303a206c6f772d6c6576656c2063616c6c206661696c6564815250856001600160a01b03166122109092919063ffffffff16565b80519091501561087857808060200190518101906121f49190612506565b6108785760405162461bcd60e51b815260040161049d90612e23565b606061221f8484600085612229565b90505b9392505050565b60608247101561224b5760405162461bcd60e51b815260040161049d90612ae2565b612254856122ea565b6122705760405162461bcd60e51b815260040161049d90612dbf565b60006060866001600160a01b0316858760405161228d91906128e2565b60006040518083038185875af1925050503d80600081146122ca576040519150601f19603f3d011682016040523d82523d6000602084013e6122cf565b606091505b50915091506122df8282866122f0565b979650505050505050565b3b151590565b606083156122ff575081612222565b82511561230f5782518084602001fd5b8160405162461bcd60e51b815260040161049d9190612998565b6040518060800160405280600081526020016000815260200160008152602001600081525090565b6040518060c0016040528060006001600160a01b0316815260200160006001600160a01b0316815260200160008152602001600081526020016123926123cb565b815260200161239f6123cb565b905290565b60408051608081018252600080825260208201819052918101829052606081019190915290565b604080518082019091526000808252602082015290565b60008083601f8401126123f3578182fd5b50813567ffffffffffffffff81111561240a578182fd5b60208301915083602082850101111561242257600080fd5b9250929050565b6000610100828403121561243b578081fd5b61244560c0613023565b9050813561245281613121565b8152602082013561246281613121565b80602083015250604082013560408201526060820135606082015261248a83608084016124a7565b608082015261249c8360c084016124a7565b60a082015292915050565b6000604082840312156124b8578081fd5b6124c26040613023565b905081356124cf81613121565b815260208201356124df81613144565b602082015292915050565b6000602082840312156124fb578081fd5b8135610a9381613121565b600060208284031215612517578081fd5b8151610a9381613136565b60008060408385031215612534578081fd5b825161253f81613136565b602084015190925067ffffffffffffffff8082111561255c578283fd5b818501915085601f83011261256f578283fd5b81518181111561257d578384fd5b612590601f8201601f1916602001613023565b91508082528660208285010111156125a6578384fd5b6125b781602084016020860161304a565b5080925050509250929050565b600080604083850312156125d6578182fd5b8235915060208301356125e881613121565b809150509250929050565b600060808284031215612604578081fd5b61260e6080613023565b823561261981613121565b8152602083013561262981613159565b6020820152604083013561263c81613159565b6040820152606083013561264f8161316e565b60608201529392505050565b60006080828403121561266c578081fd5b6126766080613023565b825161268181613121565b8152602083015161269181613159565b602082015260408301516126a481613159565b6040820152606083015161264f8161316e565b6000806000808486036101408112156126ce578283fd5b610100808212156126dd578384fd5b86955085013590506126ee81613121565b925061012085013567ffffffffffffffff81111561270a578283fd5b612716878288016123e2565b95989497509550505050565b60006101008284031215612734578081fd5b610a938383612429565b6000806000806101408587031215612754578182fd5b61275e8686612429565b93506101008501356126ee81613121565b600060208284031215612780578081fd5b8135610a9381613159565b60006020828403121561279c578081fd5b5035919050565b6000602082840312156127b4578081fd5b5051919050565b6000602082840312156127cc578081fd5b8135610a938161316e565b6000602082840312156127e8578081fd5b8151610a938161316e565b60008284528282602086013780602084860101526020601f19601f85011685010190509392505050565b6000815180845261283581602086016020860161304a565b601f01601f19169290920160200192915050565b80516001600160a01b031682526020808201516001600160801b03908116918401919091526040808301519091169083015260609081015160ff16910152565b803561289481613121565b6001600160a01b0316825260208101356128ad81613144565b6001600160701b0381166020840152505050565b80516001600160a01b031682526020908101516001600160701b0316910152565b600082516128f481846020870161304a565b9190910192915050565b6001600160a01b0391909116815260200190565b6001600160a01b0392831681529116602082015260400190565b6001600160a01b039384168152919092166020820152604081019190915260600190565b6001600160a01b03929092168252602082015260400190565b901515815260200190565b600083151582526040602083015261221f604083018461281d565b90815260200190565b600060208252610a93602083018461281d565b6000606082526129be606083018661281d565b6001600160a01b039490941660208301525060400152919050565b6000604082526129ec604083018561281d565b82810360208401526129fe818561281d565b95945050505050565b600060408252612a1a604083018561281d565b90508260208301529392505050565b6020808252602b908201527f417474656d7074696e6720746f2072652d656e7465722066756e6374696f6e2060408201526a7265637572736976656c7960a81b606082015260800190565b6020808252601b908201527f536166654d6174683a206164646974696f6e206f766572666c6f770000000000604082015260600190565b6020808252601e908201527f536166654d6174683a207375627472616374696f6e206f766572666c6f770000604082015260600190565b60208082526026908201527f416464726573733a20696e73756666696369656e742062616c616e636520666f6040820152651c8818d85b1b60d21b606082015260800190565b6020808252601a908201527f536166654d6174683a206469766973696f6e206279207a65726f000000000000604082015260600190565b6020808252602e908201527f6661696c656420747261646520616374696f6e20646964206e6f74207265667560408201526d6e6420696e7075742066756e647360901b606082015260800190565b60208082526025908201527f496e73756666696369656e742062616c616e636520746f206d616b65207472616040820152643739b332b960d91b606082015260800190565b6020808252601a908201527f5573656420746f6f206d616e7920696e70757420746f6b656e73000000000000604082015260600190565b60208082526021908201527f536166654d6174683a206d756c7469706c69636174696f6e206f766572666c6f6040820152607760f81b606082015260800190565b6020808252602b908201527f496e73756666696369656e74207370656e6420616c6c6f77616e6365206f6e2060408201526a34b7383aba103a37b5b2b760a91b606082015260800190565b60208082526029908201527f496e73756666696369656e7420696e70757420746f6b656e2062616c616e636560408201526820746f20747261646560b81b606082015260800190565b60208082526029908201527f43616e206f6e6c792062652063616c6c656420627920736574746c656d656e746040820152680818dbdb9d1c9858dd60ba1b606082015260800190565b6020808252600990820152684e6f742072656c617960b81b604082015260600190565b60208082526035908201527f547261646520616374696f6e20646964206e6f74207472616e73666572206f756040820152743a383aba103a37b5b2b739903a37903a3930b232b960591b606082015260800190565b6020808252601d908201527f416464726573733a2063616c6c20746f206e6f6e2d636f6e7472616374000000604082015260600190565b602080825260139082015272105b1c9958591e481a5b9a5d1a585b1a5e9959606a1b604082015260600190565b6020808252602a908201527f5361666545524332303a204552433230206f7065726174696f6e20646964206e6040820152691bdd081cdd58d8d9595960b21b606082015260800190565b6020808252600990820152682737ba1030b236b4b760b91b604082015260600190565b92835260208301919091526001600160a01b0316604082015260600190565b60808101610a968284612849565b82815260a081016122226020830184612849565b60006101208535612ee181613121565b6001600160a01b039081168452602087013590612efd82613121565b1660208401526040868101359084015260608087013590840152612f276080808501908801612889565b612f3760c0840160c08801612889565b80610100840152612f4b81840185876127f3565b9695505050505050565b600061014060018060a01b0380885116845280602089015116602085015260408801516040850152606088015160608501526080880151612f9960808601826128c1565b5060a0880151612fac60c08601826128c1565b50861661010084015261012083018190526122df81840185876127f3565b6001600160701b0395909516855260208501939093526001600160a01b039190911660408401526060830152608082015260a00190565b6001600160801b0391909116815260200190565b60ff91909116815260200190565b60405181810167ffffffffffffffff8111828210171561304257600080fd5b604052919050565b60005b8381101561306557818101518382015260200161304d565b8381111561200d5750506000910152565b60e01c90565b600060443d101561308c57610957565b600481823e6308c379a06130a08251613076565b146130aa57610957565b6040513d600319016004823e80513d67ffffffffffffffff81602484011181841117156130da5750505050610957565b828401925082519150808211156130f45750505050610957565b503d8301602082840101111561310c57505050610957565b601f01601f1916810160200160405291505090565b6001600160a01b0381168114611ac757600080fd5b8015158114611ac757600080fd5b6001600160701b0381168114611ac757600080fd5b6001600160801b0381168114611ac757600080fd5b60ff81168114611ac757600080fdfe5472616e7366657272696e67207061727469616c20696e70757420746f6b656e20746f206465767465616d20666f72206661696c7572652067617320666565735472616e7366657272696e6720666565732066726f6d20696e70757420746f6b656e20746f206465765465616d43616e6e6f74207265696d62757273652072656c61792073696e636520646f206e6f74206861766520656e6f7567682066756e647353656e64696e6720666565732066726f6d206f757470757420746f6b656e20746f207465616da49807205ce4d355092ef5a8a18f56e8913cf4a201fbe287825b095693c2177546656520746f6b656e206973206f75747075743b207468657265666f72652063616e6e6f74207265696d6275727365207465616d20666f72206661696c757265206761732066656573a2646970667358221220227c9bd4b5b42a0ddb6847cde96b1754894f8a7900971a74f1dfee1798465c2964736f6c63430007000033",
  "libraries": {
    "LibAccess": "0x74fB0a2BDd8A7dCEc3543F2F3B2CafC429222df7",
    "LibConfig": "0xf3a0C44D23B8C2B54d2a757271E907782AEF9Da9",
    "LibGas": "0x33eeAEea8B408053B4DD86f83296D3021E67d01A",
    "ProxyAdmin": "0xd12b2d583a33d422b8279ab70ade06c56bd9884c",
    "Settlement": "0x832F2AEcAA3fDdCb3A805E56932fca98CD413E8C",
    "SushiswapDex": "0x753D2D13C7C2413E84c2ea841C3511aB102D883b",
    "TransparentUpgradeableProxy": "0x2d57690EBA381611C77069fbcfC79D4806a4e53e",
    "UniswapDex": "0xD988AA4106533d955BfcC5F72D594F3ffb9b3E10",
    "ZrxRouter": "0xdf635fcB617Aa44b306d58E8F6Fc597b566Ec074"
  },
  "devdoc": {
    "kind": "dev",
    "methods": {},
    "version": 1
  },
  "userdoc": {
    "kind": "user",
    "methods": {
      "fill((address,address,uint256,uint256,(address,uint112),(address,uint112)),address,bytes)": {
        "notice": "Fill an order using the given router and forwarded call data."
      },
      "getConfig()": {
        "notice": "Get the current configuration struct"
      },
      "getDevTeam()": {
        "notice": "Get the dev team wallet/multi-sig address"
      },
      "getLockoutBlocks()": {
        "notice": "Get the number of blocks to wait before trader can withdraw gas tank funds  marked for withdraw."
      },
      "getMinFee()": {
        "notice": "Get the minimum fee required for all orders"
      },
      "getPenaltyFee()": {
        "notice": "Get the penalty fee to asses when trader removes tokens or funds after Dexible submits orders on-chain."
      },
      "setConfig((address,uint128,uint128,uint8))": {
        "notice": "Set the current configuration as a bulk setting"
      },
      "setDevTeam(address)": {
        "notice": "Set the dev team wallet/multi-sig address"
      },
      "setLockoutBlocks(uint8)": {
        "notice": "Set the number of blocks to wait before thawed withdraws are allowed"
      },
      "setMinFee(uint128)": {
        "notice": "Set the minimum fee for an order execution"
      },
      "setPenaltyFee(uint128)": {
        "notice": "Set the penalty assessed when a user removes tokens or gas tank funds"
      },
      "withdraw(uint256)": {
        "notice": "Team's ability to withdraw ETH balance from the contract."
      }
    },
    "version": 1
  },
  "storageLayout": {
    "storage": [],
    "types": null
  }
}