{
  "address": "0xa996db717082893421a529810393baddbda0c870",
  "abi": [
    {
      "anonymous": false,
      "inputs": [
        {
          "indexed": true,
          "internalType": "address",
          "name": "relay",
          "type": "address"
        },
        {
          "indexed": false,
          "internalType": "uint256",
          "name": "amount",
          "type": "uint256"
        }
      ],
      "name": "InsufficientGasFunds",
      "type": "event"
    },
    {
      "anonymous": false,
      "inputs": [
        {
          "indexed": true,
          "internalType": "address",
          "name": "relay",
          "type": "address"
        },
        {
          "indexed": false,
          "internalType": "uint256",
          "name": "amount",
          "type": "uint256"
        }
      ],
      "name": "PaidGasFunds",
      "type": "event"
    },
    {
      "anonymous": false,
      "inputs": [
        {
          "indexed": true,
          "internalType": "address",
          "name": "sender",
          "type": "address"
        },
        {
          "indexed": false,
          "internalType": "uint256",
          "name": "amount",
          "type": "uint256"
        }
      ],
      "name": "ReceivedETH",
      "type": "event"
    },
    {
      "anonymous": false,
      "inputs": [
        {
          "indexed": true,
          "internalType": "address",
          "name": "trader",
          "type": "address"
        },
        {
          "indexed": false,
          "internalType": "string",
          "name": "reason",
          "type": "string"
        },
        {
          "indexed": false,
          "internalType": "contract IERC20",
          "name": "feeToken",
          "type": "address"
        },
        {
          "indexed": false,
          "internalType": "uint256",
          "name": "gasFeePaid",
          "type": "uint256"
        }
      ],
      "name": "SwapFailed",
      "type": "event"
    },
    {
      "anonymous": false,
      "inputs": [
        {
          "indexed": true,
          "internalType": "address",
          "name": "trader",
          "type": "address"
        },
        {
          "indexed": false,
          "internalType": "uint256",
          "name": "inputAmount",
          "type": "uint256"
        },
        {
          "indexed": false,
          "internalType": "uint256",
          "name": "outputAmount",
          "type": "uint256"
        },
        {
          "indexed": false,
          "internalType": "contract IERC20",
          "name": "feeToken",
          "type": "address"
        },
        {
          "indexed": false,
          "internalType": "uint256",
          "name": "gasFee",
          "type": "uint256"
        },
        {
          "indexed": false,
          "internalType": "uint256",
          "name": "dexibleFee",
          "type": "uint256"
        }
      ],
      "name": "SwapSuccess",
      "type": "event"
    },
    {
      "anonymous": false,
      "inputs": [
        {
          "indexed": true,
          "internalType": "address",
          "name": "trader",
          "type": "address"
        },
        {
          "indexed": false,
          "internalType": "uint256",
          "name": "penalty",
          "type": "uint256"
        },
        {
          "indexed": false,
          "internalType": "uint256",
          "name": "gasPaid",
          "type": "uint256"
        },
        {
          "indexed": false,
          "internalType": "string",
          "name": "reason",
          "type": "string"
        }
      ],
      "name": "TraderPenalized",
      "type": "event"
    },
    {
      "anonymous": false,
      "inputs": [
        {
          "indexed": true,
          "internalType": "address",
          "name": "receiver",
          "type": "address"
        },
        {
          "indexed": false,
          "internalType": "uint256",
          "name": "amount",
          "type": "uint256"
        }
      ],
      "name": "WithdrewETH",
      "type": "event"
    },
    {
      "inputs": [],
      "name": "ACTION_ROLE",
      "outputs": [
        {
          "internalType": "bytes32",
          "name": "",
          "type": "bytes32"
        }
      ],
      "stateMutability": "view",
      "type": "function"
    },
    {
      "inputs": [],
      "name": "ADMIN_ROLE",
      "outputs": [
        {
          "internalType": "bytes32",
          "name": "",
          "type": "bytes32"
        }
      ],
      "stateMutability": "view",
      "type": "function"
    },
    {
      "inputs": [],
      "name": "PAUSER_ROLE",
      "outputs": [
        {
          "internalType": "bytes32",
          "name": "",
          "type": "bytes32"
        }
      ],
      "stateMutability": "view",
      "type": "function"
    },
    {
      "inputs": [],
      "name": "RELAY_ROLE",
      "outputs": [
        {
          "internalType": "bytes32",
          "name": "",
          "type": "bytes32"
        }
      ],
      "stateMutability": "view",
      "type": "function"
    },
    {
      "inputs": [
        {
          "components": [
            {
              "internalType": "address",
              "name": "trader",
              "type": "address"
            },
            {
              "internalType": "contract IERC20",
              "name": "feeToken",
              "type": "address"
            },
            {
              "internalType": "uint256",
              "name": "feeTokenETHPrice",
              "type": "uint256"
            },
            {
              "internalType": "uint256",
              "name": "ethUSDPrice",
              "type": "uint256"
            },
            {
              "internalType": "uint256",
              "name": "gasEstimate",
              "type": "uint256"
            },
            {
              "components": [
                {
                  "internalType": "contract IERC20",
                  "name": "token",
                  "type": "address"
                },
                {
                  "internalType": "uint112",
                  "name": "amount",
                  "type": "uint112"
                }
              ],
              "internalType": "struct Types.TokenAmount",
              "name": "input",
              "type": "tuple"
            },
            {
              "components": [
                {
                  "internalType": "contract IERC20",
                  "name": "token",
                  "type": "address"
                },
                {
                  "internalType": "uint112",
                  "name": "amount",
                  "type": "uint112"
                }
              ],
              "internalType": "struct Types.TokenAmount",
              "name": "output",
              "type": "tuple"
            }
          ],
          "internalType": "struct Types.Order",
          "name": "order",
          "type": "tuple"
        },
        {
          "internalType": "contract IDexRouter",
          "name": "router",
          "type": "address"
        },
        {
          "internalType": "bytes",
          "name": "data",
          "type": "bytes"
        }
      ],
      "name": "_trySwap",
      "outputs": [
        {
          "internalType": "bool",
          "name": "success",
          "type": "bool"
        },
        {
          "internalType": "string",
          "name": "failReason",
          "type": "string"
        }
      ],
      "stateMutability": "nonpayable",
      "type": "function"
    },
    {
      "inputs": [
        {
          "internalType": "bytes32",
          "name": "role",
          "type": "bytes32"
        },
        {
          "internalType": "address",
          "name": "actor",
          "type": "address"
        }
      ],
      "name": "addRole",
      "outputs": [],
      "stateMutability": "nonpayable",
      "type": "function"
    },
    {
      "inputs": [
        {
          "components": [
            {
              "internalType": "address",
              "name": "trader",
              "type": "address"
            },
            {
              "internalType": "contract IERC20",
              "name": "feeToken",
              "type": "address"
            },
            {
              "internalType": "uint256",
              "name": "feeTokenETHPrice",
              "type": "uint256"
            },
            {
              "internalType": "uint256",
              "name": "ethUSDPrice",
              "type": "uint256"
            },
            {
              "internalType": "uint256",
              "name": "gasEstimate",
              "type": "uint256"
            },
            {
              "components": [
                {
                  "internalType": "contract IERC20",
                  "name": "token",
                  "type": "address"
                },
                {
                  "internalType": "uint112",
                  "name": "amount",
                  "type": "uint112"
                }
              ],
              "internalType": "struct Types.TokenAmount",
              "name": "input",
              "type": "tuple"
            },
            {
              "components": [
                {
                  "internalType": "contract IERC20",
                  "name": "token",
                  "type": "address"
                },
                {
                  "internalType": "uint112",
                  "name": "amount",
                  "type": "uint112"
                }
              ],
              "internalType": "struct Types.TokenAmount",
              "name": "output",
              "type": "tuple"
            }
          ],
          "internalType": "struct Types.Order",
          "name": "order",
          "type": "tuple"
        },
        {
          "internalType": "contract IDexRouter",
          "name": "router",
          "type": "address"
        },
        {
          "internalType": "bytes",
          "name": "data",
          "type": "bytes"
        }
      ],
      "name": "fill",
      "outputs": [],
      "stateMutability": "nonpayable",
      "type": "function"
    },
    {
      "inputs": [],
      "name": "getConfig",
      "outputs": [
        {
          "components": [
            {
              "internalType": "address",
              "name": "devTeam",
              "type": "address"
            },
            {
              "internalType": "uint128",
              "name": "minFee",
              "type": "uint128"
            },
            {
              "internalType": "uint128",
              "name": "penaltyFee",
              "type": "uint128"
            },
            {
              "internalType": "uint8",
              "name": "lockoutBlocks",
              "type": "uint8"
            }
          ],
          "internalType": "struct Types.Config",
          "name": "",
          "type": "tuple"
        }
      ],
      "stateMutability": "view",
      "type": "function"
    },
    {
      "inputs": [],
      "name": "getDevTeam",
      "outputs": [
        {
          "internalType": "address",
          "name": "",
          "type": "address"
        }
      ],
      "stateMutability": "view",
      "type": "function"
    },
    {
      "inputs": [],
      "name": "getLockoutBlocks",
      "outputs": [
        {
          "internalType": "uint8",
          "name": "",
          "type": "uint8"
        }
      ],
      "stateMutability": "view",
      "type": "function"
    },
    {
      "inputs": [],
      "name": "getMinFee",
      "outputs": [
        {
          "internalType": "uint128",
          "name": "",
          "type": "uint128"
        }
      ],
      "stateMutability": "view",
      "type": "function"
    },
    {
      "inputs": [],
      "name": "getPenaltyFee",
      "outputs": [
        {
          "internalType": "uint128",
          "name": "",
          "type": "uint128"
        }
      ],
      "stateMutability": "view",
      "type": "function"
    },
    {
      "inputs": [
        {
          "internalType": "bytes32",
          "name": "role",
          "type": "bytes32"
        },
        {
          "internalType": "address",
          "name": "actor",
          "type": "address"
        }
      ],
      "name": "hasRole",
      "outputs": [
        {
          "internalType": "bool",
          "name": "",
          "type": "bool"
        }
      ],
      "stateMutability": "view",
      "type": "function"
    },
    {
      "inputs": [
        {
          "components": [
            {
              "internalType": "address",
              "name": "devTeam",
              "type": "address"
            },
            {
              "internalType": "uint128",
              "name": "minFee",
              "type": "uint128"
            },
            {
              "internalType": "uint128",
              "name": "penaltyFee",
              "type": "uint128"
            },
            {
              "internalType": "uint8",
              "name": "lockoutBlocks",
              "type": "uint8"
            }
          ],
          "internalType": "struct Types.Config",
          "name": "config",
          "type": "tuple"
        }
      ],
      "name": "initialize",
      "outputs": [],
      "stateMutability": "nonpayable",
      "type": "function"
    },
    {
      "inputs": [
        {
          "internalType": "bytes32",
          "name": "role",
          "type": "bytes32"
        },
        {
          "internalType": "address",
          "name": "actor",
          "type": "address"
        }
      ],
      "name": "revokeRole",
      "outputs": [],
      "stateMutability": "nonpayable",
      "type": "function"
    },
    {
      "inputs": [
        {
          "components": [
            {
              "internalType": "address",
              "name": "devTeam",
              "type": "address"
            },
            {
              "internalType": "uint128",
              "name": "minFee",
              "type": "uint128"
            },
            {
              "internalType": "uint128",
              "name": "penaltyFee",
              "type": "uint128"
            },
            {
              "internalType": "uint8",
              "name": "lockoutBlocks",
              "type": "uint8"
            }
          ],
          "internalType": "struct Types.Config",
          "name": "config",
          "type": "tuple"
        }
      ],
      "name": "setConfig",
      "outputs": [],
      "stateMutability": "nonpayable",
      "type": "function"
    },
    {
      "inputs": [
        {
          "internalType": "address",
          "name": "team",
          "type": "address"
        }
      ],
      "name": "setDevTeam",
      "outputs": [],
      "stateMutability": "nonpayable",
      "type": "function"
    },
    {
      "inputs": [
        {
          "internalType": "uint8",
          "name": "blocks",
          "type": "uint8"
        }
      ],
      "name": "setLockoutBlocks",
      "outputs": [],
      "stateMutability": "nonpayable",
      "type": "function"
    },
    {
      "inputs": [
        {
          "internalType": "uint128",
          "name": "fee",
          "type": "uint128"
        }
      ],
      "name": "setMinFee",
      "outputs": [],
      "stateMutability": "nonpayable",
      "type": "function"
    },
    {
      "inputs": [
        {
          "internalType": "uint128",
          "name": "fee",
          "type": "uint128"
        }
      ],
      "name": "setPenaltyFee",
      "outputs": [],
      "stateMutability": "nonpayable",
      "type": "function"
    },
    {
      "inputs": [
        {
          "internalType": "address",
          "name": "oldRelay",
          "type": "address"
        },
        {
          "internalType": "address",
          "name": "newRelay",
          "type": "address"
        }
      ],
      "name": "swapRelay",
      "outputs": [],
      "stateMutability": "nonpayable",
      "type": "function"
    },
    {
      "inputs": [
        {
          "internalType": "uint256",
          "name": "amount",
          "type": "uint256"
        }
      ],
      "name": "withdraw",
      "outputs": [],
      "stateMutability": "nonpayable",
      "type": "function"
    },
    {
      "stateMutability": "payable",
      "type": "receive"
    }
  ],
  "transactionHash": "0xab93f4d2c084680be576375eaa208ff4bb464def38a83046b4cb3ad09df6bfdc",
  "args": [],
  "solcInputHash": "b3658ec7f692489e088475019f6b5cc1",
  "bytecode": "0x608060405234801561001057600080fd5b506133bd806100206000396000f3fe6080604052600436106101395760003560e01c806377550610116100ab578063c13da0181161006f578063c13da01814610393578063c3f909d4146103b3578063d547741f146103d5578063e63ab1e9146103f5578063e959b38a1461040a578063f102669b1461042a57610181565b806377550610146102e15780638d3403fd146102f6578063904cd9f51461031657806391d1485414610344578063b1cf4b0c1461037157610181565b80633f51e182116100fd5780633f51e1821461022857806340ee75bb146102485780634e1c6829146102685780635cf34bcf146102885780636a9447b5146102aa57806375b238fc146102cc57610181565b8063044218231461018657806327054df6146101b15780632e1a7d4d146101c6578063334c3c65146101e85780633d191fa81461020857610181565b3661018157336001600160a01b03167f4103257eaac983ca79a70d28f90dfc4fa16b619bb0c17ee7cab0d4034c279624346040516101779190612a30565b60405180910390a2005b600080fd5b34801561019257600080fd5b5061019b61044a565b6040516101a89190612a30565b60405180910390f35b3480156101bd57600080fd5b5061019b61045c565b3480156101d257600080fd5b506101e66101e136600461282c565b610480565b005b3480156101f457600080fd5b506101e6610203366004612694565b61056b565b34801561021457600080fd5b506101e66102233660046127df565b610614565b34801561023457600080fd5b506101e6610243366004612694565b610707565b34801561025457600080fd5b506101e661026336600461255e565b61078d565b34801561027457600080fd5b506101e6610283366004612810565b6107ed565b34801561029457600080fd5b5061029d61084d565b6040516101a891906130ba565b3480156102b657600080fd5b506102bf61086a565b6040516101a8919061299f565b3480156102d857600080fd5b5061019b610883565b3480156102ed57600080fd5b5061029d610895565b34801561030257600080fd5b506101e661031136600461285c565b6108b8565b34801561032257600080fd5b50610336610331366004612758565b61090f565b6040516101a8929190612a15565b34801561035057600080fd5b5061036461035f366004612670565b610a06565b6040516101a89190612a0a565b34801561037d57600080fd5b50610386610aa3565b6040516101a891906130ce565b34801561039f57600080fd5b506101e66103ae36600461257a565b610ab9565b3480156103bf57600080fd5b506103c8610b23565b6040516101a89190612f50565b3480156103e157600080fd5b506101e66103f0366004612670565b610bbe565b34801561040157600080fd5b5061019b610c08565b34801561041657600080fd5b506101e6610425366004612670565b610c2c565b34801561043657600080fd5b506101e6610445366004612810565b610c6c565b60008051602061327783398151915281565b7fd95061bdf0c43d77b6cbe1c15072292976244ec8d5012de75baa36e42da4625e81565b61049a60008051602061331f83398151915261035f610cd8565b6104bf5760405162461bcd60e51b81526004016104b690612f0e565b60405180910390fd5b478111156104df5760405162461bcd60e51b81526004016104b690612c4e565b6104e7610cd8565b6001600160a01b03166108fc829081150290604051600060405180830381858888f1935050505015801561051f573d6000803e3d6000fd5b50610528610cd8565b6001600160a01b03167faa21a47bc8f0df1a253be34a945b1d0a8f458e4da029c0ab59c1fee1e488c066826040516105609190612a30565b60405180910390a250565b61058560008051602061331f83398151915261035f610cd8565b6105a15760405162461bcd60e51b81526004016104b690612f0e565b6105a9610cdc565b6040516321cab0c760e01b815273f3a0C44D23B8C2B54d2a757271E907782AEF9Da9916321cab0c7916105e191908590600401612f5e565b60006040518083038186803b1580156105f957600080fd5b505af415801561060d573d6000803e3d6000fd5b5050505050565b61062e60008051602061327783398151915261035f610cd8565b61064a5760405162461bcd60e51b81526004016104b690612de8565b610652610d00565b5460ff16156106735760405162461bcd60e51b81526004016104b690612aca565b600161067d610d00565b805460ff191691151591909117905560005a905061069961238c565b6106a286610d24565b90506106ac6123b4565b6106b587610ea8565b9050600060606106c783898989611060565b915091506106d68985846111aa565b6106e38983838789611461565b505050505060006106f2610d00565b805460ff191691151591909117905550505050565b6000610711611a2c565b8054909150610100900460ff168061072b5750805460ff16155b6107475760405162461bcd60e51b81526004016104b690612e97565b8054610100900460ff1615801561076f57815460ff1961ff0019909116610100171660011782555b61077883611a50565b801561078857815461ff00191682555b505050565b6107a760008051602061331f83398151915261035f610cd8565b6107c35760405162461bcd60e51b81526004016104b690612f0e565b806107cc610cdc565b80546001600160a01b0319166001600160a01b039290921691909117905550565b61080760008051602061331f83398151915261035f610cd8565b6108235760405162461bcd60e51b81526004016104b690612f0e565b8061082c610cdc565b60010180546001600160801b03928316600160801b02921691909117905550565b6000610857610cdc565b600101546001600160801b031690505b90565b6000610874610cdc565b546001600160a01b0316905090565b60008051602061331f83398151915281565b600061089f610cdc565b60010154600160801b90046001600160801b0316919050565b6108d260008051602061331f83398151915261035f610cd8565b6108ee5760405162461bcd60e51b81526004016104b690612f0e565b806108f7610cdc565b600201805460ff191660ff9290921691909117905550565b600060603330146109325760405162461bcd60e51b81526004016104b690612d9f565b61094a610944368890038801886127c3565b86611acb565b60006060866001600160a01b03166334c579208988886040518463ffffffff1660e01b815260040161097e93929190612f72565b600060405180830381600087803b15801561099857600080fd5b505af11580156109ac573d6000803e3d6000fd5b505050506040513d6000823e601f3d908101601f191682016040526109d491908101906125ce565b91509150816109f7578060405162461bcd60e51b81526004016104b69190612a39565b90925090505b94509492505050565b6000610a10610d00565b604051630f40931b60e41b81527374fB0a2BDd8A7dCEc3543F2F3B2CafC429222df79163f40931b091610a4a919087908790600401612f31565b60206040518083038186803b158015610a6257600080fd5b505af4158015610a76573d6000803e3d6000fd5b505050506040513d601f19601f82011682018060405250810190610a9a91906125b2565b90505b92915050565b6000610aad610cdc565b6002015460ff16905090565b610ad360008051602061331f83398151915261035f610cd8565b610aef5760405162461bcd60e51b81526004016104b690612f0e565b610b0760008051602061327783398151915283610bbe565b610b1f60008051602061327783398151915282610c2c565b5050565b610b2b61240e565b610b33610cdc565b604051636d73f0db60e01b815273f3a0C44D23B8C2B54d2a757271E907782AEF9Da991636d73f0db91610b699190600401612a30565b60806040518083038186803b158015610b8157600080fd5b505af4158015610b95573d6000803e3d6000fd5b505050506040513d601f19601f82011682018060405250810190610bb991906126fc565b905090565b610bd860008051602061331f83398151915261035f610cd8565b610bf45760405162461bcd60e51b81526004016104b690612f0e565b610b1f8282610c01610d00565b9190611b42565b7f65d7a28e3265b37a6474929f336521b332c1681b933f6cb9f3376673440d862a81565b610c4660008051602061331f83398151915261035f610cd8565b610c625760405162461bcd60e51b81526004016104b690612f0e565b610b1f8282611b71565b610c8660008051602061331f83398151915261035f610cd8565b610ca25760405162461bcd60e51b81526004016104b690612f0e565b80610cab610cdc565b60010180546fffffffffffffffffffffffffffffffff19166001600160801b039290921691909117905550565b3390565b7ff5b4be0a744c821d14f78bf26d55a308f420d78cebbfac103f2618fba32917b990565b7f3a83b1278d351a40f18bb9e8e77896e8c1dc812ffaed5ea63e0e837a6dae57e990565b610d2c61238c565b610d3582611b85565b610d515760405162461bcd60e51b81526004016104b690612d56565b610d5a82611c28565b610d765760405162461bcd60e51b81526004016104b690612d0b565b60408051608081019182905260a08401515184516370a0823160e01b909352909182916001600160a01b0316906370a0823190610db6906084850161299f565b60206040518083038186803b158015610dce57600080fd5b505afa158015610de2573d6000803e3d6000fd5b505050506040513d601f19601f82011682018060405250810190610e069190612844565b81526020018360c00151600001516001600160a01b03166370a08231306040518263ffffffff1660e01b8152600401610e3f919061299f565b60206040518083038186803b158015610e5757600080fd5b505afa158015610e6b573d6000803e3d6000fd5b505050506040513d601f19601f82011682018060405250810190610e8f9190612844565b815260200160008152602001600081525090505b919050565b610eb06123b4565b8160a00151600001516001600160a01b031682602001516001600160a01b0316141561105c57610f146040518060400160405280601c81526020017f54616b696e67206665652066726f6d206f757470757420746f6b656e00000000815250611c74565b60008080610f26858660800151611cb7565b9092509050610f50610f388383611f07565b60a0870151602001516001600160701b031690611f2c565b9250610f956040518060400160405280601081526020016f13db19081a5b9c1d5d08185b5bdd5b9d60821b8152508660a00151602001516001600160701b0316611f54565b610fc76040518060400160405280601081526020016f13995dc81a5b9c1d5d08185b5bdd5b9d60821b81525084611f54565b50506040518060e0016040528084600001516001600160a01b0316815260200184602001516001600160a01b0316815260200184604001518152602001846060015181526020018460800151815260200160405180604001604052808660a00151600001516001600160a01b03168152602001846001600160701b031681525081526020018460c00151815250915050610ea3565b5090565b600060603063904cd9f5611077619c405a90611f2c565b888888886040518663ffffffff1660e01b815260040161109a9493929190613004565b600060405180830381600088803b1580156110b457600080fd5b5087f1935050505080156110ea57506040513d6000823e601f3d908101601f191682016040526110e791908101906125ce565b60015b61116f576110f6613135565b80611101575061113a565b600092508091506111346040518060400160405280600a8152602001692330b4b62932b0b9b7b760b11b81525082611f99565b5061116a565b50506040805180820190915260138152722ab735b737bbb7103330b4b6103932b0b9b7b760691b60208201526000905b6109fd565b816111a0576111a06040518060400160405280600a8152602001692330b4b62932b0b9b7b760b11b81525082611f99565b90925090506109fd565b60a08301515183516040516370a0823160e01b81526001600160a01b03909216916370a08231916111dd9160040161299f565b60206040518083038186803b1580156111f557600080fd5b505afa158015611209573d6000803e3d6000fd5b505050506040513d601f19601f8201168201806040525081019061122d9190612844565b6040830152806112c7576112696040518060400160405280600c81526020016b125b9c1d5d0818985b08188d60a21b8152508360000151611f54565b61129e6040518060400160405280600f81526020016e24b7383aba103130b61030b33a32b960891b8152508360400151611f54565b81516040830151146112c25760405162461bcd60e51b81526004016104b690612c00565b610788565b60c0830151516040516370a0823160e01b81526001600160a01b03909116906370a08231906112fa90309060040161299f565b60206040518083038186803b15801561131257600080fd5b505afa158015611326573d6000803e3d6000fd5b505050506040513d601f19601f8201168201806040525081019061134a9190612844565b60608301526040805180820190915260208082527f4f757470757420746f6b656e2062616c616e6365206265666f72652073776170818301528301516113909190611f54565b6113d36040518060400160405280601981526020017f4f75747075742062616c616e63652061667465722073776170000000000000008152508360600151611f54565b8260c00151602001516001600160701b031661140083602001518460600151611f2c90919063ffffffff16565b101561141e5760405162461bcd60e51b81526004016104b690612e0b565b60a083015160200151604083015183516001600160701b039092169161144391611f2c565b11156107885760405162461bcd60e51b81526004016104b690612c93565b600061147a61c3506114745a8590611f2c565b90611f07565b90506114ac6040518060400160405280600e81526020016d151bdd185b0819d85cc81d5cd95960921b81525082611f54565b60006114b8823a611fde565b90506114e3604051806040016040528060078152602001664761732066656560c81b81525082611f54565b6000806114f08985611cb7565b915091508247101561156a5761151d6040518060600160405280603581526020016132c460359139611c74565b611525610cd8565b6001600160a01b03167f4c0d6a438f19dfe41befe161c0bfdfca9f674028133bbaf37749b2d12f8f0dda8460405161155d9190612a30565b60405180910390a2611632565b6115a86040518060400160405280601c81526020017f5472616e73666572696e67206761732066656520746f2072656c617900000000815250611c74565b6115b0610cd8565b6001600160a01b03166108fc849081150290604051600060405180830381858888f193505050501580156115e8573d6000803e3d6000fd5b506115f1610cd8565b6001600160a01b03167f91d09af90b128f3fb2907042440a531bca49791232cd8f59e1c629d96247d057846040516116299190612a30565b60405180910390a25b6000886117ce5782905061166c6040518060400160405280600e81526020016d4661696c6564206761732066656560901b81525082611f54565b8960a00151600001516001600160a01b03168a602001516001600160a01b0316141561172d576116b360405180606001604052806040815260200161323760409139611c74565b89516116db906116c1610cdc565b5460208d01516001600160a01b0390811692911684612018565b89600001516001600160a01b03167f9f52afa9b861b0c4b200f58dace31f1f5776b94207a3047c075d6a087e25de5e898c602001518460405161172093929190612a4c565b60405180910390a261179d565b61174e60405180608001604052806049815260200161333f60499139611c74565b89600001516001600160a01b03167f9f52afa9b861b0c4b200f58dace31f1f5776b94207a3047c075d6a087e25de5e898c60200151600060405161179493929190612a4c565b60405180910390a25b6117c96040518060400160405280600b81526020016a14ddd85c0819985a5b195960aa1b815250611c74565b611a20565b6117d88383611f07565b905060006117f788602001518960600151611f2c90919063ffffffff16565b905061182e6040518060400160405280601381526020017211dc9bdcdcc81bdd5d1c1d5d08185b5bdd5b9d606a1b81525082611f54565b60008b60a00151600001516001600160a01b03168c602001516001600160a01b031614156118a85781905061187b6040518060600160405280602d8152602001613297602d913984611f54565b8b516118a390611889610cdc565b5460208f01516001600160a01b0390811692911686612018565b611939565b6118e76040518060400160405280601781526020017f5265647563696e67206f7574707574206279206665657300000000000000000081525084611f54565b6118f18284611f2c565b90506119156040518060600160405280602681526020016132f96026913984611f54565b611939611920610cdc565b5460208e01516001600160a01b03908116911685612076565b6119786040518060400160405280601e81526020017f53656e64696e6720746f74616c206f757470757420746f20747261646572000081525082611f54565b8b5160c08d015151611996916001600160a01b039091169083612076565b8b600001516001600160a01b03167f3491be8ca1b3f4f9e7e74b9955a4600c2613ce85d639eaa123d5b733f59e93be8d60a0015160200151838f6020015189896040516119e7959493929190613083565b60405180910390a2611a1d6040518060400160405280600d81526020016c046696e6973686564207377617609c1b815250611c74565b50505b50505050505050505050565b7fd59dd79cfd4373c6c6547848d91fc2ea67c8aec9053f7028828216c5af1d474190565b611a58610cdc565b6040516321cab0c760e01b815273f3a0C44D23B8C2B54d2a757271E907782AEF9Da9916321cab0c791611a9091908590600401612f5e565b60006040518083038186803b158015611aa857600080fd5b505af4158015611abc573d6000803e3d6000fd5b50505050611ac8612095565b50565b611b14604051806040016040528060168152602001752a3930b739b332b934b733903a37903937baba32b91d60511b8152508360a00151602001516001600160701b0316611f54565b815160a083015160208101519051610b1f926001600160a01b039091169184906001600160701b0316612018565b60009182526001909201602090815260408083206001600160a01b03909416835292905220805460ff19169055565b610b1f8282611b7e610d00565b919061215e565b60a08101516020810151905182516040516370a0823160e01b815260009384936001600160701b03909116926001600160a01b03909116916370a0823191611bcf9160040161299f565b60206040518083038186803b158015611be757600080fd5b505afa158015611bfb573d6000803e3d6000fd5b505050506040513d601f19601f82011682018060405250810190611c1f9190612844565b10159392505050565b60a0810151602081015190518251604051636eb1769f60e11b815260009384936001600160701b03909116926001600160a01b039091169163dd62ed3e91611bcf9130906004016129b3565b611ac881604051602401611c889190612a39565b60408051601f198184030181529190526020810180516001600160e01b031663104c13eb60e21b179052612191565b600080611cf86040518060400160405280601981526020017f2d2d2d2d20436f6d707574696e672046656573202d2d2d2d2d00000000000000815250611c74565b604080518082019091526012815271115cdd1a5b585d19590819d85cc818dbdcdd60721b60208201523a840290611d2f9082611f54565b600085602001516001600160a01b031663313ce5676040518163ffffffff1660e01b815260040160206040518083038186803b158015611d6e57600080fd5b505afa158015611d82573d6000803e3d6000fd5b505050506040513d601f19601f82011682018060405250810190611da69190612878565b60ff169050611dcf8660400151611dc983600a0a85611fde90919063ffffffff16565b906121b2565b9350611e106040518060400160405280601881526020017f47617320706f7274696f6e20696e2066656520746f6b656e000000000000000081525085611f54565b6000611e2d87604001518860600151611fde90919063ffffffff16565b9050611e6760405180604001604052806016815260200175119959481d1bdad95b881c1c9a58d9481a5b881554d160521b81525082611f54565b611e9081611dc984602401600a0a611e7d610cdc565b600101546001600160801b031690611fde565b9350611ebf6040518060400160405280600b81526020016a44657869626c652066656560a81b81525085611f54565b611efd6040518060400160405280601a81526020017f2d2d2d2d20456e6420636f6d707574652066656573202d2d2d2d000000000000815250611c74565b5050509250929050565b600082820183811015610a9a5760405162461bcd60e51b81526004016104b690612b15565b600082821115611f4e5760405162461bcd60e51b81526004016104b690612b4c565b50900390565b610b1f8282604051602401611f6a929190612aa8565b60408051601f198184030181529190526020810180516001600160e01b03166309710a9d60e41b179052612191565b610b1f8282604051602401611faf929190612a7a565b60408051601f198184030181529190526020810180516001600160e01b0316634b5c427760e01b179052612191565b600082611fed57506000610a9d565b82820282848281611ffa57fe5b0414610a9a5760405162461bcd60e51b81526004016104b690612cca565b612070846323b872dd60e01b858585604051602401612039939291906129cd565b60408051601f198184030181529190526020810180516001600160e01b03166001600160e01b0319909316929092179091526121e4565b50505050565b6107888363a9059cbb60e01b84846040516024016120399291906129f1565b600061209f611a2c565b8054909150610100900460ff16806120b95750805460ff16155b6120d55760405162461bcd60e51b81526004016104b690612e97565b8054610100900460ff161580156120fd57815460ff1961ff0019909116610100171660011782555b6000612107610cd8565b905061212160008051602061331f83398151915282611b71565b61214b7f65d7a28e3265b37a6474929f336521b332c1681b933f6cb9f3376673440d862a82611b71565b508015610b1f5750805461ff0019169055565b60009182526001928301602090815260408084206001600160a01b0390931684529190529020805460ff19169091179055565b80516a636f6e736f6c652e6c6f67602083016000808483855afa5050505050565b60008082116121d35760405162461bcd60e51b81526004016104b690612bc9565b8183816121dc57fe5b049392505050565b6060612239826040518060400160405280602081526020017f5361666545524332303a206c6f772d6c6576656c2063616c6c206661696c6564815250856001600160a01b03166122739092919063ffffffff16565b805190915015610788578080602001905181019061225791906125b2565b6107885760405162461bcd60e51b81526004016104b690612ec4565b6060612282848460008561228c565b90505b9392505050565b6060824710156122ae5760405162461bcd60e51b81526004016104b690612b83565b6122b78561234d565b6122d35760405162461bcd60e51b81526004016104b690612e60565b60006060866001600160a01b031685876040516122f09190612983565b60006040518083038185875af1925050503d806000811461232d576040519150601f19603f3d011682016040523d82523d6000602084013e612332565b606091505b5091509150612342828286612353565b979650505050505050565b3b151590565b60608315612362575081612285565b8251156123725782518084602001fd5b8160405162461bcd60e51b81526004016104b69190612a39565b6040518060800160405280600081526020016000815260200160008152602001600081525090565b6040518060e0016040528060006001600160a01b0316815260200160006001600160a01b031681526020016000815260200160008152602001600081526020016123fc612435565b8152602001612409612435565b905290565b60408051608081018252600080825260208201819052918101829052606081019190915290565b604080518082019091526000808252602082015290565b60008083601f84011261245d578182fd5b50813567ffffffffffffffff811115612474578182fd5b60208301915083602082850101111561248c57600080fd5b9250929050565b600061012082840312156124a5578081fd5b6124af60e06130dc565b905081356124bc816131da565b815260208201356124cc816131da565b806020830152506040820135604082015260608201356060820152608082013560808201526124fe8360a0840161251b565b60a08201526125108360e0840161251b565b60c082015292915050565b60006040828403121561252c578081fd5b61253660406130dc565b90508135612543816131da565b81526020820135612553816131fd565b602082015292915050565b60006020828403121561256f578081fd5b8135610a9a816131da565b6000806040838503121561258c578081fd5b8235612597816131da565b915060208301356125a7816131da565b809150509250929050565b6000602082840312156125c3578081fd5b8151610a9a816131ef565b600080604083850312156125e0578182fd5b82516125eb816131ef565b602084015190925067ffffffffffffffff80821115612608578283fd5b818501915085601f83011261261b578283fd5b815181811115612629578384fd5b61263c601f8201601f19166020016130dc565b9150808252866020828501011115612652578384fd5b612663816020840160208601613103565b5080925050509250929050565b60008060408385031215612682578182fd5b8235915060208301356125a7816131da565b6000608082840312156126a5578081fd5b6126af60806130dc565b82356126ba816131da565b815260208301356126ca81613212565b602082015260408301356126dd81613212565b604082015260608301356126f081613227565b60608201529392505050565b60006080828403121561270d578081fd5b61271760806130dc565b8251612722816131da565b8152602083015161273281613212565b6020820152604083015161274581613212565b604082015260608301516126f081613227565b60008060008084860361016081121561276f578283fd5b6101208082121561277e578384fd5b869550850135905061278f816131da565b925061014085013567ffffffffffffffff8111156127ab578283fd5b6127b78782880161244c565b95989497509550505050565b600061012082840312156127d5578081fd5b610a9a8383612493565b60008060008061016085870312156127f5578182fd5b6127ff8686612493565b935061012085013561278f816131da565b600060208284031215612821578081fd5b8135610a9a81613212565b60006020828403121561283d578081fd5b5035919050565b600060208284031215612855578081fd5b5051919050565b60006020828403121561286d578081fd5b8135610a9a81613227565b600060208284031215612889578081fd5b8151610a9a81613227565b60008284528282602086013780602084860101526020601f19601f85011685010190509392505050565b600081518084526128d6816020860160208601613103565b601f01601f19169290920160200192915050565b80516001600160a01b031682526020808201516001600160801b03908116918401919091526040808301519091169083015260609081015160ff16910152565b8035612935816131da565b6001600160a01b03168252602081013561294e816131fd565b6001600160701b0381166020840152505050565b80516001600160a01b031682526020908101516001600160701b0316910152565b60008251612995818460208701613103565b9190910192915050565b6001600160a01b0391909116815260200190565b6001600160a01b0392831681529116602082015260400190565b6001600160a01b039384168152919092166020820152604081019190915260600190565b6001600160a01b03929092168252602082015260400190565b901515815260200190565b600083151582526040602083015261228260408301846128be565b90815260200190565b600060208252610a9a60208301846128be565b600060608252612a5f60608301866128be565b6001600160a01b039490941660208301525060400152919050565b600060408252612a8d60408301856128be565b8281036020840152612a9f81856128be565b95945050505050565b600060408252612abb60408301856128be565b90508260208301529392505050565b6020808252602b908201527f417474656d7074696e6720746f2072652d656e7465722066756e6374696f6e2060408201526a7265637572736976656c7960a81b606082015260800190565b6020808252601b908201527f536166654d6174683a206164646974696f6e206f766572666c6f770000000000604082015260600190565b6020808252601e908201527f536166654d6174683a207375627472616374696f6e206f766572666c6f770000604082015260600190565b60208082526026908201527f416464726573733a20696e73756666696369656e742062616c616e636520666f6040820152651c8818d85b1b60d21b606082015260800190565b6020808252601a908201527f536166654d6174683a206469766973696f6e206279207a65726f000000000000604082015260600190565b6020808252602e908201527f6661696c656420747261646520616374696f6e20646964206e6f74207265667560408201526d6e6420696e7075742066756e647360901b606082015260800190565b60208082526025908201527f496e73756666696369656e742062616c616e636520746f206d616b65207472616040820152643739b332b960d91b606082015260800190565b6020808252601a908201527f5573656420746f6f206d616e7920696e70757420746f6b656e73000000000000604082015260600190565b60208082526021908201527f536166654d6174683a206d756c7469706c69636174696f6e206f766572666c6f6040820152607760f81b606082015260800190565b6020808252602b908201527f496e73756666696369656e74207370656e6420616c6c6f77616e6365206f6e2060408201526a34b7383aba103a37b5b2b760a91b606082015260800190565b60208082526029908201527f496e73756666696369656e7420696e70757420746f6b656e2062616c616e636560408201526820746f20747261646560b81b606082015260800190565b60208082526029908201527f43616e206f6e6c792062652063616c6c656420627920736574746c656d656e746040820152680818dbdb9d1c9858dd60ba1b606082015260800190565b6020808252600990820152684e6f742072656c617960b81b604082015260600190565b60208082526035908201527f547261646520616374696f6e20646964206e6f74207472616e73666572206f756040820152743a383aba103a37b5b2b739903a37903a3930b232b960591b606082015260800190565b6020808252601d908201527f416464726573733a2063616c6c20746f206e6f6e2d636f6e7472616374000000604082015260600190565b602080825260139082015272105b1c9958591e481a5b9a5d1a585b1a5e9959606a1b604082015260600190565b6020808252602a908201527f5361666545524332303a204552433230206f7065726174696f6e20646964206e6040820152691bdd081cdd58d8d9595960b21b606082015260800190565b6020808252600990820152682737ba1030b236b4b760b91b604082015260600190565b92835260208301919091526001600160a01b0316604082015260600190565b60808101610a9d82846128ea565b82815260a0810161228560208301846128ea565b60006101408535612f82816131da565b6001600160a01b039081168452602087013590612f9e826131da565b80821660208601525050604086013560408401526060860135606084015260808601356080840152612fd660a0840160a0880161292a565b612fe660e0840160e0880161292a565b80610120840152612ffa8184018587612894565b9695505050505050565b600061016060018060a01b0380885116845280602089015116602085015260408801516040850152606088015160608501526080880151608085015260a088015161305260a0860182612962565b5060c088015161306560e0860182612962565b50861661012084015261014083018190526123428184018587612894565b6001600160701b0395909516855260208501939093526001600160a01b039190911660408401526060830152608082015260a00190565b6001600160801b0391909116815260200190565b60ff91909116815260200190565b60405181810167ffffffffffffffff811182821017156130fb57600080fd5b604052919050565b60005b8381101561311e578181015183820152602001613106565b838111156120705750506000910152565b60e01c90565b600060443d101561314557610867565b600481823e6308c379a0613159825161312f565b1461316357610867565b6040513d600319016004823e80513d67ffffffffffffffff81602484011181841117156131935750505050610867565b828401925082519150808211156131ad5750505050610867565b503d830160208284010111156131c557505050610867565b601f01601f1916810160200160405291505090565b6001600160a01b0381168114611ac857600080fd5b8015158114611ac857600080fd5b6001600160701b0381168114611ac857600080fd5b6001600160801b0381168114611ac857600080fd5b60ff81168114611ac857600080fdfe5472616e7366657272696e67207061727469616c20696e70757420746f6b656e20746f206465767465616d20666f72206661696c757265206761732066656573077a1d526a4ce8a773632ab13b4fbbf1fcc954c3dab26cd27ea0e2a6750da5d75472616e7366657272696e6720666565732066726f6d20696e70757420746f6b656e20746f206465765465616d43616e6e6f74207265696d62757273652072656c61792073696e636520646f206e6f74206861766520656e6f7567682066756e647353656e64696e6720666565732066726f6d206f757470757420746f6b656e20746f207465616da49807205ce4d355092ef5a8a18f56e8913cf4a201fbe287825b095693c2177546656520746f6b656e206973206f75747075743b207468657265666f72652063616e6e6f74207265696d6275727365207465616d20666f72206661696c757265206761732066656573a2646970667358221220851ebc8dda7ae308138a930e0ec7e4c57abe8688ac61c30c576072c1a5d5056664736f6c63430007000033",
  "deployedBytecode": "0x6080604052600436106101395760003560e01c806377550610116100ab578063c13da0181161006f578063c13da01814610393578063c3f909d4146103b3578063d547741f146103d5578063e63ab1e9146103f5578063e959b38a1461040a578063f102669b1461042a57610181565b806377550610146102e15780638d3403fd146102f6578063904cd9f51461031657806391d1485414610344578063b1cf4b0c1461037157610181565b80633f51e182116100fd5780633f51e1821461022857806340ee75bb146102485780634e1c6829146102685780635cf34bcf146102885780636a9447b5146102aa57806375b238fc146102cc57610181565b8063044218231461018657806327054df6146101b15780632e1a7d4d146101c6578063334c3c65146101e85780633d191fa81461020857610181565b3661018157336001600160a01b03167f4103257eaac983ca79a70d28f90dfc4fa16b619bb0c17ee7cab0d4034c279624346040516101779190612a30565b60405180910390a2005b600080fd5b34801561019257600080fd5b5061019b61044a565b6040516101a89190612a30565b60405180910390f35b3480156101bd57600080fd5b5061019b61045c565b3480156101d257600080fd5b506101e66101e136600461282c565b610480565b005b3480156101f457600080fd5b506101e6610203366004612694565b61056b565b34801561021457600080fd5b506101e66102233660046127df565b610614565b34801561023457600080fd5b506101e6610243366004612694565b610707565b34801561025457600080fd5b506101e661026336600461255e565b61078d565b34801561027457600080fd5b506101e6610283366004612810565b6107ed565b34801561029457600080fd5b5061029d61084d565b6040516101a891906130ba565b3480156102b657600080fd5b506102bf61086a565b6040516101a8919061299f565b3480156102d857600080fd5b5061019b610883565b3480156102ed57600080fd5b5061029d610895565b34801561030257600080fd5b506101e661031136600461285c565b6108b8565b34801561032257600080fd5b50610336610331366004612758565b61090f565b6040516101a8929190612a15565b34801561035057600080fd5b5061036461035f366004612670565b610a06565b6040516101a89190612a0a565b34801561037d57600080fd5b50610386610aa3565b6040516101a891906130ce565b34801561039f57600080fd5b506101e66103ae36600461257a565b610ab9565b3480156103bf57600080fd5b506103c8610b23565b6040516101a89190612f50565b3480156103e157600080fd5b506101e66103f0366004612670565b610bbe565b34801561040157600080fd5b5061019b610c08565b34801561041657600080fd5b506101e6610425366004612670565b610c2c565b34801561043657600080fd5b506101e6610445366004612810565b610c6c565b60008051602061327783398151915281565b7fd95061bdf0c43d77b6cbe1c15072292976244ec8d5012de75baa36e42da4625e81565b61049a60008051602061331f83398151915261035f610cd8565b6104bf5760405162461bcd60e51b81526004016104b690612f0e565b60405180910390fd5b478111156104df5760405162461bcd60e51b81526004016104b690612c4e565b6104e7610cd8565b6001600160a01b03166108fc829081150290604051600060405180830381858888f1935050505015801561051f573d6000803e3d6000fd5b50610528610cd8565b6001600160a01b03167faa21a47bc8f0df1a253be34a945b1d0a8f458e4da029c0ab59c1fee1e488c066826040516105609190612a30565b60405180910390a250565b61058560008051602061331f83398151915261035f610cd8565b6105a15760405162461bcd60e51b81526004016104b690612f0e565b6105a9610cdc565b6040516321cab0c760e01b815273__$015d7794271f690550e5fe4793e4b79169$__916321cab0c7916105e191908590600401612f5e565b60006040518083038186803b1580156105f957600080fd5b505af415801561060d573d6000803e3d6000fd5b5050505050565b61062e60008051602061327783398151915261035f610cd8565b61064a5760405162461bcd60e51b81526004016104b690612de8565b610652610d00565b5460ff16156106735760405162461bcd60e51b81526004016104b690612aca565b600161067d610d00565b805460ff191691151591909117905560005a905061069961238c565b6106a286610d24565b90506106ac6123b4565b6106b587610ea8565b9050600060606106c783898989611060565b915091506106d68985846111aa565b6106e38983838789611461565b505050505060006106f2610d00565b805460ff191691151591909117905550505050565b6000610711611a2c565b8054909150610100900460ff168061072b5750805460ff16155b6107475760405162461bcd60e51b81526004016104b690612e97565b8054610100900460ff1615801561076f57815460ff1961ff0019909116610100171660011782555b61077883611a50565b801561078857815461ff00191682555b505050565b6107a760008051602061331f83398151915261035f610cd8565b6107c35760405162461bcd60e51b81526004016104b690612f0e565b806107cc610cdc565b80546001600160a01b0319166001600160a01b039290921691909117905550565b61080760008051602061331f83398151915261035f610cd8565b6108235760405162461bcd60e51b81526004016104b690612f0e565b8061082c610cdc565b60010180546001600160801b03928316600160801b02921691909117905550565b6000610857610cdc565b600101546001600160801b031690505b90565b6000610874610cdc565b546001600160a01b0316905090565b60008051602061331f83398151915281565b600061089f610cdc565b60010154600160801b90046001600160801b0316919050565b6108d260008051602061331f83398151915261035f610cd8565b6108ee5760405162461bcd60e51b81526004016104b690612f0e565b806108f7610cdc565b600201805460ff191660ff9290921691909117905550565b600060603330146109325760405162461bcd60e51b81526004016104b690612d9f565b61094a610944368890038801886127c3565b86611acb565b60006060866001600160a01b03166334c579208988886040518463ffffffff1660e01b815260040161097e93929190612f72565b600060405180830381600087803b15801561099857600080fd5b505af11580156109ac573d6000803e3d6000fd5b505050506040513d6000823e601f3d908101601f191682016040526109d491908101906125ce565b91509150816109f7578060405162461bcd60e51b81526004016104b69190612a39565b90925090505b94509492505050565b6000610a10610d00565b604051630f40931b60e41b815273__$712f9bd20561de4f0bfbc1442284f16fb4$__9163f40931b091610a4a919087908790600401612f31565b60206040518083038186803b158015610a6257600080fd5b505af4158015610a76573d6000803e3d6000fd5b505050506040513d601f19601f82011682018060405250810190610a9a91906125b2565b90505b92915050565b6000610aad610cdc565b6002015460ff16905090565b610ad360008051602061331f83398151915261035f610cd8565b610aef5760405162461bcd60e51b81526004016104b690612f0e565b610b0760008051602061327783398151915283610bbe565b610b1f60008051602061327783398151915282610c2c565b5050565b610b2b61240e565b610b33610cdc565b604051636d73f0db60e01b815273__$015d7794271f690550e5fe4793e4b79169$__91636d73f0db91610b699190600401612a30565b60806040518083038186803b158015610b8157600080fd5b505af4158015610b95573d6000803e3d6000fd5b505050506040513d601f19601f82011682018060405250810190610bb991906126fc565b905090565b610bd860008051602061331f83398151915261035f610cd8565b610bf45760405162461bcd60e51b81526004016104b690612f0e565b610b1f8282610c01610d00565b9190611b42565b7f65d7a28e3265b37a6474929f336521b332c1681b933f6cb9f3376673440d862a81565b610c4660008051602061331f83398151915261035f610cd8565b610c625760405162461bcd60e51b81526004016104b690612f0e565b610b1f8282611b71565b610c8660008051602061331f83398151915261035f610cd8565b610ca25760405162461bcd60e51b81526004016104b690612f0e565b80610cab610cdc565b60010180546fffffffffffffffffffffffffffffffff19166001600160801b039290921691909117905550565b3390565b7ff5b4be0a744c821d14f78bf26d55a308f420d78cebbfac103f2618fba32917b990565b7f3a83b1278d351a40f18bb9e8e77896e8c1dc812ffaed5ea63e0e837a6dae57e990565b610d2c61238c565b610d3582611b85565b610d515760405162461bcd60e51b81526004016104b690612d56565b610d5a82611c28565b610d765760405162461bcd60e51b81526004016104b690612d0b565b60408051608081019182905260a08401515184516370a0823160e01b909352909182916001600160a01b0316906370a0823190610db6906084850161299f565b60206040518083038186803b158015610dce57600080fd5b505afa158015610de2573d6000803e3d6000fd5b505050506040513d601f19601f82011682018060405250810190610e069190612844565b81526020018360c00151600001516001600160a01b03166370a08231306040518263ffffffff1660e01b8152600401610e3f919061299f565b60206040518083038186803b158015610e5757600080fd5b505afa158015610e6b573d6000803e3d6000fd5b505050506040513d601f19601f82011682018060405250810190610e8f9190612844565b815260200160008152602001600081525090505b919050565b610eb06123b4565b8160a00151600001516001600160a01b031682602001516001600160a01b0316141561105c57610f146040518060400160405280601c81526020017f54616b696e67206665652066726f6d206f757470757420746f6b656e00000000815250611c74565b60008080610f26858660800151611cb7565b9092509050610f50610f388383611f07565b60a0870151602001516001600160701b031690611f2c565b9250610f956040518060400160405280601081526020016f13db19081a5b9c1d5d08185b5bdd5b9d60821b8152508660a00151602001516001600160701b0316611f54565b610fc76040518060400160405280601081526020016f13995dc81a5b9c1d5d08185b5bdd5b9d60821b81525084611f54565b50506040518060e0016040528084600001516001600160a01b0316815260200184602001516001600160a01b0316815260200184604001518152602001846060015181526020018460800151815260200160405180604001604052808660a00151600001516001600160a01b03168152602001846001600160701b031681525081526020018460c00151815250915050610ea3565b5090565b600060603063904cd9f5611077619c405a90611f2c565b888888886040518663ffffffff1660e01b815260040161109a9493929190613004565b600060405180830381600088803b1580156110b457600080fd5b5087f1935050505080156110ea57506040513d6000823e601f3d908101601f191682016040526110e791908101906125ce565b60015b61116f576110f6613135565b80611101575061113a565b600092508091506111346040518060400160405280600a8152602001692330b4b62932b0b9b7b760b11b81525082611f99565b5061116a565b50506040805180820190915260138152722ab735b737bbb7103330b4b6103932b0b9b7b760691b60208201526000905b6109fd565b816111a0576111a06040518060400160405280600a8152602001692330b4b62932b0b9b7b760b11b81525082611f99565b90925090506109fd565b60a08301515183516040516370a0823160e01b81526001600160a01b03909216916370a08231916111dd9160040161299f565b60206040518083038186803b1580156111f557600080fd5b505afa158015611209573d6000803e3d6000fd5b505050506040513d601f19601f8201168201806040525081019061122d9190612844565b6040830152806112c7576112696040518060400160405280600c81526020016b125b9c1d5d0818985b08188d60a21b8152508360000151611f54565b61129e6040518060400160405280600f81526020016e24b7383aba103130b61030b33a32b960891b8152508360400151611f54565b81516040830151146112c25760405162461bcd60e51b81526004016104b690612c00565b610788565b60c0830151516040516370a0823160e01b81526001600160a01b03909116906370a08231906112fa90309060040161299f565b60206040518083038186803b15801561131257600080fd5b505afa158015611326573d6000803e3d6000fd5b505050506040513d601f19601f8201168201806040525081019061134a9190612844565b60608301526040805180820190915260208082527f4f757470757420746f6b656e2062616c616e6365206265666f72652073776170818301528301516113909190611f54565b6113d36040518060400160405280601981526020017f4f75747075742062616c616e63652061667465722073776170000000000000008152508360600151611f54565b8260c00151602001516001600160701b031661140083602001518460600151611f2c90919063ffffffff16565b101561141e5760405162461bcd60e51b81526004016104b690612e0b565b60a083015160200151604083015183516001600160701b039092169161144391611f2c565b11156107885760405162461bcd60e51b81526004016104b690612c93565b600061147a61c3506114745a8590611f2c565b90611f07565b90506114ac6040518060400160405280600e81526020016d151bdd185b0819d85cc81d5cd95960921b81525082611f54565b60006114b8823a611fde565b90506114e3604051806040016040528060078152602001664761732066656560c81b81525082611f54565b6000806114f08985611cb7565b915091508247101561156a5761151d6040518060600160405280603581526020016132c460359139611c74565b611525610cd8565b6001600160a01b03167f4c0d6a438f19dfe41befe161c0bfdfca9f674028133bbaf37749b2d12f8f0dda8460405161155d9190612a30565b60405180910390a2611632565b6115a86040518060400160405280601c81526020017f5472616e73666572696e67206761732066656520746f2072656c617900000000815250611c74565b6115b0610cd8565b6001600160a01b03166108fc849081150290604051600060405180830381858888f193505050501580156115e8573d6000803e3d6000fd5b506115f1610cd8565b6001600160a01b03167f91d09af90b128f3fb2907042440a531bca49791232cd8f59e1c629d96247d057846040516116299190612a30565b60405180910390a25b6000886117ce5782905061166c6040518060400160405280600e81526020016d4661696c6564206761732066656560901b81525082611f54565b8960a00151600001516001600160a01b03168a602001516001600160a01b0316141561172d576116b360405180606001604052806040815260200161323760409139611c74565b89516116db906116c1610cdc565b5460208d01516001600160a01b0390811692911684612018565b89600001516001600160a01b03167f9f52afa9b861b0c4b200f58dace31f1f5776b94207a3047c075d6a087e25de5e898c602001518460405161172093929190612a4c565b60405180910390a261179d565b61174e60405180608001604052806049815260200161333f60499139611c74565b89600001516001600160a01b03167f9f52afa9b861b0c4b200f58dace31f1f5776b94207a3047c075d6a087e25de5e898c60200151600060405161179493929190612a4c565b60405180910390a25b6117c96040518060400160405280600b81526020016a14ddd85c0819985a5b195960aa1b815250611c74565b611a20565b6117d88383611f07565b905060006117f788602001518960600151611f2c90919063ffffffff16565b905061182e6040518060400160405280601381526020017211dc9bdcdcc81bdd5d1c1d5d08185b5bdd5b9d606a1b81525082611f54565b60008b60a00151600001516001600160a01b03168c602001516001600160a01b031614156118a85781905061187b6040518060600160405280602d8152602001613297602d913984611f54565b8b516118a390611889610cdc565b5460208f01516001600160a01b0390811692911686612018565b611939565b6118e76040518060400160405280601781526020017f5265647563696e67206f7574707574206279206665657300000000000000000081525084611f54565b6118f18284611f2c565b90506119156040518060600160405280602681526020016132f96026913984611f54565b611939611920610cdc565b5460208e01516001600160a01b03908116911685612076565b6119786040518060400160405280601e81526020017f53656e64696e6720746f74616c206f757470757420746f20747261646572000081525082611f54565b8b5160c08d015151611996916001600160a01b039091169083612076565b8b600001516001600160a01b03167f3491be8ca1b3f4f9e7e74b9955a4600c2613ce85d639eaa123d5b733f59e93be8d60a0015160200151838f6020015189896040516119e7959493929190613083565b60405180910390a2611a1d6040518060400160405280600d81526020016c046696e6973686564207377617609c1b815250611c74565b50505b50505050505050505050565b7fd59dd79cfd4373c6c6547848d91fc2ea67c8aec9053f7028828216c5af1d474190565b611a58610cdc565b6040516321cab0c760e01b815273__$015d7794271f690550e5fe4793e4b79169$__916321cab0c791611a9091908590600401612f5e565b60006040518083038186803b158015611aa857600080fd5b505af4158015611abc573d6000803e3d6000fd5b50505050611ac8612095565b50565b611b14604051806040016040528060168152602001752a3930b739b332b934b733903a37903937baba32b91d60511b8152508360a00151602001516001600160701b0316611f54565b815160a083015160208101519051610b1f926001600160a01b039091169184906001600160701b0316612018565b60009182526001909201602090815260408083206001600160a01b03909416835292905220805460ff19169055565b610b1f8282611b7e610d00565b919061215e565b60a08101516020810151905182516040516370a0823160e01b815260009384936001600160701b03909116926001600160a01b03909116916370a0823191611bcf9160040161299f565b60206040518083038186803b158015611be757600080fd5b505afa158015611bfb573d6000803e3d6000fd5b505050506040513d601f19601f82011682018060405250810190611c1f9190612844565b10159392505050565b60a0810151602081015190518251604051636eb1769f60e11b815260009384936001600160701b03909116926001600160a01b039091169163dd62ed3e91611bcf9130906004016129b3565b611ac881604051602401611c889190612a39565b60408051601f198184030181529190526020810180516001600160e01b031663104c13eb60e21b179052612191565b600080611cf86040518060400160405280601981526020017f2d2d2d2d20436f6d707574696e672046656573202d2d2d2d2d00000000000000815250611c74565b604080518082019091526012815271115cdd1a5b585d19590819d85cc818dbdcdd60721b60208201523a840290611d2f9082611f54565b600085602001516001600160a01b031663313ce5676040518163ffffffff1660e01b815260040160206040518083038186803b158015611d6e57600080fd5b505afa158015611d82573d6000803e3d6000fd5b505050506040513d601f19601f82011682018060405250810190611da69190612878565b60ff169050611dcf8660400151611dc983600a0a85611fde90919063ffffffff16565b906121b2565b9350611e106040518060400160405280601881526020017f47617320706f7274696f6e20696e2066656520746f6b656e000000000000000081525085611f54565b6000611e2d87604001518860600151611fde90919063ffffffff16565b9050611e6760405180604001604052806016815260200175119959481d1bdad95b881c1c9a58d9481a5b881554d160521b81525082611f54565b611e9081611dc984602401600a0a611e7d610cdc565b600101546001600160801b031690611fde565b9350611ebf6040518060400160405280600b81526020016a44657869626c652066656560a81b81525085611f54565b611efd6040518060400160405280601a81526020017f2d2d2d2d20456e6420636f6d707574652066656573202d2d2d2d000000000000815250611c74565b5050509250929050565b600082820183811015610a9a5760405162461bcd60e51b81526004016104b690612b15565b600082821115611f4e5760405162461bcd60e51b81526004016104b690612b4c565b50900390565b610b1f8282604051602401611f6a929190612aa8565b60408051601f198184030181529190526020810180516001600160e01b03166309710a9d60e41b179052612191565b610b1f8282604051602401611faf929190612a7a565b60408051601f198184030181529190526020810180516001600160e01b0316634b5c427760e01b179052612191565b600082611fed57506000610a9d565b82820282848281611ffa57fe5b0414610a9a5760405162461bcd60e51b81526004016104b690612cca565b612070846323b872dd60e01b858585604051602401612039939291906129cd565b60408051601f198184030181529190526020810180516001600160e01b03166001600160e01b0319909316929092179091526121e4565b50505050565b6107888363a9059cbb60e01b84846040516024016120399291906129f1565b600061209f611a2c565b8054909150610100900460ff16806120b95750805460ff16155b6120d55760405162461bcd60e51b81526004016104b690612e97565b8054610100900460ff161580156120fd57815460ff1961ff0019909116610100171660011782555b6000612107610cd8565b905061212160008051602061331f83398151915282611b71565b61214b7f65d7a28e3265b37a6474929f336521b332c1681b933f6cb9f3376673440d862a82611b71565b508015610b1f5750805461ff0019169055565b60009182526001928301602090815260408084206001600160a01b0390931684529190529020805460ff19169091179055565b80516a636f6e736f6c652e6c6f67602083016000808483855afa5050505050565b60008082116121d35760405162461bcd60e51b81526004016104b690612bc9565b8183816121dc57fe5b049392505050565b6060612239826040518060400160405280602081526020017f5361666545524332303a206c6f772d6c6576656c2063616c6c206661696c6564815250856001600160a01b03166122739092919063ffffffff16565b805190915015610788578080602001905181019061225791906125b2565b6107885760405162461bcd60e51b81526004016104b690612ec4565b6060612282848460008561228c565b90505b9392505050565b6060824710156122ae5760405162461bcd60e51b81526004016104b690612b83565b6122b78561234d565b6122d35760405162461bcd60e51b81526004016104b690612e60565b60006060866001600160a01b031685876040516122f09190612983565b60006040518083038185875af1925050503d806000811461232d576040519150601f19603f3d011682016040523d82523d6000602084013e612332565b606091505b5091509150612342828286612353565b979650505050505050565b3b151590565b60608315612362575081612285565b8251156123725782518084602001fd5b8160405162461bcd60e51b81526004016104b69190612a39565b6040518060800160405280600081526020016000815260200160008152602001600081525090565b6040518060e0016040528060006001600160a01b0316815260200160006001600160a01b031681526020016000815260200160008152602001600081526020016123fc612435565b8152602001612409612435565b905290565b60408051608081018252600080825260208201819052918101829052606081019190915290565b604080518082019091526000808252602082015290565b60008083601f84011261245d578182fd5b50813567ffffffffffffffff811115612474578182fd5b60208301915083602082850101111561248c57600080fd5b9250929050565b600061012082840312156124a5578081fd5b6124af60e06130dc565b905081356124bc816131da565b815260208201356124cc816131da565b806020830152506040820135604082015260608201356060820152608082013560808201526124fe8360a0840161251b565b60a08201526125108360e0840161251b565b60c082015292915050565b60006040828403121561252c578081fd5b61253660406130dc565b90508135612543816131da565b81526020820135612553816131fd565b602082015292915050565b60006020828403121561256f578081fd5b8135610a9a816131da565b6000806040838503121561258c578081fd5b8235612597816131da565b915060208301356125a7816131da565b809150509250929050565b6000602082840312156125c3578081fd5b8151610a9a816131ef565b600080604083850312156125e0578182fd5b82516125eb816131ef565b602084015190925067ffffffffffffffff80821115612608578283fd5b818501915085601f83011261261b578283fd5b815181811115612629578384fd5b61263c601f8201601f19166020016130dc565b9150808252866020828501011115612652578384fd5b612663816020840160208601613103565b5080925050509250929050565b60008060408385031215612682578182fd5b8235915060208301356125a7816131da565b6000608082840312156126a5578081fd5b6126af60806130dc565b82356126ba816131da565b815260208301356126ca81613212565b602082015260408301356126dd81613212565b604082015260608301356126f081613227565b60608201529392505050565b60006080828403121561270d578081fd5b61271760806130dc565b8251612722816131da565b8152602083015161273281613212565b6020820152604083015161274581613212565b604082015260608301516126f081613227565b60008060008084860361016081121561276f578283fd5b6101208082121561277e578384fd5b869550850135905061278f816131da565b925061014085013567ffffffffffffffff8111156127ab578283fd5b6127b78782880161244c565b95989497509550505050565b600061012082840312156127d5578081fd5b610a9a8383612493565b60008060008061016085870312156127f5578182fd5b6127ff8686612493565b935061012085013561278f816131da565b600060208284031215612821578081fd5b8135610a9a81613212565b60006020828403121561283d578081fd5b5035919050565b600060208284031215612855578081fd5b5051919050565b60006020828403121561286d578081fd5b8135610a9a81613227565b600060208284031215612889578081fd5b8151610a9a81613227565b60008284528282602086013780602084860101526020601f19601f85011685010190509392505050565b600081518084526128d6816020860160208601613103565b601f01601f19169290920160200192915050565b80516001600160a01b031682526020808201516001600160801b03908116918401919091526040808301519091169083015260609081015160ff16910152565b8035612935816131da565b6001600160a01b03168252602081013561294e816131fd565b6001600160701b0381166020840152505050565b80516001600160a01b031682526020908101516001600160701b0316910152565b60008251612995818460208701613103565b9190910192915050565b6001600160a01b0391909116815260200190565b6001600160a01b0392831681529116602082015260400190565b6001600160a01b039384168152919092166020820152604081019190915260600190565b6001600160a01b03929092168252602082015260400190565b901515815260200190565b600083151582526040602083015261228260408301846128be565b90815260200190565b600060208252610a9a60208301846128be565b600060608252612a5f60608301866128be565b6001600160a01b039490941660208301525060400152919050565b600060408252612a8d60408301856128be565b8281036020840152612a9f81856128be565b95945050505050565b600060408252612abb60408301856128be565b90508260208301529392505050565b6020808252602b908201527f417474656d7074696e6720746f2072652d656e7465722066756e6374696f6e2060408201526a7265637572736976656c7960a81b606082015260800190565b6020808252601b908201527f536166654d6174683a206164646974696f6e206f766572666c6f770000000000604082015260600190565b6020808252601e908201527f536166654d6174683a207375627472616374696f6e206f766572666c6f770000604082015260600190565b60208082526026908201527f416464726573733a20696e73756666696369656e742062616c616e636520666f6040820152651c8818d85b1b60d21b606082015260800190565b6020808252601a908201527f536166654d6174683a206469766973696f6e206279207a65726f000000000000604082015260600190565b6020808252602e908201527f6661696c656420747261646520616374696f6e20646964206e6f74207265667560408201526d6e6420696e7075742066756e647360901b606082015260800190565b60208082526025908201527f496e73756666696369656e742062616c616e636520746f206d616b65207472616040820152643739b332b960d91b606082015260800190565b6020808252601a908201527f5573656420746f6f206d616e7920696e70757420746f6b656e73000000000000604082015260600190565b60208082526021908201527f536166654d6174683a206d756c7469706c69636174696f6e206f766572666c6f6040820152607760f81b606082015260800190565b6020808252602b908201527f496e73756666696369656e74207370656e6420616c6c6f77616e6365206f6e2060408201526a34b7383aba103a37b5b2b760a91b606082015260800190565b60208082526029908201527f496e73756666696369656e7420696e70757420746f6b656e2062616c616e636560408201526820746f20747261646560b81b606082015260800190565b60208082526029908201527f43616e206f6e6c792062652063616c6c656420627920736574746c656d656e746040820152680818dbdb9d1c9858dd60ba1b606082015260800190565b6020808252600990820152684e6f742072656c617960b81b604082015260600190565b60208082526035908201527f547261646520616374696f6e20646964206e6f74207472616e73666572206f756040820152743a383aba103a37b5b2b739903a37903a3930b232b960591b606082015260800190565b6020808252601d908201527f416464726573733a2063616c6c20746f206e6f6e2d636f6e7472616374000000604082015260600190565b602080825260139082015272105b1c9958591e481a5b9a5d1a585b1a5e9959606a1b604082015260600190565b6020808252602a908201527f5361666545524332303a204552433230206f7065726174696f6e20646964206e6040820152691bdd081cdd58d8d9595960b21b606082015260800190565b6020808252600990820152682737ba1030b236b4b760b91b604082015260600190565b92835260208301919091526001600160a01b0316604082015260600190565b60808101610a9d82846128ea565b82815260a0810161228560208301846128ea565b60006101408535612f82816131da565b6001600160a01b039081168452602087013590612f9e826131da565b80821660208601525050604086013560408401526060860135606084015260808601356080840152612fd660a0840160a0880161292a565b612fe660e0840160e0880161292a565b80610120840152612ffa8184018587612894565b9695505050505050565b600061016060018060a01b0380885116845280602089015116602085015260408801516040850152606088015160608501526080880151608085015260a088015161305260a0860182612962565b5060c088015161306560e0860182612962565b50861661012084015261014083018190526123428184018587612894565b6001600160701b0395909516855260208501939093526001600160a01b039190911660408401526060830152608082015260a00190565b6001600160801b0391909116815260200190565b60ff91909116815260200190565b60405181810167ffffffffffffffff811182821017156130fb57600080fd5b604052919050565b60005b8381101561311e578181015183820152602001613106565b838111156120705750506000910152565b60e01c90565b600060443d101561314557610867565b600481823e6308c379a0613159825161312f565b1461316357610867565b6040513d600319016004823e80513d67ffffffffffffffff81602484011181841117156131935750505050610867565b828401925082519150808211156131ad5750505050610867565b503d830160208284010111156131c557505050610867565b601f01601f1916810160200160405291505090565b6001600160a01b0381168114611ac857600080fd5b8015158114611ac857600080fd5b6001600160701b0381168114611ac857600080fd5b6001600160801b0381168114611ac857600080fd5b60ff81168114611ac857600080fdfe5472616e7366657272696e67207061727469616c20696e70757420746f6b656e20746f206465767465616d20666f72206661696c757265206761732066656573077a1d526a4ce8a773632ab13b4fbbf1fcc954c3dab26cd27ea0e2a6750da5d75472616e7366657272696e6720666565732066726f6d20696e70757420746f6b656e20746f206465765465616d43616e6e6f74207265696d62757273652072656c61792073696e636520646f206e6f74206861766520656e6f7567682066756e647353656e64696e6720666565732066726f6d206f757470757420746f6b656e20746f207465616da49807205ce4d355092ef5a8a18f56e8913cf4a201fbe287825b095693c2177546656520746f6b656e206973206f75747075743b207468657265666f72652063616e6e6f74207265696d6275727365207465616d20666f72206661696c757265206761732066656573a2646970667358221220851ebc8dda7ae308138a930e0ec7e4c57abe8688ac61c30c576072c1a5d5056664736f6c63430007000033",
  "devdoc": {
    "kind": "dev",
    "methods": {},
    "version": 1
  },
  "userdoc": {
    "kind": "user",
    "methods": {
      "fill((address,address,uint256,uint256,uint256,(address,uint112),(address,uint112)),address,bytes)": {
        "notice": "Fill an order using the given router and forwarded call data."
      },
      "getConfig()": {
        "notice": "Get the current configuration struct"
      },
      "getDevTeam()": {
        "notice": "Get the dev team wallet/multi-sig address"
      },
      "getLockoutBlocks()": {
        "notice": "Get the number of blocks to wait before trader can withdraw gas tank funds  marked for withdraw."
      },
      "getMinFee()": {
        "notice": "Get the minimum fee required for all orders"
      },
      "getPenaltyFee()": {
        "notice": "Get the penalty fee to asses when trader removes tokens or funds after Dexible submits orders on-chain."
      },
      "setConfig((address,uint128,uint128,uint8))": {
        "notice": "Set the current configuration as a bulk setting"
      },
      "setDevTeam(address)": {
        "notice": "Set the dev team wallet/multi-sig address"
      },
      "setLockoutBlocks(uint8)": {
        "notice": "Set the number of blocks to wait before thawed withdraws are allowed"
      },
      "setMinFee(uint128)": {
        "notice": "Set the minimum fee for an order execution"
      },
      "setPenaltyFee(uint128)": {
        "notice": "Set the penalty assessed when a user removes tokens or gas tank funds"
      },
      "withdraw(uint256)": {
        "notice": "Team's ability to withdraw ETH balance from the contract."
      }
    },
    "version": 1
  },
  "storageLayout": {
    "storage": [],
    "types": null
  }
}