{
  "address": "0x1Dc7e379438A343DB6fA9edEdf11B3166f47D32d",
  "abi": [
    {
      "anonymous": false,
      "inputs": [
        {
          "indexed": true,
          "internalType": "address",
          "name": "affiliate",
          "type": "address"
        },
        {
          "indexed": false,
          "internalType": "contract IERC20",
          "name": "token",
          "type": "address"
        },
        {
          "indexed": false,
          "internalType": "uint256",
          "name": "amount",
          "type": "uint256"
        }
      ],
      "name": "AffiliatePaid",
      "type": "event"
    },
    {
      "anonymous": false,
      "inputs": [
        {
          "indexed": true,
          "internalType": "address",
          "name": "relay",
          "type": "address"
        },
        {
          "indexed": false,
          "internalType": "uint256",
          "name": "amount",
          "type": "uint256"
        }
      ],
      "name": "InsufficientGasFunds",
      "type": "event"
    },
    {
      "anonymous": false,
      "inputs": [
        {
          "indexed": true,
          "internalType": "address",
          "name": "relay",
          "type": "address"
        },
        {
          "indexed": false,
          "internalType": "uint256",
          "name": "amount",
          "type": "uint256"
        }
      ],
      "name": "PaidGasFunds",
      "type": "event"
    },
    {
      "anonymous": false,
      "inputs": [
        {
          "indexed": true,
          "internalType": "address",
          "name": "sender",
          "type": "address"
        },
        {
          "indexed": false,
          "internalType": "uint256",
          "name": "amount",
          "type": "uint256"
        }
      ],
      "name": "ReceivedETH",
      "type": "event"
    },
    {
      "anonymous": false,
      "inputs": [
        {
          "indexed": true,
          "internalType": "address",
          "name": "trader",
          "type": "address"
        },
        {
          "indexed": false,
          "internalType": "string",
          "name": "reason",
          "type": "string"
        },
        {
          "indexed": false,
          "internalType": "contract IERC20",
          "name": "feeToken",
          "type": "address"
        },
        {
          "indexed": false,
          "internalType": "uint256",
          "name": "gasFeePaid",
          "type": "uint256"
        }
      ],
      "name": "SwapFailed",
      "type": "event"
    },
    {
      "anonymous": false,
      "inputs": [
        {
          "indexed": true,
          "internalType": "address",
          "name": "trader",
          "type": "address"
        },
        {
          "indexed": false,
          "internalType": "uint256",
          "name": "inputAmount",
          "type": "uint256"
        },
        {
          "indexed": false,
          "internalType": "uint256",
          "name": "outputAmount",
          "type": "uint256"
        },
        {
          "indexed": false,
          "internalType": "contract IERC20",
          "name": "feeToken",
          "type": "address"
        },
        {
          "indexed": false,
          "internalType": "uint256",
          "name": "gasFee",
          "type": "uint256"
        },
        {
          "indexed": false,
          "internalType": "uint256",
          "name": "dexibleFee",
          "type": "uint256"
        }
      ],
      "name": "SwapSuccess",
      "type": "event"
    },
    {
      "anonymous": false,
      "inputs": [
        {
          "indexed": true,
          "internalType": "address",
          "name": "trader",
          "type": "address"
        },
        {
          "indexed": true,
          "internalType": "address",
          "name": "affiliate",
          "type": "address"
        },
        {
          "indexed": false,
          "internalType": "uint256",
          "name": "inputAmount",
          "type": "uint256"
        },
        {
          "indexed": false,
          "internalType": "uint256",
          "name": "outputAmount",
          "type": "uint256"
        },
        {
          "indexed": false,
          "internalType": "contract IERC20",
          "name": "feeToken",
          "type": "address"
        },
        {
          "indexed": false,
          "internalType": "uint256",
          "name": "gasFee",
          "type": "uint256"
        },
        {
          "indexed": false,
          "internalType": "uint256",
          "name": "affiliateFee",
          "type": "uint256"
        },
        {
          "indexed": false,
          "internalType": "uint256",
          "name": "dexibleFee",
          "type": "uint256"
        }
      ],
      "name": "SwapV3Success",
      "type": "event"
    },
    {
      "anonymous": false,
      "inputs": [
        {
          "indexed": true,
          "internalType": "address",
          "name": "trader",
          "type": "address"
        },
        {
          "indexed": false,
          "internalType": "uint256",
          "name": "penalty",
          "type": "uint256"
        },
        {
          "indexed": false,
          "internalType": "uint256",
          "name": "gasPaid",
          "type": "uint256"
        },
        {
          "indexed": false,
          "internalType": "string",
          "name": "reason",
          "type": "string"
        }
      ],
      "name": "TraderPenalized",
      "type": "event"
    },
    {
      "anonymous": false,
      "inputs": [
        {
          "indexed": true,
          "internalType": "address",
          "name": "receiver",
          "type": "address"
        },
        {
          "indexed": false,
          "internalType": "uint256",
          "name": "amount",
          "type": "uint256"
        }
      ],
      "name": "WithdrewETH",
      "type": "event"
    },
    {
      "inputs": [],
      "name": "ACTION_ROLE",
      "outputs": [
        {
          "internalType": "bytes32",
          "name": "",
          "type": "bytes32"
        }
      ],
      "stateMutability": "view",
      "type": "function"
    },
    {
      "inputs": [],
      "name": "ADMIN_ROLE",
      "outputs": [
        {
          "internalType": "bytes32",
          "name": "",
          "type": "bytes32"
        }
      ],
      "stateMutability": "view",
      "type": "function"
    },
    {
      "inputs": [],
      "name": "PAUSER_ROLE",
      "outputs": [
        {
          "internalType": "bytes32",
          "name": "",
          "type": "bytes32"
        }
      ],
      "stateMutability": "view",
      "type": "function"
    },
    {
      "inputs": [],
      "name": "RELAY_ROLE",
      "outputs": [
        {
          "internalType": "bytes32",
          "name": "",
          "type": "bytes32"
        }
      ],
      "stateMutability": "view",
      "type": "function"
    },
    {
      "inputs": [
        {
          "components": [
            {
              "internalType": "address",
              "name": "trader",
              "type": "address"
            },
            {
              "internalType": "contract IERC20",
              "name": "feeToken",
              "type": "address"
            },
            {
              "internalType": "uint256",
              "name": "feeTokenETHPrice",
              "type": "uint256"
            },
            {
              "internalType": "uint256",
              "name": "ethUSDPrice",
              "type": "uint256"
            },
            {
              "internalType": "uint256",
              "name": "gasEstimate",
              "type": "uint256"
            },
            {
              "components": [
                {
                  "internalType": "contract IERC20",
                  "name": "token",
                  "type": "address"
                },
                {
                  "internalType": "uint112",
                  "name": "amount",
                  "type": "uint112"
                }
              ],
              "internalType": "struct Types.TokenAmount",
              "name": "input",
              "type": "tuple"
            },
            {
              "components": [
                {
                  "internalType": "contract IERC20",
                  "name": "token",
                  "type": "address"
                },
                {
                  "internalType": "uint112",
                  "name": "amount",
                  "type": "uint112"
                }
              ],
              "internalType": "struct Types.TokenAmount",
              "name": "output",
              "type": "tuple"
            }
          ],
          "internalType": "struct Types.Order",
          "name": "order",
          "type": "tuple"
        },
        {
          "internalType": "contract IDexRouter",
          "name": "router",
          "type": "address"
        },
        {
          "internalType": "bytes",
          "name": "data",
          "type": "bytes"
        }
      ],
      "name": "_trySwap",
      "outputs": [
        {
          "internalType": "bool",
          "name": "success",
          "type": "bool"
        },
        {
          "internalType": "string",
          "name": "failReason",
          "type": "string"
        }
      ],
      "stateMutability": "nonpayable",
      "type": "function"
    },
    {
      "inputs": [
        {
          "components": [
            {
              "internalType": "address",
              "name": "trader",
              "type": "address"
            },
            {
              "components": [
                {
                  "internalType": "contract IERC20",
                  "name": "token",
                  "type": "address"
                },
                {
                  "internalType": "uint112",
                  "name": "amount",
                  "type": "uint112"
                }
              ],
              "internalType": "struct Types.TokenAmount",
              "name": "input",
              "type": "tuple"
            },
            {
              "components": [
                {
                  "internalType": "contract IERC20",
                  "name": "token",
                  "type": "address"
                },
                {
                  "internalType": "uint112",
                  "name": "amount",
                  "type": "uint112"
                }
              ],
              "internalType": "struct Types.TokenAmount",
              "name": "output",
              "type": "tuple"
            },
            {
              "components": [
                {
                  "internalType": "contract IERC20",
                  "name": "feeToken",
                  "type": "address"
                },
                {
                  "internalType": "address",
                  "name": "affiliate",
                  "type": "address"
                },
                {
                  "internalType": "uint256",
                  "name": "affiliatePortion",
                  "type": "uint256"
                },
                {
                  "internalType": "uint256",
                  "name": "feeTokenETHPrice",
                  "type": "uint256"
                },
                {
                  "internalType": "uint256",
                  "name": "dexibleFee",
                  "type": "uint256"
                },
                {
                  "internalType": "uint256",
                  "name": "gasFee",
                  "type": "uint256"
                }
              ],
              "internalType": "struct Types.V3Fees",
              "name": "fees",
              "type": "tuple"
            }
          ],
          "internalType": "struct Types.V3Order",
          "name": "order",
          "type": "tuple"
        },
        {
          "internalType": "contract IDexRouter",
          "name": "router",
          "type": "address"
        },
        {
          "internalType": "bytes",
          "name": "data",
          "type": "bytes"
        }
      ],
      "name": "_tryV3Swap",
      "outputs": [
        {
          "internalType": "bool",
          "name": "success",
          "type": "bool"
        },
        {
          "internalType": "uint256",
          "name": "outAmount",
          "type": "uint256"
        },
        {
          "internalType": "string",
          "name": "failReason",
          "type": "string"
        }
      ],
      "stateMutability": "nonpayable",
      "type": "function"
    },
    {
      "inputs": [
        {
          "internalType": "bytes32",
          "name": "role",
          "type": "bytes32"
        },
        {
          "internalType": "address",
          "name": "actor",
          "type": "address"
        }
      ],
      "name": "addRole",
      "outputs": [],
      "stateMutability": "nonpayable",
      "type": "function"
    },
    {
      "inputs": [
        {
          "internalType": "contract WNative",
          "name": "native",
          "type": "address"
        },
        {
          "internalType": "uint256",
          "name": "amount",
          "type": "uint256"
        }
      ],
      "name": "depositWNative",
      "outputs": [],
      "stateMutability": "nonpayable",
      "type": "function"
    },
    {
      "inputs": [
        {
          "components": [
            {
              "internalType": "address",
              "name": "trader",
              "type": "address"
            },
            {
              "internalType": "contract IERC20",
              "name": "feeToken",
              "type": "address"
            },
            {
              "internalType": "uint256",
              "name": "feeTokenETHPrice",
              "type": "uint256"
            },
            {
              "internalType": "uint256",
              "name": "ethUSDPrice",
              "type": "uint256"
            },
            {
              "internalType": "uint256",
              "name": "gasEstimate",
              "type": "uint256"
            },
            {
              "components": [
                {
                  "internalType": "contract IERC20",
                  "name": "token",
                  "type": "address"
                },
                {
                  "internalType": "uint112",
                  "name": "amount",
                  "type": "uint112"
                }
              ],
              "internalType": "struct Types.TokenAmount",
              "name": "input",
              "type": "tuple"
            },
            {
              "components": [
                {
                  "internalType": "contract IERC20",
                  "name": "token",
                  "type": "address"
                },
                {
                  "internalType": "uint112",
                  "name": "amount",
                  "type": "uint112"
                }
              ],
              "internalType": "struct Types.TokenAmount",
              "name": "output",
              "type": "tuple"
            }
          ],
          "internalType": "struct Types.Order",
          "name": "order",
          "type": "tuple"
        },
        {
          "internalType": "contract IDexRouter",
          "name": "router",
          "type": "address"
        },
        {
          "internalType": "bytes",
          "name": "data",
          "type": "bytes"
        }
      ],
      "name": "fill",
      "outputs": [],
      "stateMutability": "nonpayable",
      "type": "function"
    },
    {
      "inputs": [],
      "name": "getConfig",
      "outputs": [
        {
          "components": [
            {
              "internalType": "address",
              "name": "devTeam",
              "type": "address"
            },
            {
              "internalType": "uint128",
              "name": "minFee",
              "type": "uint128"
            },
            {
              "internalType": "uint128",
              "name": "penaltyFee",
              "type": "uint128"
            },
            {
              "internalType": "uint8",
              "name": "lockoutBlocks",
              "type": "uint8"
            }
          ],
          "internalType": "struct Types.Config",
          "name": "",
          "type": "tuple"
        }
      ],
      "stateMutability": "view",
      "type": "function"
    },
    {
      "inputs": [],
      "name": "getDevTeam",
      "outputs": [
        {
          "internalType": "address",
          "name": "",
          "type": "address"
        }
      ],
      "stateMutability": "view",
      "type": "function"
    },
    {
      "inputs": [],
      "name": "getLockoutBlocks",
      "outputs": [
        {
          "internalType": "uint8",
          "name": "",
          "type": "uint8"
        }
      ],
      "stateMutability": "view",
      "type": "function"
    },
    {
      "inputs": [],
      "name": "getMinFee",
      "outputs": [
        {
          "internalType": "uint128",
          "name": "",
          "type": "uint128"
        }
      ],
      "stateMutability": "view",
      "type": "function"
    },
    {
      "inputs": [],
      "name": "getPenaltyFee",
      "outputs": [
        {
          "internalType": "uint128",
          "name": "",
          "type": "uint128"
        }
      ],
      "stateMutability": "view",
      "type": "function"
    },
    {
      "inputs": [
        {
          "internalType": "bytes32",
          "name": "role",
          "type": "bytes32"
        },
        {
          "internalType": "address",
          "name": "actor",
          "type": "address"
        }
      ],
      "name": "hasRole",
      "outputs": [
        {
          "internalType": "bool",
          "name": "",
          "type": "bool"
        }
      ],
      "stateMutability": "view",
      "type": "function"
    },
    {
      "inputs": [
        {
          "components": [
            {
              "internalType": "address",
              "name": "devTeam",
              "type": "address"
            },
            {
              "internalType": "uint128",
              "name": "minFee",
              "type": "uint128"
            },
            {
              "internalType": "uint128",
              "name": "penaltyFee",
              "type": "uint128"
            },
            {
              "internalType": "uint8",
              "name": "lockoutBlocks",
              "type": "uint8"
            }
          ],
          "internalType": "struct Types.Config",
          "name": "config",
          "type": "tuple"
        }
      ],
      "name": "initialize",
      "outputs": [],
      "stateMutability": "nonpayable",
      "type": "function"
    },
    {
      "inputs": [
        {
          "internalType": "bytes32",
          "name": "role",
          "type": "bytes32"
        },
        {
          "internalType": "address",
          "name": "actor",
          "type": "address"
        }
      ],
      "name": "revokeRole",
      "outputs": [],
      "stateMutability": "nonpayable",
      "type": "function"
    },
    {
      "inputs": [
        {
          "components": [
            {
              "internalType": "address",
              "name": "devTeam",
              "type": "address"
            },
            {
              "internalType": "uint128",
              "name": "minFee",
              "type": "uint128"
            },
            {
              "internalType": "uint128",
              "name": "penaltyFee",
              "type": "uint128"
            },
            {
              "internalType": "uint8",
              "name": "lockoutBlocks",
              "type": "uint8"
            }
          ],
          "internalType": "struct Types.Config",
          "name": "config",
          "type": "tuple"
        }
      ],
      "name": "setConfig",
      "outputs": [],
      "stateMutability": "nonpayable",
      "type": "function"
    },
    {
      "inputs": [
        {
          "internalType": "address",
          "name": "team",
          "type": "address"
        }
      ],
      "name": "setDevTeam",
      "outputs": [],
      "stateMutability": "nonpayable",
      "type": "function"
    },
    {
      "inputs": [
        {
          "internalType": "uint8",
          "name": "blocks",
          "type": "uint8"
        }
      ],
      "name": "setLockoutBlocks",
      "outputs": [],
      "stateMutability": "nonpayable",
      "type": "function"
    },
    {
      "inputs": [
        {
          "internalType": "uint128",
          "name": "fee",
          "type": "uint128"
        }
      ],
      "name": "setMinFee",
      "outputs": [],
      "stateMutability": "nonpayable",
      "type": "function"
    },
    {
      "inputs": [
        {
          "internalType": "uint128",
          "name": "fee",
          "type": "uint128"
        }
      ],
      "name": "setPenaltyFee",
      "outputs": [],
      "stateMutability": "nonpayable",
      "type": "function"
    },
    {
      "inputs": [
        {
          "internalType": "address",
          "name": "oldRelay",
          "type": "address"
        },
        {
          "internalType": "address",
          "name": "newRelay",
          "type": "address"
        }
      ],
      "name": "swapRelay",
      "outputs": [],
      "stateMutability": "nonpayable",
      "type": "function"
    },
    {
      "inputs": [
        {
          "components": [
            {
              "internalType": "address",
              "name": "trader",
              "type": "address"
            },
            {
              "components": [
                {
                  "internalType": "contract IERC20",
                  "name": "token",
                  "type": "address"
                },
                {
                  "internalType": "uint112",
                  "name": "amount",
                  "type": "uint112"
                }
              ],
              "internalType": "struct Types.TokenAmount",
              "name": "input",
              "type": "tuple"
            },
            {
              "components": [
                {
                  "internalType": "contract IERC20",
                  "name": "token",
                  "type": "address"
                },
                {
                  "internalType": "uint112",
                  "name": "amount",
                  "type": "uint112"
                }
              ],
              "internalType": "struct Types.TokenAmount",
              "name": "output",
              "type": "tuple"
            },
            {
              "components": [
                {
                  "internalType": "contract IERC20",
                  "name": "feeToken",
                  "type": "address"
                },
                {
                  "internalType": "address",
                  "name": "affiliate",
                  "type": "address"
                },
                {
                  "internalType": "uint256",
                  "name": "affiliatePortion",
                  "type": "uint256"
                },
                {
                  "internalType": "uint256",
                  "name": "feeTokenETHPrice",
                  "type": "uint256"
                },
                {
                  "internalType": "uint256",
                  "name": "dexibleFee",
                  "type": "uint256"
                },
                {
                  "internalType": "uint256",
                  "name": "gasFee",
                  "type": "uint256"
                }
              ],
              "internalType": "struct Types.V3Fees",
              "name": "fees",
              "type": "tuple"
            }
          ],
          "internalType": "struct Types.V3Order",
          "name": "order",
          "type": "tuple"
        },
        {
          "internalType": "contract IDexRouter",
          "name": "router",
          "type": "address"
        },
        {
          "internalType": "bytes",
          "name": "data",
          "type": "bytes"
        }
      ],
      "name": "v3Fill",
      "outputs": [],
      "stateMutability": "nonpayable",
      "type": "function"
    },
    {
      "inputs": [
        {
          "internalType": "uint256",
          "name": "amount",
          "type": "uint256"
        }
      ],
      "name": "withdraw",
      "outputs": [],
      "stateMutability": "nonpayable",
      "type": "function"
    },
    {
      "stateMutability": "payable",
      "type": "receive"
    }
  ],
  "transactionHash": "0xf71504baef82b3775092df15c144bbe71220a21a9ea51384d4f68b76cb431a84",
  "args": [],
  "numDeployments": 1,
  "solcInputHash": "b3e8d41758c81f9a06cc65cdc4a9777e",
  "bytecode": "0x608060405234801561001057600080fd5b50614f21806100206000396000f3fe60806040526004361061016a5760003560e01c806375b238fc116100d1578063b1cf4b0c1161008a578063d547741f11610064578063d547741f14610475578063e63ab1e914610495578063e959b38a146104aa578063f102669b146104ca576101b2565b8063b1cf4b0c14610411578063c13da01814610433578063c3f909d414610453576101b2565b806375b238fc1461033d578063775506101461035257806383a7fcfb146103675780638d3403fd14610396578063904cd9f5146103b657806391d14854146103e4576101b2565b806340ee75bb1161012357806340ee75bb146102795780634e1c6829146102995780635716d1ce146102b95780635cf34bcf146102d95780636a9447b5146102fb57806373dc63ea1461031d576101b2565b806304421823146101b757806327054df6146101e25780632e1a7d4d146101f7578063334c3c65146102195780633d191fa8146102395780633f51e18214610259576101b2565b366101b257336001600160a01b03167f4103257eaac983ca79a70d28f90dfc4fa16b619bb0c17ee7cab0d4034c279624346040516101a891906143a3565b60405180910390a2005b600080fd5b3480156101c357600080fd5b506101cc6104ea565b6040516101d991906143a3565b60405180910390f35b3480156101ee57600080fd5b506101cc6104fc565b34801561020357600080fd5b50610217610212366004614153565b610520565b005b34801561022557600080fd5b50610217610234366004613f4d565b61060b565b34801561024557600080fd5b50610217610254366004614098565b6106b4565b34801561026557600080fd5b50610217610274366004613f4d565b6107b3565b34801561028557600080fd5b50610217610294366004613d4c565b610839565b3480156102a557600080fd5b506102176102b4366004614137565b610899565b3480156102c557600080fd5b506102176102d4366004613f22565b6108f9565b3480156102e557600080fd5b506102ee610a8f565b6040516101d99190614b61565b34801561030757600080fd5b50610310610aac565b6040516101d991906142c6565b34801561032957600080fd5b506102176103383660046140c9565b610ac5565b34801561034957600080fd5b506101cc610b80565b34801561035e57600080fd5b506102ee610b92565b34801561037357600080fd5b506103876103823660046140c9565b610bb5565b6040516101d993929190614379565b3480156103a257600080fd5b506102176103b1366004614183565b610f12565b3480156103c257600080fd5b506103d66103d1366004614011565b610f69565b6040516101d992919061435e565b3480156103f057600080fd5b506104046103ff366004613efe565b61133c565b6040516101d99190614353565b34801561041d57600080fd5b506104266113d9565b6040516101d99190614b75565b34801561043f57600080fd5b5061021761044e366004613e03565b6113ef565b34801561045f57600080fd5b50610468611459565b6040516101d99190614999565b34801561048157600080fd5b50610217610490366004613efe565b6114f4565b3480156104a157600080fd5b506101cc61153e565b3480156104b657600080fd5b506102176104c5366004613efe565b611562565b3480156104d657600080fd5b506102176104e5366004614137565b6115a2565b600080516020614da483398151915281565b7fd95061bdf0c43d77b6cbe1c15072292976244ec8d5012de75baa36e42da4625e81565b61053a600080516020614e4c8339815191526103ff61160e565b61055f5760405162461bcd60e51b815260040161055690614957565b60405180910390fd5b4781111561057f5760405162461bcd60e51b8152600401610556906145e2565b61058761160e565b6001600160a01b03166108fc829081150290604051600060405180830381858888f193505050501580156105bf573d6000803e3d6000fd5b506105c861160e565b6001600160a01b03167faa21a47bc8f0df1a253be34a945b1d0a8f458e4da029c0ab59c1fee1e488c0668260405161060091906143a3565b60405180910390a250565b610625600080516020614e4c8339815191526103ff61160e565b6106415760405162461bcd60e51b815260040161055690614957565b610649611612565b6040516321cab0c760e01b815273452D44067caC9B1e1153FdDFa95d76D6d9aF441A916321cab0c791610681919085906004016149a7565b60006040518083038186803b15801561069957600080fd5b505af41580156106ad573d6000803e3d6000fd5b5050505050565b6106ce600080516020614da48339815191526103ff61160e565b6106ea5760405162461bcd60e51b8152600401610556906147db565b6106f2611636565b5460ff16156107135760405162461bcd60e51b81526004016105569061445e565b600161071d611636565b805460ff1916911515919091179055600061073b619c405a9061165a565b9050610745613b05565b61074e8661167f565b9050610758613b2d565b61076187611813565b905060006060610773838989896119cb565b91509150610782898584611b15565b61078f8983838789611e30565b5050505050600061079e611636565b805460ff191691151591909117905550505050565b60006107bd6123d1565b8054909150610100900460ff16806107d75750805460ff16155b6107f35760405162461bcd60e51b81526004016105569061488a565b8054610100900460ff1615801561081b57815460ff1961ff0019909116610100171660011782555b610824836123f5565b801561083457815461ff00191682555b505050565b610853600080516020614e4c8339815191526103ff61160e565b61086f5760405162461bcd60e51b815260040161055690614957565b80610878611612565b80546001600160a01b0319166001600160a01b039290921691909117905550565b6108b3600080516020614e4c8339815191526103ff61160e565b6108cf5760405162461bcd60e51b815260040161055690614957565b806108d8611612565b60010180546001600160801b03928316600160801b02921691909117905550565b6000826001600160a01b031663dd62ed3e61091261160e565b306040518363ffffffff1660e01b81526004016109309291906142da565b60206040518083038186803b15801561094857600080fd5b505afa15801561095c573d6000803e3d6000fd5b505050506040513d601f19601f82011682018060405250810190610980919061416b565b9050818110156109a25760405162461bcd60e51b8152600401610556906147a4565b826001600160a01b03166323b872dd6109b961160e565b30856040518463ffffffff1660e01b81526004016109d9939291906142f4565b602060405180830381600087803b1580156109f357600080fd5b505af1158015610a07573d6000803e3d6000fd5b505050506040513d601f19601f82011682018060405250810190610a2b9190613e3b565b50604051632e1a7d4d60e01b81526001600160a01b03841690632e1a7d4d90610a589085906004016143a3565b600060405180830381600087803b158015610a7257600080fd5b505af1158015610a86573d6000803e3d6000fd5b50505050505050565b6000610a99611612565b600101546001600160801b031690505b90565b6000610ab6611612565b546001600160a01b0316905090565b610adf600080516020614da48339815191526103ff61160e565b610afb5760405162461bcd60e51b8152600401610556906147db565b610b03611636565b5460ff1615610b245760405162461bcd60e51b81526004016105569061445e565b6001610b2e611636565b805460ff19169115159190911790556000610b4c619c405a9061165a565b90506000806060610b5f88888888612470565b925092509250610b728884838786612630565b50505050600061079e611636565b600080516020614e4c83398151915281565b6000610b9c611612565b60010154600160801b90046001600160801b0316919050565b6000806060333014610bd95760405162461bcd60e51b81526004016105569061475b565b610be38787612860565b610c18604051806040016040528060148152602001734465636f64696e6720746172676574206172677360601b81525061293a565b6000806060610c2987890189613d68565b925092509250610c6e6040518060400160405280601a81526020017f417070726f76696e67207370656e6420666f72207461726765740000000000008152508361297d565b6000610c8060408c0160208d01613d4c565b6001600160a01b031663dd62ed3e30856040518363ffffffff1660e01b8152600401610cad9291906142da565b60206040518083038186803b158015610cc557600080fd5b505afa158015610cd9573d6000803e3d6000fd5b505050506040513d601f19601f82011682018060405250810190610cfd919061416b565b9050610d306040518060400160405280600f81526020016e5370656e6420616c6c6f77616e636560881b815250826129c2565b8015610da157610d7060405180604001604052806019815260200178302d696e67206f7574207370656e6420616c6c6f77616e636560381b81525061293a565b610d9c8360008d6020016000016020810190610d8c9190613d4c565b6001600160a01b03169190612a07565b610dc2565b610dc2604051806060016040528060278152602001614d5d6027913961293a565b610df583610dd660608e0160408f0161411c565b6001600160701b03168d6020016000016020810190610d8c9190613d4c565b610e296040518060400160405280601281526020017110d85b1b1a5b99c81cddd85c15185c99d95d60721b8152508561297d565b610e536040518060400160405280600881526020016711d85cc81b19599d60c21b8152505a6129c2565b60006060856001600160a01b03165a85604051610e7091906142aa565b60006040518083038160008787f1925050503d8060008114610eae576040519150601f19603f3d011682016040523d82523d6000602084013e610eb3565b606091505b509150915081610ed55760405162461bcd60e51b81526004016105569061465e565b600181806020019051810190610eeb919061416b565b604051806020016040528060008152509850985098505050505050505b9450945094915050565b610f2c600080516020614e4c8339815191526103ff61160e565b610f485760405162461bcd60e51b815260040161055690614957565b80610f51611612565b600201805460ff191660ff9290921691909117905550565b60006060333014610f8c5760405162461bcd60e51b81526004016105569061475b565b610fa4610f9e3688900388018861407c565b86612b01565b6000806060610fb586880188613d68565b925092509250610ffa6040518060400160405280601a81526020017f417070726f76696e67207370656e6420666f72207461726765740000000000008152508361297d565b600061100c60c08b0160a08c01613d4c565b6001600160a01b031663dd62ed3e30856040518363ffffffff1660e01b81526004016110399291906142da565b60206040518083038186803b15801561105157600080fd5b505afa158015611065573d6000803e3d6000fd5b505050506040513d601f19601f82011682018060405250810190611089919061416b565b90506110bc6040518060400160405280600f81526020016e5370656e6420616c6c6f77616e636560881b815250826129c2565b801561119a576110fc60405180604001604052806019815260200178302d696e67206f7574207370656e6420616c6c6f77616e636560381b81525061293a565b61110c60c08b0160a08c01613d4c565b6001600160a01b031663095ea7b38460006040518363ffffffff1660e01b815260040161113a929190614318565b602060405180830381600087803b15801561115457600080fd5b505af1158015611168573d6000803e3d6000fd5b505050506040513d601f19601f8201168201806040525081019061118c9190613e3b565b61119557600080fd5b6111bb565b6111bb604051806060016040528060278152602001614d5d6027913961293a565b6111cb60c08b0160a08c01613d4c565b6001600160a01b031663095ea7b3846111ea60e08e0160c08f0161411c565b6040518363ffffffff1660e01b8152600401611207929190614331565b602060405180830381600087803b15801561122157600080fd5b505af1158015611235573d6000803e3d6000fd5b505050506040513d601f19601f820116820180604052508101906112599190613e3b565b5061128e6040518060400160405280601281526020017110d85b1b1a5b99c81cddd85c15185c99d95d60721b8152508561297d565b60006060856001600160a01b03165a856040516112ab91906142aa565b60006040518083038160008787f1925050503d80600081146112e9576040519150601f19603f3d011682016040523d82523d6000602084013e6112ee565b606091505b50915091506112fc81612b7f565b816113195760405162461bcd60e51b81526004016105569061465e565b506040805160208101909152600081529096509450505050505b94509492505050565b6000611346611636565b604051630f40931b60e41b81527338f87b748B2aa4D844d2DbEC8DE68C1E0cD7c4059163f40931b09161138091908790879060040161497a565b60206040518083038186803b15801561139857600080fd5b505af41580156113ac573d6000803e3d6000fd5b505050506040513d601f19601f820116820180604052508101906113d09190613e3b565b90505b92915050565b60006113e3611612565b6002015460ff16905090565b611409600080516020614e4c8339815191526103ff61160e565b6114255760405162461bcd60e51b815260040161055690614957565b61143d600080516020614da4833981519152836114f4565b611455600080516020614da483398151915282611562565b5050565b611461613b87565b611469611612565b604051636d73f0db60e01b815273452D44067caC9B1e1153FdDFa95d76D6d9aF441A91636d73f0db9161149f91906004016143a3565b60806040518083038186803b1580156114b757600080fd5b505af41580156114cb573d6000803e3d6000fd5b505050506040513d601f19601f820116820180604052508101906114ef9190613fb5565b905090565b61150e600080516020614e4c8339815191526103ff61160e565b61152a5760405162461bcd60e51b815260040161055690614957565b6114558282611537611636565b9190612bc2565b7f65d7a28e3265b37a6474929f336521b332c1681b933f6cb9f3376673440d862a81565b61157c600080516020614e4c8339815191526103ff61160e565b6115985760405162461bcd60e51b815260040161055690614957565b6114558282612bf1565b6115bc600080516020614e4c8339815191526103ff61160e565b6115d85760405162461bcd60e51b815260040161055690614957565b806115e1611612565b60010180546fffffffffffffffffffffffffffffffff19166001600160801b039290921691909117905550565b3390565b7ff5b4be0a744c821d14f78bf26d55a308f420d78cebbfac103f2618fba32917b990565b7f3a83b1278d351a40f18bb9e8e77896e8c1dc812ffaed5ea63e0e837a6dae57e990565b6000828201838110156113d05760405162461bcd60e51b8152600401610556906144a9565b611687613b05565b60a08201515182516040516370a0823160e01b81526000926001600160a01b0316916370a08231916116bc91906004016142c6565b60206040518083038186803b1580156116d457600080fd5b505afa1580156116e8573d6000803e3d6000fd5b505050506040513d601f19601f8201168201806040525081019061170c919061416b565b90508260a00151602001516001600160701b031681101561173f5760405162461bcd60e51b815260040161055690614712565b61174883612c05565b6117645760405162461bcd60e51b8152600401610556906146c7565b60405180608001604052808281526020018460c00151600001516001600160a01b03166370a08231306040518263ffffffff1660e01b81526004016117a991906142c6565b60206040518083038186803b1580156117c157600080fd5b505afa1580156117d5573d6000803e3d6000fd5b505050506040513d601f19601f820116820180604052508101906117f9919061416b565b81526020016000815260200160008152509150505b919050565b61181b613b2d565b8160a00151600001516001600160a01b031682602001516001600160a01b031614156119c75761187f6040518060400160405280601c81526020017f54616b696e67206665652066726f6d206f757470757420746f6b656e0000000081525061293a565b60008080611891858660800151612caa565b90925090506118bb6118a3838361165a565b60a0870151602001516001600160701b031690612f70565b92506119006040518060400160405280601081526020016f13db19081a5b9c1d5d08185b5bdd5b9d60821b8152508660a00151602001516001600160701b03166129c2565b6119326040518060400160405280601081526020016f13995dc81a5b9c1d5d08185b5bdd5b9d60821b815250846129c2565b50506040518060e0016040528084600001516001600160a01b0316815260200184602001516001600160a01b0316815260200184604001518152602001846060015181526020018460800151815260200160405180604001604052808660a00151600001516001600160a01b03168152602001846001600160701b031681525081526020018460c0015181525091505061180e565b5090565b600060603063904cd9f56119e2619c405a90612f70565b888888886040518663ffffffff1660e01b8152600401611a0594939291906149bb565b600060405180830381600088803b158015611a1f57600080fd5b5087f193505050508015611a5557506040513d6000823e601f3d908101601f19168201604052611a529190810190613e57565b60015b611ada57611a61614c00565b80611a6c5750611aa5565b60009250809150611a9f6040518060400160405280600a8152602001692330b4b62932b0b9b7b760b11b81525082612f98565b50611ad5565b50506040805180820190915260138152722ab735b737bbb7103330b4b6103932b0b9b7b760691b60208201526000905b611333565b81611b0b57611b0b6040518060400160405280600a8152602001692330b4b62932b0b9b7b760b11b81525082612f98565b9092509050611333565b60a08301515183516040516370a0823160e01b81526001600160a01b03909216916370a0823191611b48916004016142c6565b60206040518083038186803b158015611b6057600080fd5b505afa158015611b74573d6000803e3d6000fd5b505050506040513d601f19601f82011682018060405250810190611b98919061416b565b826040018181525050611bea60405180604001604052806016815260200175115e1c1958dd1959081bdd5d1c1d5d08185b5bdd5b9d60521b8152508460c00151602001516001600160701b03166129c2565b80611c4d57611c246040518060400160405280600f81526020016e24b7383aba103130b61030b33a32b960891b81525083604001516129c2565b8151604083015114611c485760405162461bcd60e51b815260040161055690614594565b610834565b60c0830151516040516370a0823160e01b81526001600160a01b03909116906370a0823190611c809030906004016142c6565b60206040518083038186803b158015611c9857600080fd5b505afa158015611cac573d6000803e3d6000fd5b505050506040513d601f19601f82011682018060405250810190611cd0919061416b565b60608301526040805180820190915260208082527f4f757470757420746f6b656e2062616c616e6365206265666f7265207377617081830152830151611d1691906129c2565b611d596040518060400160405280601981526020017f4f75747075742062616c616e636520616674657220737761700000000000000081525083606001516129c2565b611da260405180604001604052806016815260200175115e1c1958dd1959081bdd5d1c1d5d08185b5bdd5b9d60521b8152508460c00151602001516001600160701b03166129c2565b8260c00151602001516001600160701b0316611dcf83602001518460600151612f7090919063ffffffff16565b1015611ded5760405162461bcd60e51b8152600401610556906147fe565b60a083015160200151604083015183516001600160701b0390921691611e1291612f70565b11156108345760405162461bcd60e51b815260040161055690614627565b6000611e4961ea60611e435a8590612f70565b9061165a565b9050611e7b6040518060400160405280600e81526020016d151bdd185b0819d85cc81d5cd95960921b815250826129c2565b6000611e87823a612fdd565b9050611eb2604051806040016040528060078152602001664761732066656560c81b815250826129c2565b600080611ebf8985612caa565b9150915082471015611f3957611eec604051806060016040528060358152602001614df16035913961293a565b611ef461160e565b6001600160a01b03167f4c0d6a438f19dfe41befe161c0bfdfca9f674028133bbaf37749b2d12f8f0dda84604051611f2c91906143a3565b60405180910390a2612001565b611f776040518060400160405280601c81526020017f5472616e73666572696e67206761732066656520746f2072656c61790000000081525061293a565b611f7f61160e565b6001600160a01b03166108fc849081150290604051600060405180830381858888f19350505050158015611fb7573d6000803e3d6000fd5b50611fc061160e565b6001600160a01b03167f91d09af90b128f3fb2907042440a531bca49791232cd8f59e1c629d96247d05784604051611ff891906143a3565b60405180910390a25b6000886121795782905061203b6040518060400160405280600e81526020016d4661696c6564206761732066656560901b815250826129c2565b8960a00151600001516001600160a01b03168a602001516001600160a01b031614156120ea57612082604051806060016040528060408152602001614ced6040913961293a565b89516120aa90612090611612565b5460208d01516001600160a01b0390811692911684613017565b89600001516001600160a01b0316600080516020614d84833981519152898c60200151846040516120dd939291906143e9565b60405180910390a2612148565b61210b604051806080016040528060498152602001614e6c6049913961293a565b89600001516001600160a01b0316600080516020614d84833981519152898c60200151600060405161213f939291906143e9565b60405180910390a25b6121746040518060400160405280600b81526020016a14ddd85c0819985a5b195960aa1b81525061293a565b6123c5565b612183838361165a565b905060006121a288602001518960600151612f7090919063ffffffff16565b90506121d96040518060400160405280601381526020017211dc9bdcdcc81bdd5d1c1d5d08185b5bdd5b9d606a1b815250826129c2565b60008b60a00151600001516001600160a01b03168c602001516001600160a01b03161415612253578190506122266040518060600160405280602d8152602001614dc4602d9139846129c2565b8b5161224e90612234611612565b5460208f01516001600160a01b0390811692911686613017565b6122de565b61228c604051806040016040528060178152602001765265647563696e67206f7574707574206279206665657360481b815250846129c2565b6122968284612f70565b90506122ba604051806060016040528060268152602001614e2660269139846129c2565b6122de6122c5611612565b5460208e01516001600160a01b0390811691168561303e565b61231d6040518060400160405280601e81526020017f53656e64696e6720746f74616c206f757470757420746f207472616465720000815250826129c2565b8b5160c08d01515161233b916001600160a01b03909116908361303e565b8b600001516001600160a01b03167f3491be8ca1b3f4f9e7e74b9955a4600c2613ce85d639eaa123d5b733f59e93be8d60a0015160200151838f60200151898960405161238c959493929190614aee565b60405180910390a26123c26040518060400160405280600d81526020016c046696e6973686564207377617609c1b81525061293a565b50505b50505050505050505050565b7fd59dd79cfd4373c6c6547848d91fc2ea67c8aec9053f7028828216c5af1d474190565b6123fd611612565b6040516321cab0c760e01b815273452D44067caC9B1e1153FdDFa95d76D6d9aF441A916321cab0c791612435919085906004016149a7565b60006040518083038186803b15801561244d57600080fd5b505af4158015612461573d6000803e3d6000fd5b5050505061246d61305d565b50565b6000806060306383a7fcfb612488619c405a90612f70565b898989896040518663ffffffff1660e01b81526004016124ab9493929190614a3a565b600060405180830381600088803b1580156124c557600080fd5b5087f1935050505080156124fb57506040513d6000823e601f3d908101601f191682016040526124f89190810190613ea6565b60015b6125f357612507614c00565b80612512575061257d565b6125406040518060400160405280600c81526020016b22b93937b9103a343937bbb760a11b81525082612f98565b60009350809150600092506125776040518060400160405280600a8152602001692330b4b62932b0b9b7b760b11b81525082612f98565b506125ee565b6125bb6040518060400160405280601881526020017f556e6b6e6f776e2070726f626c656d206f63637572726564000000000000000081525061293a565b50506040805180820190915260138152722ab735b737bbb7103330b4b6103932b0b9b7b760691b60208201526000915081905b610f08565b82612624576126246040518060400160405280600a8152602001692330b4b62932b0b9b7b760b11b81525082612f98565b91945092509050610f08565b61265b6040518060400160405280600981526020016853746172742067617360b81b815250836129c2565b6126856040518060400160405280600881526020016711d85cc81b19599d60c21b8152505a6129c2565b600061269861ea60611e435a8690612f70565b90506126ca6040518060400160405280600e81526020016d151bdd185b0819d85cc81d5cd95960921b815250826129c2565b60006126d6823a612fdd565b9050612701604051806040016040528060078152602001664761732066656560c81b815250826129c2565b804710156127775761272a604051806060016040528060358152602001614df16035913961293a565b61273261160e565b6001600160a01b03167f4c0d6a438f19dfe41befe161c0bfdfca9f674028133bbaf37749b2d12f8f0dda8260405161276a91906143a3565b60405180910390a261283f565b6127b56040518060400160405280601c81526020017f5472616e73666572696e67206761732066656520746f2072656c61790000000081525061293a565b6127bd61160e565b6001600160a01b03166108fc829081150290604051600060405180830381858888f193505050501580156127f5573d6000803e3d6000fd5b506127fe61160e565b6001600160a01b03167f91d09af90b128f3fb2907042440a531bca49791232cd8f59e1c629d96247d0578260405161283691906143a3565b60405180910390a25b856128565761284f878387613126565b50506106ad565b610a8687846132e0565b604080518082018252601e81527f5472616e73666572696e6720696e70757420666f722074726164696e673a000060208201526128b5916128a7906060860190860161411c565b6001600160701b03166129c2565b6129006128c56020840184613d4c565b306128d6606086016040870161411c565b6001600160701b03166128ef6040870160208801613d4c565b6001600160a01b0316929190613017565b60408051808201909152600f81526e115e1c1958dd1959081bdd5d1c1d5d608a1b6020820152611455906128a760a085016080860161411c565b61246d8160405160240161294e91906143ac565b60408051601f198184030181529190526020810180516001600160e01b031663104c13eb60e21b179052613782565b61145582826040516024016129939291906143bf565b60408051601f198184030181529190526020810180516001600160e01b031663319af33360e01b179052613782565b61145582826040516024016129d892919061443c565b60408051601f198184030181529190526020810180516001600160e01b0316632d839cb360e21b179052613782565b801580612a8f5750604051636eb1769f60e11b81526001600160a01b0384169063dd62ed3e90612a3d90309086906004016142da565b60206040518083038186803b158015612a5557600080fd5b505afa158015612a69573d6000803e3d6000fd5b505050506040513d601f19601f82011682018060405250810190612a8d919061416b565b155b612aab5760405162461bcd60e51b815260040161055690614901565b6108348363095ea7b360e01b8484604051602401612aca929190614318565b60408051601f198184030181529190526020810180516001600160e01b03166001600160e01b0319909316929092179091526137a3565b612b516040518060400160405280601e81526020017f5472616e73666572696e6720696e70757420666f722074726164696e673a00008152508360a00151602001516001600160701b03166129c2565b815160a083015160208101519051611455926001600160a01b039091169130906001600160701b0316613017565b61246d81604051602401612b9391906143ac565b60408051601f198184030181529190526020810180516001600160e01b03166305f3bfab60e11b179052613782565b60009182526001909201602090815260408083206001600160a01b03909416835292905220805460ff19169055565b6114558282612bfe611636565b9190613832565b60a0810151602081015190518251604051636eb1769f60e11b815260009384936001600160701b03909116926001600160a01b039091169163dd62ed3e91612c519130906004016142da565b60206040518083038186803b158015612c6957600080fd5b505afa158015612c7d573d6000803e3d6000fd5b505050506040513d601f19601f82011682018060405250810190612ca1919061416b565b10159392505050565b600080612ce7604051806040016040528060198152602001782d2d2d2d20436f6d707574696e672046656573202d2d2d2d2d60381b81525061293a565b604080518082019091526012815271115cdd1a5b585d19590819d85cc818dbdcdd60721b60208201523a840290612d1e90826129c2565b600085602001516001600160a01b031663313ce5676040518163ffffffff1660e01b815260040160206040518083038186803b158015612d5d57600080fd5b505afa158015612d71573d6000803e3d6000fd5b505050506040513d601f19601f82011682018060405250810190612d95919061419f565b60ff169050612dbe8660400151612db883600a0a85612fdd90919063ffffffff16565b90613865565b9350612dfa6040518060400160405280601881526020017723b0b9903837b93a34b7b71034b7103332b2903a37b5b2b760411b815250856129c2565b612e36604051806040016040528060168152602001754f72646572206e61746976652055534420707269636560501b81525087606001516129c2565b612e796040518060400160405280601c81526020017f4f726465722066656520746f6b656e206e61746976652070726963650000000081525087604001516129c2565b6000612e9687604001518860600151612fdd90919063ffffffff16565b9050612ed060405180604001604052806016815260200175119959481d1bdad95b881c1c9a58d9481a5b881554d160521b815250826129c2565b612ef981612db884602401600a0a612ee6611612565b600101546001600160801b031690612fdd565b9350612f286040518060400160405280600b81526020016a44657869626c652066656560a81b815250856129c2565b612f666040518060400160405280601a81526020017f2d2d2d2d20456e6420636f6d707574652066656573202d2d2d2d00000000000081525061293a565b5050509250929050565b600082821115612f925760405162461bcd60e51b8152600401610556906144e0565b50900390565b6114558282604051602401612fae929190614417565b60408051601f198184030181529190526020810180516001600160e01b0316634b5c427760e01b179052613782565b600082612fec575060006113d3565b82820282848281612ff957fe5b04146113d05760405162461bcd60e51b815260040161055690614686565b613038846323b872dd60e01b858585604051602401612aca939291906142f4565b50505050565b6108348363a9059cbb60e01b8484604051602401612aca929190614318565b60006130676123d1565b8054909150610100900460ff16806130815750805460ff16155b61309d5760405162461bcd60e51b81526004016105569061488a565b8054610100900460ff161580156130c557815460ff1961ff0019909116610100171660011782555b60006130cf61160e565b90506130e9600080516020614e4c83398151915282612bf1565b6131137f65d7a28e3265b37a6474929f336521b332c1681b933f6cb9f3376673440d862a82612bf1565b5080156114555750805461ff0019169055565b60006131328484613897565b90506131646040518060400160405280600e81526020016d4661696c6564206761732066656560901b815250826129c2565b6131746040850160208601613d4c565b6001600160a01b031661318d60c0860160a08701613d4c565b6001600160a01b03161415613243576131bd604051806060016040528060408152602001614ced6040913961293a565b6131f06131cd6020860186613d4c565b6131d5611612565b546001600160a01b0316836128ef60c0890160a08a01613d4c565b6131fd6020850185613d4c565b6001600160a01b0316600080516020614d848339815191528361322660c0880160a08901613d4c565b84604051613236939291906143e9565b60405180910390a26132b4565b613264604051806080016040528060498152602001614e6c6049913961293a565b6132716020850185613d4c565b6001600160a01b0316600080516020614d848339815191528361329a60c0880160a08901613d4c565b60006040516132ab939291906143e9565b60405180910390a25b6130386040518060400160405280600b81526020016a14ddd85c0819985a5b195960aa1b81525061293a565b60408051808201909152601381527211dc9bdcdcc81bdd5d1c1d5d08185b5bdd5b9d606a1b6020820152819061331690826129c2565b600080613335610140860135611e4361012088013560e089013561165a565b90506133476040860160208701613d4c565b6001600160a01b031661336060c0870160a08801613d4c565b6001600160a01b031614156134ca57829150613394604051806060016040528060378152602001614eb560379139826129c2565b60e08501351561347f576133e46040518060400160405280602081526020017f5472616e7366657272696e6720616d6f756e7420746f20616666696c696174658152508660a001604001356129c2565b6134196133f46020870187613d4c565b61340460e0880160c08901613d4c565b60e08801356128ef60c08a0160a08b01613d4c565b61342960e0860160c08701613d4c565b6001600160a01b03167f1fd11cde99de9e2e6d2bc710c225ae2e03d1e8eece69b0c552c7ae2bb3499a7061346360c0880160a08901613d4c565b604051613476919060e08a013590614318565b60405180910390a25b6134c561348f6020870187613d4c565b613497611612565b546001600160a01b03166134b56101208901356101408a013561165a565b6128ef60c08a0160a08b01613d4c565b613658565b613503604051806040016040528060178152602001765265647563696e67206f7574707574206279206665657360481b815250826129c2565b61350d8382612f70565b915060e0850135156135fd5761355f6040518060400160405280602081526020017f5472616e7366657272696e6720616d6f756e7420746f20616666696c696174658152508660a001604001356129c2565b61359761357260e0870160c08801613d4c565b60e087013561358760c0890160a08a01613d4c565b6001600160a01b0316919061303e565b6135a760e0860160c08701613d4c565b6001600160a01b03167f1fd11cde99de9e2e6d2bc710c225ae2e03d1e8eece69b0c552c7ae2bb3499a706135e160c0880160a08901613d4c565b6040516135f4919060e08a013590614318565b60405180910390a25b61361f604051806060016040528060308152602001614d2d60309139826129c2565b61365861362a611612565b546001600160a01b031661364861012088013561014089013561165a565b61358760c0890160a08a01613d4c565b6136976040518060400160405280601e81526020017f53656e64696e6720746f74616c206f757470757420746f207472616465720000815250836129c2565b6136b86136a76020870187613d4c565b836135876080890160608a01613d4c565b6136c860e0860160c08701613d4c565b6001600160a01b03166136de6020870187613d4c565b6001600160a01b03167f729e31e77c59767ea792c7ae2063c6e4275684ac458cfddba999d2f7a78a1fa06137186060890160408a0161411c565b8561372960c08b0160a08c01613d4c565b60405161374c939291906101408d01359060e08e0135906101208f013590614b25565b60405180910390a36106ad6040518060400160405280600d81526020016c046696e6973686564207377617609c1b81525061293a565b80516a636f6e736f6c652e6c6f67602083016000808483855afa5050505050565b60606137f8826040518060400160405280602081526020017f5361666545524332303a206c6f772d6c6576656c2063616c6c206661696c6564815250856001600160a01b03166139ec9092919063ffffffff16565b80519091501561083457808060200190518101906138169190613e3b565b6108345760405162461bcd60e51b8152600401610556906148b7565b60009182526001928301602090815260408084206001600160a01b0390931684529190529020805460ff19169091179055565b60008082116138865760405162461bcd60e51b81526004016105569061455d565b81838161388f57fe5b049392505050565b60006138d3604051806040016040528060198152602001782d2d2d2d20436f6d707574696e672046656573202d2d2d2d2d60381b81525061293a565b604080518082019091526012815271115cdd1a5b585d19590819d85cc818dbdcdd60721b60208201523a83029061390a90826129c2565b600061391c60c0860160a08701613d4c565b6001600160a01b031663313ce5676040518163ffffffff1660e01b815260040160206040518083038186803b15801561395457600080fd5b505afa158015613968573d6000803e3d6000fd5b505050506040513d601f19601f8201168201806040525081019061398c919061419f565b60ff1690506139a8610100860135612db884600a85900a612fdd565b92506139e46040518060400160405280601881526020017723b0b9903837b93a34b7b71034b7103332b2903a37b5b2b760411b815250846129c2565b505092915050565b60606139fb8484600085613a05565b90505b9392505050565b606082471015613a275760405162461bcd60e51b815260040161055690614517565b613a3085613ac6565b613a4c5760405162461bcd60e51b815260040161055690614853565b60006060866001600160a01b03168587604051613a6991906142aa565b60006040518083038185875af1925050503d8060008114613aa6576040519150601f19603f3d011682016040523d82523d6000602084013e613aab565b606091505b5091509150613abb828286613acc565b979650505050505050565b3b151590565b60608315613adb5750816139fe565b825115613aeb5782518084602001fd5b8160405162461bcd60e51b815260040161055691906143ac565b6040518060800160405280600081526020016000815260200160008152602001600081525090565b6040518060e0016040528060006001600160a01b0316815260200160006001600160a01b03168152602001600081526020016000815260200160008152602001613b75613bae565b8152602001613b82613bae565b905290565b60408051608081018252600080825260208201819052918101829052606081019190915290565b604080518082019091526000808252602082015290565b60008083601f840112613bd6578182fd5b50813567ffffffffffffffff811115613bed578182fd5b602083019150836020828501011115613c0557600080fd5b9250929050565b600082601f830112613c1c578081fd5b8151613c2f613c2a82614baa565b614b83565b9150808252836020828501011115613c4657600080fd5b613c57816020840160208601614bce565b5092915050565b60006101208284031215613c70578081fd5b613c7a60e0614b83565b90508135613c8781614ca5565b81526020820135613c9781614ca5565b80602083015250604082013560408201526060820135606082015260808201356080820152613cc98360a08401613ce6565b60a0820152613cdb8360e08401613ce6565b60c082015292915050565b600060408284031215613cf7578081fd5b613d016040614b83565b90508135613d0e81614ca5565b815260208201356001600160701b0381168114613d2a57600080fd5b602082015292915050565b80356001600160701b03811681146113d357600080fd5b600060208284031215613d5d578081fd5b81356113d081614ca5565b600080600060608486031215613d7c578182fd5b8335613d8781614ca5565b92506020840135613d9781614ca5565b9150604084013567ffffffffffffffff811115613db2578182fd5b8401601f81018613613dc2578182fd5b8035613dd0613c2a82614baa565b818152876020838501011115613de4578384fd5b8160208401602083013783602083830101528093505050509250925092565b60008060408385031215613e15578182fd5b8235613e2081614ca5565b91506020830135613e3081614ca5565b809150509250929050565b600060208284031215613e4c578081fd5b81516113d081614cba565b60008060408385031215613e69578182fd5b8251613e7481614cba565b602084015190925067ffffffffffffffff811115613e90578182fd5b613e9c85828601613c0c565b9150509250929050565b600080600060608486031215613eba578081fd5b8351613ec581614cba565b60208501516040860151919450925067ffffffffffffffff811115613ee8578182fd5b613ef486828701613c0c565b9150509250925092565b60008060408385031215613f10578182fd5b823591506020830135613e3081614ca5565b60008060408385031215613f34578182fd5b8235613f3f81614ca5565b946020939093013593505050565b600060808284031215613f5e578081fd5b613f686080614b83565b8235613f7381614ca5565b81526020830135613f8381614cc8565b60208201526040830135613f9681614cc8565b60408201526060830135613fa981614cdd565b60608201529392505050565b600060808284031215613fc6578081fd5b613fd06080614b83565b8251613fdb81614ca5565b81526020830151613feb81614cc8565b60208201526040830151613ffe81614cc8565b60408201526060830151613fa981614cdd565b600080600080848603610160811215614028578283fd5b61012080821215614037578384fd5b869550850135905061404881614ca5565b925061014085013567ffffffffffffffff811115614064578283fd5b61407087828801613bc5565b95989497509550505050565b6000610120828403121561408e578081fd5b6113d08383613c5e565b60008060008061016085870312156140ae578182fd5b6140b88686613c5e565b935061012085013561404881614ca5565b6000806000808486036101a08112156140e0578283fd5b610160808212156140ef578384fd5b869550850135905061410081614ca5565b925061018085013567ffffffffffffffff811115614064578283fd5b60006020828403121561412d578081fd5b6113d08383613d35565b600060208284031215614148578081fd5b81356113d081614cc8565b600060208284031215614164578081fd5b5035919050565b60006020828403121561417c578081fd5b5051919050565b600060208284031215614194578081fd5b81356113d081614cdd565b6000602082840312156141b0578081fd5b81516113d081614cdd565b60008284528282602086013780602084860101526020601f19601f85011685010190509392505050565b600081518084526141fd816020860160208601614bce565b601f01601f19169290920160200192915050565b80516001600160a01b031682526020808201516001600160801b03908116918401919091526040808301519091169083015260609081015160ff16910152565b803561425c81614ca5565b6001600160a01b031682526001600160701b0361427f6040830160208401613d35565b1660208301525050565b80516001600160a01b031682526020908101516001600160701b0316910152565b600082516142bc818460208701614bce565b9190910192915050565b6001600160a01b0391909116815260200190565b6001600160a01b0392831681529116602082015260400190565b6001600160a01b039384168152919092166020820152604081019190915260600190565b6001600160a01b03929092168252602082015260400190565b6001600160a01b039290921682526001600160701b0316602082015260400190565b901515815260200190565b60008315158252604060208301526139fb60408301846141e5565b600084151582528360208301526060604083015261439a60608301846141e5565b95945050505050565b90815260200190565b6000602082526113d060208301846141e5565b6000604082526143d260408301856141e5565b905060018060a01b03831660208301529392505050565b6000606082526143fc60608301866141e5565b6001600160a01b039490941660208301525060400152919050565b60006040825261442a60408301856141e5565b828103602084015261439a81856141e5565b60006040825261444f60408301856141e5565b90508260208301529392505050565b6020808252602b908201527f417474656d7074696e6720746f2072652d656e7465722066756e6374696f6e2060408201526a7265637572736976656c7960a81b606082015260800190565b6020808252601b908201527f536166654d6174683a206164646974696f6e206f766572666c6f770000000000604082015260600190565b6020808252601e908201527f536166654d6174683a207375627472616374696f6e206f766572666c6f770000604082015260600190565b60208082526026908201527f416464726573733a20696e73756666696369656e742062616c616e636520666f6040820152651c8818d85b1b60d21b606082015260800190565b6020808252601a908201527f536166654d6174683a206469766973696f6e206279207a65726f000000000000604082015260600190565b6020808252602e908201527f6661696c656420747261646520616374696f6e20646964206e6f74207265667560408201526d6e6420696e7075742066756e647360901b606082015260800190565b60208082526025908201527f496e73756666696369656e742062616c616e636520746f206d616b65207472616040820152643739b332b960d91b606082015260800190565b6020808252601a908201527f5573656420746f6f206d616e7920696e70757420746f6b656e73000000000000604082015260600190565b6020808252600e908201526d04661696c656420746f20737761760941b604082015260600190565b60208082526021908201527f536166654d6174683a206d756c7469706c69636174696f6e206f766572666c6f6040820152607760f81b606082015260800190565b6020808252602b908201527f496e73756666696369656e74207370656e6420616c6c6f77616e6365206f6e2060408201526a34b7383aba103a37b5b2b760a91b606082015260800190565b60208082526029908201527f496e73756666696369656e7420696e70757420746f6b656e2062616c616e636560408201526820746f20747261646560b81b606082015260800190565b60208082526029908201527f43616e206f6e6c792062652063616c6c656420627920736574746c656d656e746040820152680818dbdb9d1c9858dd60ba1b606082015260800190565b6020808252601c908201527f496e73756666696369656e74207370656e6420616c6c6f77616e636500000000604082015260600190565b6020808252600990820152684e6f742072656c617960b81b604082015260600190565b60208082526035908201527f547261646520616374696f6e20646964206e6f74207472616e73666572206f756040820152743a383aba103a37b5b2b739903a37903a3930b232b960591b606082015260800190565b6020808252601d908201527f416464726573733a2063616c6c20746f206e6f6e2d636f6e7472616374000000604082015260600190565b602080825260139082015272105b1c9958591e481a5b9a5d1a585b1a5e9959606a1b604082015260600190565b6020808252602a908201527f5361666545524332303a204552433230206f7065726174696f6e20646964206e6040820152691bdd081cdd58d8d9595960b21b606082015260800190565b60208082526036908201527f5361666545524332303a20617070726f76652066726f6d206e6f6e2d7a65726f60408201527520746f206e6f6e2d7a65726f20616c6c6f77616e636560501b606082015260800190565b6020808252600990820152682737ba1030b236b4b760b91b604082015260600190565b92835260208301919091526001600160a01b0316604082015260600190565b608081016113d38284614211565b82815260a081016139fe6020830184614211565b600061016060018060a01b0380885116845280602089015116602085015260408801516040850152606088015160608501526080880151608085015260a0880151614a0960a0860182614289565b5060c0880151614a1c60e0860182614289565b5086166101208401526101408301819052613abb81840185876141bb565b60006101a08635614a4a81614ca5565b6001600160a01b038181168552614a676020808701908b01614251565b614a776060860160608b01614251565b60a08901359150614a8782614ca5565b90811660a085015260c088013590614a9e82614ca5565b90811660c085015260e0888101359085015261010080890135908501526101208089013590850152610140808901359085015286166101608401526101808301819052613abb81840185876141bb565b6001600160701b0395909516855260208501939093526001600160a01b039190911660408401526060830152608082015260a00190565b6001600160701b0396909616865260208601949094526001600160a01b039290921660408501526060840152608083015260a082015260c00190565b6001600160801b0391909116815260200190565b60ff91909116815260200190565b60405181810167ffffffffffffffff81118282101715614ba257600080fd5b604052919050565b600067ffffffffffffffff821115614bc0578081fd5b50601f01601f191660200190565b60005b83811015614be9578181015183820152602001614bd1565b838111156130385750506000910152565b60e01c90565b600060443d1015614c1057610aa9565b600481823e6308c379a0614c248251614bfa565b14614c2e57610aa9565b6040513d600319016004823e80513d67ffffffffffffffff8160248401118184111715614c5e5750505050610aa9565b82840192508251915080821115614c785750505050610aa9565b503d83016020828401011115614c9057505050610aa9565b601f01601f1916810160200160405291505090565b6001600160a01b038116811461246d57600080fd5b801515811461246d57600080fd5b6001600160801b038116811461246d57600080fd5b60ff8116811461246d57600080fdfe5472616e7366657272696e67207061727469616c20696e70757420746f6b656e20746f206465767465616d20666f72206661696c75726520676173206665657353656e64696e6720666565732066726f6d206f757470757420746f6b656e20746f207465616d2f616666696c69617465546f6b656e207370656e6420646f6573206e6f74206e65656420746f20626520302764206f75749f52afa9b861b0c4b200f58dace31f1f5776b94207a3047c075d6a087e25de5e077a1d526a4ce8a773632ab13b4fbbf1fcc954c3dab26cd27ea0e2a6750da5d75472616e7366657272696e6720666565732066726f6d20696e70757420746f6b656e20746f206465765465616d43616e6e6f74207265696d62757273652072656c61792073696e636520646f206e6f74206861766520656e6f7567682066756e647353656e64696e6720666565732066726f6d206f757470757420746f6b656e20746f207465616da49807205ce4d355092ef5a8a18f56e8913cf4a201fbe287825b095693c2177546656520746f6b656e206973206f75747075743b207468657265666f72652063616e6e6f74207265696d6275727365207465616d20666f72206661696c7572652067617320666565735472616e7366657272696e6720666565732066726f6d20696e70757420746f6b656e20746f206465765465616d2f616666696c69617465a26469706673582212203e695802048b0b09dc410b569bce00d4ec45d758a46d79cfc4b8d9473a56039364736f6c63430007000033",
  "deployedBytecode": "0x60806040526004361061016a5760003560e01c806375b238fc116100d1578063b1cf4b0c1161008a578063d547741f11610064578063d547741f14610475578063e63ab1e914610495578063e959b38a146104aa578063f102669b146104ca576101b2565b8063b1cf4b0c14610411578063c13da01814610433578063c3f909d414610453576101b2565b806375b238fc1461033d578063775506101461035257806383a7fcfb146103675780638d3403fd14610396578063904cd9f5146103b657806391d14854146103e4576101b2565b806340ee75bb1161012357806340ee75bb146102795780634e1c6829146102995780635716d1ce146102b95780635cf34bcf146102d95780636a9447b5146102fb57806373dc63ea1461031d576101b2565b806304421823146101b757806327054df6146101e25780632e1a7d4d146101f7578063334c3c65146102195780633d191fa8146102395780633f51e18214610259576101b2565b366101b257336001600160a01b03167f4103257eaac983ca79a70d28f90dfc4fa16b619bb0c17ee7cab0d4034c279624346040516101a891906143a3565b60405180910390a2005b600080fd5b3480156101c357600080fd5b506101cc6104ea565b6040516101d991906143a3565b60405180910390f35b3480156101ee57600080fd5b506101cc6104fc565b34801561020357600080fd5b50610217610212366004614153565b610520565b005b34801561022557600080fd5b50610217610234366004613f4d565b61060b565b34801561024557600080fd5b50610217610254366004614098565b6106b4565b34801561026557600080fd5b50610217610274366004613f4d565b6107b3565b34801561028557600080fd5b50610217610294366004613d4c565b610839565b3480156102a557600080fd5b506102176102b4366004614137565b610899565b3480156102c557600080fd5b506102176102d4366004613f22565b6108f9565b3480156102e557600080fd5b506102ee610a8f565b6040516101d99190614b61565b34801561030757600080fd5b50610310610aac565b6040516101d991906142c6565b34801561032957600080fd5b506102176103383660046140c9565b610ac5565b34801561034957600080fd5b506101cc610b80565b34801561035e57600080fd5b506102ee610b92565b34801561037357600080fd5b506103876103823660046140c9565b610bb5565b6040516101d993929190614379565b3480156103a257600080fd5b506102176103b1366004614183565b610f12565b3480156103c257600080fd5b506103d66103d1366004614011565b610f69565b6040516101d992919061435e565b3480156103f057600080fd5b506104046103ff366004613efe565b61133c565b6040516101d99190614353565b34801561041d57600080fd5b506104266113d9565b6040516101d99190614b75565b34801561043f57600080fd5b5061021761044e366004613e03565b6113ef565b34801561045f57600080fd5b50610468611459565b6040516101d99190614999565b34801561048157600080fd5b50610217610490366004613efe565b6114f4565b3480156104a157600080fd5b506101cc61153e565b3480156104b657600080fd5b506102176104c5366004613efe565b611562565b3480156104d657600080fd5b506102176104e5366004614137565b6115a2565b600080516020614da483398151915281565b7fd95061bdf0c43d77b6cbe1c15072292976244ec8d5012de75baa36e42da4625e81565b61053a600080516020614e4c8339815191526103ff61160e565b61055f5760405162461bcd60e51b815260040161055690614957565b60405180910390fd5b4781111561057f5760405162461bcd60e51b8152600401610556906145e2565b61058761160e565b6001600160a01b03166108fc829081150290604051600060405180830381858888f193505050501580156105bf573d6000803e3d6000fd5b506105c861160e565b6001600160a01b03167faa21a47bc8f0df1a253be34a945b1d0a8f458e4da029c0ab59c1fee1e488c0668260405161060091906143a3565b60405180910390a250565b610625600080516020614e4c8339815191526103ff61160e565b6106415760405162461bcd60e51b815260040161055690614957565b610649611612565b6040516321cab0c760e01b815273__$015d7794271f690550e5fe4793e4b79169$__916321cab0c791610681919085906004016149a7565b60006040518083038186803b15801561069957600080fd5b505af41580156106ad573d6000803e3d6000fd5b5050505050565b6106ce600080516020614da48339815191526103ff61160e565b6106ea5760405162461bcd60e51b8152600401610556906147db565b6106f2611636565b5460ff16156107135760405162461bcd60e51b81526004016105569061445e565b600161071d611636565b805460ff1916911515919091179055600061073b619c405a9061165a565b9050610745613b05565b61074e8661167f565b9050610758613b2d565b61076187611813565b905060006060610773838989896119cb565b91509150610782898584611b15565b61078f8983838789611e30565b5050505050600061079e611636565b805460ff191691151591909117905550505050565b60006107bd6123d1565b8054909150610100900460ff16806107d75750805460ff16155b6107f35760405162461bcd60e51b81526004016105569061488a565b8054610100900460ff1615801561081b57815460ff1961ff0019909116610100171660011782555b610824836123f5565b801561083457815461ff00191682555b505050565b610853600080516020614e4c8339815191526103ff61160e565b61086f5760405162461bcd60e51b815260040161055690614957565b80610878611612565b80546001600160a01b0319166001600160a01b039290921691909117905550565b6108b3600080516020614e4c8339815191526103ff61160e565b6108cf5760405162461bcd60e51b815260040161055690614957565b806108d8611612565b60010180546001600160801b03928316600160801b02921691909117905550565b6000826001600160a01b031663dd62ed3e61091261160e565b306040518363ffffffff1660e01b81526004016109309291906142da565b60206040518083038186803b15801561094857600080fd5b505afa15801561095c573d6000803e3d6000fd5b505050506040513d601f19601f82011682018060405250810190610980919061416b565b9050818110156109a25760405162461bcd60e51b8152600401610556906147a4565b826001600160a01b03166323b872dd6109b961160e565b30856040518463ffffffff1660e01b81526004016109d9939291906142f4565b602060405180830381600087803b1580156109f357600080fd5b505af1158015610a07573d6000803e3d6000fd5b505050506040513d601f19601f82011682018060405250810190610a2b9190613e3b565b50604051632e1a7d4d60e01b81526001600160a01b03841690632e1a7d4d90610a589085906004016143a3565b600060405180830381600087803b158015610a7257600080fd5b505af1158015610a86573d6000803e3d6000fd5b50505050505050565b6000610a99611612565b600101546001600160801b031690505b90565b6000610ab6611612565b546001600160a01b0316905090565b610adf600080516020614da48339815191526103ff61160e565b610afb5760405162461bcd60e51b8152600401610556906147db565b610b03611636565b5460ff1615610b245760405162461bcd60e51b81526004016105569061445e565b6001610b2e611636565b805460ff19169115159190911790556000610b4c619c405a9061165a565b90506000806060610b5f88888888612470565b925092509250610b728884838786612630565b50505050600061079e611636565b600080516020614e4c83398151915281565b6000610b9c611612565b60010154600160801b90046001600160801b0316919050565b6000806060333014610bd95760405162461bcd60e51b81526004016105569061475b565b610be38787612860565b610c18604051806040016040528060148152602001734465636f64696e6720746172676574206172677360601b81525061293a565b6000806060610c2987890189613d68565b925092509250610c6e6040518060400160405280601a81526020017f417070726f76696e67207370656e6420666f72207461726765740000000000008152508361297d565b6000610c8060408c0160208d01613d4c565b6001600160a01b031663dd62ed3e30856040518363ffffffff1660e01b8152600401610cad9291906142da565b60206040518083038186803b158015610cc557600080fd5b505afa158015610cd9573d6000803e3d6000fd5b505050506040513d601f19601f82011682018060405250810190610cfd919061416b565b9050610d306040518060400160405280600f81526020016e5370656e6420616c6c6f77616e636560881b815250826129c2565b8015610da157610d7060405180604001604052806019815260200178302d696e67206f7574207370656e6420616c6c6f77616e636560381b81525061293a565b610d9c8360008d6020016000016020810190610d8c9190613d4c565b6001600160a01b03169190612a07565b610dc2565b610dc2604051806060016040528060278152602001614d5d6027913961293a565b610df583610dd660608e0160408f0161411c565b6001600160701b03168d6020016000016020810190610d8c9190613d4c565b610e296040518060400160405280601281526020017110d85b1b1a5b99c81cddd85c15185c99d95d60721b8152508561297d565b610e536040518060400160405280600881526020016711d85cc81b19599d60c21b8152505a6129c2565b60006060856001600160a01b03165a85604051610e7091906142aa565b60006040518083038160008787f1925050503d8060008114610eae576040519150601f19603f3d011682016040523d82523d6000602084013e610eb3565b606091505b509150915081610ed55760405162461bcd60e51b81526004016105569061465e565b600181806020019051810190610eeb919061416b565b604051806020016040528060008152509850985098505050505050505b9450945094915050565b610f2c600080516020614e4c8339815191526103ff61160e565b610f485760405162461bcd60e51b815260040161055690614957565b80610f51611612565b600201805460ff191660ff9290921691909117905550565b60006060333014610f8c5760405162461bcd60e51b81526004016105569061475b565b610fa4610f9e3688900388018861407c565b86612b01565b6000806060610fb586880188613d68565b925092509250610ffa6040518060400160405280601a81526020017f417070726f76696e67207370656e6420666f72207461726765740000000000008152508361297d565b600061100c60c08b0160a08c01613d4c565b6001600160a01b031663dd62ed3e30856040518363ffffffff1660e01b81526004016110399291906142da565b60206040518083038186803b15801561105157600080fd5b505afa158015611065573d6000803e3d6000fd5b505050506040513d601f19601f82011682018060405250810190611089919061416b565b90506110bc6040518060400160405280600f81526020016e5370656e6420616c6c6f77616e636560881b815250826129c2565b801561119a576110fc60405180604001604052806019815260200178302d696e67206f7574207370656e6420616c6c6f77616e636560381b81525061293a565b61110c60c08b0160a08c01613d4c565b6001600160a01b031663095ea7b38460006040518363ffffffff1660e01b815260040161113a929190614318565b602060405180830381600087803b15801561115457600080fd5b505af1158015611168573d6000803e3d6000fd5b505050506040513d601f19601f8201168201806040525081019061118c9190613e3b565b61119557600080fd5b6111bb565b6111bb604051806060016040528060278152602001614d5d6027913961293a565b6111cb60c08b0160a08c01613d4c565b6001600160a01b031663095ea7b3846111ea60e08e0160c08f0161411c565b6040518363ffffffff1660e01b8152600401611207929190614331565b602060405180830381600087803b15801561122157600080fd5b505af1158015611235573d6000803e3d6000fd5b505050506040513d601f19601f820116820180604052508101906112599190613e3b565b5061128e6040518060400160405280601281526020017110d85b1b1a5b99c81cddd85c15185c99d95d60721b8152508561297d565b60006060856001600160a01b03165a856040516112ab91906142aa565b60006040518083038160008787f1925050503d80600081146112e9576040519150601f19603f3d011682016040523d82523d6000602084013e6112ee565b606091505b50915091506112fc81612b7f565b816113195760405162461bcd60e51b81526004016105569061465e565b506040805160208101909152600081529096509450505050505b94509492505050565b6000611346611636565b604051630f40931b60e41b815273__$712f9bd20561de4f0bfbc1442284f16fb4$__9163f40931b09161138091908790879060040161497a565b60206040518083038186803b15801561139857600080fd5b505af41580156113ac573d6000803e3d6000fd5b505050506040513d601f19601f820116820180604052508101906113d09190613e3b565b90505b92915050565b60006113e3611612565b6002015460ff16905090565b611409600080516020614e4c8339815191526103ff61160e565b6114255760405162461bcd60e51b815260040161055690614957565b61143d600080516020614da4833981519152836114f4565b611455600080516020614da483398151915282611562565b5050565b611461613b87565b611469611612565b604051636d73f0db60e01b815273__$015d7794271f690550e5fe4793e4b79169$__91636d73f0db9161149f91906004016143a3565b60806040518083038186803b1580156114b757600080fd5b505af41580156114cb573d6000803e3d6000fd5b505050506040513d601f19601f820116820180604052508101906114ef9190613fb5565b905090565b61150e600080516020614e4c8339815191526103ff61160e565b61152a5760405162461bcd60e51b815260040161055690614957565b6114558282611537611636565b9190612bc2565b7f65d7a28e3265b37a6474929f336521b332c1681b933f6cb9f3376673440d862a81565b61157c600080516020614e4c8339815191526103ff61160e565b6115985760405162461bcd60e51b815260040161055690614957565b6114558282612bf1565b6115bc600080516020614e4c8339815191526103ff61160e565b6115d85760405162461bcd60e51b815260040161055690614957565b806115e1611612565b60010180546fffffffffffffffffffffffffffffffff19166001600160801b039290921691909117905550565b3390565b7ff5b4be0a744c821d14f78bf26d55a308f420d78cebbfac103f2618fba32917b990565b7f3a83b1278d351a40f18bb9e8e77896e8c1dc812ffaed5ea63e0e837a6dae57e990565b6000828201838110156113d05760405162461bcd60e51b8152600401610556906144a9565b611687613b05565b60a08201515182516040516370a0823160e01b81526000926001600160a01b0316916370a08231916116bc91906004016142c6565b60206040518083038186803b1580156116d457600080fd5b505afa1580156116e8573d6000803e3d6000fd5b505050506040513d601f19601f8201168201806040525081019061170c919061416b565b90508260a00151602001516001600160701b031681101561173f5760405162461bcd60e51b815260040161055690614712565b61174883612c05565b6117645760405162461bcd60e51b8152600401610556906146c7565b60405180608001604052808281526020018460c00151600001516001600160a01b03166370a08231306040518263ffffffff1660e01b81526004016117a991906142c6565b60206040518083038186803b1580156117c157600080fd5b505afa1580156117d5573d6000803e3d6000fd5b505050506040513d601f19601f820116820180604052508101906117f9919061416b565b81526020016000815260200160008152509150505b919050565b61181b613b2d565b8160a00151600001516001600160a01b031682602001516001600160a01b031614156119c75761187f6040518060400160405280601c81526020017f54616b696e67206665652066726f6d206f757470757420746f6b656e0000000081525061293a565b60008080611891858660800151612caa565b90925090506118bb6118a3838361165a565b60a0870151602001516001600160701b031690612f70565b92506119006040518060400160405280601081526020016f13db19081a5b9c1d5d08185b5bdd5b9d60821b8152508660a00151602001516001600160701b03166129c2565b6119326040518060400160405280601081526020016f13995dc81a5b9c1d5d08185b5bdd5b9d60821b815250846129c2565b50506040518060e0016040528084600001516001600160a01b0316815260200184602001516001600160a01b0316815260200184604001518152602001846060015181526020018460800151815260200160405180604001604052808660a00151600001516001600160a01b03168152602001846001600160701b031681525081526020018460c0015181525091505061180e565b5090565b600060603063904cd9f56119e2619c405a90612f70565b888888886040518663ffffffff1660e01b8152600401611a0594939291906149bb565b600060405180830381600088803b158015611a1f57600080fd5b5087f193505050508015611a5557506040513d6000823e601f3d908101601f19168201604052611a529190810190613e57565b60015b611ada57611a61614c00565b80611a6c5750611aa5565b60009250809150611a9f6040518060400160405280600a8152602001692330b4b62932b0b9b7b760b11b81525082612f98565b50611ad5565b50506040805180820190915260138152722ab735b737bbb7103330b4b6103932b0b9b7b760691b60208201526000905b611333565b81611b0b57611b0b6040518060400160405280600a8152602001692330b4b62932b0b9b7b760b11b81525082612f98565b9092509050611333565b60a08301515183516040516370a0823160e01b81526001600160a01b03909216916370a0823191611b48916004016142c6565b60206040518083038186803b158015611b6057600080fd5b505afa158015611b74573d6000803e3d6000fd5b505050506040513d601f19601f82011682018060405250810190611b98919061416b565b826040018181525050611bea60405180604001604052806016815260200175115e1c1958dd1959081bdd5d1c1d5d08185b5bdd5b9d60521b8152508460c00151602001516001600160701b03166129c2565b80611c4d57611c246040518060400160405280600f81526020016e24b7383aba103130b61030b33a32b960891b81525083604001516129c2565b8151604083015114611c485760405162461bcd60e51b815260040161055690614594565b610834565b60c0830151516040516370a0823160e01b81526001600160a01b03909116906370a0823190611c809030906004016142c6565b60206040518083038186803b158015611c9857600080fd5b505afa158015611cac573d6000803e3d6000fd5b505050506040513d601f19601f82011682018060405250810190611cd0919061416b565b60608301526040805180820190915260208082527f4f757470757420746f6b656e2062616c616e6365206265666f7265207377617081830152830151611d1691906129c2565b611d596040518060400160405280601981526020017f4f75747075742062616c616e636520616674657220737761700000000000000081525083606001516129c2565b611da260405180604001604052806016815260200175115e1c1958dd1959081bdd5d1c1d5d08185b5bdd5b9d60521b8152508460c00151602001516001600160701b03166129c2565b8260c00151602001516001600160701b0316611dcf83602001518460600151612f7090919063ffffffff16565b1015611ded5760405162461bcd60e51b8152600401610556906147fe565b60a083015160200151604083015183516001600160701b0390921691611e1291612f70565b11156108345760405162461bcd60e51b815260040161055690614627565b6000611e4961ea60611e435a8590612f70565b9061165a565b9050611e7b6040518060400160405280600e81526020016d151bdd185b0819d85cc81d5cd95960921b815250826129c2565b6000611e87823a612fdd565b9050611eb2604051806040016040528060078152602001664761732066656560c81b815250826129c2565b600080611ebf8985612caa565b9150915082471015611f3957611eec604051806060016040528060358152602001614df16035913961293a565b611ef461160e565b6001600160a01b03167f4c0d6a438f19dfe41befe161c0bfdfca9f674028133bbaf37749b2d12f8f0dda84604051611f2c91906143a3565b60405180910390a2612001565b611f776040518060400160405280601c81526020017f5472616e73666572696e67206761732066656520746f2072656c61790000000081525061293a565b611f7f61160e565b6001600160a01b03166108fc849081150290604051600060405180830381858888f19350505050158015611fb7573d6000803e3d6000fd5b50611fc061160e565b6001600160a01b03167f91d09af90b128f3fb2907042440a531bca49791232cd8f59e1c629d96247d05784604051611ff891906143a3565b60405180910390a25b6000886121795782905061203b6040518060400160405280600e81526020016d4661696c6564206761732066656560901b815250826129c2565b8960a00151600001516001600160a01b03168a602001516001600160a01b031614156120ea57612082604051806060016040528060408152602001614ced6040913961293a565b89516120aa90612090611612565b5460208d01516001600160a01b0390811692911684613017565b89600001516001600160a01b0316600080516020614d84833981519152898c60200151846040516120dd939291906143e9565b60405180910390a2612148565b61210b604051806080016040528060498152602001614e6c6049913961293a565b89600001516001600160a01b0316600080516020614d84833981519152898c60200151600060405161213f939291906143e9565b60405180910390a25b6121746040518060400160405280600b81526020016a14ddd85c0819985a5b195960aa1b81525061293a565b6123c5565b612183838361165a565b905060006121a288602001518960600151612f7090919063ffffffff16565b90506121d96040518060400160405280601381526020017211dc9bdcdcc81bdd5d1c1d5d08185b5bdd5b9d606a1b815250826129c2565b60008b60a00151600001516001600160a01b03168c602001516001600160a01b03161415612253578190506122266040518060600160405280602d8152602001614dc4602d9139846129c2565b8b5161224e90612234611612565b5460208f01516001600160a01b0390811692911686613017565b6122de565b61228c604051806040016040528060178152602001765265647563696e67206f7574707574206279206665657360481b815250846129c2565b6122968284612f70565b90506122ba604051806060016040528060268152602001614e2660269139846129c2565b6122de6122c5611612565b5460208e01516001600160a01b0390811691168561303e565b61231d6040518060400160405280601e81526020017f53656e64696e6720746f74616c206f757470757420746f207472616465720000815250826129c2565b8b5160c08d01515161233b916001600160a01b03909116908361303e565b8b600001516001600160a01b03167f3491be8ca1b3f4f9e7e74b9955a4600c2613ce85d639eaa123d5b733f59e93be8d60a0015160200151838f60200151898960405161238c959493929190614aee565b60405180910390a26123c26040518060400160405280600d81526020016c046696e6973686564207377617609c1b81525061293a565b50505b50505050505050505050565b7fd59dd79cfd4373c6c6547848d91fc2ea67c8aec9053f7028828216c5af1d474190565b6123fd611612565b6040516321cab0c760e01b815273__$015d7794271f690550e5fe4793e4b79169$__916321cab0c791612435919085906004016149a7565b60006040518083038186803b15801561244d57600080fd5b505af4158015612461573d6000803e3d6000fd5b5050505061246d61305d565b50565b6000806060306383a7fcfb612488619c405a90612f70565b898989896040518663ffffffff1660e01b81526004016124ab9493929190614a3a565b600060405180830381600088803b1580156124c557600080fd5b5087f1935050505080156124fb57506040513d6000823e601f3d908101601f191682016040526124f89190810190613ea6565b60015b6125f357612507614c00565b80612512575061257d565b6125406040518060400160405280600c81526020016b22b93937b9103a343937bbb760a11b81525082612f98565b60009350809150600092506125776040518060400160405280600a8152602001692330b4b62932b0b9b7b760b11b81525082612f98565b506125ee565b6125bb6040518060400160405280601881526020017f556e6b6e6f776e2070726f626c656d206f63637572726564000000000000000081525061293a565b50506040805180820190915260138152722ab735b737bbb7103330b4b6103932b0b9b7b760691b60208201526000915081905b610f08565b82612624576126246040518060400160405280600a8152602001692330b4b62932b0b9b7b760b11b81525082612f98565b91945092509050610f08565b61265b6040518060400160405280600981526020016853746172742067617360b81b815250836129c2565b6126856040518060400160405280600881526020016711d85cc81b19599d60c21b8152505a6129c2565b600061269861ea60611e435a8690612f70565b90506126ca6040518060400160405280600e81526020016d151bdd185b0819d85cc81d5cd95960921b815250826129c2565b60006126d6823a612fdd565b9050612701604051806040016040528060078152602001664761732066656560c81b815250826129c2565b804710156127775761272a604051806060016040528060358152602001614df16035913961293a565b61273261160e565b6001600160a01b03167f4c0d6a438f19dfe41befe161c0bfdfca9f674028133bbaf37749b2d12f8f0dda8260405161276a91906143a3565b60405180910390a261283f565b6127b56040518060400160405280601c81526020017f5472616e73666572696e67206761732066656520746f2072656c61790000000081525061293a565b6127bd61160e565b6001600160a01b03166108fc829081150290604051600060405180830381858888f193505050501580156127f5573d6000803e3d6000fd5b506127fe61160e565b6001600160a01b03167f91d09af90b128f3fb2907042440a531bca49791232cd8f59e1c629d96247d0578260405161283691906143a3565b60405180910390a25b856128565761284f878387613126565b50506106ad565b610a8687846132e0565b604080518082018252601e81527f5472616e73666572696e6720696e70757420666f722074726164696e673a000060208201526128b5916128a7906060860190860161411c565b6001600160701b03166129c2565b6129006128c56020840184613d4c565b306128d6606086016040870161411c565b6001600160701b03166128ef6040870160208801613d4c565b6001600160a01b0316929190613017565b60408051808201909152600f81526e115e1c1958dd1959081bdd5d1c1d5d608a1b6020820152611455906128a760a085016080860161411c565b61246d8160405160240161294e91906143ac565b60408051601f198184030181529190526020810180516001600160e01b031663104c13eb60e21b179052613782565b61145582826040516024016129939291906143bf565b60408051601f198184030181529190526020810180516001600160e01b031663319af33360e01b179052613782565b61145582826040516024016129d892919061443c565b60408051601f198184030181529190526020810180516001600160e01b0316632d839cb360e21b179052613782565b801580612a8f5750604051636eb1769f60e11b81526001600160a01b0384169063dd62ed3e90612a3d90309086906004016142da565b60206040518083038186803b158015612a5557600080fd5b505afa158015612a69573d6000803e3d6000fd5b505050506040513d601f19601f82011682018060405250810190612a8d919061416b565b155b612aab5760405162461bcd60e51b815260040161055690614901565b6108348363095ea7b360e01b8484604051602401612aca929190614318565b60408051601f198184030181529190526020810180516001600160e01b03166001600160e01b0319909316929092179091526137a3565b612b516040518060400160405280601e81526020017f5472616e73666572696e6720696e70757420666f722074726164696e673a00008152508360a00151602001516001600160701b03166129c2565b815160a083015160208101519051611455926001600160a01b039091169130906001600160701b0316613017565b61246d81604051602401612b9391906143ac565b60408051601f198184030181529190526020810180516001600160e01b03166305f3bfab60e11b179052613782565b60009182526001909201602090815260408083206001600160a01b03909416835292905220805460ff19169055565b6114558282612bfe611636565b9190613832565b60a0810151602081015190518251604051636eb1769f60e11b815260009384936001600160701b03909116926001600160a01b039091169163dd62ed3e91612c519130906004016142da565b60206040518083038186803b158015612c6957600080fd5b505afa158015612c7d573d6000803e3d6000fd5b505050506040513d601f19601f82011682018060405250810190612ca1919061416b565b10159392505050565b600080612ce7604051806040016040528060198152602001782d2d2d2d20436f6d707574696e672046656573202d2d2d2d2d60381b81525061293a565b604080518082019091526012815271115cdd1a5b585d19590819d85cc818dbdcdd60721b60208201523a840290612d1e90826129c2565b600085602001516001600160a01b031663313ce5676040518163ffffffff1660e01b815260040160206040518083038186803b158015612d5d57600080fd5b505afa158015612d71573d6000803e3d6000fd5b505050506040513d601f19601f82011682018060405250810190612d95919061419f565b60ff169050612dbe8660400151612db883600a0a85612fdd90919063ffffffff16565b90613865565b9350612dfa6040518060400160405280601881526020017723b0b9903837b93a34b7b71034b7103332b2903a37b5b2b760411b815250856129c2565b612e36604051806040016040528060168152602001754f72646572206e61746976652055534420707269636560501b81525087606001516129c2565b612e796040518060400160405280601c81526020017f4f726465722066656520746f6b656e206e61746976652070726963650000000081525087604001516129c2565b6000612e9687604001518860600151612fdd90919063ffffffff16565b9050612ed060405180604001604052806016815260200175119959481d1bdad95b881c1c9a58d9481a5b881554d160521b815250826129c2565b612ef981612db884602401600a0a612ee6611612565b600101546001600160801b031690612fdd565b9350612f286040518060400160405280600b81526020016a44657869626c652066656560a81b815250856129c2565b612f666040518060400160405280601a81526020017f2d2d2d2d20456e6420636f6d707574652066656573202d2d2d2d00000000000081525061293a565b5050509250929050565b600082821115612f925760405162461bcd60e51b8152600401610556906144e0565b50900390565b6114558282604051602401612fae929190614417565b60408051601f198184030181529190526020810180516001600160e01b0316634b5c427760e01b179052613782565b600082612fec575060006113d3565b82820282848281612ff957fe5b04146113d05760405162461bcd60e51b815260040161055690614686565b613038846323b872dd60e01b858585604051602401612aca939291906142f4565b50505050565b6108348363a9059cbb60e01b8484604051602401612aca929190614318565b60006130676123d1565b8054909150610100900460ff16806130815750805460ff16155b61309d5760405162461bcd60e51b81526004016105569061488a565b8054610100900460ff161580156130c557815460ff1961ff0019909116610100171660011782555b60006130cf61160e565b90506130e9600080516020614e4c83398151915282612bf1565b6131137f65d7a28e3265b37a6474929f336521b332c1681b933f6cb9f3376673440d862a82612bf1565b5080156114555750805461ff0019169055565b60006131328484613897565b90506131646040518060400160405280600e81526020016d4661696c6564206761732066656560901b815250826129c2565b6131746040850160208601613d4c565b6001600160a01b031661318d60c0860160a08701613d4c565b6001600160a01b03161415613243576131bd604051806060016040528060408152602001614ced6040913961293a565b6131f06131cd6020860186613d4c565b6131d5611612565b546001600160a01b0316836128ef60c0890160a08a01613d4c565b6131fd6020850185613d4c565b6001600160a01b0316600080516020614d848339815191528361322660c0880160a08901613d4c565b84604051613236939291906143e9565b60405180910390a26132b4565b613264604051806080016040528060498152602001614e6c6049913961293a565b6132716020850185613d4c565b6001600160a01b0316600080516020614d848339815191528361329a60c0880160a08901613d4c565b60006040516132ab939291906143e9565b60405180910390a25b6130386040518060400160405280600b81526020016a14ddd85c0819985a5b195960aa1b81525061293a565b60408051808201909152601381527211dc9bdcdcc81bdd5d1c1d5d08185b5bdd5b9d606a1b6020820152819061331690826129c2565b600080613335610140860135611e4361012088013560e089013561165a565b90506133476040860160208701613d4c565b6001600160a01b031661336060c0870160a08801613d4c565b6001600160a01b031614156134ca57829150613394604051806060016040528060378152602001614eb560379139826129c2565b60e08501351561347f576133e46040518060400160405280602081526020017f5472616e7366657272696e6720616d6f756e7420746f20616666696c696174658152508660a001604001356129c2565b6134196133f46020870187613d4c565b61340460e0880160c08901613d4c565b60e08801356128ef60c08a0160a08b01613d4c565b61342960e0860160c08701613d4c565b6001600160a01b03167f1fd11cde99de9e2e6d2bc710c225ae2e03d1e8eece69b0c552c7ae2bb3499a7061346360c0880160a08901613d4c565b604051613476919060e08a013590614318565b60405180910390a25b6134c561348f6020870187613d4c565b613497611612565b546001600160a01b03166134b56101208901356101408a013561165a565b6128ef60c08a0160a08b01613d4c565b613658565b613503604051806040016040528060178152602001765265647563696e67206f7574707574206279206665657360481b815250826129c2565b61350d8382612f70565b915060e0850135156135fd5761355f6040518060400160405280602081526020017f5472616e7366657272696e6720616d6f756e7420746f20616666696c696174658152508660a001604001356129c2565b61359761357260e0870160c08801613d4c565b60e087013561358760c0890160a08a01613d4c565b6001600160a01b0316919061303e565b6135a760e0860160c08701613d4c565b6001600160a01b03167f1fd11cde99de9e2e6d2bc710c225ae2e03d1e8eece69b0c552c7ae2bb3499a706135e160c0880160a08901613d4c565b6040516135f4919060e08a013590614318565b60405180910390a25b61361f604051806060016040528060308152602001614d2d60309139826129c2565b61365861362a611612565b546001600160a01b031661364861012088013561014089013561165a565b61358760c0890160a08a01613d4c565b6136976040518060400160405280601e81526020017f53656e64696e6720746f74616c206f757470757420746f207472616465720000815250836129c2565b6136b86136a76020870187613d4c565b836135876080890160608a01613d4c565b6136c860e0860160c08701613d4c565b6001600160a01b03166136de6020870187613d4c565b6001600160a01b03167f729e31e77c59767ea792c7ae2063c6e4275684ac458cfddba999d2f7a78a1fa06137186060890160408a0161411c565b8561372960c08b0160a08c01613d4c565b60405161374c939291906101408d01359060e08e0135906101208f013590614b25565b60405180910390a36106ad6040518060400160405280600d81526020016c046696e6973686564207377617609c1b81525061293a565b80516a636f6e736f6c652e6c6f67602083016000808483855afa5050505050565b60606137f8826040518060400160405280602081526020017f5361666545524332303a206c6f772d6c6576656c2063616c6c206661696c6564815250856001600160a01b03166139ec9092919063ffffffff16565b80519091501561083457808060200190518101906138169190613e3b565b6108345760405162461bcd60e51b8152600401610556906148b7565b60009182526001928301602090815260408084206001600160a01b0390931684529190529020805460ff19169091179055565b60008082116138865760405162461bcd60e51b81526004016105569061455d565b81838161388f57fe5b049392505050565b60006138d3604051806040016040528060198152602001782d2d2d2d20436f6d707574696e672046656573202d2d2d2d2d60381b81525061293a565b604080518082019091526012815271115cdd1a5b585d19590819d85cc818dbdcdd60721b60208201523a83029061390a90826129c2565b600061391c60c0860160a08701613d4c565b6001600160a01b031663313ce5676040518163ffffffff1660e01b815260040160206040518083038186803b15801561395457600080fd5b505afa158015613968573d6000803e3d6000fd5b505050506040513d601f19601f8201168201806040525081019061398c919061419f565b60ff1690506139a8610100860135612db884600a85900a612fdd565b92506139e46040518060400160405280601881526020017723b0b9903837b93a34b7b71034b7103332b2903a37b5b2b760411b815250846129c2565b505092915050565b60606139fb8484600085613a05565b90505b9392505050565b606082471015613a275760405162461bcd60e51b815260040161055690614517565b613a3085613ac6565b613a4c5760405162461bcd60e51b815260040161055690614853565b60006060866001600160a01b03168587604051613a6991906142aa565b60006040518083038185875af1925050503d8060008114613aa6576040519150601f19603f3d011682016040523d82523d6000602084013e613aab565b606091505b5091509150613abb828286613acc565b979650505050505050565b3b151590565b60608315613adb5750816139fe565b825115613aeb5782518084602001fd5b8160405162461bcd60e51b815260040161055691906143ac565b6040518060800160405280600081526020016000815260200160008152602001600081525090565b6040518060e0016040528060006001600160a01b0316815260200160006001600160a01b03168152602001600081526020016000815260200160008152602001613b75613bae565b8152602001613b82613bae565b905290565b60408051608081018252600080825260208201819052918101829052606081019190915290565b604080518082019091526000808252602082015290565b60008083601f840112613bd6578182fd5b50813567ffffffffffffffff811115613bed578182fd5b602083019150836020828501011115613c0557600080fd5b9250929050565b600082601f830112613c1c578081fd5b8151613c2f613c2a82614baa565b614b83565b9150808252836020828501011115613c4657600080fd5b613c57816020840160208601614bce565b5092915050565b60006101208284031215613c70578081fd5b613c7a60e0614b83565b90508135613c8781614ca5565b81526020820135613c9781614ca5565b80602083015250604082013560408201526060820135606082015260808201356080820152613cc98360a08401613ce6565b60a0820152613cdb8360e08401613ce6565b60c082015292915050565b600060408284031215613cf7578081fd5b613d016040614b83565b90508135613d0e81614ca5565b815260208201356001600160701b0381168114613d2a57600080fd5b602082015292915050565b80356001600160701b03811681146113d357600080fd5b600060208284031215613d5d578081fd5b81356113d081614ca5565b600080600060608486031215613d7c578182fd5b8335613d8781614ca5565b92506020840135613d9781614ca5565b9150604084013567ffffffffffffffff811115613db2578182fd5b8401601f81018613613dc2578182fd5b8035613dd0613c2a82614baa565b818152876020838501011115613de4578384fd5b8160208401602083013783602083830101528093505050509250925092565b60008060408385031215613e15578182fd5b8235613e2081614ca5565b91506020830135613e3081614ca5565b809150509250929050565b600060208284031215613e4c578081fd5b81516113d081614cba565b60008060408385031215613e69578182fd5b8251613e7481614cba565b602084015190925067ffffffffffffffff811115613e90578182fd5b613e9c85828601613c0c565b9150509250929050565b600080600060608486031215613eba578081fd5b8351613ec581614cba565b60208501516040860151919450925067ffffffffffffffff811115613ee8578182fd5b613ef486828701613c0c565b9150509250925092565b60008060408385031215613f10578182fd5b823591506020830135613e3081614ca5565b60008060408385031215613f34578182fd5b8235613f3f81614ca5565b946020939093013593505050565b600060808284031215613f5e578081fd5b613f686080614b83565b8235613f7381614ca5565b81526020830135613f8381614cc8565b60208201526040830135613f9681614cc8565b60408201526060830135613fa981614cdd565b60608201529392505050565b600060808284031215613fc6578081fd5b613fd06080614b83565b8251613fdb81614ca5565b81526020830151613feb81614cc8565b60208201526040830151613ffe81614cc8565b60408201526060830151613fa981614cdd565b600080600080848603610160811215614028578283fd5b61012080821215614037578384fd5b869550850135905061404881614ca5565b925061014085013567ffffffffffffffff811115614064578283fd5b61407087828801613bc5565b95989497509550505050565b6000610120828403121561408e578081fd5b6113d08383613c5e565b60008060008061016085870312156140ae578182fd5b6140b88686613c5e565b935061012085013561404881614ca5565b6000806000808486036101a08112156140e0578283fd5b610160808212156140ef578384fd5b869550850135905061410081614ca5565b925061018085013567ffffffffffffffff811115614064578283fd5b60006020828403121561412d578081fd5b6113d08383613d35565b600060208284031215614148578081fd5b81356113d081614cc8565b600060208284031215614164578081fd5b5035919050565b60006020828403121561417c578081fd5b5051919050565b600060208284031215614194578081fd5b81356113d081614cdd565b6000602082840312156141b0578081fd5b81516113d081614cdd565b60008284528282602086013780602084860101526020601f19601f85011685010190509392505050565b600081518084526141fd816020860160208601614bce565b601f01601f19169290920160200192915050565b80516001600160a01b031682526020808201516001600160801b03908116918401919091526040808301519091169083015260609081015160ff16910152565b803561425c81614ca5565b6001600160a01b031682526001600160701b0361427f6040830160208401613d35565b1660208301525050565b80516001600160a01b031682526020908101516001600160701b0316910152565b600082516142bc818460208701614bce565b9190910192915050565b6001600160a01b0391909116815260200190565b6001600160a01b0392831681529116602082015260400190565b6001600160a01b039384168152919092166020820152604081019190915260600190565b6001600160a01b03929092168252602082015260400190565b6001600160a01b039290921682526001600160701b0316602082015260400190565b901515815260200190565b60008315158252604060208301526139fb60408301846141e5565b600084151582528360208301526060604083015261439a60608301846141e5565b95945050505050565b90815260200190565b6000602082526113d060208301846141e5565b6000604082526143d260408301856141e5565b905060018060a01b03831660208301529392505050565b6000606082526143fc60608301866141e5565b6001600160a01b039490941660208301525060400152919050565b60006040825261442a60408301856141e5565b828103602084015261439a81856141e5565b60006040825261444f60408301856141e5565b90508260208301529392505050565b6020808252602b908201527f417474656d7074696e6720746f2072652d656e7465722066756e6374696f6e2060408201526a7265637572736976656c7960a81b606082015260800190565b6020808252601b908201527f536166654d6174683a206164646974696f6e206f766572666c6f770000000000604082015260600190565b6020808252601e908201527f536166654d6174683a207375627472616374696f6e206f766572666c6f770000604082015260600190565b60208082526026908201527f416464726573733a20696e73756666696369656e742062616c616e636520666f6040820152651c8818d85b1b60d21b606082015260800190565b6020808252601a908201527f536166654d6174683a206469766973696f6e206279207a65726f000000000000604082015260600190565b6020808252602e908201527f6661696c656420747261646520616374696f6e20646964206e6f74207265667560408201526d6e6420696e7075742066756e647360901b606082015260800190565b60208082526025908201527f496e73756666696369656e742062616c616e636520746f206d616b65207472616040820152643739b332b960d91b606082015260800190565b6020808252601a908201527f5573656420746f6f206d616e7920696e70757420746f6b656e73000000000000604082015260600190565b6020808252600e908201526d04661696c656420746f20737761760941b604082015260600190565b60208082526021908201527f536166654d6174683a206d756c7469706c69636174696f6e206f766572666c6f6040820152607760f81b606082015260800190565b6020808252602b908201527f496e73756666696369656e74207370656e6420616c6c6f77616e6365206f6e2060408201526a34b7383aba103a37b5b2b760a91b606082015260800190565b60208082526029908201527f496e73756666696369656e7420696e70757420746f6b656e2062616c616e636560408201526820746f20747261646560b81b606082015260800190565b60208082526029908201527f43616e206f6e6c792062652063616c6c656420627920736574746c656d656e746040820152680818dbdb9d1c9858dd60ba1b606082015260800190565b6020808252601c908201527f496e73756666696369656e74207370656e6420616c6c6f77616e636500000000604082015260600190565b6020808252600990820152684e6f742072656c617960b81b604082015260600190565b60208082526035908201527f547261646520616374696f6e20646964206e6f74207472616e73666572206f756040820152743a383aba103a37b5b2b739903a37903a3930b232b960591b606082015260800190565b6020808252601d908201527f416464726573733a2063616c6c20746f206e6f6e2d636f6e7472616374000000604082015260600190565b602080825260139082015272105b1c9958591e481a5b9a5d1a585b1a5e9959606a1b604082015260600190565b6020808252602a908201527f5361666545524332303a204552433230206f7065726174696f6e20646964206e6040820152691bdd081cdd58d8d9595960b21b606082015260800190565b60208082526036908201527f5361666545524332303a20617070726f76652066726f6d206e6f6e2d7a65726f60408201527520746f206e6f6e2d7a65726f20616c6c6f77616e636560501b606082015260800190565b6020808252600990820152682737ba1030b236b4b760b91b604082015260600190565b92835260208301919091526001600160a01b0316604082015260600190565b608081016113d38284614211565b82815260a081016139fe6020830184614211565b600061016060018060a01b0380885116845280602089015116602085015260408801516040850152606088015160608501526080880151608085015260a0880151614a0960a0860182614289565b5060c0880151614a1c60e0860182614289565b5086166101208401526101408301819052613abb81840185876141bb565b60006101a08635614a4a81614ca5565b6001600160a01b038181168552614a676020808701908b01614251565b614a776060860160608b01614251565b60a08901359150614a8782614ca5565b90811660a085015260c088013590614a9e82614ca5565b90811660c085015260e0888101359085015261010080890135908501526101208089013590850152610140808901359085015286166101608401526101808301819052613abb81840185876141bb565b6001600160701b0395909516855260208501939093526001600160a01b039190911660408401526060830152608082015260a00190565b6001600160701b0396909616865260208601949094526001600160a01b039290921660408501526060840152608083015260a082015260c00190565b6001600160801b0391909116815260200190565b60ff91909116815260200190565b60405181810167ffffffffffffffff81118282101715614ba257600080fd5b604052919050565b600067ffffffffffffffff821115614bc0578081fd5b50601f01601f191660200190565b60005b83811015614be9578181015183820152602001614bd1565b838111156130385750506000910152565b60e01c90565b600060443d1015614c1057610aa9565b600481823e6308c379a0614c248251614bfa565b14614c2e57610aa9565b6040513d600319016004823e80513d67ffffffffffffffff8160248401118184111715614c5e5750505050610aa9565b82840192508251915080821115614c785750505050610aa9565b503d83016020828401011115614c9057505050610aa9565b601f01601f1916810160200160405291505090565b6001600160a01b038116811461246d57600080fd5b801515811461246d57600080fd5b6001600160801b038116811461246d57600080fd5b60ff8116811461246d57600080fdfe5472616e7366657272696e67207061727469616c20696e70757420746f6b656e20746f206465767465616d20666f72206661696c75726520676173206665657353656e64696e6720666565732066726f6d206f757470757420746f6b656e20746f207465616d2f616666696c69617465546f6b656e207370656e6420646f6573206e6f74206e65656420746f20626520302764206f75749f52afa9b861b0c4b200f58dace31f1f5776b94207a3047c075d6a087e25de5e077a1d526a4ce8a773632ab13b4fbbf1fcc954c3dab26cd27ea0e2a6750da5d75472616e7366657272696e6720666565732066726f6d20696e70757420746f6b656e20746f206465765465616d43616e6e6f74207265696d62757273652072656c61792073696e636520646f206e6f74206861766520656e6f7567682066756e647353656e64696e6720666565732066726f6d206f757470757420746f6b656e20746f207465616da49807205ce4d355092ef5a8a18f56e8913cf4a201fbe287825b095693c2177546656520746f6b656e206973206f75747075743b207468657265666f72652063616e6e6f74207265696d6275727365207465616d20666f72206661696c7572652067617320666565735472616e7366657272696e6720666565732066726f6d20696e70757420746f6b656e20746f206465765465616d2f616666696c69617465a26469706673582212203e695802048b0b09dc410b569bce00d4ec45d758a46d79cfc4b8d9473a56039364736f6c63430007000033",
  "libraries": {
    "ProxyAdmin": "0x71eEC1AECD2255b85eadD7130fA05a4941362E3c",
    "SettlementAdmin": "0x71eEC1AECD2255b85eadD7130fA05a4941362E3c",
    "LibAccess": "0x38f87b748B2aa4D844d2DbEC8DE68C1E0cD7c405",
    "LibConfig": "0x452D44067caC9B1e1153FdDFa95d76D6d9aF441A"
  },
  "devdoc": {
    "kind": "dev",
    "methods": {},
    "version": 1
  },
  "userdoc": {
    "kind": "user",
    "methods": {
      "depositWNative(address,uint256)": {
        "notice": "Team's ability to deposit native token into this contract using wrapped  native asset allowance"
      },
      "fill((address,address,uint256,uint256,uint256,(address,uint112),(address,uint112)),address,bytes)": {
        "notice": "Fill an order using the given router and forwarded call data."
      },
      "getConfig()": {
        "notice": "Get the current configuration struct"
      },
      "getDevTeam()": {
        "notice": "Get the dev team wallet/multi-sig address"
      },
      "getLockoutBlocks()": {
        "notice": "Get the number of blocks to wait before trader can withdraw gas tank funds  marked for withdraw."
      },
      "getMinFee()": {
        "notice": "Get the minimum fee required for all orders"
      },
      "getPenaltyFee()": {
        "notice": "Get the penalty fee to asses when trader removes tokens or funds after Dexible submits orders on-chain."
      },
      "setConfig((address,uint128,uint128,uint8))": {
        "notice": "Set the current configuration as a bulk setting"
      },
      "setDevTeam(address)": {
        "notice": "Set the dev team wallet/multi-sig address"
      },
      "setLockoutBlocks(uint8)": {
        "notice": "Set the number of blocks to wait before thawed withdraws are allowed"
      },
      "setMinFee(uint128)": {
        "notice": "Set the minimum fee for an order execution"
      },
      "setPenaltyFee(uint128)": {
        "notice": "Set the penalty assessed when a user removes tokens or gas tank funds"
      },
      "withdraw(uint256)": {
        "notice": "Team's ability to withdraw ETH balance from the contract."
      }
    },
    "version": 1
  },
  "storageLayout": {
    "storage": [],
    "types": null
  }
}