{
  "address": "0x63eFaC6BeE3E9B636381FF30d018D7929ad77230",
  "abi": [
    {
      "anonymous": false,
      "inputs": [
        {
          "indexed": true,
          "internalType": "address",
          "name": "relay",
          "type": "address"
        },
        {
          "indexed": false,
          "internalType": "uint256",
          "name": "amount",
          "type": "uint256"
        }
      ],
      "name": "InsufficientGasFunds",
      "type": "event"
    },
    {
      "anonymous": false,
      "inputs": [
        {
          "indexed": true,
          "internalType": "address",
          "name": "relay",
          "type": "address"
        },
        {
          "indexed": false,
          "internalType": "uint256",
          "name": "amount",
          "type": "uint256"
        }
      ],
      "name": "PaidGasFunds",
      "type": "event"
    },
    {
      "anonymous": false,
      "inputs": [
        {
          "indexed": true,
          "internalType": "address",
          "name": "sender",
          "type": "address"
        },
        {
          "indexed": false,
          "internalType": "uint256",
          "name": "amount",
          "type": "uint256"
        }
      ],
      "name": "ReceivedETH",
      "type": "event"
    },
    {
      "anonymous": false,
      "inputs": [
        {
          "indexed": true,
          "internalType": "address",
          "name": "trader",
          "type": "address"
        },
        {
          "indexed": false,
          "internalType": "string",
          "name": "reason",
          "type": "string"
        },
        {
          "indexed": false,
          "internalType": "contract IERC20",
          "name": "feeToken",
          "type": "address"
        },
        {
          "indexed": false,
          "internalType": "uint256",
          "name": "gasFeePaid",
          "type": "uint256"
        }
      ],
      "name": "SwapFailed",
      "type": "event"
    },
    {
      "anonymous": false,
      "inputs": [
        {
          "indexed": true,
          "internalType": "address",
          "name": "trader",
          "type": "address"
        },
        {
          "indexed": false,
          "internalType": "uint256",
          "name": "inputAmount",
          "type": "uint256"
        },
        {
          "indexed": false,
          "internalType": "uint256",
          "name": "outputAmount",
          "type": "uint256"
        },
        {
          "indexed": false,
          "internalType": "contract IERC20",
          "name": "feeToken",
          "type": "address"
        },
        {
          "indexed": false,
          "internalType": "uint256",
          "name": "gasFee",
          "type": "uint256"
        },
        {
          "indexed": false,
          "internalType": "uint256",
          "name": "dexibleFee",
          "type": "uint256"
        }
      ],
      "name": "SwapSuccess",
      "type": "event"
    },
    {
      "anonymous": false,
      "inputs": [
        {
          "indexed": true,
          "internalType": "address",
          "name": "trader",
          "type": "address"
        },
        {
          "indexed": false,
          "internalType": "uint256",
          "name": "penalty",
          "type": "uint256"
        },
        {
          "indexed": false,
          "internalType": "uint256",
          "name": "gasPaid",
          "type": "uint256"
        },
        {
          "indexed": false,
          "internalType": "string",
          "name": "reason",
          "type": "string"
        }
      ],
      "name": "TraderPenalized",
      "type": "event"
    },
    {
      "anonymous": false,
      "inputs": [
        {
          "indexed": true,
          "internalType": "address",
          "name": "receiver",
          "type": "address"
        },
        {
          "indexed": false,
          "internalType": "uint256",
          "name": "amount",
          "type": "uint256"
        }
      ],
      "name": "WithdrewETH",
      "type": "event"
    },
    {
      "inputs": [],
      "name": "ACTION_ROLE",
      "outputs": [
        {
          "internalType": "bytes32",
          "name": "",
          "type": "bytes32"
        }
      ],
      "stateMutability": "view",
      "type": "function"
    },
    {
      "inputs": [],
      "name": "ADMIN_ROLE",
      "outputs": [
        {
          "internalType": "bytes32",
          "name": "",
          "type": "bytes32"
        }
      ],
      "stateMutability": "view",
      "type": "function"
    },
    {
      "inputs": [],
      "name": "PAUSER_ROLE",
      "outputs": [
        {
          "internalType": "bytes32",
          "name": "",
          "type": "bytes32"
        }
      ],
      "stateMutability": "view",
      "type": "function"
    },
    {
      "inputs": [],
      "name": "RELAY_ROLE",
      "outputs": [
        {
          "internalType": "bytes32",
          "name": "",
          "type": "bytes32"
        }
      ],
      "stateMutability": "view",
      "type": "function"
    },
    {
      "inputs": [
        {
          "components": [
            {
              "internalType": "address",
              "name": "trader",
              "type": "address"
            },
            {
              "internalType": "contract IERC20",
              "name": "feeToken",
              "type": "address"
            },
            {
              "internalType": "uint256",
              "name": "feeTokenETHPrice",
              "type": "uint256"
            },
            {
              "internalType": "uint256",
              "name": "ethUSDPrice",
              "type": "uint256"
            },
            {
              "internalType": "uint256",
              "name": "gasEstimate",
              "type": "uint256"
            },
            {
              "components": [
                {
                  "internalType": "contract IERC20",
                  "name": "token",
                  "type": "address"
                },
                {
                  "internalType": "uint112",
                  "name": "amount",
                  "type": "uint112"
                }
              ],
              "internalType": "struct Types.TokenAmount",
              "name": "input",
              "type": "tuple"
            },
            {
              "components": [
                {
                  "internalType": "contract IERC20",
                  "name": "token",
                  "type": "address"
                },
                {
                  "internalType": "uint112",
                  "name": "amount",
                  "type": "uint112"
                }
              ],
              "internalType": "struct Types.TokenAmount",
              "name": "output",
              "type": "tuple"
            }
          ],
          "internalType": "struct Types.Order",
          "name": "order",
          "type": "tuple"
        },
        {
          "internalType": "contract IDexRouter",
          "name": "router",
          "type": "address"
        },
        {
          "internalType": "bytes",
          "name": "data",
          "type": "bytes"
        }
      ],
      "name": "_trySwap",
      "outputs": [
        {
          "internalType": "bool",
          "name": "success",
          "type": "bool"
        },
        {
          "internalType": "string",
          "name": "failReason",
          "type": "string"
        }
      ],
      "stateMutability": "nonpayable",
      "type": "function"
    },
    {
      "inputs": [
        {
          "internalType": "bytes32",
          "name": "role",
          "type": "bytes32"
        },
        {
          "internalType": "address",
          "name": "actor",
          "type": "address"
        }
      ],
      "name": "addRole",
      "outputs": [],
      "stateMutability": "nonpayable",
      "type": "function"
    },
    {
      "inputs": [
        {
          "components": [
            {
              "internalType": "address",
              "name": "trader",
              "type": "address"
            },
            {
              "internalType": "contract IERC20",
              "name": "feeToken",
              "type": "address"
            },
            {
              "internalType": "uint256",
              "name": "feeTokenETHPrice",
              "type": "uint256"
            },
            {
              "internalType": "uint256",
              "name": "ethUSDPrice",
              "type": "uint256"
            },
            {
              "internalType": "uint256",
              "name": "gasEstimate",
              "type": "uint256"
            },
            {
              "components": [
                {
                  "internalType": "contract IERC20",
                  "name": "token",
                  "type": "address"
                },
                {
                  "internalType": "uint112",
                  "name": "amount",
                  "type": "uint112"
                }
              ],
              "internalType": "struct Types.TokenAmount",
              "name": "input",
              "type": "tuple"
            },
            {
              "components": [
                {
                  "internalType": "contract IERC20",
                  "name": "token",
                  "type": "address"
                },
                {
                  "internalType": "uint112",
                  "name": "amount",
                  "type": "uint112"
                }
              ],
              "internalType": "struct Types.TokenAmount",
              "name": "output",
              "type": "tuple"
            }
          ],
          "internalType": "struct Types.Order",
          "name": "order",
          "type": "tuple"
        },
        {
          "internalType": "contract IDexRouter",
          "name": "router",
          "type": "address"
        },
        {
          "internalType": "bytes",
          "name": "data",
          "type": "bytes"
        }
      ],
      "name": "fill",
      "outputs": [],
      "stateMutability": "nonpayable",
      "type": "function"
    },
    {
      "inputs": [],
      "name": "getConfig",
      "outputs": [
        {
          "components": [
            {
              "internalType": "address",
              "name": "devTeam",
              "type": "address"
            },
            {
              "internalType": "uint128",
              "name": "minFee",
              "type": "uint128"
            },
            {
              "internalType": "uint128",
              "name": "penaltyFee",
              "type": "uint128"
            },
            {
              "internalType": "uint8",
              "name": "lockoutBlocks",
              "type": "uint8"
            }
          ],
          "internalType": "struct Types.Config",
          "name": "",
          "type": "tuple"
        }
      ],
      "stateMutability": "view",
      "type": "function"
    },
    {
      "inputs": [],
      "name": "getDevTeam",
      "outputs": [
        {
          "internalType": "address",
          "name": "",
          "type": "address"
        }
      ],
      "stateMutability": "view",
      "type": "function"
    },
    {
      "inputs": [],
      "name": "getLockoutBlocks",
      "outputs": [
        {
          "internalType": "uint8",
          "name": "",
          "type": "uint8"
        }
      ],
      "stateMutability": "view",
      "type": "function"
    },
    {
      "inputs": [],
      "name": "getMinFee",
      "outputs": [
        {
          "internalType": "uint128",
          "name": "",
          "type": "uint128"
        }
      ],
      "stateMutability": "view",
      "type": "function"
    },
    {
      "inputs": [],
      "name": "getPenaltyFee",
      "outputs": [
        {
          "internalType": "uint128",
          "name": "",
          "type": "uint128"
        }
      ],
      "stateMutability": "view",
      "type": "function"
    },
    {
      "inputs": [
        {
          "internalType": "bytes32",
          "name": "role",
          "type": "bytes32"
        },
        {
          "internalType": "address",
          "name": "actor",
          "type": "address"
        }
      ],
      "name": "hasRole",
      "outputs": [
        {
          "internalType": "bool",
          "name": "",
          "type": "bool"
        }
      ],
      "stateMutability": "view",
      "type": "function"
    },
    {
      "inputs": [
        {
          "components": [
            {
              "internalType": "address",
              "name": "devTeam",
              "type": "address"
            },
            {
              "internalType": "uint128",
              "name": "minFee",
              "type": "uint128"
            },
            {
              "internalType": "uint128",
              "name": "penaltyFee",
              "type": "uint128"
            },
            {
              "internalType": "uint8",
              "name": "lockoutBlocks",
              "type": "uint8"
            }
          ],
          "internalType": "struct Types.Config",
          "name": "config",
          "type": "tuple"
        }
      ],
      "name": "initialize",
      "outputs": [],
      "stateMutability": "nonpayable",
      "type": "function"
    },
    {
      "inputs": [
        {
          "internalType": "bytes32",
          "name": "role",
          "type": "bytes32"
        },
        {
          "internalType": "address",
          "name": "actor",
          "type": "address"
        }
      ],
      "name": "revokeRole",
      "outputs": [],
      "stateMutability": "nonpayable",
      "type": "function"
    },
    {
      "inputs": [
        {
          "components": [
            {
              "internalType": "address",
              "name": "devTeam",
              "type": "address"
            },
            {
              "internalType": "uint128",
              "name": "minFee",
              "type": "uint128"
            },
            {
              "internalType": "uint128",
              "name": "penaltyFee",
              "type": "uint128"
            },
            {
              "internalType": "uint8",
              "name": "lockoutBlocks",
              "type": "uint8"
            }
          ],
          "internalType": "struct Types.Config",
          "name": "config",
          "type": "tuple"
        }
      ],
      "name": "setConfig",
      "outputs": [],
      "stateMutability": "nonpayable",
      "type": "function"
    },
    {
      "inputs": [
        {
          "internalType": "address",
          "name": "team",
          "type": "address"
        }
      ],
      "name": "setDevTeam",
      "outputs": [],
      "stateMutability": "nonpayable",
      "type": "function"
    },
    {
      "inputs": [
        {
          "internalType": "uint8",
          "name": "blocks",
          "type": "uint8"
        }
      ],
      "name": "setLockoutBlocks",
      "outputs": [],
      "stateMutability": "nonpayable",
      "type": "function"
    },
    {
      "inputs": [
        {
          "internalType": "uint128",
          "name": "fee",
          "type": "uint128"
        }
      ],
      "name": "setMinFee",
      "outputs": [],
      "stateMutability": "nonpayable",
      "type": "function"
    },
    {
      "inputs": [
        {
          "internalType": "uint128",
          "name": "fee",
          "type": "uint128"
        }
      ],
      "name": "setPenaltyFee",
      "outputs": [],
      "stateMutability": "nonpayable",
      "type": "function"
    },
    {
      "inputs": [
        {
          "internalType": "address",
          "name": "oldRelay",
          "type": "address"
        },
        {
          "internalType": "address",
          "name": "newRelay",
          "type": "address"
        }
      ],
      "name": "swapRelay",
      "outputs": [],
      "stateMutability": "nonpayable",
      "type": "function"
    },
    {
      "inputs": [
        {
          "internalType": "uint256",
          "name": "amount",
          "type": "uint256"
        }
      ],
      "name": "withdraw",
      "outputs": [],
      "stateMutability": "nonpayable",
      "type": "function"
    },
    {
      "stateMutability": "payable",
      "type": "receive"
    }
  ],
  "transactionHash": "0xc08a3dd511c9b6e406743ae3d0b358f109815a014579d16ee8794e8e9a9c3211",
  "args": [],
  "solcInputHash": "62cb41be5d77ba81a0b63a9d917a0272",
  "bytecode": "0x608060405234801561001057600080fd5b506135fd806100206000396000f3fe6080604052600436106101395760003560e01c806377550610116100ab578063c13da0181161006f578063c13da01814610393578063c3f909d4146103b3578063d547741f146103d5578063e63ab1e9146103f5578063e959b38a1461040a578063f102669b1461042a57610181565b806377550610146102e15780638d3403fd146102f6578063904cd9f51461031657806391d1485414610344578063b1cf4b0c1461037157610181565b80633f51e182116100fd5780633f51e1821461022857806340ee75bb146102485780634e1c6829146102685780635cf34bcf146102885780636a9447b5146102aa57806375b238fc146102cc57610181565b8063044218231461018657806327054df6146101b15780632e1a7d4d146101c6578063334c3c65146101e85780633d191fa81461020857610181565b3661018157336001600160a01b03167f4103257eaac983ca79a70d28f90dfc4fa16b619bb0c17ee7cab0d4034c279624346040516101779190612ca1565b60405180910390a2005b600080fd5b34801561019257600080fd5b5061019b61044a565b6040516101a89190612ca1565b60405180910390f35b3480156101bd57600080fd5b5061019b61045c565b3480156101d257600080fd5b506101e66101e1366004612ab3565b610480565b005b3480156101f457600080fd5b506101e66102033660046128f4565b61056b565b34801561021457600080fd5b506101e6610223366004612a3f565b610614565b34801561023457600080fd5b506101e66102433660046128f4565b610713565b34801561025457600080fd5b506101e6610263366004612737565b610799565b34801561027457600080fd5b506101e6610283366004612a97565b6107f9565b34801561029457600080fd5b5061029d610859565b6040516101a891906132eb565b3480156102b657600080fd5b506102bf610876565b6040516101a89190612bee565b3480156102d857600080fd5b5061019b61088f565b3480156102ed57600080fd5b5061029d6108a1565b34801561030257600080fd5b506101e6610311366004612ae3565b6108c4565b34801561032257600080fd5b506103366103313660046129b8565b61091b565b6040516101a8929190612c86565b34801561035057600080fd5b5061036461035f3660046128d0565b610bc0565b6040516101a89190612c7b565b34801561037d57600080fd5b50610386610c5d565b6040516101a891906132ff565b34801561039f57600080fd5b506101e66103ae3660046127f3565b610c73565b3480156103bf57600080fd5b506103c8610cdd565b6040516101a89190613213565b3480156103e157600080fd5b506101e66103f03660046128d0565b610d78565b34801561040157600080fd5b5061019b610dc2565b34801561041657600080fd5b506101e66104253660046128d0565b610de6565b34801561043657600080fd5b506101e6610445366004612a97565b610e26565b6000805160206134b783398151915281565b7fd95061bdf0c43d77b6cbe1c15072292976244ec8d5012de75baa36e42da4625e81565b61049a60008051602061355f83398151915261035f610e92565b6104bf5760405162461bcd60e51b81526004016104b6906131d1565b60405180910390fd5b478111156104df5760405162461bcd60e51b81526004016104b690612ee9565b6104e7610e92565b6001600160a01b03166108fc829081150290604051600060405180830381858888f1935050505015801561051f573d6000803e3d6000fd5b50610528610e92565b6001600160a01b03167faa21a47bc8f0df1a253be34a945b1d0a8f458e4da029c0ab59c1fee1e488c066826040516105609190612ca1565b60405180910390a250565b61058560008051602061355f83398151915261035f610e92565b6105a15760405162461bcd60e51b81526004016104b6906131d1565b6105a9610e96565b6040516321cab0c760e01b8152733C50fCD9c79A17751870c5d293bf6b6765E530f4916321cab0c7916105e191908590600401613221565b60006040518083038186803b1580156105f957600080fd5b505af415801561060d573d6000803e3d6000fd5b5050505050565b61062e6000805160206134b783398151915261035f610e92565b61064a5760405162461bcd60e51b81526004016104b6906130ab565b610652610eba565b5460ff16156106735760405162461bcd60e51b81526004016104b690612d65565b600161067d610eba565b805460ff1916911515919091179055600061069b61d6d85a90610ede565b90506106a5612559565b6106ae86610f03565b90506106b8612581565b6106c187611097565b9050600060606106d38389898961124f565b915091506106e2898584611399565b6106ef8983838789611650565b505050505060006106fe610eba565b805460ff191691151591909117905550505050565b600061071d611c1c565b8054909150610100900460ff16806107375750805460ff16155b6107535760405162461bcd60e51b81526004016104b69061315a565b8054610100900460ff1615801561077b57815460ff1961ff0019909116610100171660011782555b61078483611c40565b801561079457815461ff00191682555b505050565b6107b360008051602061355f83398151915261035f610e92565b6107cf5760405162461bcd60e51b81526004016104b6906131d1565b806107d8610e96565b80546001600160a01b0319166001600160a01b039290921691909117905550565b61081360008051602061355f83398151915261035f610e92565b61082f5760405162461bcd60e51b81526004016104b6906131d1565b80610838610e96565b60010180546001600160801b03928316600160801b02921691909117905550565b6000610863610e96565b600101546001600160801b031690505b90565b6000610880610e96565b546001600160a01b0316905090565b60008051602061355f83398151915281565b60006108ab610e96565b60010154600160801b90046001600160801b0316919050565b6108de60008051602061355f83398151915261035f610e92565b6108fa5760405162461bcd60e51b81526004016104b6906131d1565b80610903610e96565b600201805460ff191660ff9290921691909117905550565b6000606033301461093e5760405162461bcd60e51b81526004016104b690613062565b61095661095036889003880188612a23565b86611cbb565b600080606061096786880188612753565b9250925092506109ac6040518060400160405280601a81526020017f417070726f76696e67207370656e6420666f722074617267657400000000000081525083611d39565b6109bc60c08a0160a08b01612737565b6001600160a01b031663095ea7b38360006040518363ffffffff1660e01b81526004016109ea929190612c40565b602060405180830381600087803b158015610a0457600080fd5b505af1158015610a18573d6000803e3d6000fd5b505050506040513d601f19601f82011682018060405250810190610a3c919061282b565b610a4557600080fd5b610a5560c08a0160a08b01612737565b6001600160a01b031663095ea7b383610a7460e08d0160c08e01612a70565b6040518363ffffffff1660e01b8152600401610a91929190612c59565b602060405180830381600087803b158015610aab57600080fd5b505af1158015610abf573d6000803e3d6000fd5b505050506040513d601f19601f82011682018060405250810190610ae3919061282b565b610aec57600080fd5b610b206040518060400160405280601281526020017110d85b1b1a5b99c81cddd85c15185c99d95d60721b81525084611d39565b6000836001600160a01b03165a83604051610b3b9190612bd2565b60006040518083038160008787f1925050503d8060008114610b79576040519150601f19603f3d011682016040523d82523d6000602084013e610b7e565b606091505b5050905080610b9f5760405162461bcd60e51b81526004016104b690612f65565b60408051602081019091526000815290955093505050505b94509492505050565b6000610bca610eba565b604051630f40931b60e41b815273824Ac211d63D628546c255aAABE124f1c4089C5D9163f40931b091610c049190879087906004016131f4565b60206040518083038186803b158015610c1c57600080fd5b505af4158015610c30573d6000803e3d6000fd5b505050506040513d601f19601f82011682018060405250810190610c54919061282b565b90505b92915050565b6000610c67610e96565b6002015460ff16905090565b610c8d60008051602061355f83398151915261035f610e92565b610ca95760405162461bcd60e51b81526004016104b6906131d1565b610cc16000805160206134b783398151915283610d78565b610cd96000805160206134b783398151915282610de6565b5050565b610ce56125db565b610ced610e96565b604051636d73f0db60e01b8152733C50fCD9c79A17751870c5d293bf6b6765E530f491636d73f0db91610d239190600401612ca1565b60806040518083038186803b158015610d3b57600080fd5b505af4158015610d4f573d6000803e3d6000fd5b505050506040513d601f19601f82011682018060405250810190610d73919061295c565b905090565b610d9260008051602061355f83398151915261035f610e92565b610dae5760405162461bcd60e51b81526004016104b6906131d1565b610cd98282610dbb610eba565b9190611d7e565b7f65d7a28e3265b37a6474929f336521b332c1681b933f6cb9f3376673440d862a81565b610e0060008051602061355f83398151915261035f610e92565b610e1c5760405162461bcd60e51b81526004016104b6906131d1565b610cd98282611dad565b610e4060008051602061355f83398151915261035f610e92565b610e5c5760405162461bcd60e51b81526004016104b6906131d1565b80610e65610e96565b60010180546fffffffffffffffffffffffffffffffff19166001600160801b039290921691909117905550565b3390565b7ff5b4be0a744c821d14f78bf26d55a308f420d78cebbfac103f2618fba32917b990565b7f3a83b1278d351a40f18bb9e8e77896e8c1dc812ffaed5ea63e0e837a6dae57e990565b600082820183811015610c545760405162461bcd60e51b81526004016104b690612db0565b610f0b612559565b60a08201515182516040516370a0823160e01b81526000926001600160a01b0316916370a0823191610f409190600401612bee565b60206040518083038186803b158015610f5857600080fd5b505afa158015610f6c573d6000803e3d6000fd5b505050506040513d601f19601f82011682018060405250810190610f909190612acb565b90508260a00151602001516001600160701b0316811015610fc35760405162461bcd60e51b81526004016104b690613019565b610fcc83611dc1565b610fe85760405162461bcd60e51b81526004016104b690612fce565b60405180608001604052808281526020018460c00151600001516001600160a01b03166370a08231306040518263ffffffff1660e01b815260040161102d9190612bee565b60206040518083038186803b15801561104557600080fd5b505afa158015611059573d6000803e3d6000fd5b505050506040513d601f19601f8201168201806040525081019061107d9190612acb565b81526020016000815260200160008152509150505b919050565b61109f612581565b8160a00151600001516001600160a01b031682602001516001600160a01b0316141561124b576111036040518060400160405280601c81526020017f54616b696e67206665652066726f6d206f757470757420746f6b656e00000000815250611e66565b60008080611115858660800151611ea9565b909250905061113f6111278383610ede565b60a0870151602001516001600160701b0316906120f9565b92506111846040518060400160405280601081526020016f13db19081a5b9c1d5d08185b5bdd5b9d60821b8152508660a00151602001516001600160701b0316612121565b6111b66040518060400160405280601081526020016f13995dc81a5b9c1d5d08185b5bdd5b9d60821b81525084612121565b50506040518060e0016040528084600001516001600160a01b0316815260200184602001516001600160a01b0316815260200184604001518152602001846060015181526020018460800151815260200160405180604001604052808660a00151600001516001600160a01b03168152602001846001600160701b031681525081526020018460c00151815250915050611092565b5090565b600060603063904cd9f5611266619c405a906120f9565b888888886040518663ffffffff1660e01b81526004016112899493929190613235565b600060405180830381600088803b1580156112a357600080fd5b5087f1935050505080156112d957506040513d6000823e601f3d908101601f191682016040526112d69190810190612847565b60015b61135e576112e561338a565b806112f05750611329565b600092508091506113236040518060400160405280600a8152602001692330b4b62932b0b9b7b760b11b81525082612166565b50611359565b50506040805180820190915260138152722ab735b737bbb7103330b4b6103932b0b9b7b760691b60208201526000905b610bb7565b8161138f5761138f6040518060400160405280600a8152602001692330b4b62932b0b9b7b760b11b81525082612166565b9092509050610bb7565b60a08301515183516040516370a0823160e01b81526001600160a01b03909216916370a08231916113cc91600401612bee565b60206040518083038186803b1580156113e457600080fd5b505afa1580156113f8573d6000803e3d6000fd5b505050506040513d601f19601f8201168201806040525081019061141c9190612acb565b6040830152806114b6576114586040518060400160405280600c81526020016b125b9c1d5d0818985b08188d60a21b8152508360000151612121565b61148d6040518060400160405280600f81526020016e24b7383aba103130b61030b33a32b960891b8152508360400151612121565b81516040830151146114b15760405162461bcd60e51b81526004016104b690612e9b565b610794565b60c0830151516040516370a0823160e01b81526001600160a01b03909116906370a08231906114e9903090600401612bee565b60206040518083038186803b15801561150157600080fd5b505afa158015611515573d6000803e3d6000fd5b505050506040513d601f19601f820116820180604052508101906115399190612acb565b60608301526040805180820190915260208082527f4f757470757420746f6b656e2062616c616e6365206265666f726520737761708183015283015161157f9190612121565b6115c26040518060400160405280601981526020017f4f75747075742062616c616e63652061667465722073776170000000000000008152508360600151612121565b8260c00151602001516001600160701b03166115ef836020015184606001516120f990919063ffffffff16565b101561160d5760405162461bcd60e51b81526004016104b6906130ce565b60a083015160200151604083015183516001600160701b0390921691611632916120f9565b11156107945760405162461bcd60e51b81526004016104b690612f2e565b600061166a620138806116645a85906120f9565b90610ede565b905061169c6040518060400160405280600e81526020016d151bdd185b0819d85cc81d5cd95960921b81525082612121565b60006116a8823a6121ab565b90506116d3604051806040016040528060078152602001664761732066656560c81b81525082612121565b6000806116e08985611ea9565b915091508247101561175a5761170d60405180606001604052806035815260200161350460359139611e66565b611715610e92565b6001600160a01b03167f4c0d6a438f19dfe41befe161c0bfdfca9f674028133bbaf37749b2d12f8f0dda8460405161174d9190612ca1565b60405180910390a2611822565b6117986040518060400160405280601c81526020017f5472616e73666572696e67206761732066656520746f2072656c617900000000815250611e66565b6117a0610e92565b6001600160a01b03166108fc849081150290604051600060405180830381858888f193505050501580156117d8573d6000803e3d6000fd5b506117e1610e92565b6001600160a01b03167f91d09af90b128f3fb2907042440a531bca49791232cd8f59e1c629d96247d057846040516118199190612ca1565b60405180910390a25b6000886119be5782905061185c6040518060400160405280600e81526020016d4661696c6564206761732066656560901b81525082612121565b8960a00151600001516001600160a01b03168a602001516001600160a01b0316141561191d576118a360405180606001604052806040815260200161347760409139611e66565b89516118cb906118b1610e96565b5460208d01516001600160a01b03908116929116846121e5565b89600001516001600160a01b03167f9f52afa9b861b0c4b200f58dace31f1f5776b94207a3047c075d6a087e25de5e898c602001518460405161191093929190612ce7565b60405180910390a261198d565b61193e60405180608001604052806049815260200161357f60499139611e66565b89600001516001600160a01b03167f9f52afa9b861b0c4b200f58dace31f1f5776b94207a3047c075d6a087e25de5e898c60200151600060405161198493929190612ce7565b60405180910390a25b6119b96040518060400160405280600b81526020016a14ddd85c0819985a5b195960aa1b815250611e66565b611c10565b6119c88383610ede565b905060006119e7886020015189606001516120f990919063ffffffff16565b9050611a1e6040518060400160405280601381526020017211dc9bdcdcc81bdd5d1c1d5d08185b5bdd5b9d606a1b81525082612121565b60008b60a00151600001516001600160a01b03168c602001516001600160a01b03161415611a9857819050611a6b6040518060600160405280602d81526020016134d7602d913984612121565b8b51611a9390611a79610e96565b5460208f01516001600160a01b03908116929116866121e5565b611b29565b611ad76040518060400160405280601781526020017f5265647563696e67206f7574707574206279206665657300000000000000000081525084612121565b611ae182846120f9565b9050611b056040518060600160405280602681526020016135396026913984612121565b611b29611b10610e96565b5460208e01516001600160a01b03908116911685612243565b611b686040518060400160405280601e81526020017f53656e64696e6720746f74616c206f757470757420746f20747261646572000081525082612121565b8b5160c08d015151611b86916001600160a01b039091169083612243565b8b600001516001600160a01b03167f3491be8ca1b3f4f9e7e74b9955a4600c2613ce85d639eaa123d5b733f59e93be8d60a0015160200151838f602001518989604051611bd79594939291906132b4565b60405180910390a2611c0d6040518060400160405280600d81526020016c046696e6973686564207377617609c1b815250611e66565b50505b50505050505050505050565b7fd59dd79cfd4373c6c6547848d91fc2ea67c8aec9053f7028828216c5af1d474190565b611c48610e96565b6040516321cab0c760e01b8152733C50fCD9c79A17751870c5d293bf6b6765E530f4916321cab0c791611c8091908590600401613221565b60006040518083038186803b158015611c9857600080fd5b505af4158015611cac573d6000803e3d6000fd5b50505050611cb8612262565b50565b611d0b6040518060400160405280601e81526020017f5472616e73666572696e6720696e70757420666f722074726164696e673a00008152508360a00151602001516001600160701b0316612121565b815160a083015160208101519051610cd9926001600160a01b039091169130906001600160701b03166121e5565b610cd98282604051602401611d4f929190612cbd565b60408051601f198184030181529190526020810180516001600160e01b031663319af33360e01b17905261232b565b60009182526001909201602090815260408083206001600160a01b03909416835292905220805460ff19169055565b610cd98282611dba610eba565b919061234c565b60a0810151602081015190518251604051636eb1769f60e11b815260009384936001600160701b03909116926001600160a01b039091169163dd62ed3e91611e0d913090600401612c02565b60206040518083038186803b158015611e2557600080fd5b505afa158015611e39573d6000803e3d6000fd5b505050506040513d601f19601f82011682018060405250810190611e5d9190612acb565b10159392505050565b611cb881604051602401611e7a9190612caa565b60408051601f198184030181529190526020810180516001600160e01b031663104c13eb60e21b17905261232b565b600080611eea6040518060400160405280601981526020017f2d2d2d2d20436f6d707574696e672046656573202d2d2d2d2d00000000000000815250611e66565b604080518082019091526012815271115cdd1a5b585d19590819d85cc818dbdcdd60721b60208201523a840290611f219082612121565b600085602001516001600160a01b031663313ce5676040518163ffffffff1660e01b815260040160206040518083038186803b158015611f6057600080fd5b505afa158015611f74573d6000803e3d6000fd5b505050506040513d601f19601f82011682018060405250810190611f989190612aff565b60ff169050611fc18660400151611fbb83600a0a856121ab90919063ffffffff16565b9061237f565b93506120026040518060400160405280601881526020017f47617320706f7274696f6e20696e2066656520746f6b656e000000000000000081525085612121565b600061201f876040015188606001516121ab90919063ffffffff16565b905061205960405180604001604052806016815260200175119959481d1bdad95b881c1c9a58d9481a5b881554d160521b81525082612121565b61208281611fbb84602401600a0a61206f610e96565b600101546001600160801b0316906121ab565b93506120b16040518060400160405280600b81526020016a44657869626c652066656560a81b81525085612121565b6120ef6040518060400160405280601a81526020017f2d2d2d2d20456e6420636f6d707574652066656573202d2d2d2d000000000000815250611e66565b5050509250929050565b60008282111561211b5760405162461bcd60e51b81526004016104b690612de7565b50900390565b610cd98282604051602401612137929190612d43565b60408051601f198184030181529190526020810180516001600160e01b03166309710a9d60e41b17905261232b565b610cd9828260405160240161217c929190612d15565b60408051601f198184030181529190526020810180516001600160e01b0316634b5c427760e01b17905261232b565b6000826121ba57506000610c57565b828202828482816121c757fe5b0414610c545760405162461bcd60e51b81526004016104b690612f8d565b61223d846323b872dd60e01b85858560405160240161220693929190612c1c565b60408051601f198184030181529190526020810180516001600160e01b03166001600160e01b0319909316929092179091526123b1565b50505050565b6107948363a9059cbb60e01b8484604051602401612206929190612c40565b600061226c611c1c565b8054909150610100900460ff16806122865750805460ff16155b6122a25760405162461bcd60e51b81526004016104b69061315a565b8054610100900460ff161580156122ca57815460ff1961ff0019909116610100171660011782555b60006122d4610e92565b90506122ee60008051602061355f83398151915282611dad565b6123187f65d7a28e3265b37a6474929f336521b332c1681b933f6cb9f3376673440d862a82611dad565b508015610cd95750805461ff0019169055565b80516a636f6e736f6c652e6c6f67602083016000808483855afa5050505050565b60009182526001928301602090815260408084206001600160a01b0390931684529190529020805460ff19169091179055565b60008082116123a05760405162461bcd60e51b81526004016104b690612e64565b8183816123a957fe5b049392505050565b6060612406826040518060400160405280602081526020017f5361666545524332303a206c6f772d6c6576656c2063616c6c206661696c6564815250856001600160a01b03166124409092919063ffffffff16565b8051909150156107945780806020019051810190612424919061282b565b6107945760405162461bcd60e51b81526004016104b690613187565b606061244f8484600085612459565b90505b9392505050565b60608247101561247b5760405162461bcd60e51b81526004016104b690612e1e565b6124848561251a565b6124a05760405162461bcd60e51b81526004016104b690613123565b60006060866001600160a01b031685876040516124bd9190612bd2565b60006040518083038185875af1925050503d80600081146124fa576040519150601f19603f3d011682016040523d82523d6000602084013e6124ff565b606091505b509150915061250f828286612520565b979650505050505050565b3b151590565b6060831561252f575081612452565b82511561253f5782518084602001fd5b8160405162461bcd60e51b81526004016104b69190612caa565b6040518060800160405280600081526020016000815260200160008152602001600081525090565b6040518060e0016040528060006001600160a01b0316815260200160006001600160a01b031681526020016000815260200160008152602001600081526020016125c9612602565b81526020016125d6612602565b905290565b60408051608081018252600080825260208201819052918101829052606081019190915290565b604080518082019091526000808252602082015290565b60008083601f84011261262a578182fd5b50813567ffffffffffffffff811115612641578182fd5b60208301915083602082850101111561265957600080fd5b9250929050565b60006101208284031215612672578081fd5b61267c60e061330d565b905081356126898161342f565b815260208201356126998161342f565b806020830152506040820135604082015260608201356060820152608082013560808201526126cb8360a084016126e8565b60a08201526126dd8360e084016126e8565b60c082015292915050565b6000604082840312156126f9578081fd5b612703604061330d565b905081356127108161342f565b815260208201356001600160701b038116811461272c57600080fd5b602082015292915050565b600060208284031215612748578081fd5b8135610c548161342f565b600080600060608486031215612767578182fd5b83356127728161342f565b925060208401356127828161342f565b9150604084013567ffffffffffffffff81111561279d578182fd5b8401601f810186136127ad578182fd5b80356127c06127bb82613334565b61330d565b8181528760208385010111156127d4578384fd5b8160208401602083013783602083830101528093505050509250925092565b60008060408385031215612805578182fd5b82356128108161342f565b915060208301356128208161342f565b809150509250929050565b60006020828403121561283c578081fd5b8151610c5481613444565b60008060408385031215612859578182fd5b825161286481613444565b602084015190925067ffffffffffffffff811115612880578182fd5b8301601f81018513612890578182fd5b805161289e6127bb82613334565b8181528660208385010111156128b2578384fd5b6128c3826020830160208601613358565b8093505050509250929050565b600080604083850312156128e2578182fd5b8235915060208301356128208161342f565b600060808284031215612905578081fd5b61290f608061330d565b823561291a8161342f565b8152602083013561292a81613452565b6020820152604083013561293d81613452565b6040820152606083013561295081613467565b60608201529392505050565b60006080828403121561296d578081fd5b612977608061330d565b82516129828161342f565b8152602083015161299281613452565b602082015260408301516129a581613452565b6040820152606083015161295081613467565b6000806000808486036101608112156129cf578283fd5b610120808212156129de578384fd5b86955085013590506129ef8161342f565b925061014085013567ffffffffffffffff811115612a0b578283fd5b612a1787828801612619565b95989497509550505050565b60006101208284031215612a35578081fd5b610c548383612660565b6000806000806101608587031215612a55578182fd5b612a5f8686612660565b93506101208501356129ef8161342f565b600060208284031215612a81578081fd5b81356001600160701b0381168114610c54578182fd5b600060208284031215612aa8578081fd5b8135610c5481613452565b600060208284031215612ac4578081fd5b5035919050565b600060208284031215612adc578081fd5b5051919050565b600060208284031215612af4578081fd5b8135610c5481613467565b600060208284031215612b10578081fd5b8151610c5481613467565b60008284528282602086013780602084860101526020601f19601f85011685010190509392505050565b60008151808452612b5d816020860160208601613358565b601f01601f19169290920160200192915050565b80516001600160a01b031682526020808201516001600160801b03908116918401919091526040808301519091169083015260609081015160ff16910152565b80516001600160a01b031682526020908101516001600160701b0316910152565b60008251612be4818460208701613358565b9190910192915050565b6001600160a01b0391909116815260200190565b6001600160a01b0392831681529116602082015260400190565b6001600160a01b039384168152919092166020820152604081019190915260600190565b6001600160a01b03929092168252602082015260400190565b6001600160a01b039290921682526001600160701b0316602082015260400190565b901515815260200190565b600083151582526040602083015261244f6040830184612b45565b90815260200190565b600060208252610c546020830184612b45565b600060408252612cd06040830185612b45565b905060018060a01b03831660208301529392505050565b600060608252612cfa6060830186612b45565b6001600160a01b039490941660208301525060400152919050565b600060408252612d286040830185612b45565b8281036020840152612d3a8185612b45565b95945050505050565b600060408252612d566040830185612b45565b90508260208301529392505050565b6020808252602b908201527f417474656d7074696e6720746f2072652d656e7465722066756e6374696f6e2060408201526a7265637572736976656c7960a81b606082015260800190565b6020808252601b908201527f536166654d6174683a206164646974696f6e206f766572666c6f770000000000604082015260600190565b6020808252601e908201527f536166654d6174683a207375627472616374696f6e206f766572666c6f770000604082015260600190565b60208082526026908201527f416464726573733a20696e73756666696369656e742062616c616e636520666f6040820152651c8818d85b1b60d21b606082015260800190565b6020808252601a908201527f536166654d6174683a206469766973696f6e206279207a65726f000000000000604082015260600190565b6020808252602e908201527f6661696c656420747261646520616374696f6e20646964206e6f74207265667560408201526d6e6420696e7075742066756e647360901b606082015260800190565b60208082526025908201527f496e73756666696369656e742062616c616e636520746f206d616b65207472616040820152643739b332b960d91b606082015260800190565b6020808252601a908201527f5573656420746f6f206d616e7920696e70757420746f6b656e73000000000000604082015260600190565b6020808252600e908201526d04661696c656420746f20737761760941b604082015260600190565b60208082526021908201527f536166654d6174683a206d756c7469706c69636174696f6e206f766572666c6f6040820152607760f81b606082015260800190565b6020808252602b908201527f496e73756666696369656e74207370656e6420616c6c6f77616e6365206f6e2060408201526a34b7383aba103a37b5b2b760a91b606082015260800190565b60208082526029908201527f496e73756666696369656e7420696e70757420746f6b656e2062616c616e636560408201526820746f20747261646560b81b606082015260800190565b60208082526029908201527f43616e206f6e6c792062652063616c6c656420627920736574746c656d656e746040820152680818dbdb9d1c9858dd60ba1b606082015260800190565b6020808252600990820152684e6f742072656c617960b81b604082015260600190565b60208082526035908201527f547261646520616374696f6e20646964206e6f74207472616e73666572206f756040820152743a383aba103a37b5b2b739903a37903a3930b232b960591b606082015260800190565b6020808252601d908201527f416464726573733a2063616c6c20746f206e6f6e2d636f6e7472616374000000604082015260600190565b602080825260139082015272105b1c9958591e481a5b9a5d1a585b1a5e9959606a1b604082015260600190565b6020808252602a908201527f5361666545524332303a204552433230206f7065726174696f6e20646964206e6040820152691bdd081cdd58d8d9595960b21b606082015260800190565b6020808252600990820152682737ba1030b236b4b760b91b604082015260600190565b92835260208301919091526001600160a01b0316604082015260600190565b60808101610c578284612b71565b82815260a081016124526020830184612b71565b600061016060018060a01b0380885116845280602089015116602085015260408801516040850152606088015160608501526080880151608085015260a088015161328360a0860182612bb1565b5060c088015161329660e0860182612bb1565b508616610120840152610140830181905261250f8184018587612b1b565b6001600160701b0395909516855260208501939093526001600160a01b039190911660408401526060830152608082015260a00190565b6001600160801b0391909116815260200190565b60ff91909116815260200190565b60405181810167ffffffffffffffff8111828210171561332c57600080fd5b604052919050565b600067ffffffffffffffff82111561334a578081fd5b50601f01601f191660200190565b60005b8381101561337357818101518382015260200161335b565b8381111561223d5750506000910152565b60e01c90565b600060443d101561339a57610873565b600481823e6308c379a06133ae8251613384565b146133b857610873565b6040513d600319016004823e80513d67ffffffffffffffff81602484011181841117156133e85750505050610873565b828401925082519150808211156134025750505050610873565b503d8301602082840101111561341a57505050610873565b601f01601f1916810160200160405291505090565b6001600160a01b0381168114611cb857600080fd5b8015158114611cb857600080fd5b6001600160801b0381168114611cb857600080fd5b60ff81168114611cb857600080fdfe5472616e7366657272696e67207061727469616c20696e70757420746f6b656e20746f206465767465616d20666f72206661696c757265206761732066656573077a1d526a4ce8a773632ab13b4fbbf1fcc954c3dab26cd27ea0e2a6750da5d75472616e7366657272696e6720666565732066726f6d20696e70757420746f6b656e20746f206465765465616d43616e6e6f74207265696d62757273652072656c61792073696e636520646f206e6f74206861766520656e6f7567682066756e647353656e64696e6720666565732066726f6d206f757470757420746f6b656e20746f207465616da49807205ce4d355092ef5a8a18f56e8913cf4a201fbe287825b095693c2177546656520746f6b656e206973206f75747075743b207468657265666f72652063616e6e6f74207265696d6275727365207465616d20666f72206661696c757265206761732066656573a264697066735822122013ef48d45ba37222c3e22989becc59166c9863a6d8df764d3f053f31cbd281a564736f6c63430007000033",
  "deployedBytecode": "0x6080604052600436106101395760003560e01c806377550610116100ab578063c13da0181161006f578063c13da01814610393578063c3f909d4146103b3578063d547741f146103d5578063e63ab1e9146103f5578063e959b38a1461040a578063f102669b1461042a57610181565b806377550610146102e15780638d3403fd146102f6578063904cd9f51461031657806391d1485414610344578063b1cf4b0c1461037157610181565b80633f51e182116100fd5780633f51e1821461022857806340ee75bb146102485780634e1c6829146102685780635cf34bcf146102885780636a9447b5146102aa57806375b238fc146102cc57610181565b8063044218231461018657806327054df6146101b15780632e1a7d4d146101c6578063334c3c65146101e85780633d191fa81461020857610181565b3661018157336001600160a01b03167f4103257eaac983ca79a70d28f90dfc4fa16b619bb0c17ee7cab0d4034c279624346040516101779190612ca1565b60405180910390a2005b600080fd5b34801561019257600080fd5b5061019b61044a565b6040516101a89190612ca1565b60405180910390f35b3480156101bd57600080fd5b5061019b61045c565b3480156101d257600080fd5b506101e66101e1366004612ab3565b610480565b005b3480156101f457600080fd5b506101e66102033660046128f4565b61056b565b34801561021457600080fd5b506101e6610223366004612a3f565b610614565b34801561023457600080fd5b506101e66102433660046128f4565b610713565b34801561025457600080fd5b506101e6610263366004612737565b610799565b34801561027457600080fd5b506101e6610283366004612a97565b6107f9565b34801561029457600080fd5b5061029d610859565b6040516101a891906132eb565b3480156102b657600080fd5b506102bf610876565b6040516101a89190612bee565b3480156102d857600080fd5b5061019b61088f565b3480156102ed57600080fd5b5061029d6108a1565b34801561030257600080fd5b506101e6610311366004612ae3565b6108c4565b34801561032257600080fd5b506103366103313660046129b8565b61091b565b6040516101a8929190612c86565b34801561035057600080fd5b5061036461035f3660046128d0565b610bc0565b6040516101a89190612c7b565b34801561037d57600080fd5b50610386610c5d565b6040516101a891906132ff565b34801561039f57600080fd5b506101e66103ae3660046127f3565b610c73565b3480156103bf57600080fd5b506103c8610cdd565b6040516101a89190613213565b3480156103e157600080fd5b506101e66103f03660046128d0565b610d78565b34801561040157600080fd5b5061019b610dc2565b34801561041657600080fd5b506101e66104253660046128d0565b610de6565b34801561043657600080fd5b506101e6610445366004612a97565b610e26565b6000805160206134b783398151915281565b7fd95061bdf0c43d77b6cbe1c15072292976244ec8d5012de75baa36e42da4625e81565b61049a60008051602061355f83398151915261035f610e92565b6104bf5760405162461bcd60e51b81526004016104b6906131d1565b60405180910390fd5b478111156104df5760405162461bcd60e51b81526004016104b690612ee9565b6104e7610e92565b6001600160a01b03166108fc829081150290604051600060405180830381858888f1935050505015801561051f573d6000803e3d6000fd5b50610528610e92565b6001600160a01b03167faa21a47bc8f0df1a253be34a945b1d0a8f458e4da029c0ab59c1fee1e488c066826040516105609190612ca1565b60405180910390a250565b61058560008051602061355f83398151915261035f610e92565b6105a15760405162461bcd60e51b81526004016104b6906131d1565b6105a9610e96565b6040516321cab0c760e01b815273__$015d7794271f690550e5fe4793e4b79169$__916321cab0c7916105e191908590600401613221565b60006040518083038186803b1580156105f957600080fd5b505af415801561060d573d6000803e3d6000fd5b5050505050565b61062e6000805160206134b783398151915261035f610e92565b61064a5760405162461bcd60e51b81526004016104b6906130ab565b610652610eba565b5460ff16156106735760405162461bcd60e51b81526004016104b690612d65565b600161067d610eba565b805460ff1916911515919091179055600061069b61d6d85a90610ede565b90506106a5612559565b6106ae86610f03565b90506106b8612581565b6106c187611097565b9050600060606106d38389898961124f565b915091506106e2898584611399565b6106ef8983838789611650565b505050505060006106fe610eba565b805460ff191691151591909117905550505050565b600061071d611c1c565b8054909150610100900460ff16806107375750805460ff16155b6107535760405162461bcd60e51b81526004016104b69061315a565b8054610100900460ff1615801561077b57815460ff1961ff0019909116610100171660011782555b61078483611c40565b801561079457815461ff00191682555b505050565b6107b360008051602061355f83398151915261035f610e92565b6107cf5760405162461bcd60e51b81526004016104b6906131d1565b806107d8610e96565b80546001600160a01b0319166001600160a01b039290921691909117905550565b61081360008051602061355f83398151915261035f610e92565b61082f5760405162461bcd60e51b81526004016104b6906131d1565b80610838610e96565b60010180546001600160801b03928316600160801b02921691909117905550565b6000610863610e96565b600101546001600160801b031690505b90565b6000610880610e96565b546001600160a01b0316905090565b60008051602061355f83398151915281565b60006108ab610e96565b60010154600160801b90046001600160801b0316919050565b6108de60008051602061355f83398151915261035f610e92565b6108fa5760405162461bcd60e51b81526004016104b6906131d1565b80610903610e96565b600201805460ff191660ff9290921691909117905550565b6000606033301461093e5760405162461bcd60e51b81526004016104b690613062565b61095661095036889003880188612a23565b86611cbb565b600080606061096786880188612753565b9250925092506109ac6040518060400160405280601a81526020017f417070726f76696e67207370656e6420666f722074617267657400000000000081525083611d39565b6109bc60c08a0160a08b01612737565b6001600160a01b031663095ea7b38360006040518363ffffffff1660e01b81526004016109ea929190612c40565b602060405180830381600087803b158015610a0457600080fd5b505af1158015610a18573d6000803e3d6000fd5b505050506040513d601f19601f82011682018060405250810190610a3c919061282b565b610a4557600080fd5b610a5560c08a0160a08b01612737565b6001600160a01b031663095ea7b383610a7460e08d0160c08e01612a70565b6040518363ffffffff1660e01b8152600401610a91929190612c59565b602060405180830381600087803b158015610aab57600080fd5b505af1158015610abf573d6000803e3d6000fd5b505050506040513d601f19601f82011682018060405250810190610ae3919061282b565b610aec57600080fd5b610b206040518060400160405280601281526020017110d85b1b1a5b99c81cddd85c15185c99d95d60721b81525084611d39565b6000836001600160a01b03165a83604051610b3b9190612bd2565b60006040518083038160008787f1925050503d8060008114610b79576040519150601f19603f3d011682016040523d82523d6000602084013e610b7e565b606091505b5050905080610b9f5760405162461bcd60e51b81526004016104b690612f65565b60408051602081019091526000815290955093505050505b94509492505050565b6000610bca610eba565b604051630f40931b60e41b815273__$712f9bd20561de4f0bfbc1442284f16fb4$__9163f40931b091610c049190879087906004016131f4565b60206040518083038186803b158015610c1c57600080fd5b505af4158015610c30573d6000803e3d6000fd5b505050506040513d601f19601f82011682018060405250810190610c54919061282b565b90505b92915050565b6000610c67610e96565b6002015460ff16905090565b610c8d60008051602061355f83398151915261035f610e92565b610ca95760405162461bcd60e51b81526004016104b6906131d1565b610cc16000805160206134b783398151915283610d78565b610cd96000805160206134b783398151915282610de6565b5050565b610ce56125db565b610ced610e96565b604051636d73f0db60e01b815273__$015d7794271f690550e5fe4793e4b79169$__91636d73f0db91610d239190600401612ca1565b60806040518083038186803b158015610d3b57600080fd5b505af4158015610d4f573d6000803e3d6000fd5b505050506040513d601f19601f82011682018060405250810190610d73919061295c565b905090565b610d9260008051602061355f83398151915261035f610e92565b610dae5760405162461bcd60e51b81526004016104b6906131d1565b610cd98282610dbb610eba565b9190611d7e565b7f65d7a28e3265b37a6474929f336521b332c1681b933f6cb9f3376673440d862a81565b610e0060008051602061355f83398151915261035f610e92565b610e1c5760405162461bcd60e51b81526004016104b6906131d1565b610cd98282611dad565b610e4060008051602061355f83398151915261035f610e92565b610e5c5760405162461bcd60e51b81526004016104b6906131d1565b80610e65610e96565b60010180546fffffffffffffffffffffffffffffffff19166001600160801b039290921691909117905550565b3390565b7ff5b4be0a744c821d14f78bf26d55a308f420d78cebbfac103f2618fba32917b990565b7f3a83b1278d351a40f18bb9e8e77896e8c1dc812ffaed5ea63e0e837a6dae57e990565b600082820183811015610c545760405162461bcd60e51b81526004016104b690612db0565b610f0b612559565b60a08201515182516040516370a0823160e01b81526000926001600160a01b0316916370a0823191610f409190600401612bee565b60206040518083038186803b158015610f5857600080fd5b505afa158015610f6c573d6000803e3d6000fd5b505050506040513d601f19601f82011682018060405250810190610f909190612acb565b90508260a00151602001516001600160701b0316811015610fc35760405162461bcd60e51b81526004016104b690613019565b610fcc83611dc1565b610fe85760405162461bcd60e51b81526004016104b690612fce565b60405180608001604052808281526020018460c00151600001516001600160a01b03166370a08231306040518263ffffffff1660e01b815260040161102d9190612bee565b60206040518083038186803b15801561104557600080fd5b505afa158015611059573d6000803e3d6000fd5b505050506040513d601f19601f8201168201806040525081019061107d9190612acb565b81526020016000815260200160008152509150505b919050565b61109f612581565b8160a00151600001516001600160a01b031682602001516001600160a01b0316141561124b576111036040518060400160405280601c81526020017f54616b696e67206665652066726f6d206f757470757420746f6b656e00000000815250611e66565b60008080611115858660800151611ea9565b909250905061113f6111278383610ede565b60a0870151602001516001600160701b0316906120f9565b92506111846040518060400160405280601081526020016f13db19081a5b9c1d5d08185b5bdd5b9d60821b8152508660a00151602001516001600160701b0316612121565b6111b66040518060400160405280601081526020016f13995dc81a5b9c1d5d08185b5bdd5b9d60821b81525084612121565b50506040518060e0016040528084600001516001600160a01b0316815260200184602001516001600160a01b0316815260200184604001518152602001846060015181526020018460800151815260200160405180604001604052808660a00151600001516001600160a01b03168152602001846001600160701b031681525081526020018460c00151815250915050611092565b5090565b600060603063904cd9f5611266619c405a906120f9565b888888886040518663ffffffff1660e01b81526004016112899493929190613235565b600060405180830381600088803b1580156112a357600080fd5b5087f1935050505080156112d957506040513d6000823e601f3d908101601f191682016040526112d69190810190612847565b60015b61135e576112e561338a565b806112f05750611329565b600092508091506113236040518060400160405280600a8152602001692330b4b62932b0b9b7b760b11b81525082612166565b50611359565b50506040805180820190915260138152722ab735b737bbb7103330b4b6103932b0b9b7b760691b60208201526000905b610bb7565b8161138f5761138f6040518060400160405280600a8152602001692330b4b62932b0b9b7b760b11b81525082612166565b9092509050610bb7565b60a08301515183516040516370a0823160e01b81526001600160a01b03909216916370a08231916113cc91600401612bee565b60206040518083038186803b1580156113e457600080fd5b505afa1580156113f8573d6000803e3d6000fd5b505050506040513d601f19601f8201168201806040525081019061141c9190612acb565b6040830152806114b6576114586040518060400160405280600c81526020016b125b9c1d5d0818985b08188d60a21b8152508360000151612121565b61148d6040518060400160405280600f81526020016e24b7383aba103130b61030b33a32b960891b8152508360400151612121565b81516040830151146114b15760405162461bcd60e51b81526004016104b690612e9b565b610794565b60c0830151516040516370a0823160e01b81526001600160a01b03909116906370a08231906114e9903090600401612bee565b60206040518083038186803b15801561150157600080fd5b505afa158015611515573d6000803e3d6000fd5b505050506040513d601f19601f820116820180604052508101906115399190612acb565b60608301526040805180820190915260208082527f4f757470757420746f6b656e2062616c616e6365206265666f726520737761708183015283015161157f9190612121565b6115c26040518060400160405280601981526020017f4f75747075742062616c616e63652061667465722073776170000000000000008152508360600151612121565b8260c00151602001516001600160701b03166115ef836020015184606001516120f990919063ffffffff16565b101561160d5760405162461bcd60e51b81526004016104b6906130ce565b60a083015160200151604083015183516001600160701b0390921691611632916120f9565b11156107945760405162461bcd60e51b81526004016104b690612f2e565b600061166a620138806116645a85906120f9565b90610ede565b905061169c6040518060400160405280600e81526020016d151bdd185b0819d85cc81d5cd95960921b81525082612121565b60006116a8823a6121ab565b90506116d3604051806040016040528060078152602001664761732066656560c81b81525082612121565b6000806116e08985611ea9565b915091508247101561175a5761170d60405180606001604052806035815260200161350460359139611e66565b611715610e92565b6001600160a01b03167f4c0d6a438f19dfe41befe161c0bfdfca9f674028133bbaf37749b2d12f8f0dda8460405161174d9190612ca1565b60405180910390a2611822565b6117986040518060400160405280601c81526020017f5472616e73666572696e67206761732066656520746f2072656c617900000000815250611e66565b6117a0610e92565b6001600160a01b03166108fc849081150290604051600060405180830381858888f193505050501580156117d8573d6000803e3d6000fd5b506117e1610e92565b6001600160a01b03167f91d09af90b128f3fb2907042440a531bca49791232cd8f59e1c629d96247d057846040516118199190612ca1565b60405180910390a25b6000886119be5782905061185c6040518060400160405280600e81526020016d4661696c6564206761732066656560901b81525082612121565b8960a00151600001516001600160a01b03168a602001516001600160a01b0316141561191d576118a360405180606001604052806040815260200161347760409139611e66565b89516118cb906118b1610e96565b5460208d01516001600160a01b03908116929116846121e5565b89600001516001600160a01b03167f9f52afa9b861b0c4b200f58dace31f1f5776b94207a3047c075d6a087e25de5e898c602001518460405161191093929190612ce7565b60405180910390a261198d565b61193e60405180608001604052806049815260200161357f60499139611e66565b89600001516001600160a01b03167f9f52afa9b861b0c4b200f58dace31f1f5776b94207a3047c075d6a087e25de5e898c60200151600060405161198493929190612ce7565b60405180910390a25b6119b96040518060400160405280600b81526020016a14ddd85c0819985a5b195960aa1b815250611e66565b611c10565b6119c88383610ede565b905060006119e7886020015189606001516120f990919063ffffffff16565b9050611a1e6040518060400160405280601381526020017211dc9bdcdcc81bdd5d1c1d5d08185b5bdd5b9d606a1b81525082612121565b60008b60a00151600001516001600160a01b03168c602001516001600160a01b03161415611a9857819050611a6b6040518060600160405280602d81526020016134d7602d913984612121565b8b51611a9390611a79610e96565b5460208f01516001600160a01b03908116929116866121e5565b611b29565b611ad76040518060400160405280601781526020017f5265647563696e67206f7574707574206279206665657300000000000000000081525084612121565b611ae182846120f9565b9050611b056040518060600160405280602681526020016135396026913984612121565b611b29611b10610e96565b5460208e01516001600160a01b03908116911685612243565b611b686040518060400160405280601e81526020017f53656e64696e6720746f74616c206f757470757420746f20747261646572000081525082612121565b8b5160c08d015151611b86916001600160a01b039091169083612243565b8b600001516001600160a01b03167f3491be8ca1b3f4f9e7e74b9955a4600c2613ce85d639eaa123d5b733f59e93be8d60a0015160200151838f602001518989604051611bd79594939291906132b4565b60405180910390a2611c0d6040518060400160405280600d81526020016c046696e6973686564207377617609c1b815250611e66565b50505b50505050505050505050565b7fd59dd79cfd4373c6c6547848d91fc2ea67c8aec9053f7028828216c5af1d474190565b611c48610e96565b6040516321cab0c760e01b815273__$015d7794271f690550e5fe4793e4b79169$__916321cab0c791611c8091908590600401613221565b60006040518083038186803b158015611c9857600080fd5b505af4158015611cac573d6000803e3d6000fd5b50505050611cb8612262565b50565b611d0b6040518060400160405280601e81526020017f5472616e73666572696e6720696e70757420666f722074726164696e673a00008152508360a00151602001516001600160701b0316612121565b815160a083015160208101519051610cd9926001600160a01b039091169130906001600160701b03166121e5565b610cd98282604051602401611d4f929190612cbd565b60408051601f198184030181529190526020810180516001600160e01b031663319af33360e01b17905261232b565b60009182526001909201602090815260408083206001600160a01b03909416835292905220805460ff19169055565b610cd98282611dba610eba565b919061234c565b60a0810151602081015190518251604051636eb1769f60e11b815260009384936001600160701b03909116926001600160a01b039091169163dd62ed3e91611e0d913090600401612c02565b60206040518083038186803b158015611e2557600080fd5b505afa158015611e39573d6000803e3d6000fd5b505050506040513d601f19601f82011682018060405250810190611e5d9190612acb565b10159392505050565b611cb881604051602401611e7a9190612caa565b60408051601f198184030181529190526020810180516001600160e01b031663104c13eb60e21b17905261232b565b600080611eea6040518060400160405280601981526020017f2d2d2d2d20436f6d707574696e672046656573202d2d2d2d2d00000000000000815250611e66565b604080518082019091526012815271115cdd1a5b585d19590819d85cc818dbdcdd60721b60208201523a840290611f219082612121565b600085602001516001600160a01b031663313ce5676040518163ffffffff1660e01b815260040160206040518083038186803b158015611f6057600080fd5b505afa158015611f74573d6000803e3d6000fd5b505050506040513d601f19601f82011682018060405250810190611f989190612aff565b60ff169050611fc18660400151611fbb83600a0a856121ab90919063ffffffff16565b9061237f565b93506120026040518060400160405280601881526020017f47617320706f7274696f6e20696e2066656520746f6b656e000000000000000081525085612121565b600061201f876040015188606001516121ab90919063ffffffff16565b905061205960405180604001604052806016815260200175119959481d1bdad95b881c1c9a58d9481a5b881554d160521b81525082612121565b61208281611fbb84602401600a0a61206f610e96565b600101546001600160801b0316906121ab565b93506120b16040518060400160405280600b81526020016a44657869626c652066656560a81b81525085612121565b6120ef6040518060400160405280601a81526020017f2d2d2d2d20456e6420636f6d707574652066656573202d2d2d2d000000000000815250611e66565b5050509250929050565b60008282111561211b5760405162461bcd60e51b81526004016104b690612de7565b50900390565b610cd98282604051602401612137929190612d43565b60408051601f198184030181529190526020810180516001600160e01b03166309710a9d60e41b17905261232b565b610cd9828260405160240161217c929190612d15565b60408051601f198184030181529190526020810180516001600160e01b0316634b5c427760e01b17905261232b565b6000826121ba57506000610c57565b828202828482816121c757fe5b0414610c545760405162461bcd60e51b81526004016104b690612f8d565b61223d846323b872dd60e01b85858560405160240161220693929190612c1c565b60408051601f198184030181529190526020810180516001600160e01b03166001600160e01b0319909316929092179091526123b1565b50505050565b6107948363a9059cbb60e01b8484604051602401612206929190612c40565b600061226c611c1c565b8054909150610100900460ff16806122865750805460ff16155b6122a25760405162461bcd60e51b81526004016104b69061315a565b8054610100900460ff161580156122ca57815460ff1961ff0019909116610100171660011782555b60006122d4610e92565b90506122ee60008051602061355f83398151915282611dad565b6123187f65d7a28e3265b37a6474929f336521b332c1681b933f6cb9f3376673440d862a82611dad565b508015610cd95750805461ff0019169055565b80516a636f6e736f6c652e6c6f67602083016000808483855afa5050505050565b60009182526001928301602090815260408084206001600160a01b0390931684529190529020805460ff19169091179055565b60008082116123a05760405162461bcd60e51b81526004016104b690612e64565b8183816123a957fe5b049392505050565b6060612406826040518060400160405280602081526020017f5361666545524332303a206c6f772d6c6576656c2063616c6c206661696c6564815250856001600160a01b03166124409092919063ffffffff16565b8051909150156107945780806020019051810190612424919061282b565b6107945760405162461bcd60e51b81526004016104b690613187565b606061244f8484600085612459565b90505b9392505050565b60608247101561247b5760405162461bcd60e51b81526004016104b690612e1e565b6124848561251a565b6124a05760405162461bcd60e51b81526004016104b690613123565b60006060866001600160a01b031685876040516124bd9190612bd2565b60006040518083038185875af1925050503d80600081146124fa576040519150601f19603f3d011682016040523d82523d6000602084013e6124ff565b606091505b509150915061250f828286612520565b979650505050505050565b3b151590565b6060831561252f575081612452565b82511561253f5782518084602001fd5b8160405162461bcd60e51b81526004016104b69190612caa565b6040518060800160405280600081526020016000815260200160008152602001600081525090565b6040518060e0016040528060006001600160a01b0316815260200160006001600160a01b031681526020016000815260200160008152602001600081526020016125c9612602565b81526020016125d6612602565b905290565b60408051608081018252600080825260208201819052918101829052606081019190915290565b604080518082019091526000808252602082015290565b60008083601f84011261262a578182fd5b50813567ffffffffffffffff811115612641578182fd5b60208301915083602082850101111561265957600080fd5b9250929050565b60006101208284031215612672578081fd5b61267c60e061330d565b905081356126898161342f565b815260208201356126998161342f565b806020830152506040820135604082015260608201356060820152608082013560808201526126cb8360a084016126e8565b60a08201526126dd8360e084016126e8565b60c082015292915050565b6000604082840312156126f9578081fd5b612703604061330d565b905081356127108161342f565b815260208201356001600160701b038116811461272c57600080fd5b602082015292915050565b600060208284031215612748578081fd5b8135610c548161342f565b600080600060608486031215612767578182fd5b83356127728161342f565b925060208401356127828161342f565b9150604084013567ffffffffffffffff81111561279d578182fd5b8401601f810186136127ad578182fd5b80356127c06127bb82613334565b61330d565b8181528760208385010111156127d4578384fd5b8160208401602083013783602083830101528093505050509250925092565b60008060408385031215612805578182fd5b82356128108161342f565b915060208301356128208161342f565b809150509250929050565b60006020828403121561283c578081fd5b8151610c5481613444565b60008060408385031215612859578182fd5b825161286481613444565b602084015190925067ffffffffffffffff811115612880578182fd5b8301601f81018513612890578182fd5b805161289e6127bb82613334565b8181528660208385010111156128b2578384fd5b6128c3826020830160208601613358565b8093505050509250929050565b600080604083850312156128e2578182fd5b8235915060208301356128208161342f565b600060808284031215612905578081fd5b61290f608061330d565b823561291a8161342f565b8152602083013561292a81613452565b6020820152604083013561293d81613452565b6040820152606083013561295081613467565b60608201529392505050565b60006080828403121561296d578081fd5b612977608061330d565b82516129828161342f565b8152602083015161299281613452565b602082015260408301516129a581613452565b6040820152606083015161295081613467565b6000806000808486036101608112156129cf578283fd5b610120808212156129de578384fd5b86955085013590506129ef8161342f565b925061014085013567ffffffffffffffff811115612a0b578283fd5b612a1787828801612619565b95989497509550505050565b60006101208284031215612a35578081fd5b610c548383612660565b6000806000806101608587031215612a55578182fd5b612a5f8686612660565b93506101208501356129ef8161342f565b600060208284031215612a81578081fd5b81356001600160701b0381168114610c54578182fd5b600060208284031215612aa8578081fd5b8135610c5481613452565b600060208284031215612ac4578081fd5b5035919050565b600060208284031215612adc578081fd5b5051919050565b600060208284031215612af4578081fd5b8135610c5481613467565b600060208284031215612b10578081fd5b8151610c5481613467565b60008284528282602086013780602084860101526020601f19601f85011685010190509392505050565b60008151808452612b5d816020860160208601613358565b601f01601f19169290920160200192915050565b80516001600160a01b031682526020808201516001600160801b03908116918401919091526040808301519091169083015260609081015160ff16910152565b80516001600160a01b031682526020908101516001600160701b0316910152565b60008251612be4818460208701613358565b9190910192915050565b6001600160a01b0391909116815260200190565b6001600160a01b0392831681529116602082015260400190565b6001600160a01b039384168152919092166020820152604081019190915260600190565b6001600160a01b03929092168252602082015260400190565b6001600160a01b039290921682526001600160701b0316602082015260400190565b901515815260200190565b600083151582526040602083015261244f6040830184612b45565b90815260200190565b600060208252610c546020830184612b45565b600060408252612cd06040830185612b45565b905060018060a01b03831660208301529392505050565b600060608252612cfa6060830186612b45565b6001600160a01b039490941660208301525060400152919050565b600060408252612d286040830185612b45565b8281036020840152612d3a8185612b45565b95945050505050565b600060408252612d566040830185612b45565b90508260208301529392505050565b6020808252602b908201527f417474656d7074696e6720746f2072652d656e7465722066756e6374696f6e2060408201526a7265637572736976656c7960a81b606082015260800190565b6020808252601b908201527f536166654d6174683a206164646974696f6e206f766572666c6f770000000000604082015260600190565b6020808252601e908201527f536166654d6174683a207375627472616374696f6e206f766572666c6f770000604082015260600190565b60208082526026908201527f416464726573733a20696e73756666696369656e742062616c616e636520666f6040820152651c8818d85b1b60d21b606082015260800190565b6020808252601a908201527f536166654d6174683a206469766973696f6e206279207a65726f000000000000604082015260600190565b6020808252602e908201527f6661696c656420747261646520616374696f6e20646964206e6f74207265667560408201526d6e6420696e7075742066756e647360901b606082015260800190565b60208082526025908201527f496e73756666696369656e742062616c616e636520746f206d616b65207472616040820152643739b332b960d91b606082015260800190565b6020808252601a908201527f5573656420746f6f206d616e7920696e70757420746f6b656e73000000000000604082015260600190565b6020808252600e908201526d04661696c656420746f20737761760941b604082015260600190565b60208082526021908201527f536166654d6174683a206d756c7469706c69636174696f6e206f766572666c6f6040820152607760f81b606082015260800190565b6020808252602b908201527f496e73756666696369656e74207370656e6420616c6c6f77616e6365206f6e2060408201526a34b7383aba103a37b5b2b760a91b606082015260800190565b60208082526029908201527f496e73756666696369656e7420696e70757420746f6b656e2062616c616e636560408201526820746f20747261646560b81b606082015260800190565b60208082526029908201527f43616e206f6e6c792062652063616c6c656420627920736574746c656d656e746040820152680818dbdb9d1c9858dd60ba1b606082015260800190565b6020808252600990820152684e6f742072656c617960b81b604082015260600190565b60208082526035908201527f547261646520616374696f6e20646964206e6f74207472616e73666572206f756040820152743a383aba103a37b5b2b739903a37903a3930b232b960591b606082015260800190565b6020808252601d908201527f416464726573733a2063616c6c20746f206e6f6e2d636f6e7472616374000000604082015260600190565b602080825260139082015272105b1c9958591e481a5b9a5d1a585b1a5e9959606a1b604082015260600190565b6020808252602a908201527f5361666545524332303a204552433230206f7065726174696f6e20646964206e6040820152691bdd081cdd58d8d9595960b21b606082015260800190565b6020808252600990820152682737ba1030b236b4b760b91b604082015260600190565b92835260208301919091526001600160a01b0316604082015260600190565b60808101610c578284612b71565b82815260a081016124526020830184612b71565b600061016060018060a01b0380885116845280602089015116602085015260408801516040850152606088015160608501526080880151608085015260a088015161328360a0860182612bb1565b5060c088015161329660e0860182612bb1565b508616610120840152610140830181905261250f8184018587612b1b565b6001600160701b0395909516855260208501939093526001600160a01b039190911660408401526060830152608082015260a00190565b6001600160801b0391909116815260200190565b60ff91909116815260200190565b60405181810167ffffffffffffffff8111828210171561332c57600080fd5b604052919050565b600067ffffffffffffffff82111561334a578081fd5b50601f01601f191660200190565b60005b8381101561337357818101518382015260200161335b565b8381111561223d5750506000910152565b60e01c90565b600060443d101561339a57610873565b600481823e6308c379a06133ae8251613384565b146133b857610873565b6040513d600319016004823e80513d67ffffffffffffffff81602484011181841117156133e85750505050610873565b828401925082519150808211156134025750505050610873565b503d8301602082840101111561341a57505050610873565b601f01601f1916810160200160405291505090565b6001600160a01b0381168114611cb857600080fd5b8015158114611cb857600080fd5b6001600160801b0381168114611cb857600080fd5b60ff81168114611cb857600080fdfe5472616e7366657272696e67207061727469616c20696e70757420746f6b656e20746f206465767465616d20666f72206661696c757265206761732066656573077a1d526a4ce8a773632ab13b4fbbf1fcc954c3dab26cd27ea0e2a6750da5d75472616e7366657272696e6720666565732066726f6d20696e70757420746f6b656e20746f206465765465616d43616e6e6f74207265696d62757273652072656c61792073696e636520646f206e6f74206861766520656e6f7567682066756e647353656e64696e6720666565732066726f6d206f757470757420746f6b656e20746f207465616da49807205ce4d355092ef5a8a18f56e8913cf4a201fbe287825b095693c2177546656520746f6b656e206973206f75747075743b207468657265666f72652063616e6e6f74207265696d6275727365207465616d20666f72206661696c757265206761732066656573a264697066735822122013ef48d45ba37222c3e22989becc59166c9863a6d8df764d3f053f31cbd281a564736f6c63430007000033",
  "libraries": {
    "FeeCalculator": "0x6B7A1CcED4D1aF6fb5E74447c897b8193c56Ae50",
    "LibAccess": "0x824Ac211d63D628546c255aAABE124f1c4089C5D",
    "LibConfig": "0x3C50fCD9c79A17751870c5d293bf6b6765E530f4",
    "LibGas": "0x019Dc3169a487ADCCaE94fA8dcFcC5740912405c",
    "ProxyAdmin": "0x71eEC1AECD2255b85eadD7130fA05a4941362E3c",
    "Settlement": "0xebC689A67EE5D19D81Fb8a55ee57B49137502d8B",
    "SushiswapDex": "0x0A0FDBF6f8263604f6E1072AF5D780dA61faAAE2",
    "TransparentUpgradeableProxy": "0x02cc44aF07915ABa3b59A179fD02BF3f0DB96e97",
    "UniswapDex": "0xE465F41b6b90B2E02a7355E56fa1Db09BCBe9e94",
    "ZrxRouter": "0x5f693b95ef0F00429EB782B25F5af62eEaa68970"
  },
  "devdoc": {
    "kind": "dev",
    "methods": {},
    "version": 1
  },
  "userdoc": {
    "kind": "user",
    "methods": {
      "fill((address,address,uint256,uint256,uint256,(address,uint112),(address,uint112)),address,bytes)": {
        "notice": "Fill an order using the given router and forwarded call data."
      },
      "getConfig()": {
        "notice": "Get the current configuration struct"
      },
      "getDevTeam()": {
        "notice": "Get the dev team wallet/multi-sig address"
      },
      "getLockoutBlocks()": {
        "notice": "Get the number of blocks to wait before trader can withdraw gas tank funds  marked for withdraw."
      },
      "getMinFee()": {
        "notice": "Get the minimum fee required for all orders"
      },
      "getPenaltyFee()": {
        "notice": "Get the penalty fee to asses when trader removes tokens or funds after Dexible submits orders on-chain."
      },
      "setConfig((address,uint128,uint128,uint8))": {
        "notice": "Set the current configuration as a bulk setting"
      },
      "setDevTeam(address)": {
        "notice": "Set the dev team wallet/multi-sig address"
      },
      "setLockoutBlocks(uint8)": {
        "notice": "Set the number of blocks to wait before thawed withdraws are allowed"
      },
      "setMinFee(uint128)": {
        "notice": "Set the minimum fee for an order execution"
      },
      "setPenaltyFee(uint128)": {
        "notice": "Set the penalty assessed when a user removes tokens or gas tank funds"
      },
      "withdraw(uint256)": {
        "notice": "Team's ability to withdraw ETH balance from the contract."
      }
    },
    "version": 1
  },
  "storageLayout": {
    "storage": [],
    "types": null
  }
}