{
  "address": "0x0A0FDBF6f8263604f6E1072AF5D780dA61faAAE2",
  "abi": [
    {
      "inputs": [],
      "name": "ACTION_ROLE",
      "outputs": [
        {
          "internalType": "bytes32",
          "name": "",
          "type": "bytes32"
        }
      ],
      "stateMutability": "view",
      "type": "function"
    },
    {
      "inputs": [],
      "name": "ADMIN_ROLE",
      "outputs": [
        {
          "internalType": "bytes32",
          "name": "",
          "type": "bytes32"
        }
      ],
      "stateMutability": "view",
      "type": "function"
    },
    {
      "inputs": [],
      "name": "MAX_INT_TYPE",
      "outputs": [
        {
          "internalType": "uint256",
          "name": "",
          "type": "uint256"
        }
      ],
      "stateMutability": "view",
      "type": "function"
    },
    {
      "inputs": [],
      "name": "PAUSER_ROLE",
      "outputs": [
        {
          "internalType": "bytes32",
          "name": "",
          "type": "bytes32"
        }
      ],
      "stateMutability": "view",
      "type": "function"
    },
    {
      "inputs": [],
      "name": "RELAY_ROLE",
      "outputs": [
        {
          "internalType": "bytes32",
          "name": "",
          "type": "bytes32"
        }
      ],
      "stateMutability": "view",
      "type": "function"
    },
    {
      "inputs": [
        {
          "internalType": "bytes32",
          "name": "role",
          "type": "bytes32"
        },
        {
          "internalType": "address",
          "name": "actor",
          "type": "address"
        }
      ],
      "name": "addRole",
      "outputs": [],
      "stateMutability": "nonpayable",
      "type": "function"
    },
    {
      "inputs": [
        {
          "components": [
            {
              "internalType": "uint128",
              "name": "fee",
              "type": "uint128"
            },
            {
              "internalType": "uint128",
              "name": "dexFee",
              "type": "uint128"
            },
            {
              "internalType": "address",
              "name": "trader",
              "type": "address"
            },
            {
              "internalType": "enum Types.OrderType",
              "name": "orderType",
              "type": "uint8"
            },
            {
              "components": [
                {
                  "internalType": "contract IERC20",
                  "name": "token",
                  "type": "address"
                },
                {
                  "internalType": "uint112",
                  "name": "amount",
                  "type": "uint112"
                }
              ],
              "internalType": "struct Types.TokenAmount",
              "name": "input",
              "type": "tuple"
            },
            {
              "components": [
                {
                  "internalType": "contract IERC20",
                  "name": "token",
                  "type": "address"
                },
                {
                  "internalType": "uint112",
                  "name": "amount",
                  "type": "uint112"
                }
              ],
              "internalType": "struct Types.TokenAmount",
              "name": "output",
              "type": "tuple"
            }
          ],
          "internalType": "struct Types.Order",
          "name": "order",
          "type": "tuple"
        },
        {
          "internalType": "bytes",
          "name": "data",
          "type": "bytes"
        }
      ],
      "name": "fill",
      "outputs": [
        {
          "internalType": "bool",
          "name": "success",
          "type": "bool"
        },
        {
          "internalType": "string",
          "name": "failReason",
          "type": "string"
        }
      ],
      "stateMutability": "nonpayable",
      "type": "function"
    },
    {
      "inputs": [
        {
          "internalType": "bytes32",
          "name": "role",
          "type": "bytes32"
        },
        {
          "internalType": "address",
          "name": "actor",
          "type": "address"
        }
      ],
      "name": "hasRole",
      "outputs": [
        {
          "internalType": "bool",
          "name": "",
          "type": "bool"
        }
      ],
      "stateMutability": "view",
      "type": "function"
    },
    {
      "inputs": [
        {
          "internalType": "contract IPairFactory",
          "name": "uniFactory",
          "type": "address"
        },
        {
          "internalType": "contract IV2Router",
          "name": "v2Router",
          "type": "address"
        }
      ],
      "name": "initialize",
      "outputs": [],
      "stateMutability": "nonpayable",
      "type": "function"
    },
    {
      "inputs": [
        {
          "internalType": "bytes32",
          "name": "role",
          "type": "bytes32"
        },
        {
          "internalType": "address",
          "name": "actor",
          "type": "address"
        }
      ],
      "name": "revokeRole",
      "outputs": [],
      "stateMutability": "nonpayable",
      "type": "function"
    },
    {
      "inputs": [
        {
          "internalType": "contract IERC20",
          "name": "token",
          "type": "address"
        }
      ],
      "name": "revokeTokenAllowance",
      "outputs": [],
      "stateMutability": "nonpayable",
      "type": "function"
    }
  ],
  "transactionHash": "0xdc88cac6f4d6584e9377556d45bd4a4ba8835df93ce5d8919a79e62a15128b7f",
  "args": [],
  "solcInputHash": "905207ac38a7ab76b0709de0c6cc6552",
  "bytecode": "0x608060405234801561001057600080fd5b50611168806100206000396000f3fe608060405234801561001057600080fd5b50600436106100a95760003560e01c806391d148541161007157806391d14854146100f9578063a76ff28e14610119578063bcd3cbc81461013a578063d547741f1461014d578063e63ab1e914610160578063e959b38a14610168576100a9565b806304421823146100ae57806327054df6146100cc57806329ad9402146100d4578063485cc955146100dc57806375b238fc146100f1575b600080fd5b6100b661017b565b6040516100c39190610ec2565b60405180910390f35b6100b661019f565b6100b66101c3565b6100ef6100ea366004610d04565b6101c9565b005b6100b6610288565b61010c610107366004610cd5565b61029a565b6040516100c39190610e94565b61012c610127366004610d50565b610337565b6040516100c3929190610e9f565b6100ef610148366004610b71565b6106a5565b6100ef61015b366004610cd5565b610766565b6100b66107b0565b6100ef610176366004610cd5565b6107d4565b7f077a1d526a4ce8a773632ab13b4fbbf1fcc954c3dab26cd27ea0e2a6750da5d781565b7fd95061bdf0c43d77b6cbe1c15072292976244ec8d5012de75baa36e42da4625e81565b60001981565b60006101d3610814565b8054909150610100900460ff16806101ed5750805460ff16155b6102125760405162461bcd60e51b815260040161020990610f1b565b60405180910390fd5b8054610100900460ff1615801561023a57815460ff1961ff0019909116610100171660011782555b610242610838565b600080546001600160a01b038087166001600160a01b0319928316179092556001805492861692909116919091179055801561028257815461ff00191682555b50505050565b60008051602061111383398151915281565b60006102a4610901565b604051630f40931b60e41b815273824Ac211d63D628546c255aAABE124f1c4089C5D9163f40931b0916102de919087908790600401610f6b565b60206040518083038186803b1580156102f657600080fd5b505af415801561030a573d6000803e3d6000fd5b505050506040513d601f19601f8201168201806040525081019061032e9190610cb5565b90505b92915050565b600060608061034884860186610b94565b905061037b61035d60a0880160808901610b71565b61036d60c0890160a08a01610dd7565b6001600160701b0316610925565b600061038d6080880160608901610d31565b600181111561039857fe5b14156105855760408051808201909152601781527f457870656374696e67206f757470757420616d6f756e7400000000000000000060208201526103f5906103e7610100890160e08a01610dd7565b6001600160701b0316610a40565b60408051808201909152601281527111da5d995b881a5b9c1d5d08185b5bdd5b9d60721b6020820152610432906103e760c0890160a08a01610dd7565b6001546001600160a01b03166338ed17395a61045460c08a0160a08b01610dd7565b6104656101008b0160e08c01610dd7565b8561047660608d0160408e01610b71565b426001016040518763ffffffff1660e01b815260040161049a959493929190610f8a565b600060405180830381600088803b1580156104b457600080fd5b5087f1935050505080156104ea57506040513d6000823e601f3d908101601f191682016040526104e79190810190610c31565b60015b61057a576104f6611055565b806105015750610542565b61053760405180604001604052806014815260200173050726f626c656d20696e205375736869737761760641b81525082610a85565b600093509150610575565b60009250604051806040016040528060138152602001722ab735b737bbb7103330b4b6103932b0b9b7b760691b81525091505b610580565b50600192505b61069c565b6001546001600160a01b0316638803dbee5a6105a86101008a0160e08b01610dd7565b6105b860c08b0160a08c01610dd7565b856105c960608d0160408e01610b71565b426001016040518763ffffffff1660e01b81526004016105ed959493929190610f8a565b600060405180830381600088803b15801561060757600080fd5b5087f19350505050801561063d57506040513d6000823e601f3d908101601f1916820160405261063a9190810190610c31565b60015b61069657610649611055565b80610654575061065f565b600093509150610580565b60009250604051806040016040528060138152602001722ab735b737bbb7103330b4b6103932b0b9b7b760691b815250915061069c565b50600192505b50935093915050565b6106bf600080516020611113833981519152610107610aca565b6106db5760405162461bcd60e51b815260040161020990610f48565b60015460405163095ea7b360e01b81526001600160a01b038381169263095ea7b3926107109290911690600090600401610e7b565b602060405180830381600087803b15801561072a57600080fd5b505af115801561073e573d6000803e3d6000fd5b505050506040513d601f19601f820116820180604052508101906107629190610cb5565b5050565b610780600080516020611113833981519152610107610aca565b61079c5760405162461bcd60e51b815260040161020990610f48565b61076282826107a9610901565b9190610acf565b7f65d7a28e3265b37a6474929f336521b332c1681b933f6cb9f3376673440d862a81565b6107ee600080516020611113833981519152610107610aca565b61080a5760405162461bcd60e51b815260040161020990610f48565b6107628282610afe565b7fd59dd79cfd4373c6c6547848d91fc2ea67c8aec9053f7028828216c5af1d474190565b6000610842610814565b8054909150610100900460ff168061085c5750805460ff16155b6108785760405162461bcd60e51b815260040161020990610f1b565b8054610100900460ff161580156108a057815460ff1961ff0019909116610100171660011782555b60006108aa610aca565b90506108c460008051602061111383398151915282610afe565b6108ee7f65d7a28e3265b37a6474929f336521b332c1681b933f6cb9f3376673440d862a82610afe565b5080156107625750805461ff0019169055565b7f3a83b1278d351a40f18bb9e8e77896e8c1dc812ffaed5ea63e0e837a6dae57e990565b600154604051636eb1769f60e11b81526000916001600160a01b038086169263dd62ed3e9261095b923092911690600401610e61565b60206040518083038186803b15801561097357600080fd5b505afa158015610987573d6000803e3d6000fd5b505050506040513d601f19601f820116820180604052508101906109ab9190610dfe565b905081811015610a3b5760015460405163095ea7b360e01b81526001600160a01b038581169263095ea7b3926109e992909116908690600401610e7b565b602060405180830381600087803b158015610a0357600080fd5b505af1158015610a17573d6000803e3d6000fd5b505050506040513d601f19601f820116820180604052508101906102829190610cb5565b505050565b6107628282604051602401610a56929190610ef9565b60408051601f198184030181529190526020810180516001600160e01b03166309710a9d60e41b179052610b12565b6107628282604051602401610a9b929190610ecb565b60408051601f198184030181529190526020810180516001600160e01b0316634b5c427760e01b179052610b12565b335b90565b60009182526001909201602090815260408083206001600160a01b03909416835292905220805460ff19169055565b6107628282610b0b610901565b9190610b33565b80516a636f6e736f6c652e6c6f67602083016000808483855afa5050505050565b60009182526001928301602090815260408084206001600160a01b0390931684529190529020805460ff19169091179055565b8035610331816110fa565b600060208284031215610b82578081fd5b8135610b8d816110fa565b9392505050565b60006020808385031215610ba6578182fd5b823567ffffffffffffffff811115610bbc578283fd5b8301601f81018513610bcc578283fd5b8035610bdf610bda8261102f565b611008565b8181528381019083850185840285018601891015610bfb578687fd5b8694505b83851015610c2557610c118982610b66565b835260019490940193918501918501610bff565b50979650505050505050565b60006020808385031215610c43578182fd5b825167ffffffffffffffff811115610c59578283fd5b8301601f81018513610c69578283fd5b8051610c77610bda8261102f565b8181528381019083850185840285018601891015610c93578687fd5b8694505b83851015610c25578051835260019490940193918501918501610c97565b600060208284031215610cc6578081fd5b81518015158114610b8d578182fd5b60008060408385031215610ce7578081fd5b823591506020830135610cf9816110fa565b809150509250929050565b60008060408385031215610d16578182fd5b8235610d21816110fa565b91506020830135610cf9816110fa565b600060208284031215610d42578081fd5b813560028110610b8d578182fd5b6000806000838503610120811215610d66578182fd5b61010080821215610d75578283fd5b859450840135905067ffffffffffffffff80821115610d92578283fd5b818601915086601f830112610da5578283fd5b813581811115610db3578384fd5b876020828501011115610dc4578384fd5b6020830194508093505050509250925092565b600060208284031215610de8578081fd5b81356001600160701b0381168114610b8d578182fd5b600060208284031215610e0f578081fd5b5051919050565b60008151808452815b81811015610e3b57602081850181015186830182015201610e1f565b81811115610e4c5782602083870101525b50601f01601f19169290920160200192915050565b6001600160a01b0392831681529116602082015260400190565b6001600160a01b03929092168252602082015260400190565b901515815260200190565b6000831515825260406020830152610eba6040830184610e16565b949350505050565b90815260200190565b600060408252610ede6040830185610e16565b8281036020840152610ef08185610e16565b95945050505050565b600060408252610f0c6040830185610e16565b90508260208301529392505050565b602080825260139082015272105b1c9958591e481a5b9a5d1a585b1a5e9959606a1b604082015260600190565b6020808252600990820152682737ba1030b236b4b760b91b604082015260600190565b92835260208301919091526001600160a01b0316604082015260600190565b600060a082016001600160701b03808916845260208189168186015260a06040860152829150875180845260c0860192508189019350845b81811015610fe75784516001600160a01b031684529382019392820192600101610fc2565b5050506001600160a01b039590951660608401525050608001529392505050565b60405181810167ffffffffffffffff8111828210171561102757600080fd5b604052919050565b600067ffffffffffffffff821115611045578081fd5b5060209081020190565b60e01c90565b600060443d101561106557610acc565b600481823e6308c379a0611079825161104f565b1461108357610acc565b6040513d600319016004823e80513d67ffffffffffffffff81602484011181841117156110b35750505050610acc565b828401925082519150808211156110cd5750505050610acc565b503d830160208284010111156110e557505050610acc565b601f01601f1916810160200160405291505090565b6001600160a01b038116811461110f57600080fd5b5056fea49807205ce4d355092ef5a8a18f56e8913cf4a201fbe287825b095693c21775a2646970667358221220a2327f307581322e7ad87ffe56a924c7039bb9343b117c1801041a798b7e337364736f6c63430007000033",
  "deployedBytecode": "0x608060405234801561001057600080fd5b50600436106100a95760003560e01c806391d148541161007157806391d14854146100f9578063a76ff28e14610119578063bcd3cbc81461013a578063d547741f1461014d578063e63ab1e914610160578063e959b38a14610168576100a9565b806304421823146100ae57806327054df6146100cc57806329ad9402146100d4578063485cc955146100dc57806375b238fc146100f1575b600080fd5b6100b661017b565b6040516100c39190610ec2565b60405180910390f35b6100b661019f565b6100b66101c3565b6100ef6100ea366004610d04565b6101c9565b005b6100b6610288565b61010c610107366004610cd5565b61029a565b6040516100c39190610e94565b61012c610127366004610d50565b610337565b6040516100c3929190610e9f565b6100ef610148366004610b71565b6106a5565b6100ef61015b366004610cd5565b610766565b6100b66107b0565b6100ef610176366004610cd5565b6107d4565b7f077a1d526a4ce8a773632ab13b4fbbf1fcc954c3dab26cd27ea0e2a6750da5d781565b7fd95061bdf0c43d77b6cbe1c15072292976244ec8d5012de75baa36e42da4625e81565b60001981565b60006101d3610814565b8054909150610100900460ff16806101ed5750805460ff16155b6102125760405162461bcd60e51b815260040161020990610f1b565b60405180910390fd5b8054610100900460ff1615801561023a57815460ff1961ff0019909116610100171660011782555b610242610838565b600080546001600160a01b038087166001600160a01b0319928316179092556001805492861692909116919091179055801561028257815461ff00191682555b50505050565b60008051602061111383398151915281565b60006102a4610901565b604051630f40931b60e41b815273__$712f9bd20561de4f0bfbc1442284f16fb4$__9163f40931b0916102de919087908790600401610f6b565b60206040518083038186803b1580156102f657600080fd5b505af415801561030a573d6000803e3d6000fd5b505050506040513d601f19601f8201168201806040525081019061032e9190610cb5565b90505b92915050565b600060608061034884860186610b94565b905061037b61035d60a0880160808901610b71565b61036d60c0890160a08a01610dd7565b6001600160701b0316610925565b600061038d6080880160608901610d31565b600181111561039857fe5b14156105855760408051808201909152601781527f457870656374696e67206f757470757420616d6f756e7400000000000000000060208201526103f5906103e7610100890160e08a01610dd7565b6001600160701b0316610a40565b60408051808201909152601281527111da5d995b881a5b9c1d5d08185b5bdd5b9d60721b6020820152610432906103e760c0890160a08a01610dd7565b6001546001600160a01b03166338ed17395a61045460c08a0160a08b01610dd7565b6104656101008b0160e08c01610dd7565b8561047660608d0160408e01610b71565b426001016040518763ffffffff1660e01b815260040161049a959493929190610f8a565b600060405180830381600088803b1580156104b457600080fd5b5087f1935050505080156104ea57506040513d6000823e601f3d908101601f191682016040526104e79190810190610c31565b60015b61057a576104f6611055565b806105015750610542565b61053760405180604001604052806014815260200173050726f626c656d20696e205375736869737761760641b81525082610a85565b600093509150610575565b60009250604051806040016040528060138152602001722ab735b737bbb7103330b4b6103932b0b9b7b760691b81525091505b610580565b50600192505b61069c565b6001546001600160a01b0316638803dbee5a6105a86101008a0160e08b01610dd7565b6105b860c08b0160a08c01610dd7565b856105c960608d0160408e01610b71565b426001016040518763ffffffff1660e01b81526004016105ed959493929190610f8a565b600060405180830381600088803b15801561060757600080fd5b5087f19350505050801561063d57506040513d6000823e601f3d908101601f1916820160405261063a9190810190610c31565b60015b61069657610649611055565b80610654575061065f565b600093509150610580565b60009250604051806040016040528060138152602001722ab735b737bbb7103330b4b6103932b0b9b7b760691b815250915061069c565b50600192505b50935093915050565b6106bf600080516020611113833981519152610107610aca565b6106db5760405162461bcd60e51b815260040161020990610f48565b60015460405163095ea7b360e01b81526001600160a01b038381169263095ea7b3926107109290911690600090600401610e7b565b602060405180830381600087803b15801561072a57600080fd5b505af115801561073e573d6000803e3d6000fd5b505050506040513d601f19601f820116820180604052508101906107629190610cb5565b5050565b610780600080516020611113833981519152610107610aca565b61079c5760405162461bcd60e51b815260040161020990610f48565b61076282826107a9610901565b9190610acf565b7f65d7a28e3265b37a6474929f336521b332c1681b933f6cb9f3376673440d862a81565b6107ee600080516020611113833981519152610107610aca565b61080a5760405162461bcd60e51b815260040161020990610f48565b6107628282610afe565b7fd59dd79cfd4373c6c6547848d91fc2ea67c8aec9053f7028828216c5af1d474190565b6000610842610814565b8054909150610100900460ff168061085c5750805460ff16155b6108785760405162461bcd60e51b815260040161020990610f1b565b8054610100900460ff161580156108a057815460ff1961ff0019909116610100171660011782555b60006108aa610aca565b90506108c460008051602061111383398151915282610afe565b6108ee7f65d7a28e3265b37a6474929f336521b332c1681b933f6cb9f3376673440d862a82610afe565b5080156107625750805461ff0019169055565b7f3a83b1278d351a40f18bb9e8e77896e8c1dc812ffaed5ea63e0e837a6dae57e990565b600154604051636eb1769f60e11b81526000916001600160a01b038086169263dd62ed3e9261095b923092911690600401610e61565b60206040518083038186803b15801561097357600080fd5b505afa158015610987573d6000803e3d6000fd5b505050506040513d601f19601f820116820180604052508101906109ab9190610dfe565b905081811015610a3b5760015460405163095ea7b360e01b81526001600160a01b038581169263095ea7b3926109e992909116908690600401610e7b565b602060405180830381600087803b158015610a0357600080fd5b505af1158015610a17573d6000803e3d6000fd5b505050506040513d601f19601f820116820180604052508101906102829190610cb5565b505050565b6107628282604051602401610a56929190610ef9565b60408051601f198184030181529190526020810180516001600160e01b03166309710a9d60e41b179052610b12565b6107628282604051602401610a9b929190610ecb565b60408051601f198184030181529190526020810180516001600160e01b0316634b5c427760e01b179052610b12565b335b90565b60009182526001909201602090815260408083206001600160a01b03909416835292905220805460ff19169055565b6107628282610b0b610901565b9190610b33565b80516a636f6e736f6c652e6c6f67602083016000808483855afa5050505050565b60009182526001928301602090815260408084206001600160a01b0390931684529190529020805460ff19169091179055565b8035610331816110fa565b600060208284031215610b82578081fd5b8135610b8d816110fa565b9392505050565b60006020808385031215610ba6578182fd5b823567ffffffffffffffff811115610bbc578283fd5b8301601f81018513610bcc578283fd5b8035610bdf610bda8261102f565b611008565b8181528381019083850185840285018601891015610bfb578687fd5b8694505b83851015610c2557610c118982610b66565b835260019490940193918501918501610bff565b50979650505050505050565b60006020808385031215610c43578182fd5b825167ffffffffffffffff811115610c59578283fd5b8301601f81018513610c69578283fd5b8051610c77610bda8261102f565b8181528381019083850185840285018601891015610c93578687fd5b8694505b83851015610c25578051835260019490940193918501918501610c97565b600060208284031215610cc6578081fd5b81518015158114610b8d578182fd5b60008060408385031215610ce7578081fd5b823591506020830135610cf9816110fa565b809150509250929050565b60008060408385031215610d16578182fd5b8235610d21816110fa565b91506020830135610cf9816110fa565b600060208284031215610d42578081fd5b813560028110610b8d578182fd5b6000806000838503610120811215610d66578182fd5b61010080821215610d75578283fd5b859450840135905067ffffffffffffffff80821115610d92578283fd5b818601915086601f830112610da5578283fd5b813581811115610db3578384fd5b876020828501011115610dc4578384fd5b6020830194508093505050509250925092565b600060208284031215610de8578081fd5b81356001600160701b0381168114610b8d578182fd5b600060208284031215610e0f578081fd5b5051919050565b60008151808452815b81811015610e3b57602081850181015186830182015201610e1f565b81811115610e4c5782602083870101525b50601f01601f19169290920160200192915050565b6001600160a01b0392831681529116602082015260400190565b6001600160a01b03929092168252602082015260400190565b901515815260200190565b6000831515825260406020830152610eba6040830184610e16565b949350505050565b90815260200190565b600060408252610ede6040830185610e16565b8281036020840152610ef08185610e16565b95945050505050565b600060408252610f0c6040830185610e16565b90508260208301529392505050565b602080825260139082015272105b1c9958591e481a5b9a5d1a585b1a5e9959606a1b604082015260600190565b6020808252600990820152682737ba1030b236b4b760b91b604082015260600190565b92835260208301919091526001600160a01b0316604082015260600190565b600060a082016001600160701b03808916845260208189168186015260a06040860152829150875180845260c0860192508189019350845b81811015610fe75784516001600160a01b031684529382019392820192600101610fc2565b5050506001600160a01b039590951660608401525050608001529392505050565b60405181810167ffffffffffffffff8111828210171561102757600080fd5b604052919050565b600067ffffffffffffffff821115611045578081fd5b5060209081020190565b60e01c90565b600060443d101561106557610acc565b600481823e6308c379a0611079825161104f565b1461108357610acc565b6040513d600319016004823e80513d67ffffffffffffffff81602484011181841117156110b35750505050610acc565b828401925082519150808211156110cd5750505050610acc565b503d830160208284010111156110e557505050610acc565b601f01601f1916810160200160405291505090565b6001600160a01b038116811461110f57600080fd5b5056fea49807205ce4d355092ef5a8a18f56e8913cf4a201fbe287825b095693c21775a2646970667358221220a2327f307581322e7ad87ffe56a924c7039bb9343b117c1801041a798b7e337364736f6c63430007000033",
  "libraries": {
    "LibAccess": "0x824Ac211d63D628546c255aAABE124f1c4089C5D",
    "LibConfig": "0x3C50fCD9c79A17751870c5d293bf6b6765E530f4",
    "LibGas": "0x019Dc3169a487ADCCaE94fA8dcFcC5740912405c",
    "ProxyAdmin": "0x71eEC1AECD2255b85eadD7130fA05a4941362E3c",
    "Settlement": "0x49972Ff4CFA973707CeCb91e5EAcf876ef553031",
    "TransparentUpgradeableProxy": "0xdAF6Ef732AE250566cCd61080DD981174Cb90ADc",
    "UniswapDex": "0xE465F41b6b90B2E02a7355E56fa1Db09BCBe9e94"
  },
  "devdoc": {
    "kind": "dev",
    "methods": {},
    "version": 1
  },
  "userdoc": {
    "kind": "user",
    "methods": {},
    "version": 1
  },
  "storageLayout": {
    "storage": [
      {
        "astId": 3870,
        "contract": "contracts/routers/sushi/SushiswapDex.sol:SushiswapDex",
        "label": "factory",
        "offset": 0,
        "slot": "0",
        "type": "t_contract(IPairFactory)3009"
      },
      {
        "astId": 3872,
        "contract": "contracts/routers/sushi/SushiswapDex.sol:SushiswapDex",
        "label": "router",
        "offset": 0,
        "slot": "1",
        "type": "t_contract(IV2Router)3082"
      }
    ],
    "types": {
      "t_contract(IPairFactory)3009": {
        "encoding": "inplace",
        "label": "contract IPairFactory",
        "numberOfBytes": "20"
      },
      "t_contract(IV2Router)3082": {
        "encoding": "inplace",
        "label": "contract IV2Router",
        "numberOfBytes": "20"
      }
    }
  }
}