{
  "address": "0xE465F41b6b90B2E02a7355E56fa1Db09BCBe9e94",
  "abi": [
    {
      "inputs": [],
      "name": "ACTION_ROLE",
      "outputs": [
        {
          "internalType": "bytes32",
          "name": "",
          "type": "bytes32"
        }
      ],
      "stateMutability": "view",
      "type": "function"
    },
    {
      "inputs": [],
      "name": "ADMIN_ROLE",
      "outputs": [
        {
          "internalType": "bytes32",
          "name": "",
          "type": "bytes32"
        }
      ],
      "stateMutability": "view",
      "type": "function"
    },
    {
      "inputs": [],
      "name": "MAX_INT_TYPE",
      "outputs": [
        {
          "internalType": "uint256",
          "name": "",
          "type": "uint256"
        }
      ],
      "stateMutability": "view",
      "type": "function"
    },
    {
      "inputs": [],
      "name": "PAUSER_ROLE",
      "outputs": [
        {
          "internalType": "bytes32",
          "name": "",
          "type": "bytes32"
        }
      ],
      "stateMutability": "view",
      "type": "function"
    },
    {
      "inputs": [],
      "name": "RELAY_ROLE",
      "outputs": [
        {
          "internalType": "bytes32",
          "name": "",
          "type": "bytes32"
        }
      ],
      "stateMutability": "view",
      "type": "function"
    },
    {
      "inputs": [
        {
          "internalType": "bytes32",
          "name": "role",
          "type": "bytes32"
        },
        {
          "internalType": "address",
          "name": "actor",
          "type": "address"
        }
      ],
      "name": "addRole",
      "outputs": [],
      "stateMutability": "nonpayable",
      "type": "function"
    },
    {
      "inputs": [
        {
          "components": [
            {
              "internalType": "uint128",
              "name": "fee",
              "type": "uint128"
            },
            {
              "internalType": "uint128",
              "name": "dexFee",
              "type": "uint128"
            },
            {
              "internalType": "address",
              "name": "trader",
              "type": "address"
            },
            {
              "internalType": "enum Types.OrderType",
              "name": "orderType",
              "type": "uint8"
            },
            {
              "components": [
                {
                  "internalType": "contract IERC20",
                  "name": "token",
                  "type": "address"
                },
                {
                  "internalType": "uint112",
                  "name": "amount",
                  "type": "uint112"
                }
              ],
              "internalType": "struct Types.TokenAmount",
              "name": "input",
              "type": "tuple"
            },
            {
              "components": [
                {
                  "internalType": "contract IERC20",
                  "name": "token",
                  "type": "address"
                },
                {
                  "internalType": "uint112",
                  "name": "amount",
                  "type": "uint112"
                }
              ],
              "internalType": "struct Types.TokenAmount",
              "name": "output",
              "type": "tuple"
            }
          ],
          "internalType": "struct Types.Order",
          "name": "order",
          "type": "tuple"
        },
        {
          "internalType": "bytes",
          "name": "data",
          "type": "bytes"
        }
      ],
      "name": "fill",
      "outputs": [
        {
          "internalType": "bool",
          "name": "success",
          "type": "bool"
        },
        {
          "internalType": "string",
          "name": "failReason",
          "type": "string"
        }
      ],
      "stateMutability": "nonpayable",
      "type": "function"
    },
    {
      "inputs": [
        {
          "internalType": "bytes32",
          "name": "role",
          "type": "bytes32"
        },
        {
          "internalType": "address",
          "name": "actor",
          "type": "address"
        }
      ],
      "name": "hasRole",
      "outputs": [
        {
          "internalType": "bool",
          "name": "",
          "type": "bool"
        }
      ],
      "stateMutability": "view",
      "type": "function"
    },
    {
      "inputs": [
        {
          "internalType": "contract IPairFactory",
          "name": "uniFactory",
          "type": "address"
        },
        {
          "internalType": "contract IV2Router",
          "name": "v2Router",
          "type": "address"
        }
      ],
      "name": "initialize",
      "outputs": [],
      "stateMutability": "nonpayable",
      "type": "function"
    },
    {
      "inputs": [
        {
          "internalType": "bytes32",
          "name": "role",
          "type": "bytes32"
        },
        {
          "internalType": "address",
          "name": "actor",
          "type": "address"
        }
      ],
      "name": "revokeRole",
      "outputs": [],
      "stateMutability": "nonpayable",
      "type": "function"
    },
    {
      "inputs": [
        {
          "internalType": "contract IERC20",
          "name": "token",
          "type": "address"
        }
      ],
      "name": "revokeTokenAllowance",
      "outputs": [],
      "stateMutability": "nonpayable",
      "type": "function"
    }
  ],
  "transactionHash": "0x898b14e4a0cda9f2fd3b6cf71dc734747e23f61a22312f0260f4fcc40a2b60b2",
  "args": [],
  "solcInputHash": "905207ac38a7ab76b0709de0c6cc6552",
  "bytecode": "0x608060405234801561001057600080fd5b50610f8b806100206000396000f3fe608060405234801561001057600080fd5b50600436106100a95760003560e01c806391d148541161007157806391d14854146100f9578063a76ff28e14610119578063bcd3cbc81461013a578063d547741f1461014d578063e63ab1e914610160578063e959b38a14610168576100a9565b806304421823146100ae57806327054df6146100cc57806329ad9402146100d4578063485cc955146100dc57806375b238fc146100f1575b600080fd5b6100b661017b565b6040516100c39190610d35565b60405180910390f35b6100b661019f565b6100b66101c3565b6100ef6100ea366004610b88565b6101c9565b005b6100b6610288565b61010c610107366004610b59565b61029a565b6040516100c39190610ccd565b61012c610127366004610bd4565b610337565b6040516100c3929190610cd8565b6100ef6101483660046109f5565b6105db565b6100ef61015b366004610b59565b61069c565b6100b66106e6565b6100ef610176366004610b59565b61070a565b7f077a1d526a4ce8a773632ab13b4fbbf1fcc954c3dab26cd27ea0e2a6750da5d781565b7fd95061bdf0c43d77b6cbe1c15072292976244ec8d5012de75baa36e42da4625e81565b60001981565b60006101d361074a565b8054909150610100900460ff16806101ed5750805460ff16155b6102125760405162461bcd60e51b815260040161020990610d3e565b60405180910390fd5b8054610100900460ff1615801561023a57815460ff1961ff0019909116610100171660011782555b61024261076e565b600080546001600160a01b038087166001600160a01b0319928316179092556001805492861692909116919091179055801561028257815461ff00191682555b50505050565b600080516020610f3683398151915281565b60006102a4610837565b604051630f40931b60e41b815273824Ac211d63D628546c255aAABE124f1c4089C5D9163f40931b0916102de919087908790600401610d8e565b60206040518083038186803b1580156102f657600080fd5b505af415801561030a573d6000803e3d6000fd5b505050506040513d601f19601f8201168201806040525081019061032e9190610b39565b90505b92915050565b600060608061034884860186610a18565b905061037b61035d60a08801608089016109f5565b61036d60c0890160a08a01610c5b565b6001600160701b031661085b565b600061038d6080880160608901610bb5565b600181111561039857fe5b14156104bb576001546001600160a01b03166338ed17395a6103c060c08a0160a08b01610c5b565b6103d16101008b0160e08c01610c5b565b856103e260608d0160408e016109f5565b426001016040518763ffffffff1660e01b8152600401610406959493929190610dad565b600060405180830381600088803b15801561042057600080fd5b5087f19350505050801561045657506040513d6000823e601f3d908101601f191682016040526104539190810190610ab5565b60015b6104b057610462610e78565b8061046d5750610478565b6000935091506104ab565b60009250604051806040016040528060138152602001722ab735b737bbb7103330b4b6103932b0b9b7b760691b81525091505b6104b6565b50600192505b6105d2565b6001546001600160a01b0316638803dbee5a6104de6101008a0160e08b01610c5b565b6104ee60c08b0160a08c01610c5b565b856104ff60608d0160408e016109f5565b426001016040518763ffffffff1660e01b8152600401610523959493929190610dad565b600060405180830381600088803b15801561053d57600080fd5b5087f19350505050801561057357506040513d6000823e601f3d908101601f191682016040526105709190810190610ab5565b60015b6105cc5761057f610e78565b8061058a5750610595565b6000935091506104b6565b60009250604051806040016040528060138152602001722ab735b737bbb7103330b4b6103932b0b9b7b760691b81525091506105d2565b50600192505b50935093915050565b6105f5600080516020610f36833981519152610107610976565b6106115760405162461bcd60e51b815260040161020990610d6b565b60015460405163095ea7b360e01b81526001600160a01b038381169263095ea7b3926106469290911690600090600401610cb4565b602060405180830381600087803b15801561066057600080fd5b505af1158015610674573d6000803e3d6000fd5b505050506040513d601f19601f820116820180604052508101906106989190610b39565b5050565b6106b6600080516020610f36833981519152610107610976565b6106d25760405162461bcd60e51b815260040161020990610d6b565b61069882826106df610837565b919061097b565b7f65d7a28e3265b37a6474929f336521b332c1681b933f6cb9f3376673440d862a81565b610724600080516020610f36833981519152610107610976565b6107405760405162461bcd60e51b815260040161020990610d6b565b61069882826109aa565b7fd59dd79cfd4373c6c6547848d91fc2ea67c8aec9053f7028828216c5af1d474190565b600061077861074a565b8054909150610100900460ff16806107925750805460ff16155b6107ae5760405162461bcd60e51b815260040161020990610d3e565b8054610100900460ff161580156107d657815460ff1961ff0019909116610100171660011782555b60006107e0610976565b90506107fa600080516020610f36833981519152826109aa565b6108247f65d7a28e3265b37a6474929f336521b332c1681b933f6cb9f3376673440d862a826109aa565b5080156106985750805461ff0019169055565b7f3a83b1278d351a40f18bb9e8e77896e8c1dc812ffaed5ea63e0e837a6dae57e990565b600154604051636eb1769f60e11b81526000916001600160a01b038086169263dd62ed3e92610891923092911690600401610c9a565b60206040518083038186803b1580156108a957600080fd5b505afa1580156108bd573d6000803e3d6000fd5b505050506040513d601f19601f820116820180604052508101906108e19190610c82565b9050818110156109715760015460405163095ea7b360e01b81526001600160a01b038581169263095ea7b39261091f92909116908690600401610cb4565b602060405180830381600087803b15801561093957600080fd5b505af115801561094d573d6000803e3d6000fd5b505050506040513d601f19601f820116820180604052508101906102829190610b39565b505050565b335b90565b60009182526001909201602090815260408083206001600160a01b03909416835292905220805460ff19169055565b61069882826109b7610837565b60009283526001908101602090815260408085206001600160a01b0390941685529290529120805460ff19169091179055565b803561033181610f1d565b600060208284031215610a06578081fd5b8135610a1181610f1d565b9392505050565b60006020808385031215610a2a578182fd5b823567ffffffffffffffff811115610a40578283fd5b8301601f81018513610a50578283fd5b8035610a63610a5e82610e52565b610e2b565b8181528381019083850185840285018601891015610a7f578687fd5b8694505b83851015610aa957610a9589826109ea565b835260019490940193918501918501610a83565b50979650505050505050565b60006020808385031215610ac7578182fd5b825167ffffffffffffffff811115610add578283fd5b8301601f81018513610aed578283fd5b8051610afb610a5e82610e52565b8181528381019083850185840285018601891015610b17578687fd5b8694505b83851015610aa9578051835260019490940193918501918501610b1b565b600060208284031215610b4a578081fd5b81518015158114610a11578182fd5b60008060408385031215610b6b578081fd5b823591506020830135610b7d81610f1d565b809150509250929050565b60008060408385031215610b9a578182fd5b8235610ba581610f1d565b91506020830135610b7d81610f1d565b600060208284031215610bc6578081fd5b813560028110610a11578182fd5b6000806000838503610120811215610bea578182fd5b61010080821215610bf9578283fd5b859450840135905067ffffffffffffffff80821115610c16578283fd5b818601915086601f830112610c29578283fd5b813581811115610c37578384fd5b876020828501011115610c48578384fd5b6020830194508093505050509250925092565b600060208284031215610c6c578081fd5b81356001600160701b0381168114610a11578182fd5b600060208284031215610c93578081fd5b5051919050565b6001600160a01b0392831681529116602082015260400190565b6001600160a01b03929092168252602082015260400190565b901515815260200190565b6000831515825260206040818401528351806040850152825b81811015610d0d57858101830151858201606001528201610cf1565b81811115610d1e5783606083870101525b50601f01601f191692909201606001949350505050565b90815260200190565b602080825260139082015272105b1c9958591e481a5b9a5d1a585b1a5e9959606a1b604082015260600190565b6020808252600990820152682737ba1030b236b4b760b91b604082015260600190565b92835260208301919091526001600160a01b0316604082015260600190565b600060a082016001600160701b03808916845260208189168186015260a06040860152829150875180845260c0860192508189019350845b81811015610e0a5784516001600160a01b031684529382019392820192600101610de5565b5050506001600160a01b039590951660608401525050608001529392505050565b60405181810167ffffffffffffffff81118282101715610e4a57600080fd5b604052919050565b600067ffffffffffffffff821115610e68578081fd5b5060209081020190565b60e01c90565b600060443d1015610e8857610978565b600481823e6308c379a0610e9c8251610e72565b14610ea657610978565b6040513d600319016004823e80513d67ffffffffffffffff8160248401118184111715610ed65750505050610978565b82840192508251915080821115610ef05750505050610978565b503d83016020828401011115610f0857505050610978565b601f01601f1916810160200160405291505090565b6001600160a01b0381168114610f3257600080fd5b5056fea49807205ce4d355092ef5a8a18f56e8913cf4a201fbe287825b095693c21775a264697066735822122072cb240d28fc7b78f0584982f94174e060efe3ca5b36bada4f5fb0ce9d1c9add64736f6c63430007000033",
  "deployedBytecode": "0x608060405234801561001057600080fd5b50600436106100a95760003560e01c806391d148541161007157806391d14854146100f9578063a76ff28e14610119578063bcd3cbc81461013a578063d547741f1461014d578063e63ab1e914610160578063e959b38a14610168576100a9565b806304421823146100ae57806327054df6146100cc57806329ad9402146100d4578063485cc955146100dc57806375b238fc146100f1575b600080fd5b6100b661017b565b6040516100c39190610d35565b60405180910390f35b6100b661019f565b6100b66101c3565b6100ef6100ea366004610b88565b6101c9565b005b6100b6610288565b61010c610107366004610b59565b61029a565b6040516100c39190610ccd565b61012c610127366004610bd4565b610337565b6040516100c3929190610cd8565b6100ef6101483660046109f5565b6105db565b6100ef61015b366004610b59565b61069c565b6100b66106e6565b6100ef610176366004610b59565b61070a565b7f077a1d526a4ce8a773632ab13b4fbbf1fcc954c3dab26cd27ea0e2a6750da5d781565b7fd95061bdf0c43d77b6cbe1c15072292976244ec8d5012de75baa36e42da4625e81565b60001981565b60006101d361074a565b8054909150610100900460ff16806101ed5750805460ff16155b6102125760405162461bcd60e51b815260040161020990610d3e565b60405180910390fd5b8054610100900460ff1615801561023a57815460ff1961ff0019909116610100171660011782555b61024261076e565b600080546001600160a01b038087166001600160a01b0319928316179092556001805492861692909116919091179055801561028257815461ff00191682555b50505050565b600080516020610f3683398151915281565b60006102a4610837565b604051630f40931b60e41b815273__$712f9bd20561de4f0bfbc1442284f16fb4$__9163f40931b0916102de919087908790600401610d8e565b60206040518083038186803b1580156102f657600080fd5b505af415801561030a573d6000803e3d6000fd5b505050506040513d601f19601f8201168201806040525081019061032e9190610b39565b90505b92915050565b600060608061034884860186610a18565b905061037b61035d60a08801608089016109f5565b61036d60c0890160a08a01610c5b565b6001600160701b031661085b565b600061038d6080880160608901610bb5565b600181111561039857fe5b14156104bb576001546001600160a01b03166338ed17395a6103c060c08a0160a08b01610c5b565b6103d16101008b0160e08c01610c5b565b856103e260608d0160408e016109f5565b426001016040518763ffffffff1660e01b8152600401610406959493929190610dad565b600060405180830381600088803b15801561042057600080fd5b5087f19350505050801561045657506040513d6000823e601f3d908101601f191682016040526104539190810190610ab5565b60015b6104b057610462610e78565b8061046d5750610478565b6000935091506104ab565b60009250604051806040016040528060138152602001722ab735b737bbb7103330b4b6103932b0b9b7b760691b81525091505b6104b6565b50600192505b6105d2565b6001546001600160a01b0316638803dbee5a6104de6101008a0160e08b01610c5b565b6104ee60c08b0160a08c01610c5b565b856104ff60608d0160408e016109f5565b426001016040518763ffffffff1660e01b8152600401610523959493929190610dad565b600060405180830381600088803b15801561053d57600080fd5b5087f19350505050801561057357506040513d6000823e601f3d908101601f191682016040526105709190810190610ab5565b60015b6105cc5761057f610e78565b8061058a5750610595565b6000935091506104b6565b60009250604051806040016040528060138152602001722ab735b737bbb7103330b4b6103932b0b9b7b760691b81525091506105d2565b50600192505b50935093915050565b6105f5600080516020610f36833981519152610107610976565b6106115760405162461bcd60e51b815260040161020990610d6b565b60015460405163095ea7b360e01b81526001600160a01b038381169263095ea7b3926106469290911690600090600401610cb4565b602060405180830381600087803b15801561066057600080fd5b505af1158015610674573d6000803e3d6000fd5b505050506040513d601f19601f820116820180604052508101906106989190610b39565b5050565b6106b6600080516020610f36833981519152610107610976565b6106d25760405162461bcd60e51b815260040161020990610d6b565b61069882826106df610837565b919061097b565b7f65d7a28e3265b37a6474929f336521b332c1681b933f6cb9f3376673440d862a81565b610724600080516020610f36833981519152610107610976565b6107405760405162461bcd60e51b815260040161020990610d6b565b61069882826109aa565b7fd59dd79cfd4373c6c6547848d91fc2ea67c8aec9053f7028828216c5af1d474190565b600061077861074a565b8054909150610100900460ff16806107925750805460ff16155b6107ae5760405162461bcd60e51b815260040161020990610d3e565b8054610100900460ff161580156107d657815460ff1961ff0019909116610100171660011782555b60006107e0610976565b90506107fa600080516020610f36833981519152826109aa565b6108247f65d7a28e3265b37a6474929f336521b332c1681b933f6cb9f3376673440d862a826109aa565b5080156106985750805461ff0019169055565b7f3a83b1278d351a40f18bb9e8e77896e8c1dc812ffaed5ea63e0e837a6dae57e990565b600154604051636eb1769f60e11b81526000916001600160a01b038086169263dd62ed3e92610891923092911690600401610c9a565b60206040518083038186803b1580156108a957600080fd5b505afa1580156108bd573d6000803e3d6000fd5b505050506040513d601f19601f820116820180604052508101906108e19190610c82565b9050818110156109715760015460405163095ea7b360e01b81526001600160a01b038581169263095ea7b39261091f92909116908690600401610cb4565b602060405180830381600087803b15801561093957600080fd5b505af115801561094d573d6000803e3d6000fd5b505050506040513d601f19601f820116820180604052508101906102829190610b39565b505050565b335b90565b60009182526001909201602090815260408083206001600160a01b03909416835292905220805460ff19169055565b61069882826109b7610837565b60009283526001908101602090815260408085206001600160a01b0390941685529290529120805460ff19169091179055565b803561033181610f1d565b600060208284031215610a06578081fd5b8135610a1181610f1d565b9392505050565b60006020808385031215610a2a578182fd5b823567ffffffffffffffff811115610a40578283fd5b8301601f81018513610a50578283fd5b8035610a63610a5e82610e52565b610e2b565b8181528381019083850185840285018601891015610a7f578687fd5b8694505b83851015610aa957610a9589826109ea565b835260019490940193918501918501610a83565b50979650505050505050565b60006020808385031215610ac7578182fd5b825167ffffffffffffffff811115610add578283fd5b8301601f81018513610aed578283fd5b8051610afb610a5e82610e52565b8181528381019083850185840285018601891015610b17578687fd5b8694505b83851015610aa9578051835260019490940193918501918501610b1b565b600060208284031215610b4a578081fd5b81518015158114610a11578182fd5b60008060408385031215610b6b578081fd5b823591506020830135610b7d81610f1d565b809150509250929050565b60008060408385031215610b9a578182fd5b8235610ba581610f1d565b91506020830135610b7d81610f1d565b600060208284031215610bc6578081fd5b813560028110610a11578182fd5b6000806000838503610120811215610bea578182fd5b61010080821215610bf9578283fd5b859450840135905067ffffffffffffffff80821115610c16578283fd5b818601915086601f830112610c29578283fd5b813581811115610c37578384fd5b876020828501011115610c48578384fd5b6020830194508093505050509250925092565b600060208284031215610c6c578081fd5b81356001600160701b0381168114610a11578182fd5b600060208284031215610c93578081fd5b5051919050565b6001600160a01b0392831681529116602082015260400190565b6001600160a01b03929092168252602082015260400190565b901515815260200190565b6000831515825260206040818401528351806040850152825b81811015610d0d57858101830151858201606001528201610cf1565b81811115610d1e5783606083870101525b50601f01601f191692909201606001949350505050565b90815260200190565b602080825260139082015272105b1c9958591e481a5b9a5d1a585b1a5e9959606a1b604082015260600190565b6020808252600990820152682737ba1030b236b4b760b91b604082015260600190565b92835260208301919091526001600160a01b0316604082015260600190565b600060a082016001600160701b03808916845260208189168186015260a06040860152829150875180845260c0860192508189019350845b81811015610e0a5784516001600160a01b031684529382019392820192600101610de5565b5050506001600160a01b039590951660608401525050608001529392505050565b60405181810167ffffffffffffffff81118282101715610e4a57600080fd5b604052919050565b600067ffffffffffffffff821115610e68578081fd5b5060209081020190565b60e01c90565b600060443d1015610e8857610978565b600481823e6308c379a0610e9c8251610e72565b14610ea657610978565b6040513d600319016004823e80513d67ffffffffffffffff8160248401118184111715610ed65750505050610978565b82840192508251915080821115610ef05750505050610978565b503d83016020828401011115610f0857505050610978565b601f01601f1916810160200160405291505090565b6001600160a01b0381168114610f3257600080fd5b5056fea49807205ce4d355092ef5a8a18f56e8913cf4a201fbe287825b095693c21775a264697066735822122072cb240d28fc7b78f0584982f94174e060efe3ca5b36bada4f5fb0ce9d1c9add64736f6c63430007000033",
  "libraries": {
    "LibAccess": "0x824Ac211d63D628546c255aAABE124f1c4089C5D",
    "LibConfig": "0x3C50fCD9c79A17751870c5d293bf6b6765E530f4",
    "LibGas": "0x019Dc3169a487ADCCaE94fA8dcFcC5740912405c",
    "ProxyAdmin": "0x71eEC1AECD2255b85eadD7130fA05a4941362E3c",
    "Settlement": "0x49972Ff4CFA973707CeCb91e5EAcf876ef553031",
    "TransparentUpgradeableProxy": "0x147bFD9cEffcd58A2B2594932963F52B16d528b1"
  },
  "devdoc": {
    "kind": "dev",
    "methods": {},
    "version": 1
  },
  "userdoc": {
    "kind": "user",
    "methods": {},
    "version": 1
  },
  "storageLayout": {
    "storage": [
      {
        "astId": 4152,
        "contract": "contracts/routers/uniswap/UniswapDex.sol:UniswapDex",
        "label": "factory",
        "offset": 0,
        "slot": "0",
        "type": "t_contract(IPairFactory)3009"
      },
      {
        "astId": 4154,
        "contract": "contracts/routers/uniswap/UniswapDex.sol:UniswapDex",
        "label": "router",
        "offset": 0,
        "slot": "1",
        "type": "t_contract(IV2Router)3082"
      }
    ],
    "types": {
      "t_contract(IPairFactory)3009": {
        "encoding": "inplace",
        "label": "contract IPairFactory",
        "numberOfBytes": "20"
      },
      "t_contract(IV2Router)3082": {
        "encoding": "inplace",
        "label": "contract IV2Router",
        "numberOfBytes": "20"
      }
    }
  }
}