{
  "address": "0x07A54accD2E9664D76D72e36880eb909fF20Bae2",
  "abi": [
    {
      "inputs": [],
      "name": "ACTION_ROLE",
      "outputs": [
        {
          "internalType": "bytes32",
          "name": "",
          "type": "bytes32"
        }
      ],
      "stateMutability": "view",
      "type": "function"
    },
    {
      "inputs": [],
      "name": "ADMIN_ROLE",
      "outputs": [
        {
          "internalType": "bytes32",
          "name": "",
          "type": "bytes32"
        }
      ],
      "stateMutability": "view",
      "type": "function"
    },
    {
      "inputs": [],
      "name": "PAUSER_ROLE",
      "outputs": [
        {
          "internalType": "bytes32",
          "name": "",
          "type": "bytes32"
        }
      ],
      "stateMutability": "view",
      "type": "function"
    },
    {
      "inputs": [],
      "name": "RELAY_ROLE",
      "outputs": [
        {
          "internalType": "bytes32",
          "name": "",
          "type": "bytes32"
        }
      ],
      "stateMutability": "view",
      "type": "function"
    },
    {
      "inputs": [
        {
          "internalType": "bytes32",
          "name": "role",
          "type": "bytes32"
        },
        {
          "internalType": "address",
          "name": "actor",
          "type": "address"
        }
      ],
      "name": "addRole",
      "outputs": [],
      "stateMutability": "nonpayable",
      "type": "function"
    },
    {
      "inputs": [
        {
          "components": [
            {
              "internalType": "uint128",
              "name": "fee",
              "type": "uint128"
            },
            {
              "internalType": "uint128",
              "name": "dexFee",
              "type": "uint128"
            },
            {
              "internalType": "address",
              "name": "trader",
              "type": "address"
            },
            {
              "internalType": "enum Types.OrderType",
              "name": "orderType",
              "type": "uint8"
            },
            {
              "components": [
                {
                  "internalType": "contract IERC20",
                  "name": "token",
                  "type": "address"
                },
                {
                  "internalType": "uint112",
                  "name": "amount",
                  "type": "uint112"
                }
              ],
              "internalType": "struct Types.TokenAmount",
              "name": "input",
              "type": "tuple"
            },
            {
              "components": [
                {
                  "internalType": "contract IERC20",
                  "name": "token",
                  "type": "address"
                },
                {
                  "internalType": "uint112",
                  "name": "amount",
                  "type": "uint112"
                }
              ],
              "internalType": "struct Types.TokenAmount",
              "name": "output",
              "type": "tuple"
            }
          ],
          "internalType": "struct Types.Order",
          "name": "order",
          "type": "tuple"
        },
        {
          "internalType": "bytes",
          "name": "orderCallData",
          "type": "bytes"
        }
      ],
      "name": "fill",
      "outputs": [
        {
          "internalType": "bool",
          "name": "success",
          "type": "bool"
        },
        {
          "internalType": "string",
          "name": "failReason",
          "type": "string"
        }
      ],
      "stateMutability": "nonpayable",
      "type": "function"
    },
    {
      "inputs": [
        {
          "internalType": "bytes32",
          "name": "role",
          "type": "bytes32"
        },
        {
          "internalType": "address",
          "name": "actor",
          "type": "address"
        }
      ],
      "name": "hasRole",
      "outputs": [
        {
          "internalType": "bool",
          "name": "",
          "type": "bool"
        }
      ],
      "stateMutability": "view",
      "type": "function"
    },
    {
      "inputs": [],
      "name": "initialize",
      "outputs": [],
      "stateMutability": "nonpayable",
      "type": "function"
    },
    {
      "inputs": [
        {
          "internalType": "bytes32",
          "name": "role",
          "type": "bytes32"
        },
        {
          "internalType": "address",
          "name": "actor",
          "type": "address"
        }
      ],
      "name": "revokeRole",
      "outputs": [],
      "stateMutability": "nonpayable",
      "type": "function"
    },
    {
      "stateMutability": "payable",
      "type": "receive"
    }
  ],
  "transactionHash": "0xce5d2cd3841f4ab6ff6374b72c9a904a34d237113ecada2f2eb3d8a9530130b4",
  "args": [],
  "solcInputHash": "905207ac38a7ab76b0709de0c6cc6552",
  "bytecode": "0x608060405234801561001057600080fd5b506110fe806100206000396000f3fe60806040526004361061008a5760003560e01c806391d148541161005957806391d1485414610102578063a76ff28e1461012f578063d547741f1461015d578063e63ab1e91461017d578063e959b38a1461019257610091565b8063044218231461009657806327054df6146100c157806375b238fc146100d65780638129fc1c146100eb57610091565b3661009157005b600080fd5b3480156100a257600080fd5b506100ab6101b2565b6040516100b89190610ed9565b60405180910390f35b3480156100cd57600080fd5b506100ab6101d6565b3480156100e257600080fd5b506100ab6101fa565b3480156100f757600080fd5b5061010061020c565b005b34801561010e57600080fd5b5061012261011d366004610cf8565b610299565b6040516100b89190610eab565b34801561013b57600080fd5b5061014f61014a366004610d27565b610334565b6040516100b8929190610eb6565b34801561016957600080fd5b50610100610178366004610cf8565b6108bc565b34801561018957600080fd5b506100ab610906565b34801561019e57600080fd5b506101006101ad366004610cf8565b61092a565b7f077a1d526a4ce8a773632ab13b4fbbf1fcc954c3dab26cd27ea0e2a6750da5d781565b7fd95061bdf0c43d77b6cbe1c15072292976244ec8d5012de75baa36e42da4625e81565b6000805160206110a983398151915281565b600061021661096a565b8054909150610100900460ff16806102305750805460ff16155b6102555760405162461bcd60e51b815260040161024c90610faf565b60405180910390fd5b8054610100900460ff1615801561027d57815460ff1961ff0019909116610100171660011782555b61028561098e565b801561029557815461ff00191682555b5050565b60006102a3610a57565b604051630f40931b60e41b815273824Ac211d63D628546c255aAABE124f1c4089C5D9163f40931b0916102dd919087908790600401610fff565b60206040518083038186803b1580156102f557600080fd5b505af4158015610309573d6000803e3d6000fd5b505050506040513d601f19601f8201168201806040525081019061032d9190610cd8565b9392505050565b60006060818161034685870187610c2a565b915091506103806040518060400160405280601481526020017311dbda5b99c81d1bc81cddd85c081d185c99d95d60621b81525083610a7b565b600061039260e0890160c08a01610c0e565b6001600160a01b03166370a08231306040518263ffffffff1660e01b81526004016103bd9190610e5c565b60206040518083038186803b1580156103d557600080fd5b505afa1580156103e9573d6000803e3d6000fd5b505050506040513d601f19601f8201168201806040525081019061040d9190610dfc565b905061044e6040518060400160405280601981526020017f42616c616e6365206f6620696e70757420746f6b656e2062340000000000000081525082610ac0565b61045e60a0890160808a01610c0e565b6001600160a01b031663095ea7b38460006040518363ffffffff1660e01b815260040161048c929190610e70565b602060405180830381600087803b1580156104a657600080fd5b505af11580156104ba573d6000803e3d6000fd5b505050506040513d601f19601f820116820180604052508101906104de9190610cd8565b6104e757600080fd5b6104f760a0890160808a01610c0e565b6001600160a01b031663095ea7b38461051660c08c0160a08d01610dae565b6040518363ffffffff1660e01b8152600401610533929190610e89565b602060405180830381600087803b15801561054d57600080fd5b505af1158015610561573d6000803e3d6000fd5b505050506040513d601f19601f820116820180604052508101906105859190610cd8565b61058e57600080fd5b6105ba6040518060400160405280600b81526020016a29bbb0b83834b73397171760a91b815250610b05565b60006001600160a01b0384166105d660408b0160208c01610dd5565b6001600160801b03165a90856040516105ef9190610e40565b600060405180830381858888f193505050503d806000811461062d576040519150601f19603f3d011682016040523d82523d6000602084013e610632565b606091505b50509050806106a25761066a6040518060400160405280600e81526020016d04661696c656420746f20737761760941b815250610b05565b60006040518060400160405280601081526020016f14d5d05417d0d0531317d1905253115160821b81525095509550505050506108b4565b60006106b460e08b0160c08c01610c0e565b6001600160a01b03166370a08231306040518263ffffffff1660e01b81526004016106df9190610e5c565b60206040518083038186803b1580156106f757600080fd5b505afa15801561070b573d6000803e3d6000fd5b505050506040513d601f19601f8201168201806040525081019061072f9190610dfc565b9050600061073d8285610b4b565b90506107716040518060400160405280601081526020016f10985b185b98d9481c9958d95a5d995960821b81525082610ac0565b6107826101008c0160e08d01610dae565b6001600160701b03168110156107aa5760405162461bcd60e51b815260040161024c90610f78565b6107ba60e08c0160c08d01610c0e565b6001600160a01b031663a9059cbb6107d860608e0160408f01610c0e565b836040518363ffffffff1660e01b81526004016107f6929190610e70565b602060405180830381600087803b15801561081057600080fd5b505af1158015610824573d6000803e3d6000fd5b505050506040513d601f19601f820116820180604052508101906108489190610cd8565b6108975761086d60405180606001604052806023815260200161106460239139610b05565b600060405180606001604052806022815260200161108760229139975097505050505050506108b4565b600160405180602001604052806000815250975097505050505050505b935093915050565b6108d66000805160206110a983398151915261011d610b73565b6108f25760405162461bcd60e51b815260040161024c90610fdc565b61029582826108ff610a57565b9190610b77565b7f65d7a28e3265b37a6474929f336521b332c1681b933f6cb9f3376673440d862a81565b6109446000805160206110a983398151915261011d610b73565b6109605760405162461bcd60e51b815260040161024c90610fdc565b6102958282610ba6565b7fd59dd79cfd4373c6c6547848d91fc2ea67c8aec9053f7028828216c5af1d474190565b600061099861096a565b8054909150610100900460ff16806109b25750805460ff16155b6109ce5760405162461bcd60e51b815260040161024c90610faf565b8054610100900460ff161580156109f657815460ff1961ff0019909116610100171660011782555b6000610a00610b73565b9050610a1a6000805160206110a983398151915282610ba6565b610a447f65d7a28e3265b37a6474929f336521b332c1681b933f6cb9f3376673440d862a82610ba6565b5080156102955750805461ff0019169055565b7f3a83b1278d351a40f18bb9e8e77896e8c1dc812ffaed5ea63e0e837a6dae57e990565b6102958282604051602401610a91929190610ef5565b60408051601f198184030181529190526020810180516001600160e01b031663319af33360e01b179052610bba565b6102958282604051602401610ad6929190610f1f565b60408051601f198184030181529190526020810180516001600160e01b03166309710a9d60e41b179052610bba565b610b4881604051602401610b199190610ee2565b60408051601f198184030181529190526020810180516001600160e01b031663104c13eb60e21b179052610bba565b50565b600082821115610b6d5760405162461bcd60e51b815260040161024c90610f41565b50900390565b3390565b60009182526001909201602090815260408083206001600160a01b03909416835292905220805460ff19169055565b6102958282610bb3610a57565b9190610bdb565b80516a636f6e736f6c652e6c6f67602083016000808483855afa5050505050565b60009182526001928301602090815260408084206001600160a01b0390931684529190529020805460ff19169091179055565b600060208284031215610c1f578081fd5b813561032d8161104e565b60008060408385031215610c3c578081fd5b8235610c478161104e565b915060208381013567ffffffffffffffff80821115610c64578384fd5b818601915086601f830112610c77578384fd5b813581811115610c85578485fd5b604051601f8201601f1916810185018381118282101715610ca4578687fd5b6040528181528382018501891015610cba578586fd5b81858501868301378585838301015280955050505050509250929050565b600060208284031215610ce9578081fd5b8151801515811461032d578182fd5b60008060408385031215610d0a578182fd5b823591506020830135610d1c8161104e565b809150509250929050565b6000806000838503610120811215610d3d578182fd5b61010080821215610d4c578283fd5b859450840135905067ffffffffffffffff80821115610d69578283fd5b818601915086601f830112610d7c578283fd5b813581811115610d8a578384fd5b876020828501011115610d9b578384fd5b6020830194508093505050509250925092565b600060208284031215610dbf578081fd5b81356001600160701b038116811461032d578182fd5b600060208284031215610de6578081fd5b81356001600160801b038116811461032d578182fd5b600060208284031215610e0d578081fd5b5051919050565b60008151808452610e2c81602086016020860161101e565b601f01601f19169290920160200192915050565b60008251610e5281846020870161101e565b9190910192915050565b6001600160a01b0391909116815260200190565b6001600160a01b03929092168252602082015260400190565b6001600160a01b039290921682526001600160701b0316602082015260400190565b901515815260200190565b6000831515825260406020830152610ed16040830184610e14565b949350505050565b90815260200190565b60006020825261032d6020830184610e14565b600060408252610f086040830185610e14565b905060018060a01b03831660208301529392505050565b600060408252610f326040830185610e14565b90508260208301529392505050565b6020808252601e908201527f536166654d6174683a207375627472616374696f6e206f766572666c6f770000604082015260600190565b6020808252601a908201527f496e73756666696369656e74206f757470757420616d6f756e74000000000000604082015260600190565b602080825260139082015272105b1c9958591e481a5b9a5d1a585b1a5e9959606a1b604082015260600190565b6020808252600990820152682737ba1030b236b4b760b91b604082015260600190565b92835260208301919091526001600160a01b0316604082015260600190565b60005b83811015611039578181015183820152602001611021565b83811115611048576000848401525b50505050565b6001600160a01b0381168114610b4857600080fdfe436f756c64206e6f74207472616e7366657220746f6b656e7320746f207472616465724661696c656420746f207472616e736665722066756e647320746f20747261646572a49807205ce4d355092ef5a8a18f56e8913cf4a201fbe287825b095693c21775a2646970667358221220a571293581ca5f0dec3a7492c36bbcbd9d8a1098210d37f11fd31182d435263264736f6c63430007000033",
  "deployedBytecode": "0x60806040526004361061008a5760003560e01c806391d148541161005957806391d1485414610102578063a76ff28e1461012f578063d547741f1461015d578063e63ab1e91461017d578063e959b38a1461019257610091565b8063044218231461009657806327054df6146100c157806375b238fc146100d65780638129fc1c146100eb57610091565b3661009157005b600080fd5b3480156100a257600080fd5b506100ab6101b2565b6040516100b89190610ed9565b60405180910390f35b3480156100cd57600080fd5b506100ab6101d6565b3480156100e257600080fd5b506100ab6101fa565b3480156100f757600080fd5b5061010061020c565b005b34801561010e57600080fd5b5061012261011d366004610cf8565b610299565b6040516100b89190610eab565b34801561013b57600080fd5b5061014f61014a366004610d27565b610334565b6040516100b8929190610eb6565b34801561016957600080fd5b50610100610178366004610cf8565b6108bc565b34801561018957600080fd5b506100ab610906565b34801561019e57600080fd5b506101006101ad366004610cf8565b61092a565b7f077a1d526a4ce8a773632ab13b4fbbf1fcc954c3dab26cd27ea0e2a6750da5d781565b7fd95061bdf0c43d77b6cbe1c15072292976244ec8d5012de75baa36e42da4625e81565b6000805160206110a983398151915281565b600061021661096a565b8054909150610100900460ff16806102305750805460ff16155b6102555760405162461bcd60e51b815260040161024c90610faf565b60405180910390fd5b8054610100900460ff1615801561027d57815460ff1961ff0019909116610100171660011782555b61028561098e565b801561029557815461ff00191682555b5050565b60006102a3610a57565b604051630f40931b60e41b815273__$712f9bd20561de4f0bfbc1442284f16fb4$__9163f40931b0916102dd919087908790600401610fff565b60206040518083038186803b1580156102f557600080fd5b505af4158015610309573d6000803e3d6000fd5b505050506040513d601f19601f8201168201806040525081019061032d9190610cd8565b9392505050565b60006060818161034685870187610c2a565b915091506103806040518060400160405280601481526020017311dbda5b99c81d1bc81cddd85c081d185c99d95d60621b81525083610a7b565b600061039260e0890160c08a01610c0e565b6001600160a01b03166370a08231306040518263ffffffff1660e01b81526004016103bd9190610e5c565b60206040518083038186803b1580156103d557600080fd5b505afa1580156103e9573d6000803e3d6000fd5b505050506040513d601f19601f8201168201806040525081019061040d9190610dfc565b905061044e6040518060400160405280601981526020017f42616c616e6365206f6620696e70757420746f6b656e2062340000000000000081525082610ac0565b61045e60a0890160808a01610c0e565b6001600160a01b031663095ea7b38460006040518363ffffffff1660e01b815260040161048c929190610e70565b602060405180830381600087803b1580156104a657600080fd5b505af11580156104ba573d6000803e3d6000fd5b505050506040513d601f19601f820116820180604052508101906104de9190610cd8565b6104e757600080fd5b6104f760a0890160808a01610c0e565b6001600160a01b031663095ea7b38461051660c08c0160a08d01610dae565b6040518363ffffffff1660e01b8152600401610533929190610e89565b602060405180830381600087803b15801561054d57600080fd5b505af1158015610561573d6000803e3d6000fd5b505050506040513d601f19601f820116820180604052508101906105859190610cd8565b61058e57600080fd5b6105ba6040518060400160405280600b81526020016a29bbb0b83834b73397171760a91b815250610b05565b60006001600160a01b0384166105d660408b0160208c01610dd5565b6001600160801b03165a90856040516105ef9190610e40565b600060405180830381858888f193505050503d806000811461062d576040519150601f19603f3d011682016040523d82523d6000602084013e610632565b606091505b50509050806106a25761066a6040518060400160405280600e81526020016d04661696c656420746f20737761760941b815250610b05565b60006040518060400160405280601081526020016f14d5d05417d0d0531317d1905253115160821b81525095509550505050506108b4565b60006106b460e08b0160c08c01610c0e565b6001600160a01b03166370a08231306040518263ffffffff1660e01b81526004016106df9190610e5c565b60206040518083038186803b1580156106f757600080fd5b505afa15801561070b573d6000803e3d6000fd5b505050506040513d601f19601f8201168201806040525081019061072f9190610dfc565b9050600061073d8285610b4b565b90506107716040518060400160405280601081526020016f10985b185b98d9481c9958d95a5d995960821b81525082610ac0565b6107826101008c0160e08d01610dae565b6001600160701b03168110156107aa5760405162461bcd60e51b815260040161024c90610f78565b6107ba60e08c0160c08d01610c0e565b6001600160a01b031663a9059cbb6107d860608e0160408f01610c0e565b836040518363ffffffff1660e01b81526004016107f6929190610e70565b602060405180830381600087803b15801561081057600080fd5b505af1158015610824573d6000803e3d6000fd5b505050506040513d601f19601f820116820180604052508101906108489190610cd8565b6108975761086d60405180606001604052806023815260200161106460239139610b05565b600060405180606001604052806022815260200161108760229139975097505050505050506108b4565b600160405180602001604052806000815250975097505050505050505b935093915050565b6108d66000805160206110a983398151915261011d610b73565b6108f25760405162461bcd60e51b815260040161024c90610fdc565b61029582826108ff610a57565b9190610b77565b7f65d7a28e3265b37a6474929f336521b332c1681b933f6cb9f3376673440d862a81565b6109446000805160206110a983398151915261011d610b73565b6109605760405162461bcd60e51b815260040161024c90610fdc565b6102958282610ba6565b7fd59dd79cfd4373c6c6547848d91fc2ea67c8aec9053f7028828216c5af1d474190565b600061099861096a565b8054909150610100900460ff16806109b25750805460ff16155b6109ce5760405162461bcd60e51b815260040161024c90610faf565b8054610100900460ff161580156109f657815460ff1961ff0019909116610100171660011782555b6000610a00610b73565b9050610a1a6000805160206110a983398151915282610ba6565b610a447f65d7a28e3265b37a6474929f336521b332c1681b933f6cb9f3376673440d862a82610ba6565b5080156102955750805461ff0019169055565b7f3a83b1278d351a40f18bb9e8e77896e8c1dc812ffaed5ea63e0e837a6dae57e990565b6102958282604051602401610a91929190610ef5565b60408051601f198184030181529190526020810180516001600160e01b031663319af33360e01b179052610bba565b6102958282604051602401610ad6929190610f1f565b60408051601f198184030181529190526020810180516001600160e01b03166309710a9d60e41b179052610bba565b610b4881604051602401610b199190610ee2565b60408051601f198184030181529190526020810180516001600160e01b031663104c13eb60e21b179052610bba565b50565b600082821115610b6d5760405162461bcd60e51b815260040161024c90610f41565b50900390565b3390565b60009182526001909201602090815260408083206001600160a01b03909416835292905220805460ff19169055565b6102958282610bb3610a57565b9190610bdb565b80516a636f6e736f6c652e6c6f67602083016000808483855afa5050505050565b60009182526001928301602090815260408084206001600160a01b0390931684529190529020805460ff19169091179055565b600060208284031215610c1f578081fd5b813561032d8161104e565b60008060408385031215610c3c578081fd5b8235610c478161104e565b915060208381013567ffffffffffffffff80821115610c64578384fd5b818601915086601f830112610c77578384fd5b813581811115610c85578485fd5b604051601f8201601f1916810185018381118282101715610ca4578687fd5b6040528181528382018501891015610cba578586fd5b81858501868301378585838301015280955050505050509250929050565b600060208284031215610ce9578081fd5b8151801515811461032d578182fd5b60008060408385031215610d0a578182fd5b823591506020830135610d1c8161104e565b809150509250929050565b6000806000838503610120811215610d3d578182fd5b61010080821215610d4c578283fd5b859450840135905067ffffffffffffffff80821115610d69578283fd5b818601915086601f830112610d7c578283fd5b813581811115610d8a578384fd5b876020828501011115610d9b578384fd5b6020830194508093505050509250925092565b600060208284031215610dbf578081fd5b81356001600160701b038116811461032d578182fd5b600060208284031215610de6578081fd5b81356001600160801b038116811461032d578182fd5b600060208284031215610e0d578081fd5b5051919050565b60008151808452610e2c81602086016020860161101e565b601f01601f19169290920160200192915050565b60008251610e5281846020870161101e565b9190910192915050565b6001600160a01b0391909116815260200190565b6001600160a01b03929092168252602082015260400190565b6001600160a01b039290921682526001600160701b0316602082015260400190565b901515815260200190565b6000831515825260406020830152610ed16040830184610e14565b949350505050565b90815260200190565b60006020825261032d6020830184610e14565b600060408252610f086040830185610e14565b905060018060a01b03831660208301529392505050565b600060408252610f326040830185610e14565b90508260208301529392505050565b6020808252601e908201527f536166654d6174683a207375627472616374696f6e206f766572666c6f770000604082015260600190565b6020808252601a908201527f496e73756666696369656e74206f757470757420616d6f756e74000000000000604082015260600190565b602080825260139082015272105b1c9958591e481a5b9a5d1a585b1a5e9959606a1b604082015260600190565b6020808252600990820152682737ba1030b236b4b760b91b604082015260600190565b92835260208301919091526001600160a01b0316604082015260600190565b60005b83811015611039578181015183820152602001611021565b83811115611048576000848401525b50505050565b6001600160a01b0381168114610b4857600080fdfe436f756c64206e6f74207472616e7366657220746f6b656e7320746f207472616465724661696c656420746f207472616e736665722066756e647320746f20747261646572a49807205ce4d355092ef5a8a18f56e8913cf4a201fbe287825b095693c21775a2646970667358221220a571293581ca5f0dec3a7492c36bbcbd9d8a1098210d37f11fd31182d435263264736f6c63430007000033",
  "libraries": {
    "LibAccess": "0x824Ac211d63D628546c255aAABE124f1c4089C5D",
    "LibConfig": "0x3C50fCD9c79A17751870c5d293bf6b6765E530f4",
    "LibGas": "0x019Dc3169a487ADCCaE94fA8dcFcC5740912405c",
    "ProxyAdmin": "0x71eEC1AECD2255b85eadD7130fA05a4941362E3c",
    "Settlement": "0x49972Ff4CFA973707CeCb91e5EAcf876ef553031",
    "SushiswapDex": "0x0A0FDBF6f8263604f6E1072AF5D780dA61faAAE2",
    "TransparentUpgradeableProxy": "0x7adb6Dda6c807a1dE5E9D1B65353eAcd8c291754",
    "UniswapDex": "0xE465F41b6b90B2E02a7355E56fa1Db09BCBe9e94"
  },
  "devdoc": {
    "kind": "dev",
    "methods": {},
    "version": 1
  },
  "userdoc": {
    "kind": "user",
    "methods": {},
    "version": 1
  },
  "storageLayout": {
    "storage": [],
    "types": null
  }
}