{
  "address": "0x6c30A42ACA0D2579812E06C60D86DFBF9394E264",
  "abi": [
    {
      "inputs": [],
      "name": "ACTION_ROLE",
      "outputs": [
        {
          "internalType": "bytes32",
          "name": "",
          "type": "bytes32"
        }
      ],
      "stateMutability": "view",
      "type": "function"
    },
    {
      "inputs": [],
      "name": "ADMIN_ROLE",
      "outputs": [
        {
          "internalType": "bytes32",
          "name": "",
          "type": "bytes32"
        }
      ],
      "stateMutability": "view",
      "type": "function"
    },
    {
      "inputs": [],
      "name": "PAUSER_ROLE",
      "outputs": [
        {
          "internalType": "bytes32",
          "name": "",
          "type": "bytes32"
        }
      ],
      "stateMutability": "view",
      "type": "function"
    },
    {
      "inputs": [],
      "name": "RELAY_ROLE",
      "outputs": [
        {
          "internalType": "bytes32",
          "name": "",
          "type": "bytes32"
        }
      ],
      "stateMutability": "view",
      "type": "function"
    },
    {
      "inputs": [
        {
          "internalType": "bytes32",
          "name": "role",
          "type": "bytes32"
        },
        {
          "internalType": "address",
          "name": "actor",
          "type": "address"
        }
      ],
      "name": "addRole",
      "outputs": [],
      "stateMutability": "nonpayable",
      "type": "function"
    },
    {
      "inputs": [
        {
          "components": [
            {
              "internalType": "address",
              "name": "trader",
              "type": "address"
            },
            {
              "internalType": "contract IERC20",
              "name": "feeToken",
              "type": "address"
            },
            {
              "internalType": "uint256",
              "name": "feeTokenETHPrice",
              "type": "uint256"
            },
            {
              "internalType": "uint256",
              "name": "gasEstimate",
              "type": "uint256"
            },
            {
              "components": [
                {
                  "internalType": "contract IERC20",
                  "name": "token",
                  "type": "address"
                },
                {
                  "internalType": "uint112",
                  "name": "amount",
                  "type": "uint112"
                }
              ],
              "internalType": "struct Types.TokenAmount",
              "name": "input",
              "type": "tuple"
            },
            {
              "components": [
                {
                  "internalType": "contract IERC20",
                  "name": "token",
                  "type": "address"
                },
                {
                  "internalType": "uint112",
                  "name": "amount",
                  "type": "uint112"
                }
              ],
              "internalType": "struct Types.TokenAmount",
              "name": "output",
              "type": "tuple"
            }
          ],
          "internalType": "struct Types.Order",
          "name": "order",
          "type": "tuple"
        },
        {
          "internalType": "bytes",
          "name": "orderCallData",
          "type": "bytes"
        }
      ],
      "name": "fill",
      "outputs": [
        {
          "internalType": "bool",
          "name": "success",
          "type": "bool"
        },
        {
          "internalType": "string",
          "name": "failReason",
          "type": "string"
        }
      ],
      "stateMutability": "nonpayable",
      "type": "function"
    },
    {
      "inputs": [
        {
          "internalType": "bytes32",
          "name": "role",
          "type": "bytes32"
        },
        {
          "internalType": "address",
          "name": "actor",
          "type": "address"
        }
      ],
      "name": "hasRole",
      "outputs": [
        {
          "internalType": "bool",
          "name": "",
          "type": "bool"
        }
      ],
      "stateMutability": "view",
      "type": "function"
    },
    {
      "inputs": [],
      "name": "initialize",
      "outputs": [],
      "stateMutability": "nonpayable",
      "type": "function"
    },
    {
      "inputs": [
        {
          "internalType": "bytes32",
          "name": "role",
          "type": "bytes32"
        },
        {
          "internalType": "address",
          "name": "actor",
          "type": "address"
        }
      ],
      "name": "revokeRole",
      "outputs": [],
      "stateMutability": "nonpayable",
      "type": "function"
    },
    {
      "stateMutability": "payable",
      "type": "receive"
    }
  ],
  "transactionHash": "0x8dbed86f3e411b7c0674035a5e0308bf05a8ff557e19ea980533d48fd5bf8f58",
  "args": [],
  "solcInputHash": "f7618f7667fc6a9324daa6ed2fa00f7d",
  "bytecode": "0x608060405234801561001057600080fd5b506114e7806100206000396000f3fe60806040526004361061008a5760003560e01c806391d148541161005957806391d1485414610102578063be82f7f61461012f578063d547741f1461015d578063e63ab1e91461017d578063e959b38a1461019257610091565b8063044218231461009657806327054df6146100c157806375b238fc146100d65780638129fc1c146100eb57610091565b3661009157005b600080fd5b3480156100a257600080fd5b506100ab6101b2565b6040516100b891906111e6565b60405180910390f35b3480156100cd57600080fd5b506100ab6101d6565b3480156100e257600080fd5b506100ab6101fa565b3480156100f757600080fd5b5061010061020c565b005b34801561010e57600080fd5b5061012261011d366004611018565b610299565b6040516100b891906111c0565b34801561013b57600080fd5b5061014f61014a366004611063565b610334565b6040516100b89291906111cb565b34801561016957600080fd5b50610100610178366004611018565b6109f2565b34801561018957600080fd5b506100ab610a3c565b34801561019e57600080fd5b506101006101ad366004611018565b610a60565b7f077a1d526a4ce8a773632ab13b4fbbf1fcc954c3dab26cd27ea0e2a6750da5d781565b7fd95061bdf0c43d77b6cbe1c15072292976244ec8d5012de75baa36e42da4625e81565b60008051602061149283398151915281565b6000610216610aa0565b8054909150610100900460ff16806102305750805460ff16155b6102555760405162461bcd60e51b815260040161024c90611339565b60405180910390fd5b8054610100900460ff1615801561027d57815460ff1961ff0019909116610100171660011782555b610285610ac4565b801561029557815461ff00191682555b5050565b60006102a3610b8d565b604051630f40931b60e41b815273824Ac211d63D628546c255aAABE124f1c4089C5D9163f40931b0916102dd9190879087906004016113d3565b60206040518083038186803b1580156102f557600080fd5b505af4158015610309573d6000803e3d6000fd5b505050506040513d601f19601f8201168201806040525081019061032d9190610ff8565b9392505050565b6000606081808261034786880188610f45565b92509250925061036e60405180606001604052806027815260200161146b60279139610bb1565b6103a46040518060400160405280601481526020017311dbda5b99c81d1bc81cddd85c081d185c99d95d60621b81525084610bf7565b6103e36040518060400160405280601781526020017f417070726f76696e6720616c6c6f77616e636520666f7200000000000000000081525083610bf7565b60408051808201909152601581527414ddd85c1c1a5b99c81a5b9c1d5d08185b5bdd5b9d605a1b60208201526104319061042360c08b0160a08c016110ea565b6001600160701b0316610c3c565b600061044360e08a0160c08b01611047565b6001600160a01b03166370a08231306040518263ffffffff1660e01b815260040161046e9190611171565b60206040518083038186803b15801561048657600080fd5b505afa15801561049a573d6000803e3d6000fd5b505050506040513d601f19601f820116820180604052508101906104be9190611111565b90506104ff6040518060400160405280601a81526020017f42616c616e6365206f66206f757470757420746f6b656e20623400000000000081525082610c3c565b61050f60a08a0160808b01611047565b6001600160a01b031663095ea7b38460006040518363ffffffff1660e01b815260040161053d929190611185565b602060405180830381600087803b15801561055757600080fd5b505af115801561056b573d6000803e3d6000fd5b505050506040513d601f19601f8201168201806040525081019061058f9190610ff8565b61059857600080fd5b6105a860a08a0160808b01611047565b6001600160a01b031663095ea7b3846105c760c08d0160a08e016110ea565b6040518363ffffffff1660e01b81526004016105e492919061119e565b602060405180830381600087803b1580156105fe57600080fd5b505af1158015610612573d6000803e3d6000fd5b505050506040513d601f19601f820116820180604052508101906106369190610ff8565b61063f57600080fd5b6106766040518060400160405280601581526020017414ddd85c1c1a5b99c81dda5d1a0819d85cdb19599d605a1b8152505a610c3c565b6000846001600160a01b03165a846040516106919190611155565b60006040518083038160008787f1925050503d80600081146106cf576040519150601f19603f3d011682016040523d82523d6000602084013e6106d4565b606091505b505090506107086040518060400160405280600e81526020016d047617320616674657220737761760941b8152505a610c3c565b806107ae5761073c6040518060400160405280600e81526020016d04661696c656420746f20737761760941b815250610bb1565b610775604051806040016040528060188152602001772d2d2d2d20454e44205a525820524f55544552202d2d2d2d60401b815250610bb1565b60006040518060400160405280601081526020016f14d5d05417d0d0531317d1905253115160821b8152509650965050505050506109ea565b60006107c060e08c0160c08d01611047565b6001600160a01b03166370a08231306040518263ffffffff1660e01b81526004016107eb9190611171565b60206040518083038186803b15801561080357600080fd5b505afa158015610817573d6000803e3d6000fd5b505050506040513d601f19601f8201168201806040525081019061083b9190611111565b905061086c6040518060400160405280600d81526020016c2130b630b731b29030b33a32b960991b81525082610c3c565b60006108788285610c81565b90506108ac6040518060400160405280601081526020016f10985b185b98d9481c9958d95a5d995960821b81525082610c3c565b6108ea6040518060400160405280600c81526020016b135a5b881c995c5d5a5c995960a21b8152508d60c001602001602081019061042391906110ea565b6108fb6101008d0160e08e016110ea565b6001600160701b03168110156109235760405162461bcd60e51b815260040161024c906112cb565b61095561092e610ca9565b828e60c00160000160208101906109459190611047565b6001600160a01b03169190610cad565b610993604051806040016040528060158152602001745472616e7366657272656420726573756c7420746f60581b81525061098e610ca9565b610bf7565b6109cc604051806040016040528060188152602001772d2d2d2d20454e44205a525820524f55544552202d2d2d2d60401b815250610bb1565b60016040518060200160405280600081525098509850505050505050505b935093915050565b610a0c60008051602061149283398151915261011d610ca9565b610a285760405162461bcd60e51b815260040161024c906113b0565b6102958282610a35610b8d565b9190610d08565b7f65d7a28e3265b37a6474929f336521b332c1681b933f6cb9f3376673440d862a81565b610a7a60008051602061149283398151915261011d610ca9565b610a965760405162461bcd60e51b815260040161024c906113b0565b6102958282610d37565b7fd59dd79cfd4373c6c6547848d91fc2ea67c8aec9053f7028828216c5af1d474190565b6000610ace610aa0565b8054909150610100900460ff1680610ae85750805460ff16155b610b045760405162461bcd60e51b815260040161024c90611339565b8054610100900460ff16158015610b2c57815460ff1961ff0019909116610100171660011782555b6000610b36610ca9565b9050610b5060008051602061149283398151915282610d37565b610b7a7f65d7a28e3265b37a6474929f336521b332c1681b933f6cb9f3376673440d862a82610d37565b5080156102955750805461ff0019169055565b7f3a83b1278d351a40f18bb9e8e77896e8c1dc812ffaed5ea63e0e837a6dae57e990565b610bf481604051602401610bc591906111ef565b60408051601f198184030181529190526020810180516001600160e01b031663104c13eb60e21b179052610d4b565b50565b6102958282604051602401610c0d929190611202565b60408051601f198184030181529190526020810180516001600160e01b031663319af33360e01b179052610d4b565b6102958282604051602401610c5292919061122c565b60408051601f198184030181529190526020810180516001600160e01b03166309710a9d60e41b179052610d4b565b600082821115610ca35760405162461bcd60e51b815260040161024c9061124e565b50900390565b3390565b610d038363a9059cbb60e01b8484604051602401610ccc929190611185565b60408051601f198184030181529190526020810180516001600160e01b03166001600160e01b031990931692909217909152610d6c565b505050565b60009182526001909201602090815260408083206001600160a01b03909416835292905220805460ff19169055565b6102958282610d44610b8d565b9190610dfb565b80516a636f6e736f6c652e6c6f67602083016000808483855afa5050505050565b6060610dc1826040518060400160405280602081526020017f5361666545524332303a206c6f772d6c6576656c2063616c6c206661696c6564815250856001600160a01b0316610e2e9092919063ffffffff16565b805190915015610d035780806020019051810190610ddf9190610ff8565b610d035760405162461bcd60e51b815260040161024c90611366565b60009182526001928301602090815260408084206001600160a01b0390931684529190529020805460ff19169091179055565b6060610e3d8484600085610e45565b949350505050565b606082471015610e675760405162461bcd60e51b815260040161024c90611285565b610e7085610f06565b610e8c5760405162461bcd60e51b815260040161024c90611302565b60006060866001600160a01b03168587604051610ea99190611155565b60006040518083038185875af1925050503d8060008114610ee6576040519150601f19603f3d011682016040523d82523d6000602084013e610eeb565b606091505b5091509150610efb828286610f0c565b979650505050505050565b3b151590565b60608315610f1b57508161032d565b825115610f2b5782518084602001fd5b8160405162461bcd60e51b815260040161024c91906111ef565b600080600060608486031215610f59578283fd5b8335610f6481611455565b92506020840135610f7481611455565b9150604084013567ffffffffffffffff80821115610f90578283fd5b818601915086601f830112610fa3578283fd5b813581811115610fb1578384fd5b610fc4601f8201601f19166020016113f2565b9150808252876020828501011115610fda578384fd5b610feb816020840160208601611419565b5080925050509250925092565b600060208284031215611009578081fd5b8151801515811461032d578182fd5b6000806040838503121561102a578182fd5b82359150602083013561103c81611455565b809150509250929050565b600060208284031215611058578081fd5b813561032d81611455565b6000806000838503610120811215611079578384fd5b61010080821215611088578485fd5b859450840135905067ffffffffffffffff808211156110a5578384fd5b818601915086601f8301126110b8578384fd5b8135818111156110c6578485fd5b8760208285010111156110d7578485fd5b6020830194508093505050509250925092565b6000602082840312156110fb578081fd5b81356001600160701b038116811461032d578182fd5b600060208284031215611122578081fd5b5051919050565b60008151808452611141816020860160208601611425565b601f01601f19169290920160200192915050565b60008251611167818460208701611425565b9190910192915050565b6001600160a01b0391909116815260200190565b6001600160a01b03929092168252602082015260400190565b6001600160a01b039290921682526001600160701b0316602082015260400190565b901515815260200190565b6000831515825260406020830152610e3d6040830184611129565b90815260200190565b60006020825261032d6020830184611129565b6000604082526112156040830185611129565b905060018060a01b03831660208301529392505050565b60006040825261123f6040830185611129565b90508260208301529392505050565b6020808252601e908201527f536166654d6174683a207375627472616374696f6e206f766572666c6f770000604082015260600190565b60208082526026908201527f416464726573733a20696e73756666696369656e742062616c616e636520666f6040820152651c8818d85b1b60d21b606082015260800190565b6020808252601a908201527f496e73756666696369656e74206f757470757420616d6f756e74000000000000604082015260600190565b6020808252601d908201527f416464726573733a2063616c6c20746f206e6f6e2d636f6e7472616374000000604082015260600190565b602080825260139082015272105b1c9958591e481a5b9a5d1a585b1a5e9959606a1b604082015260600190565b6020808252602a908201527f5361666545524332303a204552433230206f7065726174696f6e20646964206e6040820152691bdd081cdd58d8d9595960b21b606082015260800190565b6020808252600990820152682737ba1030b236b4b760b91b604082015260600190565b92835260208301919091526001600160a01b0316604082015260600190565b60405181810167ffffffffffffffff8111828210171561141157600080fd5b604052919050565b82818337506000910152565b60005b83811015611440578181015183820152602001611428565b8381111561144f576000848401525b50505050565b6001600160a01b0381168114610bf457600080fdfe2d2d2d2d2d2d2d2d2d2d2d2d2d205a525820524f55544552202d2d2d2d2d2d2d2d2d2d2d2d2d2da49807205ce4d355092ef5a8a18f56e8913cf4a201fbe287825b095693c21775a2646970667358221220e5423a45bbf44cb53931bfd7869c3c1340ab97fc0df04b57c2a5bcf6c200ee4964736f6c63430007000033",
  "deployedBytecode": "0x60806040526004361061008a5760003560e01c806391d148541161005957806391d1485414610102578063be82f7f61461012f578063d547741f1461015d578063e63ab1e91461017d578063e959b38a1461019257610091565b8063044218231461009657806327054df6146100c157806375b238fc146100d65780638129fc1c146100eb57610091565b3661009157005b600080fd5b3480156100a257600080fd5b506100ab6101b2565b6040516100b891906111e6565b60405180910390f35b3480156100cd57600080fd5b506100ab6101d6565b3480156100e257600080fd5b506100ab6101fa565b3480156100f757600080fd5b5061010061020c565b005b34801561010e57600080fd5b5061012261011d366004611018565b610299565b6040516100b891906111c0565b34801561013b57600080fd5b5061014f61014a366004611063565b610334565b6040516100b89291906111cb565b34801561016957600080fd5b50610100610178366004611018565b6109f2565b34801561018957600080fd5b506100ab610a3c565b34801561019e57600080fd5b506101006101ad366004611018565b610a60565b7f077a1d526a4ce8a773632ab13b4fbbf1fcc954c3dab26cd27ea0e2a6750da5d781565b7fd95061bdf0c43d77b6cbe1c15072292976244ec8d5012de75baa36e42da4625e81565b60008051602061149283398151915281565b6000610216610aa0565b8054909150610100900460ff16806102305750805460ff16155b6102555760405162461bcd60e51b815260040161024c90611339565b60405180910390fd5b8054610100900460ff1615801561027d57815460ff1961ff0019909116610100171660011782555b610285610ac4565b801561029557815461ff00191682555b5050565b60006102a3610b8d565b604051630f40931b60e41b815273__$712f9bd20561de4f0bfbc1442284f16fb4$__9163f40931b0916102dd9190879087906004016113d3565b60206040518083038186803b1580156102f557600080fd5b505af4158015610309573d6000803e3d6000fd5b505050506040513d601f19601f8201168201806040525081019061032d9190610ff8565b9392505050565b6000606081808261034786880188610f45565b92509250925061036e60405180606001604052806027815260200161146b60279139610bb1565b6103a46040518060400160405280601481526020017311dbda5b99c81d1bc81cddd85c081d185c99d95d60621b81525084610bf7565b6103e36040518060400160405280601781526020017f417070726f76696e6720616c6c6f77616e636520666f7200000000000000000081525083610bf7565b60408051808201909152601581527414ddd85c1c1a5b99c81a5b9c1d5d08185b5bdd5b9d605a1b60208201526104319061042360c08b0160a08c016110ea565b6001600160701b0316610c3c565b600061044360e08a0160c08b01611047565b6001600160a01b03166370a08231306040518263ffffffff1660e01b815260040161046e9190611171565b60206040518083038186803b15801561048657600080fd5b505afa15801561049a573d6000803e3d6000fd5b505050506040513d601f19601f820116820180604052508101906104be9190611111565b90506104ff6040518060400160405280601a81526020017f42616c616e6365206f66206f757470757420746f6b656e20623400000000000081525082610c3c565b61050f60a08a0160808b01611047565b6001600160a01b031663095ea7b38460006040518363ffffffff1660e01b815260040161053d929190611185565b602060405180830381600087803b15801561055757600080fd5b505af115801561056b573d6000803e3d6000fd5b505050506040513d601f19601f8201168201806040525081019061058f9190610ff8565b61059857600080fd5b6105a860a08a0160808b01611047565b6001600160a01b031663095ea7b3846105c760c08d0160a08e016110ea565b6040518363ffffffff1660e01b81526004016105e492919061119e565b602060405180830381600087803b1580156105fe57600080fd5b505af1158015610612573d6000803e3d6000fd5b505050506040513d601f19601f820116820180604052508101906106369190610ff8565b61063f57600080fd5b6106766040518060400160405280601581526020017414ddd85c1c1a5b99c81dda5d1a0819d85cdb19599d605a1b8152505a610c3c565b6000846001600160a01b03165a846040516106919190611155565b60006040518083038160008787f1925050503d80600081146106cf576040519150601f19603f3d011682016040523d82523d6000602084013e6106d4565b606091505b505090506107086040518060400160405280600e81526020016d047617320616674657220737761760941b8152505a610c3c565b806107ae5761073c6040518060400160405280600e81526020016d04661696c656420746f20737761760941b815250610bb1565b610775604051806040016040528060188152602001772d2d2d2d20454e44205a525820524f55544552202d2d2d2d60401b815250610bb1565b60006040518060400160405280601081526020016f14d5d05417d0d0531317d1905253115160821b8152509650965050505050506109ea565b60006107c060e08c0160c08d01611047565b6001600160a01b03166370a08231306040518263ffffffff1660e01b81526004016107eb9190611171565b60206040518083038186803b15801561080357600080fd5b505afa158015610817573d6000803e3d6000fd5b505050506040513d601f19601f8201168201806040525081019061083b9190611111565b905061086c6040518060400160405280600d81526020016c2130b630b731b29030b33a32b960991b81525082610c3c565b60006108788285610c81565b90506108ac6040518060400160405280601081526020016f10985b185b98d9481c9958d95a5d995960821b81525082610c3c565b6108ea6040518060400160405280600c81526020016b135a5b881c995c5d5a5c995960a21b8152508d60c001602001602081019061042391906110ea565b6108fb6101008d0160e08e016110ea565b6001600160701b03168110156109235760405162461bcd60e51b815260040161024c906112cb565b61095561092e610ca9565b828e60c00160000160208101906109459190611047565b6001600160a01b03169190610cad565b610993604051806040016040528060158152602001745472616e7366657272656420726573756c7420746f60581b81525061098e610ca9565b610bf7565b6109cc604051806040016040528060188152602001772d2d2d2d20454e44205a525820524f55544552202d2d2d2d60401b815250610bb1565b60016040518060200160405280600081525098509850505050505050505b935093915050565b610a0c60008051602061149283398151915261011d610ca9565b610a285760405162461bcd60e51b815260040161024c906113b0565b6102958282610a35610b8d565b9190610d08565b7f65d7a28e3265b37a6474929f336521b332c1681b933f6cb9f3376673440d862a81565b610a7a60008051602061149283398151915261011d610ca9565b610a965760405162461bcd60e51b815260040161024c906113b0565b6102958282610d37565b7fd59dd79cfd4373c6c6547848d91fc2ea67c8aec9053f7028828216c5af1d474190565b6000610ace610aa0565b8054909150610100900460ff1680610ae85750805460ff16155b610b045760405162461bcd60e51b815260040161024c90611339565b8054610100900460ff16158015610b2c57815460ff1961ff0019909116610100171660011782555b6000610b36610ca9565b9050610b5060008051602061149283398151915282610d37565b610b7a7f65d7a28e3265b37a6474929f336521b332c1681b933f6cb9f3376673440d862a82610d37565b5080156102955750805461ff0019169055565b7f3a83b1278d351a40f18bb9e8e77896e8c1dc812ffaed5ea63e0e837a6dae57e990565b610bf481604051602401610bc591906111ef565b60408051601f198184030181529190526020810180516001600160e01b031663104c13eb60e21b179052610d4b565b50565b6102958282604051602401610c0d929190611202565b60408051601f198184030181529190526020810180516001600160e01b031663319af33360e01b179052610d4b565b6102958282604051602401610c5292919061122c565b60408051601f198184030181529190526020810180516001600160e01b03166309710a9d60e41b179052610d4b565b600082821115610ca35760405162461bcd60e51b815260040161024c9061124e565b50900390565b3390565b610d038363a9059cbb60e01b8484604051602401610ccc929190611185565b60408051601f198184030181529190526020810180516001600160e01b03166001600160e01b031990931692909217909152610d6c565b505050565b60009182526001909201602090815260408083206001600160a01b03909416835292905220805460ff19169055565b6102958282610d44610b8d565b9190610dfb565b80516a636f6e736f6c652e6c6f67602083016000808483855afa5050505050565b6060610dc1826040518060400160405280602081526020017f5361666545524332303a206c6f772d6c6576656c2063616c6c206661696c6564815250856001600160a01b0316610e2e9092919063ffffffff16565b805190915015610d035780806020019051810190610ddf9190610ff8565b610d035760405162461bcd60e51b815260040161024c90611366565b60009182526001928301602090815260408084206001600160a01b0390931684529190529020805460ff19169091179055565b6060610e3d8484600085610e45565b949350505050565b606082471015610e675760405162461bcd60e51b815260040161024c90611285565b610e7085610f06565b610e8c5760405162461bcd60e51b815260040161024c90611302565b60006060866001600160a01b03168587604051610ea99190611155565b60006040518083038185875af1925050503d8060008114610ee6576040519150601f19603f3d011682016040523d82523d6000602084013e610eeb565b606091505b5091509150610efb828286610f0c565b979650505050505050565b3b151590565b60608315610f1b57508161032d565b825115610f2b5782518084602001fd5b8160405162461bcd60e51b815260040161024c91906111ef565b600080600060608486031215610f59578283fd5b8335610f6481611455565b92506020840135610f7481611455565b9150604084013567ffffffffffffffff80821115610f90578283fd5b818601915086601f830112610fa3578283fd5b813581811115610fb1578384fd5b610fc4601f8201601f19166020016113f2565b9150808252876020828501011115610fda578384fd5b610feb816020840160208601611419565b5080925050509250925092565b600060208284031215611009578081fd5b8151801515811461032d578182fd5b6000806040838503121561102a578182fd5b82359150602083013561103c81611455565b809150509250929050565b600060208284031215611058578081fd5b813561032d81611455565b6000806000838503610120811215611079578384fd5b61010080821215611088578485fd5b859450840135905067ffffffffffffffff808211156110a5578384fd5b818601915086601f8301126110b8578384fd5b8135818111156110c6578485fd5b8760208285010111156110d7578485fd5b6020830194508093505050509250925092565b6000602082840312156110fb578081fd5b81356001600160701b038116811461032d578182fd5b600060208284031215611122578081fd5b5051919050565b60008151808452611141816020860160208601611425565b601f01601f19169290920160200192915050565b60008251611167818460208701611425565b9190910192915050565b6001600160a01b0391909116815260200190565b6001600160a01b03929092168252602082015260400190565b6001600160a01b039290921682526001600160701b0316602082015260400190565b901515815260200190565b6000831515825260406020830152610e3d6040830184611129565b90815260200190565b60006020825261032d6020830184611129565b6000604082526112156040830185611129565b905060018060a01b03831660208301529392505050565b60006040825261123f6040830185611129565b90508260208301529392505050565b6020808252601e908201527f536166654d6174683a207375627472616374696f6e206f766572666c6f770000604082015260600190565b60208082526026908201527f416464726573733a20696e73756666696369656e742062616c616e636520666f6040820152651c8818d85b1b60d21b606082015260800190565b6020808252601a908201527f496e73756666696369656e74206f757470757420616d6f756e74000000000000604082015260600190565b6020808252601d908201527f416464726573733a2063616c6c20746f206e6f6e2d636f6e7472616374000000604082015260600190565b602080825260139082015272105b1c9958591e481a5b9a5d1a585b1a5e9959606a1b604082015260600190565b6020808252602a908201527f5361666545524332303a204552433230206f7065726174696f6e20646964206e6040820152691bdd081cdd58d8d9595960b21b606082015260800190565b6020808252600990820152682737ba1030b236b4b760b91b604082015260600190565b92835260208301919091526001600160a01b0316604082015260600190565b60405181810167ffffffffffffffff8111828210171561141157600080fd5b604052919050565b82818337506000910152565b60005b83811015611440578181015183820152602001611428565b8381111561144f576000848401525b50505050565b6001600160a01b0381168114610bf457600080fdfe2d2d2d2d2d2d2d2d2d2d2d2d2d205a525820524f55544552202d2d2d2d2d2d2d2d2d2d2d2d2d2da49807205ce4d355092ef5a8a18f56e8913cf4a201fbe287825b095693c21775a2646970667358221220e5423a45bbf44cb53931bfd7869c3c1340ab97fc0df04b57c2a5bcf6c200ee4964736f6c63430007000033",
  "libraries": {
    "LibAccess": "0x824Ac211d63D628546c255aAABE124f1c4089C5D",
    "LibConfig": "0x3C50fCD9c79A17751870c5d293bf6b6765E530f4",
    "LibGas": "0x019Dc3169a487ADCCaE94fA8dcFcC5740912405c",
    "ProxyAdmin": "0x71eEC1AECD2255b85eadD7130fA05a4941362E3c",
    "Settlement": "0xA2438f07eDf2E06eF7D9e9e8c1B01aDCe411053f",
    "SushiswapDex": "0x0A0FDBF6f8263604f6E1072AF5D780dA61faAAE2",
    "TransparentUpgradeableProxy": "0x42a698126d0A96a10E8215009bEd9cbD3a11b211",
    "UniswapDex": "0xE465F41b6b90B2E02a7355E56fa1Db09BCBe9e94",
    "ZrxRouter": "0x7536bbE9d9ADBd7B7C87b6436ddA70489dDf2e8C"
  },
  "devdoc": {
    "kind": "dev",
    "methods": {},
    "version": 1
  },
  "userdoc": {
    "kind": "user",
    "methods": {},
    "version": 1
  },
  "storageLayout": {
    "storage": [],
    "types": null
  }
}